{
	"contracts/Pool.sol": {
		"Pool": {
			"abi": [
				{
					"inputs": [
						{
							"internalType": "address",
							"name": "token0",
							"type": "address"
						},
						{
							"internalType": "address",
							"name": "token1",
							"type": "address"
						}
					],
					"stateMutability": "nonpayable",
					"type": "constructor"
				},
				{
					"inputs": [],
					"name": "AMOUNT_EQUALS_ZERO",
					"type": "error"
				},
				{
					"inputs": [],
					"name": "AllowanceOverflow",
					"type": "error"
				},
				{
					"inputs": [],
					"name": "AllowanceUnderflow",
					"type": "error"
				},
				{
					"inputs": [],
					"name": "INSUFFICIENT_AMOUNT",
					"type": "error"
				},
				{
					"inputs": [],
					"name": "INSUFFICIENT_BALANCE",
					"type": "error"
				},
				{
					"inputs": [],
					"name": "InsufficientAllowance",
					"type": "error"
				},
				{
					"inputs": [],
					"name": "InsufficientBalance",
					"type": "error"
				},
				{
					"inputs": [],
					"name": "InvalidPermit",
					"type": "error"
				},
				{
					"inputs": [],
					"name": "NOT_ENOUGH_BALANCE",
					"type": "error"
				},
				{
					"inputs": [],
					"name": "PermitExpired",
					"type": "error"
				},
				{
					"inputs": [],
					"name": "TOKEN_NOT_INSIDE_POOL",
					"type": "error"
				},
				{
					"inputs": [],
					"name": "TRANSFER_FAILED",
					"type": "error"
				},
				{
					"inputs": [],
					"name": "TotalSupplyOverflow",
					"type": "error"
				},
				{
					"anonymous": false,
					"inputs": [
						{
							"indexed": true,
							"internalType": "address",
							"name": "owner",
							"type": "address"
						},
						{
							"indexed": true,
							"internalType": "address",
							"name": "spender",
							"type": "address"
						},
						{
							"indexed": false,
							"internalType": "uint256",
							"name": "amount",
							"type": "uint256"
						}
					],
					"name": "Approval",
					"type": "event"
				},
				{
					"anonymous": false,
					"inputs": [],
					"name": "Deposit",
					"type": "event"
				},
				{
					"anonymous": false,
					"inputs": [],
					"name": "Swap",
					"type": "event"
				},
				{
					"anonymous": false,
					"inputs": [
						{
							"indexed": true,
							"internalType": "address",
							"name": "from",
							"type": "address"
						},
						{
							"indexed": true,
							"internalType": "address",
							"name": "to",
							"type": "address"
						},
						{
							"indexed": false,
							"internalType": "uint256",
							"name": "amount",
							"type": "uint256"
						}
					],
					"name": "Transfer",
					"type": "event"
				},
				{
					"anonymous": false,
					"inputs": [],
					"name": "Withdraw",
					"type": "event"
				},
				{
					"inputs": [],
					"name": "DOMAIN_SEPARATOR",
					"outputs": [
						{
							"internalType": "bytes32",
							"name": "result",
							"type": "bytes32"
						}
					],
					"stateMutability": "view",
					"type": "function"
				},
				{
					"inputs": [
						{
							"internalType": "address",
							"name": "owner",
							"type": "address"
						},
						{
							"internalType": "address",
							"name": "spender",
							"type": "address"
						}
					],
					"name": "allowance",
					"outputs": [
						{
							"internalType": "uint256",
							"name": "result",
							"type": "uint256"
						}
					],
					"stateMutability": "view",
					"type": "function"
				},
				{
					"inputs": [
						{
							"internalType": "address",
							"name": "spender",
							"type": "address"
						},
						{
							"internalType": "uint256",
							"name": "amount",
							"type": "uint256"
						}
					],
					"name": "approve",
					"outputs": [
						{
							"internalType": "bool",
							"name": "",
							"type": "bool"
						}
					],
					"stateMutability": "nonpayable",
					"type": "function"
				},
				{
					"inputs": [
						{
							"internalType": "address",
							"name": "owner",
							"type": "address"
						}
					],
					"name": "balanceOf",
					"outputs": [
						{
							"internalType": "uint256",
							"name": "result",
							"type": "uint256"
						}
					],
					"stateMutability": "view",
					"type": "function"
				},
				{
					"inputs": [],
					"name": "decimals",
					"outputs": [
						{
							"internalType": "uint8",
							"name": "",
							"type": "uint8"
						}
					],
					"stateMutability": "view",
					"type": "function"
				},
				{
					"inputs": [
						{
							"internalType": "uint256",
							"name": "amount0",
							"type": "uint256"
						},
						{
							"internalType": "uint256",
							"name": "amount1",
							"type": "uint256"
						}
					],
					"name": "deposit",
					"outputs": [
						{
							"internalType": "uint256",
							"name": "",
							"type": "uint256"
						}
					],
					"stateMutability": "nonpayable",
					"type": "function"
				},
				{
					"inputs": [],
					"name": "factory",
					"outputs": [
						{
							"internalType": "address",
							"name": "",
							"type": "address"
						}
					],
					"stateMutability": "view",
					"type": "function"
				},
				{
					"inputs": [],
					"name": "name",
					"outputs": [
						{
							"internalType": "string",
							"name": "",
							"type": "string"
						}
					],
					"stateMutability": "view",
					"type": "function"
				},
				{
					"inputs": [
						{
							"internalType": "address",
							"name": "owner",
							"type": "address"
						}
					],
					"name": "nonces",
					"outputs": [
						{
							"internalType": "uint256",
							"name": "result",
							"type": "uint256"
						}
					],
					"stateMutability": "view",
					"type": "function"
				},
				{
					"inputs": [
						{
							"internalType": "address",
							"name": "owner",
							"type": "address"
						},
						{
							"internalType": "address",
							"name": "spender",
							"type": "address"
						},
						{
							"internalType": "uint256",
							"name": "value",
							"type": "uint256"
						},
						{
							"internalType": "uint256",
							"name": "deadline",
							"type": "uint256"
						},
						{
							"internalType": "uint8",
							"name": "v",
							"type": "uint8"
						},
						{
							"internalType": "bytes32",
							"name": "r",
							"type": "bytes32"
						},
						{
							"internalType": "bytes32",
							"name": "s",
							"type": "bytes32"
						}
					],
					"name": "permit",
					"outputs": [],
					"stateMutability": "nonpayable",
					"type": "function"
				},
				{
					"inputs": [
						{
							"internalType": "address",
							"name": "token",
							"type": "address"
						},
						{
							"internalType": "uint256",
							"name": "amount",
							"type": "uint256"
						}
					],
					"name": "quote",
					"outputs": [
						{
							"internalType": "uint256",
							"name": "",
							"type": "uint256"
						}
					],
					"stateMutability": "view",
					"type": "function"
				},
				{
					"inputs": [
						{
							"internalType": "address",
							"name": "token",
							"type": "address"
						},
						{
							"internalType": "uint256",
							"name": "amount",
							"type": "uint256"
						}
					],
					"name": "swap",
					"outputs": [
						{
							"internalType": "uint256",
							"name": "",
							"type": "uint256"
						}
					],
					"stateMutability": "nonpayable",
					"type": "function"
				},
				{
					"inputs": [],
					"name": "symbol",
					"outputs": [
						{
							"internalType": "string",
							"name": "",
							"type": "string"
						}
					],
					"stateMutability": "view",
					"type": "function"
				},
				{
					"inputs": [],
					"name": "totalSupply",
					"outputs": [
						{
							"internalType": "uint256",
							"name": "result",
							"type": "uint256"
						}
					],
					"stateMutability": "view",
					"type": "function"
				},
				{
					"inputs": [
						{
							"internalType": "address",
							"name": "to",
							"type": "address"
						},
						{
							"internalType": "uint256",
							"name": "amount",
							"type": "uint256"
						}
					],
					"name": "transfer",
					"outputs": [
						{
							"internalType": "bool",
							"name": "",
							"type": "bool"
						}
					],
					"stateMutability": "nonpayable",
					"type": "function"
				},
				{
					"inputs": [
						{
							"internalType": "address",
							"name": "from",
							"type": "address"
						},
						{
							"internalType": "address",
							"name": "to",
							"type": "address"
						},
						{
							"internalType": "uint256",
							"name": "amount",
							"type": "uint256"
						}
					],
					"name": "transferFrom",
					"outputs": [
						{
							"internalType": "bool",
							"name": "",
							"type": "bool"
						}
					],
					"stateMutability": "nonpayable",
					"type": "function"
				},
				{
					"inputs": [
						{
							"internalType": "uint256",
							"name": "lpAmount",
							"type": "uint256"
						}
					],
					"name": "withdraw",
					"outputs": [
						{
							"internalType": "uint256",
							"name": "",
							"type": "uint256"
						},
						{
							"internalType": "uint256",
							"name": "",
							"type": "uint256"
						}
					],
					"stateMutability": "nonpayable",
					"type": "function"
				}
			],
			"devdoc": {
				"errors": {
					"AllowanceOverflow()": [
						{
							"details": "The allowance has overflowed."
						}
					],
					"AllowanceUnderflow()": [
						{
							"details": "The allowance has underflowed."
						}
					],
					"InsufficientAllowance()": [
						{
							"details": "Insufficient allowance."
						}
					],
					"InsufficientBalance()": [
						{
							"details": "Insufficient balance."
						}
					],
					"InvalidPermit()": [
						{
							"details": "The permit is invalid."
						}
					],
					"PermitExpired()": [
						{
							"details": "The permit has expired."
						}
					],
					"TotalSupplyOverflow()": [
						{
							"details": "The total supply has overflowed."
						}
					]
				},
				"events": {
					"Approval(address,address,uint256)": {
						"details": "Emitted when `amount` tokens is approved by `owner` to be used by `spender`."
					},
					"Transfer(address,address,uint256)": {
						"details": "Emitted when `amount` tokens is transferred from `from` to `to`."
					}
				},
				"kind": "dev",
				"methods": {
					"DOMAIN_SEPARATOR()": {
						"details": "Returns the EIP-712 domain separator for the EIP-2612 permit."
					},
					"allowance(address,address)": {
						"details": "Returns the amount of tokens that `spender` can spend on behalf of `owner`."
					},
					"approve(address,uint256)": {
						"details": "Sets `amount` as the allowance of `spender` over the caller's tokens. Emits a {Approval} event."
					},
					"balanceOf(address)": {
						"details": "Returns the amount of tokens owned by `owner`."
					},
					"decimals()": {
						"details": "Returns the decimals places of the token."
					},
					"name()": {
						"details": "Returns the name of the token."
					},
					"nonces(address)": {
						"details": "Returns the current nonce for `owner`. This value is used to compute the signature for EIP-2612 permit."
					},
					"permit(address,address,uint256,uint256,uint8,bytes32,bytes32)": {
						"details": "Sets `value` as the allowance of `spender` over the tokens of `owner`, authorized by a signed approval by `owner`. Emits a {Approval} event."
					},
					"symbol()": {
						"details": "Returns the symbol of the token."
					},
					"totalSupply()": {
						"details": "Returns the amount of tokens in existence."
					},
					"transfer(address,uint256)": {
						"details": "Transfer `amount` tokens from the caller to `to`. Requirements: - `from` must at least have `amount`. Emits a {Transfer} event."
					},
					"transferFrom(address,address,uint256)": {
						"details": "Transfers `amount` tokens from `from` to `to`. Note: Does not update the allowance if it is the maximum uint256 value. Requirements: - `from` must at least have `amount`. - The caller must have at least `amount` of allowance to transfer the tokens of `from`. Emits a {Transfer} event."
					}
				},
				"version": 1
			},
			"evm": {
				"assembly": "    /* \"contracts/Pool.sol\":1212:4974  contract Pool is IPool, LP {... */\n  mstore(0x40, 0x80)\n    /* \"contracts/Pool.sol\":1650:1856  constructor(address token0, address token1) LP(string.concat(IERC20(token0).symbol(), IERC20(token1).symbol())){... */\n  callvalue\n  dup1\n  iszero\n  tag_1\n  jumpi\n  0x00\n  dup1\n  revert\ntag_1:\n  pop\n  mload(0x40)\n  sub(codesize, bytecodeSize)\n  dup1\n  bytecodeSize\n  dup4\n  codecopy\n  dup2\n  dup2\n  add\n  0x40\n  mstore\n  dup2\n  add\n  swap1\n  tag_2\n  swap2\n  swap1\n  tag_3\n  jump\t// in\ntag_2:\n    /* \"contracts/Pool.sol\":1718:1724  token0 */\n  dup2\n    /* \"contracts/Pool.sol\":1711:1732  IERC20(token0).symbol */\n  0xffffffffffffffffffffffffffffffffffffffff\n  and\n  0x95d89b41\n    /* \"contracts/Pool.sol\":1711:1734  IERC20(token0).symbol() */\n  mload(0x40)\n  dup2\n  0xffffffff\n  and\n  0xe0\n  shl\n  dup2\n  mstore\n  0x04\n  add\n  0x00\n  mload(0x40)\n  dup1\n  dup4\n  sub\n  dup2\n  dup7\n  gas\n  staticcall\n  iszero\n  dup1\n  iszero\n  tag_6\n  jumpi\n  returndatasize\n  0x00\n  dup1\n  returndatacopy\n  revert(0x00, returndatasize)\ntag_6:\n  pop\n  pop\n  pop\n  pop\n  mload(0x40)\n  returndatasize\n  0x00\n  dup3\n  returndatacopy\n  returndatasize\n  not(0x1f)\n  0x1f\n  dup3\n  add\n  and\n  dup3\n  add\n  dup1\n  0x40\n  mstore\n  pop\n  dup2\n  add\n  swap1\n  tag_7\n  swap2\n  swap1\n  tag_8\n  jump\t// in\ntag_7:\n    /* \"contracts/Pool.sol\":1743:1749  token1 */\n  dup2\n    /* \"contracts/Pool.sol\":1736:1757  IERC20(token1).symbol */\n  0xffffffffffffffffffffffffffffffffffffffff\n  and\n  0x95d89b41\n    /* \"contracts/Pool.sol\":1736:1759  IERC20(token1).symbol() */\n  mload(0x40)\n  dup2\n  0xffffffff\n  and\n  0xe0\n  shl\n  dup2\n  mstore\n  0x04\n  add\n  0x00\n  mload(0x40)\n  dup1\n  dup4\n  sub\n  dup2\n  dup7\n  gas\n  staticcall\n  iszero\n  dup1\n  iszero\n  tag_10\n  jumpi\n  returndatasize\n  0x00\n  dup1\n  returndatacopy\n  revert(0x00, returndatasize)\ntag_10:\n  pop\n  pop\n  pop\n  pop\n  mload(0x40)\n  returndatasize\n  0x00\n  dup3\n  returndatacopy\n  returndatasize\n  not(0x1f)\n  0x1f\n  dup3\n  add\n  and\n  dup3\n  add\n  dup1\n  0x40\n  mstore\n  pop\n  dup2\n  add\n  swap1\n  tag_11\n  swap2\n  swap1\n  tag_8\n  jump\t// in\ntag_11:\n    /* \"contracts/Pool.sol\":1697:1760  string.concat(IERC20(token0).symbol(), IERC20(token1).symbol()) */\n  add(0x20, mload(0x40))\n  tag_12\n  swap3\n  swap2\n  swap1\n  tag_13\n  jump\t// in\ntag_12:\n  mload(0x40)\n  0x20\n  dup2\n  dup4\n  sub\n  sub\n  dup2\n  mstore\n  swap1\n  0x40\n  mstore\n    /* \"contracts/LP.sol\":370:375  _name */\n  dup1\n    /* \"contracts/LP.sol\":361:367  s_name */\n  0x00\n    /* \"contracts/LP.sol\":361:375  s_name = _name */\n  swap1\n  dup2\n  tag_16\n  swap2\n  swap1\n  tag_17\n  jump\t// in\ntag_16:\n  pop\n    /* \"contracts/LP.sol\":438:474  _mint(address(0), MINIMUM_LIQUIDITY) */\n  tag_18\n    /* \"contracts/LP.sol\":452:453  0 */\n  0x00\n    /* \"contracts/LP.sol\":282:287  10**3 */\n  0x03e8\n    /* \"contracts/LP.sol\":438:443  _mint */\n  shl(0x20, tag_19)\n    /* \"contracts/LP.sol\":438:474  _mint(address(0), MINIMUM_LIQUIDITY) */\n  0x20\n  shr\n  jump\t// in\ntag_18:\n    /* \"contracts/LP.sol\":318:482  constructor(string memory _name){... */\n  pop\n    /* \"contracts/Pool.sol\":1782:1792  msg.sender */\n  caller\n    /* \"contracts/Pool.sol\":1772:1779  factory */\n  0x01\n  0x00\n    /* \"contracts/Pool.sol\":1772:1792  factory = msg.sender */\n  0x0100\n  exp\n  dup2\n  sload\n  dup2\n  0xffffffffffffffffffffffffffffffffffffffff\n  mul\n  not\n  and\n  swap1\n  dup4\n  0xffffffffffffffffffffffffffffffffffffffff\n  and\n  mul\n  or\n  swap1\n  sstore\n  pop\n    /* \"contracts/Pool.sol\":1814:1820  token0 */\n  dup2\n    /* \"contracts/Pool.sol\":1803:1811  s_token0 */\n  0x02\n  0x00\n    /* \"contracts/Pool.sol\":1803:1820  s_token0 = token0 */\n  0x0100\n  exp\n  dup2\n  sload\n  dup2\n  0xffffffffffffffffffffffffffffffffffffffff\n  mul\n  not\n  and\n  swap1\n  dup4\n  0xffffffffffffffffffffffffffffffffffffffff\n  and\n  mul\n  or\n  swap1\n  sstore\n  pop\n    /* \"contracts/Pool.sol\":1842:1848  token1 */\n  dup1\n    /* \"contracts/Pool.sol\":1831:1839  s_token1 */\n  0x03\n  0x00\n    /* \"contracts/Pool.sol\":1831:1848  s_token1 = token1 */\n  0x0100\n  exp\n  dup2\n  sload\n  dup2\n  0xffffffffffffffffffffffffffffffffffffffff\n  mul\n  not\n  and\n  swap1\n  dup4\n  0xffffffffffffffffffffffffffffffffffffffff\n  and\n  mul\n  or\n  swap1\n  sstore\n  pop\n    /* \"contracts/Pool.sol\":1650:1856  constructor(address token0, address token1) LP(string.concat(IERC20(token0).symbol(), IERC20(token1).symbol())){... */\n  pop\n  pop\n    /* \"contracts/Pool.sol\":1212:4974  contract Pool is IPool, LP {... */\n  jump(tag_21)\n    /* \"https://github.com/Vectorized/solady/blob/e4a14a5b365b353352f7c38e699a2bc9363d6576/src/tokens/ERC20.sol\":17717:18889  function _mint(address to, uint256 amount) internal virtual {... */\ntag_19:\n    /* \"https://github.com/Vectorized/solady/blob/e4a14a5b365b353352f7c38e699a2bc9363d6576/src/tokens/ERC20.sol\":17787:17831  _beforeTokenTransfer(address(0), to, amount) */\n  tag_23\n    /* \"https://github.com/Vectorized/solady/blob/e4a14a5b365b353352f7c38e699a2bc9363d6576/src/tokens/ERC20.sol\":17816:17817  0 */\n  0x00\n    /* \"https://github.com/Vectorized/solady/blob/e4a14a5b365b353352f7c38e699a2bc9363d6576/src/tokens/ERC20.sol\":17820:17822  to */\n  dup4\n    /* \"https://github.com/Vectorized/solady/blob/e4a14a5b365b353352f7c38e699a2bc9363d6576/src/tokens/ERC20.sol\":17824:17830  amount */\n  dup4\n    /* \"https://github.com/Vectorized/solady/blob/e4a14a5b365b353352f7c38e699a2bc9363d6576/src/tokens/ERC20.sol\":17787:17807  _beforeTokenTransfer */\n  shl(0x20, tag_24)\n    /* \"https://github.com/Vectorized/solady/blob/e4a14a5b365b353352f7c38e699a2bc9363d6576/src/tokens/ERC20.sol\":17787:17831  _beforeTokenTransfer(address(0), to, amount) */\n  0x20\n  shr\n  jump\t// in\ntag_23:\n    /* \"https://github.com/Vectorized/solady/blob/e4a14a5b365b353352f7c38e699a2bc9363d6576/src/tokens/ERC20.sol\":17938:17956  _TOTAL_SUPPLY_SLOT */\n  0x05345cdf77eb68f44c\n    /* \"https://github.com/Vectorized/solady/blob/e4a14a5b365b353352f7c38e699a2bc9363d6576/src/tokens/ERC20.sol\":17932:17957  sload(_TOTAL_SUPPLY_SLOT) */\n  sload\n    /* \"https://github.com/Vectorized/solady/blob/e4a14a5b365b353352f7c38e699a2bc9363d6576/src/tokens/ERC20.sol\":18017:18023  amount */\n  dup2\n    /* \"https://github.com/Vectorized/solady/blob/e4a14a5b365b353352f7c38e699a2bc9363d6576/src/tokens/ERC20.sol\":17998:18015  totalSupplyBefore */\n  dup2\n    /* \"https://github.com/Vectorized/solady/blob/e4a14a5b365b353352f7c38e699a2bc9363d6576/src/tokens/ERC20.sol\":17994:18024  add(totalSupplyBefore, amount) */\n  add\n    /* \"https://github.com/Vectorized/solady/blob/e4a14a5b365b353352f7c38e699a2bc9363d6576/src/tokens/ERC20.sol\":18114:18131  totalSupplyBefore */\n  dup2\n    /* \"https://github.com/Vectorized/solady/blob/e4a14a5b365b353352f7c38e699a2bc9363d6576/src/tokens/ERC20.sol\":18096:18112  totalSupplyAfter */\n  dup2\n    /* \"https://github.com/Vectorized/solady/blob/e4a14a5b365b353352f7c38e699a2bc9363d6576/src/tokens/ERC20.sol\":18093:18132  lt(totalSupplyAfter, totalSupplyBefore) */\n  lt\n    /* \"https://github.com/Vectorized/solady/blob/e4a14a5b365b353352f7c38e699a2bc9363d6576/src/tokens/ERC20.sol\":18090:18252  if lt(totalSupplyAfter, totalSupplyBefore) {... */\n  iszero\n  tag_25\n  jumpi\n    /* \"https://github.com/Vectorized/solady/blob/e4a14a5b365b353352f7c38e699a2bc9363d6576/src/tokens/ERC20.sol\":18164:18174  0xe5cfe957 */\n  0xe5cfe957\n    /* \"https://github.com/Vectorized/solady/blob/e4a14a5b365b353352f7c38e699a2bc9363d6576/src/tokens/ERC20.sol\":18158:18162  0x00 */\n  0x00\n    /* \"https://github.com/Vectorized/solady/blob/e4a14a5b365b353352f7c38e699a2bc9363d6576/src/tokens/ERC20.sol\":18151:18175  mstore(0x00, 0xe5cfe957) */\n  mstore\n    /* \"https://github.com/Vectorized/solady/blob/e4a14a5b365b353352f7c38e699a2bc9363d6576/src/tokens/ERC20.sol\":18233:18237  0x04 */\n  0x04\n    /* \"https://github.com/Vectorized/solady/blob/e4a14a5b365b353352f7c38e699a2bc9363d6576/src/tokens/ERC20.sol\":18227:18231  0x1c */\n  0x1c\n    /* \"https://github.com/Vectorized/solady/blob/e4a14a5b365b353352f7c38e699a2bc9363d6576/src/tokens/ERC20.sol\":18220:18238  revert(0x1c, 0x04) */\n  revert\n    /* \"https://github.com/Vectorized/solady/blob/e4a14a5b365b353352f7c38e699a2bc9363d6576/src/tokens/ERC20.sol\":18090:18252  if lt(totalSupplyAfter, totalSupplyBefore) {... */\ntag_25:\n    /* \"https://github.com/Vectorized/solady/blob/e4a14a5b365b353352f7c38e699a2bc9363d6576/src/tokens/ERC20.sol\":18339:18355  totalSupplyAfter */\n  dup1\n    /* \"https://github.com/Vectorized/solady/blob/e4a14a5b365b353352f7c38e699a2bc9363d6576/src/tokens/ERC20.sol\":18319:18337  _TOTAL_SUPPLY_SLOT */\n  0x05345cdf77eb68f44c\n    /* \"https://github.com/Vectorized/solady/blob/e4a14a5b365b353352f7c38e699a2bc9363d6576/src/tokens/ERC20.sol\":18312:18356  sstore(_TOTAL_SUPPLY_SLOT, totalSupplyAfter) */\n  sstore\n    /* \"https://github.com/Vectorized/solady/blob/e4a14a5b365b353352f7c38e699a2bc9363d6576/src/tokens/ERC20.sol\":18442:18460  _BALANCE_SLOT_SEED */\n  0x87a211a2\n    /* \"https://github.com/Vectorized/solady/blob/e4a14a5b365b353352f7c38e699a2bc9363d6576/src/tokens/ERC20.sol\":18436:18440  0x0c */\n  0x0c\n    /* \"https://github.com/Vectorized/solady/blob/e4a14a5b365b353352f7c38e699a2bc9363d6576/src/tokens/ERC20.sol\":18429:18461  mstore(0x0c, _BALANCE_SLOT_SEED) */\n  mstore\n    /* \"https://github.com/Vectorized/solady/blob/e4a14a5b365b353352f7c38e699a2bc9363d6576/src/tokens/ERC20.sol\":18487:18489  to */\n  dup4\n    /* \"https://github.com/Vectorized/solady/blob/e4a14a5b365b353352f7c38e699a2bc9363d6576/src/tokens/ERC20.sol\":18481:18485  0x00 */\n  0x00\n    /* \"https://github.com/Vectorized/solady/blob/e4a14a5b365b353352f7c38e699a2bc9363d6576/src/tokens/ERC20.sol\":18474:18490  mstore(0x00, to) */\n  mstore\n    /* \"https://github.com/Vectorized/solady/blob/e4a14a5b365b353352f7c38e699a2bc9363d6576/src/tokens/ERC20.sol\":18540:18544  0x20 */\n  0x20\n    /* \"https://github.com/Vectorized/solady/blob/e4a14a5b365b353352f7c38e699a2bc9363d6576/src/tokens/ERC20.sol\":18534:18538  0x0c */\n  0x0c\n    /* \"https://github.com/Vectorized/solady/blob/e4a14a5b365b353352f7c38e699a2bc9363d6576/src/tokens/ERC20.sol\":18524:18545  keccak256(0x0c, 0x20) */\n  keccak256\n    /* \"https://github.com/Vectorized/solady/blob/e4a14a5b365b353352f7c38e699a2bc9363d6576/src/tokens/ERC20.sol\":18656:18662  amount */\n  dup4\n    /* \"https://github.com/Vectorized/solady/blob/e4a14a5b365b353352f7c38e699a2bc9363d6576/src/tokens/ERC20.sol\":18640:18653  toBalanceSlot */\n  dup2\n    /* \"https://github.com/Vectorized/solady/blob/e4a14a5b365b353352f7c38e699a2bc9363d6576/src/tokens/ERC20.sol\":18634:18654  sload(toBalanceSlot) */\n  sload\n    /* \"https://github.com/Vectorized/solady/blob/e4a14a5b365b353352f7c38e699a2bc9363d6576/src/tokens/ERC20.sol\":18630:18663  add(sload(toBalanceSlot), amount) */\n  add\n    /* \"https://github.com/Vectorized/solady/blob/e4a14a5b365b353352f7c38e699a2bc9363d6576/src/tokens/ERC20.sol\":18615:18628  toBalanceSlot */\n  dup2\n    /* \"https://github.com/Vectorized/solady/blob/e4a14a5b365b353352f7c38e699a2bc9363d6576/src/tokens/ERC20.sol\":18608:18664  sstore(toBalanceSlot, add(sload(toBalanceSlot), amount)) */\n  sstore\n    /* \"https://github.com/Vectorized/solady/blob/e4a14a5b365b353352f7c38e699a2bc9363d6576/src/tokens/ERC20.sol\":18732:18738  amount */\n  dup4\n    /* \"https://github.com/Vectorized/solady/blob/e4a14a5b365b353352f7c38e699a2bc9363d6576/src/tokens/ERC20.sol\":18726:18730  0x20 */\n  0x20\n    /* \"https://github.com/Vectorized/solady/blob/e4a14a5b365b353352f7c38e699a2bc9363d6576/src/tokens/ERC20.sol\":18719:18739  mstore(0x20, amount) */\n  mstore\n    /* \"https://github.com/Vectorized/solady/blob/e4a14a5b365b353352f7c38e699a2bc9363d6576/src/tokens/ERC20.sol\":18813:18817  0x0c */\n  0x0c\n    /* \"https://github.com/Vectorized/solady/blob/e4a14a5b365b353352f7c38e699a2bc9363d6576/src/tokens/ERC20.sol\":18807:18818  mload(0x0c) */\n  mload\n    /* \"https://github.com/Vectorized/solady/blob/e4a14a5b365b353352f7c38e699a2bc9363d6576/src/tokens/ERC20.sol\":18803:18805  96 */\n  0x60\n    /* \"https://github.com/Vectorized/solady/blob/e4a14a5b365b353352f7c38e699a2bc9363d6576/src/tokens/ERC20.sol\":18799:18819  shr(96, mload(0x0c)) */\n  shr\n    /* \"https://github.com/Vectorized/solady/blob/e4a14a5b365b353352f7c38e699a2bc9363d6576/src/tokens/ERC20.sol\":18796:18797  0 */\n  0x00\n    /* \"https://github.com/Vectorized/solady/blob/e4a14a5b365b353352f7c38e699a2bc9363d6576/src/tokens/ERC20.sol\":18769:18794  _TRANSFER_EVENT_SIGNATURE */\n  0xddf252ad1be2c89b69c2b068fc378daa952ba7f163c4a11628f55a4df523b3ef\n    /* \"https://github.com/Vectorized/solady/blob/e4a14a5b365b353352f7c38e699a2bc9363d6576/src/tokens/ERC20.sol\":18763:18767  0x20 */\n  0x20\n    /* \"https://github.com/Vectorized/solady/blob/e4a14a5b365b353352f7c38e699a2bc9363d6576/src/tokens/ERC20.sol\":18757:18761  0x20 */\n  dup1\n    /* \"https://github.com/Vectorized/solady/blob/e4a14a5b365b353352f7c38e699a2bc9363d6576/src/tokens/ERC20.sol\":18752:18820  log3(0x20, 0x20, _TRANSFER_EVENT_SIGNATURE, 0, shr(96, mload(0x0c))) */\n  log3\n    /* \"https://github.com/Vectorized/solady/blob/e4a14a5b365b353352f7c38e699a2bc9363d6576/src/tokens/ERC20.sol\":17893:18830  {... */\n  pop\n  pop\n  pop\n    /* \"https://github.com/Vectorized/solady/blob/e4a14a5b365b353352f7c38e699a2bc9363d6576/src/tokens/ERC20.sol\":18839:18882  _afterTokenTransfer(address(0), to, amount) */\n  tag_26\n    /* \"https://github.com/Vectorized/solady/blob/e4a14a5b365b353352f7c38e699a2bc9363d6576/src/tokens/ERC20.sol\":18867:18868  0 */\n  0x00\n    /* \"https://github.com/Vectorized/solady/blob/e4a14a5b365b353352f7c38e699a2bc9363d6576/src/tokens/ERC20.sol\":18871:18873  to */\n  dup4\n    /* \"https://github.com/Vectorized/solady/blob/e4a14a5b365b353352f7c38e699a2bc9363d6576/src/tokens/ERC20.sol\":18875:18881  amount */\n  dup4\n    /* \"https://github.com/Vectorized/solady/blob/e4a14a5b365b353352f7c38e699a2bc9363d6576/src/tokens/ERC20.sol\":18839:18858  _afterTokenTransfer */\n  shl(0x20, tag_27)\n    /* \"https://github.com/Vectorized/solady/blob/e4a14a5b365b353352f7c38e699a2bc9363d6576/src/tokens/ERC20.sol\":18839:18882  _afterTokenTransfer(address(0), to, amount) */\n  0x20\n  shr\n  jump\t// in\ntag_26:\n    /* \"https://github.com/Vectorized/solady/blob/e4a14a5b365b353352f7c38e699a2bc9363d6576/src/tokens/ERC20.sol\":17717:18889  function _mint(address to, uint256 amount) internal virtual {... */\n  pop\n  pop\n  jump\t// out\n    /* \"https://github.com/Vectorized/solady/blob/e4a14a5b365b353352f7c38e699a2bc9363d6576/src/tokens/ERC20.sol\":24588:24679  function _beforeTokenTransfer(address from, address to, uint256 amount) internal virtual {} */\ntag_24:\n  pop\n  pop\n  pop\n  jump\t// out\n    /* \"https://github.com/Vectorized/solady/blob/e4a14a5b365b353352f7c38e699a2bc9363d6576/src/tokens/ERC20.sol\":24791:24881  function _afterTokenTransfer(address from, address to, uint256 amount) internal virtual {} */\ntag_27:\n  pop\n  pop\n  pop\n  jump\t// out\n    /* \"#utility.yul\":7:82   */\ntag_30:\n    /* \"#utility.yul\":40:46   */\n  0x00\n    /* \"#utility.yul\":73:75   */\n  0x40\n    /* \"#utility.yul\":67:76   */\n  mload\n    /* \"#utility.yul\":57:76   */\n  swap1\n  pop\n    /* \"#utility.yul\":7:82   */\n  swap1\n  jump\t// out\n    /* \"#utility.yul\":88:205   */\ntag_31:\n    /* \"#utility.yul\":197:198   */\n  0x00\n    /* \"#utility.yul\":194:195   */\n  dup1\n    /* \"#utility.yul\":187:199   */\n  revert\n    /* \"#utility.yul\":211:328   */\ntag_32:\n    /* \"#utility.yul\":320:321   */\n  0x00\n    /* \"#utility.yul\":317:318   */\n  dup1\n    /* \"#utility.yul\":310:322   */\n  revert\n    /* \"#utility.yul\":334:460   */\ntag_33:\n    /* \"#utility.yul\":371:378   */\n  0x00\n    /* \"#utility.yul\":411:453   */\n  0xffffffffffffffffffffffffffffffffffffffff\n    /* \"#utility.yul\":404:409   */\n  dup3\n    /* \"#utility.yul\":400:454   */\n  and\n    /* \"#utility.yul\":389:454   */\n  swap1\n  pop\n    /* \"#utility.yul\":334:460   */\n  swap2\n  swap1\n  pop\n  jump\t// out\n    /* \"#utility.yul\":466:562   */\ntag_34:\n    /* \"#utility.yul\":503:510   */\n  0x00\n    /* \"#utility.yul\":532:556   */\n  tag_74\n    /* \"#utility.yul\":550:555   */\n  dup3\n    /* \"#utility.yul\":532:556   */\n  tag_33\n  jump\t// in\ntag_74:\n    /* \"#utility.yul\":521:556   */\n  swap1\n  pop\n    /* \"#utility.yul\":466:562   */\n  swap2\n  swap1\n  pop\n  jump\t// out\n    /* \"#utility.yul\":568:690   */\ntag_35:\n    /* \"#utility.yul\":641:665   */\n  tag_76\n    /* \"#utility.yul\":659:664   */\n  dup2\n    /* \"#utility.yul\":641:665   */\n  tag_34\n  jump\t// in\ntag_76:\n    /* \"#utility.yul\":634:639   */\n  dup2\n    /* \"#utility.yul\":631:666   */\n  eq\n    /* \"#utility.yul\":621:684   */\n  tag_77\n  jumpi\n    /* \"#utility.yul\":680:681   */\n  0x00\n    /* \"#utility.yul\":677:678   */\n  dup1\n    /* \"#utility.yul\":670:682   */\n  revert\n    /* \"#utility.yul\":621:684   */\ntag_77:\n    /* \"#utility.yul\":568:690   */\n  pop\n  jump\t// out\n    /* \"#utility.yul\":696:839   */\ntag_36:\n    /* \"#utility.yul\":753:758   */\n  0x00\n    /* \"#utility.yul\":784:790   */\n  dup2\n    /* \"#utility.yul\":778:791   */\n  mload\n    /* \"#utility.yul\":769:791   */\n  swap1\n  pop\n    /* \"#utility.yul\":800:833   */\n  tag_79\n    /* \"#utility.yul\":827:832   */\n  dup2\n    /* \"#utility.yul\":800:833   */\n  tag_35\n  jump\t// in\ntag_79:\n    /* \"#utility.yul\":696:839   */\n  swap3\n  swap2\n  pop\n  pop\n  jump\t// out\n    /* \"#utility.yul\":845:1352   */\ntag_3:\n    /* \"#utility.yul\":924:930   */\n  0x00\n    /* \"#utility.yul\":932:938   */\n  dup1\n    /* \"#utility.yul\":981:983   */\n  0x40\n    /* \"#utility.yul\":969:978   */\n  dup4\n    /* \"#utility.yul\":960:967   */\n  dup6\n    /* \"#utility.yul\":956:979   */\n  sub\n    /* \"#utility.yul\":952:984   */\n  slt\n    /* \"#utility.yul\":949:1068   */\n  iszero\n  tag_81\n  jumpi\n    /* \"#utility.yul\":987:1066   */\n  tag_82\n  tag_31\n  jump\t// in\ntag_82:\n    /* \"#utility.yul\":949:1068   */\ntag_81:\n    /* \"#utility.yul\":1107:1108   */\n  0x00\n    /* \"#utility.yul\":1132:1196   */\n  tag_83\n    /* \"#utility.yul\":1188:1195   */\n  dup6\n    /* \"#utility.yul\":1179:1185   */\n  dup3\n    /* \"#utility.yul\":1168:1177   */\n  dup7\n    /* \"#utility.yul\":1164:1186   */\n  add\n    /* \"#utility.yul\":1132:1196   */\n  tag_36\n  jump\t// in\ntag_83:\n    /* \"#utility.yul\":1122:1196   */\n  swap3\n  pop\n    /* \"#utility.yul\":1078:1206   */\n  pop\n    /* \"#utility.yul\":1245:1247   */\n  0x20\n    /* \"#utility.yul\":1271:1335   */\n  tag_84\n    /* \"#utility.yul\":1327:1334   */\n  dup6\n    /* \"#utility.yul\":1318:1324   */\n  dup3\n    /* \"#utility.yul\":1307:1316   */\n  dup7\n    /* \"#utility.yul\":1303:1325   */\n  add\n    /* \"#utility.yul\":1271:1335   */\n  tag_36\n  jump\t// in\ntag_84:\n    /* \"#utility.yul\":1261:1335   */\n  swap2\n  pop\n    /* \"#utility.yul\":1216:1345   */\n  pop\n    /* \"#utility.yul\":845:1352   */\n  swap3\n  pop\n  swap3\n  swap1\n  pop\n  jump\t// out\n    /* \"#utility.yul\":1358:1475   */\ntag_37:\n    /* \"#utility.yul\":1467:1468   */\n  0x00\n    /* \"#utility.yul\":1464:1465   */\n  dup1\n    /* \"#utility.yul\":1457:1469   */\n  revert\n    /* \"#utility.yul\":1481:1598   */\ntag_38:\n    /* \"#utility.yul\":1590:1591   */\n  0x00\n    /* \"#utility.yul\":1587:1588   */\n  dup1\n    /* \"#utility.yul\":1580:1592   */\n  revert\n    /* \"#utility.yul\":1604:1706   */\ntag_39:\n    /* \"#utility.yul\":1645:1651   */\n  0x00\n    /* \"#utility.yul\":1696:1698   */\n  0x1f\n    /* \"#utility.yul\":1692:1699   */\n  not\n    /* \"#utility.yul\":1687:1689   */\n  0x1f\n    /* \"#utility.yul\":1680:1685   */\n  dup4\n    /* \"#utility.yul\":1676:1690   */\n  add\n    /* \"#utility.yul\":1672:1700   */\n  and\n    /* \"#utility.yul\":1662:1700   */\n  swap1\n  pop\n    /* \"#utility.yul\":1604:1706   */\n  swap2\n  swap1\n  pop\n  jump\t// out\n    /* \"#utility.yul\":1712:1892   */\ntag_40:\n    /* \"#utility.yul\":1760:1837   */\n  0x4e487b7100000000000000000000000000000000000000000000000000000000\n    /* \"#utility.yul\":1757:1758   */\n  0x00\n    /* \"#utility.yul\":1750:1838   */\n  mstore\n    /* \"#utility.yul\":1857:1861   */\n  0x41\n    /* \"#utility.yul\":1854:1855   */\n  0x04\n    /* \"#utility.yul\":1847:1862   */\n  mstore\n    /* \"#utility.yul\":1881:1885   */\n  0x24\n    /* \"#utility.yul\":1878:1879   */\n  0x00\n    /* \"#utility.yul\":1871:1886   */\n  revert\n    /* \"#utility.yul\":1898:2179   */\ntag_41:\n    /* \"#utility.yul\":1981:2008   */\n  tag_90\n    /* \"#utility.yul\":2003:2007   */\n  dup3\n    /* \"#utility.yul\":1981:2008   */\n  tag_39\n  jump\t// in\ntag_90:\n    /* \"#utility.yul\":1973:1979   */\n  dup2\n    /* \"#utility.yul\":1969:2009   */\n  add\n    /* \"#utility.yul\":2111:2117   */\n  dup2\n    /* \"#utility.yul\":2099:2109   */\n  dup2\n    /* \"#utility.yul\":2096:2118   */\n  lt\n    /* \"#utility.yul\":2075:2093   */\n  0xffffffffffffffff\n    /* \"#utility.yul\":2063:2073   */\n  dup3\n    /* \"#utility.yul\":2060:2094   */\n  gt\n    /* \"#utility.yul\":2057:2119   */\n  or\n    /* \"#utility.yul\":2054:2142   */\n  iszero\n  tag_91\n  jumpi\n    /* \"#utility.yul\":2122:2140   */\n  tag_92\n  tag_40\n  jump\t// in\ntag_92:\n    /* \"#utility.yul\":2054:2142   */\ntag_91:\n    /* \"#utility.yul\":2162:2172   */\n  dup1\n    /* \"#utility.yul\":2158:2160   */\n  0x40\n    /* \"#utility.yul\":2151:2173   */\n  mstore\n    /* \"#utility.yul\":1941:2179   */\n  pop\n    /* \"#utility.yul\":1898:2179   */\n  pop\n  pop\n  jump\t// out\n    /* \"#utility.yul\":2185:2314   */\ntag_42:\n    /* \"#utility.yul\":2219:2225   */\n  0x00\n    /* \"#utility.yul\":2246:2266   */\n  tag_94\n  tag_30\n  jump\t// in\ntag_94:\n    /* \"#utility.yul\":2236:2266   */\n  swap1\n  pop\n    /* \"#utility.yul\":2275:2308   */\n  tag_95\n    /* \"#utility.yul\":2303:2307   */\n  dup3\n    /* \"#utility.yul\":2295:2301   */\n  dup3\n    /* \"#utility.yul\":2275:2308   */\n  tag_41\n  jump\t// in\ntag_95:\n    /* \"#utility.yul\":2185:2314   */\n  swap2\n  swap1\n  pop\n  jump\t// out\n    /* \"#utility.yul\":2320:2628   */\ntag_43:\n    /* \"#utility.yul\":2382:2386   */\n  0x00\n    /* \"#utility.yul\":2472:2490   */\n  0xffffffffffffffff\n    /* \"#utility.yul\":2464:2470   */\n  dup3\n    /* \"#utility.yul\":2461:2491   */\n  gt\n    /* \"#utility.yul\":2458:2514   */\n  iszero\n  tag_97\n  jumpi\n    /* \"#utility.yul\":2494:2512   */\n  tag_98\n  tag_40\n  jump\t// in\ntag_98:\n    /* \"#utility.yul\":2458:2514   */\ntag_97:\n    /* \"#utility.yul\":2532:2561   */\n  tag_99\n    /* \"#utility.yul\":2554:2560   */\n  dup3\n    /* \"#utility.yul\":2532:2561   */\n  tag_39\n  jump\t// in\ntag_99:\n    /* \"#utility.yul\":2524:2561   */\n  swap1\n  pop\n    /* \"#utility.yul\":2616:2620   */\n  0x20\n    /* \"#utility.yul\":2610:2614   */\n  dup2\n    /* \"#utility.yul\":2606:2621   */\n  add\n    /* \"#utility.yul\":2598:2621   */\n  swap1\n  pop\n    /* \"#utility.yul\":2320:2628   */\n  swap2\n  swap1\n  pop\n  jump\t// out\n    /* \"#utility.yul\":2634:2880   */\ntag_44:\n    /* \"#utility.yul\":2715:2716   */\n  0x00\n    /* \"#utility.yul\":2725:2838   */\ntag_101:\n    /* \"#utility.yul\":2739:2745   */\n  dup4\n    /* \"#utility.yul\":2736:2737   */\n  dup2\n    /* \"#utility.yul\":2733:2746   */\n  lt\n    /* \"#utility.yul\":2725:2838   */\n  iszero\n  tag_103\n  jumpi\n    /* \"#utility.yul\":2824:2825   */\n  dup1\n    /* \"#utility.yul\":2819:2822   */\n  dup3\n    /* \"#utility.yul\":2815:2826   */\n  add\n    /* \"#utility.yul\":2809:2827   */\n  mload\n    /* \"#utility.yul\":2805:2806   */\n  dup2\n    /* \"#utility.yul\":2800:2803   */\n  dup5\n    /* \"#utility.yul\":2796:2807   */\n  add\n    /* \"#utility.yul\":2789:2828   */\n  mstore\n    /* \"#utility.yul\":2761:2763   */\n  0x20\n    /* \"#utility.yul\":2758:2759   */\n  dup2\n    /* \"#utility.yul\":2754:2764   */\n  add\n    /* \"#utility.yul\":2749:2764   */\n  swap1\n  pop\n    /* \"#utility.yul\":2725:2838   */\n  jump(tag_101)\ntag_103:\n    /* \"#utility.yul\":2872:2873   */\n  0x00\n    /* \"#utility.yul\":2863:2869   */\n  dup5\n    /* \"#utility.yul\":2858:2861   */\n  dup5\n    /* \"#utility.yul\":2854:2870   */\n  add\n    /* \"#utility.yul\":2847:2874   */\n  mstore\n    /* \"#utility.yul\":2696:2880   */\n  pop\n    /* \"#utility.yul\":2634:2880   */\n  pop\n  pop\n  pop\n  jump\t// out\n    /* \"#utility.yul\":2886:3320   */\ntag_45:\n    /* \"#utility.yul\":2975:2980   */\n  0x00\n    /* \"#utility.yul\":3000:3066   */\n  tag_105\n    /* \"#utility.yul\":3016:3065   */\n  tag_106\n    /* \"#utility.yul\":3058:3064   */\n  dup5\n    /* \"#utility.yul\":3016:3065   */\n  tag_43\n  jump\t// in\ntag_106:\n    /* \"#utility.yul\":3000:3066   */\n  tag_42\n  jump\t// in\ntag_105:\n    /* \"#utility.yul\":2991:3066   */\n  swap1\n  pop\n    /* \"#utility.yul\":3089:3095   */\n  dup3\n    /* \"#utility.yul\":3082:3087   */\n  dup2\n    /* \"#utility.yul\":3075:3096   */\n  mstore\n    /* \"#utility.yul\":3127:3131   */\n  0x20\n    /* \"#utility.yul\":3120:3125   */\n  dup2\n    /* \"#utility.yul\":3116:3132   */\n  add\n    /* \"#utility.yul\":3165:3168   */\n  dup5\n    /* \"#utility.yul\":3156:3162   */\n  dup5\n    /* \"#utility.yul\":3151:3154   */\n  dup5\n    /* \"#utility.yul\":3147:3163   */\n  add\n    /* \"#utility.yul\":3144:3169   */\n  gt\n    /* \"#utility.yul\":3141:3253   */\n  iszero\n  tag_107\n  jumpi\n    /* \"#utility.yul\":3172:3251   */\n  tag_108\n  tag_38\n  jump\t// in\ntag_108:\n    /* \"#utility.yul\":3141:3253   */\ntag_107:\n    /* \"#utility.yul\":3262:3314   */\n  tag_109\n    /* \"#utility.yul\":3307:3313   */\n  dup5\n    /* \"#utility.yul\":3302:3305   */\n  dup3\n    /* \"#utility.yul\":3297:3300   */\n  dup6\n    /* \"#utility.yul\":3262:3314   */\n  tag_44\n  jump\t// in\ntag_109:\n    /* \"#utility.yul\":2981:3320   */\n  pop\n    /* \"#utility.yul\":2886:3320   */\n  swap4\n  swap3\n  pop\n  pop\n  pop\n  jump\t// out\n    /* \"#utility.yul\":3340:3695   */\ntag_46:\n    /* \"#utility.yul\":3407:3412   */\n  0x00\n    /* \"#utility.yul\":3456:3459   */\n  dup3\n    /* \"#utility.yul\":3449:3453   */\n  0x1f\n    /* \"#utility.yul\":3441:3447   */\n  dup4\n    /* \"#utility.yul\":3437:3454   */\n  add\n    /* \"#utility.yul\":3433:3460   */\n  slt\n    /* \"#utility.yul\":3423:3545   */\n  tag_111\n  jumpi\n    /* \"#utility.yul\":3464:3543   */\n  tag_112\n  tag_37\n  jump\t// in\ntag_112:\n    /* \"#utility.yul\":3423:3545   */\ntag_111:\n    /* \"#utility.yul\":3574:3580   */\n  dup2\n    /* \"#utility.yul\":3568:3581   */\n  mload\n    /* \"#utility.yul\":3599:3689   */\n  tag_113\n    /* \"#utility.yul\":3685:3688   */\n  dup5\n    /* \"#utility.yul\":3677:3683   */\n  dup3\n    /* \"#utility.yul\":3670:3674   */\n  0x20\n    /* \"#utility.yul\":3662:3668   */\n  dup7\n    /* \"#utility.yul\":3658:3675   */\n  add\n    /* \"#utility.yul\":3599:3689   */\n  tag_45\n  jump\t// in\ntag_113:\n    /* \"#utility.yul\":3590:3689   */\n  swap2\n  pop\n    /* \"#utility.yul\":3413:3695   */\n  pop\n    /* \"#utility.yul\":3340:3695   */\n  swap3\n  swap2\n  pop\n  pop\n  jump\t// out\n    /* \"#utility.yul\":3701:4225   */\ntag_8:\n    /* \"#utility.yul\":3781:3787   */\n  0x00\n    /* \"#utility.yul\":3830:3832   */\n  0x20\n    /* \"#utility.yul\":3818:3827   */\n  dup3\n    /* \"#utility.yul\":3809:3816   */\n  dup5\n    /* \"#utility.yul\":3805:3828   */\n  sub\n    /* \"#utility.yul\":3801:3833   */\n  slt\n    /* \"#utility.yul\":3798:3917   */\n  iszero\n  tag_115\n  jumpi\n    /* \"#utility.yul\":3836:3915   */\n  tag_116\n  tag_31\n  jump\t// in\ntag_116:\n    /* \"#utility.yul\":3798:3917   */\ntag_115:\n    /* \"#utility.yul\":3977:3978   */\n  0x00\n    /* \"#utility.yul\":3966:3975   */\n  dup3\n    /* \"#utility.yul\":3962:3979   */\n  add\n    /* \"#utility.yul\":3956:3980   */\n  mload\n    /* \"#utility.yul\":4007:4025   */\n  0xffffffffffffffff\n    /* \"#utility.yul\":3999:4005   */\n  dup2\n    /* \"#utility.yul\":3996:4026   */\n  gt\n    /* \"#utility.yul\":3993:4110   */\n  iszero\n  tag_117\n  jumpi\n    /* \"#utility.yul\":4029:4108   */\n  tag_118\n  tag_32\n  jump\t// in\ntag_118:\n    /* \"#utility.yul\":3993:4110   */\ntag_117:\n    /* \"#utility.yul\":4134:4208   */\n  tag_119\n    /* \"#utility.yul\":4200:4207   */\n  dup5\n    /* \"#utility.yul\":4191:4197   */\n  dup3\n    /* \"#utility.yul\":4180:4189   */\n  dup6\n    /* \"#utility.yul\":4176:4198   */\n  add\n    /* \"#utility.yul\":4134:4208   */\n  tag_46\n  jump\t// in\ntag_119:\n    /* \"#utility.yul\":4124:4208   */\n  swap2\n  pop\n    /* \"#utility.yul\":3927:4218   */\n  pop\n    /* \"#utility.yul\":3701:4225   */\n  swap3\n  swap2\n  pop\n  pop\n  jump\t// out\n    /* \"#utility.yul\":4231:4330   */\ntag_47:\n    /* \"#utility.yul\":4283:4289   */\n  0x00\n    /* \"#utility.yul\":4317:4322   */\n  dup2\n    /* \"#utility.yul\":4311:4323   */\n  mload\n    /* \"#utility.yul\":4301:4323   */\n  swap1\n  pop\n    /* \"#utility.yul\":4231:4330   */\n  swap2\n  swap1\n  pop\n  jump\t// out\n    /* \"#utility.yul\":4336:4484   */\ntag_48:\n    /* \"#utility.yul\":4438:4449   */\n  0x00\n    /* \"#utility.yul\":4475:4478   */\n  dup2\n    /* \"#utility.yul\":4460:4478   */\n  swap1\n  pop\n    /* \"#utility.yul\":4336:4484   */\n  swap3\n  swap2\n  pop\n  pop\n  jump\t// out\n    /* \"#utility.yul\":4490:4880   */\ntag_49:\n    /* \"#utility.yul\":4596:4599   */\n  0x00\n    /* \"#utility.yul\":4624:4663   */\n  tag_123\n    /* \"#utility.yul\":4657:4662   */\n  dup3\n    /* \"#utility.yul\":4624:4663   */\n  tag_47\n  jump\t// in\ntag_123:\n    /* \"#utility.yul\":4679:4768   */\n  tag_124\n    /* \"#utility.yul\":4761:4767   */\n  dup2\n    /* \"#utility.yul\":4756:4759   */\n  dup6\n    /* \"#utility.yul\":4679:4768   */\n  tag_48\n  jump\t// in\ntag_124:\n    /* \"#utility.yul\":4672:4768   */\n  swap4\n  pop\n    /* \"#utility.yul\":4777:4842   */\n  tag_125\n    /* \"#utility.yul\":4835:4841   */\n  dup2\n    /* \"#utility.yul\":4830:4833   */\n  dup6\n    /* \"#utility.yul\":4823:4827   */\n  0x20\n    /* \"#utility.yul\":4816:4821   */\n  dup7\n    /* \"#utility.yul\":4812:4828   */\n  add\n    /* \"#utility.yul\":4777:4842   */\n  tag_44\n  jump\t// in\ntag_125:\n    /* \"#utility.yul\":4867:4873   */\n  dup1\n    /* \"#utility.yul\":4862:4865   */\n  dup5\n    /* \"#utility.yul\":4858:4874   */\n  add\n    /* \"#utility.yul\":4851:4874   */\n  swap2\n  pop\n    /* \"#utility.yul\":4600:4880   */\n  pop\n    /* \"#utility.yul\":4490:4880   */\n  swap3\n  swap2\n  pop\n  pop\n  jump\t// out\n    /* \"#utility.yul\":4886:5321   */\ntag_13:\n    /* \"#utility.yul\":5066:5069   */\n  0x00\n    /* \"#utility.yul\":5088:5183   */\n  tag_127\n    /* \"#utility.yul\":5179:5182   */\n  dup3\n    /* \"#utility.yul\":5170:5176   */\n  dup6\n    /* \"#utility.yul\":5088:5183   */\n  tag_49\n  jump\t// in\ntag_127:\n    /* \"#utility.yul\":5081:5183   */\n  swap2\n  pop\n    /* \"#utility.yul\":5200:5295   */\n  tag_128\n    /* \"#utility.yul\":5291:5294   */\n  dup3\n    /* \"#utility.yul\":5282:5288   */\n  dup5\n    /* \"#utility.yul\":5200:5295   */\n  tag_49\n  jump\t// in\ntag_128:\n    /* \"#utility.yul\":5193:5295   */\n  swap2\n  pop\n    /* \"#utility.yul\":5312:5315   */\n  dup2\n    /* \"#utility.yul\":5305:5315   */\n  swap1\n  pop\n    /* \"#utility.yul\":4886:5321   */\n  swap4\n  swap3\n  pop\n  pop\n  pop\n  jump\t// out\n    /* \"#utility.yul\":5327:5507   */\ntag_50:\n    /* \"#utility.yul\":5375:5452   */\n  0x4e487b7100000000000000000000000000000000000000000000000000000000\n    /* \"#utility.yul\":5372:5373   */\n  0x00\n    /* \"#utility.yul\":5365:5453   */\n  mstore\n    /* \"#utility.yul\":5472:5476   */\n  0x22\n    /* \"#utility.yul\":5469:5470   */\n  0x04\n    /* \"#utility.yul\":5462:5477   */\n  mstore\n    /* \"#utility.yul\":5496:5500   */\n  0x24\n    /* \"#utility.yul\":5493:5494   */\n  0x00\n    /* \"#utility.yul\":5486:5501   */\n  revert\n    /* \"#utility.yul\":5513:5833   */\ntag_51:\n    /* \"#utility.yul\":5557:5563   */\n  0x00\n    /* \"#utility.yul\":5594:5595   */\n  0x02\n    /* \"#utility.yul\":5588:5592   */\n  dup3\n    /* \"#utility.yul\":5584:5596   */\n  div\n    /* \"#utility.yul\":5574:5596   */\n  swap1\n  pop\n    /* \"#utility.yul\":5641:5642   */\n  0x01\n    /* \"#utility.yul\":5635:5639   */\n  dup3\n    /* \"#utility.yul\":5631:5643   */\n  and\n    /* \"#utility.yul\":5662:5680   */\n  dup1\n    /* \"#utility.yul\":5652:5733   */\n  tag_131\n  jumpi\n    /* \"#utility.yul\":5718:5722   */\n  0x7f\n    /* \"#utility.yul\":5710:5716   */\n  dup3\n    /* \"#utility.yul\":5706:5723   */\n  and\n    /* \"#utility.yul\":5696:5723   */\n  swap2\n  pop\n    /* \"#utility.yul\":5652:5733   */\ntag_131:\n    /* \"#utility.yul\":5780:5782   */\n  0x20\n    /* \"#utility.yul\":5772:5778   */\n  dup3\n    /* \"#utility.yul\":5769:5783   */\n  lt\n    /* \"#utility.yul\":5749:5767   */\n  dup2\n    /* \"#utility.yul\":5746:5784   */\n  sub\n    /* \"#utility.yul\":5743:5827   */\n  tag_132\n  jumpi\n    /* \"#utility.yul\":5799:5817   */\n  tag_133\n  tag_50\n  jump\t// in\ntag_133:\n    /* \"#utility.yul\":5743:5827   */\ntag_132:\n    /* \"#utility.yul\":5564:5833   */\n  pop\n    /* \"#utility.yul\":5513:5833   */\n  swap2\n  swap1\n  pop\n  jump\t// out\n    /* \"#utility.yul\":5839:5980   */\ntag_52:\n    /* \"#utility.yul\":5888:5892   */\n  0x00\n    /* \"#utility.yul\":5911:5914   */\n  dup2\n    /* \"#utility.yul\":5903:5914   */\n  swap1\n  pop\n    /* \"#utility.yul\":5934:5937   */\n  dup2\n    /* \"#utility.yul\":5931:5932   */\n  0x00\n    /* \"#utility.yul\":5924:5938   */\n  mstore\n    /* \"#utility.yul\":5968:5972   */\n  0x20\n    /* \"#utility.yul\":5965:5966   */\n  0x00\n    /* \"#utility.yul\":5955:5973   */\n  keccak256\n    /* \"#utility.yul\":5947:5973   */\n  swap1\n  pop\n    /* \"#utility.yul\":5839:5980   */\n  swap2\n  swap1\n  pop\n  jump\t// out\n    /* \"#utility.yul\":5986:6079   */\ntag_53:\n    /* \"#utility.yul\":6023:6029   */\n  0x00\n    /* \"#utility.yul\":6070:6072   */\n  0x20\n    /* \"#utility.yul\":6065:6067   */\n  0x1f\n    /* \"#utility.yul\":6058:6063   */\n  dup4\n    /* \"#utility.yul\":6054:6068   */\n  add\n    /* \"#utility.yul\":6050:6073   */\n  div\n    /* \"#utility.yul\":6040:6073   */\n  swap1\n  pop\n    /* \"#utility.yul\":5986:6079   */\n  swap2\n  swap1\n  pop\n  jump\t// out\n    /* \"#utility.yul\":6085:6192   */\ntag_54:\n    /* \"#utility.yul\":6129:6137   */\n  0x00\n    /* \"#utility.yul\":6179:6184   */\n  dup3\n    /* \"#utility.yul\":6173:6177   */\n  dup3\n    /* \"#utility.yul\":6169:6185   */\n  shl\n    /* \"#utility.yul\":6148:6185   */\n  swap1\n  pop\n    /* \"#utility.yul\":6085:6192   */\n  swap3\n  swap2\n  pop\n  pop\n  jump\t// out\n    /* \"#utility.yul\":6198:6591   */\ntag_55:\n    /* \"#utility.yul\":6267:6273   */\n  0x00\n    /* \"#utility.yul\":6317:6318   */\n  0x08\n    /* \"#utility.yul\":6305:6315   */\n  dup4\n    /* \"#utility.yul\":6301:6319   */\n  mul\n    /* \"#utility.yul\":6340:6437   */\n  tag_138\n    /* \"#utility.yul\":6370:6436   */\n  0xffffffffffffffffffffffffffffffffffffffffffffffffffffffffffffffff\n    /* \"#utility.yul\":6359:6368   */\n  dup3\n    /* \"#utility.yul\":6340:6437   */\n  tag_54\n  jump\t// in\ntag_138:\n    /* \"#utility.yul\":6458:6497   */\n  tag_139\n    /* \"#utility.yul\":6488:6496   */\n  dup7\n    /* \"#utility.yul\":6477:6486   */\n  dup4\n    /* \"#utility.yul\":6458:6497   */\n  tag_54\n  jump\t// in\ntag_139:\n    /* \"#utility.yul\":6446:6497   */\n  swap6\n  pop\n    /* \"#utility.yul\":6530:6534   */\n  dup1\n    /* \"#utility.yul\":6526:6535   */\n  not\n    /* \"#utility.yul\":6519:6524   */\n  dup5\n    /* \"#utility.yul\":6515:6536   */\n  and\n    /* \"#utility.yul\":6506:6536   */\n  swap4\n  pop\n    /* \"#utility.yul\":6579:6583   */\n  dup1\n    /* \"#utility.yul\":6569:6577   */\n  dup7\n    /* \"#utility.yul\":6565:6584   */\n  and\n    /* \"#utility.yul\":6558:6563   */\n  dup5\n    /* \"#utility.yul\":6555:6585   */\n  or\n    /* \"#utility.yul\":6545:6585   */\n  swap3\n  pop\n    /* \"#utility.yul\":6274:6591   */\n  pop\n  pop\n    /* \"#utility.yul\":6198:6591   */\n  swap4\n  swap3\n  pop\n  pop\n  pop\n  jump\t// out\n    /* \"#utility.yul\":6597:6674   */\ntag_56:\n    /* \"#utility.yul\":6634:6641   */\n  0x00\n    /* \"#utility.yul\":6663:6668   */\n  dup2\n    /* \"#utility.yul\":6652:6668   */\n  swap1\n  pop\n    /* \"#utility.yul\":6597:6674   */\n  swap2\n  swap1\n  pop\n  jump\t// out\n    /* \"#utility.yul\":6680:6740   */\ntag_57:\n    /* \"#utility.yul\":6708:6711   */\n  0x00\n    /* \"#utility.yul\":6729:6734   */\n  dup2\n    /* \"#utility.yul\":6722:6734   */\n  swap1\n  pop\n    /* \"#utility.yul\":6680:6740   */\n  swap2\n  swap1\n  pop\n  jump\t// out\n    /* \"#utility.yul\":6746:6888   */\ntag_58:\n    /* \"#utility.yul\":6796:6805   */\n  0x00\n    /* \"#utility.yul\":6829:6882   */\n  tag_143\n    /* \"#utility.yul\":6847:6881   */\n  tag_144\n    /* \"#utility.yul\":6856:6880   */\n  tag_145\n    /* \"#utility.yul\":6874:6879   */\n  dup5\n    /* \"#utility.yul\":6856:6880   */\n  tag_56\n  jump\t// in\ntag_145:\n    /* \"#utility.yul\":6847:6881   */\n  tag_57\n  jump\t// in\ntag_144:\n    /* \"#utility.yul\":6829:6882   */\n  tag_56\n  jump\t// in\ntag_143:\n    /* \"#utility.yul\":6816:6882   */\n  swap1\n  pop\n    /* \"#utility.yul\":6746:6888   */\n  swap2\n  swap1\n  pop\n  jump\t// out\n    /* \"#utility.yul\":6894:6969   */\ntag_59:\n    /* \"#utility.yul\":6937:6940   */\n  0x00\n    /* \"#utility.yul\":6958:6963   */\n  dup2\n    /* \"#utility.yul\":6951:6963   */\n  swap1\n  pop\n    /* \"#utility.yul\":6894:6969   */\n  swap2\n  swap1\n  pop\n  jump\t// out\n    /* \"#utility.yul\":6975:7244   */\ntag_60:\n    /* \"#utility.yul\":7085:7124   */\n  tag_148\n    /* \"#utility.yul\":7116:7123   */\n  dup4\n    /* \"#utility.yul\":7085:7124   */\n  tag_58\n  jump\t// in\ntag_148:\n    /* \"#utility.yul\":7146:7237   */\n  tag_149\n    /* \"#utility.yul\":7195:7236   */\n  tag_150\n    /* \"#utility.yul\":7219:7235   */\n  dup3\n    /* \"#utility.yul\":7195:7236   */\n  tag_59\n  jump\t// in\ntag_150:\n    /* \"#utility.yul\":7187:7193   */\n  dup5\n    /* \"#utility.yul\":7180:7184   */\n  dup5\n    /* \"#utility.yul\":7174:7185   */\n  sload\n    /* \"#utility.yul\":7146:7237   */\n  tag_55\n  jump\t// in\ntag_149:\n    /* \"#utility.yul\":7140:7144   */\n  dup3\n    /* \"#utility.yul\":7133:7238   */\n  sstore\n    /* \"#utility.yul\":7051:7244   */\n  pop\n    /* \"#utility.yul\":6975:7244   */\n  pop\n  pop\n  pop\n  jump\t// out\n    /* \"#utility.yul\":7250:7323   */\ntag_61:\n    /* \"#utility.yul\":7295:7298   */\n  0x00\n    /* \"#utility.yul\":7250:7323   */\n  swap1\n  jump\t// out\n    /* \"#utility.yul\":7329:7518   */\ntag_62:\n    /* \"#utility.yul\":7406:7438   */\n  tag_153\n  tag_61\n  jump\t// in\ntag_153:\n    /* \"#utility.yul\":7447:7512   */\n  tag_154\n    /* \"#utility.yul\":7505:7511   */\n  dup2\n    /* \"#utility.yul\":7497:7503   */\n  dup5\n    /* \"#utility.yul\":7491:7495   */\n  dup5\n    /* \"#utility.yul\":7447:7512   */\n  tag_60\n  jump\t// in\ntag_154:\n    /* \"#utility.yul\":7382:7518   */\n  pop\n    /* \"#utility.yul\":7329:7518   */\n  pop\n  pop\n  jump\t// out\n    /* \"#utility.yul\":7524:7710   */\ntag_63:\n    /* \"#utility.yul\":7584:7704   */\ntag_156:\n    /* \"#utility.yul\":7601:7604   */\n  dup2\n    /* \"#utility.yul\":7594:7599   */\n  dup2\n    /* \"#utility.yul\":7591:7605   */\n  lt\n    /* \"#utility.yul\":7584:7704   */\n  iszero\n  tag_158\n  jumpi\n    /* \"#utility.yul\":7655:7694   */\n  tag_159\n    /* \"#utility.yul\":7692:7693   */\n  0x00\n    /* \"#utility.yul\":7685:7690   */\n  dup3\n    /* \"#utility.yul\":7655:7694   */\n  tag_62\n  jump\t// in\ntag_159:\n    /* \"#utility.yul\":7628:7629   */\n  0x01\n    /* \"#utility.yul\":7621:7626   */\n  dup2\n    /* \"#utility.yul\":7617:7630   */\n  add\n    /* \"#utility.yul\":7608:7630   */\n  swap1\n  pop\n    /* \"#utility.yul\":7584:7704   */\n  jump(tag_156)\ntag_158:\n    /* \"#utility.yul\":7524:7710   */\n  pop\n  pop\n  jump\t// out\n    /* \"#utility.yul\":7716:8259   */\ntag_64:\n    /* \"#utility.yul\":7817:7819   */\n  0x1f\n    /* \"#utility.yul\":7812:7815   */\n  dup3\n    /* \"#utility.yul\":7809:7820   */\n  gt\n    /* \"#utility.yul\":7806:8252   */\n  iszero\n  tag_161\n  jumpi\n    /* \"#utility.yul\":7851:7889   */\n  tag_162\n    /* \"#utility.yul\":7883:7888   */\n  dup2\n    /* \"#utility.yul\":7851:7889   */\n  tag_52\n  jump\t// in\ntag_162:\n    /* \"#utility.yul\":7935:7964   */\n  tag_163\n    /* \"#utility.yul\":7953:7963   */\n  dup5\n    /* \"#utility.yul\":7935:7964   */\n  tag_53\n  jump\t// in\ntag_163:\n    /* \"#utility.yul\":7925:7933   */\n  dup2\n    /* \"#utility.yul\":7921:7965   */\n  add\n    /* \"#utility.yul\":8118:8120   */\n  0x20\n    /* \"#utility.yul\":8106:8116   */\n  dup6\n    /* \"#utility.yul\":8103:8121   */\n  lt\n    /* \"#utility.yul\":8100:8149   */\n  iszero\n  tag_164\n  jumpi\n    /* \"#utility.yul\":8139:8147   */\n  dup2\n    /* \"#utility.yul\":8124:8147   */\n  swap1\n  pop\n    /* \"#utility.yul\":8100:8149   */\ntag_164:\n    /* \"#utility.yul\":8162:8242   */\n  tag_165\n    /* \"#utility.yul\":8218:8240   */\n  tag_166\n    /* \"#utility.yul\":8236:8239   */\n  dup6\n    /* \"#utility.yul\":8218:8240   */\n  tag_53\n  jump\t// in\ntag_166:\n    /* \"#utility.yul\":8208:8216   */\n  dup4\n    /* \"#utility.yul\":8204:8241   */\n  add\n    /* \"#utility.yul\":8191:8202   */\n  dup3\n    /* \"#utility.yul\":8162:8242   */\n  tag_63\n  jump\t// in\ntag_165:\n    /* \"#utility.yul\":7821:8252   */\n  pop\n  pop\n    /* \"#utility.yul\":7806:8252   */\ntag_161:\n    /* \"#utility.yul\":7716:8259   */\n  pop\n  pop\n  pop\n  jump\t// out\n    /* \"#utility.yul\":8265:8382   */\ntag_65:\n    /* \"#utility.yul\":8319:8327   */\n  0x00\n    /* \"#utility.yul\":8369:8374   */\n  dup3\n    /* \"#utility.yul\":8363:8367   */\n  dup3\n    /* \"#utility.yul\":8359:8375   */\n  shr\n    /* \"#utility.yul\":8338:8375   */\n  swap1\n  pop\n    /* \"#utility.yul\":8265:8382   */\n  swap3\n  swap2\n  pop\n  pop\n  jump\t// out\n    /* \"#utility.yul\":8388:8557   */\ntag_66:\n    /* \"#utility.yul\":8432:8438   */\n  0x00\n    /* \"#utility.yul\":8465:8516   */\n  tag_169\n    /* \"#utility.yul\":8513:8514   */\n  0x00\n    /* \"#utility.yul\":8509:8515   */\n  not\n    /* \"#utility.yul\":8501:8506   */\n  dup5\n    /* \"#utility.yul\":8498:8499   */\n  0x08\n    /* \"#utility.yul\":8494:8507   */\n  mul\n    /* \"#utility.yul\":8465:8516   */\n  tag_65\n  jump\t// in\ntag_169:\n    /* \"#utility.yul\":8461:8517   */\n  not\n    /* \"#utility.yul\":8546:8550   */\n  dup1\n    /* \"#utility.yul\":8540:8544   */\n  dup4\n    /* \"#utility.yul\":8536:8551   */\n  and\n    /* \"#utility.yul\":8526:8551   */\n  swap2\n  pop\n    /* \"#utility.yul\":8439:8557   */\n  pop\n    /* \"#utility.yul\":8388:8557   */\n  swap3\n  swap2\n  pop\n  pop\n  jump\t// out\n    /* \"#utility.yul\":8562:8857   */\ntag_67:\n    /* \"#utility.yul\":8638:8642   */\n  0x00\n    /* \"#utility.yul\":8784:8813   */\n  tag_171\n    /* \"#utility.yul\":8809:8812   */\n  dup4\n    /* \"#utility.yul\":8803:8807   */\n  dup4\n    /* \"#utility.yul\":8784:8813   */\n  tag_66\n  jump\t// in\ntag_171:\n    /* \"#utility.yul\":8776:8813   */\n  swap2\n  pop\n    /* \"#utility.yul\":8846:8849   */\n  dup3\n    /* \"#utility.yul\":8843:8844   */\n  0x02\n    /* \"#utility.yul\":8839:8850   */\n  mul\n    /* \"#utility.yul\":8833:8837   */\n  dup3\n    /* \"#utility.yul\":8830:8851   */\n  or\n    /* \"#utility.yul\":8822:8851   */\n  swap1\n  pop\n    /* \"#utility.yul\":8562:8857   */\n  swap3\n  swap2\n  pop\n  pop\n  jump\t// out\n    /* \"#utility.yul\":8862:10257   */\ntag_17:\n    /* \"#utility.yul\":8979:9016   */\n  tag_173\n    /* \"#utility.yul\":9012:9015   */\n  dup3\n    /* \"#utility.yul\":8979:9016   */\n  tag_47\n  jump\t// in\ntag_173:\n    /* \"#utility.yul\":9081:9099   */\n  0xffffffffffffffff\n    /* \"#utility.yul\":9073:9079   */\n  dup2\n    /* \"#utility.yul\":9070:9100   */\n  gt\n    /* \"#utility.yul\":9067:9123   */\n  iszero\n  tag_174\n  jumpi\n    /* \"#utility.yul\":9103:9121   */\n  tag_175\n  tag_40\n  jump\t// in\ntag_175:\n    /* \"#utility.yul\":9067:9123   */\ntag_174:\n    /* \"#utility.yul\":9147:9185   */\n  tag_176\n    /* \"#utility.yul\":9179:9183   */\n  dup3\n    /* \"#utility.yul\":9173:9184   */\n  sload\n    /* \"#utility.yul\":9147:9185   */\n  tag_51\n  jump\t// in\ntag_176:\n    /* \"#utility.yul\":9232:9299   */\n  tag_177\n    /* \"#utility.yul\":9292:9298   */\n  dup3\n    /* \"#utility.yul\":9284:9290   */\n  dup3\n    /* \"#utility.yul\":9278:9282   */\n  dup6\n    /* \"#utility.yul\":9232:9299   */\n  tag_64\n  jump\t// in\ntag_177:\n    /* \"#utility.yul\":9326:9327   */\n  0x00\n    /* \"#utility.yul\":9350:9354   */\n  0x20\n    /* \"#utility.yul\":9337:9354   */\n  swap1\n  pop\n    /* \"#utility.yul\":9382:9384   */\n  0x1f\n    /* \"#utility.yul\":9374:9380   */\n  dup4\n    /* \"#utility.yul\":9371:9385   */\n  gt\n    /* \"#utility.yul\":9399:9400   */\n  0x01\n    /* \"#utility.yul\":9394:10012   */\n  dup2\n  eq\n  tag_179\n  jumpi\n    /* \"#utility.yul\":10056:10057   */\n  0x00\n    /* \"#utility.yul\":10073:10079   */\n  dup5\n    /* \"#utility.yul\":10070:10147   */\n  iszero\n  tag_180\n  jumpi\n    /* \"#utility.yul\":10122:10131   */\n  dup3\n    /* \"#utility.yul\":10117:10120   */\n  dup8\n    /* \"#utility.yul\":10113:10132   */\n  add\n    /* \"#utility.yul\":10107:10133   */\n  mload\n    /* \"#utility.yul\":10098:10133   */\n  swap1\n  pop\n    /* \"#utility.yul\":10070:10147   */\ntag_180:\n    /* \"#utility.yul\":10173:10240   */\n  tag_181\n    /* \"#utility.yul\":10233:10239   */\n  dup6\n    /* \"#utility.yul\":10226:10231   */\n  dup3\n    /* \"#utility.yul\":10173:10240   */\n  tag_67\n  jump\t// in\ntag_181:\n    /* \"#utility.yul\":10167:10171   */\n  dup7\n    /* \"#utility.yul\":10160:10241   */\n  sstore\n    /* \"#utility.yul\":10029:10251   */\n  pop\n    /* \"#utility.yul\":9364:10251   */\n  jump(tag_178)\n    /* \"#utility.yul\":9394:10012   */\ntag_179:\n    /* \"#utility.yul\":9446:9450   */\n  0x1f\n    /* \"#utility.yul\":9442:9451   */\n  not\n    /* \"#utility.yul\":9434:9440   */\n  dup5\n    /* \"#utility.yul\":9430:9452   */\n  and\n    /* \"#utility.yul\":9480:9517   */\n  tag_182\n    /* \"#utility.yul\":9512:9516   */\n  dup7\n    /* \"#utility.yul\":9480:9517   */\n  tag_52\n  jump\t// in\ntag_182:\n    /* \"#utility.yul\":9539:9540   */\n  0x00\n    /* \"#utility.yul\":9553:9761   */\ntag_183:\n    /* \"#utility.yul\":9567:9574   */\n  dup3\n    /* \"#utility.yul\":9564:9565   */\n  dup2\n    /* \"#utility.yul\":9561:9575   */\n  lt\n    /* \"#utility.yul\":9553:9761   */\n  iszero\n  tag_185\n  jumpi\n    /* \"#utility.yul\":9646:9655   */\n  dup5\n    /* \"#utility.yul\":9641:9644   */\n  dup10\n    /* \"#utility.yul\":9637:9656   */\n  add\n    /* \"#utility.yul\":9631:9657   */\n  mload\n    /* \"#utility.yul\":9623:9629   */\n  dup3\n    /* \"#utility.yul\":9616:9658   */\n  sstore\n    /* \"#utility.yul\":9697:9698   */\n  0x01\n    /* \"#utility.yul\":9689:9695   */\n  dup3\n    /* \"#utility.yul\":9685:9699   */\n  add\n    /* \"#utility.yul\":9675:9699   */\n  swap2\n  pop\n    /* \"#utility.yul\":9744:9746   */\n  0x20\n    /* \"#utility.yul\":9733:9742   */\n  dup6\n    /* \"#utility.yul\":9729:9747   */\n  add\n    /* \"#utility.yul\":9716:9747   */\n  swap5\n  pop\n    /* \"#utility.yul\":9590:9594   */\n  0x20\n    /* \"#utility.yul\":9587:9588   */\n  dup2\n    /* \"#utility.yul\":9583:9595   */\n  add\n    /* \"#utility.yul\":9578:9595   */\n  swap1\n  pop\n    /* \"#utility.yul\":9553:9761   */\n  jump(tag_183)\ntag_185:\n    /* \"#utility.yul\":9789:9795   */\n  dup7\n    /* \"#utility.yul\":9780:9787   */\n  dup4\n    /* \"#utility.yul\":9777:9796   */\n  lt\n    /* \"#utility.yul\":9774:9953   */\n  iszero\n  tag_186\n  jumpi\n    /* \"#utility.yul\":9847:9856   */\n  dup5\n    /* \"#utility.yul\":9842:9845   */\n  dup10\n    /* \"#utility.yul\":9838:9857   */\n  add\n    /* \"#utility.yul\":9832:9858   */\n  mload\n    /* \"#utility.yul\":9890:9938   */\n  tag_187\n    /* \"#utility.yul\":9932:9936   */\n  0x1f\n    /* \"#utility.yul\":9924:9930   */\n  dup10\n    /* \"#utility.yul\":9920:9937   */\n  and\n    /* \"#utility.yul\":9909:9918   */\n  dup3\n    /* \"#utility.yul\":9890:9938   */\n  tag_66\n  jump\t// in\ntag_187:\n    /* \"#utility.yul\":9882:9888   */\n  dup4\n    /* \"#utility.yul\":9875:9939   */\n  sstore\n    /* \"#utility.yul\":9797:9953   */\n  pop\n    /* \"#utility.yul\":9774:9953   */\ntag_186:\n    /* \"#utility.yul\":9999:10000   */\n  0x01\n    /* \"#utility.yul\":9995:9996   */\n  0x02\n    /* \"#utility.yul\":9987:9993   */\n  dup9\n    /* \"#utility.yul\":9983:9997   */\n  mul\n    /* \"#utility.yul\":9979:10001   */\n  add\n    /* \"#utility.yul\":9973:9977   */\n  dup9\n    /* \"#utility.yul\":9966:10002   */\n  sstore\n    /* \"#utility.yul\":9401:10012   */\n  pop\n  pop\n  pop\n    /* \"#utility.yul\":9364:10251   */\ntag_178:\n  pop\n    /* \"#utility.yul\":8954:10257   */\n  pop\n  pop\n  pop\n    /* \"#utility.yul\":8862:10257   */\n  pop\n  pop\n  jump\t// out\n    /* \"contracts/Pool.sol\":1212:4974  contract Pool is IPool, LP {... */\ntag_21:\n  dataSize(sub_0)\n  dup1\n  dataOffset(sub_0)\n  0x00\n  codecopy\n  0x00\n  return\nstop\n\nsub_0: assembly {\n        /* \"contracts/Pool.sol\":1212:4974  contract Pool is IPool, LP {... */\n      mstore(0x40, 0x80)\n      callvalue\n      dup1\n      iszero\n      tag_1\n      jumpi\n      0x00\n      dup1\n      revert\n    tag_1:\n      pop\n      jumpi(tag_2, lt(calldatasize, 0x04))\n      shr(0xe0, calldataload(0x00))\n      dup1\n      0x7ecebe00\n      gt\n      tag_20\n      jumpi\n      dup1\n      0xc45a0155\n      gt\n      tag_21\n      jumpi\n      dup1\n      0xc45a0155\n      eq\n      tag_15\n      jumpi\n      dup1\n      0xd004f0f7\n      eq\n      tag_16\n      jumpi\n      dup1\n      0xd505accf\n      eq\n      tag_17\n      jumpi\n      dup1\n      0xdd62ed3e\n      eq\n      tag_18\n      jumpi\n      dup1\n      0xe2bbb158\n      eq\n      tag_19\n      jumpi\n      jump(tag_2)\n    tag_21:\n      dup1\n      0x7ecebe00\n      eq\n      tag_11\n      jumpi\n      dup1\n      0x8f79306e\n      eq\n      tag_12\n      jumpi\n      dup1\n      0x95d89b41\n      eq\n      tag_13\n      jumpi\n      dup1\n      0xa9059cbb\n      eq\n      tag_14\n      jumpi\n      jump(tag_2)\n    tag_20:\n      dup1\n      0x2e1a7d4d\n      gt\n      tag_22\n      jumpi\n      dup1\n      0x2e1a7d4d\n      eq\n      tag_7\n      jumpi\n      dup1\n      0x313ce567\n      eq\n      tag_8\n      jumpi\n      dup1\n      0x3644e515\n      eq\n      tag_9\n      jumpi\n      dup1\n      0x70a08231\n      eq\n      tag_10\n      jumpi\n      jump(tag_2)\n    tag_22:\n      dup1\n      0x06fdde03\n      eq\n      tag_3\n      jumpi\n      dup1\n      0x095ea7b3\n      eq\n      tag_4\n      jumpi\n      dup1\n      0x18160ddd\n      eq\n      tag_5\n      jumpi\n      dup1\n      0x23b872dd\n      eq\n      tag_6\n      jumpi\n    tag_2:\n      0x00\n      dup1\n      revert\n        /* \"contracts/LP.sol\":490:605  function name() public view override returns(string memory) {... */\n    tag_3:\n      tag_23\n      tag_24\n      jump\t// in\n    tag_23:\n      mload(0x40)\n      tag_25\n      swap2\n      swap1\n      tag_26\n      jump\t// in\n    tag_25:\n      mload(0x40)\n      dup1\n      swap2\n      sub\n      swap1\n      return\n        /* \"https://github.com/Vectorized/solady/blob/e4a14a5b365b353352f7c38e699a2bc9363d6576/src/tokens/ERC20.sol\":7435:8008  function approve(address spender, uint256 amount) public virtual returns (bool) {... */\n    tag_4:\n      tag_27\n      0x04\n      dup1\n      calldatasize\n      sub\n      dup2\n      add\n      swap1\n      tag_28\n      swap2\n      swap1\n      tag_29\n      jump\t// in\n    tag_28:\n      tag_30\n      jump\t// in\n    tag_27:\n      mload(0x40)\n      tag_31\n      swap2\n      swap1\n      tag_32\n      jump\t// in\n    tag_31:\n      mload(0x40)\n      dup1\n      swap2\n      sub\n      swap1\n      return\n        /* \"https://github.com/Vectorized/solady/blob/e4a14a5b365b353352f7c38e699a2bc9363d6576/src/tokens/ERC20.sol\":6287:6482  function totalSupply() public view virtual returns (uint256 result) {... */\n    tag_5:\n      tag_33\n      tag_34\n      jump\t// in\n    tag_33:\n      mload(0x40)\n      tag_35\n      swap2\n      swap1\n      tag_36\n      jump\t// in\n    tag_35:\n      mload(0x40)\n      dup1\n      swap2\n      sub\n      swap1\n      return\n        /* \"https://github.com/Vectorized/solady/blob/e4a14a5b365b353352f7c38e699a2bc9363d6576/src/tokens/ERC20.sol\":9969:12160  function transferFrom(address from, address to, uint256 amount) public virtual returns (bool) {... */\n    tag_6:\n      tag_37\n      0x04\n      dup1\n      calldatasize\n      sub\n      dup2\n      add\n      swap1\n      tag_38\n      swap2\n      swap1\n      tag_39\n      jump\t// in\n    tag_38:\n      tag_40\n      jump\t// in\n    tag_37:\n      mload(0x40)\n      tag_41\n      swap2\n      swap1\n      tag_32\n      jump\t// in\n    tag_41:\n      mload(0x40)\n      dup1\n      swap2\n      sub\n      swap1\n      return\n        /* \"contracts/Pool.sol\":3432:4102  function withdraw(uint256 lpAmount) external returns (uint256, uint256){... */\n    tag_7:\n      tag_42\n      0x04\n      dup1\n      calldatasize\n      sub\n      dup2\n      add\n      swap1\n      tag_43\n      swap2\n      swap1\n      tag_44\n      jump\t// in\n    tag_43:\n      tag_45\n      jump\t// in\n    tag_42:\n      mload(0x40)\n      tag_46\n      swap3\n      swap2\n      swap1\n      tag_47\n      jump\t// in\n    tag_46:\n      mload(0x40)\n      dup1\n      swap2\n      sub\n      swap1\n      return\n        /* \"https://github.com/Vectorized/solady/blob/e4a14a5b365b353352f7c38e699a2bc9363d6576/src/tokens/ERC20.sol\":5860:5942  function decimals() public view virtual returns (uint8) {... */\n    tag_8:\n      tag_48\n      tag_49\n      jump\t// in\n    tag_48:\n      mload(0x40)\n      tag_50\n      swap2\n      swap1\n      tag_51\n      jump\t// in\n    tag_50:\n      mload(0x40)\n      dup1\n      swap2\n      sub\n      swap1\n      return\n        /* \"https://github.com/Vectorized/solady/blob/e4a14a5b365b353352f7c38e699a2bc9363d6576/src/tokens/ERC20.sol\":16620:17313  function DOMAIN_SEPARATOR() public view virtual returns (bytes32 result) {... */\n    tag_9:\n      tag_52\n      tag_53\n      jump\t// in\n    tag_52:\n      mload(0x40)\n      tag_54\n      swap2\n      swap1\n      tag_55\n      jump\t// in\n    tag_54:\n      mload(0x40)\n      dup1\n      swap2\n      sub\n      swap1\n      return\n        /* \"https://github.com/Vectorized/solady/blob/e4a14a5b365b353352f7c38e699a2bc9363d6576/src/tokens/ERC20.sol\":6548:6834  function balanceOf(address owner) public view virtual returns (uint256 result) {... */\n    tag_10:\n      tag_56\n      0x04\n      dup1\n      calldatasize\n      sub\n      dup2\n      add\n      swap1\n      tag_57\n      swap2\n      swap1\n      tag_58\n      jump\t// in\n    tag_57:\n      tag_59\n      jump\t// in\n    tag_56:\n      mload(0x40)\n      tag_60\n      swap2\n      swap1\n      tag_36\n      jump\t// in\n    tag_60:\n      mload(0x40)\n      dup1\n      swap2\n      sub\n      swap1\n      return\n        /* \"https://github.com/Vectorized/solady/blob/e4a14a5b365b353352f7c38e699a2bc9363d6576/src/tokens/ERC20.sol\":12800:13140  function nonces(address owner) public view virtual returns (uint256 result) {... */\n    tag_11:\n      tag_61\n      0x04\n      dup1\n      calldatasize\n      sub\n      dup2\n      add\n      swap1\n      tag_62\n      swap2\n      swap1\n      tag_58\n      jump\t// in\n    tag_62:\n      tag_63\n      jump\t// in\n    tag_61:\n      mload(0x40)\n      tag_64\n      swap2\n      swap1\n      tag_36\n      jump\t// in\n    tag_64:\n      mload(0x40)\n      dup1\n      swap2\n      sub\n      swap1\n      return\n        /* \"contracts/Pool.sol\":4108:4307  function quote(address token, uint256 amount) public view checkTokenInside(token) returns(uint256){... */\n    tag_12:\n      tag_65\n      0x04\n      dup1\n      calldatasize\n      sub\n      dup2\n      add\n      swap1\n      tag_66\n      swap2\n      swap1\n      tag_29\n      jump\t// in\n    tag_66:\n      tag_67\n      jump\t// in\n    tag_65:\n      mload(0x40)\n      tag_68\n      swap2\n      swap1\n      tag_36\n      jump\t// in\n    tag_68:\n      mload(0x40)\n      dup1\n      swap2\n      sub\n      swap1\n      return\n        /* \"contracts/LP.sol\":611:705  function symbol() public view override returns(string memory) {... */\n    tag_13:\n      tag_69\n      tag_70\n      jump\t// in\n    tag_69:\n      mload(0x40)\n      tag_71\n      swap2\n      swap1\n      tag_26\n      jump\t// in\n    tag_71:\n      mload(0x40)\n      dup1\n      swap2\n      sub\n      swap1\n      return\n        /* \"https://github.com/Vectorized/solady/blob/e4a14a5b365b353352f7c38e699a2bc9363d6576/src/tokens/ERC20.sol\":8195:9601  function transfer(address to, uint256 amount) public virtual returns (bool) {... */\n    tag_14:\n      tag_72\n      0x04\n      dup1\n      calldatasize\n      sub\n      dup2\n      add\n      swap1\n      tag_73\n      swap2\n      swap1\n      tag_29\n      jump\t// in\n    tag_73:\n      tag_74\n      jump\t// in\n    tag_72:\n      mload(0x40)\n      tag_75\n      swap2\n      swap1\n      tag_32\n      jump\t// in\n    tag_75:\n      mload(0x40)\n      dup1\n      swap2\n      sub\n      swap1\n      return\n        /* \"contracts/Pool.sol\":1252:1274  address public factory */\n    tag_15:\n      tag_76\n      tag_77\n      jump\t// in\n    tag_76:\n      mload(0x40)\n      tag_78\n      swap2\n      swap1\n      tag_79\n      jump\t// in\n    tag_78:\n      mload(0x40)\n      dup1\n      swap2\n      sub\n      swap1\n      return\n        /* \"contracts/Pool.sol\":2016:2926  function swap(address token, uint256 amount) external checkTokenInside(token) returns(uint256) {... */\n    tag_16:\n      tag_80\n      0x04\n      dup1\n      calldatasize\n      sub\n      dup2\n      add\n      swap1\n      tag_81\n      swap2\n      swap1\n      tag_29\n      jump\t// in\n    tag_81:\n      tag_82\n      jump\t// in\n    tag_80:\n      mload(0x40)\n      tag_83\n      swap2\n      swap1\n      tag_36\n      jump\t// in\n    tag_83:\n      mload(0x40)\n      dup1\n      swap2\n      sub\n      swap1\n      return\n        /* \"https://github.com/Vectorized/solady/blob/e4a14a5b365b353352f7c38e699a2bc9363d6576/src/tokens/ERC20.sol\":13324:16539  function permit(... */\n    tag_17:\n      tag_84\n      0x04\n      dup1\n      calldatasize\n      sub\n      dup2\n      add\n      swap1\n      tag_85\n      swap2\n      swap1\n      tag_86\n      jump\t// in\n    tag_85:\n      tag_87\n      jump\t// in\n    tag_84:\n      stop\n        /* \"https://github.com/Vectorized/solady/blob/e4a14a5b365b353352f7c38e699a2bc9363d6576/src/tokens/ERC20.sol\":6929:7304  function allowance(address owner, address spender)... */\n    tag_18:\n      tag_88\n      0x04\n      dup1\n      calldatasize\n      sub\n      dup2\n      add\n      swap1\n      tag_89\n      swap2\n      swap1\n      tag_90\n      jump\t// in\n    tag_89:\n      tag_91\n      jump\t// in\n    tag_88:\n      mload(0x40)\n      tag_92\n      swap2\n      swap1\n      tag_36\n      jump\t// in\n    tag_92:\n      mload(0x40)\n      dup1\n      swap2\n      sub\n      swap1\n      return\n        /* \"contracts/Pool.sol\":2932:3426  function deposit(uint256 amount0, uint256 amount1) external returns(uint256){... */\n    tag_19:\n      tag_93\n      0x04\n      dup1\n      calldatasize\n      sub\n      dup2\n      add\n      swap1\n      tag_94\n      swap2\n      swap1\n      tag_95\n      jump\t// in\n    tag_94:\n      tag_96\n      jump\t// in\n    tag_93:\n      mload(0x40)\n      tag_97\n      swap2\n      swap1\n      tag_36\n      jump\t// in\n    tag_97:\n      mload(0x40)\n      dup1\n      swap2\n      sub\n      swap1\n      return\n        /* \"contracts/LP.sol\":490:605  function name() public view override returns(string memory) {... */\n    tag_24:\n        /* \"contracts/LP.sol\":535:548  string memory */\n      0x60\n        /* \"contracts/LP.sol\":582:588  PREFIX */\n      mload(0x40)\n      dup1\n      0x40\n      add\n      0x40\n      mstore\n      dup1\n      0x05\n      dup2\n      mstore\n      0x20\n      add\n      0x4d494e492d000000000000000000000000000000000000000000000000000000\n      dup2\n      mstore\n      pop\n        /* \"contracts/LP.sol\":590:596  s_name */\n      0x00\n        /* \"contracts/LP.sol\":568:597  string.concat(PREFIX, s_name) */\n      add(0x20, mload(0x40))\n      tag_99\n      swap3\n      swap2\n      swap1\n      tag_100\n      jump\t// in\n    tag_99:\n      mload(0x40)\n      0x20\n      dup2\n      dup4\n      sub\n      sub\n      dup2\n      mstore\n      swap1\n      0x40\n      mstore\n        /* \"contracts/LP.sol\":561:597  return string.concat(PREFIX, s_name) */\n      swap1\n      pop\n        /* \"contracts/LP.sol\":490:605  function name() public view override returns(string memory) {... */\n      swap1\n      jump\t// out\n        /* \"https://github.com/Vectorized/solady/blob/e4a14a5b365b353352f7c38e699a2bc9363d6576/src/tokens/ERC20.sol\":7435:8008  function approve(address spender, uint256 amount) public virtual returns (bool) {... */\n    tag_30:\n        /* \"https://github.com/Vectorized/solady/blob/e4a14a5b365b353352f7c38e699a2bc9363d6576/src/tokens/ERC20.sol\":7509:7513  bool */\n      0x00\n        /* \"https://github.com/Vectorized/solady/blob/e4a14a5b365b353352f7c38e699a2bc9363d6576/src/tokens/ERC20.sol\":7668:7675  spender */\n      dup3\n        /* \"https://github.com/Vectorized/solady/blob/e4a14a5b365b353352f7c38e699a2bc9363d6576/src/tokens/ERC20.sol\":7662:7666  0x20 */\n      0x20\n        /* \"https://github.com/Vectorized/solady/blob/e4a14a5b365b353352f7c38e699a2bc9363d6576/src/tokens/ERC20.sol\":7655:7676  mstore(0x20, spender) */\n      mstore\n        /* \"https://github.com/Vectorized/solady/blob/e4a14a5b365b353352f7c38e699a2bc9363d6576/src/tokens/ERC20.sol\":7702:7722  _ALLOWANCE_SLOT_SEED */\n      0x7f5e9f20\n        /* \"https://github.com/Vectorized/solady/blob/e4a14a5b365b353352f7c38e699a2bc9363d6576/src/tokens/ERC20.sol\":7696:7700  0x0c */\n      0x0c\n        /* \"https://github.com/Vectorized/solady/blob/e4a14a5b365b353352f7c38e699a2bc9363d6576/src/tokens/ERC20.sol\":7689:7723  mstore(0x0c, _ALLOWANCE_SLOT_SEED) */\n      mstore\n        /* \"https://github.com/Vectorized/solady/blob/e4a14a5b365b353352f7c38e699a2bc9363d6576/src/tokens/ERC20.sol\":7749:7757  caller() */\n      caller\n        /* \"https://github.com/Vectorized/solady/blob/e4a14a5b365b353352f7c38e699a2bc9363d6576/src/tokens/ERC20.sol\":7743:7747  0x00 */\n      0x00\n        /* \"https://github.com/Vectorized/solady/blob/e4a14a5b365b353352f7c38e699a2bc9363d6576/src/tokens/ERC20.sol\":7736:7758  mstore(0x00, caller()) */\n      mstore\n        /* \"https://github.com/Vectorized/solady/blob/e4a14a5b365b353352f7c38e699a2bc9363d6576/src/tokens/ERC20.sol\":7801:7807  amount */\n      dup2\n        /* \"https://github.com/Vectorized/solady/blob/e4a14a5b365b353352f7c38e699a2bc9363d6576/src/tokens/ERC20.sol\":7794:7798  0x34 */\n      0x34\n        /* \"https://github.com/Vectorized/solady/blob/e4a14a5b365b353352f7c38e699a2bc9363d6576/src/tokens/ERC20.sol\":7788:7792  0x0c */\n      0x0c\n        /* \"https://github.com/Vectorized/solady/blob/e4a14a5b365b353352f7c38e699a2bc9363d6576/src/tokens/ERC20.sol\":7778:7799  keccak256(0x0c, 0x34) */\n      keccak256\n        /* \"https://github.com/Vectorized/solady/blob/e4a14a5b365b353352f7c38e699a2bc9363d6576/src/tokens/ERC20.sol\":7771:7808  sstore(keccak256(0x0c, 0x34), amount) */\n      sstore\n        /* \"https://github.com/Vectorized/solady/blob/e4a14a5b365b353352f7c38e699a2bc9363d6576/src/tokens/ERC20.sol\":7876:7882  amount */\n      dup2\n        /* \"https://github.com/Vectorized/solady/blob/e4a14a5b365b353352f7c38e699a2bc9363d6576/src/tokens/ERC20.sol\":7870:7874  0x00 */\n      0x00\n        /* \"https://github.com/Vectorized/solady/blob/e4a14a5b365b353352f7c38e699a2bc9363d6576/src/tokens/ERC20.sol\":7863:7883  mstore(0x00, amount) */\n      mstore\n        /* \"https://github.com/Vectorized/solady/blob/e4a14a5b365b353352f7c38e699a2bc9363d6576/src/tokens/ERC20.sol\":7964:7968  0x2c */\n      0x2c\n        /* \"https://github.com/Vectorized/solady/blob/e4a14a5b365b353352f7c38e699a2bc9363d6576/src/tokens/ERC20.sol\":7958:7969  mload(0x2c) */\n      mload\n        /* \"https://github.com/Vectorized/solady/blob/e4a14a5b365b353352f7c38e699a2bc9363d6576/src/tokens/ERC20.sol\":7954:7956  96 */\n      0x60\n        /* \"https://github.com/Vectorized/solady/blob/e4a14a5b365b353352f7c38e699a2bc9363d6576/src/tokens/ERC20.sol\":7950:7970  shr(96, mload(0x2c)) */\n      shr\n        /* \"https://github.com/Vectorized/solady/blob/e4a14a5b365b353352f7c38e699a2bc9363d6576/src/tokens/ERC20.sol\":7940:7948  caller() */\n      caller\n        /* \"https://github.com/Vectorized/solady/blob/e4a14a5b365b353352f7c38e699a2bc9363d6576/src/tokens/ERC20.sol\":7913:7938  _APPROVAL_EVENT_SIGNATURE */\n      0x8c5be1e5ebec7d5bd14f71427d1e84f3dd0314c0f7b2291e5b200ac8c7c3b925\n        /* \"https://github.com/Vectorized/solady/blob/e4a14a5b365b353352f7c38e699a2bc9363d6576/src/tokens/ERC20.sol\":7907:7911  0x20 */\n      0x20\n        /* \"https://github.com/Vectorized/solady/blob/e4a14a5b365b353352f7c38e699a2bc9363d6576/src/tokens/ERC20.sol\":7901:7905  0x00 */\n      0x00\n        /* \"https://github.com/Vectorized/solady/blob/e4a14a5b365b353352f7c38e699a2bc9363d6576/src/tokens/ERC20.sol\":7896:7971  log3(0x00, 0x20, _APPROVAL_EVENT_SIGNATURE, caller(), shr(96, mload(0x2c))) */\n      log3\n        /* \"https://github.com/Vectorized/solady/blob/e4a14a5b365b353352f7c38e699a2bc9363d6576/src/tokens/ERC20.sol\":7997:8001  true */\n      0x01\n        /* \"https://github.com/Vectorized/solady/blob/e4a14a5b365b353352f7c38e699a2bc9363d6576/src/tokens/ERC20.sol\":7990:8001  return true */\n      swap1\n      pop\n        /* \"https://github.com/Vectorized/solady/blob/e4a14a5b365b353352f7c38e699a2bc9363d6576/src/tokens/ERC20.sol\":7435:8008  function approve(address spender, uint256 amount) public virtual returns (bool) {... */\n      swap3\n      swap2\n      pop\n      pop\n      jump\t// out\n        /* \"https://github.com/Vectorized/solady/blob/e4a14a5b365b353352f7c38e699a2bc9363d6576/src/tokens/ERC20.sol\":6287:6482  function totalSupply() public view virtual returns (uint256 result) {... */\n    tag_34:\n        /* \"https://github.com/Vectorized/solady/blob/e4a14a5b365b353352f7c38e699a2bc9363d6576/src/tokens/ERC20.sol\":6339:6353  uint256 result */\n      0x00\n        /* \"https://github.com/Vectorized/solady/blob/e4a14a5b365b353352f7c38e699a2bc9363d6576/src/tokens/ERC20.sol\":6447:6465  _TOTAL_SUPPLY_SLOT */\n      0x05345cdf77eb68f44c\n        /* \"https://github.com/Vectorized/solady/blob/e4a14a5b365b353352f7c38e699a2bc9363d6576/src/tokens/ERC20.sol\":6441:6466  sload(_TOTAL_SUPPLY_SLOT) */\n      sload\n        /* \"https://github.com/Vectorized/solady/blob/e4a14a5b365b353352f7c38e699a2bc9363d6576/src/tokens/ERC20.sol\":6431:6466  result := sload(_TOTAL_SUPPLY_SLOT) */\n      swap1\n      pop\n        /* \"https://github.com/Vectorized/solady/blob/e4a14a5b365b353352f7c38e699a2bc9363d6576/src/tokens/ERC20.sol\":6287:6482  function totalSupply() public view virtual returns (uint256 result) {... */\n      swap1\n      jump\t// out\n        /* \"https://github.com/Vectorized/solady/blob/e4a14a5b365b353352f7c38e699a2bc9363d6576/src/tokens/ERC20.sol\":9969:12160  function transferFrom(address from, address to, uint256 amount) public virtual returns (bool) {... */\n    tag_40:\n        /* \"https://github.com/Vectorized/solady/blob/e4a14a5b365b353352f7c38e699a2bc9363d6576/src/tokens/ERC20.sol\":10057:10061  bool */\n      0x00\n        /* \"https://github.com/Vectorized/solady/blob/e4a14a5b365b353352f7c38e699a2bc9363d6576/src/tokens/ERC20.sol\":10073:10111  _beforeTokenTransfer(from, to, amount) */\n      tag_104\n        /* \"https://github.com/Vectorized/solady/blob/e4a14a5b365b353352f7c38e699a2bc9363d6576/src/tokens/ERC20.sol\":10094:10098  from */\n      dup5\n        /* \"https://github.com/Vectorized/solady/blob/e4a14a5b365b353352f7c38e699a2bc9363d6576/src/tokens/ERC20.sol\":10100:10102  to */\n      dup5\n        /* \"https://github.com/Vectorized/solady/blob/e4a14a5b365b353352f7c38e699a2bc9363d6576/src/tokens/ERC20.sol\":10104:10110  amount */\n      dup5\n        /* \"https://github.com/Vectorized/solady/blob/e4a14a5b365b353352f7c38e699a2bc9363d6576/src/tokens/ERC20.sol\":10073:10093  _beforeTokenTransfer */\n      tag_105\n        /* \"https://github.com/Vectorized/solady/blob/e4a14a5b365b353352f7c38e699a2bc9363d6576/src/tokens/ERC20.sol\":10073:10111  _beforeTokenTransfer(from, to, amount) */\n      jump\t// in\n    tag_104:\n        /* \"https://github.com/Vectorized/solady/blob/e4a14a5b365b353352f7c38e699a2bc9363d6576/src/tokens/ERC20.sol\":10208:10212  from */\n      dup4\n        /* \"https://github.com/Vectorized/solady/blob/e4a14a5b365b353352f7c38e699a2bc9363d6576/src/tokens/ERC20.sol\":10204:10206  96 */\n      0x60\n        /* \"https://github.com/Vectorized/solady/blob/e4a14a5b365b353352f7c38e699a2bc9363d6576/src/tokens/ERC20.sol\":10200:10213  shl(96, from) */\n      shl\n        /* \"https://github.com/Vectorized/solady/blob/e4a14a5b365b353352f7c38e699a2bc9363d6576/src/tokens/ERC20.sol\":10301:10309  caller() */\n      caller\n        /* \"https://github.com/Vectorized/solady/blob/e4a14a5b365b353352f7c38e699a2bc9363d6576/src/tokens/ERC20.sol\":10295:10299  0x20 */\n      0x20\n        /* \"https://github.com/Vectorized/solady/blob/e4a14a5b365b353352f7c38e699a2bc9363d6576/src/tokens/ERC20.sol\":10288:10310  mstore(0x20, caller()) */\n      mstore\n        /* \"https://github.com/Vectorized/solady/blob/e4a14a5b365b353352f7c38e699a2bc9363d6576/src/tokens/ERC20.sol\":10346:10366  _ALLOWANCE_SLOT_SEED */\n      0x7f5e9f20\n        /* \"https://github.com/Vectorized/solady/blob/e4a14a5b365b353352f7c38e699a2bc9363d6576/src/tokens/ERC20.sol\":10339:10344  from_ */\n      dup2\n        /* \"https://github.com/Vectorized/solady/blob/e4a14a5b365b353352f7c38e699a2bc9363d6576/src/tokens/ERC20.sol\":10336:10367  or(from_, _ALLOWANCE_SLOT_SEED) */\n      or\n        /* \"https://github.com/Vectorized/solady/blob/e4a14a5b365b353352f7c38e699a2bc9363d6576/src/tokens/ERC20.sol\":10330:10334  0x0c */\n      0x0c\n        /* \"https://github.com/Vectorized/solady/blob/e4a14a5b365b353352f7c38e699a2bc9363d6576/src/tokens/ERC20.sol\":10323:10368  mstore(0x0c, or(from_, _ALLOWANCE_SLOT_SEED)) */\n      mstore\n        /* \"https://github.com/Vectorized/solady/blob/e4a14a5b365b353352f7c38e699a2bc9363d6576/src/tokens/ERC20.sol\":10418:10422  0x34 */\n      0x34\n        /* \"https://github.com/Vectorized/solady/blob/e4a14a5b365b353352f7c38e699a2bc9363d6576/src/tokens/ERC20.sol\":10412:10416  0x0c */\n      0x0c\n        /* \"https://github.com/Vectorized/solady/blob/e4a14a5b365b353352f7c38e699a2bc9363d6576/src/tokens/ERC20.sol\":10402:10423  keccak256(0x0c, 0x34) */\n      keccak256\n        /* \"https://github.com/Vectorized/solady/blob/e4a14a5b365b353352f7c38e699a2bc9363d6576/src/tokens/ERC20.sol\":10460:10473  allowanceSlot */\n      dup1\n        /* \"https://github.com/Vectorized/solady/blob/e4a14a5b365b353352f7c38e699a2bc9363d6576/src/tokens/ERC20.sol\":10454:10474  sload(allowanceSlot) */\n      sload\n        /* \"https://github.com/Vectorized/solady/blob/e4a14a5b365b353352f7c38e699a2bc9363d6576/src/tokens/ERC20.sol\":10572:10573  1 */\n      0x01\n        /* \"https://github.com/Vectorized/solady/blob/e4a14a5b365b353352f7c38e699a2bc9363d6576/src/tokens/ERC20.sol\":10560:10570  allowance_ */\n      dup2\n        /* \"https://github.com/Vectorized/solady/blob/e4a14a5b365b353352f7c38e699a2bc9363d6576/src/tokens/ERC20.sol\":10556:10574  add(allowance_, 1) */\n      add\n        /* \"https://github.com/Vectorized/solady/blob/e4a14a5b365b353352f7c38e699a2bc9363d6576/src/tokens/ERC20.sol\":10553:10971  if add(allowance_, 1) {... */\n      iszero\n      tag_106\n      jumpi\n        /* \"https://github.com/Vectorized/solady/blob/e4a14a5b365b353352f7c38e699a2bc9363d6576/src/tokens/ERC20.sol\":10688:10698  allowance_ */\n      dup1\n        /* \"https://github.com/Vectorized/solady/blob/e4a14a5b365b353352f7c38e699a2bc9363d6576/src/tokens/ERC20.sol\":10680:10686  amount */\n      dup6\n        /* \"https://github.com/Vectorized/solady/blob/e4a14a5b365b353352f7c38e699a2bc9363d6576/src/tokens/ERC20.sol\":10677:10699  gt(amount, allowance_) */\n      gt\n        /* \"https://github.com/Vectorized/solady/blob/e4a14a5b365b353352f7c38e699a2bc9363d6576/src/tokens/ERC20.sol\":10674:10833  if gt(amount, allowance_) {... */\n      iszero\n      tag_107\n      jumpi\n        /* \"https://github.com/Vectorized/solady/blob/e4a14a5b365b353352f7c38e699a2bc9363d6576/src/tokens/ERC20.sol\":10735:10745  0x13be252b */\n      0x13be252b\n        /* \"https://github.com/Vectorized/solady/blob/e4a14a5b365b353352f7c38e699a2bc9363d6576/src/tokens/ERC20.sol\":10729:10733  0x00 */\n      0x00\n        /* \"https://github.com/Vectorized/solady/blob/e4a14a5b365b353352f7c38e699a2bc9363d6576/src/tokens/ERC20.sol\":10722:10746  mstore(0x00, 0x13be252b) */\n      mstore\n        /* \"https://github.com/Vectorized/solady/blob/e4a14a5b365b353352f7c38e699a2bc9363d6576/src/tokens/ERC20.sol\":10810:10814  0x04 */\n      0x04\n        /* \"https://github.com/Vectorized/solady/blob/e4a14a5b365b353352f7c38e699a2bc9363d6576/src/tokens/ERC20.sol\":10804:10808  0x1c */\n      0x1c\n        /* \"https://github.com/Vectorized/solady/blob/e4a14a5b365b353352f7c38e699a2bc9363d6576/src/tokens/ERC20.sol\":10797:10815  revert(0x1c, 0x04) */\n      revert\n        /* \"https://github.com/Vectorized/solady/blob/e4a14a5b365b353352f7c38e699a2bc9363d6576/src/tokens/ERC20.sol\":10674:10833  if gt(amount, allowance_) {... */\n    tag_107:\n        /* \"https://github.com/Vectorized/solady/blob/e4a14a5b365b353352f7c38e699a2bc9363d6576/src/tokens/ERC20.sol\":10949:10955  amount */\n      dup5\n        /* \"https://github.com/Vectorized/solady/blob/e4a14a5b365b353352f7c38e699a2bc9363d6576/src/tokens/ERC20.sol\":10937:10947  allowance_ */\n      dup2\n        /* \"https://github.com/Vectorized/solady/blob/e4a14a5b365b353352f7c38e699a2bc9363d6576/src/tokens/ERC20.sol\":10933:10956  sub(allowance_, amount) */\n      sub\n        /* \"https://github.com/Vectorized/solady/blob/e4a14a5b365b353352f7c38e699a2bc9363d6576/src/tokens/ERC20.sol\":10918:10931  allowanceSlot */\n      dup3\n        /* \"https://github.com/Vectorized/solady/blob/e4a14a5b365b353352f7c38e699a2bc9363d6576/src/tokens/ERC20.sol\":10911:10957  sstore(allowanceSlot, sub(allowance_, amount)) */\n      sstore\n        /* \"https://github.com/Vectorized/solady/blob/e4a14a5b365b353352f7c38e699a2bc9363d6576/src/tokens/ERC20.sol\":10553:10971  if add(allowance_, 1) {... */\n    tag_106:\n        /* \"https://github.com/Vectorized/solady/blob/e4a14a5b365b353352f7c38e699a2bc9363d6576/src/tokens/ERC20.sol\":11067:11085  _BALANCE_SLOT_SEED */\n      0x87a211a2\n        /* \"https://github.com/Vectorized/solady/blob/e4a14a5b365b353352f7c38e699a2bc9363d6576/src/tokens/ERC20.sol\":11060:11065  from_ */\n      dup4\n        /* \"https://github.com/Vectorized/solady/blob/e4a14a5b365b353352f7c38e699a2bc9363d6576/src/tokens/ERC20.sol\":11057:11086  or(from_, _BALANCE_SLOT_SEED) */\n      or\n        /* \"https://github.com/Vectorized/solady/blob/e4a14a5b365b353352f7c38e699a2bc9363d6576/src/tokens/ERC20.sol\":11051:11055  0x0c */\n      0x0c\n        /* \"https://github.com/Vectorized/solady/blob/e4a14a5b365b353352f7c38e699a2bc9363d6576/src/tokens/ERC20.sol\":11044:11087  mstore(0x0c, or(from_, _BALANCE_SLOT_SEED)) */\n      mstore\n        /* \"https://github.com/Vectorized/solady/blob/e4a14a5b365b353352f7c38e699a2bc9363d6576/src/tokens/ERC20.sol\":11139:11143  0x20 */\n      0x20\n        /* \"https://github.com/Vectorized/solady/blob/e4a14a5b365b353352f7c38e699a2bc9363d6576/src/tokens/ERC20.sol\":11133:11137  0x0c */\n      0x0c\n        /* \"https://github.com/Vectorized/solady/blob/e4a14a5b365b353352f7c38e699a2bc9363d6576/src/tokens/ERC20.sol\":11123:11144  keccak256(0x0c, 0x20) */\n      keccak256\n        /* \"https://github.com/Vectorized/solady/blob/e4a14a5b365b353352f7c38e699a2bc9363d6576/src/tokens/ERC20.sol\":11182:11197  fromBalanceSlot */\n      dup1\n        /* \"https://github.com/Vectorized/solady/blob/e4a14a5b365b353352f7c38e699a2bc9363d6576/src/tokens/ERC20.sol\":11176:11198  sload(fromBalanceSlot) */\n      sload\n        /* \"https://github.com/Vectorized/solady/blob/e4a14a5b365b353352f7c38e699a2bc9363d6576/src/tokens/ERC20.sol\":11272:11283  fromBalance */\n      dup1\n        /* \"https://github.com/Vectorized/solady/blob/e4a14a5b365b353352f7c38e699a2bc9363d6576/src/tokens/ERC20.sol\":11264:11270  amount */\n      dup8\n        /* \"https://github.com/Vectorized/solady/blob/e4a14a5b365b353352f7c38e699a2bc9363d6576/src/tokens/ERC20.sol\":11261:11284  gt(amount, fromBalance) */\n      gt\n        /* \"https://github.com/Vectorized/solady/blob/e4a14a5b365b353352f7c38e699a2bc9363d6576/src/tokens/ERC20.sol\":11258:11404  if gt(amount, fromBalance) {... */\n      iszero\n      tag_108\n      jumpi\n        /* \"https://github.com/Vectorized/solady/blob/e4a14a5b365b353352f7c38e699a2bc9363d6576/src/tokens/ERC20.sol\":11316:11326  0xf4d678b8 */\n      0xf4d678b8\n        /* \"https://github.com/Vectorized/solady/blob/e4a14a5b365b353352f7c38e699a2bc9363d6576/src/tokens/ERC20.sol\":11310:11314  0x00 */\n      0x00\n        /* \"https://github.com/Vectorized/solady/blob/e4a14a5b365b353352f7c38e699a2bc9363d6576/src/tokens/ERC20.sol\":11303:11327  mstore(0x00, 0xf4d678b8) */\n      mstore\n        /* \"https://github.com/Vectorized/solady/blob/e4a14a5b365b353352f7c38e699a2bc9363d6576/src/tokens/ERC20.sol\":11385:11389  0x04 */\n      0x04\n        /* \"https://github.com/Vectorized/solady/blob/e4a14a5b365b353352f7c38e699a2bc9363d6576/src/tokens/ERC20.sol\":11379:11383  0x1c */\n      0x1c\n        /* \"https://github.com/Vectorized/solady/blob/e4a14a5b365b353352f7c38e699a2bc9363d6576/src/tokens/ERC20.sol\":11372:11390  revert(0x1c, 0x04) */\n      revert\n        /* \"https://github.com/Vectorized/solady/blob/e4a14a5b365b353352f7c38e699a2bc9363d6576/src/tokens/ERC20.sol\":11258:11404  if gt(amount, fromBalance) {... */\n    tag_108:\n        /* \"https://github.com/Vectorized/solady/blob/e4a14a5b365b353352f7c38e699a2bc9363d6576/src/tokens/ERC20.sol\":11513:11519  amount */\n      dup7\n        /* \"https://github.com/Vectorized/solady/blob/e4a14a5b365b353352f7c38e699a2bc9363d6576/src/tokens/ERC20.sol\":11500:11511  fromBalance */\n      dup2\n        /* \"https://github.com/Vectorized/solady/blob/e4a14a5b365b353352f7c38e699a2bc9363d6576/src/tokens/ERC20.sol\":11496:11520  sub(fromBalance, amount) */\n      sub\n        /* \"https://github.com/Vectorized/solady/blob/e4a14a5b365b353352f7c38e699a2bc9363d6576/src/tokens/ERC20.sol\":11479:11494  fromBalanceSlot */\n      dup3\n        /* \"https://github.com/Vectorized/solady/blob/e4a14a5b365b353352f7c38e699a2bc9363d6576/src/tokens/ERC20.sol\":11472:11521  sstore(fromBalanceSlot, sub(fromBalance, amount)) */\n      sstore\n        /* \"https://github.com/Vectorized/solady/blob/e4a14a5b365b353352f7c38e699a2bc9363d6576/src/tokens/ERC20.sol\":11596:11598  to */\n      dup8\n        /* \"https://github.com/Vectorized/solady/blob/e4a14a5b365b353352f7c38e699a2bc9363d6576/src/tokens/ERC20.sol\":11590:11594  0x00 */\n      0x00\n        /* \"https://github.com/Vectorized/solady/blob/e4a14a5b365b353352f7c38e699a2bc9363d6576/src/tokens/ERC20.sol\":11583:11599  mstore(0x00, to) */\n      mstore\n        /* \"https://github.com/Vectorized/solady/blob/e4a14a5b365b353352f7c38e699a2bc9363d6576/src/tokens/ERC20.sol\":11649:11653  0x20 */\n      0x20\n        /* \"https://github.com/Vectorized/solady/blob/e4a14a5b365b353352f7c38e699a2bc9363d6576/src/tokens/ERC20.sol\":11643:11647  0x0c */\n      0x0c\n        /* \"https://github.com/Vectorized/solady/blob/e4a14a5b365b353352f7c38e699a2bc9363d6576/src/tokens/ERC20.sol\":11633:11654  keccak256(0x0c, 0x20) */\n      keccak256\n        /* \"https://github.com/Vectorized/solady/blob/e4a14a5b365b353352f7c38e699a2bc9363d6576/src/tokens/ERC20.sol\":11899:11905  amount */\n      dup8\n        /* \"https://github.com/Vectorized/solady/blob/e4a14a5b365b353352f7c38e699a2bc9363d6576/src/tokens/ERC20.sol\":11883:11896  toBalanceSlot */\n      dup2\n        /* \"https://github.com/Vectorized/solady/blob/e4a14a5b365b353352f7c38e699a2bc9363d6576/src/tokens/ERC20.sol\":11877:11897  sload(toBalanceSlot) */\n      sload\n        /* \"https://github.com/Vectorized/solady/blob/e4a14a5b365b353352f7c38e699a2bc9363d6576/src/tokens/ERC20.sol\":11873:11906  add(sload(toBalanceSlot), amount) */\n      add\n        /* \"https://github.com/Vectorized/solady/blob/e4a14a5b365b353352f7c38e699a2bc9363d6576/src/tokens/ERC20.sol\":11858:11871  toBalanceSlot */\n      dup2\n        /* \"https://github.com/Vectorized/solady/blob/e4a14a5b365b353352f7c38e699a2bc9363d6576/src/tokens/ERC20.sol\":11851:11907  sstore(toBalanceSlot, add(sload(toBalanceSlot), amount)) */\n      sstore\n        /* \"https://github.com/Vectorized/solady/blob/e4a14a5b365b353352f7c38e699a2bc9363d6576/src/tokens/ERC20.sol\":11975:11981  amount */\n      dup8\n        /* \"https://github.com/Vectorized/solady/blob/e4a14a5b365b353352f7c38e699a2bc9363d6576/src/tokens/ERC20.sol\":11969:11973  0x20 */\n      0x20\n        /* \"https://github.com/Vectorized/solady/blob/e4a14a5b365b353352f7c38e699a2bc9363d6576/src/tokens/ERC20.sol\":11962:11982  mstore(0x20, amount) */\n      mstore\n        /* \"https://github.com/Vectorized/solady/blob/e4a14a5b365b353352f7c38e699a2bc9363d6576/src/tokens/ERC20.sol\":12069:12073  0x0c */\n      0x0c\n        /* \"https://github.com/Vectorized/solady/blob/e4a14a5b365b353352f7c38e699a2bc9363d6576/src/tokens/ERC20.sol\":12063:12074  mload(0x0c) */\n      mload\n        /* \"https://github.com/Vectorized/solady/blob/e4a14a5b365b353352f7c38e699a2bc9363d6576/src/tokens/ERC20.sol\":12059:12061  96 */\n      0x60\n        /* \"https://github.com/Vectorized/solady/blob/e4a14a5b365b353352f7c38e699a2bc9363d6576/src/tokens/ERC20.sol\":12055:12075  shr(96, mload(0x0c)) */\n      shr\n        /* \"https://github.com/Vectorized/solady/blob/e4a14a5b365b353352f7c38e699a2bc9363d6576/src/tokens/ERC20.sol\":12047:12052  from_ */\n      dup7\n        /* \"https://github.com/Vectorized/solady/blob/e4a14a5b365b353352f7c38e699a2bc9363d6576/src/tokens/ERC20.sol\":12043:12045  96 */\n      0x60\n        /* \"https://github.com/Vectorized/solady/blob/e4a14a5b365b353352f7c38e699a2bc9363d6576/src/tokens/ERC20.sol\":12039:12053  shr(96, from_) */\n      shr\n        /* \"https://github.com/Vectorized/solady/blob/e4a14a5b365b353352f7c38e699a2bc9363d6576/src/tokens/ERC20.sol\":12012:12037  _TRANSFER_EVENT_SIGNATURE */\n      0xddf252ad1be2c89b69c2b068fc378daa952ba7f163c4a11628f55a4df523b3ef\n        /* \"https://github.com/Vectorized/solady/blob/e4a14a5b365b353352f7c38e699a2bc9363d6576/src/tokens/ERC20.sol\":12006:12010  0x20 */\n      0x20\n        /* \"https://github.com/Vectorized/solady/blob/e4a14a5b365b353352f7c38e699a2bc9363d6576/src/tokens/ERC20.sol\":12000:12004  0x20 */\n      dup1\n        /* \"https://github.com/Vectorized/solady/blob/e4a14a5b365b353352f7c38e699a2bc9363d6576/src/tokens/ERC20.sol\":11995:12076  log3(0x20, 0x20, _TRANSFER_EVENT_SIGNATURE, shr(96, from_), shr(96, mload(0x0c))) */\n      log3\n        /* \"https://github.com/Vectorized/solady/blob/e4a14a5b365b353352f7c38e699a2bc9363d6576/src/tokens/ERC20.sol\":10173:12086  {... */\n      pop\n      pop\n      pop\n      pop\n      pop\n      pop\n        /* \"https://github.com/Vectorized/solady/blob/e4a14a5b365b353352f7c38e699a2bc9363d6576/src/tokens/ERC20.sol\":12095:12132  _afterTokenTransfer(from, to, amount) */\n      tag_109\n        /* \"https://github.com/Vectorized/solady/blob/e4a14a5b365b353352f7c38e699a2bc9363d6576/src/tokens/ERC20.sol\":12115:12119  from */\n      dup5\n        /* \"https://github.com/Vectorized/solady/blob/e4a14a5b365b353352f7c38e699a2bc9363d6576/src/tokens/ERC20.sol\":12121:12123  to */\n      dup5\n        /* \"https://github.com/Vectorized/solady/blob/e4a14a5b365b353352f7c38e699a2bc9363d6576/src/tokens/ERC20.sol\":12125:12131  amount */\n      dup5\n        /* \"https://github.com/Vectorized/solady/blob/e4a14a5b365b353352f7c38e699a2bc9363d6576/src/tokens/ERC20.sol\":12095:12114  _afterTokenTransfer */\n      tag_110\n        /* \"https://github.com/Vectorized/solady/blob/e4a14a5b365b353352f7c38e699a2bc9363d6576/src/tokens/ERC20.sol\":12095:12132  _afterTokenTransfer(from, to, amount) */\n      jump\t// in\n    tag_109:\n        /* \"https://github.com/Vectorized/solady/blob/e4a14a5b365b353352f7c38e699a2bc9363d6576/src/tokens/ERC20.sol\":12149:12153  true */\n      0x01\n        /* \"https://github.com/Vectorized/solady/blob/e4a14a5b365b353352f7c38e699a2bc9363d6576/src/tokens/ERC20.sol\":12142:12153  return true */\n      swap1\n      pop\n        /* \"https://github.com/Vectorized/solady/blob/e4a14a5b365b353352f7c38e699a2bc9363d6576/src/tokens/ERC20.sol\":9969:12160  function transferFrom(address from, address to, uint256 amount) public virtual returns (bool) {... */\n      swap4\n      swap3\n      pop\n      pop\n      pop\n      jump\t// out\n        /* \"contracts/Pool.sol\":3432:4102  function withdraw(uint256 lpAmount) external returns (uint256, uint256){... */\n    tag_45:\n        /* \"contracts/Pool.sol\":3486:3493  uint256 */\n      0x00\n        /* \"contracts/Pool.sol\":3495:3502  uint256 */\n      dup1\n        /* \"contracts/Pool.sol\":3541:3549  lpAmount */\n      dup3\n        /* \"contracts/Pool.sol\":3517:3538  balanceOf(msg.sender) */\n      tag_112\n        /* \"contracts/Pool.sol\":3527:3537  msg.sender */\n      caller\n        /* \"contracts/Pool.sol\":3517:3526  balanceOf */\n      tag_59\n        /* \"contracts/Pool.sol\":3517:3538  balanceOf(msg.sender) */\n      jump\t// in\n    tag_112:\n        /* \"contracts/Pool.sol\":3517:3549  balanceOf(msg.sender) < lpAmount */\n      lt\n        /* \"contracts/Pool.sol\":3514:3580  if(balanceOf(msg.sender) < lpAmount) revert INSUFFICIENT_BALANCE() */\n      iszero\n      tag_113\n      jumpi\n        /* \"contracts/Pool.sol\":3558:3580  INSUFFICIENT_BALANCE() */\n      mload(0x40)\n      0x50b1f35600000000000000000000000000000000000000000000000000000000\n      dup2\n      mstore\n      0x04\n      add\n      mload(0x40)\n      dup1\n      swap2\n      sub\n      swap1\n      revert\n        /* \"contracts/Pool.sol\":3514:3580  if(balanceOf(msg.sender) < lpAmount) revert INSUFFICIENT_BALANCE() */\n    tag_113:\n        /* \"contracts/Pool.sol\":3591:3608  uint _totalSupply */\n      0x00\n        /* \"contracts/Pool.sol\":3611:3624  totalSupply() */\n      tag_114\n        /* \"contracts/Pool.sol\":3611:3622  totalSupply */\n      tag_34\n        /* \"contracts/Pool.sol\":3611:3624  totalSupply() */\n      jump\t// in\n    tag_114:\n        /* \"contracts/Pool.sol\":3591:3624  uint _totalSupply = totalSupply() */\n      swap1\n      pop\n        /* \"contracts/Pool.sol\":3636:3648  uint amount0 */\n      0x00\n        /* \"contracts/Pool.sol\":3675:3687  _totalSupply */\n      dup2\n        /* \"contracts/Pool.sol\":3662:3672  s_reserve0 */\n      sload(0x04)\n        /* \"contracts/Pool.sol\":3651:3659  lpAmount */\n      dup7\n        /* \"contracts/Pool.sol\":3651:3672  lpAmount * s_reserve0 */\n      tag_115\n      swap2\n      swap1\n      tag_116\n      jump\t// in\n    tag_115:\n        /* \"contracts/Pool.sol\":3651:3687  lpAmount * s_reserve0 / _totalSupply */\n      tag_117\n      swap2\n      swap1\n      tag_118\n      jump\t// in\n    tag_117:\n        /* \"contracts/Pool.sol\":3636:3687  uint amount0 = lpAmount * s_reserve0 / _totalSupply */\n      swap1\n      pop\n        /* \"contracts/Pool.sol\":3698:3710  uint amount1 */\n      0x00\n        /* \"contracts/Pool.sol\":3737:3749  _totalSupply */\n      dup3\n        /* \"contracts/Pool.sol\":3724:3734  s_reserve0 */\n      sload(0x04)\n        /* \"contracts/Pool.sol\":3713:3721  lpAmount */\n      dup8\n        /* \"contracts/Pool.sol\":3713:3734  lpAmount * s_reserve0 */\n      tag_119\n      swap2\n      swap1\n      tag_116\n      jump\t// in\n    tag_119:\n        /* \"contracts/Pool.sol\":3713:3749  lpAmount * s_reserve0 / _totalSupply */\n      tag_120\n      swap2\n      swap1\n      tag_118\n      jump\t// in\n    tag_120:\n        /* \"contracts/Pool.sol\":3698:3749  uint amount1 = lpAmount * s_reserve0 / _totalSupply */\n      swap1\n      pop\n        /* \"contracts/Pool.sol\":3774:3775  0 */\n      0x00\n        /* \"contracts/Pool.sol\":3763:3770  amount0 */\n      dup3\n        /* \"contracts/Pool.sol\":3763:3775  amount0 == 0 */\n      eq\n        /* \"contracts/Pool.sol\":3763:3791  amount0 == 0 || amount1 == 0 */\n      dup1\n      tag_121\n      jumpi\n      pop\n        /* \"contracts/Pool.sol\":3790:3791  0 */\n      0x00\n        /* \"contracts/Pool.sol\":3779:3786  amount1 */\n      dup2\n        /* \"contracts/Pool.sol\":3779:3791  amount1 == 0 */\n      eq\n        /* \"contracts/Pool.sol\":3763:3791  amount0 == 0 || amount1 == 0 */\n    tag_121:\n        /* \"contracts/Pool.sol\":3760:3821  if(amount0 == 0 || amount1 == 0) revert INSUFFICIENT_AMOUNT() */\n      iszero\n      tag_122\n      jumpi\n        /* \"contracts/Pool.sol\":3800:3821  INSUFFICIENT_AMOUNT() */\n      mload(0x40)\n      0x2cd294cf00000000000000000000000000000000000000000000000000000000\n      dup2\n      mstore\n      0x04\n      add\n      mload(0x40)\n      dup1\n      swap2\n      sub\n      swap1\n      revert\n        /* \"contracts/Pool.sol\":3760:3821  if(amount0 == 0 || amount1 == 0) revert INSUFFICIENT_AMOUNT() */\n    tag_122:\n        /* \"contracts/Pool.sol\":3832:3887  _transfer(s_token0, address(this), msg.sender, amount0) */\n      tag_123\n        /* \"contracts/Pool.sol\":3842:3850  s_token0 */\n      0x02\n      0x00\n      swap1\n      sload\n      swap1\n      0x0100\n      exp\n      swap1\n      div\n      0xffffffffffffffffffffffffffffffffffffffff\n      and\n        /* \"contracts/Pool.sol\":3860:3864  this */\n      address\n        /* \"contracts/Pool.sol\":3867:3877  msg.sender */\n      caller\n        /* \"contracts/Pool.sol\":3879:3886  amount0 */\n      dup6\n        /* \"contracts/Pool.sol\":3832:3841  _transfer */\n      tag_124\n        /* \"contracts/Pool.sol\":3832:3887  _transfer(s_token0, address(this), msg.sender, amount0) */\n      jump\t// in\n    tag_123:\n        /* \"contracts/Pool.sol\":3898:3953  _transfer(s_token1, address(this), msg.sender, amount1) */\n      tag_125\n        /* \"contracts/Pool.sol\":3908:3916  s_token1 */\n      0x03\n      0x00\n      swap1\n      sload\n      swap1\n      0x0100\n      exp\n      swap1\n      div\n      0xffffffffffffffffffffffffffffffffffffffff\n      and\n        /* \"contracts/Pool.sol\":3926:3930  this */\n      address\n        /* \"contracts/Pool.sol\":3933:3943  msg.sender */\n      caller\n        /* \"contracts/Pool.sol\":3945:3952  amount1 */\n      dup5\n        /* \"contracts/Pool.sol\":3898:3907  _transfer */\n      tag_124\n        /* \"contracts/Pool.sol\":3898:3953  _transfer(s_token1, address(this), msg.sender, amount1) */\n      jump\t// in\n    tag_125:\n        /* \"contracts/Pool.sol\":3964:3994  _burn(address(this), lpAmount) */\n      tag_126\n        /* \"contracts/Pool.sol\":3978:3982  this */\n      address\n        /* \"contracts/Pool.sol\":3985:3993  lpAmount */\n      dup8\n        /* \"contracts/Pool.sol\":3964:3969  _burn */\n      tag_127\n        /* \"contracts/Pool.sol\":3964:3994  _burn(address(this), lpAmount) */\n      jump\t// in\n    tag_126:\n        /* \"contracts/Pool.sol\":4019:4026  amount0 */\n      dup2\n        /* \"contracts/Pool.sol\":4005:4015  s_reserve0 */\n      0x04\n      0x00\n        /* \"contracts/Pool.sol\":4005:4026  s_reserve0 -= amount0 */\n      dup3\n      dup3\n      sload\n      tag_128\n      swap2\n      swap1\n      tag_129\n      jump\t// in\n    tag_128:\n      swap3\n      pop\n      pop\n      dup2\n      swap1\n      sstore\n      pop\n        /* \"contracts/Pool.sol\":4051:4058  amount1 */\n      dup1\n        /* \"contracts/Pool.sol\":4037:4047  s_reserve1 */\n      0x05\n      0x00\n        /* \"contracts/Pool.sol\":4037:4058  s_reserve1 -= amount1 */\n      dup3\n      dup3\n      sload\n      tag_130\n      swap2\n      swap1\n      tag_129\n      jump\t// in\n    tag_130:\n      swap3\n      pop\n      pop\n      dup2\n      swap1\n      sstore\n      pop\n        /* \"contracts/Pool.sol\":4077:4084  amount0 */\n      dup2\n        /* \"contracts/Pool.sol\":4086:4093  amount1 */\n      dup2\n        /* \"contracts/Pool.sol\":4069:4094  return (amount0, amount1) */\n      swap5\n      pop\n      swap5\n      pop\n      pop\n      pop\n      pop\n        /* \"contracts/Pool.sol\":3432:4102  function withdraw(uint256 lpAmount) external returns (uint256, uint256){... */\n      swap2\n      pop\n      swap2\n      jump\t// out\n        /* \"https://github.com/Vectorized/solady/blob/e4a14a5b365b353352f7c38e699a2bc9363d6576/src/tokens/ERC20.sol\":5860:5942  function decimals() public view virtual returns (uint8) {... */\n    tag_49:\n        /* \"https://github.com/Vectorized/solady/blob/e4a14a5b365b353352f7c38e699a2bc9363d6576/src/tokens/ERC20.sol\":5909:5914  uint8 */\n      0x00\n        /* \"https://github.com/Vectorized/solady/blob/e4a14a5b365b353352f7c38e699a2bc9363d6576/src/tokens/ERC20.sol\":5933:5935  18 */\n      0x12\n        /* \"https://github.com/Vectorized/solady/blob/e4a14a5b365b353352f7c38e699a2bc9363d6576/src/tokens/ERC20.sol\":5926:5935  return 18 */\n      swap1\n      pop\n        /* \"https://github.com/Vectorized/solady/blob/e4a14a5b365b353352f7c38e699a2bc9363d6576/src/tokens/ERC20.sol\":5860:5942  function decimals() public view virtual returns (uint8) {... */\n      swap1\n      jump\t// out\n        /* \"https://github.com/Vectorized/solady/blob/e4a14a5b365b353352f7c38e699a2bc9363d6576/src/tokens/ERC20.sol\":16620:17313  function DOMAIN_SEPARATOR() public view virtual returns (bytes32 result) {... */\n    tag_53:\n        /* \"https://github.com/Vectorized/solady/blob/e4a14a5b365b353352f7c38e699a2bc9363d6576/src/tokens/ERC20.sol\":16677:16691  bytes32 result */\n      0x00\n        /* \"https://github.com/Vectorized/solady/blob/e4a14a5b365b353352f7c38e699a2bc9363d6576/src/tokens/ERC20.sol\":16703:16719  bytes32 nameHash */\n      dup1\n        /* \"https://github.com/Vectorized/solady/blob/e4a14a5b365b353352f7c38e699a2bc9363d6576/src/tokens/ERC20.sol\":16722:16741  _constantNameHash() */\n      tag_133\n        /* \"https://github.com/Vectorized/solady/blob/e4a14a5b365b353352f7c38e699a2bc9363d6576/src/tokens/ERC20.sol\":16722:16739  _constantNameHash */\n      tag_134\n        /* \"https://github.com/Vectorized/solady/blob/e4a14a5b365b353352f7c38e699a2bc9363d6576/src/tokens/ERC20.sol\":16722:16741  _constantNameHash() */\n      jump\t// in\n    tag_133:\n        /* \"https://github.com/Vectorized/solady/blob/e4a14a5b365b353352f7c38e699a2bc9363d6576/src/tokens/ERC20.sol\":16703:16741  bytes32 nameHash = _constantNameHash() */\n      swap1\n      pop\n        /* \"https://github.com/Vectorized/solady/blob/e4a14a5b365b353352f7c38e699a2bc9363d6576/src/tokens/ERC20.sol\":16869:16870  0 */\n      0x00\n        /* \"https://github.com/Vectorized/solady/blob/e4a14a5b365b353352f7c38e699a2bc9363d6576/src/tokens/ERC20.sol\":16861:16871  bytes32(0) */\n      dup1\n      shl\n        /* \"https://github.com/Vectorized/solady/blob/e4a14a5b365b353352f7c38e699a2bc9363d6576/src/tokens/ERC20.sol\":16849:16857  nameHash */\n      dup2\n        /* \"https://github.com/Vectorized/solady/blob/e4a14a5b365b353352f7c38e699a2bc9363d6576/src/tokens/ERC20.sol\":16849:16871  nameHash == bytes32(0) */\n      sub\n        /* \"https://github.com/Vectorized/solady/blob/e4a14a5b365b353352f7c38e699a2bc9363d6576/src/tokens/ERC20.sol\":16845:16908  if (nameHash == bytes32(0)) nameHash = keccak256(bytes(name())) */\n      tag_135\n      jumpi\n        /* \"https://github.com/Vectorized/solady/blob/e4a14a5b365b353352f7c38e699a2bc9363d6576/src/tokens/ERC20.sol\":16900:16906  name() */\n      tag_136\n        /* \"https://github.com/Vectorized/solady/blob/e4a14a5b365b353352f7c38e699a2bc9363d6576/src/tokens/ERC20.sol\":16900:16904  name */\n      tag_24\n        /* \"https://github.com/Vectorized/solady/blob/e4a14a5b365b353352f7c38e699a2bc9363d6576/src/tokens/ERC20.sol\":16900:16906  name() */\n      jump\t// in\n    tag_136:\n        /* \"https://github.com/Vectorized/solady/blob/e4a14a5b365b353352f7c38e699a2bc9363d6576/src/tokens/ERC20.sol\":16884:16908  keccak256(bytes(name())) */\n      dup1\n      mload\n      swap1\n      0x20\n      add\n      keccak256\n        /* \"https://github.com/Vectorized/solady/blob/e4a14a5b365b353352f7c38e699a2bc9363d6576/src/tokens/ERC20.sol\":16873:16908  nameHash = keccak256(bytes(name())) */\n      swap1\n      pop\n        /* \"https://github.com/Vectorized/solady/blob/e4a14a5b365b353352f7c38e699a2bc9363d6576/src/tokens/ERC20.sol\":16845:16908  if (nameHash == bytes32(0)) nameHash = keccak256(bytes(name())) */\n    tag_135:\n        /* \"https://github.com/Vectorized/solady/blob/e4a14a5b365b353352f7c38e699a2bc9363d6576/src/tokens/ERC20.sol\":16999:17003  0x40 */\n      0x40\n        /* \"https://github.com/Vectorized/solady/blob/e4a14a5b365b353352f7c38e699a2bc9363d6576/src/tokens/ERC20.sol\":16993:17004  mload(0x40) */\n      mload\n        /* \"https://github.com/Vectorized/solady/blob/e4a14a5b365b353352f7c38e699a2bc9363d6576/src/tokens/ERC20.sol\":17060:17076  _DOMAIN_TYPEHASH */\n      0x8b73c3c69bb8fe3d512ecc4cf759cc79239f7b179b0ffacaa9a75d522b39400f\n        /* \"https://github.com/Vectorized/solady/blob/e4a14a5b365b353352f7c38e699a2bc9363d6576/src/tokens/ERC20.sol\":17057:17058  m */\n      dup2\n        /* \"https://github.com/Vectorized/solady/blob/e4a14a5b365b353352f7c38e699a2bc9363d6576/src/tokens/ERC20.sol\":17050:17077  mstore(m, _DOMAIN_TYPEHASH) */\n      mstore\n        /* \"https://github.com/Vectorized/solady/blob/e4a14a5b365b353352f7c38e699a2bc9363d6576/src/tokens/ERC20.sol\":17111:17119  nameHash */\n      dup2\n        /* \"https://github.com/Vectorized/solady/blob/e4a14a5b365b353352f7c38e699a2bc9363d6576/src/tokens/ERC20.sol\":17104:17108  0x20 */\n      0x20\n        /* \"https://github.com/Vectorized/solady/blob/e4a14a5b365b353352f7c38e699a2bc9363d6576/src/tokens/ERC20.sol\":17101:17102  m */\n      dup3\n        /* \"https://github.com/Vectorized/solady/blob/e4a14a5b365b353352f7c38e699a2bc9363d6576/src/tokens/ERC20.sol\":17097:17109  add(m, 0x20) */\n      add\n        /* \"https://github.com/Vectorized/solady/blob/e4a14a5b365b353352f7c38e699a2bc9363d6576/src/tokens/ERC20.sol\":17090:17120  mstore(add(m, 0x20), nameHash) */\n      mstore\n        /* \"https://github.com/Vectorized/solady/blob/e4a14a5b365b353352f7c38e699a2bc9363d6576/src/tokens/ERC20.sol\":17154:17167  _VERSION_HASH */\n      0xc89efdaa54c0f20c7adf612882df0950f5a951637e0307cdcb4c672f298b8bc6\n        /* \"https://github.com/Vectorized/solady/blob/e4a14a5b365b353352f7c38e699a2bc9363d6576/src/tokens/ERC20.sol\":17147:17151  0x40 */\n      0x40\n        /* \"https://github.com/Vectorized/solady/blob/e4a14a5b365b353352f7c38e699a2bc9363d6576/src/tokens/ERC20.sol\":17144:17145  m */\n      dup3\n        /* \"https://github.com/Vectorized/solady/blob/e4a14a5b365b353352f7c38e699a2bc9363d6576/src/tokens/ERC20.sol\":17140:17152  add(m, 0x40) */\n      add\n        /* \"https://github.com/Vectorized/solady/blob/e4a14a5b365b353352f7c38e699a2bc9363d6576/src/tokens/ERC20.sol\":17133:17168  mstore(add(m, 0x40), _VERSION_HASH) */\n      mstore\n        /* \"https://github.com/Vectorized/solady/blob/e4a14a5b365b353352f7c38e699a2bc9363d6576/src/tokens/ERC20.sol\":17202:17211  chainid() */\n      chainid\n        /* \"https://github.com/Vectorized/solady/blob/e4a14a5b365b353352f7c38e699a2bc9363d6576/src/tokens/ERC20.sol\":17195:17199  0x60 */\n      0x60\n        /* \"https://github.com/Vectorized/solady/blob/e4a14a5b365b353352f7c38e699a2bc9363d6576/src/tokens/ERC20.sol\":17192:17193  m */\n      dup3\n        /* \"https://github.com/Vectorized/solady/blob/e4a14a5b365b353352f7c38e699a2bc9363d6576/src/tokens/ERC20.sol\":17188:17200  add(m, 0x60) */\n      add\n        /* \"https://github.com/Vectorized/solady/blob/e4a14a5b365b353352f7c38e699a2bc9363d6576/src/tokens/ERC20.sol\":17181:17212  mstore(add(m, 0x60), chainid()) */\n      mstore\n        /* \"https://github.com/Vectorized/solady/blob/e4a14a5b365b353352f7c38e699a2bc9363d6576/src/tokens/ERC20.sol\":17246:17255  address() */\n      address\n        /* \"https://github.com/Vectorized/solady/blob/e4a14a5b365b353352f7c38e699a2bc9363d6576/src/tokens/ERC20.sol\":17239:17243  0x80 */\n      0x80\n        /* \"https://github.com/Vectorized/solady/blob/e4a14a5b365b353352f7c38e699a2bc9363d6576/src/tokens/ERC20.sol\":17236:17237  m */\n      dup3\n        /* \"https://github.com/Vectorized/solady/blob/e4a14a5b365b353352f7c38e699a2bc9363d6576/src/tokens/ERC20.sol\":17232:17244  add(m, 0x80) */\n      add\n        /* \"https://github.com/Vectorized/solady/blob/e4a14a5b365b353352f7c38e699a2bc9363d6576/src/tokens/ERC20.sol\":17225:17256  mstore(add(m, 0x80), address()) */\n      mstore\n        /* \"https://github.com/Vectorized/solady/blob/e4a14a5b365b353352f7c38e699a2bc9363d6576/src/tokens/ERC20.sol\":17292:17296  0xa0 */\n      0xa0\n        /* \"https://github.com/Vectorized/solady/blob/e4a14a5b365b353352f7c38e699a2bc9363d6576/src/tokens/ERC20.sol\":17289:17290  m */\n      dup2\n        /* \"https://github.com/Vectorized/solady/blob/e4a14a5b365b353352f7c38e699a2bc9363d6576/src/tokens/ERC20.sol\":17279:17297  keccak256(m, 0xa0) */\n      keccak256\n        /* \"https://github.com/Vectorized/solady/blob/e4a14a5b365b353352f7c38e699a2bc9363d6576/src/tokens/ERC20.sol\":17269:17297  result := keccak256(m, 0xa0) */\n      swap3\n      pop\n        /* \"https://github.com/Vectorized/solady/blob/e4a14a5b365b353352f7c38e699a2bc9363d6576/src/tokens/ERC20.sol\":16970:17307  {... */\n      pop\n      pop\n        /* \"https://github.com/Vectorized/solady/blob/e4a14a5b365b353352f7c38e699a2bc9363d6576/src/tokens/ERC20.sol\":16620:17313  function DOMAIN_SEPARATOR() public view virtual returns (bytes32 result) {... */\n      swap1\n      jump\t// out\n        /* \"https://github.com/Vectorized/solady/blob/e4a14a5b365b353352f7c38e699a2bc9363d6576/src/tokens/ERC20.sol\":6548:6834  function balanceOf(address owner) public view virtual returns (uint256 result) {... */\n    tag_59:\n        /* \"https://github.com/Vectorized/solady/blob/e4a14a5b365b353352f7c38e699a2bc9363d6576/src/tokens/ERC20.sol\":6611:6625  uint256 result */\n      0x00\n        /* \"https://github.com/Vectorized/solady/blob/e4a14a5b365b353352f7c38e699a2bc9363d6576/src/tokens/ERC20.sol\":6716:6734  _BALANCE_SLOT_SEED */\n      0x87a211a2\n        /* \"https://github.com/Vectorized/solady/blob/e4a14a5b365b353352f7c38e699a2bc9363d6576/src/tokens/ERC20.sol\":6710:6714  0x0c */\n      0x0c\n        /* \"https://github.com/Vectorized/solady/blob/e4a14a5b365b353352f7c38e699a2bc9363d6576/src/tokens/ERC20.sol\":6703:6735  mstore(0x0c, _BALANCE_SLOT_SEED) */\n      mstore\n        /* \"https://github.com/Vectorized/solady/blob/e4a14a5b365b353352f7c38e699a2bc9363d6576/src/tokens/ERC20.sol\":6761:6766  owner */\n      dup2\n        /* \"https://github.com/Vectorized/solady/blob/e4a14a5b365b353352f7c38e699a2bc9363d6576/src/tokens/ERC20.sol\":6755:6759  0x00 */\n      0x00\n        /* \"https://github.com/Vectorized/solady/blob/e4a14a5b365b353352f7c38e699a2bc9363d6576/src/tokens/ERC20.sol\":6748:6767  mstore(0x00, owner) */\n      mstore\n        /* \"https://github.com/Vectorized/solady/blob/e4a14a5b365b353352f7c38e699a2bc9363d6576/src/tokens/ERC20.sol\":6812:6816  0x20 */\n      0x20\n        /* \"https://github.com/Vectorized/solady/blob/e4a14a5b365b353352f7c38e699a2bc9363d6576/src/tokens/ERC20.sol\":6806:6810  0x0c */\n      0x0c\n        /* \"https://github.com/Vectorized/solady/blob/e4a14a5b365b353352f7c38e699a2bc9363d6576/src/tokens/ERC20.sol\":6796:6817  keccak256(0x0c, 0x20) */\n      keccak256\n        /* \"https://github.com/Vectorized/solady/blob/e4a14a5b365b353352f7c38e699a2bc9363d6576/src/tokens/ERC20.sol\":6790:6818  sload(keccak256(0x0c, 0x20)) */\n      sload\n        /* \"https://github.com/Vectorized/solady/blob/e4a14a5b365b353352f7c38e699a2bc9363d6576/src/tokens/ERC20.sol\":6780:6818  result := sload(keccak256(0x0c, 0x20)) */\n      swap1\n      pop\n        /* \"https://github.com/Vectorized/solady/blob/e4a14a5b365b353352f7c38e699a2bc9363d6576/src/tokens/ERC20.sol\":6548:6834  function balanceOf(address owner) public view virtual returns (uint256 result) {... */\n      swap2\n      swap1\n      pop\n      jump\t// out\n        /* \"https://github.com/Vectorized/solady/blob/e4a14a5b365b353352f7c38e699a2bc9363d6576/src/tokens/ERC20.sol\":12800:13140  function nonces(address owner) public view virtual returns (uint256 result) {... */\n    tag_63:\n        /* \"https://github.com/Vectorized/solady/blob/e4a14a5b365b353352f7c38e699a2bc9363d6576/src/tokens/ERC20.sol\":12860:12874  uint256 result */\n      0x00\n        /* \"https://github.com/Vectorized/solady/blob/e4a14a5b365b353352f7c38e699a2bc9363d6576/src/tokens/ERC20.sol\":13023:13040  _NONCES_SLOT_SEED */\n      0x38377508\n        /* \"https://github.com/Vectorized/solady/blob/e4a14a5b365b353352f7c38e699a2bc9363d6576/src/tokens/ERC20.sol\":13017:13021  0x0c */\n      0x0c\n        /* \"https://github.com/Vectorized/solady/blob/e4a14a5b365b353352f7c38e699a2bc9363d6576/src/tokens/ERC20.sol\":13010:13041  mstore(0x0c, _NONCES_SLOT_SEED) */\n      mstore\n        /* \"https://github.com/Vectorized/solady/blob/e4a14a5b365b353352f7c38e699a2bc9363d6576/src/tokens/ERC20.sol\":13067:13072  owner */\n      dup2\n        /* \"https://github.com/Vectorized/solady/blob/e4a14a5b365b353352f7c38e699a2bc9363d6576/src/tokens/ERC20.sol\":13061:13065  0x00 */\n      0x00\n        /* \"https://github.com/Vectorized/solady/blob/e4a14a5b365b353352f7c38e699a2bc9363d6576/src/tokens/ERC20.sol\":13054:13073  mstore(0x00, owner) */\n      mstore\n        /* \"https://github.com/Vectorized/solady/blob/e4a14a5b365b353352f7c38e699a2bc9363d6576/src/tokens/ERC20.sol\":13118:13122  0x20 */\n      0x20\n        /* \"https://github.com/Vectorized/solady/blob/e4a14a5b365b353352f7c38e699a2bc9363d6576/src/tokens/ERC20.sol\":13112:13116  0x0c */\n      0x0c\n        /* \"https://github.com/Vectorized/solady/blob/e4a14a5b365b353352f7c38e699a2bc9363d6576/src/tokens/ERC20.sol\":13102:13123  keccak256(0x0c, 0x20) */\n      keccak256\n        /* \"https://github.com/Vectorized/solady/blob/e4a14a5b365b353352f7c38e699a2bc9363d6576/src/tokens/ERC20.sol\":13096:13124  sload(keccak256(0x0c, 0x20)) */\n      sload\n        /* \"https://github.com/Vectorized/solady/blob/e4a14a5b365b353352f7c38e699a2bc9363d6576/src/tokens/ERC20.sol\":13086:13124  result := sload(keccak256(0x0c, 0x20)) */\n      swap1\n      pop\n        /* \"https://github.com/Vectorized/solady/blob/e4a14a5b365b353352f7c38e699a2bc9363d6576/src/tokens/ERC20.sol\":12800:13140  function nonces(address owner) public view virtual returns (uint256 result) {... */\n      swap2\n      swap1\n      pop\n      jump\t// out\n        /* \"contracts/Pool.sol\":4108:4307  function quote(address token, uint256 amount) public view checkTokenInside(token) returns(uint256){... */\n    tag_67:\n        /* \"contracts/Pool.sol\":4198:4205  uint256 */\n      0x00\n        /* \"contracts/Pool.sol\":4183:4188  token */\n      dup3\n        /* \"contracts/Pool.sol\":1927:1935  s_token0 */\n      0x02\n      0x00\n      swap1\n      sload\n      swap1\n      0x0100\n      exp\n      swap1\n      div\n      0xffffffffffffffffffffffffffffffffffffffff\n      and\n        /* \"contracts/Pool.sol\":1918:1935  token != s_token0 */\n      0xffffffffffffffffffffffffffffffffffffffff\n      and\n        /* \"contracts/Pool.sol\":1918:1923  token */\n      dup2\n        /* \"contracts/Pool.sol\":1918:1935  token != s_token0 */\n      0xffffffffffffffffffffffffffffffffffffffff\n      and\n      eq\n      iszero\n        /* \"contracts/Pool.sol\":1918:1956  token != s_token0 && token != s_token1 */\n      dup1\n      iszero\n      tag_140\n      jumpi\n      pop\n        /* \"contracts/Pool.sol\":1948:1956  s_token1 */\n      0x03\n      0x00\n      swap1\n      sload\n      swap1\n      0x0100\n      exp\n      swap1\n      div\n      0xffffffffffffffffffffffffffffffffffffffff\n      and\n        /* \"contracts/Pool.sol\":1939:1956  token != s_token1 */\n      0xffffffffffffffffffffffffffffffffffffffff\n      and\n        /* \"contracts/Pool.sol\":1939:1944  token */\n      dup2\n        /* \"contracts/Pool.sol\":1939:1956  token != s_token1 */\n      0xffffffffffffffffffffffffffffffffffffffff\n      and\n      eq\n      iszero\n        /* \"contracts/Pool.sol\":1918:1956  token != s_token0 && token != s_token1 */\n    tag_140:\n        /* \"contracts/Pool.sol\":1915:1988  if(token != s_token0 && token != s_token1) revert TOKEN_NOT_INSIDE_POOL() */\n      iszero\n      tag_141\n      jumpi\n        /* \"contracts/Pool.sol\":1965:1988  TOKEN_NOT_INSIDE_POOL() */\n      mload(0x40)\n      0x82bce52600000000000000000000000000000000000000000000000000000000\n      dup2\n      mstore\n      0x04\n      add\n      mload(0x40)\n      dup1\n      swap2\n      sub\n      swap1\n      revert\n        /* \"contracts/Pool.sol\":1915:1988  if(token != s_token0 && token != s_token1) revert TOKEN_NOT_INSIDE_POOL() */\n    tag_141:\n        /* \"contracts/Pool.sol\":4230:4231  0 */\n      0x00\n        /* \"contracts/Pool.sol\":4220:4226  amount */\n      dup4\n        /* \"contracts/Pool.sol\":4220:4231  amount == 0 */\n      sub\n        /* \"contracts/Pool.sol\":4217:4260  if(amount == 0) revert AMOUNT_EQUALS_ZERO() */\n      tag_143\n      jumpi\n        /* \"contracts/Pool.sol\":4240:4260  AMOUNT_EQUALS_ZERO() */\n      mload(0x40)\n      0x8966f48700000000000000000000000000000000000000000000000000000000\n      dup2\n      mstore\n      0x04\n      add\n      mload(0x40)\n      dup1\n      swap2\n      sub\n      swap1\n      revert\n        /* \"contracts/Pool.sol\":4217:4260  if(amount == 0) revert AMOUNT_EQUALS_ZERO() */\n    tag_143:\n        /* \"contracts/Pool.sol\":4278:4299  _quote(token, amount) */\n      tag_144\n        /* \"contracts/Pool.sol\":4285:4290  token */\n      dup5\n        /* \"contracts/Pool.sol\":4292:4298  amount */\n      dup5\n        /* \"contracts/Pool.sol\":4278:4284  _quote */\n      tag_145\n        /* \"contracts/Pool.sol\":4278:4299  _quote(token, amount) */\n      jump\t// in\n    tag_144:\n        /* \"contracts/Pool.sol\":4271:4299  return _quote(token, amount) */\n      swap2\n      pop\n        /* \"contracts/Pool.sol\":4108:4307  function quote(address token, uint256 amount) public view checkTokenInside(token) returns(uint256){... */\n      pop\n      swap3\n      swap2\n      pop\n      pop\n      jump\t// out\n        /* \"contracts/LP.sol\":611:705  function symbol() public view override returns(string memory) {... */\n    tag_70:\n        /* \"contracts/LP.sol\":658:671  string memory */\n      0x60\n        /* \"contracts/LP.sol\":691:697  s_name */\n      0x00\n        /* \"contracts/LP.sol\":684:697  return s_name */\n      dup1\n      sload\n      tag_147\n      swap1\n      tag_148\n      jump\t// in\n    tag_147:\n      dup1\n      0x1f\n      add\n      0x20\n      dup1\n      swap2\n      div\n      mul\n      0x20\n      add\n      mload(0x40)\n      swap1\n      dup2\n      add\n      0x40\n      mstore\n      dup1\n      swap3\n      swap2\n      swap1\n      dup2\n      dup2\n      mstore\n      0x20\n      add\n      dup3\n      dup1\n      sload\n      tag_149\n      swap1\n      tag_148\n      jump\t// in\n    tag_149:\n      dup1\n      iszero\n      tag_150\n      jumpi\n      dup1\n      0x1f\n      lt\n      tag_151\n      jumpi\n      0x0100\n      dup1\n      dup4\n      sload\n      div\n      mul\n      dup4\n      mstore\n      swap2\n      0x20\n      add\n      swap2\n      jump(tag_150)\n    tag_151:\n      dup3\n      add\n      swap2\n      swap1\n      0x00\n      mstore\n      keccak256(0x00, 0x20)\n      swap1\n    tag_152:\n      dup2\n      sload\n      dup2\n      mstore\n      swap1\n      0x01\n      add\n      swap1\n      0x20\n      add\n      dup1\n      dup4\n      gt\n      tag_152\n      jumpi\n      dup3\n      swap1\n      sub\n      0x1f\n      and\n      dup3\n      add\n      swap2\n    tag_150:\n      pop\n      pop\n      pop\n      pop\n      pop\n      swap1\n      pop\n        /* \"contracts/LP.sol\":611:705  function symbol() public view override returns(string memory) {... */\n      swap1\n      jump\t// out\n        /* \"https://github.com/Vectorized/solady/blob/e4a14a5b365b353352f7c38e699a2bc9363d6576/src/tokens/ERC20.sol\":8195:9601  function transfer(address to, uint256 amount) public virtual returns (bool) {... */\n    tag_74:\n        /* \"https://github.com/Vectorized/solady/blob/e4a14a5b365b353352f7c38e699a2bc9363d6576/src/tokens/ERC20.sol\":8265:8269  bool */\n      0x00\n        /* \"https://github.com/Vectorized/solady/blob/e4a14a5b365b353352f7c38e699a2bc9363d6576/src/tokens/ERC20.sol\":8281:8325  _beforeTokenTransfer(msg.sender, to, amount) */\n      tag_154\n        /* \"https://github.com/Vectorized/solady/blob/e4a14a5b365b353352f7c38e699a2bc9363d6576/src/tokens/ERC20.sol\":8302:8312  msg.sender */\n      caller\n        /* \"https://github.com/Vectorized/solady/blob/e4a14a5b365b353352f7c38e699a2bc9363d6576/src/tokens/ERC20.sol\":8314:8316  to */\n      dup5\n        /* \"https://github.com/Vectorized/solady/blob/e4a14a5b365b353352f7c38e699a2bc9363d6576/src/tokens/ERC20.sol\":8318:8324  amount */\n      dup5\n        /* \"https://github.com/Vectorized/solady/blob/e4a14a5b365b353352f7c38e699a2bc9363d6576/src/tokens/ERC20.sol\":8281:8301  _beforeTokenTransfer */\n      tag_105\n        /* \"https://github.com/Vectorized/solady/blob/e4a14a5b365b353352f7c38e699a2bc9363d6576/src/tokens/ERC20.sol\":8281:8325  _beforeTokenTransfer(msg.sender, to, amount) */\n      jump\t// in\n    tag_154:\n        /* \"https://github.com/Vectorized/solady/blob/e4a14a5b365b353352f7c38e699a2bc9363d6576/src/tokens/ERC20.sol\":8474:8492  _BALANCE_SLOT_SEED */\n      0x87a211a2\n        /* \"https://github.com/Vectorized/solady/blob/e4a14a5b365b353352f7c38e699a2bc9363d6576/src/tokens/ERC20.sol\":8468:8472  0x0c */\n      0x0c\n        /* \"https://github.com/Vectorized/solady/blob/e4a14a5b365b353352f7c38e699a2bc9363d6576/src/tokens/ERC20.sol\":8461:8493  mstore(0x0c, _BALANCE_SLOT_SEED) */\n      mstore\n        /* \"https://github.com/Vectorized/solady/blob/e4a14a5b365b353352f7c38e699a2bc9363d6576/src/tokens/ERC20.sol\":8519:8527  caller() */\n      caller\n        /* \"https://github.com/Vectorized/solady/blob/e4a14a5b365b353352f7c38e699a2bc9363d6576/src/tokens/ERC20.sol\":8513:8517  0x00 */\n      0x00\n        /* \"https://github.com/Vectorized/solady/blob/e4a14a5b365b353352f7c38e699a2bc9363d6576/src/tokens/ERC20.sol\":8506:8528  mstore(0x00, caller()) */\n      mstore\n        /* \"https://github.com/Vectorized/solady/blob/e4a14a5b365b353352f7c38e699a2bc9363d6576/src/tokens/ERC20.sol\":8580:8584  0x20 */\n      0x20\n        /* \"https://github.com/Vectorized/solady/blob/e4a14a5b365b353352f7c38e699a2bc9363d6576/src/tokens/ERC20.sol\":8574:8578  0x0c */\n      0x0c\n        /* \"https://github.com/Vectorized/solady/blob/e4a14a5b365b353352f7c38e699a2bc9363d6576/src/tokens/ERC20.sol\":8564:8585  keccak256(0x0c, 0x20) */\n      keccak256\n        /* \"https://github.com/Vectorized/solady/blob/e4a14a5b365b353352f7c38e699a2bc9363d6576/src/tokens/ERC20.sol\":8623:8638  fromBalanceSlot */\n      dup1\n        /* \"https://github.com/Vectorized/solady/blob/e4a14a5b365b353352f7c38e699a2bc9363d6576/src/tokens/ERC20.sol\":8617:8639  sload(fromBalanceSlot) */\n      sload\n        /* \"https://github.com/Vectorized/solady/blob/e4a14a5b365b353352f7c38e699a2bc9363d6576/src/tokens/ERC20.sol\":8713:8724  fromBalance */\n      dup1\n        /* \"https://github.com/Vectorized/solady/blob/e4a14a5b365b353352f7c38e699a2bc9363d6576/src/tokens/ERC20.sol\":8705:8711  amount */\n      dup5\n        /* \"https://github.com/Vectorized/solady/blob/e4a14a5b365b353352f7c38e699a2bc9363d6576/src/tokens/ERC20.sol\":8702:8725  gt(amount, fromBalance) */\n      gt\n        /* \"https://github.com/Vectorized/solady/blob/e4a14a5b365b353352f7c38e699a2bc9363d6576/src/tokens/ERC20.sol\":8699:8845  if gt(amount, fromBalance) {... */\n      iszero\n      tag_155\n      jumpi\n        /* \"https://github.com/Vectorized/solady/blob/e4a14a5b365b353352f7c38e699a2bc9363d6576/src/tokens/ERC20.sol\":8757:8767  0xf4d678b8 */\n      0xf4d678b8\n        /* \"https://github.com/Vectorized/solady/blob/e4a14a5b365b353352f7c38e699a2bc9363d6576/src/tokens/ERC20.sol\":8751:8755  0x00 */\n      0x00\n        /* \"https://github.com/Vectorized/solady/blob/e4a14a5b365b353352f7c38e699a2bc9363d6576/src/tokens/ERC20.sol\":8744:8768  mstore(0x00, 0xf4d678b8) */\n      mstore\n        /* \"https://github.com/Vectorized/solady/blob/e4a14a5b365b353352f7c38e699a2bc9363d6576/src/tokens/ERC20.sol\":8826:8830  0x04 */\n      0x04\n        /* \"https://github.com/Vectorized/solady/blob/e4a14a5b365b353352f7c38e699a2bc9363d6576/src/tokens/ERC20.sol\":8820:8824  0x1c */\n      0x1c\n        /* \"https://github.com/Vectorized/solady/blob/e4a14a5b365b353352f7c38e699a2bc9363d6576/src/tokens/ERC20.sol\":8813:8831  revert(0x1c, 0x04) */\n      revert\n        /* \"https://github.com/Vectorized/solady/blob/e4a14a5b365b353352f7c38e699a2bc9363d6576/src/tokens/ERC20.sol\":8699:8845  if gt(amount, fromBalance) {... */\n    tag_155:\n        /* \"https://github.com/Vectorized/solady/blob/e4a14a5b365b353352f7c38e699a2bc9363d6576/src/tokens/ERC20.sol\":8954:8960  amount */\n      dup4\n        /* \"https://github.com/Vectorized/solady/blob/e4a14a5b365b353352f7c38e699a2bc9363d6576/src/tokens/ERC20.sol\":8941:8952  fromBalance */\n      dup2\n        /* \"https://github.com/Vectorized/solady/blob/e4a14a5b365b353352f7c38e699a2bc9363d6576/src/tokens/ERC20.sol\":8937:8961  sub(fromBalance, amount) */\n      sub\n        /* \"https://github.com/Vectorized/solady/blob/e4a14a5b365b353352f7c38e699a2bc9363d6576/src/tokens/ERC20.sol\":8920:8935  fromBalanceSlot */\n      dup3\n        /* \"https://github.com/Vectorized/solady/blob/e4a14a5b365b353352f7c38e699a2bc9363d6576/src/tokens/ERC20.sol\":8913:8962  sstore(fromBalanceSlot, sub(fromBalance, amount)) */\n      sstore\n        /* \"https://github.com/Vectorized/solady/blob/e4a14a5b365b353352f7c38e699a2bc9363d6576/src/tokens/ERC20.sol\":9037:9039  to */\n      dup5\n        /* \"https://github.com/Vectorized/solady/blob/e4a14a5b365b353352f7c38e699a2bc9363d6576/src/tokens/ERC20.sol\":9031:9035  0x00 */\n      0x00\n        /* \"https://github.com/Vectorized/solady/blob/e4a14a5b365b353352f7c38e699a2bc9363d6576/src/tokens/ERC20.sol\":9024:9040  mstore(0x00, to) */\n      mstore\n        /* \"https://github.com/Vectorized/solady/blob/e4a14a5b365b353352f7c38e699a2bc9363d6576/src/tokens/ERC20.sol\":9090:9094  0x20 */\n      0x20\n        /* \"https://github.com/Vectorized/solady/blob/e4a14a5b365b353352f7c38e699a2bc9363d6576/src/tokens/ERC20.sol\":9084:9088  0x0c */\n      0x0c\n        /* \"https://github.com/Vectorized/solady/blob/e4a14a5b365b353352f7c38e699a2bc9363d6576/src/tokens/ERC20.sol\":9074:9095  keccak256(0x0c, 0x20) */\n      keccak256\n        /* \"https://github.com/Vectorized/solady/blob/e4a14a5b365b353352f7c38e699a2bc9363d6576/src/tokens/ERC20.sol\":9340:9346  amount */\n      dup5\n        /* \"https://github.com/Vectorized/solady/blob/e4a14a5b365b353352f7c38e699a2bc9363d6576/src/tokens/ERC20.sol\":9324:9337  toBalanceSlot */\n      dup2\n        /* \"https://github.com/Vectorized/solady/blob/e4a14a5b365b353352f7c38e699a2bc9363d6576/src/tokens/ERC20.sol\":9318:9338  sload(toBalanceSlot) */\n      sload\n        /* \"https://github.com/Vectorized/solady/blob/e4a14a5b365b353352f7c38e699a2bc9363d6576/src/tokens/ERC20.sol\":9314:9347  add(sload(toBalanceSlot), amount) */\n      add\n        /* \"https://github.com/Vectorized/solady/blob/e4a14a5b365b353352f7c38e699a2bc9363d6576/src/tokens/ERC20.sol\":9299:9312  toBalanceSlot */\n      dup2\n        /* \"https://github.com/Vectorized/solady/blob/e4a14a5b365b353352f7c38e699a2bc9363d6576/src/tokens/ERC20.sol\":9292:9348  sstore(toBalanceSlot, add(sload(toBalanceSlot), amount)) */\n      sstore\n        /* \"https://github.com/Vectorized/solady/blob/e4a14a5b365b353352f7c38e699a2bc9363d6576/src/tokens/ERC20.sol\":9416:9422  amount */\n      dup5\n        /* \"https://github.com/Vectorized/solady/blob/e4a14a5b365b353352f7c38e699a2bc9363d6576/src/tokens/ERC20.sol\":9410:9414  0x20 */\n      0x20\n        /* \"https://github.com/Vectorized/solady/blob/e4a14a5b365b353352f7c38e699a2bc9363d6576/src/tokens/ERC20.sol\":9403:9423  mstore(0x20, amount) */\n      mstore\n        /* \"https://github.com/Vectorized/solady/blob/e4a14a5b365b353352f7c38e699a2bc9363d6576/src/tokens/ERC20.sol\":9504:9508  0x0c */\n      0x0c\n        /* \"https://github.com/Vectorized/solady/blob/e4a14a5b365b353352f7c38e699a2bc9363d6576/src/tokens/ERC20.sol\":9498:9509  mload(0x0c) */\n      mload\n        /* \"https://github.com/Vectorized/solady/blob/e4a14a5b365b353352f7c38e699a2bc9363d6576/src/tokens/ERC20.sol\":9494:9496  96 */\n      0x60\n        /* \"https://github.com/Vectorized/solady/blob/e4a14a5b365b353352f7c38e699a2bc9363d6576/src/tokens/ERC20.sol\":9490:9510  shr(96, mload(0x0c)) */\n      shr\n        /* \"https://github.com/Vectorized/solady/blob/e4a14a5b365b353352f7c38e699a2bc9363d6576/src/tokens/ERC20.sol\":9480:9488  caller() */\n      caller\n        /* \"https://github.com/Vectorized/solady/blob/e4a14a5b365b353352f7c38e699a2bc9363d6576/src/tokens/ERC20.sol\":9453:9478  _TRANSFER_EVENT_SIGNATURE */\n      0xddf252ad1be2c89b69c2b068fc378daa952ba7f163c4a11628f55a4df523b3ef\n        /* \"https://github.com/Vectorized/solady/blob/e4a14a5b365b353352f7c38e699a2bc9363d6576/src/tokens/ERC20.sol\":9447:9451  0x20 */\n      0x20\n        /* \"https://github.com/Vectorized/solady/blob/e4a14a5b365b353352f7c38e699a2bc9363d6576/src/tokens/ERC20.sol\":9441:9445  0x20 */\n      dup1\n        /* \"https://github.com/Vectorized/solady/blob/e4a14a5b365b353352f7c38e699a2bc9363d6576/src/tokens/ERC20.sol\":9436:9511  log3(0x20, 0x20, _TRANSFER_EVENT_SIGNATURE, caller(), shr(96, mload(0x0c))) */\n      log3\n        /* \"https://github.com/Vectorized/solady/blob/e4a14a5b365b353352f7c38e699a2bc9363d6576/src/tokens/ERC20.sol\":8387:9521  {... */\n      pop\n      pop\n      pop\n        /* \"https://github.com/Vectorized/solady/blob/e4a14a5b365b353352f7c38e699a2bc9363d6576/src/tokens/ERC20.sol\":9530:9573  _afterTokenTransfer(msg.sender, to, amount) */\n      tag_156\n        /* \"https://github.com/Vectorized/solady/blob/e4a14a5b365b353352f7c38e699a2bc9363d6576/src/tokens/ERC20.sol\":9550:9560  msg.sender */\n      caller\n        /* \"https://github.com/Vectorized/solady/blob/e4a14a5b365b353352f7c38e699a2bc9363d6576/src/tokens/ERC20.sol\":9562:9564  to */\n      dup5\n        /* \"https://github.com/Vectorized/solady/blob/e4a14a5b365b353352f7c38e699a2bc9363d6576/src/tokens/ERC20.sol\":9566:9572  amount */\n      dup5\n        /* \"https://github.com/Vectorized/solady/blob/e4a14a5b365b353352f7c38e699a2bc9363d6576/src/tokens/ERC20.sol\":9530:9549  _afterTokenTransfer */\n      tag_110\n        /* \"https://github.com/Vectorized/solady/blob/e4a14a5b365b353352f7c38e699a2bc9363d6576/src/tokens/ERC20.sol\":9530:9573  _afterTokenTransfer(msg.sender, to, amount) */\n      jump\t// in\n    tag_156:\n        /* \"https://github.com/Vectorized/solady/blob/e4a14a5b365b353352f7c38e699a2bc9363d6576/src/tokens/ERC20.sol\":9590:9594  true */\n      0x01\n        /* \"https://github.com/Vectorized/solady/blob/e4a14a5b365b353352f7c38e699a2bc9363d6576/src/tokens/ERC20.sol\":9583:9594  return true */\n      swap1\n      pop\n        /* \"https://github.com/Vectorized/solady/blob/e4a14a5b365b353352f7c38e699a2bc9363d6576/src/tokens/ERC20.sol\":8195:9601  function transfer(address to, uint256 amount) public virtual returns (bool) {... */\n      swap3\n      swap2\n      pop\n      pop\n      jump\t// out\n        /* \"contracts/Pool.sol\":1252:1274  address public factory */\n    tag_77:\n      0x01\n      0x00\n      swap1\n      sload\n      swap1\n      0x0100\n      exp\n      swap1\n      div\n      0xffffffffffffffffffffffffffffffffffffffff\n      and\n      dup2\n      jump\t// out\n        /* \"contracts/Pool.sol\":2016:2926  function swap(address token, uint256 amount) external checkTokenInside(token) returns(uint256) {... */\n    tag_82:\n        /* \"contracts/Pool.sol\":2102:2109  uint256 */\n      0x00\n        /* \"contracts/Pool.sol\":2087:2092  token */\n      dup3\n        /* \"contracts/Pool.sol\":1927:1935  s_token0 */\n      0x02\n      0x00\n      swap1\n      sload\n      swap1\n      0x0100\n      exp\n      swap1\n      div\n      0xffffffffffffffffffffffffffffffffffffffff\n      and\n        /* \"contracts/Pool.sol\":1918:1935  token != s_token0 */\n      0xffffffffffffffffffffffffffffffffffffffff\n      and\n        /* \"contracts/Pool.sol\":1918:1923  token */\n      dup2\n        /* \"contracts/Pool.sol\":1918:1935  token != s_token0 */\n      0xffffffffffffffffffffffffffffffffffffffff\n      and\n      eq\n      iszero\n        /* \"contracts/Pool.sol\":1918:1956  token != s_token0 && token != s_token1 */\n      dup1\n      iszero\n      tag_158\n      jumpi\n      pop\n        /* \"contracts/Pool.sol\":1948:1956  s_token1 */\n      0x03\n      0x00\n      swap1\n      sload\n      swap1\n      0x0100\n      exp\n      swap1\n      div\n      0xffffffffffffffffffffffffffffffffffffffff\n      and\n        /* \"contracts/Pool.sol\":1939:1956  token != s_token1 */\n      0xffffffffffffffffffffffffffffffffffffffff\n      and\n        /* \"contracts/Pool.sol\":1939:1944  token */\n      dup2\n        /* \"contracts/Pool.sol\":1939:1956  token != s_token1 */\n      0xffffffffffffffffffffffffffffffffffffffff\n      and\n      eq\n      iszero\n        /* \"contracts/Pool.sol\":1918:1956  token != s_token0 && token != s_token1 */\n    tag_158:\n        /* \"contracts/Pool.sol\":1915:1988  if(token != s_token0 && token != s_token1) revert TOKEN_NOT_INSIDE_POOL() */\n      iszero\n      tag_159\n      jumpi\n        /* \"contracts/Pool.sol\":1965:1988  TOKEN_NOT_INSIDE_POOL() */\n      mload(0x40)\n      0x82bce52600000000000000000000000000000000000000000000000000000000\n      dup2\n      mstore\n      0x04\n      add\n      mload(0x40)\n      dup1\n      swap2\n      sub\n      swap1\n      revert\n        /* \"contracts/Pool.sol\":1915:1988  if(token != s_token0 && token != s_token1) revert TOKEN_NOT_INSIDE_POOL() */\n    tag_159:\n        /* \"contracts/Pool.sol\":2122:2136  address token0 */\n      0x00\n        /* \"contracts/Pool.sol\":2139:2147  s_token0 */\n      0x02\n      0x00\n      swap1\n      sload\n      swap1\n      0x0100\n      exp\n      swap1\n      div\n      0xffffffffffffffffffffffffffffffffffffffff\n      and\n        /* \"contracts/Pool.sol\":2122:2147  address token0 = s_token0 */\n      swap1\n      pop\n        /* \"contracts/Pool.sol\":2158:2172  address token1 */\n      0x00\n        /* \"contracts/Pool.sol\":2175:2183  s_token1 */\n      0x03\n      0x00\n      swap1\n      sload\n      swap1\n      0x0100\n      exp\n      swap1\n      div\n      0xffffffffffffffffffffffffffffffffffffffff\n      and\n        /* \"contracts/Pool.sol\":2158:2183  address token1 = s_token1 */\n      swap1\n      pop\n        /* \"contracts/Pool.sol\":2207:2208  0 */\n      0x00\n        /* \"contracts/Pool.sol\":2197:2203  amount */\n      dup6\n        /* \"contracts/Pool.sol\":2197:2208  amount == 0 */\n      sub\n        /* \"contracts/Pool.sol\":2194:2237  if(amount == 0) revert AMOUNT_EQUALS_ZERO() */\n      tag_161\n      jumpi\n        /* \"contracts/Pool.sol\":2217:2237  AMOUNT_EQUALS_ZERO() */\n      mload(0x40)\n      0x8966f48700000000000000000000000000000000000000000000000000000000\n      dup2\n      mstore\n      0x04\n      add\n      mload(0x40)\n      dup1\n      swap2\n      sub\n      swap1\n      revert\n        /* \"contracts/Pool.sol\":2194:2237  if(amount == 0) revert AMOUNT_EQUALS_ZERO() */\n    tag_161:\n        /* \"contracts/Pool.sol\":2264:2281  uint256 amountOut */\n      0x00\n        /* \"contracts/Pool.sol\":2284:2305  _quote(token, amount) */\n      tag_162\n        /* \"contracts/Pool.sol\":2291:2296  token */\n      dup8\n        /* \"contracts/Pool.sol\":2298:2304  amount */\n      dup8\n        /* \"contracts/Pool.sol\":2284:2290  _quote */\n      tag_145\n        /* \"contracts/Pool.sol\":2284:2305  _quote(token, amount) */\n      jump\t// in\n    tag_162:\n        /* \"contracts/Pool.sol\":2264:2305  uint256 amountOut = _quote(token, amount) */\n      swap1\n      pop\n        /* \"contracts/Pool.sol\":2316:2334  address swap_token */\n      0x00\n        /* \"contracts/Pool.sol\":2346:2352  token0 */\n      dup4\n        /* \"contracts/Pool.sol\":2337:2352  token == token0 */\n      0xffffffffffffffffffffffffffffffffffffffff\n      and\n        /* \"contracts/Pool.sol\":2337:2342  token */\n      dup9\n        /* \"contracts/Pool.sol\":2337:2352  token == token0 */\n      0xffffffffffffffffffffffffffffffffffffffff\n      and\n      eq\n        /* \"contracts/Pool.sol\":2337:2370  token == token0 ? token1 : token0 */\n      tag_163\n      jumpi\n        /* \"contracts/Pool.sol\":2364:2370  token0 */\n      dup4\n        /* \"contracts/Pool.sol\":2337:2370  token == token0 ? token1 : token0 */\n      jump(tag_164)\n    tag_163:\n        /* \"contracts/Pool.sol\":2355:2361  token1 */\n      dup3\n        /* \"contracts/Pool.sol\":2337:2370  token == token0 ? token1 : token0 */\n    tag_164:\n        /* \"contracts/Pool.sol\":2316:2370  address swap_token = token == token0 ? token1 : token0 */\n      swap1\n      pop\n        /* \"contracts/Pool.sol\":2434:2443  amountOut */\n      dup2\n        /* \"contracts/Pool.sol\":2430:2431  2 */\n      0x02\n        /* \"contracts/Pool.sol\":2391:2401  swap_token */\n      dup3\n        /* \"contracts/Pool.sol\":2384:2412  IERC20(swap_token).balanceOf */\n      0xffffffffffffffffffffffffffffffffffffffff\n      and\n      0x70a08231\n        /* \"contracts/Pool.sol\":2421:2425  this */\n      address\n        /* \"contracts/Pool.sol\":2384:2427  IERC20(swap_token).balanceOf(address(this)) */\n      mload(0x40)\n      dup3\n      0xffffffff\n      and\n      0xe0\n      shl\n      dup2\n      mstore\n      0x04\n      add\n      tag_165\n      swap2\n      swap1\n      tag_79\n      jump\t// in\n    tag_165:\n      0x20\n      mload(0x40)\n      dup1\n      dup4\n      sub\n      dup2\n      dup7\n      gas\n      staticcall\n      iszero\n      dup1\n      iszero\n      tag_167\n      jumpi\n      returndatasize\n      0x00\n      dup1\n      returndatacopy\n      revert(0x00, returndatasize)\n    tag_167:\n      pop\n      pop\n      pop\n      pop\n      mload(0x40)\n      returndatasize\n      not(0x1f)\n      0x1f\n      dup3\n      add\n      and\n      dup3\n      add\n      dup1\n      0x40\n      mstore\n      pop\n      dup2\n      add\n      swap1\n      tag_168\n      swap2\n      swap1\n      tag_169\n      jump\t// in\n    tag_168:\n        /* \"contracts/Pool.sol\":2384:2431  IERC20(swap_token).balanceOf(address(this)) / 2 */\n      tag_170\n      swap2\n      swap1\n      tag_118\n      jump\t// in\n    tag_170:\n        /* \"contracts/Pool.sol\":2384:2443  IERC20(swap_token).balanceOf(address(this)) / 2 < amountOut */\n      lt\n        /* \"contracts/Pool.sol\":2381:2472  if(IERC20(swap_token).balanceOf(address(this)) / 2 < amountOut) revert NOT_ENOUGH_BALANCE() */\n      iszero\n      tag_171\n      jumpi\n        /* \"contracts/Pool.sol\":2452:2472  NOT_ENOUGH_BALANCE() */\n      mload(0x40)\n      0x8cab1f2800000000000000000000000000000000000000000000000000000000\n      dup2\n      mstore\n      0x04\n      add\n      mload(0x40)\n      dup1\n      swap2\n      sub\n      swap1\n      revert\n        /* \"contracts/Pool.sol\":2381:2472  if(IERC20(swap_token).balanceOf(address(this)) / 2 < amountOut) revert NOT_ENOUGH_BALANCE() */\n    tag_171:\n        /* \"contracts/Pool.sol\":2552:2603  _transfer(token, msg.sender, address(this), amount) */\n      tag_172\n        /* \"contracts/Pool.sol\":2562:2567  token */\n      dup9\n        /* \"contracts/Pool.sol\":2569:2579  msg.sender */\n      caller\n        /* \"contracts/Pool.sol\":2589:2593  this */\n      address\n        /* \"contracts/Pool.sol\":2596:2602  amount */\n      dup11\n        /* \"contracts/Pool.sol\":2552:2561  _transfer */\n      tag_124\n        /* \"contracts/Pool.sol\":2552:2603  _transfer(token, msg.sender, address(this), amount) */\n      jump\t// in\n    tag_172:\n        /* \"contracts/Pool.sol\":2614:2673  _transfer(swap_token, address(this), msg.sender, amountOut) */\n      tag_173\n        /* \"contracts/Pool.sol\":2624:2634  swap_token */\n      dup2\n        /* \"contracts/Pool.sol\":2644:2648  this */\n      address\n        /* \"contracts/Pool.sol\":2651:2661  msg.sender */\n      caller\n        /* \"contracts/Pool.sol\":2663:2672  amountOut */\n      dup6\n        /* \"contracts/Pool.sol\":2614:2623  _transfer */\n      tag_124\n        /* \"contracts/Pool.sol\":2614:2673  _transfer(swap_token, address(this), msg.sender, amountOut) */\n      jump\t// in\n    tag_173:\n        /* \"contracts/Pool.sol\":2701:2707  token0 */\n      dup4\n        /* \"contracts/Pool.sol\":2687:2707  swap_token == token0 */\n      0xffffffffffffffffffffffffffffffffffffffff\n      and\n        /* \"contracts/Pool.sol\":2687:2697  swap_token */\n      dup2\n        /* \"contracts/Pool.sol\":2687:2707  swap_token == token0 */\n      0xffffffffffffffffffffffffffffffffffffffff\n      and\n      sub\n        /* \"contracts/Pool.sol\":2684:2892  if(swap_token == token0){... */\n      tag_174\n      jumpi\n        /* \"contracts/Pool.sol\":2737:2746  amountOut */\n      dup2\n        /* \"contracts/Pool.sol\":2723:2733  s_reserve0 */\n      0x04\n      0x00\n        /* \"contracts/Pool.sol\":2723:2746  s_reserve0 -= amountOut */\n      dup3\n      dup3\n      sload\n      tag_175\n      swap2\n      swap1\n      tag_129\n      jump\t// in\n    tag_175:\n      swap3\n      pop\n      pop\n      dup2\n      swap1\n      sstore\n      pop\n        /* \"contracts/Pool.sol\":2775:2781  amount */\n      dup7\n        /* \"contracts/Pool.sol\":2761:2771  s_reserve1 */\n      0x05\n      0x00\n        /* \"contracts/Pool.sol\":2761:2781  s_reserve1 += amount */\n      dup3\n      dup3\n      sload\n      tag_176\n      swap2\n      swap1\n      tag_177\n      jump\t// in\n    tag_176:\n      swap3\n      pop\n      pop\n      dup2\n      swap1\n      sstore\n      pop\n        /* \"contracts/Pool.sol\":2684:2892  if(swap_token == token0){... */\n      jump(tag_178)\n    tag_174:\n        /* \"contracts/Pool.sol\":2836:2842  amount */\n      dup7\n        /* \"contracts/Pool.sol\":2822:2832  s_reserve0 */\n      0x04\n      0x00\n        /* \"contracts/Pool.sol\":2822:2842  s_reserve0 += amount */\n      dup3\n      dup3\n      sload\n      tag_179\n      swap2\n      swap1\n      tag_177\n      jump\t// in\n    tag_179:\n      swap3\n      pop\n      pop\n      dup2\n      swap1\n      sstore\n      pop\n        /* \"contracts/Pool.sol\":2871:2880  amountOut */\n      dup2\n        /* \"contracts/Pool.sol\":2857:2867  s_reserve1 */\n      0x05\n      0x00\n        /* \"contracts/Pool.sol\":2857:2880  s_reserve1 -= amountOut */\n      dup3\n      dup3\n      sload\n      tag_180\n      swap2\n      swap1\n      tag_129\n      jump\t// in\n    tag_180:\n      swap3\n      pop\n      pop\n      dup2\n      swap1\n      sstore\n      pop\n        /* \"contracts/Pool.sol\":2684:2892  if(swap_token == token0){... */\n    tag_178:\n        /* \"contracts/Pool.sol\":2909:2918  amountOut */\n      dup2\n        /* \"contracts/Pool.sol\":2902:2918  return amountOut */\n      swap6\n      pop\n      pop\n      pop\n      pop\n      pop\n        /* \"contracts/Pool.sol\":2016:2926  function swap(address token, uint256 amount) external checkTokenInside(token) returns(uint256) {... */\n      pop\n      swap3\n      swap2\n      pop\n      pop\n      jump\t// out\n        /* \"https://github.com/Vectorized/solady/blob/e4a14a5b365b353352f7c38e699a2bc9363d6576/src/tokens/ERC20.sol\":13324:16539  function permit(... */\n    tag_87:\n        /* \"https://github.com/Vectorized/solady/blob/e4a14a5b365b353352f7c38e699a2bc9363d6576/src/tokens/ERC20.sol\":13523:13539  bytes32 nameHash */\n      0x00\n        /* \"https://github.com/Vectorized/solady/blob/e4a14a5b365b353352f7c38e699a2bc9363d6576/src/tokens/ERC20.sol\":13542:13561  _constantNameHash() */\n      tag_182\n        /* \"https://github.com/Vectorized/solady/blob/e4a14a5b365b353352f7c38e699a2bc9363d6576/src/tokens/ERC20.sol\":13542:13559  _constantNameHash */\n      tag_134\n        /* \"https://github.com/Vectorized/solady/blob/e4a14a5b365b353352f7c38e699a2bc9363d6576/src/tokens/ERC20.sol\":13542:13561  _constantNameHash() */\n      jump\t// in\n    tag_182:\n        /* \"https://github.com/Vectorized/solady/blob/e4a14a5b365b353352f7c38e699a2bc9363d6576/src/tokens/ERC20.sol\":13523:13561  bytes32 nameHash = _constantNameHash() */\n      swap1\n      pop\n        /* \"https://github.com/Vectorized/solady/blob/e4a14a5b365b353352f7c38e699a2bc9363d6576/src/tokens/ERC20.sol\":13689:13690  0 */\n      0x00\n        /* \"https://github.com/Vectorized/solady/blob/e4a14a5b365b353352f7c38e699a2bc9363d6576/src/tokens/ERC20.sol\":13681:13691  bytes32(0) */\n      dup1\n      shl\n        /* \"https://github.com/Vectorized/solady/blob/e4a14a5b365b353352f7c38e699a2bc9363d6576/src/tokens/ERC20.sol\":13669:13677  nameHash */\n      dup2\n        /* \"https://github.com/Vectorized/solady/blob/e4a14a5b365b353352f7c38e699a2bc9363d6576/src/tokens/ERC20.sol\":13669:13691  nameHash == bytes32(0) */\n      sub\n        /* \"https://github.com/Vectorized/solady/blob/e4a14a5b365b353352f7c38e699a2bc9363d6576/src/tokens/ERC20.sol\":13665:13728  if (nameHash == bytes32(0)) nameHash = keccak256(bytes(name())) */\n      tag_183\n      jumpi\n        /* \"https://github.com/Vectorized/solady/blob/e4a14a5b365b353352f7c38e699a2bc9363d6576/src/tokens/ERC20.sol\":13720:13726  name() */\n      tag_184\n        /* \"https://github.com/Vectorized/solady/blob/e4a14a5b365b353352f7c38e699a2bc9363d6576/src/tokens/ERC20.sol\":13720:13724  name */\n      tag_24\n        /* \"https://github.com/Vectorized/solady/blob/e4a14a5b365b353352f7c38e699a2bc9363d6576/src/tokens/ERC20.sol\":13720:13726  name() */\n      jump\t// in\n    tag_184:\n        /* \"https://github.com/Vectorized/solady/blob/e4a14a5b365b353352f7c38e699a2bc9363d6576/src/tokens/ERC20.sol\":13704:13728  keccak256(bytes(name())) */\n      dup1\n      mload\n      swap1\n      0x20\n      add\n      keccak256\n        /* \"https://github.com/Vectorized/solady/blob/e4a14a5b365b353352f7c38e699a2bc9363d6576/src/tokens/ERC20.sol\":13693:13728  nameHash = keccak256(bytes(name())) */\n      swap1\n      pop\n        /* \"https://github.com/Vectorized/solady/blob/e4a14a5b365b353352f7c38e699a2bc9363d6576/src/tokens/ERC20.sol\":13665:13728  if (nameHash == bytes32(0)) nameHash = keccak256(bytes(name())) */\n    tag_183:\n        /* \"https://github.com/Vectorized/solady/blob/e4a14a5b365b353352f7c38e699a2bc9363d6576/src/tokens/ERC20.sol\":13896:13904  deadline */\n      dup5\n        /* \"https://github.com/Vectorized/solady/blob/e4a14a5b365b353352f7c38e699a2bc9363d6576/src/tokens/ERC20.sol\":13883:13894  timestamp() */\n      timestamp\n        /* \"https://github.com/Vectorized/solady/blob/e4a14a5b365b353352f7c38e699a2bc9363d6576/src/tokens/ERC20.sol\":13880:13905  gt(timestamp(), deadline) */\n      gt\n        /* \"https://github.com/Vectorized/solady/blob/e4a14a5b365b353352f7c38e699a2bc9363d6576/src/tokens/ERC20.sol\":13877:14019  if gt(timestamp(), deadline) {... */\n      iszero\n      tag_185\n      jumpi\n        /* \"https://github.com/Vectorized/solady/blob/e4a14a5b365b353352f7c38e699a2bc9363d6576/src/tokens/ERC20.sol\":13937:13947  0x1a15a3cc */\n      0x1a15a3cc\n        /* \"https://github.com/Vectorized/solady/blob/e4a14a5b365b353352f7c38e699a2bc9363d6576/src/tokens/ERC20.sol\":13931:13935  0x00 */\n      0x00\n        /* \"https://github.com/Vectorized/solady/blob/e4a14a5b365b353352f7c38e699a2bc9363d6576/src/tokens/ERC20.sol\":13924:13948  mstore(0x00, 0x1a15a3cc) */\n      mstore\n        /* \"https://github.com/Vectorized/solady/blob/e4a14a5b365b353352f7c38e699a2bc9363d6576/src/tokens/ERC20.sol\":14000:14004  0x04 */\n      0x04\n        /* \"https://github.com/Vectorized/solady/blob/e4a14a5b365b353352f7c38e699a2bc9363d6576/src/tokens/ERC20.sol\":13994:13998  0x1c */\n      0x1c\n        /* \"https://github.com/Vectorized/solady/blob/e4a14a5b365b353352f7c38e699a2bc9363d6576/src/tokens/ERC20.sol\":13987:14005  revert(0x1c, 0x04) */\n      revert\n        /* \"https://github.com/Vectorized/solady/blob/e4a14a5b365b353352f7c38e699a2bc9363d6576/src/tokens/ERC20.sol\":13877:14019  if gt(timestamp(), deadline) {... */\n    tag_185:\n        /* \"https://github.com/Vectorized/solady/blob/e4a14a5b365b353352f7c38e699a2bc9363d6576/src/tokens/ERC20.sol\":14047:14051  0x40 */\n      0x40\n        /* \"https://github.com/Vectorized/solady/blob/e4a14a5b365b353352f7c38e699a2bc9363d6576/src/tokens/ERC20.sol\":14041:14052  mload(0x40) */\n      mload\n        /* \"https://github.com/Vectorized/solady/blob/e4a14a5b365b353352f7c38e699a2bc9363d6576/src/tokens/ERC20.sol\":14163:14168  owner */\n      dup9\n        /* \"https://github.com/Vectorized/solady/blob/e4a14a5b365b353352f7c38e699a2bc9363d6576/src/tokens/ERC20.sol\":14159:14161  96 */\n      0x60\n        /* \"https://github.com/Vectorized/solady/blob/e4a14a5b365b353352f7c38e699a2bc9363d6576/src/tokens/ERC20.sol\":14155:14169  shl(96, owner) */\n      shl\n        /* \"https://github.com/Vectorized/solady/blob/e4a14a5b365b353352f7c38e699a2bc9363d6576/src/tokens/ERC20.sol\":14151:14153  96 */\n      0x60\n        /* \"https://github.com/Vectorized/solady/blob/e4a14a5b365b353352f7c38e699a2bc9363d6576/src/tokens/ERC20.sol\":14147:14170  shr(96, shl(96, owner)) */\n      shr\n        /* \"https://github.com/Vectorized/solady/blob/e4a14a5b365b353352f7c38e699a2bc9363d6576/src/tokens/ERC20.sol\":14138:14170  owner := shr(96, shl(96, owner)) */\n      swap9\n      pop\n        /* \"https://github.com/Vectorized/solady/blob/e4a14a5b365b353352f7c38e699a2bc9363d6576/src/tokens/ERC20.sol\":14210:14217  spender */\n      dup8\n        /* \"https://github.com/Vectorized/solady/blob/e4a14a5b365b353352f7c38e699a2bc9363d6576/src/tokens/ERC20.sol\":14206:14208  96 */\n      0x60\n        /* \"https://github.com/Vectorized/solady/blob/e4a14a5b365b353352f7c38e699a2bc9363d6576/src/tokens/ERC20.sol\":14202:14218  shl(96, spender) */\n      shl\n        /* \"https://github.com/Vectorized/solady/blob/e4a14a5b365b353352f7c38e699a2bc9363d6576/src/tokens/ERC20.sol\":14198:14200  96 */\n      0x60\n        /* \"https://github.com/Vectorized/solady/blob/e4a14a5b365b353352f7c38e699a2bc9363d6576/src/tokens/ERC20.sol\":14194:14219  shr(96, shl(96, spender)) */\n      shr\n        /* \"https://github.com/Vectorized/solady/blob/e4a14a5b365b353352f7c38e699a2bc9363d6576/src/tokens/ERC20.sol\":14183:14219  spender := shr(96, shl(96, spender)) */\n      swap8\n      pop\n        /* \"https://github.com/Vectorized/solady/blob/e4a14a5b365b353352f7c38e699a2bc9363d6576/src/tokens/ERC20.sol\":14303:14342  _NONCES_SLOT_SEED_WITH_SIGNATURE_PREFIX */\n      0x383775081901\n        /* \"https://github.com/Vectorized/solady/blob/e4a14a5b365b353352f7c38e699a2bc9363d6576/src/tokens/ERC20.sol\":14297:14301  0x0e */\n      0x0e\n        /* \"https://github.com/Vectorized/solady/blob/e4a14a5b365b353352f7c38e699a2bc9363d6576/src/tokens/ERC20.sol\":14290:14343  mstore(0x0e, _NONCES_SLOT_SEED_WITH_SIGNATURE_PREFIX) */\n      mstore\n        /* \"https://github.com/Vectorized/solady/blob/e4a14a5b365b353352f7c38e699a2bc9363d6576/src/tokens/ERC20.sol\":14369:14374  owner */\n      dup9\n        /* \"https://github.com/Vectorized/solady/blob/e4a14a5b365b353352f7c38e699a2bc9363d6576/src/tokens/ERC20.sol\":14363:14367  0x00 */\n      0x00\n        /* \"https://github.com/Vectorized/solady/blob/e4a14a5b365b353352f7c38e699a2bc9363d6576/src/tokens/ERC20.sol\":14356:14375  mstore(0x00, owner) */\n      mstore\n        /* \"https://github.com/Vectorized/solady/blob/e4a14a5b365b353352f7c38e699a2bc9363d6576/src/tokens/ERC20.sol\":14421:14425  0x20 */\n      0x20\n        /* \"https://github.com/Vectorized/solady/blob/e4a14a5b365b353352f7c38e699a2bc9363d6576/src/tokens/ERC20.sol\":14415:14419  0x0c */\n      0x0c\n        /* \"https://github.com/Vectorized/solady/blob/e4a14a5b365b353352f7c38e699a2bc9363d6576/src/tokens/ERC20.sol\":14405:14426  keccak256(0x0c, 0x20) */\n      keccak256\n        /* \"https://github.com/Vectorized/solady/blob/e4a14a5b365b353352f7c38e699a2bc9363d6576/src/tokens/ERC20.sol\":14463:14472  nonceSlot */\n      dup1\n        /* \"https://github.com/Vectorized/solady/blob/e4a14a5b365b353352f7c38e699a2bc9363d6576/src/tokens/ERC20.sol\":14457:14473  sload(nonceSlot) */\n      sload\n        /* \"https://github.com/Vectorized/solady/blob/e4a14a5b365b353352f7c38e699a2bc9363d6576/src/tokens/ERC20.sol\":14541:14557  _DOMAIN_TYPEHASH */\n      0x8b73c3c69bb8fe3d512ecc4cf759cc79239f7b179b0ffacaa9a75d522b39400f\n        /* \"https://github.com/Vectorized/solady/blob/e4a14a5b365b353352f7c38e699a2bc9363d6576/src/tokens/ERC20.sol\":14538:14539  m */\n      dup4\n        /* \"https://github.com/Vectorized/solady/blob/e4a14a5b365b353352f7c38e699a2bc9363d6576/src/tokens/ERC20.sol\":14531:14558  mstore(m, _DOMAIN_TYPEHASH) */\n      mstore\n        /* \"https://github.com/Vectorized/solady/blob/e4a14a5b365b353352f7c38e699a2bc9363d6576/src/tokens/ERC20.sol\":14592:14600  nameHash */\n      dup4\n        /* \"https://github.com/Vectorized/solady/blob/e4a14a5b365b353352f7c38e699a2bc9363d6576/src/tokens/ERC20.sol\":14585:14589  0x20 */\n      0x20\n        /* \"https://github.com/Vectorized/solady/blob/e4a14a5b365b353352f7c38e699a2bc9363d6576/src/tokens/ERC20.sol\":14582:14583  m */\n      dup5\n        /* \"https://github.com/Vectorized/solady/blob/e4a14a5b365b353352f7c38e699a2bc9363d6576/src/tokens/ERC20.sol\":14578:14590  add(m, 0x20) */\n      add\n        /* \"https://github.com/Vectorized/solady/blob/e4a14a5b365b353352f7c38e699a2bc9363d6576/src/tokens/ERC20.sol\":14571:14601  mstore(add(m, 0x20), nameHash) */\n      mstore\n        /* \"https://github.com/Vectorized/solady/blob/e4a14a5b365b353352f7c38e699a2bc9363d6576/src/tokens/ERC20.sol\":14635:14648  _VERSION_HASH */\n      0xc89efdaa54c0f20c7adf612882df0950f5a951637e0307cdcb4c672f298b8bc6\n        /* \"https://github.com/Vectorized/solady/blob/e4a14a5b365b353352f7c38e699a2bc9363d6576/src/tokens/ERC20.sol\":14628:14632  0x40 */\n      0x40\n        /* \"https://github.com/Vectorized/solady/blob/e4a14a5b365b353352f7c38e699a2bc9363d6576/src/tokens/ERC20.sol\":14625:14626  m */\n      dup5\n        /* \"https://github.com/Vectorized/solady/blob/e4a14a5b365b353352f7c38e699a2bc9363d6576/src/tokens/ERC20.sol\":14621:14633  add(m, 0x40) */\n      add\n        /* \"https://github.com/Vectorized/solady/blob/e4a14a5b365b353352f7c38e699a2bc9363d6576/src/tokens/ERC20.sol\":14614:14649  mstore(add(m, 0x40), _VERSION_HASH) */\n      mstore\n        /* \"https://github.com/Vectorized/solady/blob/e4a14a5b365b353352f7c38e699a2bc9363d6576/src/tokens/ERC20.sol\":14683:14692  chainid() */\n      chainid\n        /* \"https://github.com/Vectorized/solady/blob/e4a14a5b365b353352f7c38e699a2bc9363d6576/src/tokens/ERC20.sol\":14676:14680  0x60 */\n      0x60\n        /* \"https://github.com/Vectorized/solady/blob/e4a14a5b365b353352f7c38e699a2bc9363d6576/src/tokens/ERC20.sol\":14673:14674  m */\n      dup5\n        /* \"https://github.com/Vectorized/solady/blob/e4a14a5b365b353352f7c38e699a2bc9363d6576/src/tokens/ERC20.sol\":14669:14681  add(m, 0x60) */\n      add\n        /* \"https://github.com/Vectorized/solady/blob/e4a14a5b365b353352f7c38e699a2bc9363d6576/src/tokens/ERC20.sol\":14662:14693  mstore(add(m, 0x60), chainid()) */\n      mstore\n        /* \"https://github.com/Vectorized/solady/blob/e4a14a5b365b353352f7c38e699a2bc9363d6576/src/tokens/ERC20.sol\":14727:14736  address() */\n      address\n        /* \"https://github.com/Vectorized/solady/blob/e4a14a5b365b353352f7c38e699a2bc9363d6576/src/tokens/ERC20.sol\":14720:14724  0x80 */\n      0x80\n        /* \"https://github.com/Vectorized/solady/blob/e4a14a5b365b353352f7c38e699a2bc9363d6576/src/tokens/ERC20.sol\":14717:14718  m */\n      dup5\n        /* \"https://github.com/Vectorized/solady/blob/e4a14a5b365b353352f7c38e699a2bc9363d6576/src/tokens/ERC20.sol\":14713:14725  add(m, 0x80) */\n      add\n        /* \"https://github.com/Vectorized/solady/blob/e4a14a5b365b353352f7c38e699a2bc9363d6576/src/tokens/ERC20.sol\":14706:14737  mstore(add(m, 0x80), address()) */\n      mstore\n        /* \"https://github.com/Vectorized/solady/blob/e4a14a5b365b353352f7c38e699a2bc9363d6576/src/tokens/ERC20.sol\":14776:14780  0xa0 */\n      0xa0\n        /* \"https://github.com/Vectorized/solady/blob/e4a14a5b365b353352f7c38e699a2bc9363d6576/src/tokens/ERC20.sol\":14773:14774  m */\n      dup4\n        /* \"https://github.com/Vectorized/solady/blob/e4a14a5b365b353352f7c38e699a2bc9363d6576/src/tokens/ERC20.sol\":14763:14781  keccak256(m, 0xa0) */\n      keccak256\n        /* \"https://github.com/Vectorized/solady/blob/e4a14a5b365b353352f7c38e699a2bc9363d6576/src/tokens/ERC20.sol\":14757:14761  0x2e */\n      0x2e\n        /* \"https://github.com/Vectorized/solady/blob/e4a14a5b365b353352f7c38e699a2bc9363d6576/src/tokens/ERC20.sol\":14750:14782  mstore(0x2e, keccak256(m, 0xa0)) */\n      mstore\n        /* \"https://github.com/Vectorized/solady/blob/e4a14a5b365b353352f7c38e699a2bc9363d6576/src/tokens/ERC20.sol\":14845:14861  _PERMIT_TYPEHASH */\n      0x6e71edae12b1b97f4d1f60370fef10105fa2faae0126114a169c64845d6126c9\n        /* \"https://github.com/Vectorized/solady/blob/e4a14a5b365b353352f7c38e699a2bc9363d6576/src/tokens/ERC20.sol\":14842:14843  m */\n      dup4\n        /* \"https://github.com/Vectorized/solady/blob/e4a14a5b365b353352f7c38e699a2bc9363d6576/src/tokens/ERC20.sol\":14835:14862  mstore(m, _PERMIT_TYPEHASH) */\n      mstore\n        /* \"https://github.com/Vectorized/solady/blob/e4a14a5b365b353352f7c38e699a2bc9363d6576/src/tokens/ERC20.sol\":14896:14901  owner */\n      dup11\n        /* \"https://github.com/Vectorized/solady/blob/e4a14a5b365b353352f7c38e699a2bc9363d6576/src/tokens/ERC20.sol\":14889:14893  0x20 */\n      0x20\n        /* \"https://github.com/Vectorized/solady/blob/e4a14a5b365b353352f7c38e699a2bc9363d6576/src/tokens/ERC20.sol\":14886:14887  m */\n      dup5\n        /* \"https://github.com/Vectorized/solady/blob/e4a14a5b365b353352f7c38e699a2bc9363d6576/src/tokens/ERC20.sol\":14882:14894  add(m, 0x20) */\n      add\n        /* \"https://github.com/Vectorized/solady/blob/e4a14a5b365b353352f7c38e699a2bc9363d6576/src/tokens/ERC20.sol\":14875:14902  mstore(add(m, 0x20), owner) */\n      mstore\n        /* \"https://github.com/Vectorized/solady/blob/e4a14a5b365b353352f7c38e699a2bc9363d6576/src/tokens/ERC20.sol\":14936:14943  spender */\n      dup10\n        /* \"https://github.com/Vectorized/solady/blob/e4a14a5b365b353352f7c38e699a2bc9363d6576/src/tokens/ERC20.sol\":14929:14933  0x40 */\n      0x40\n        /* \"https://github.com/Vectorized/solady/blob/e4a14a5b365b353352f7c38e699a2bc9363d6576/src/tokens/ERC20.sol\":14926:14927  m */\n      dup5\n        /* \"https://github.com/Vectorized/solady/blob/e4a14a5b365b353352f7c38e699a2bc9363d6576/src/tokens/ERC20.sol\":14922:14934  add(m, 0x40) */\n      add\n        /* \"https://github.com/Vectorized/solady/blob/e4a14a5b365b353352f7c38e699a2bc9363d6576/src/tokens/ERC20.sol\":14915:14944  mstore(add(m, 0x40), spender) */\n      mstore\n        /* \"https://github.com/Vectorized/solady/blob/e4a14a5b365b353352f7c38e699a2bc9363d6576/src/tokens/ERC20.sol\":14978:14983  value */\n      dup9\n        /* \"https://github.com/Vectorized/solady/blob/e4a14a5b365b353352f7c38e699a2bc9363d6576/src/tokens/ERC20.sol\":14971:14975  0x60 */\n      0x60\n        /* \"https://github.com/Vectorized/solady/blob/e4a14a5b365b353352f7c38e699a2bc9363d6576/src/tokens/ERC20.sol\":14968:14969  m */\n      dup5\n        /* \"https://github.com/Vectorized/solady/blob/e4a14a5b365b353352f7c38e699a2bc9363d6576/src/tokens/ERC20.sol\":14964:14976  add(m, 0x60) */\n      add\n        /* \"https://github.com/Vectorized/solady/blob/e4a14a5b365b353352f7c38e699a2bc9363d6576/src/tokens/ERC20.sol\":14957:14984  mstore(add(m, 0x60), value) */\n      mstore\n        /* \"https://github.com/Vectorized/solady/blob/e4a14a5b365b353352f7c38e699a2bc9363d6576/src/tokens/ERC20.sol\":15018:15028  nonceValue */\n      dup1\n        /* \"https://github.com/Vectorized/solady/blob/e4a14a5b365b353352f7c38e699a2bc9363d6576/src/tokens/ERC20.sol\":15011:15015  0x80 */\n      0x80\n        /* \"https://github.com/Vectorized/solady/blob/e4a14a5b365b353352f7c38e699a2bc9363d6576/src/tokens/ERC20.sol\":15008:15009  m */\n      dup5\n        /* \"https://github.com/Vectorized/solady/blob/e4a14a5b365b353352f7c38e699a2bc9363d6576/src/tokens/ERC20.sol\":15004:15016  add(m, 0x80) */\n      add\n        /* \"https://github.com/Vectorized/solady/blob/e4a14a5b365b353352f7c38e699a2bc9363d6576/src/tokens/ERC20.sol\":14997:15029  mstore(add(m, 0x80), nonceValue) */\n      mstore\n        /* \"https://github.com/Vectorized/solady/blob/e4a14a5b365b353352f7c38e699a2bc9363d6576/src/tokens/ERC20.sol\":15063:15071  deadline */\n      dup8\n        /* \"https://github.com/Vectorized/solady/blob/e4a14a5b365b353352f7c38e699a2bc9363d6576/src/tokens/ERC20.sol\":15056:15060  0xa0 */\n      0xa0\n        /* \"https://github.com/Vectorized/solady/blob/e4a14a5b365b353352f7c38e699a2bc9363d6576/src/tokens/ERC20.sol\":15053:15054  m */\n      dup5\n        /* \"https://github.com/Vectorized/solady/blob/e4a14a5b365b353352f7c38e699a2bc9363d6576/src/tokens/ERC20.sol\":15049:15061  add(m, 0xa0) */\n      add\n        /* \"https://github.com/Vectorized/solady/blob/e4a14a5b365b353352f7c38e699a2bc9363d6576/src/tokens/ERC20.sol\":15042:15072  mstore(add(m, 0xa0), deadline) */\n      mstore\n        /* \"https://github.com/Vectorized/solady/blob/e4a14a5b365b353352f7c38e699a2bc9363d6576/src/tokens/ERC20.sol\":15111:15115  0xc0 */\n      0xc0\n        /* \"https://github.com/Vectorized/solady/blob/e4a14a5b365b353352f7c38e699a2bc9363d6576/src/tokens/ERC20.sol\":15108:15109  m */\n      dup4\n        /* \"https://github.com/Vectorized/solady/blob/e4a14a5b365b353352f7c38e699a2bc9363d6576/src/tokens/ERC20.sol\":15098:15116  keccak256(m, 0xc0) */\n      keccak256\n        /* \"https://github.com/Vectorized/solady/blob/e4a14a5b365b353352f7c38e699a2bc9363d6576/src/tokens/ERC20.sol\":15092:15096  0x4e */\n      0x4e\n        /* \"https://github.com/Vectorized/solady/blob/e4a14a5b365b353352f7c38e699a2bc9363d6576/src/tokens/ERC20.sol\":15085:15117  mstore(0x4e, keccak256(m, 0xc0)) */\n      mstore\n        /* \"https://github.com/Vectorized/solady/blob/e4a14a5b365b353352f7c38e699a2bc9363d6576/src/tokens/ERC20.sol\":15206:15210  0x42 */\n      0x42\n        /* \"https://github.com/Vectorized/solady/blob/e4a14a5b365b353352f7c38e699a2bc9363d6576/src/tokens/ERC20.sol\":15200:15204  0x2c */\n      0x2c\n        /* \"https://github.com/Vectorized/solady/blob/e4a14a5b365b353352f7c38e699a2bc9363d6576/src/tokens/ERC20.sol\":15190:15211  keccak256(0x2c, 0x42) */\n      keccak256\n        /* \"https://github.com/Vectorized/solady/blob/e4a14a5b365b353352f7c38e699a2bc9363d6576/src/tokens/ERC20.sol\":15184:15188  0x00 */\n      0x00\n        /* \"https://github.com/Vectorized/solady/blob/e4a14a5b365b353352f7c38e699a2bc9363d6576/src/tokens/ERC20.sol\":15177:15212  mstore(0x00, keccak256(0x2c, 0x42)) */\n      mstore\n        /* \"https://github.com/Vectorized/solady/blob/e4a14a5b365b353352f7c38e699a2bc9363d6576/src/tokens/ERC20.sol\":15248:15249  v */\n      dup7\n        /* \"https://github.com/Vectorized/solady/blob/e4a14a5b365b353352f7c38e699a2bc9363d6576/src/tokens/ERC20.sol\":15242:15246  0xff */\n      0xff\n        /* \"https://github.com/Vectorized/solady/blob/e4a14a5b365b353352f7c38e699a2bc9363d6576/src/tokens/ERC20.sol\":15238:15250  and(0xff, v) */\n      and\n        /* \"https://github.com/Vectorized/solady/blob/e4a14a5b365b353352f7c38e699a2bc9363d6576/src/tokens/ERC20.sol\":15232:15236  0x20 */\n      0x20\n        /* \"https://github.com/Vectorized/solady/blob/e4a14a5b365b353352f7c38e699a2bc9363d6576/src/tokens/ERC20.sol\":15225:15251  mstore(0x20, and(0xff, v)) */\n      mstore\n        /* \"https://github.com/Vectorized/solady/blob/e4a14a5b365b353352f7c38e699a2bc9363d6576/src/tokens/ERC20.sol\":15277:15278  r */\n      dup6\n        /* \"https://github.com/Vectorized/solady/blob/e4a14a5b365b353352f7c38e699a2bc9363d6576/src/tokens/ERC20.sol\":15271:15275  0x40 */\n      0x40\n        /* \"https://github.com/Vectorized/solady/blob/e4a14a5b365b353352f7c38e699a2bc9363d6576/src/tokens/ERC20.sol\":15264:15279  mstore(0x40, r) */\n      mstore\n        /* \"https://github.com/Vectorized/solady/blob/e4a14a5b365b353352f7c38e699a2bc9363d6576/src/tokens/ERC20.sol\":15305:15306  s */\n      dup5\n        /* \"https://github.com/Vectorized/solady/blob/e4a14a5b365b353352f7c38e699a2bc9363d6576/src/tokens/ERC20.sol\":15299:15303  0x60 */\n      0x60\n        /* \"https://github.com/Vectorized/solady/blob/e4a14a5b365b353352f7c38e699a2bc9363d6576/src/tokens/ERC20.sol\":15292:15307  mstore(0x60, s) */\n      mstore\n        /* \"https://github.com/Vectorized/solady/blob/e4a14a5b365b353352f7c38e699a2bc9363d6576/src/tokens/ERC20.sol\":15365:15369  0x20 */\n      0x20\n        /* \"https://github.com/Vectorized/solady/blob/e4a14a5b365b353352f7c38e699a2bc9363d6576/src/tokens/ERC20.sol\":15359:15363  0x20 */\n      dup1\n        /* \"https://github.com/Vectorized/solady/blob/e4a14a5b365b353352f7c38e699a2bc9363d6576/src/tokens/ERC20.sol\":15353:15357  0x80 */\n      0x80\n        /* \"https://github.com/Vectorized/solady/blob/e4a14a5b365b353352f7c38e699a2bc9363d6576/src/tokens/ERC20.sol\":15350:15351  0 */\n      0x00\n        /* \"https://github.com/Vectorized/solady/blob/e4a14a5b365b353352f7c38e699a2bc9363d6576/src/tokens/ERC20.sol\":15347:15348  1 */\n      0x01\n        /* \"https://github.com/Vectorized/solady/blob/e4a14a5b365b353352f7c38e699a2bc9363d6576/src/tokens/ERC20.sol\":15340:15345  gas() */\n      gas\n        /* \"https://github.com/Vectorized/solady/blob/e4a14a5b365b353352f7c38e699a2bc9363d6576/src/tokens/ERC20.sol\":15329:15370  staticcall(gas(), 1, 0, 0x80, 0x20, 0x20) */\n      staticcall\n        /* \"https://github.com/Vectorized/solady/blob/e4a14a5b365b353352f7c38e699a2bc9363d6576/src/tokens/ERC20.sol\":15786:15791  owner */\n      dup12\n        /* \"https://github.com/Vectorized/solady/blob/e4a14a5b365b353352f7c38e699a2bc9363d6576/src/tokens/ERC20.sol\":15767:15783  returndatasize() */\n      returndatasize\n        /* \"https://github.com/Vectorized/solady/blob/e4a14a5b365b353352f7c38e699a2bc9363d6576/src/tokens/ERC20.sol\":15761:15784  mload(returndatasize()) */\n      mload\n        /* \"https://github.com/Vectorized/solady/blob/e4a14a5b365b353352f7c38e699a2bc9363d6576/src/tokens/ERC20.sol\":15758:15792  eq(mload(returndatasize()), owner) */\n      eq\n        /* \"https://github.com/Vectorized/solady/blob/e4a14a5b365b353352f7c38e699a2bc9363d6576/src/tokens/ERC20.sol\":15748:15907  if iszero(eq(mload(returndatasize()), owner)) {... */\n      tag_186\n      jumpi\n        /* \"https://github.com/Vectorized/solady/blob/e4a14a5b365b353352f7c38e699a2bc9363d6576/src/tokens/ERC20.sol\":15825:15835  0xddafbaef */\n      0xddafbaef\n        /* \"https://github.com/Vectorized/solady/blob/e4a14a5b365b353352f7c38e699a2bc9363d6576/src/tokens/ERC20.sol\":15819:15823  0x00 */\n      0x00\n        /* \"https://github.com/Vectorized/solady/blob/e4a14a5b365b353352f7c38e699a2bc9363d6576/src/tokens/ERC20.sol\":15812:15836  mstore(0x00, 0xddafbaef) */\n      mstore\n        /* \"https://github.com/Vectorized/solady/blob/e4a14a5b365b353352f7c38e699a2bc9363d6576/src/tokens/ERC20.sol\":15888:15892  0x04 */\n      0x04\n        /* \"https://github.com/Vectorized/solady/blob/e4a14a5b365b353352f7c38e699a2bc9363d6576/src/tokens/ERC20.sol\":15882:15886  0x1c */\n      0x1c\n        /* \"https://github.com/Vectorized/solady/blob/e4a14a5b365b353352f7c38e699a2bc9363d6576/src/tokens/ERC20.sol\":15875:15893  revert(0x1c, 0x04) */\n      revert\n        /* \"https://github.com/Vectorized/solady/blob/e4a14a5b365b353352f7c38e699a2bc9363d6576/src/tokens/ERC20.sol\":15748:15907  if iszero(eq(mload(returndatasize()), owner)) {... */\n    tag_186:\n        /* \"https://github.com/Vectorized/solady/blob/e4a14a5b365b353352f7c38e699a2bc9363d6576/src/tokens/ERC20.sol\":16008:16009  t */\n      dup1\n        /* \"https://github.com/Vectorized/solady/blob/e4a14a5b365b353352f7c38e699a2bc9363d6576/src/tokens/ERC20.sol\":15996:16006  nonceValue */\n      dup3\n        /* \"https://github.com/Vectorized/solady/blob/e4a14a5b365b353352f7c38e699a2bc9363d6576/src/tokens/ERC20.sol\":15992:16010  add(nonceValue, t) */\n      add\n        /* \"https://github.com/Vectorized/solady/blob/e4a14a5b365b353352f7c38e699a2bc9363d6576/src/tokens/ERC20.sol\":15981:15990  nonceSlot */\n      dup4\n        /* \"https://github.com/Vectorized/solady/blob/e4a14a5b365b353352f7c38e699a2bc9363d6576/src/tokens/ERC20.sol\":15974:16011  sstore(nonceSlot, add(nonceValue, t)) */\n      sstore\n        /* \"https://github.com/Vectorized/solady/blob/e4a14a5b365b353352f7c38e699a2bc9363d6576/src/tokens/ERC20.sol\":16222:16229  spender */\n      dup11\n        /* \"https://github.com/Vectorized/solady/blob/e4a14a5b365b353352f7c38e699a2bc9363d6576/src/tokens/ERC20.sol\":16199:16219  _ALLOWANCE_SLOT_SEED */\n      0x7f5e9f20\n        /* \"https://github.com/Vectorized/solady/blob/e4a14a5b365b353352f7c38e699a2bc9363d6576/src/tokens/ERC20.sol\":16194:16197  160 */\n      0xa0\n        /* \"https://github.com/Vectorized/solady/blob/e4a14a5b365b353352f7c38e699a2bc9363d6576/src/tokens/ERC20.sol\":16190:16220  shl(160, _ALLOWANCE_SLOT_SEED) */\n      shl\n        /* \"https://github.com/Vectorized/solady/blob/e4a14a5b365b353352f7c38e699a2bc9363d6576/src/tokens/ERC20.sol\":16187:16230  or(shl(160, _ALLOWANCE_SLOT_SEED), spender) */\n      or\n        /* \"https://github.com/Vectorized/solady/blob/e4a14a5b365b353352f7c38e699a2bc9363d6576/src/tokens/ERC20.sol\":16181:16185  0x40 */\n      0x40\n        /* \"https://github.com/Vectorized/solady/blob/e4a14a5b365b353352f7c38e699a2bc9363d6576/src/tokens/ERC20.sol\":16174:16231  mstore(0x40, or(shl(160, _ALLOWANCE_SLOT_SEED), spender)) */\n      mstore\n        /* \"https://github.com/Vectorized/solady/blob/e4a14a5b365b353352f7c38e699a2bc9363d6576/src/tokens/ERC20.sol\":16274:16279  value */\n      dup10\n        /* \"https://github.com/Vectorized/solady/blob/e4a14a5b365b353352f7c38e699a2bc9363d6576/src/tokens/ERC20.sol\":16267:16271  0x34 */\n      0x34\n        /* \"https://github.com/Vectorized/solady/blob/e4a14a5b365b353352f7c38e699a2bc9363d6576/src/tokens/ERC20.sol\":16261:16265  0x2c */\n      0x2c\n        /* \"https://github.com/Vectorized/solady/blob/e4a14a5b365b353352f7c38e699a2bc9363d6576/src/tokens/ERC20.sol\":16251:16272  keccak256(0x2c, 0x34) */\n      keccak256\n        /* \"https://github.com/Vectorized/solady/blob/e4a14a5b365b353352f7c38e699a2bc9363d6576/src/tokens/ERC20.sol\":16244:16280  sstore(keccak256(0x2c, 0x34), value) */\n      sstore\n        /* \"https://github.com/Vectorized/solady/blob/e4a14a5b365b353352f7c38e699a2bc9363d6576/src/tokens/ERC20.sol\":16394:16401  spender */\n      dup11\n        /* \"https://github.com/Vectorized/solady/blob/e4a14a5b365b353352f7c38e699a2bc9363d6576/src/tokens/ERC20.sol\":16387:16392  owner */\n      dup13\n        /* \"https://github.com/Vectorized/solady/blob/e4a14a5b365b353352f7c38e699a2bc9363d6576/src/tokens/ERC20.sol\":16360:16385  _APPROVAL_EVENT_SIGNATURE */\n      0x8c5be1e5ebec7d5bd14f71427d1e84f3dd0314c0f7b2291e5b200ac8c7c3b925\n        /* \"https://github.com/Vectorized/solady/blob/e4a14a5b365b353352f7c38e699a2bc9363d6576/src/tokens/ERC20.sol\":16354:16358  0x20 */\n      0x20\n        /* \"https://github.com/Vectorized/solady/blob/e4a14a5b365b353352f7c38e699a2bc9363d6576/src/tokens/ERC20.sol\":16347:16351  0x60 */\n      0x60\n        /* \"https://github.com/Vectorized/solady/blob/e4a14a5b365b353352f7c38e699a2bc9363d6576/src/tokens/ERC20.sol\":16344:16345  m */\n      dup9\n        /* \"https://github.com/Vectorized/solady/blob/e4a14a5b365b353352f7c38e699a2bc9363d6576/src/tokens/ERC20.sol\":16340:16352  add(m, 0x60) */\n      add\n        /* \"https://github.com/Vectorized/solady/blob/e4a14a5b365b353352f7c38e699a2bc9363d6576/src/tokens/ERC20.sol\":16335:16402  log3(add(m, 0x60), 0x20, _APPROVAL_EVENT_SIGNATURE, owner, spender) */\n      log3\n        /* \"https://github.com/Vectorized/solady/blob/e4a14a5b365b353352f7c38e699a2bc9363d6576/src/tokens/ERC20.sol\":16428:16429  m */\n      dup4\n        /* \"https://github.com/Vectorized/solady/blob/e4a14a5b365b353352f7c38e699a2bc9363d6576/src/tokens/ERC20.sol\":16422:16426  0x40 */\n      0x40\n        /* \"https://github.com/Vectorized/solady/blob/e4a14a5b365b353352f7c38e699a2bc9363d6576/src/tokens/ERC20.sol\":16415:16430  mstore(0x40, m) */\n      mstore\n        /* \"https://github.com/Vectorized/solady/blob/e4a14a5b365b353352f7c38e699a2bc9363d6576/src/tokens/ERC20.sol\":16492:16493  0 */\n      0x00\n        /* \"https://github.com/Vectorized/solady/blob/e4a14a5b365b353352f7c38e699a2bc9363d6576/src/tokens/ERC20.sol\":16486:16490  0x60 */\n      0x60\n        /* \"https://github.com/Vectorized/solady/blob/e4a14a5b365b353352f7c38e699a2bc9363d6576/src/tokens/ERC20.sol\":16479:16494  mstore(0x60, 0) */\n      mstore\n        /* \"https://github.com/Vectorized/solady/blob/e4a14a5b365b353352f7c38e699a2bc9363d6576/src/tokens/ERC20.sol\":13790:16533  {... */\n      pop\n      pop\n      pop\n      pop\n      pop\n        /* \"https://github.com/Vectorized/solady/blob/e4a14a5b365b353352f7c38e699a2bc9363d6576/src/tokens/ERC20.sol\":13324:16539  function permit(... */\n      pop\n      pop\n      pop\n      pop\n      pop\n      pop\n      pop\n      jump\t// out\n        /* \"https://github.com/Vectorized/solady/blob/e4a14a5b365b353352f7c38e699a2bc9363d6576/src/tokens/ERC20.sol\":6929:7304  function allowance(address owner, address spender)... */\n    tag_91:\n        /* \"https://github.com/Vectorized/solady/blob/e4a14a5b365b353352f7c38e699a2bc9363d6576/src/tokens/ERC20.sol\":7041:7055  uint256 result */\n      0x00\n        /* \"https://github.com/Vectorized/solady/blob/e4a14a5b365b353352f7c38e699a2bc9363d6576/src/tokens/ERC20.sol\":7150:7157  spender */\n      dup2\n        /* \"https://github.com/Vectorized/solady/blob/e4a14a5b365b353352f7c38e699a2bc9363d6576/src/tokens/ERC20.sol\":7144:7148  0x20 */\n      0x20\n        /* \"https://github.com/Vectorized/solady/blob/e4a14a5b365b353352f7c38e699a2bc9363d6576/src/tokens/ERC20.sol\":7137:7158  mstore(0x20, spender) */\n      mstore\n        /* \"https://github.com/Vectorized/solady/blob/e4a14a5b365b353352f7c38e699a2bc9363d6576/src/tokens/ERC20.sol\":7184:7204  _ALLOWANCE_SLOT_SEED */\n      0x7f5e9f20\n        /* \"https://github.com/Vectorized/solady/blob/e4a14a5b365b353352f7c38e699a2bc9363d6576/src/tokens/ERC20.sol\":7178:7182  0x0c */\n      0x0c\n        /* \"https://github.com/Vectorized/solady/blob/e4a14a5b365b353352f7c38e699a2bc9363d6576/src/tokens/ERC20.sol\":7171:7205  mstore(0x0c, _ALLOWANCE_SLOT_SEED) */\n      mstore\n        /* \"https://github.com/Vectorized/solady/blob/e4a14a5b365b353352f7c38e699a2bc9363d6576/src/tokens/ERC20.sol\":7231:7236  owner */\n      dup3\n        /* \"https://github.com/Vectorized/solady/blob/e4a14a5b365b353352f7c38e699a2bc9363d6576/src/tokens/ERC20.sol\":7225:7229  0x00 */\n      0x00\n        /* \"https://github.com/Vectorized/solady/blob/e4a14a5b365b353352f7c38e699a2bc9363d6576/src/tokens/ERC20.sol\":7218:7237  mstore(0x00, owner) */\n      mstore\n        /* \"https://github.com/Vectorized/solady/blob/e4a14a5b365b353352f7c38e699a2bc9363d6576/src/tokens/ERC20.sol\":7282:7286  0x34 */\n      0x34\n        /* \"https://github.com/Vectorized/solady/blob/e4a14a5b365b353352f7c38e699a2bc9363d6576/src/tokens/ERC20.sol\":7276:7280  0x0c */\n      0x0c\n        /* \"https://github.com/Vectorized/solady/blob/e4a14a5b365b353352f7c38e699a2bc9363d6576/src/tokens/ERC20.sol\":7266:7287  keccak256(0x0c, 0x34) */\n      keccak256\n        /* \"https://github.com/Vectorized/solady/blob/e4a14a5b365b353352f7c38e699a2bc9363d6576/src/tokens/ERC20.sol\":7260:7288  sload(keccak256(0x0c, 0x34)) */\n      sload\n        /* \"https://github.com/Vectorized/solady/blob/e4a14a5b365b353352f7c38e699a2bc9363d6576/src/tokens/ERC20.sol\":7250:7288  result := sload(keccak256(0x0c, 0x34)) */\n      swap1\n      pop\n        /* \"https://github.com/Vectorized/solady/blob/e4a14a5b365b353352f7c38e699a2bc9363d6576/src/tokens/ERC20.sol\":6929:7304  function allowance(address owner, address spender)... */\n      swap3\n      swap2\n      pop\n      pop\n      jump\t// out\n        /* \"contracts/Pool.sol\":2932:3426  function deposit(uint256 amount0, uint256 amount1) external returns(uint256){... */\n    tag_96:\n        /* \"contracts/Pool.sol\":3000:3007  uint256 */\n      0x00\n        /* \"contracts/Pool.sol\":3019:3040  uint256 quotedAmount1 */\n      dup1\n        /* \"contracts/Pool.sol\":3043:3068  _quote(s_token0, amount0) */\n      tag_189\n        /* \"contracts/Pool.sol\":3050:3058  s_token0 */\n      0x02\n      0x00\n      swap1\n      sload\n      swap1\n      0x0100\n      exp\n      swap1\n      div\n      0xffffffffffffffffffffffffffffffffffffffff\n      and\n        /* \"contracts/Pool.sol\":3060:3067  amount0 */\n      dup6\n        /* \"contracts/Pool.sol\":3043:3049  _quote */\n      tag_145\n        /* \"contracts/Pool.sol\":3043:3068  _quote(s_token0, amount0) */\n      jump\t// in\n    tag_189:\n        /* \"contracts/Pool.sol\":3019:3068  uint256 quotedAmount1 = _quote(s_token0, amount0) */\n      swap1\n      pop\n        /* \"contracts/Pool.sol\":3098:3105  amount1 */\n      dup3\n        /* \"contracts/Pool.sol\":3082:3095  quotedAmount1 */\n      dup2\n        /* \"contracts/Pool.sol\":3082:3105  quotedAmount1 < amount1 */\n      lt\n        /* \"contracts/Pool.sol\":3079:3135  if(quotedAmount1 < amount1) revert INSUFFICIENT_AMOUNT() */\n      iszero\n      tag_190\n      jumpi\n        /* \"contracts/Pool.sol\":3114:3135  INSUFFICIENT_AMOUNT() */\n      mload(0x40)\n      0x2cd294cf00000000000000000000000000000000000000000000000000000000\n      dup2\n      mstore\n      0x04\n      add\n      mload(0x40)\n      dup1\n      swap2\n      sub\n      swap1\n      revert\n        /* \"contracts/Pool.sol\":3079:3135  if(quotedAmount1 < amount1) revert INSUFFICIENT_AMOUNT() */\n    tag_190:\n        /* \"contracts/Pool.sol\":3146:3163  uint _totalSupply */\n      0x00\n        /* \"contracts/Pool.sol\":3166:3179  totalSupply() */\n      tag_191\n        /* \"contracts/Pool.sol\":3166:3177  totalSupply */\n      tag_34\n        /* \"contracts/Pool.sol\":3166:3179  totalSupply() */\n      jump\t// in\n    tag_191:\n        /* \"contracts/Pool.sol\":3146:3179  uint _totalSupply = totalSupply() */\n      swap1\n      pop\n        /* \"contracts/Pool.sol\":3190:3207  uint256 liquidity */\n      0x00\n        /* \"contracts/Pool.sol\":3210:3287  min(amount0 * s_reserve0 / _totalSupply, amount1 * s_reserve1 / _totalSupply) */\n      tag_192\n        /* \"contracts/Pool.sol\":3237:3249  _totalSupply */\n      dup3\n        /* \"contracts/Pool.sol\":3224:3234  s_reserve0 */\n      sload(0x04)\n        /* \"contracts/Pool.sol\":3214:3221  amount0 */\n      dup9\n        /* \"contracts/Pool.sol\":3214:3234  amount0 * s_reserve0 */\n      tag_193\n      swap2\n      swap1\n      tag_116\n      jump\t// in\n    tag_193:\n        /* \"contracts/Pool.sol\":3214:3249  amount0 * s_reserve0 / _totalSupply */\n      tag_194\n      swap2\n      swap1\n      tag_118\n      jump\t// in\n    tag_194:\n        /* \"contracts/Pool.sol\":3274:3286  _totalSupply */\n      dup4\n        /* \"contracts/Pool.sol\":3261:3271  s_reserve1 */\n      sload(0x05)\n        /* \"contracts/Pool.sol\":3251:3258  amount1 */\n      dup9\n        /* \"contracts/Pool.sol\":3251:3271  amount1 * s_reserve1 */\n      tag_195\n      swap2\n      swap1\n      tag_116\n      jump\t// in\n    tag_195:\n        /* \"contracts/Pool.sol\":3251:3286  amount1 * s_reserve1 / _totalSupply */\n      tag_196\n      swap2\n      swap1\n      tag_118\n      jump\t// in\n    tag_196:\n        /* \"contracts/Pool.sol\":3210:3213  min */\n      tag_197\n        /* \"contracts/Pool.sol\":3210:3287  min(amount0 * s_reserve0 / _totalSupply, amount1 * s_reserve1 / _totalSupply) */\n      jump\t// in\n    tag_192:\n        /* \"contracts/Pool.sol\":3190:3287  uint256 liquidity = min(amount0 * s_reserve0 / _totalSupply, amount1 * s_reserve1 / _totalSupply) */\n      swap1\n      pop\n        /* \"contracts/Pool.sol\":3298:3326  _mint(msg.sender, liquidity) */\n      tag_198\n        /* \"contracts/Pool.sol\":3304:3314  msg.sender */\n      caller\n        /* \"contracts/Pool.sol\":3316:3325  liquidity */\n      dup3\n        /* \"contracts/Pool.sol\":3298:3303  _mint */\n      tag_199\n        /* \"contracts/Pool.sol\":3298:3326  _mint(msg.sender, liquidity) */\n      jump\t// in\n    tag_198:\n        /* \"contracts/Pool.sol\":3351:3358  amount0 */\n      dup6\n        /* \"contracts/Pool.sol\":3337:3347  s_reserve0 */\n      0x04\n      0x00\n        /* \"contracts/Pool.sol\":3337:3358  s_reserve0 += amount0 */\n      dup3\n      dup3\n      sload\n      tag_200\n      swap2\n      swap1\n      tag_177\n      jump\t// in\n    tag_200:\n      swap3\n      pop\n      pop\n      dup2\n      swap1\n      sstore\n      pop\n        /* \"contracts/Pool.sol\":3383:3390  amount1 */\n      dup5\n        /* \"contracts/Pool.sol\":3369:3379  s_reserve1 */\n      0x05\n      0x00\n        /* \"contracts/Pool.sol\":3369:3390  s_reserve1 += amount1 */\n      dup3\n      dup3\n      sload\n      tag_201\n      swap2\n      swap1\n      tag_177\n      jump\t// in\n    tag_201:\n      swap3\n      pop\n      pop\n      dup2\n      swap1\n      sstore\n      pop\n        /* \"contracts/Pool.sol\":3408:3417  liquidity */\n      dup1\n        /* \"contracts/Pool.sol\":3401:3417  return liquidity */\n      swap4\n      pop\n      pop\n      pop\n      pop\n        /* \"contracts/Pool.sol\":2932:3426  function deposit(uint256 amount0, uint256 amount1) external returns(uint256){... */\n      swap3\n      swap2\n      pop\n      pop\n      jump\t// out\n        /* \"https://github.com/Vectorized/solady/blob/e4a14a5b365b353352f7c38e699a2bc9363d6576/src/tokens/ERC20.sol\":24588:24679  function _beforeTokenTransfer(address from, address to, uint256 amount) internal virtual {} */\n    tag_105:\n      pop\n      pop\n      pop\n      jump\t// out\n        /* \"https://github.com/Vectorized/solady/blob/e4a14a5b365b353352f7c38e699a2bc9363d6576/src/tokens/ERC20.sol\":24791:24881  function _afterTokenTransfer(address from, address to, uint256 amount) internal virtual {} */\n    tag_110:\n      pop\n      pop\n      pop\n      jump\t// out\n        /* \"contracts/Pool.sol\":4648:4857  function _transfer(address token, address from, address to, uint256 amount) private{... */\n    tag_124:\n        /* \"contracts/Pool.sol\":4742:4754  bool success */\n      0x00\n        /* \"contracts/Pool.sol\":4764:4769  token */\n      dup5\n        /* \"contracts/Pool.sol\":4757:4783  IERC20(token).transferFrom */\n      0xffffffffffffffffffffffffffffffffffffffff\n      and\n      0x23b872dd\n        /* \"contracts/Pool.sol\":4784:4788  from */\n      dup6\n        /* \"contracts/Pool.sol\":4790:4792  to */\n      dup6\n        /* \"contracts/Pool.sol\":4794:4800  amount */\n      dup6\n        /* \"contracts/Pool.sol\":4757:4801  IERC20(token).transferFrom(from, to, amount) */\n      mload(0x40)\n      dup5\n      0xffffffff\n      and\n      0xe0\n      shl\n      dup2\n      mstore\n      0x04\n      add\n      tag_205\n      swap4\n      swap3\n      swap2\n      swap1\n      tag_206\n      jump\t// in\n    tag_205:\n      0x20\n      mload(0x40)\n      dup1\n      dup4\n      sub\n      dup2\n      0x00\n      dup8\n      gas\n      call\n      iszero\n      dup1\n      iszero\n      tag_208\n      jumpi\n      returndatasize\n      0x00\n      dup1\n      returndatacopy\n      revert(0x00, returndatasize)\n    tag_208:\n      pop\n      pop\n      pop\n      pop\n      mload(0x40)\n      returndatasize\n      not(0x1f)\n      0x1f\n      dup3\n      add\n      and\n      dup3\n      add\n      dup1\n      0x40\n      mstore\n      pop\n      dup2\n      add\n      swap1\n      tag_209\n      swap2\n      swap1\n      tag_210\n      jump\t// in\n    tag_209:\n        /* \"contracts/Pool.sol\":4742:4801  bool success = IERC20(token).transferFrom(from, to, amount) */\n      swap1\n      pop\n        /* \"contracts/Pool.sol\":4816:4823  success */\n      dup1\n        /* \"contracts/Pool.sol\":4812:4849  if(!success) revert TRANSFER_FAILED() */\n      tag_211\n      jumpi\n        /* \"contracts/Pool.sol\":4832:4849  TRANSFER_FAILED() */\n      mload(0x40)\n      0x3f4ab80e00000000000000000000000000000000000000000000000000000000\n      dup2\n      mstore\n      0x04\n      add\n      mload(0x40)\n      dup1\n      swap2\n      sub\n      swap1\n      revert\n        /* \"contracts/Pool.sol\":4812:4849  if(!success) revert TRANSFER_FAILED() */\n    tag_211:\n        /* \"contracts/Pool.sol\":4731:4857  {... */\n      pop\n        /* \"contracts/Pool.sol\":4648:4857  function _transfer(address token, address from, address to, uint256 amount) private{... */\n      pop\n      pop\n      pop\n      pop\n      jump\t// out\n        /* \"https://github.com/Vectorized/solady/blob/e4a14a5b365b353352f7c38e699a2bc9363d6576/src/tokens/ERC20.sol\":19295:20414  function _burn(address from, uint256 amount) internal virtual {... */\n    tag_127:\n        /* \"https://github.com/Vectorized/solady/blob/e4a14a5b365b353352f7c38e699a2bc9363d6576/src/tokens/ERC20.sol\":19367:19413  _beforeTokenTransfer(from, address(0), amount) */\n      tag_213\n        /* \"https://github.com/Vectorized/solady/blob/e4a14a5b365b353352f7c38e699a2bc9363d6576/src/tokens/ERC20.sol\":19388:19392  from */\n      dup3\n        /* \"https://github.com/Vectorized/solady/blob/e4a14a5b365b353352f7c38e699a2bc9363d6576/src/tokens/ERC20.sol\":19402:19403  0 */\n      0x00\n        /* \"https://github.com/Vectorized/solady/blob/e4a14a5b365b353352f7c38e699a2bc9363d6576/src/tokens/ERC20.sol\":19406:19412  amount */\n      dup4\n        /* \"https://github.com/Vectorized/solady/blob/e4a14a5b365b353352f7c38e699a2bc9363d6576/src/tokens/ERC20.sol\":19367:19387  _beforeTokenTransfer */\n      tag_105\n        /* \"https://github.com/Vectorized/solady/blob/e4a14a5b365b353352f7c38e699a2bc9363d6576/src/tokens/ERC20.sol\":19367:19413  _beforeTokenTransfer(from, address(0), amount) */\n      jump\t// in\n    tag_213:\n        /* \"https://github.com/Vectorized/solady/blob/e4a14a5b365b353352f7c38e699a2bc9363d6576/src/tokens/ERC20.sol\":19562:19580  _BALANCE_SLOT_SEED */\n      0x87a211a2\n        /* \"https://github.com/Vectorized/solady/blob/e4a14a5b365b353352f7c38e699a2bc9363d6576/src/tokens/ERC20.sol\":19556:19560  0x0c */\n      0x0c\n        /* \"https://github.com/Vectorized/solady/blob/e4a14a5b365b353352f7c38e699a2bc9363d6576/src/tokens/ERC20.sol\":19549:19581  mstore(0x0c, _BALANCE_SLOT_SEED) */\n      mstore\n        /* \"https://github.com/Vectorized/solady/blob/e4a14a5b365b353352f7c38e699a2bc9363d6576/src/tokens/ERC20.sol\":19607:19611  from */\n      dup2\n        /* \"https://github.com/Vectorized/solady/blob/e4a14a5b365b353352f7c38e699a2bc9363d6576/src/tokens/ERC20.sol\":19601:19605  0x00 */\n      0x00\n        /* \"https://github.com/Vectorized/solady/blob/e4a14a5b365b353352f7c38e699a2bc9363d6576/src/tokens/ERC20.sol\":19594:19612  mstore(0x00, from) */\n      mstore\n        /* \"https://github.com/Vectorized/solady/blob/e4a14a5b365b353352f7c38e699a2bc9363d6576/src/tokens/ERC20.sol\":19664:19668  0x20 */\n      0x20\n        /* \"https://github.com/Vectorized/solady/blob/e4a14a5b365b353352f7c38e699a2bc9363d6576/src/tokens/ERC20.sol\":19658:19662  0x0c */\n      0x0c\n        /* \"https://github.com/Vectorized/solady/blob/e4a14a5b365b353352f7c38e699a2bc9363d6576/src/tokens/ERC20.sol\":19648:19669  keccak256(0x0c, 0x20) */\n      keccak256\n        /* \"https://github.com/Vectorized/solady/blob/e4a14a5b365b353352f7c38e699a2bc9363d6576/src/tokens/ERC20.sol\":19707:19722  fromBalanceSlot */\n      dup1\n        /* \"https://github.com/Vectorized/solady/blob/e4a14a5b365b353352f7c38e699a2bc9363d6576/src/tokens/ERC20.sol\":19701:19723  sload(fromBalanceSlot) */\n      sload\n        /* \"https://github.com/Vectorized/solady/blob/e4a14a5b365b353352f7c38e699a2bc9363d6576/src/tokens/ERC20.sol\":19797:19808  fromBalance */\n      dup1\n        /* \"https://github.com/Vectorized/solady/blob/e4a14a5b365b353352f7c38e699a2bc9363d6576/src/tokens/ERC20.sol\":19789:19795  amount */\n      dup4\n        /* \"https://github.com/Vectorized/solady/blob/e4a14a5b365b353352f7c38e699a2bc9363d6576/src/tokens/ERC20.sol\":19786:19809  gt(amount, fromBalance) */\n      gt\n        /* \"https://github.com/Vectorized/solady/blob/e4a14a5b365b353352f7c38e699a2bc9363d6576/src/tokens/ERC20.sol\":19783:19929  if gt(amount, fromBalance) {... */\n      iszero\n      tag_214\n      jumpi\n        /* \"https://github.com/Vectorized/solady/blob/e4a14a5b365b353352f7c38e699a2bc9363d6576/src/tokens/ERC20.sol\":19841:19851  0xf4d678b8 */\n      0xf4d678b8\n        /* \"https://github.com/Vectorized/solady/blob/e4a14a5b365b353352f7c38e699a2bc9363d6576/src/tokens/ERC20.sol\":19835:19839  0x00 */\n      0x00\n        /* \"https://github.com/Vectorized/solady/blob/e4a14a5b365b353352f7c38e699a2bc9363d6576/src/tokens/ERC20.sol\":19828:19852  mstore(0x00, 0xf4d678b8) */\n      mstore\n        /* \"https://github.com/Vectorized/solady/blob/e4a14a5b365b353352f7c38e699a2bc9363d6576/src/tokens/ERC20.sol\":19910:19914  0x04 */\n      0x04\n        /* \"https://github.com/Vectorized/solady/blob/e4a14a5b365b353352f7c38e699a2bc9363d6576/src/tokens/ERC20.sol\":19904:19908  0x1c */\n      0x1c\n        /* \"https://github.com/Vectorized/solady/blob/e4a14a5b365b353352f7c38e699a2bc9363d6576/src/tokens/ERC20.sol\":19897:19915  revert(0x1c, 0x04) */\n      revert\n        /* \"https://github.com/Vectorized/solady/blob/e4a14a5b365b353352f7c38e699a2bc9363d6576/src/tokens/ERC20.sol\":19783:19929  if gt(amount, fromBalance) {... */\n    tag_214:\n        /* \"https://github.com/Vectorized/solady/blob/e4a14a5b365b353352f7c38e699a2bc9363d6576/src/tokens/ERC20.sol\":20038:20044  amount */\n      dup3\n        /* \"https://github.com/Vectorized/solady/blob/e4a14a5b365b353352f7c38e699a2bc9363d6576/src/tokens/ERC20.sol\":20025:20036  fromBalance */\n      dup2\n        /* \"https://github.com/Vectorized/solady/blob/e4a14a5b365b353352f7c38e699a2bc9363d6576/src/tokens/ERC20.sol\":20021:20045  sub(fromBalance, amount) */\n      sub\n        /* \"https://github.com/Vectorized/solady/blob/e4a14a5b365b353352f7c38e699a2bc9363d6576/src/tokens/ERC20.sol\":20004:20019  fromBalanceSlot */\n      dup3\n        /* \"https://github.com/Vectorized/solady/blob/e4a14a5b365b353352f7c38e699a2bc9363d6576/src/tokens/ERC20.sol\":19997:20046  sstore(fromBalanceSlot, sub(fromBalance, amount)) */\n      sstore\n        /* \"https://github.com/Vectorized/solady/blob/e4a14a5b365b353352f7c38e699a2bc9363d6576/src/tokens/ERC20.sol\":20177:20183  amount */\n      dup3\n        /* \"https://github.com/Vectorized/solady/blob/e4a14a5b365b353352f7c38e699a2bc9363d6576/src/tokens/ERC20.sol\":20156:20174  _TOTAL_SUPPLY_SLOT */\n      0x05345cdf77eb68f44c\n        /* \"https://github.com/Vectorized/solady/blob/e4a14a5b365b353352f7c38e699a2bc9363d6576/src/tokens/ERC20.sol\":20150:20175  sload(_TOTAL_SUPPLY_SLOT) */\n      sload\n        /* \"https://github.com/Vectorized/solady/blob/e4a14a5b365b353352f7c38e699a2bc9363d6576/src/tokens/ERC20.sol\":20146:20184  sub(sload(_TOTAL_SUPPLY_SLOT), amount) */\n      sub\n        /* \"https://github.com/Vectorized/solady/blob/e4a14a5b365b353352f7c38e699a2bc9363d6576/src/tokens/ERC20.sol\":20126:20144  _TOTAL_SUPPLY_SLOT */\n      0x05345cdf77eb68f44c\n        /* \"https://github.com/Vectorized/solady/blob/e4a14a5b365b353352f7c38e699a2bc9363d6576/src/tokens/ERC20.sol\":20119:20185  sstore(_TOTAL_SUPPLY_SLOT, sub(sload(_TOTAL_SUPPLY_SLOT), amount)) */\n      sstore\n        /* \"https://github.com/Vectorized/solady/blob/e4a14a5b365b353352f7c38e699a2bc9363d6576/src/tokens/ERC20.sol\":20253:20259  amount */\n      dup3\n        /* \"https://github.com/Vectorized/solady/blob/e4a14a5b365b353352f7c38e699a2bc9363d6576/src/tokens/ERC20.sol\":20247:20251  0x00 */\n      0x00\n        /* \"https://github.com/Vectorized/solady/blob/e4a14a5b365b353352f7c38e699a2bc9363d6576/src/tokens/ERC20.sol\":20240:20260  mstore(0x00, amount) */\n      mstore\n        /* \"https://github.com/Vectorized/solady/blob/e4a14a5b365b353352f7c38e699a2bc9363d6576/src/tokens/ERC20.sol\":20341:20342  0 */\n      0x00\n        /* \"https://github.com/Vectorized/solady/blob/e4a14a5b365b353352f7c38e699a2bc9363d6576/src/tokens/ERC20.sol\":20333:20337  from */\n      dup5\n        /* \"https://github.com/Vectorized/solady/blob/e4a14a5b365b353352f7c38e699a2bc9363d6576/src/tokens/ERC20.sol\":20329:20331  96 */\n      0x60\n        /* \"https://github.com/Vectorized/solady/blob/e4a14a5b365b353352f7c38e699a2bc9363d6576/src/tokens/ERC20.sol\":20325:20338  shl(96, from) */\n      shl\n        /* \"https://github.com/Vectorized/solady/blob/e4a14a5b365b353352f7c38e699a2bc9363d6576/src/tokens/ERC20.sol\":20321:20323  96 */\n      0x60\n        /* \"https://github.com/Vectorized/solady/blob/e4a14a5b365b353352f7c38e699a2bc9363d6576/src/tokens/ERC20.sol\":20317:20339  shr(96, shl(96, from)) */\n      shr\n        /* \"https://github.com/Vectorized/solady/blob/e4a14a5b365b353352f7c38e699a2bc9363d6576/src/tokens/ERC20.sol\":20290:20315  _TRANSFER_EVENT_SIGNATURE */\n      0xddf252ad1be2c89b69c2b068fc378daa952ba7f163c4a11628f55a4df523b3ef\n        /* \"https://github.com/Vectorized/solady/blob/e4a14a5b365b353352f7c38e699a2bc9363d6576/src/tokens/ERC20.sol\":20284:20288  0x20 */\n      0x20\n        /* \"https://github.com/Vectorized/solady/blob/e4a14a5b365b353352f7c38e699a2bc9363d6576/src/tokens/ERC20.sol\":20278:20282  0x00 */\n      0x00\n        /* \"https://github.com/Vectorized/solady/blob/e4a14a5b365b353352f7c38e699a2bc9363d6576/src/tokens/ERC20.sol\":20273:20343  log3(0x00, 0x20, _TRANSFER_EVENT_SIGNATURE, shr(96, shl(96, from)), 0) */\n      log3\n        /* \"https://github.com/Vectorized/solady/blob/e4a14a5b365b353352f7c38e699a2bc9363d6576/src/tokens/ERC20.sol\":19475:20353  {... */\n      pop\n      pop\n        /* \"https://github.com/Vectorized/solady/blob/e4a14a5b365b353352f7c38e699a2bc9363d6576/src/tokens/ERC20.sol\":20362:20407  _afterTokenTransfer(from, address(0), amount) */\n      tag_215\n        /* \"https://github.com/Vectorized/solady/blob/e4a14a5b365b353352f7c38e699a2bc9363d6576/src/tokens/ERC20.sol\":20382:20386  from */\n      dup3\n        /* \"https://github.com/Vectorized/solady/blob/e4a14a5b365b353352f7c38e699a2bc9363d6576/src/tokens/ERC20.sol\":20396:20397  0 */\n      0x00\n        /* \"https://github.com/Vectorized/solady/blob/e4a14a5b365b353352f7c38e699a2bc9363d6576/src/tokens/ERC20.sol\":20400:20406  amount */\n      dup4\n        /* \"https://github.com/Vectorized/solady/blob/e4a14a5b365b353352f7c38e699a2bc9363d6576/src/tokens/ERC20.sol\":20362:20381  _afterTokenTransfer */\n      tag_110\n        /* \"https://github.com/Vectorized/solady/blob/e4a14a5b365b353352f7c38e699a2bc9363d6576/src/tokens/ERC20.sol\":20362:20407  _afterTokenTransfer(from, address(0), amount) */\n      jump\t// in\n    tag_215:\n        /* \"https://github.com/Vectorized/solady/blob/e4a14a5b365b353352f7c38e699a2bc9363d6576/src/tokens/ERC20.sol\":19295:20414  function _burn(address from, uint256 amount) internal virtual {... */\n      pop\n      pop\n      jump\t// out\n        /* \"https://github.com/Vectorized/solady/blob/e4a14a5b365b353352f7c38e699a2bc9363d6576/src/tokens/ERC20.sol\":12591:12669  function _constantNameHash() internal view virtual returns (bytes32 result) {} */\n    tag_134:\n        /* \"https://github.com/Vectorized/solady/blob/e4a14a5b365b353352f7c38e699a2bc9363d6576/src/tokens/ERC20.sol\":12651:12665  bytes32 result */\n      0x00\n        /* \"https://github.com/Vectorized/solady/blob/e4a14a5b365b353352f7c38e699a2bc9363d6576/src/tokens/ERC20.sol\":12591:12669  function _constantNameHash() internal view virtual returns (bytes32 result) {} */\n      swap1\n      jump\t// out\n        /* \"contracts/Pool.sol\":4315:4640  function _quote(address token, uint256 amount) private view returns(uint256){... */\n    tag_145:\n        /* \"contracts/Pool.sol\":4383:4390  uint256 */\n      0x00\n        /* \"contracts/Pool.sol\":4402:4416  address token0 */\n      dup1\n        /* \"contracts/Pool.sol\":4419:4427  s_token0 */\n      0x02\n      0x00\n      swap1\n      sload\n      swap1\n      0x0100\n      exp\n      swap1\n      div\n      0xffffffffffffffffffffffffffffffffffffffff\n      and\n        /* \"contracts/Pool.sol\":4402:4427  address token0 = s_token0 */\n      swap1\n      pop\n        /* \"contracts/Pool.sol\":4438:4457  uint256 baseReserve */\n      0x00\n        /* \"contracts/Pool.sol\":4469:4475  token0 */\n      dup2\n        /* \"contracts/Pool.sol\":4460:4475  token == token0 */\n      0xffffffffffffffffffffffffffffffffffffffff\n      and\n        /* \"contracts/Pool.sol\":4460:4465  token */\n      dup6\n        /* \"contracts/Pool.sol\":4460:4475  token == token0 */\n      0xffffffffffffffffffffffffffffffffffffffff\n      and\n      eq\n        /* \"contracts/Pool.sol\":4460:4501  token == token0 ? s_reserve0 : s_reserve1 */\n      tag_218\n      jumpi\n        /* \"contracts/Pool.sol\":4491:4501  s_reserve1 */\n      sload(0x05)\n        /* \"contracts/Pool.sol\":4460:4501  token == token0 ? s_reserve0 : s_reserve1 */\n      jump(tag_219)\n    tag_218:\n        /* \"contracts/Pool.sol\":4478:4488  s_reserve0 */\n      sload(0x04)\n        /* \"contracts/Pool.sol\":4460:4501  token == token0 ? s_reserve0 : s_reserve1 */\n    tag_219:\n        /* \"contracts/Pool.sol\":4438:4501  uint256 baseReserve = token == token0 ? s_reserve0 : s_reserve1 */\n      swap1\n      pop\n        /* \"contracts/Pool.sol\":4512:4532  uint256 quoteReserve */\n      0x00\n        /* \"contracts/Pool.sol\":4544:4550  token0 */\n      dup3\n        /* \"contracts/Pool.sol\":4535:4550  token == token0 */\n      0xffffffffffffffffffffffffffffffffffffffff\n      and\n        /* \"contracts/Pool.sol\":4535:4540  token */\n      dup7\n        /* \"contracts/Pool.sol\":4535:4550  token == token0 */\n      0xffffffffffffffffffffffffffffffffffffffff\n      and\n      eq\n        /* \"contracts/Pool.sol\":4535:4576  token == token0 ? s_reserve1 : s_reserve0 */\n      tag_220\n      jumpi\n        /* \"contracts/Pool.sol\":4566:4576  s_reserve0 */\n      sload(0x04)\n        /* \"contracts/Pool.sol\":4535:4576  token == token0 ? s_reserve1 : s_reserve0 */\n      jump(tag_221)\n    tag_220:\n        /* \"contracts/Pool.sol\":4553:4563  s_reserve1 */\n      sload(0x05)\n        /* \"contracts/Pool.sol\":4535:4576  token == token0 ? s_reserve1 : s_reserve0 */\n    tag_221:\n        /* \"contracts/Pool.sol\":4512:4576  uint256 quoteReserve = token == token0 ? s_reserve1 : s_reserve0 */\n      swap1\n      pop\n        /* \"contracts/Pool.sol\":4619:4631  quoteReserve */\n      dup1\n        /* \"contracts/Pool.sol\":4609:4615  amount */\n      dup6\n        /* \"contracts/Pool.sol\":4595:4606  baseReserve */\n      dup4\n        /* \"contracts/Pool.sol\":4595:4615  baseReserve * amount */\n      tag_222\n      swap2\n      swap1\n      tag_116\n      jump\t// in\n    tag_222:\n        /* \"contracts/Pool.sol\":4594:4631  (baseReserve * amount) / quoteReserve */\n      tag_223\n      swap2\n      swap1\n      tag_118\n      jump\t// in\n    tag_223:\n        /* \"contracts/Pool.sol\":4587:4631  return (baseReserve * amount) / quoteReserve */\n      swap4\n      pop\n      pop\n      pop\n      pop\n        /* \"contracts/Pool.sol\":4315:4640  function _quote(address token, uint256 amount) private view returns(uint256){... */\n      swap3\n      swap2\n      pop\n      pop\n      jump\t// out\n        /* \"contracts/Pool.sol\":4865:4971  function min(uint256 a, uint256 b) internal pure returns (uint256) {... */\n    tag_197:\n        /* \"contracts/Pool.sol\":4923:4930  uint256 */\n      0x00\n        /* \"contracts/Pool.sol\":4954:4955  b */\n      dup2\n        /* \"contracts/Pool.sol\":4950:4951  a */\n      dup4\n        /* \"contracts/Pool.sol\":4950:4955  a < b */\n      lt\n        /* \"contracts/Pool.sol\":4950:4963  a < b ? a : b */\n      tag_225\n      jumpi\n        /* \"contracts/Pool.sol\":4962:4963  b */\n      dup2\n        /* \"contracts/Pool.sol\":4950:4963  a < b ? a : b */\n      jump(tag_226)\n    tag_225:\n        /* \"contracts/Pool.sol\":4958:4959  a */\n      dup3\n        /* \"contracts/Pool.sol\":4950:4963  a < b ? a : b */\n    tag_226:\n        /* \"contracts/Pool.sol\":4943:4963  return a < b ? a : b */\n      swap1\n      pop\n        /* \"contracts/Pool.sol\":4865:4971  function min(uint256 a, uint256 b) internal pure returns (uint256) {... */\n      swap3\n      swap2\n      pop\n      pop\n      jump\t// out\n        /* \"https://github.com/Vectorized/solady/blob/e4a14a5b365b353352f7c38e699a2bc9363d6576/src/tokens/ERC20.sol\":17717:18889  function _mint(address to, uint256 amount) internal virtual {... */\n    tag_199:\n        /* \"https://github.com/Vectorized/solady/blob/e4a14a5b365b353352f7c38e699a2bc9363d6576/src/tokens/ERC20.sol\":17787:17831  _beforeTokenTransfer(address(0), to, amount) */\n      tag_228\n        /* \"https://github.com/Vectorized/solady/blob/e4a14a5b365b353352f7c38e699a2bc9363d6576/src/tokens/ERC20.sol\":17816:17817  0 */\n      0x00\n        /* \"https://github.com/Vectorized/solady/blob/e4a14a5b365b353352f7c38e699a2bc9363d6576/src/tokens/ERC20.sol\":17820:17822  to */\n      dup4\n        /* \"https://github.com/Vectorized/solady/blob/e4a14a5b365b353352f7c38e699a2bc9363d6576/src/tokens/ERC20.sol\":17824:17830  amount */\n      dup4\n        /* \"https://github.com/Vectorized/solady/blob/e4a14a5b365b353352f7c38e699a2bc9363d6576/src/tokens/ERC20.sol\":17787:17807  _beforeTokenTransfer */\n      tag_105\n        /* \"https://github.com/Vectorized/solady/blob/e4a14a5b365b353352f7c38e699a2bc9363d6576/src/tokens/ERC20.sol\":17787:17831  _beforeTokenTransfer(address(0), to, amount) */\n      jump\t// in\n    tag_228:\n        /* \"https://github.com/Vectorized/solady/blob/e4a14a5b365b353352f7c38e699a2bc9363d6576/src/tokens/ERC20.sol\":17938:17956  _TOTAL_SUPPLY_SLOT */\n      0x05345cdf77eb68f44c\n        /* \"https://github.com/Vectorized/solady/blob/e4a14a5b365b353352f7c38e699a2bc9363d6576/src/tokens/ERC20.sol\":17932:17957  sload(_TOTAL_SUPPLY_SLOT) */\n      sload\n        /* \"https://github.com/Vectorized/solady/blob/e4a14a5b365b353352f7c38e699a2bc9363d6576/src/tokens/ERC20.sol\":18017:18023  amount */\n      dup2\n        /* \"https://github.com/Vectorized/solady/blob/e4a14a5b365b353352f7c38e699a2bc9363d6576/src/tokens/ERC20.sol\":17998:18015  totalSupplyBefore */\n      dup2\n        /* \"https://github.com/Vectorized/solady/blob/e4a14a5b365b353352f7c38e699a2bc9363d6576/src/tokens/ERC20.sol\":17994:18024  add(totalSupplyBefore, amount) */\n      add\n        /* \"https://github.com/Vectorized/solady/blob/e4a14a5b365b353352f7c38e699a2bc9363d6576/src/tokens/ERC20.sol\":18114:18131  totalSupplyBefore */\n      dup2\n        /* \"https://github.com/Vectorized/solady/blob/e4a14a5b365b353352f7c38e699a2bc9363d6576/src/tokens/ERC20.sol\":18096:18112  totalSupplyAfter */\n      dup2\n        /* \"https://github.com/Vectorized/solady/blob/e4a14a5b365b353352f7c38e699a2bc9363d6576/src/tokens/ERC20.sol\":18093:18132  lt(totalSupplyAfter, totalSupplyBefore) */\n      lt\n        /* \"https://github.com/Vectorized/solady/blob/e4a14a5b365b353352f7c38e699a2bc9363d6576/src/tokens/ERC20.sol\":18090:18252  if lt(totalSupplyAfter, totalSupplyBefore) {... */\n      iszero\n      tag_229\n      jumpi\n        /* \"https://github.com/Vectorized/solady/blob/e4a14a5b365b353352f7c38e699a2bc9363d6576/src/tokens/ERC20.sol\":18164:18174  0xe5cfe957 */\n      0xe5cfe957\n        /* \"https://github.com/Vectorized/solady/blob/e4a14a5b365b353352f7c38e699a2bc9363d6576/src/tokens/ERC20.sol\":18158:18162  0x00 */\n      0x00\n        /* \"https://github.com/Vectorized/solady/blob/e4a14a5b365b353352f7c38e699a2bc9363d6576/src/tokens/ERC20.sol\":18151:18175  mstore(0x00, 0xe5cfe957) */\n      mstore\n        /* \"https://github.com/Vectorized/solady/blob/e4a14a5b365b353352f7c38e699a2bc9363d6576/src/tokens/ERC20.sol\":18233:18237  0x04 */\n      0x04\n        /* \"https://github.com/Vectorized/solady/blob/e4a14a5b365b353352f7c38e699a2bc9363d6576/src/tokens/ERC20.sol\":18227:18231  0x1c */\n      0x1c\n        /* \"https://github.com/Vectorized/solady/blob/e4a14a5b365b353352f7c38e699a2bc9363d6576/src/tokens/ERC20.sol\":18220:18238  revert(0x1c, 0x04) */\n      revert\n        /* \"https://github.com/Vectorized/solady/blob/e4a14a5b365b353352f7c38e699a2bc9363d6576/src/tokens/ERC20.sol\":18090:18252  if lt(totalSupplyAfter, totalSupplyBefore) {... */\n    tag_229:\n        /* \"https://github.com/Vectorized/solady/blob/e4a14a5b365b353352f7c38e699a2bc9363d6576/src/tokens/ERC20.sol\":18339:18355  totalSupplyAfter */\n      dup1\n        /* \"https://github.com/Vectorized/solady/blob/e4a14a5b365b353352f7c38e699a2bc9363d6576/src/tokens/ERC20.sol\":18319:18337  _TOTAL_SUPPLY_SLOT */\n      0x05345cdf77eb68f44c\n        /* \"https://github.com/Vectorized/solady/blob/e4a14a5b365b353352f7c38e699a2bc9363d6576/src/tokens/ERC20.sol\":18312:18356  sstore(_TOTAL_SUPPLY_SLOT, totalSupplyAfter) */\n      sstore\n        /* \"https://github.com/Vectorized/solady/blob/e4a14a5b365b353352f7c38e699a2bc9363d6576/src/tokens/ERC20.sol\":18442:18460  _BALANCE_SLOT_SEED */\n      0x87a211a2\n        /* \"https://github.com/Vectorized/solady/blob/e4a14a5b365b353352f7c38e699a2bc9363d6576/src/tokens/ERC20.sol\":18436:18440  0x0c */\n      0x0c\n        /* \"https://github.com/Vectorized/solady/blob/e4a14a5b365b353352f7c38e699a2bc9363d6576/src/tokens/ERC20.sol\":18429:18461  mstore(0x0c, _BALANCE_SLOT_SEED) */\n      mstore\n        /* \"https://github.com/Vectorized/solady/blob/e4a14a5b365b353352f7c38e699a2bc9363d6576/src/tokens/ERC20.sol\":18487:18489  to */\n      dup4\n        /* \"https://github.com/Vectorized/solady/blob/e4a14a5b365b353352f7c38e699a2bc9363d6576/src/tokens/ERC20.sol\":18481:18485  0x00 */\n      0x00\n        /* \"https://github.com/Vectorized/solady/blob/e4a14a5b365b353352f7c38e699a2bc9363d6576/src/tokens/ERC20.sol\":18474:18490  mstore(0x00, to) */\n      mstore\n        /* \"https://github.com/Vectorized/solady/blob/e4a14a5b365b353352f7c38e699a2bc9363d6576/src/tokens/ERC20.sol\":18540:18544  0x20 */\n      0x20\n        /* \"https://github.com/Vectorized/solady/blob/e4a14a5b365b353352f7c38e699a2bc9363d6576/src/tokens/ERC20.sol\":18534:18538  0x0c */\n      0x0c\n        /* \"https://github.com/Vectorized/solady/blob/e4a14a5b365b353352f7c38e699a2bc9363d6576/src/tokens/ERC20.sol\":18524:18545  keccak256(0x0c, 0x20) */\n      keccak256\n        /* \"https://github.com/Vectorized/solady/blob/e4a14a5b365b353352f7c38e699a2bc9363d6576/src/tokens/ERC20.sol\":18656:18662  amount */\n      dup4\n        /* \"https://github.com/Vectorized/solady/blob/e4a14a5b365b353352f7c38e699a2bc9363d6576/src/tokens/ERC20.sol\":18640:18653  toBalanceSlot */\n      dup2\n        /* \"https://github.com/Vectorized/solady/blob/e4a14a5b365b353352f7c38e699a2bc9363d6576/src/tokens/ERC20.sol\":18634:18654  sload(toBalanceSlot) */\n      sload\n        /* \"https://github.com/Vectorized/solady/blob/e4a14a5b365b353352f7c38e699a2bc9363d6576/src/tokens/ERC20.sol\":18630:18663  add(sload(toBalanceSlot), amount) */\n      add\n        /* \"https://github.com/Vectorized/solady/blob/e4a14a5b365b353352f7c38e699a2bc9363d6576/src/tokens/ERC20.sol\":18615:18628  toBalanceSlot */\n      dup2\n        /* \"https://github.com/Vectorized/solady/blob/e4a14a5b365b353352f7c38e699a2bc9363d6576/src/tokens/ERC20.sol\":18608:18664  sstore(toBalanceSlot, add(sload(toBalanceSlot), amount)) */\n      sstore\n        /* \"https://github.com/Vectorized/solady/blob/e4a14a5b365b353352f7c38e699a2bc9363d6576/src/tokens/ERC20.sol\":18732:18738  amount */\n      dup4\n        /* \"https://github.com/Vectorized/solady/blob/e4a14a5b365b353352f7c38e699a2bc9363d6576/src/tokens/ERC20.sol\":18726:18730  0x20 */\n      0x20\n        /* \"https://github.com/Vectorized/solady/blob/e4a14a5b365b353352f7c38e699a2bc9363d6576/src/tokens/ERC20.sol\":18719:18739  mstore(0x20, amount) */\n      mstore\n        /* \"https://github.com/Vectorized/solady/blob/e4a14a5b365b353352f7c38e699a2bc9363d6576/src/tokens/ERC20.sol\":18813:18817  0x0c */\n      0x0c\n        /* \"https://github.com/Vectorized/solady/blob/e4a14a5b365b353352f7c38e699a2bc9363d6576/src/tokens/ERC20.sol\":18807:18818  mload(0x0c) */\n      mload\n        /* \"https://github.com/Vectorized/solady/blob/e4a14a5b365b353352f7c38e699a2bc9363d6576/src/tokens/ERC20.sol\":18803:18805  96 */\n      0x60\n        /* \"https://github.com/Vectorized/solady/blob/e4a14a5b365b353352f7c38e699a2bc9363d6576/src/tokens/ERC20.sol\":18799:18819  shr(96, mload(0x0c)) */\n      shr\n        /* \"https://github.com/Vectorized/solady/blob/e4a14a5b365b353352f7c38e699a2bc9363d6576/src/tokens/ERC20.sol\":18796:18797  0 */\n      0x00\n        /* \"https://github.com/Vectorized/solady/blob/e4a14a5b365b353352f7c38e699a2bc9363d6576/src/tokens/ERC20.sol\":18769:18794  _TRANSFER_EVENT_SIGNATURE */\n      0xddf252ad1be2c89b69c2b068fc378daa952ba7f163c4a11628f55a4df523b3ef\n        /* \"https://github.com/Vectorized/solady/blob/e4a14a5b365b353352f7c38e699a2bc9363d6576/src/tokens/ERC20.sol\":18763:18767  0x20 */\n      0x20\n        /* \"https://github.com/Vectorized/solady/blob/e4a14a5b365b353352f7c38e699a2bc9363d6576/src/tokens/ERC20.sol\":18757:18761  0x20 */\n      dup1\n        /* \"https://github.com/Vectorized/solady/blob/e4a14a5b365b353352f7c38e699a2bc9363d6576/src/tokens/ERC20.sol\":18752:18820  log3(0x20, 0x20, _TRANSFER_EVENT_SIGNATURE, 0, shr(96, mload(0x0c))) */\n      log3\n        /* \"https://github.com/Vectorized/solady/blob/e4a14a5b365b353352f7c38e699a2bc9363d6576/src/tokens/ERC20.sol\":17893:18830  {... */\n      pop\n      pop\n      pop\n        /* \"https://github.com/Vectorized/solady/blob/e4a14a5b365b353352f7c38e699a2bc9363d6576/src/tokens/ERC20.sol\":18839:18882  _afterTokenTransfer(address(0), to, amount) */\n      tag_230\n        /* \"https://github.com/Vectorized/solady/blob/e4a14a5b365b353352f7c38e699a2bc9363d6576/src/tokens/ERC20.sol\":18867:18868  0 */\n      0x00\n        /* \"https://github.com/Vectorized/solady/blob/e4a14a5b365b353352f7c38e699a2bc9363d6576/src/tokens/ERC20.sol\":18871:18873  to */\n      dup4\n        /* \"https://github.com/Vectorized/solady/blob/e4a14a5b365b353352f7c38e699a2bc9363d6576/src/tokens/ERC20.sol\":18875:18881  amount */\n      dup4\n        /* \"https://github.com/Vectorized/solady/blob/e4a14a5b365b353352f7c38e699a2bc9363d6576/src/tokens/ERC20.sol\":18839:18858  _afterTokenTransfer */\n      tag_110\n        /* \"https://github.com/Vectorized/solady/blob/e4a14a5b365b353352f7c38e699a2bc9363d6576/src/tokens/ERC20.sol\":18839:18882  _afterTokenTransfer(address(0), to, amount) */\n      jump\t// in\n    tag_230:\n        /* \"https://github.com/Vectorized/solady/blob/e4a14a5b365b353352f7c38e699a2bc9363d6576/src/tokens/ERC20.sol\":17717:18889  function _mint(address to, uint256 amount) internal virtual {... */\n      pop\n      pop\n      jump\t// out\n        /* \"#utility.yul\":7:106   */\n    tag_231:\n        /* \"#utility.yul\":59:65   */\n      0x00\n        /* \"#utility.yul\":93:98   */\n      dup2\n        /* \"#utility.yul\":87:99   */\n      mload\n        /* \"#utility.yul\":77:99   */\n      swap1\n      pop\n        /* \"#utility.yul\":7:106   */\n      swap2\n      swap1\n      pop\n      jump\t// out\n        /* \"#utility.yul\":112:281   */\n    tag_232:\n        /* \"#utility.yul\":196:207   */\n      0x00\n        /* \"#utility.yul\":230:236   */\n      dup3\n        /* \"#utility.yul\":225:228   */\n      dup3\n        /* \"#utility.yul\":218:237   */\n      mstore\n        /* \"#utility.yul\":270:274   */\n      0x20\n        /* \"#utility.yul\":265:268   */\n      dup3\n        /* \"#utility.yul\":261:275   */\n      add\n        /* \"#utility.yul\":246:275   */\n      swap1\n      pop\n        /* \"#utility.yul\":112:281   */\n      swap3\n      swap2\n      pop\n      pop\n      jump\t// out\n        /* \"#utility.yul\":287:533   */\n    tag_233:\n        /* \"#utility.yul\":368:369   */\n      0x00\n        /* \"#utility.yul\":378:491   */\n    tag_272:\n        /* \"#utility.yul\":392:398   */\n      dup4\n        /* \"#utility.yul\":389:390   */\n      dup2\n        /* \"#utility.yul\":386:399   */\n      lt\n        /* \"#utility.yul\":378:491   */\n      iszero\n      tag_274\n      jumpi\n        /* \"#utility.yul\":477:478   */\n      dup1\n        /* \"#utility.yul\":472:475   */\n      dup3\n        /* \"#utility.yul\":468:479   */\n      add\n        /* \"#utility.yul\":462:480   */\n      mload\n        /* \"#utility.yul\":458:459   */\n      dup2\n        /* \"#utility.yul\":453:456   */\n      dup5\n        /* \"#utility.yul\":449:460   */\n      add\n        /* \"#utility.yul\":442:481   */\n      mstore\n        /* \"#utility.yul\":414:416   */\n      0x20\n        /* \"#utility.yul\":411:412   */\n      dup2\n        /* \"#utility.yul\":407:417   */\n      add\n        /* \"#utility.yul\":402:417   */\n      swap1\n      pop\n        /* \"#utility.yul\":378:491   */\n      jump(tag_272)\n    tag_274:\n        /* \"#utility.yul\":525:526   */\n      0x00\n        /* \"#utility.yul\":516:522   */\n      dup5\n        /* \"#utility.yul\":511:514   */\n      dup5\n        /* \"#utility.yul\":507:523   */\n      add\n        /* \"#utility.yul\":500:527   */\n      mstore\n        /* \"#utility.yul\":349:533   */\n      pop\n        /* \"#utility.yul\":287:533   */\n      pop\n      pop\n      pop\n      jump\t// out\n        /* \"#utility.yul\":539:641   */\n    tag_234:\n        /* \"#utility.yul\":580:586   */\n      0x00\n        /* \"#utility.yul\":631:633   */\n      0x1f\n        /* \"#utility.yul\":627:634   */\n      not\n        /* \"#utility.yul\":622:624   */\n      0x1f\n        /* \"#utility.yul\":615:620   */\n      dup4\n        /* \"#utility.yul\":611:625   */\n      add\n        /* \"#utility.yul\":607:635   */\n      and\n        /* \"#utility.yul\":597:635   */\n      swap1\n      pop\n        /* \"#utility.yul\":539:641   */\n      swap2\n      swap1\n      pop\n      jump\t// out\n        /* \"#utility.yul\":647:1024   */\n    tag_235:\n        /* \"#utility.yul\":735:738   */\n      0x00\n        /* \"#utility.yul\":763:802   */\n      tag_277\n        /* \"#utility.yul\":796:801   */\n      dup3\n        /* \"#utility.yul\":763:802   */\n      tag_231\n      jump\t// in\n    tag_277:\n        /* \"#utility.yul\":818:889   */\n      tag_278\n        /* \"#utility.yul\":882:888   */\n      dup2\n        /* \"#utility.yul\":877:880   */\n      dup6\n        /* \"#utility.yul\":818:889   */\n      tag_232\n      jump\t// in\n    tag_278:\n        /* \"#utility.yul\":811:889   */\n      swap4\n      pop\n        /* \"#utility.yul\":898:963   */\n      tag_279\n        /* \"#utility.yul\":956:962   */\n      dup2\n        /* \"#utility.yul\":951:954   */\n      dup6\n        /* \"#utility.yul\":944:948   */\n      0x20\n        /* \"#utility.yul\":937:942   */\n      dup7\n        /* \"#utility.yul\":933:949   */\n      add\n        /* \"#utility.yul\":898:963   */\n      tag_233\n      jump\t// in\n    tag_279:\n        /* \"#utility.yul\":988:1017   */\n      tag_280\n        /* \"#utility.yul\":1010:1016   */\n      dup2\n        /* \"#utility.yul\":988:1017   */\n      tag_234\n      jump\t// in\n    tag_280:\n        /* \"#utility.yul\":983:986   */\n      dup5\n        /* \"#utility.yul\":979:1018   */\n      add\n        /* \"#utility.yul\":972:1018   */\n      swap2\n      pop\n        /* \"#utility.yul\":739:1024   */\n      pop\n        /* \"#utility.yul\":647:1024   */\n      swap3\n      swap2\n      pop\n      pop\n      jump\t// out\n        /* \"#utility.yul\":1030:1343   */\n    tag_26:\n        /* \"#utility.yul\":1143:1147   */\n      0x00\n        /* \"#utility.yul\":1181:1183   */\n      0x20\n        /* \"#utility.yul\":1170:1179   */\n      dup3\n        /* \"#utility.yul\":1166:1184   */\n      add\n        /* \"#utility.yul\":1158:1184   */\n      swap1\n      pop\n        /* \"#utility.yul\":1230:1239   */\n      dup2\n        /* \"#utility.yul\":1224:1228   */\n      dup2\n        /* \"#utility.yul\":1220:1240   */\n      sub\n        /* \"#utility.yul\":1216:1217   */\n      0x00\n        /* \"#utility.yul\":1205:1214   */\n      dup4\n        /* \"#utility.yul\":1201:1218   */\n      add\n        /* \"#utility.yul\":1194:1241   */\n      mstore\n        /* \"#utility.yul\":1258:1336   */\n      tag_282\n        /* \"#utility.yul\":1331:1335   */\n      dup2\n        /* \"#utility.yul\":1322:1328   */\n      dup5\n        /* \"#utility.yul\":1258:1336   */\n      tag_235\n      jump\t// in\n    tag_282:\n        /* \"#utility.yul\":1250:1336   */\n      swap1\n      pop\n        /* \"#utility.yul\":1030:1343   */\n      swap3\n      swap2\n      pop\n      pop\n      jump\t// out\n        /* \"#utility.yul\":1430:1547   */\n    tag_237:\n        /* \"#utility.yul\":1539:1540   */\n      0x00\n        /* \"#utility.yul\":1536:1537   */\n      dup1\n        /* \"#utility.yul\":1529:1541   */\n      revert\n        /* \"#utility.yul\":1676:1802   */\n    tag_239:\n        /* \"#utility.yul\":1713:1720   */\n      0x00\n        /* \"#utility.yul\":1753:1795   */\n      0xffffffffffffffffffffffffffffffffffffffff\n        /* \"#utility.yul\":1746:1751   */\n      dup3\n        /* \"#utility.yul\":1742:1796   */\n      and\n        /* \"#utility.yul\":1731:1796   */\n      swap1\n      pop\n        /* \"#utility.yul\":1676:1802   */\n      swap2\n      swap1\n      pop\n      jump\t// out\n        /* \"#utility.yul\":1808:1904   */\n    tag_240:\n        /* \"#utility.yul\":1845:1852   */\n      0x00\n        /* \"#utility.yul\":1874:1898   */\n      tag_288\n        /* \"#utility.yul\":1892:1897   */\n      dup3\n        /* \"#utility.yul\":1874:1898   */\n      tag_239\n      jump\t// in\n    tag_288:\n        /* \"#utility.yul\":1863:1898   */\n      swap1\n      pop\n        /* \"#utility.yul\":1808:1904   */\n      swap2\n      swap1\n      pop\n      jump\t// out\n        /* \"#utility.yul\":1910:2032   */\n    tag_241:\n        /* \"#utility.yul\":1983:2007   */\n      tag_290\n        /* \"#utility.yul\":2001:2006   */\n      dup2\n        /* \"#utility.yul\":1983:2007   */\n      tag_240\n      jump\t// in\n    tag_290:\n        /* \"#utility.yul\":1976:1981   */\n      dup2\n        /* \"#utility.yul\":1973:2008   */\n      eq\n        /* \"#utility.yul\":1963:2026   */\n      tag_291\n      jumpi\n        /* \"#utility.yul\":2022:2023   */\n      0x00\n        /* \"#utility.yul\":2019:2020   */\n      dup1\n        /* \"#utility.yul\":2012:2024   */\n      revert\n        /* \"#utility.yul\":1963:2026   */\n    tag_291:\n        /* \"#utility.yul\":1910:2032   */\n      pop\n      jump\t// out\n        /* \"#utility.yul\":2038:2177   */\n    tag_242:\n        /* \"#utility.yul\":2084:2089   */\n      0x00\n        /* \"#utility.yul\":2122:2128   */\n      dup2\n        /* \"#utility.yul\":2109:2129   */\n      calldataload\n        /* \"#utility.yul\":2100:2129   */\n      swap1\n      pop\n        /* \"#utility.yul\":2138:2171   */\n      tag_293\n        /* \"#utility.yul\":2165:2170   */\n      dup2\n        /* \"#utility.yul\":2138:2171   */\n      tag_241\n      jump\t// in\n    tag_293:\n        /* \"#utility.yul\":2038:2177   */\n      swap3\n      swap2\n      pop\n      pop\n      jump\t// out\n        /* \"#utility.yul\":2183:2260   */\n    tag_243:\n        /* \"#utility.yul\":2220:2227   */\n      0x00\n        /* \"#utility.yul\":2249:2254   */\n      dup2\n        /* \"#utility.yul\":2238:2254   */\n      swap1\n      pop\n        /* \"#utility.yul\":2183:2260   */\n      swap2\n      swap1\n      pop\n      jump\t// out\n        /* \"#utility.yul\":2266:2388   */\n    tag_244:\n        /* \"#utility.yul\":2339:2363   */\n      tag_296\n        /* \"#utility.yul\":2357:2362   */\n      dup2\n        /* \"#utility.yul\":2339:2363   */\n      tag_243\n      jump\t// in\n    tag_296:\n        /* \"#utility.yul\":2332:2337   */\n      dup2\n        /* \"#utility.yul\":2329:2364   */\n      eq\n        /* \"#utility.yul\":2319:2382   */\n      tag_297\n      jumpi\n        /* \"#utility.yul\":2378:2379   */\n      0x00\n        /* \"#utility.yul\":2375:2376   */\n      dup1\n        /* \"#utility.yul\":2368:2380   */\n      revert\n        /* \"#utility.yul\":2319:2382   */\n    tag_297:\n        /* \"#utility.yul\":2266:2388   */\n      pop\n      jump\t// out\n        /* \"#utility.yul\":2394:2533   */\n    tag_245:\n        /* \"#utility.yul\":2440:2445   */\n      0x00\n        /* \"#utility.yul\":2478:2484   */\n      dup2\n        /* \"#utility.yul\":2465:2485   */\n      calldataload\n        /* \"#utility.yul\":2456:2485   */\n      swap1\n      pop\n        /* \"#utility.yul\":2494:2527   */\n      tag_299\n        /* \"#utility.yul\":2521:2526   */\n      dup2\n        /* \"#utility.yul\":2494:2527   */\n      tag_244\n      jump\t// in\n    tag_299:\n        /* \"#utility.yul\":2394:2533   */\n      swap3\n      swap2\n      pop\n      pop\n      jump\t// out\n        /* \"#utility.yul\":2539:3013   */\n    tag_29:\n        /* \"#utility.yul\":2607:2613   */\n      0x00\n        /* \"#utility.yul\":2615:2621   */\n      dup1\n        /* \"#utility.yul\":2664:2666   */\n      0x40\n        /* \"#utility.yul\":2652:2661   */\n      dup4\n        /* \"#utility.yul\":2643:2650   */\n      dup6\n        /* \"#utility.yul\":2639:2662   */\n      sub\n        /* \"#utility.yul\":2635:2667   */\n      slt\n        /* \"#utility.yul\":2632:2751   */\n      iszero\n      tag_301\n      jumpi\n        /* \"#utility.yul\":2670:2749   */\n      tag_302\n      tag_237\n      jump\t// in\n    tag_302:\n        /* \"#utility.yul\":2632:2751   */\n    tag_301:\n        /* \"#utility.yul\":2790:2791   */\n      0x00\n        /* \"#utility.yul\":2815:2868   */\n      tag_303\n        /* \"#utility.yul\":2860:2867   */\n      dup6\n        /* \"#utility.yul\":2851:2857   */\n      dup3\n        /* \"#utility.yul\":2840:2849   */\n      dup7\n        /* \"#utility.yul\":2836:2858   */\n      add\n        /* \"#utility.yul\":2815:2868   */\n      tag_242\n      jump\t// in\n    tag_303:\n        /* \"#utility.yul\":2805:2868   */\n      swap3\n      pop\n        /* \"#utility.yul\":2761:2878   */\n      pop\n        /* \"#utility.yul\":2917:2919   */\n      0x20\n        /* \"#utility.yul\":2943:2996   */\n      tag_304\n        /* \"#utility.yul\":2988:2995   */\n      dup6\n        /* \"#utility.yul\":2979:2985   */\n      dup3\n        /* \"#utility.yul\":2968:2977   */\n      dup7\n        /* \"#utility.yul\":2964:2986   */\n      add\n        /* \"#utility.yul\":2943:2996   */\n      tag_245\n      jump\t// in\n    tag_304:\n        /* \"#utility.yul\":2933:2996   */\n      swap2\n      pop\n        /* \"#utility.yul\":2888:3006   */\n      pop\n        /* \"#utility.yul\":2539:3013   */\n      swap3\n      pop\n      swap3\n      swap1\n      pop\n      jump\t// out\n        /* \"#utility.yul\":3019:3109   */\n    tag_246:\n        /* \"#utility.yul\":3053:3060   */\n      0x00\n        /* \"#utility.yul\":3096:3101   */\n      dup2\n        /* \"#utility.yul\":3089:3102   */\n      iszero\n        /* \"#utility.yul\":3082:3103   */\n      iszero\n        /* \"#utility.yul\":3071:3103   */\n      swap1\n      pop\n        /* \"#utility.yul\":3019:3109   */\n      swap2\n      swap1\n      pop\n      jump\t// out\n        /* \"#utility.yul\":3115:3224   */\n    tag_247:\n        /* \"#utility.yul\":3196:3217   */\n      tag_307\n        /* \"#utility.yul\":3211:3216   */\n      dup2\n        /* \"#utility.yul\":3196:3217   */\n      tag_246\n      jump\t// in\n    tag_307:\n        /* \"#utility.yul\":3191:3194   */\n      dup3\n        /* \"#utility.yul\":3184:3218   */\n      mstore\n        /* \"#utility.yul\":3115:3224   */\n      pop\n      pop\n      jump\t// out\n        /* \"#utility.yul\":3230:3440   */\n    tag_32:\n        /* \"#utility.yul\":3317:3321   */\n      0x00\n        /* \"#utility.yul\":3355:3357   */\n      0x20\n        /* \"#utility.yul\":3344:3353   */\n      dup3\n        /* \"#utility.yul\":3340:3358   */\n      add\n        /* \"#utility.yul\":3332:3358   */\n      swap1\n      pop\n        /* \"#utility.yul\":3368:3433   */\n      tag_309\n        /* \"#utility.yul\":3430:3431   */\n      0x00\n        /* \"#utility.yul\":3419:3428   */\n      dup4\n        /* \"#utility.yul\":3415:3432   */\n      add\n        /* \"#utility.yul\":3406:3412   */\n      dup5\n        /* \"#utility.yul\":3368:3433   */\n      tag_247\n      jump\t// in\n    tag_309:\n        /* \"#utility.yul\":3230:3440   */\n      swap3\n      swap2\n      pop\n      pop\n      jump\t// out\n        /* \"#utility.yul\":3446:3564   */\n    tag_248:\n        /* \"#utility.yul\":3533:3557   */\n      tag_311\n        /* \"#utility.yul\":3551:3556   */\n      dup2\n        /* \"#utility.yul\":3533:3557   */\n      tag_243\n      jump\t// in\n    tag_311:\n        /* \"#utility.yul\":3528:3531   */\n      dup3\n        /* \"#utility.yul\":3521:3558   */\n      mstore\n        /* \"#utility.yul\":3446:3564   */\n      pop\n      pop\n      jump\t// out\n        /* \"#utility.yul\":3570:3792   */\n    tag_36:\n        /* \"#utility.yul\":3663:3667   */\n      0x00\n        /* \"#utility.yul\":3701:3703   */\n      0x20\n        /* \"#utility.yul\":3690:3699   */\n      dup3\n        /* \"#utility.yul\":3686:3704   */\n      add\n        /* \"#utility.yul\":3678:3704   */\n      swap1\n      pop\n        /* \"#utility.yul\":3714:3785   */\n      tag_313\n        /* \"#utility.yul\":3782:3783   */\n      0x00\n        /* \"#utility.yul\":3771:3780   */\n      dup4\n        /* \"#utility.yul\":3767:3784   */\n      add\n        /* \"#utility.yul\":3758:3764   */\n      dup5\n        /* \"#utility.yul\":3714:3785   */\n      tag_248\n      jump\t// in\n    tag_313:\n        /* \"#utility.yul\":3570:3792   */\n      swap3\n      swap2\n      pop\n      pop\n      jump\t// out\n        /* \"#utility.yul\":3798:4417   */\n    tag_39:\n        /* \"#utility.yul\":3875:3881   */\n      0x00\n        /* \"#utility.yul\":3883:3889   */\n      dup1\n        /* \"#utility.yul\":3891:3897   */\n      0x00\n        /* \"#utility.yul\":3940:3942   */\n      0x60\n        /* \"#utility.yul\":3928:3937   */\n      dup5\n        /* \"#utility.yul\":3919:3926   */\n      dup7\n        /* \"#utility.yul\":3915:3938   */\n      sub\n        /* \"#utility.yul\":3911:3943   */\n      slt\n        /* \"#utility.yul\":3908:4027   */\n      iszero\n      tag_315\n      jumpi\n        /* \"#utility.yul\":3946:4025   */\n      tag_316\n      tag_237\n      jump\t// in\n    tag_316:\n        /* \"#utility.yul\":3908:4027   */\n    tag_315:\n        /* \"#utility.yul\":4066:4067   */\n      0x00\n        /* \"#utility.yul\":4091:4144   */\n      tag_317\n        /* \"#utility.yul\":4136:4143   */\n      dup7\n        /* \"#utility.yul\":4127:4133   */\n      dup3\n        /* \"#utility.yul\":4116:4125   */\n      dup8\n        /* \"#utility.yul\":4112:4134   */\n      add\n        /* \"#utility.yul\":4091:4144   */\n      tag_242\n      jump\t// in\n    tag_317:\n        /* \"#utility.yul\":4081:4144   */\n      swap4\n      pop\n        /* \"#utility.yul\":4037:4154   */\n      pop\n        /* \"#utility.yul\":4193:4195   */\n      0x20\n        /* \"#utility.yul\":4219:4272   */\n      tag_318\n        /* \"#utility.yul\":4264:4271   */\n      dup7\n        /* \"#utility.yul\":4255:4261   */\n      dup3\n        /* \"#utility.yul\":4244:4253   */\n      dup8\n        /* \"#utility.yul\":4240:4262   */\n      add\n        /* \"#utility.yul\":4219:4272   */\n      tag_242\n      jump\t// in\n    tag_318:\n        /* \"#utility.yul\":4209:4272   */\n      swap3\n      pop\n        /* \"#utility.yul\":4164:4282   */\n      pop\n        /* \"#utility.yul\":4321:4323   */\n      0x40\n        /* \"#utility.yul\":4347:4400   */\n      tag_319\n        /* \"#utility.yul\":4392:4399   */\n      dup7\n        /* \"#utility.yul\":4383:4389   */\n      dup3\n        /* \"#utility.yul\":4372:4381   */\n      dup8\n        /* \"#utility.yul\":4368:4390   */\n      add\n        /* \"#utility.yul\":4347:4400   */\n      tag_245\n      jump\t// in\n    tag_319:\n        /* \"#utility.yul\":4337:4400   */\n      swap2\n      pop\n        /* \"#utility.yul\":4292:4410   */\n      pop\n        /* \"#utility.yul\":3798:4417   */\n      swap3\n      pop\n      swap3\n      pop\n      swap3\n      jump\t// out\n        /* \"#utility.yul\":4423:4752   */\n    tag_44:\n        /* \"#utility.yul\":4482:4488   */\n      0x00\n        /* \"#utility.yul\":4531:4533   */\n      0x20\n        /* \"#utility.yul\":4519:4528   */\n      dup3\n        /* \"#utility.yul\":4510:4517   */\n      dup5\n        /* \"#utility.yul\":4506:4529   */\n      sub\n        /* \"#utility.yul\":4502:4534   */\n      slt\n        /* \"#utility.yul\":4499:4618   */\n      iszero\n      tag_321\n      jumpi\n        /* \"#utility.yul\":4537:4616   */\n      tag_322\n      tag_237\n      jump\t// in\n    tag_322:\n        /* \"#utility.yul\":4499:4618   */\n    tag_321:\n        /* \"#utility.yul\":4657:4658   */\n      0x00\n        /* \"#utility.yul\":4682:4735   */\n      tag_323\n        /* \"#utility.yul\":4727:4734   */\n      dup5\n        /* \"#utility.yul\":4718:4724   */\n      dup3\n        /* \"#utility.yul\":4707:4716   */\n      dup6\n        /* \"#utility.yul\":4703:4725   */\n      add\n        /* \"#utility.yul\":4682:4735   */\n      tag_245\n      jump\t// in\n    tag_323:\n        /* \"#utility.yul\":4672:4735   */\n      swap2\n      pop\n        /* \"#utility.yul\":4628:4745   */\n      pop\n        /* \"#utility.yul\":4423:4752   */\n      swap3\n      swap2\n      pop\n      pop\n      jump\t// out\n        /* \"#utility.yul\":4758:5090   */\n    tag_47:\n        /* \"#utility.yul\":4879:4883   */\n      0x00\n        /* \"#utility.yul\":4917:4919   */\n      0x40\n        /* \"#utility.yul\":4906:4915   */\n      dup3\n        /* \"#utility.yul\":4902:4920   */\n      add\n        /* \"#utility.yul\":4894:4920   */\n      swap1\n      pop\n        /* \"#utility.yul\":4930:5001   */\n      tag_325\n        /* \"#utility.yul\":4998:4999   */\n      0x00\n        /* \"#utility.yul\":4987:4996   */\n      dup4\n        /* \"#utility.yul\":4983:5000   */\n      add\n        /* \"#utility.yul\":4974:4980   */\n      dup6\n        /* \"#utility.yul\":4930:5001   */\n      tag_248\n      jump\t// in\n    tag_325:\n        /* \"#utility.yul\":5011:5083   */\n      tag_326\n        /* \"#utility.yul\":5079:5081   */\n      0x20\n        /* \"#utility.yul\":5068:5077   */\n      dup4\n        /* \"#utility.yul\":5064:5082   */\n      add\n        /* \"#utility.yul\":5055:5061   */\n      dup5\n        /* \"#utility.yul\":5011:5083   */\n      tag_248\n      jump\t// in\n    tag_326:\n        /* \"#utility.yul\":4758:5090   */\n      swap4\n      swap3\n      pop\n      pop\n      pop\n      jump\t// out\n        /* \"#utility.yul\":5096:5182   */\n    tag_249:\n        /* \"#utility.yul\":5131:5138   */\n      0x00\n        /* \"#utility.yul\":5171:5175   */\n      0xff\n        /* \"#utility.yul\":5164:5169   */\n      dup3\n        /* \"#utility.yul\":5160:5176   */\n      and\n        /* \"#utility.yul\":5149:5176   */\n      swap1\n      pop\n        /* \"#utility.yul\":5096:5182   */\n      swap2\n      swap1\n      pop\n      jump\t// out\n        /* \"#utility.yul\":5188:5300   */\n    tag_250:\n        /* \"#utility.yul\":5271:5293   */\n      tag_329\n        /* \"#utility.yul\":5287:5292   */\n      dup2\n        /* \"#utility.yul\":5271:5293   */\n      tag_249\n      jump\t// in\n    tag_329:\n        /* \"#utility.yul\":5266:5269   */\n      dup3\n        /* \"#utility.yul\":5259:5294   */\n      mstore\n        /* \"#utility.yul\":5188:5300   */\n      pop\n      pop\n      jump\t// out\n        /* \"#utility.yul\":5306:5520   */\n    tag_51:\n        /* \"#utility.yul\":5395:5399   */\n      0x00\n        /* \"#utility.yul\":5433:5435   */\n      0x20\n        /* \"#utility.yul\":5422:5431   */\n      dup3\n        /* \"#utility.yul\":5418:5436   */\n      add\n        /* \"#utility.yul\":5410:5436   */\n      swap1\n      pop\n        /* \"#utility.yul\":5446:5513   */\n      tag_331\n        /* \"#utility.yul\":5510:5511   */\n      0x00\n        /* \"#utility.yul\":5499:5508   */\n      dup4\n        /* \"#utility.yul\":5495:5512   */\n      add\n        /* \"#utility.yul\":5486:5492   */\n      dup5\n        /* \"#utility.yul\":5446:5513   */\n      tag_250\n      jump\t// in\n    tag_331:\n        /* \"#utility.yul\":5306:5520   */\n      swap3\n      swap2\n      pop\n      pop\n      jump\t// out\n        /* \"#utility.yul\":5526:5603   */\n    tag_251:\n        /* \"#utility.yul\":5563:5570   */\n      0x00\n        /* \"#utility.yul\":5592:5597   */\n      dup2\n        /* \"#utility.yul\":5581:5597   */\n      swap1\n      pop\n        /* \"#utility.yul\":5526:5603   */\n      swap2\n      swap1\n      pop\n      jump\t// out\n        /* \"#utility.yul\":5609:5727   */\n    tag_252:\n        /* \"#utility.yul\":5696:5720   */\n      tag_334\n        /* \"#utility.yul\":5714:5719   */\n      dup2\n        /* \"#utility.yul\":5696:5720   */\n      tag_251\n      jump\t// in\n    tag_334:\n        /* \"#utility.yul\":5691:5694   */\n      dup3\n        /* \"#utility.yul\":5684:5721   */\n      mstore\n        /* \"#utility.yul\":5609:5727   */\n      pop\n      pop\n      jump\t// out\n        /* \"#utility.yul\":5733:5955   */\n    tag_55:\n        /* \"#utility.yul\":5826:5830   */\n      0x00\n        /* \"#utility.yul\":5864:5866   */\n      0x20\n        /* \"#utility.yul\":5853:5862   */\n      dup3\n        /* \"#utility.yul\":5849:5867   */\n      add\n        /* \"#utility.yul\":5841:5867   */\n      swap1\n      pop\n        /* \"#utility.yul\":5877:5948   */\n      tag_336\n        /* \"#utility.yul\":5945:5946   */\n      0x00\n        /* \"#utility.yul\":5934:5943   */\n      dup4\n        /* \"#utility.yul\":5930:5947   */\n      add\n        /* \"#utility.yul\":5921:5927   */\n      dup5\n        /* \"#utility.yul\":5877:5948   */\n      tag_252\n      jump\t// in\n    tag_336:\n        /* \"#utility.yul\":5733:5955   */\n      swap3\n      swap2\n      pop\n      pop\n      jump\t// out\n        /* \"#utility.yul\":5961:6290   */\n    tag_58:\n        /* \"#utility.yul\":6020:6026   */\n      0x00\n        /* \"#utility.yul\":6069:6071   */\n      0x20\n        /* \"#utility.yul\":6057:6066   */\n      dup3\n        /* \"#utility.yul\":6048:6055   */\n      dup5\n        /* \"#utility.yul\":6044:6067   */\n      sub\n        /* \"#utility.yul\":6040:6072   */\n      slt\n        /* \"#utility.yul\":6037:6156   */\n      iszero\n      tag_338\n      jumpi\n        /* \"#utility.yul\":6075:6154   */\n      tag_339\n      tag_237\n      jump\t// in\n    tag_339:\n        /* \"#utility.yul\":6037:6156   */\n    tag_338:\n        /* \"#utility.yul\":6195:6196   */\n      0x00\n        /* \"#utility.yul\":6220:6273   */\n      tag_340\n        /* \"#utility.yul\":6265:6272   */\n      dup5\n        /* \"#utility.yul\":6256:6262   */\n      dup3\n        /* \"#utility.yul\":6245:6254   */\n      dup6\n        /* \"#utility.yul\":6241:6263   */\n      add\n        /* \"#utility.yul\":6220:6273   */\n      tag_242\n      jump\t// in\n    tag_340:\n        /* \"#utility.yul\":6210:6273   */\n      swap2\n      pop\n        /* \"#utility.yul\":6166:6283   */\n      pop\n        /* \"#utility.yul\":5961:6290   */\n      swap3\n      swap2\n      pop\n      pop\n      jump\t// out\n        /* \"#utility.yul\":6296:6414   */\n    tag_253:\n        /* \"#utility.yul\":6383:6407   */\n      tag_342\n        /* \"#utility.yul\":6401:6406   */\n      dup2\n        /* \"#utility.yul\":6383:6407   */\n      tag_240\n      jump\t// in\n    tag_342:\n        /* \"#utility.yul\":6378:6381   */\n      dup3\n        /* \"#utility.yul\":6371:6408   */\n      mstore\n        /* \"#utility.yul\":6296:6414   */\n      pop\n      pop\n      jump\t// out\n        /* \"#utility.yul\":6420:6642   */\n    tag_79:\n        /* \"#utility.yul\":6513:6517   */\n      0x00\n        /* \"#utility.yul\":6551:6553   */\n      0x20\n        /* \"#utility.yul\":6540:6549   */\n      dup3\n        /* \"#utility.yul\":6536:6554   */\n      add\n        /* \"#utility.yul\":6528:6554   */\n      swap1\n      pop\n        /* \"#utility.yul\":6564:6635   */\n      tag_344\n        /* \"#utility.yul\":6632:6633   */\n      0x00\n        /* \"#utility.yul\":6621:6630   */\n      dup4\n        /* \"#utility.yul\":6617:6634   */\n      add\n        /* \"#utility.yul\":6608:6614   */\n      dup5\n        /* \"#utility.yul\":6564:6635   */\n      tag_253\n      jump\t// in\n    tag_344:\n        /* \"#utility.yul\":6420:6642   */\n      swap3\n      swap2\n      pop\n      pop\n      jump\t// out\n        /* \"#utility.yul\":6648:6766   */\n    tag_254:\n        /* \"#utility.yul\":6719:6741   */\n      tag_346\n        /* \"#utility.yul\":6735:6740   */\n      dup2\n        /* \"#utility.yul\":6719:6741   */\n      tag_249\n      jump\t// in\n    tag_346:\n        /* \"#utility.yul\":6712:6717   */\n      dup2\n        /* \"#utility.yul\":6709:6742   */\n      eq\n        /* \"#utility.yul\":6699:6760   */\n      tag_347\n      jumpi\n        /* \"#utility.yul\":6756:6757   */\n      0x00\n        /* \"#utility.yul\":6753:6754   */\n      dup1\n        /* \"#utility.yul\":6746:6758   */\n      revert\n        /* \"#utility.yul\":6699:6760   */\n    tag_347:\n        /* \"#utility.yul\":6648:6766   */\n      pop\n      jump\t// out\n        /* \"#utility.yul\":6772:6907   */\n    tag_255:\n        /* \"#utility.yul\":6816:6821   */\n      0x00\n        /* \"#utility.yul\":6854:6860   */\n      dup2\n        /* \"#utility.yul\":6841:6861   */\n      calldataload\n        /* \"#utility.yul\":6832:6861   */\n      swap1\n      pop\n        /* \"#utility.yul\":6870:6901   */\n      tag_349\n        /* \"#utility.yul\":6895:6900   */\n      dup2\n        /* \"#utility.yul\":6870:6901   */\n      tag_254\n      jump\t// in\n    tag_349:\n        /* \"#utility.yul\":6772:6907   */\n      swap3\n      swap2\n      pop\n      pop\n      jump\t// out\n        /* \"#utility.yul\":6913:7035   */\n    tag_256:\n        /* \"#utility.yul\":6986:7010   */\n      tag_351\n        /* \"#utility.yul\":7004:7009   */\n      dup2\n        /* \"#utility.yul\":6986:7010   */\n      tag_251\n      jump\t// in\n    tag_351:\n        /* \"#utility.yul\":6979:6984   */\n      dup2\n        /* \"#utility.yul\":6976:7011   */\n      eq\n        /* \"#utility.yul\":6966:7029   */\n      tag_352\n      jumpi\n        /* \"#utility.yul\":7025:7026   */\n      0x00\n        /* \"#utility.yul\":7022:7023   */\n      dup1\n        /* \"#utility.yul\":7015:7027   */\n      revert\n        /* \"#utility.yul\":6966:7029   */\n    tag_352:\n        /* \"#utility.yul\":6913:7035   */\n      pop\n      jump\t// out\n        /* \"#utility.yul\":7041:7180   */\n    tag_257:\n        /* \"#utility.yul\":7087:7092   */\n      0x00\n        /* \"#utility.yul\":7125:7131   */\n      dup2\n        /* \"#utility.yul\":7112:7132   */\n      calldataload\n        /* \"#utility.yul\":7103:7132   */\n      swap1\n      pop\n        /* \"#utility.yul\":7141:7174   */\n      tag_354\n        /* \"#utility.yul\":7168:7173   */\n      dup2\n        /* \"#utility.yul\":7141:7174   */\n      tag_256\n      jump\t// in\n    tag_354:\n        /* \"#utility.yul\":7041:7180   */\n      swap3\n      swap2\n      pop\n      pop\n      jump\t// out\n        /* \"#utility.yul\":7186:8385   */\n    tag_86:\n        /* \"#utility.yul\":7297:7303   */\n      0x00\n        /* \"#utility.yul\":7305:7311   */\n      dup1\n        /* \"#utility.yul\":7313:7319   */\n      0x00\n        /* \"#utility.yul\":7321:7327   */\n      dup1\n        /* \"#utility.yul\":7329:7335   */\n      0x00\n        /* \"#utility.yul\":7337:7343   */\n      dup1\n        /* \"#utility.yul\":7345:7351   */\n      0x00\n        /* \"#utility.yul\":7394:7397   */\n      0xe0\n        /* \"#utility.yul\":7382:7391   */\n      dup9\n        /* \"#utility.yul\":7373:7380   */\n      dup11\n        /* \"#utility.yul\":7369:7392   */\n      sub\n        /* \"#utility.yul\":7365:7398   */\n      slt\n        /* \"#utility.yul\":7362:7482   */\n      iszero\n      tag_356\n      jumpi\n        /* \"#utility.yul\":7401:7480   */\n      tag_357\n      tag_237\n      jump\t// in\n    tag_357:\n        /* \"#utility.yul\":7362:7482   */\n    tag_356:\n        /* \"#utility.yul\":7521:7522   */\n      0x00\n        /* \"#utility.yul\":7546:7599   */\n      tag_358\n        /* \"#utility.yul\":7591:7598   */\n      dup11\n        /* \"#utility.yul\":7582:7588   */\n      dup3\n        /* \"#utility.yul\":7571:7580   */\n      dup12\n        /* \"#utility.yul\":7567:7589   */\n      add\n        /* \"#utility.yul\":7546:7599   */\n      tag_242\n      jump\t// in\n    tag_358:\n        /* \"#utility.yul\":7536:7599   */\n      swap8\n      pop\n        /* \"#utility.yul\":7492:7609   */\n      pop\n        /* \"#utility.yul\":7648:7650   */\n      0x20\n        /* \"#utility.yul\":7674:7727   */\n      tag_359\n        /* \"#utility.yul\":7719:7726   */\n      dup11\n        /* \"#utility.yul\":7710:7716   */\n      dup3\n        /* \"#utility.yul\":7699:7708   */\n      dup12\n        /* \"#utility.yul\":7695:7717   */\n      add\n        /* \"#utility.yul\":7674:7727   */\n      tag_242\n      jump\t// in\n    tag_359:\n        /* \"#utility.yul\":7664:7727   */\n      swap7\n      pop\n        /* \"#utility.yul\":7619:7737   */\n      pop\n        /* \"#utility.yul\":7776:7778   */\n      0x40\n        /* \"#utility.yul\":7802:7855   */\n      tag_360\n        /* \"#utility.yul\":7847:7854   */\n      dup11\n        /* \"#utility.yul\":7838:7844   */\n      dup3\n        /* \"#utility.yul\":7827:7836   */\n      dup12\n        /* \"#utility.yul\":7823:7845   */\n      add\n        /* \"#utility.yul\":7802:7855   */\n      tag_245\n      jump\t// in\n    tag_360:\n        /* \"#utility.yul\":7792:7855   */\n      swap6\n      pop\n        /* \"#utility.yul\":7747:7865   */\n      pop\n        /* \"#utility.yul\":7904:7906   */\n      0x60\n        /* \"#utility.yul\":7930:7983   */\n      tag_361\n        /* \"#utility.yul\":7975:7982   */\n      dup11\n        /* \"#utility.yul\":7966:7972   */\n      dup3\n        /* \"#utility.yul\":7955:7964   */\n      dup12\n        /* \"#utility.yul\":7951:7973   */\n      add\n        /* \"#utility.yul\":7930:7983   */\n      tag_245\n      jump\t// in\n    tag_361:\n        /* \"#utility.yul\":7920:7983   */\n      swap5\n      pop\n        /* \"#utility.yul\":7875:7993   */\n      pop\n        /* \"#utility.yul\":8032:8035   */\n      0x80\n        /* \"#utility.yul\":8059:8110   */\n      tag_362\n        /* \"#utility.yul\":8102:8109   */\n      dup11\n        /* \"#utility.yul\":8093:8099   */\n      dup3\n        /* \"#utility.yul\":8082:8091   */\n      dup12\n        /* \"#utility.yul\":8078:8100   */\n      add\n        /* \"#utility.yul\":8059:8110   */\n      tag_255\n      jump\t// in\n    tag_362:\n        /* \"#utility.yul\":8049:8110   */\n      swap4\n      pop\n        /* \"#utility.yul\":8003:8120   */\n      pop\n        /* \"#utility.yul\":8159:8162   */\n      0xa0\n        /* \"#utility.yul\":8186:8239   */\n      tag_363\n        /* \"#utility.yul\":8231:8238   */\n      dup11\n        /* \"#utility.yul\":8222:8228   */\n      dup3\n        /* \"#utility.yul\":8211:8220   */\n      dup12\n        /* \"#utility.yul\":8207:8229   */\n      add\n        /* \"#utility.yul\":8186:8239   */\n      tag_257\n      jump\t// in\n    tag_363:\n        /* \"#utility.yul\":8176:8239   */\n      swap3\n      pop\n        /* \"#utility.yul\":8130:8249   */\n      pop\n        /* \"#utility.yul\":8288:8291   */\n      0xc0\n        /* \"#utility.yul\":8315:8368   */\n      tag_364\n        /* \"#utility.yul\":8360:8367   */\n      dup11\n        /* \"#utility.yul\":8351:8357   */\n      dup3\n        /* \"#utility.yul\":8340:8349   */\n      dup12\n        /* \"#utility.yul\":8336:8358   */\n      add\n        /* \"#utility.yul\":8315:8368   */\n      tag_257\n      jump\t// in\n    tag_364:\n        /* \"#utility.yul\":8305:8368   */\n      swap2\n      pop\n        /* \"#utility.yul\":8259:8378   */\n      pop\n        /* \"#utility.yul\":7186:8385   */\n      swap3\n      swap6\n      swap9\n      swap2\n      swap5\n      swap8\n      pop\n      swap3\n      swap6\n      pop\n      jump\t// out\n        /* \"#utility.yul\":8391:8865   */\n    tag_90:\n        /* \"#utility.yul\":8459:8465   */\n      0x00\n        /* \"#utility.yul\":8467:8473   */\n      dup1\n        /* \"#utility.yul\":8516:8518   */\n      0x40\n        /* \"#utility.yul\":8504:8513   */\n      dup4\n        /* \"#utility.yul\":8495:8502   */\n      dup6\n        /* \"#utility.yul\":8491:8514   */\n      sub\n        /* \"#utility.yul\":8487:8519   */\n      slt\n        /* \"#utility.yul\":8484:8603   */\n      iszero\n      tag_366\n      jumpi\n        /* \"#utility.yul\":8522:8601   */\n      tag_367\n      tag_237\n      jump\t// in\n    tag_367:\n        /* \"#utility.yul\":8484:8603   */\n    tag_366:\n        /* \"#utility.yul\":8642:8643   */\n      0x00\n        /* \"#utility.yul\":8667:8720   */\n      tag_368\n        /* \"#utility.yul\":8712:8719   */\n      dup6\n        /* \"#utility.yul\":8703:8709   */\n      dup3\n        /* \"#utility.yul\":8692:8701   */\n      dup7\n        /* \"#utility.yul\":8688:8710   */\n      add\n        /* \"#utility.yul\":8667:8720   */\n      tag_242\n      jump\t// in\n    tag_368:\n        /* \"#utility.yul\":8657:8720   */\n      swap3\n      pop\n        /* \"#utility.yul\":8613:8730   */\n      pop\n        /* \"#utility.yul\":8769:8771   */\n      0x20\n        /* \"#utility.yul\":8795:8848   */\n      tag_369\n        /* \"#utility.yul\":8840:8847   */\n      dup6\n        /* \"#utility.yul\":8831:8837   */\n      dup3\n        /* \"#utility.yul\":8820:8829   */\n      dup7\n        /* \"#utility.yul\":8816:8838   */\n      add\n        /* \"#utility.yul\":8795:8848   */\n      tag_242\n      jump\t// in\n    tag_369:\n        /* \"#utility.yul\":8785:8848   */\n      swap2\n      pop\n        /* \"#utility.yul\":8740:8858   */\n      pop\n        /* \"#utility.yul\":8391:8865   */\n      swap3\n      pop\n      swap3\n      swap1\n      pop\n      jump\t// out\n        /* \"#utility.yul\":8871:9345   */\n    tag_95:\n        /* \"#utility.yul\":8939:8945   */\n      0x00\n        /* \"#utility.yul\":8947:8953   */\n      dup1\n        /* \"#utility.yul\":8996:8998   */\n      0x40\n        /* \"#utility.yul\":8984:8993   */\n      dup4\n        /* \"#utility.yul\":8975:8982   */\n      dup6\n        /* \"#utility.yul\":8971:8994   */\n      sub\n        /* \"#utility.yul\":8967:8999   */\n      slt\n        /* \"#utility.yul\":8964:9083   */\n      iszero\n      tag_371\n      jumpi\n        /* \"#utility.yul\":9002:9081   */\n      tag_372\n      tag_237\n      jump\t// in\n    tag_372:\n        /* \"#utility.yul\":8964:9083   */\n    tag_371:\n        /* \"#utility.yul\":9122:9123   */\n      0x00\n        /* \"#utility.yul\":9147:9200   */\n      tag_373\n        /* \"#utility.yul\":9192:9199   */\n      dup6\n        /* \"#utility.yul\":9183:9189   */\n      dup3\n        /* \"#utility.yul\":9172:9181   */\n      dup7\n        /* \"#utility.yul\":9168:9190   */\n      add\n        /* \"#utility.yul\":9147:9200   */\n      tag_245\n      jump\t// in\n    tag_373:\n        /* \"#utility.yul\":9137:9200   */\n      swap3\n      pop\n        /* \"#utility.yul\":9093:9210   */\n      pop\n        /* \"#utility.yul\":9249:9251   */\n      0x20\n        /* \"#utility.yul\":9275:9328   */\n      tag_374\n        /* \"#utility.yul\":9320:9327   */\n      dup6\n        /* \"#utility.yul\":9311:9317   */\n      dup3\n        /* \"#utility.yul\":9300:9309   */\n      dup7\n        /* \"#utility.yul\":9296:9318   */\n      add\n        /* \"#utility.yul\":9275:9328   */\n      tag_245\n      jump\t// in\n    tag_374:\n        /* \"#utility.yul\":9265:9328   */\n      swap2\n      pop\n        /* \"#utility.yul\":9220:9338   */\n      pop\n        /* \"#utility.yul\":8871:9345   */\n      swap3\n      pop\n      swap3\n      swap1\n      pop\n      jump\t// out\n        /* \"#utility.yul\":9351:9499   */\n    tag_258:\n        /* \"#utility.yul\":9453:9464   */\n      0x00\n        /* \"#utility.yul\":9490:9493   */\n      dup2\n        /* \"#utility.yul\":9475:9493   */\n      swap1\n      pop\n        /* \"#utility.yul\":9351:9499   */\n      swap3\n      swap2\n      pop\n      pop\n      jump\t// out\n        /* \"#utility.yul\":9505:9895   */\n    tag_259:\n        /* \"#utility.yul\":9611:9614   */\n      0x00\n        /* \"#utility.yul\":9639:9678   */\n      tag_377\n        /* \"#utility.yul\":9672:9677   */\n      dup3\n        /* \"#utility.yul\":9639:9678   */\n      tag_231\n      jump\t// in\n    tag_377:\n        /* \"#utility.yul\":9694:9783   */\n      tag_378\n        /* \"#utility.yul\":9776:9782   */\n      dup2\n        /* \"#utility.yul\":9771:9774   */\n      dup6\n        /* \"#utility.yul\":9694:9783   */\n      tag_258\n      jump\t// in\n    tag_378:\n        /* \"#utility.yul\":9687:9783   */\n      swap4\n      pop\n        /* \"#utility.yul\":9792:9857   */\n      tag_379\n        /* \"#utility.yul\":9850:9856   */\n      dup2\n        /* \"#utility.yul\":9845:9848   */\n      dup6\n        /* \"#utility.yul\":9838:9842   */\n      0x20\n        /* \"#utility.yul\":9831:9836   */\n      dup7\n        /* \"#utility.yul\":9827:9843   */\n      add\n        /* \"#utility.yul\":9792:9857   */\n      tag_233\n      jump\t// in\n    tag_379:\n        /* \"#utility.yul\":9882:9888   */\n      dup1\n        /* \"#utility.yul\":9877:9880   */\n      dup5\n        /* \"#utility.yul\":9873:9889   */\n      add\n        /* \"#utility.yul\":9866:9889   */\n      swap2\n      pop\n        /* \"#utility.yul\":9615:9895   */\n      pop\n        /* \"#utility.yul\":9505:9895   */\n      swap3\n      swap2\n      pop\n      pop\n      jump\t// out\n        /* \"#utility.yul\":9901:10081   */\n    tag_260:\n        /* \"#utility.yul\":9949:10026   */\n      0x4e487b7100000000000000000000000000000000000000000000000000000000\n        /* \"#utility.yul\":9946:9947   */\n      0x00\n        /* \"#utility.yul\":9939:10027   */\n      mstore\n        /* \"#utility.yul\":10046:10050   */\n      0x22\n        /* \"#utility.yul\":10043:10044   */\n      0x04\n        /* \"#utility.yul\":10036:10051   */\n      mstore\n        /* \"#utility.yul\":10070:10074   */\n      0x24\n        /* \"#utility.yul\":10067:10068   */\n      0x00\n        /* \"#utility.yul\":10060:10075   */\n      revert\n        /* \"#utility.yul\":10087:10407   */\n    tag_148:\n        /* \"#utility.yul\":10131:10137   */\n      0x00\n        /* \"#utility.yul\":10168:10169   */\n      0x02\n        /* \"#utility.yul\":10162:10166   */\n      dup3\n        /* \"#utility.yul\":10158:10170   */\n      div\n        /* \"#utility.yul\":10148:10170   */\n      swap1\n      pop\n        /* \"#utility.yul\":10215:10216   */\n      0x01\n        /* \"#utility.yul\":10209:10213   */\n      dup3\n        /* \"#utility.yul\":10205:10217   */\n      and\n        /* \"#utility.yul\":10236:10254   */\n      dup1\n        /* \"#utility.yul\":10226:10307   */\n      tag_382\n      jumpi\n        /* \"#utility.yul\":10292:10296   */\n      0x7f\n        /* \"#utility.yul\":10284:10290   */\n      dup3\n        /* \"#utility.yul\":10280:10297   */\n      and\n        /* \"#utility.yul\":10270:10297   */\n      swap2\n      pop\n        /* \"#utility.yul\":10226:10307   */\n    tag_382:\n        /* \"#utility.yul\":10354:10356   */\n      0x20\n        /* \"#utility.yul\":10346:10352   */\n      dup3\n        /* \"#utility.yul\":10343:10357   */\n      lt\n        /* \"#utility.yul\":10323:10341   */\n      dup2\n        /* \"#utility.yul\":10320:10358   */\n      sub\n        /* \"#utility.yul\":10317:10401   */\n      tag_383\n      jumpi\n        /* \"#utility.yul\":10373:10391   */\n      tag_384\n      tag_260\n      jump\t// in\n    tag_384:\n        /* \"#utility.yul\":10317:10401   */\n    tag_383:\n        /* \"#utility.yul\":10138:10407   */\n      pop\n        /* \"#utility.yul\":10087:10407   */\n      swap2\n      swap1\n      pop\n      jump\t// out\n        /* \"#utility.yul\":10413:10554   */\n    tag_261:\n        /* \"#utility.yul\":10462:10466   */\n      0x00\n        /* \"#utility.yul\":10485:10488   */\n      dup2\n        /* \"#utility.yul\":10477:10488   */\n      swap1\n      pop\n        /* \"#utility.yul\":10508:10511   */\n      dup2\n        /* \"#utility.yul\":10505:10506   */\n      0x00\n        /* \"#utility.yul\":10498:10512   */\n      mstore\n        /* \"#utility.yul\":10542:10546   */\n      0x20\n        /* \"#utility.yul\":10539:10540   */\n      0x00\n        /* \"#utility.yul\":10529:10547   */\n      keccak256\n        /* \"#utility.yul\":10521:10547   */\n      swap1\n      pop\n        /* \"#utility.yul\":10413:10554   */\n      swap2\n      swap1\n      pop\n      jump\t// out\n        /* \"#utility.yul\":10584:11458   */\n    tag_262:\n        /* \"#utility.yul\":10687:10690   */\n      0x00\n        /* \"#utility.yul\":10724:10729   */\n      dup2\n        /* \"#utility.yul\":10718:10730   */\n      sload\n        /* \"#utility.yul\":10753:10789   */\n      tag_387\n        /* \"#utility.yul\":10779:10788   */\n      dup2\n        /* \"#utility.yul\":10753:10789   */\n      tag_148\n      jump\t// in\n    tag_387:\n        /* \"#utility.yul\":10805:10894   */\n      tag_388\n        /* \"#utility.yul\":10887:10893   */\n      dup2\n        /* \"#utility.yul\":10882:10885   */\n      dup7\n        /* \"#utility.yul\":10805:10894   */\n      tag_258\n      jump\t// in\n    tag_388:\n        /* \"#utility.yul\":10798:10894   */\n      swap5\n      pop\n        /* \"#utility.yul\":10925:10926   */\n      0x01\n        /* \"#utility.yul\":10914:10923   */\n      dup3\n        /* \"#utility.yul\":10910:10927   */\n      and\n        /* \"#utility.yul\":10941:10942   */\n      0x00\n        /* \"#utility.yul\":10936:11102   */\n      dup2\n      eq\n      tag_390\n      jumpi\n        /* \"#utility.yul\":11116:11117   */\n      0x01\n        /* \"#utility.yul\":11111:11452   */\n      dup2\n      eq\n      tag_391\n      jumpi\n        /* \"#utility.yul\":10903:11452   */\n      jump(tag_389)\n        /* \"#utility.yul\":10936:11102   */\n    tag_390:\n        /* \"#utility.yul\":11020:11024   */\n      0xff\n        /* \"#utility.yul\":11016:11025   */\n      not\n        /* \"#utility.yul\":11005:11014   */\n      dup4\n        /* \"#utility.yul\":11001:11026   */\n      and\n        /* \"#utility.yul\":10996:10999   */\n      dup7\n        /* \"#utility.yul\":10989:11027   */\n      mstore\n        /* \"#utility.yul\":11082:11088   */\n      dup2\n        /* \"#utility.yul\":11075:11089   */\n      iszero\n        /* \"#utility.yul\":11068:11090   */\n      iszero\n        /* \"#utility.yul\":11060:11066   */\n      dup3\n        /* \"#utility.yul\":11056:11091   */\n      mul\n        /* \"#utility.yul\":11051:11054   */\n      dup7\n        /* \"#utility.yul\":11047:11092   */\n      add\n        /* \"#utility.yul\":11040:11092   */\n      swap4\n      pop\n        /* \"#utility.yul\":10936:11102   */\n      jump(tag_389)\n        /* \"#utility.yul\":11111:11452   */\n    tag_391:\n        /* \"#utility.yul\":11178:11216   */\n      tag_392\n        /* \"#utility.yul\":11210:11215   */\n      dup6\n        /* \"#utility.yul\":11178:11216   */\n      tag_261\n      jump\t// in\n    tag_392:\n        /* \"#utility.yul\":11238:11239   */\n      0x00\n        /* \"#utility.yul\":11252:11406   */\n    tag_393:\n        /* \"#utility.yul\":11266:11272   */\n      dup4\n        /* \"#utility.yul\":11263:11264   */\n      dup2\n        /* \"#utility.yul\":11260:11273   */\n      lt\n        /* \"#utility.yul\":11252:11406   */\n      iszero\n      tag_395\n      jumpi\n        /* \"#utility.yul\":11340:11347   */\n      dup2\n        /* \"#utility.yul\":11334:11348   */\n      sload\n        /* \"#utility.yul\":11330:11331   */\n      dup2\n        /* \"#utility.yul\":11325:11328   */\n      dup10\n        /* \"#utility.yul\":11321:11332   */\n      add\n        /* \"#utility.yul\":11314:11349   */\n      mstore\n        /* \"#utility.yul\":11390:11391   */\n      0x01\n        /* \"#utility.yul\":11381:11388   */\n      dup3\n        /* \"#utility.yul\":11377:11392   */\n      add\n        /* \"#utility.yul\":11366:11392   */\n      swap2\n      pop\n        /* \"#utility.yul\":11288:11292   */\n      0x20\n        /* \"#utility.yul\":11285:11286   */\n      dup2\n        /* \"#utility.yul\":11281:11293   */\n      add\n        /* \"#utility.yul\":11276:11293   */\n      swap1\n      pop\n        /* \"#utility.yul\":11252:11406   */\n      jump(tag_393)\n    tag_395:\n        /* \"#utility.yul\":11435:11441   */\n      dup4\n        /* \"#utility.yul\":11430:11433   */\n      dup9\n        /* \"#utility.yul\":11426:11442   */\n      add\n        /* \"#utility.yul\":11419:11442   */\n      swap6\n      pop\n        /* \"#utility.yul\":11118:11452   */\n      pop\n      pop\n        /* \"#utility.yul\":10903:11452   */\n    tag_389:\n      pop\n        /* \"#utility.yul\":10691:11458   */\n      pop\n      pop\n        /* \"#utility.yul\":10584:11458   */\n      swap3\n      swap2\n      pop\n      pop\n      jump\t// out\n        /* \"#utility.yul\":11464:11893   */\n    tag_100:\n        /* \"#utility.yul\":11641:11644   */\n      0x00\n        /* \"#utility.yul\":11663:11758   */\n      tag_397\n        /* \"#utility.yul\":11754:11757   */\n      dup3\n        /* \"#utility.yul\":11745:11751   */\n      dup6\n        /* \"#utility.yul\":11663:11758   */\n      tag_259\n      jump\t// in\n    tag_397:\n        /* \"#utility.yul\":11656:11758   */\n      swap2\n      pop\n        /* \"#utility.yul\":11775:11867   */\n      tag_398\n        /* \"#utility.yul\":11863:11866   */\n      dup3\n        /* \"#utility.yul\":11854:11860   */\n      dup5\n        /* \"#utility.yul\":11775:11867   */\n      tag_262\n      jump\t// in\n    tag_398:\n        /* \"#utility.yul\":11768:11867   */\n      swap2\n      pop\n        /* \"#utility.yul\":11884:11887   */\n      dup2\n        /* \"#utility.yul\":11877:11887   */\n      swap1\n      pop\n        /* \"#utility.yul\":11464:11893   */\n      swap4\n      swap3\n      pop\n      pop\n      pop\n      jump\t// out\n        /* \"#utility.yul\":11899:12079   */\n    tag_263:\n        /* \"#utility.yul\":11947:12024   */\n      0x4e487b7100000000000000000000000000000000000000000000000000000000\n        /* \"#utility.yul\":11944:11945   */\n      0x00\n        /* \"#utility.yul\":11937:12025   */\n      mstore\n        /* \"#utility.yul\":12044:12048   */\n      0x11\n        /* \"#utility.yul\":12041:12042   */\n      0x04\n        /* \"#utility.yul\":12034:12049   */\n      mstore\n        /* \"#utility.yul\":12068:12072   */\n      0x24\n        /* \"#utility.yul\":12065:12066   */\n      0x00\n        /* \"#utility.yul\":12058:12073   */\n      revert\n        /* \"#utility.yul\":12085:12495   */\n    tag_116:\n        /* \"#utility.yul\":12125:12132   */\n      0x00\n        /* \"#utility.yul\":12148:12168   */\n      tag_401\n        /* \"#utility.yul\":12166:12167   */\n      dup3\n        /* \"#utility.yul\":12148:12168   */\n      tag_243\n      jump\t// in\n    tag_401:\n        /* \"#utility.yul\":12143:12168   */\n      swap2\n      pop\n        /* \"#utility.yul\":12182:12202   */\n      tag_402\n        /* \"#utility.yul\":12200:12201   */\n      dup4\n        /* \"#utility.yul\":12182:12202   */\n      tag_243\n      jump\t// in\n    tag_402:\n        /* \"#utility.yul\":12177:12202   */\n      swap3\n      pop\n        /* \"#utility.yul\":12237:12238   */\n      dup3\n        /* \"#utility.yul\":12234:12235   */\n      dup3\n        /* \"#utility.yul\":12230:12239   */\n      mul\n        /* \"#utility.yul\":12259:12289   */\n      tag_403\n        /* \"#utility.yul\":12277:12288   */\n      dup2\n        /* \"#utility.yul\":12259:12289   */\n      tag_243\n      jump\t// in\n    tag_403:\n        /* \"#utility.yul\":12248:12289   */\n      swap2\n      pop\n        /* \"#utility.yul\":12438:12439   */\n      dup3\n        /* \"#utility.yul\":12429:12436   */\n      dup3\n        /* \"#utility.yul\":12425:12440   */\n      div\n        /* \"#utility.yul\":12422:12423   */\n      dup5\n        /* \"#utility.yul\":12419:12441   */\n      eq\n        /* \"#utility.yul\":12399:12400   */\n      dup4\n        /* \"#utility.yul\":12392:12401   */\n      iszero\n        /* \"#utility.yul\":12372:12455   */\n      or\n        /* \"#utility.yul\":12349:12488   */\n      tag_404\n      jumpi\n        /* \"#utility.yul\":12468:12486   */\n      tag_405\n      tag_263\n      jump\t// in\n    tag_405:\n        /* \"#utility.yul\":12349:12488   */\n    tag_404:\n        /* \"#utility.yul\":12133:12495   */\n      pop\n        /* \"#utility.yul\":12085:12495   */\n      swap3\n      swap2\n      pop\n      pop\n      jump\t// out\n        /* \"#utility.yul\":12501:12681   */\n    tag_264:\n        /* \"#utility.yul\":12549:12626   */\n      0x4e487b7100000000000000000000000000000000000000000000000000000000\n        /* \"#utility.yul\":12546:12547   */\n      0x00\n        /* \"#utility.yul\":12539:12627   */\n      mstore\n        /* \"#utility.yul\":12646:12650   */\n      0x12\n        /* \"#utility.yul\":12643:12644   */\n      0x04\n        /* \"#utility.yul\":12636:12651   */\n      mstore\n        /* \"#utility.yul\":12670:12674   */\n      0x24\n        /* \"#utility.yul\":12667:12668   */\n      0x00\n        /* \"#utility.yul\":12660:12675   */\n      revert\n        /* \"#utility.yul\":12687:12872   */\n    tag_118:\n        /* \"#utility.yul\":12727:12728   */\n      0x00\n        /* \"#utility.yul\":12744:12764   */\n      tag_408\n        /* \"#utility.yul\":12762:12763   */\n      dup3\n        /* \"#utility.yul\":12744:12764   */\n      tag_243\n      jump\t// in\n    tag_408:\n        /* \"#utility.yul\":12739:12764   */\n      swap2\n      pop\n        /* \"#utility.yul\":12778:12798   */\n      tag_409\n        /* \"#utility.yul\":12796:12797   */\n      dup4\n        /* \"#utility.yul\":12778:12798   */\n      tag_243\n      jump\t// in\n    tag_409:\n        /* \"#utility.yul\":12773:12798   */\n      swap3\n      pop\n        /* \"#utility.yul\":12817:12818   */\n      dup3\n        /* \"#utility.yul\":12807:12842   */\n      tag_410\n      jumpi\n        /* \"#utility.yul\":12822:12840   */\n      tag_411\n      tag_264\n      jump\t// in\n    tag_411:\n        /* \"#utility.yul\":12807:12842   */\n    tag_410:\n        /* \"#utility.yul\":12864:12865   */\n      dup3\n        /* \"#utility.yul\":12861:12862   */\n      dup3\n        /* \"#utility.yul\":12857:12866   */\n      div\n        /* \"#utility.yul\":12852:12866   */\n      swap1\n      pop\n        /* \"#utility.yul\":12687:12872   */\n      swap3\n      swap2\n      pop\n      pop\n      jump\t// out\n        /* \"#utility.yul\":12878:13072   */\n    tag_129:\n        /* \"#utility.yul\":12918:12922   */\n      0x00\n        /* \"#utility.yul\":12938:12958   */\n      tag_413\n        /* \"#utility.yul\":12956:12957   */\n      dup3\n        /* \"#utility.yul\":12938:12958   */\n      tag_243\n      jump\t// in\n    tag_413:\n        /* \"#utility.yul\":12933:12958   */\n      swap2\n      pop\n        /* \"#utility.yul\":12972:12992   */\n      tag_414\n        /* \"#utility.yul\":12990:12991   */\n      dup4\n        /* \"#utility.yul\":12972:12992   */\n      tag_243\n      jump\t// in\n    tag_414:\n        /* \"#utility.yul\":12967:12992   */\n      swap3\n      pop\n        /* \"#utility.yul\":13016:13017   */\n      dup3\n        /* \"#utility.yul\":13013:13014   */\n      dup3\n        /* \"#utility.yul\":13009:13018   */\n      sub\n        /* \"#utility.yul\":13001:13018   */\n      swap1\n      pop\n        /* \"#utility.yul\":13040:13041   */\n      dup2\n        /* \"#utility.yul\":13034:13038   */\n      dup2\n        /* \"#utility.yul\":13031:13042   */\n      gt\n        /* \"#utility.yul\":13028:13065   */\n      iszero\n      tag_415\n      jumpi\n        /* \"#utility.yul\":13045:13063   */\n      tag_416\n      tag_263\n      jump\t// in\n    tag_416:\n        /* \"#utility.yul\":13028:13065   */\n    tag_415:\n        /* \"#utility.yul\":12878:13072   */\n      swap3\n      swap2\n      pop\n      pop\n      jump\t// out\n        /* \"#utility.yul\":13078:13221   */\n    tag_265:\n        /* \"#utility.yul\":13135:13140   */\n      0x00\n        /* \"#utility.yul\":13166:13172   */\n      dup2\n        /* \"#utility.yul\":13160:13173   */\n      mload\n        /* \"#utility.yul\":13151:13173   */\n      swap1\n      pop\n        /* \"#utility.yul\":13182:13215   */\n      tag_418\n        /* \"#utility.yul\":13209:13214   */\n      dup2\n        /* \"#utility.yul\":13182:13215   */\n      tag_244\n      jump\t// in\n    tag_418:\n        /* \"#utility.yul\":13078:13221   */\n      swap3\n      swap2\n      pop\n      pop\n      jump\t// out\n        /* \"#utility.yul\":13227:13578   */\n    tag_169:\n        /* \"#utility.yul\":13297:13303   */\n      0x00\n        /* \"#utility.yul\":13346:13348   */\n      0x20\n        /* \"#utility.yul\":13334:13343   */\n      dup3\n        /* \"#utility.yul\":13325:13332   */\n      dup5\n        /* \"#utility.yul\":13321:13344   */\n      sub\n        /* \"#utility.yul\":13317:13349   */\n      slt\n        /* \"#utility.yul\":13314:13433   */\n      iszero\n      tag_420\n      jumpi\n        /* \"#utility.yul\":13352:13431   */\n      tag_421\n      tag_237\n      jump\t// in\n    tag_421:\n        /* \"#utility.yul\":13314:13433   */\n    tag_420:\n        /* \"#utility.yul\":13472:13473   */\n      0x00\n        /* \"#utility.yul\":13497:13561   */\n      tag_422\n        /* \"#utility.yul\":13553:13560   */\n      dup5\n        /* \"#utility.yul\":13544:13550   */\n      dup3\n        /* \"#utility.yul\":13533:13542   */\n      dup6\n        /* \"#utility.yul\":13529:13551   */\n      add\n        /* \"#utility.yul\":13497:13561   */\n      tag_265\n      jump\t// in\n    tag_422:\n        /* \"#utility.yul\":13487:13561   */\n      swap2\n      pop\n        /* \"#utility.yul\":13443:13571   */\n      pop\n        /* \"#utility.yul\":13227:13578   */\n      swap3\n      swap2\n      pop\n      pop\n      jump\t// out\n        /* \"#utility.yul\":13584:13775   */\n    tag_177:\n        /* \"#utility.yul\":13624:13627   */\n      0x00\n        /* \"#utility.yul\":13643:13663   */\n      tag_424\n        /* \"#utility.yul\":13661:13662   */\n      dup3\n        /* \"#utility.yul\":13643:13663   */\n      tag_243\n      jump\t// in\n    tag_424:\n        /* \"#utility.yul\":13638:13663   */\n      swap2\n      pop\n        /* \"#utility.yul\":13677:13697   */\n      tag_425\n        /* \"#utility.yul\":13695:13696   */\n      dup4\n        /* \"#utility.yul\":13677:13697   */\n      tag_243\n      jump\t// in\n    tag_425:\n        /* \"#utility.yul\":13672:13697   */\n      swap3\n      pop\n        /* \"#utility.yul\":13720:13721   */\n      dup3\n        /* \"#utility.yul\":13717:13718   */\n      dup3\n        /* \"#utility.yul\":13713:13722   */\n      add\n        /* \"#utility.yul\":13706:13722   */\n      swap1\n      pop\n        /* \"#utility.yul\":13741:13744   */\n      dup1\n        /* \"#utility.yul\":13738:13739   */\n      dup3\n        /* \"#utility.yul\":13735:13745   */\n      gt\n        /* \"#utility.yul\":13732:13768   */\n      iszero\n      tag_426\n      jumpi\n        /* \"#utility.yul\":13748:13766   */\n      tag_427\n      tag_263\n      jump\t// in\n    tag_427:\n        /* \"#utility.yul\":13732:13768   */\n    tag_426:\n        /* \"#utility.yul\":13584:13775   */\n      swap3\n      swap2\n      pop\n      pop\n      jump\t// out\n        /* \"#utility.yul\":13781:14223   */\n    tag_206:\n        /* \"#utility.yul\":13930:13934   */\n      0x00\n        /* \"#utility.yul\":13968:13970   */\n      0x60\n        /* \"#utility.yul\":13957:13966   */\n      dup3\n        /* \"#utility.yul\":13953:13971   */\n      add\n        /* \"#utility.yul\":13945:13971   */\n      swap1\n      pop\n        /* \"#utility.yul\":13981:14052   */\n      tag_429\n        /* \"#utility.yul\":14049:14050   */\n      0x00\n        /* \"#utility.yul\":14038:14047   */\n      dup4\n        /* \"#utility.yul\":14034:14051   */\n      add\n        /* \"#utility.yul\":14025:14031   */\n      dup7\n        /* \"#utility.yul\":13981:14052   */\n      tag_253\n      jump\t// in\n    tag_429:\n        /* \"#utility.yul\":14062:14134   */\n      tag_430\n        /* \"#utility.yul\":14130:14132   */\n      0x20\n        /* \"#utility.yul\":14119:14128   */\n      dup4\n        /* \"#utility.yul\":14115:14133   */\n      add\n        /* \"#utility.yul\":14106:14112   */\n      dup6\n        /* \"#utility.yul\":14062:14134   */\n      tag_253\n      jump\t// in\n    tag_430:\n        /* \"#utility.yul\":14144:14216   */\n      tag_431\n        /* \"#utility.yul\":14212:14214   */\n      0x40\n        /* \"#utility.yul\":14201:14210   */\n      dup4\n        /* \"#utility.yul\":14197:14215   */\n      add\n        /* \"#utility.yul\":14188:14194   */\n      dup5\n        /* \"#utility.yul\":14144:14216   */\n      tag_248\n      jump\t// in\n    tag_431:\n        /* \"#utility.yul\":13781:14223   */\n      swap5\n      swap4\n      pop\n      pop\n      pop\n      pop\n      jump\t// out\n        /* \"#utility.yul\":14229:14345   */\n    tag_266:\n        /* \"#utility.yul\":14299:14320   */\n      tag_433\n        /* \"#utility.yul\":14314:14319   */\n      dup2\n        /* \"#utility.yul\":14299:14320   */\n      tag_246\n      jump\t// in\n    tag_433:\n        /* \"#utility.yul\":14292:14297   */\n      dup2\n        /* \"#utility.yul\":14289:14321   */\n      eq\n        /* \"#utility.yul\":14279:14339   */\n      tag_434\n      jumpi\n        /* \"#utility.yul\":14335:14336   */\n      0x00\n        /* \"#utility.yul\":14332:14333   */\n      dup1\n        /* \"#utility.yul\":14325:14337   */\n      revert\n        /* \"#utility.yul\":14279:14339   */\n    tag_434:\n        /* \"#utility.yul\":14229:14345   */\n      pop\n      jump\t// out\n        /* \"#utility.yul\":14351:14488   */\n    tag_267:\n        /* \"#utility.yul\":14405:14410   */\n      0x00\n        /* \"#utility.yul\":14436:14442   */\n      dup2\n        /* \"#utility.yul\":14430:14443   */\n      mload\n        /* \"#utility.yul\":14421:14443   */\n      swap1\n      pop\n        /* \"#utility.yul\":14452:14482   */\n      tag_436\n        /* \"#utility.yul\":14476:14481   */\n      dup2\n        /* \"#utility.yul\":14452:14482   */\n      tag_266\n      jump\t// in\n    tag_436:\n        /* \"#utility.yul\":14351:14488   */\n      swap3\n      swap2\n      pop\n      pop\n      jump\t// out\n        /* \"#utility.yul\":14494:14839   */\n    tag_210:\n        /* \"#utility.yul\":14561:14567   */\n      0x00\n        /* \"#utility.yul\":14610:14612   */\n      0x20\n        /* \"#utility.yul\":14598:14607   */\n      dup3\n        /* \"#utility.yul\":14589:14596   */\n      dup5\n        /* \"#utility.yul\":14585:14608   */\n      sub\n        /* \"#utility.yul\":14581:14613   */\n      slt\n        /* \"#utility.yul\":14578:14697   */\n      iszero\n      tag_438\n      jumpi\n        /* \"#utility.yul\":14616:14695   */\n      tag_439\n      tag_237\n      jump\t// in\n    tag_439:\n        /* \"#utility.yul\":14578:14697   */\n    tag_438:\n        /* \"#utility.yul\":14736:14737   */\n      0x00\n        /* \"#utility.yul\":14761:14822   */\n      tag_440\n        /* \"#utility.yul\":14814:14821   */\n      dup5\n        /* \"#utility.yul\":14805:14811   */\n      dup3\n        /* \"#utility.yul\":14794:14803   */\n      dup6\n        /* \"#utility.yul\":14790:14812   */\n      add\n        /* \"#utility.yul\":14761:14822   */\n      tag_267\n      jump\t// in\n    tag_440:\n        /* \"#utility.yul\":14751:14822   */\n      swap2\n      pop\n        /* \"#utility.yul\":14707:14832   */\n      pop\n        /* \"#utility.yul\":14494:14839   */\n      swap3\n      swap2\n      pop\n      pop\n      jump\t// out\n\n    auxdata: 0xa26469706673582212200ffc35eaf0ff8b6de8fd6fb27cfcfefcfa1bc0ffe7bb926dba91fce612f16ea164736f6c63430008140033\n}\n",
				"bytecode": {
					"linkReferences": {},
					"object": "608060405234801562000010575f80fd5b50604051620023a0380380620023a083398181016040528101906200003691906200034b565b8173ffffffffffffffffffffffffffffffffffffffff166395d89b416040518163ffffffff1660e01b81526004015f60405180830381865afa1580156200007f573d5f803e3d5ffd5b505050506040513d5f823e3d601f19601f82011682018060405250810190620000a9919062000504565b8173ffffffffffffffffffffffffffffffffffffffff166395d89b416040518163ffffffff1660e01b81526004015f60405180830381865afa158015620000f2573d5f803e3d5ffd5b505050506040513d5f823e3d601f19601f820116820180604052508101906200011c919062000504565b6040516020016200012f9291906200059d565b604051602081830303815290604052805f90816200014e9190620007f1565b50620001635f6103e86200022c60201b60201c565b503360015f6101000a81548173ffffffffffffffffffffffffffffffffffffffff021916908373ffffffffffffffffffffffffffffffffffffffff1602179055508160025f6101000a81548173ffffffffffffffffffffffffffffffffffffffff021916908373ffffffffffffffffffffffffffffffffffffffff1602179055508060035f6101000a81548173ffffffffffffffffffffffffffffffffffffffff021916908373ffffffffffffffffffffffffffffffffffffffff1602179055505050620008d5565b6200023f5f8383620002cf60201b60201c565b6805345cdf77eb68f44c5481810181811015620002635763e5cfe9575f526004601cfd5b806805345cdf77eb68f44c556387a211a2600c52835f526020600c2083815401815583602052600c5160601c5f7fddf252ad1be2c89b69c2b068fc378daa952ba7f163c4a11628f55a4df523b3ef602080a3505050620002cb5f8383620002d460201b60201c565b5050565b505050565b505050565b5f604051905090565b5f80fd5b5f80fd5b5f73ffffffffffffffffffffffffffffffffffffffff82169050919050565b5f6200031582620002ea565b9050919050565b620003278162000309565b811462000332575f80fd5b50565b5f8151905062000345816200031c565b92915050565b5f8060408385031215620003645762000363620002e2565b5b5f620003738582860162000335565b9250506020620003868582860162000335565b9150509250929050565b5f80fd5b5f80fd5b5f601f19601f8301169050919050565b7f4e487b71000000000000000000000000000000000000000000000000000000005f52604160045260245ffd5b620003e08262000398565b810181811067ffffffffffffffff82111715620004025762000401620003a8565b5b80604052505050565b5f62000416620002d9565b9050620004248282620003d5565b919050565b5f67ffffffffffffffff821115620004465762000445620003a8565b5b620004518262000398565b9050602081019050919050565b5f5b838110156200047d57808201518184015260208101905062000460565b5f8484015250505050565b5f6200049e620004988462000429565b6200040b565b905082815260208101848484011115620004bd57620004bc62000394565b5b620004ca8482856200045e565b509392505050565b5f82601f830112620004e957620004e862000390565b5b8151620004fb84826020860162000488565b91505092915050565b5f602082840312156200051c576200051b620002e2565b5b5f82015167ffffffffffffffff8111156200053c576200053b620002e6565b5b6200054a84828501620004d2565b91505092915050565b5f81519050919050565b5f81905092915050565b5f620005738262000553565b6200057f81856200055d565b9350620005918185602086016200045e565b80840191505092915050565b5f620005aa828562000567565b9150620005b8828462000567565b91508190509392505050565b7f4e487b71000000000000000000000000000000000000000000000000000000005f52602260045260245ffd5b5f60028204905060018216806200060957607f821691505b6020821081036200061f576200061e620005c4565b5b50919050565b5f819050815f5260205f209050919050565b5f6020601f8301049050919050565b5f82821b905092915050565b5f60088302620006837fffffffffffffffffffffffffffffffffffffffffffffffffffffffffffffffff8262000646565b6200068f868362000646565b95508019841693508086168417925050509392505050565b5f819050919050565b5f819050919050565b5f620006d9620006d3620006cd84620006a7565b620006b0565b620006a7565b9050919050565b5f819050919050565b620006f483620006b9565b6200070c6200070382620006e0565b84845462000652565b825550505050565b5f90565b6200072262000714565b6200072f818484620006e9565b505050565b5b8181101562000756576200074a5f8262000718565b60018101905062000735565b5050565b601f821115620007a5576200076f8162000625565b6200077a8462000637565b810160208510156200078a578190505b620007a2620007998562000637565b83018262000734565b50505b505050565b5f82821c905092915050565b5f620007c75f1984600802620007aa565b1980831691505092915050565b5f620007e18383620007b6565b9150826002028217905092915050565b620007fc8262000553565b67ffffffffffffffff811115620008185762000817620003a8565b5b620008248254620005f1565b620008318282856200075a565b5f60209050601f83116001811462000867575f841562000852578287015190505b6200085e8582620007d4565b865550620008cd565b601f198416620008778662000625565b5f5b82811015620008a05784890151825560018201915060208501945060208101905062000879565b86831015620008c05784890151620008bc601f891682620007b6565b8355505b6001600288020188555050505b505050505050565b611abd80620008e35f395ff3fe608060405234801561000f575f80fd5b5060043610610109575f3560e01c80637ecebe00116100a0578063c45a01551161006f578063c45a0155146102f4578063d004f0f714610312578063d505accf14610342578063dd62ed3e1461035e578063e2bbb1581461038e57610109565b80637ecebe00146102465780638f79306e1461027657806395d89b41146102a6578063a9059cbb146102c457610109565b80632e1a7d4d116100dc5780632e1a7d4d146101a9578063313ce567146101da5780633644e515146101f857806370a082311461021657610109565b806306fdde031461010d578063095ea7b31461012b57806318160ddd1461015b57806323b872dd14610179575b5f80fd5b6101156103be565b6040516101229190611330565b60405180910390f35b610145600480360381019061014091906113e1565b61041c565b6040516101529190611439565b60405180910390f35b61016361046c565b6040516101709190611461565b60405180910390f35b610193600480360381019061018e919061147a565b61047d565b6040516101a09190611439565b60405180910390f35b6101c360048036038101906101be91906114ca565b61054e565b6040516101d19291906114f5565b60405180910390f35b6101e26106bb565b6040516101ef9190611537565b60405180910390f35b6102006106c3565b60405161020d9190611568565b60405180910390f35b610230600480360381019061022b9190611581565b610753565b60405161023d9190611461565b60405180910390f35b610260600480360381019061025b9190611581565b61076c565b60405161026d9190611461565b60405180910390f35b610290600480360381019061028b91906113e1565b610785565b60405161029d9190611461565b60405180910390f35b6102ae6108b4565b6040516102bb9190611330565b60405180910390f35b6102de60048036038101906102d991906113e1565b610943565b6040516102eb9190611439565b60405180910390f35b6102fc6109d1565b60405161030991906115bb565b60405180910390f35b61032c600480360381019061032791906113e1565b6109f6565b6040516103399190611461565b60405180910390f35b61035c60048036038101906103579190611628565b610d23565b005b610378600480360381019061037391906116c5565b610ebf565b6040516103859190611461565b60405180910390f35b6103a860048036038101906103a39190611703565b610edd565b6040516103b59190611461565b60405180910390f35b60606040518060400160405280600581526020017f4d494e492d0000000000000000000000000000000000000000000000000000008152505f60405160200161040892919061186a565b604051602081830303815290604052905090565b5f82602052637f5e9f20600c52335f52816034600c2055815f52602c5160601c337f8c5be1e5ebec7d5bd14f71427d1e84f3dd0314c0f7b2291e5b200ac8c7c3b92560205fa36001905092915050565b5f6805345cdf77eb68f44c54905090565b5f610489848484610fd4565b8360601b33602052637f5e9f208117600c526034600c20805460018101156104c657808511156104c0576313be252b5f526004601cfd5b84810382555b6387a211a28317600c526020600c208054808711156104ec5763f4d678b85f526004601cfd5b8681038255875f526020600c2087815401815587602052600c5160601c8660601c7fddf252ad1be2c89b69c2b068fc378daa952ba7f163c4a11628f55a4df523b3ef602080a3505050505050610543848484610fd9565b600190509392505050565b5f808261055a33610753565b1015610592576040517f50b1f35600000000000000000000000000000000000000000000000000000000815260040160405180910390fd5b5f61059b61046c565b90505f81600454866105ad91906118ba565b6105b79190611928565b90505f82600454876105c991906118ba565b6105d39190611928565b90505f8214806105e257505f81145b15610619576040517f2cd294cf00000000000000000000000000000000000000000000000000000000815260040160405180910390fd5b61064660025f9054906101000a900473ffffffffffffffffffffffffffffffffffffffff16303385610fde565b61067360035f9054906101000a900473ffffffffffffffffffffffffffffffffffffffff16303384610fde565b61067d308761109c565b8160045f82825461068e9190611958565b925050819055508060055f8282546106a69190611958565b92505081905550818194509450505050915091565b5f6012905090565b5f806106cd61112c565b90505f801b81036106ea576106e06103be565b8051906020012090505b6040517f8b73c3c69bb8fe3d512ecc4cf759cc79239f7b179b0ffacaa9a75d522b39400f81528160208201527fc89efdaa54c0f20c7adf612882df0950f5a951637e0307cdcb4c672f298b8bc6604082015246606082015230608082015260a081209250505090565b5f6387a211a2600c52815f526020600c20549050919050565b5f6338377508600c52815f526020600c20549050919050565b5f8260025f9054906101000a900473ffffffffffffffffffffffffffffffffffffffff1673ffffffffffffffffffffffffffffffffffffffff168173ffffffffffffffffffffffffffffffffffffffff1614158015610831575060035f9054906101000a900473ffffffffffffffffffffffffffffffffffffffff1673ffffffffffffffffffffffffffffffffffffffff168173ffffffffffffffffffffffffffffffffffffffff1614155b15610868576040517f82bce52600000000000000000000000000000000000000000000000000000000815260040160405180910390fd5b5f83036108a1576040517f8966f48700000000000000000000000000000000000000000000000000000000815260040160405180910390fd5b6108ab8484611130565b91505092915050565b60605f80546108c2906117a8565b80601f01602080910402602001604051908101604052809291908181526020018280546108ee906117a8565b80156109395780601f1061091057610100808354040283529160200191610939565b820191905f5260205f20905b81548152906001019060200180831161091c57829003601f168201915b5050505050905090565b5f61094f338484610fd4565b6387a211a2600c52335f526020600c208054808411156109765763f4d678b85f526004601cfd5b8381038255845f526020600c2084815401815584602052600c5160601c337fddf252ad1be2c89b69c2b068fc378daa952ba7f163c4a11628f55a4df523b3ef602080a35050506109c7338484610fd9565b6001905092915050565b60015f9054906101000a900473ffffffffffffffffffffffffffffffffffffffff1681565b5f8260025f9054906101000a900473ffffffffffffffffffffffffffffffffffffffff1673ffffffffffffffffffffffffffffffffffffffff168173ffffffffffffffffffffffffffffffffffffffff1614158015610aa2575060035f9054906101000a900473ffffffffffffffffffffffffffffffffffffffff1673ffffffffffffffffffffffffffffffffffffffff168173ffffffffffffffffffffffffffffffffffffffff1614155b15610ad9576040517f82bce52600000000000000000000000000000000000000000000000000000000815260040160405180910390fd5b5f60025f9054906101000a900473ffffffffffffffffffffffffffffffffffffffff1690505f60035f9054906101000a900473ffffffffffffffffffffffffffffffffffffffff1690505f8503610b5c576040517f8966f48700000000000000000000000000000000000000000000000000000000815260040160405180910390fd5b5f610b678787611130565b90505f8373ffffffffffffffffffffffffffffffffffffffff168873ffffffffffffffffffffffffffffffffffffffff1614610ba35783610ba5565b825b90508160028273ffffffffffffffffffffffffffffffffffffffff166370a08231306040518263ffffffff1660e01b8152600401610be391906115bb565b602060405180830381865afa158015610bfe573d5f803e3d5ffd5b505050506040513d601f19601f82011682018060405250810190610c22919061199f565b610c2c9190611928565b1015610c64576040517f8cab1f2800000000000000000000000000000000000000000000000000000000815260040160405180910390fd5b610c708833308a610fde565b610c7c81303385610fde565b8373ffffffffffffffffffffffffffffffffffffffff168173ffffffffffffffffffffffffffffffffffffffff1603610ce4578160045f828254610cc09190611958565b925050819055508660055f828254610cd891906119ca565b92505081905550610d15565b8660045f828254610cf591906119ca565b925050819055508160055f828254610d0d9190611958565b925050819055505b819550505050505092915050565b5f610d2c61112c565b90505f801b8103610d4957610d3f6103be565b8051906020012090505b84421115610d5e57631a15a3cc5f526004601cfd5b6040518860601b60601c98508760601b60601c975065383775081901600e52885f526020600c2080547f8b73c3c69bb8fe3d512ecc4cf759cc79239f7b179b0ffacaa9a75d522b39400f83528360208401527fc89efdaa54c0f20c7adf612882df0950f5a951637e0307cdcb4c672f298b8bc6604084015246606084015230608084015260a08320602e527f6e71edae12b1b97f4d1f60370fef10105fa2faae0126114a169c64845d6126c983528a60208401528960408401528860608401528060808401528760a084015260c08320604e526042602c205f528660ff16602052856040528460605260208060805f60015afa8b3d5114610e665763ddafbaef5f526004601cfd5b80820183558a637f5e9f2060a01b17604052896034602c20558a8c7f8c5be1e5ebec7d5bd14f71427d1e84f3dd0314c0f7b2291e5b200ac8c7c3b925602060608801a3836040525f606052505050505050505050505050565b5f81602052637f5e9f20600c52825f526034600c2054905092915050565b5f80610f0a60025f9054906101000a900473ffffffffffffffffffffffffffffffffffffffff1685611130565b905082811015610f46576040517f2cd294cf00000000000000000000000000000000000000000000000000000000815260040160405180910390fd5b5f610f4f61046c565b90505f610f8c8260045488610f6491906118ba565b610f6e9190611928565b8360055488610f7d91906118ba565b610f879190611928565b6111fc565b9050610f983382611214565b8560045f828254610fa991906119ca565b925050819055508460055f828254610fc191906119ca565b9250508190555080935050505092915050565b505050565b505050565b5f8473ffffffffffffffffffffffffffffffffffffffff166323b872dd8585856040518463ffffffff1660e01b815260040161101c939291906119fd565b6020604051808303815f875af1158015611038573d5f803e3d5ffd5b505050506040513d601f19601f8201168201806040525081019061105c9190611a5c565b905080611095576040517f3f4ab80e00000000000000000000000000000000000000000000000000000000815260040160405180910390fd5b5050505050565b6110a7825f83610fd4565b6387a211a2600c52815f526020600c208054808311156110ce5763f4d678b85f526004601cfd5b8281038255826805345cdf77eb68f44c54036805345cdf77eb68f44c55825f525f8460601b60601c7fddf252ad1be2c89b69c2b068fc378daa952ba7f163c4a11628f55a4df523b3ef60205fa35050611128825f83610fd9565b5050565b5f90565b5f8060025f9054906101000a900473ffffffffffffffffffffffffffffffffffffffff1690505f8173ffffffffffffffffffffffffffffffffffffffff168573ffffffffffffffffffffffffffffffffffffffff161461119257600554611196565b6004545b90505f8273ffffffffffffffffffffffffffffffffffffffff168673ffffffffffffffffffffffffffffffffffffffff16146111d4576004546111d8565b6005545b90508085836111e791906118ba565b6111f19190611928565b935050505092915050565b5f81831061120a578161120c565b825b905092915050565b61121f5f8383610fd4565b6805345cdf77eb68f44c54818101818110156112425763e5cfe9575f526004601cfd5b806805345cdf77eb68f44c556387a211a2600c52835f526020600c2083815401815583602052600c5160601c5f7fddf252ad1be2c89b69c2b068fc378daa952ba7f163c4a11628f55a4df523b3ef602080a35050506112a25f8383610fd9565b5050565b5f81519050919050565b5f82825260208201905092915050565b5f5b838110156112dd5780820151818401526020810190506112c2565b5f8484015250505050565b5f601f19601f8301169050919050565b5f611302826112a6565b61130c81856112b0565b935061131c8185602086016112c0565b611325816112e8565b840191505092915050565b5f6020820190508181035f83015261134881846112f8565b905092915050565b5f80fd5b5f73ffffffffffffffffffffffffffffffffffffffff82169050919050565b5f61137d82611354565b9050919050565b61138d81611373565b8114611397575f80fd5b50565b5f813590506113a881611384565b92915050565b5f819050919050565b6113c0816113ae565b81146113ca575f80fd5b50565b5f813590506113db816113b7565b92915050565b5f80604083850312156113f7576113f6611350565b5b5f6114048582860161139a565b9250506020611415858286016113cd565b9150509250929050565b5f8115159050919050565b6114338161141f565b82525050565b5f60208201905061144c5f83018461142a565b92915050565b61145b816113ae565b82525050565b5f6020820190506114745f830184611452565b92915050565b5f805f6060848603121561149157611490611350565b5b5f61149e8682870161139a565b93505060206114af8682870161139a565b92505060406114c0868287016113cd565b9150509250925092565b5f602082840312156114df576114de611350565b5b5f6114ec848285016113cd565b91505092915050565b5f6040820190506115085f830185611452565b6115156020830184611452565b9392505050565b5f60ff82169050919050565b6115318161151c565b82525050565b5f60208201905061154a5f830184611528565b92915050565b5f819050919050565b61156281611550565b82525050565b5f60208201905061157b5f830184611559565b92915050565b5f6020828403121561159657611595611350565b5b5f6115a38482850161139a565b91505092915050565b6115b581611373565b82525050565b5f6020820190506115ce5f8301846115ac565b92915050565b6115dd8161151c565b81146115e7575f80fd5b50565b5f813590506115f8816115d4565b92915050565b61160781611550565b8114611611575f80fd5b50565b5f81359050611622816115fe565b92915050565b5f805f805f805f60e0888a03121561164357611642611350565b5b5f6116508a828b0161139a565b97505060206116618a828b0161139a565b96505060406116728a828b016113cd565b95505060606116838a828b016113cd565b94505060806116948a828b016115ea565b93505060a06116a58a828b01611614565b92505060c06116b68a828b01611614565b91505092959891949750929550565b5f80604083850312156116db576116da611350565b5b5f6116e88582860161139a565b92505060206116f98582860161139a565b9150509250929050565b5f806040838503121561171957611718611350565b5b5f611726858286016113cd565b9250506020611737858286016113cd565b9150509250929050565b5f81905092915050565b5f611755826112a6565b61175f8185611741565b935061176f8185602086016112c0565b80840191505092915050565b7f4e487b71000000000000000000000000000000000000000000000000000000005f52602260045260245ffd5b5f60028204905060018216806117bf57607f821691505b6020821081036117d2576117d161177b565b5b50919050565b5f819050815f5260205f209050919050565b5f81546117f6816117a8565b6118008186611741565b9450600182165f811461181a576001811461182f57611861565b60ff1983168652811515820286019350611861565b611838856117d8565b5f5b838110156118595781548189015260018201915060208101905061183a565b838801955050505b50505092915050565b5f611875828561174b565b915061188182846117ea565b91508190509392505050565b7f4e487b71000000000000000000000000000000000000000000000000000000005f52601160045260245ffd5b5f6118c4826113ae565b91506118cf836113ae565b92508282026118dd816113ae565b915082820484148315176118f4576118f361188d565b5b5092915050565b7f4e487b71000000000000000000000000000000000000000000000000000000005f52601260045260245ffd5b5f611932826113ae565b915061193d836113ae565b92508261194d5761194c6118fb565b5b828204905092915050565b5f611962826113ae565b915061196d836113ae565b92508282039050818111156119855761198461188d565b5b92915050565b5f81519050611999816113b7565b92915050565b5f602082840312156119b4576119b3611350565b5b5f6119c18482850161198b565b91505092915050565b5f6119d4826113ae565b91506119df836113ae565b92508282019050808211156119f7576119f661188d565b5b92915050565b5f606082019050611a105f8301866115ac565b611a1d60208301856115ac565b611a2a6040830184611452565b949350505050565b611a3b8161141f565b8114611a45575f80fd5b50565b5f81519050611a5681611a32565b92915050565b5f60208284031215611a7157611a70611350565b5b5f611a7e84828501611a48565b9150509291505056fea26469706673582212200ffc35eaf0ff8b6de8fd6fb27cfcfefcfa1bc0ffe7bb926dba91fce612f16ea164736f6c63430008140033",
					"opcodes": "PUSH1 0x80 PUSH1 0x40 MSTORE CALLVALUE DUP1 ISZERO PUSH3 0x10 JUMPI PUSH0 DUP1 REVERT JUMPDEST POP PUSH1 0x40 MLOAD PUSH3 0x23A0 CODESIZE SUB DUP1 PUSH3 0x23A0 DUP4 CODECOPY DUP2 DUP2 ADD PUSH1 0x40 MSTORE DUP2 ADD SWAP1 PUSH3 0x36 SWAP2 SWAP1 PUSH3 0x34B JUMP JUMPDEST DUP2 PUSH20 0xFFFFFFFFFFFFFFFFFFFFFFFFFFFFFFFFFFFFFFFF AND PUSH4 0x95D89B41 PUSH1 0x40 MLOAD DUP2 PUSH4 0xFFFFFFFF AND PUSH1 0xE0 SHL DUP2 MSTORE PUSH1 0x4 ADD PUSH0 PUSH1 0x40 MLOAD DUP1 DUP4 SUB DUP2 DUP7 GAS STATICCALL ISZERO DUP1 ISZERO PUSH3 0x7F JUMPI RETURNDATASIZE PUSH0 DUP1 RETURNDATACOPY RETURNDATASIZE PUSH0 REVERT JUMPDEST POP POP POP POP PUSH1 0x40 MLOAD RETURNDATASIZE PUSH0 DUP3 RETURNDATACOPY RETURNDATASIZE PUSH1 0x1F NOT PUSH1 0x1F DUP3 ADD AND DUP3 ADD DUP1 PUSH1 0x40 MSTORE POP DUP2 ADD SWAP1 PUSH3 0xA9 SWAP2 SWAP1 PUSH3 0x504 JUMP JUMPDEST DUP2 PUSH20 0xFFFFFFFFFFFFFFFFFFFFFFFFFFFFFFFFFFFFFFFF AND PUSH4 0x95D89B41 PUSH1 0x40 MLOAD DUP2 PUSH4 0xFFFFFFFF AND PUSH1 0xE0 SHL DUP2 MSTORE PUSH1 0x4 ADD PUSH0 PUSH1 0x40 MLOAD DUP1 DUP4 SUB DUP2 DUP7 GAS STATICCALL ISZERO DUP1 ISZERO PUSH3 0xF2 JUMPI RETURNDATASIZE PUSH0 DUP1 RETURNDATACOPY RETURNDATASIZE PUSH0 REVERT JUMPDEST POP POP POP POP PUSH1 0x40 MLOAD RETURNDATASIZE PUSH0 DUP3 RETURNDATACOPY RETURNDATASIZE PUSH1 0x1F NOT PUSH1 0x1F DUP3 ADD AND DUP3 ADD DUP1 PUSH1 0x40 MSTORE POP DUP2 ADD SWAP1 PUSH3 0x11C SWAP2 SWAP1 PUSH3 0x504 JUMP JUMPDEST PUSH1 0x40 MLOAD PUSH1 0x20 ADD PUSH3 0x12F SWAP3 SWAP2 SWAP1 PUSH3 0x59D JUMP JUMPDEST PUSH1 0x40 MLOAD PUSH1 0x20 DUP2 DUP4 SUB SUB DUP2 MSTORE SWAP1 PUSH1 0x40 MSTORE DUP1 PUSH0 SWAP1 DUP2 PUSH3 0x14E SWAP2 SWAP1 PUSH3 0x7F1 JUMP JUMPDEST POP PUSH3 0x163 PUSH0 PUSH2 0x3E8 PUSH3 0x22C PUSH1 0x20 SHL PUSH1 0x20 SHR JUMP JUMPDEST POP CALLER PUSH1 0x1 PUSH0 PUSH2 0x100 EXP DUP2 SLOAD DUP2 PUSH20 0xFFFFFFFFFFFFFFFFFFFFFFFFFFFFFFFFFFFFFFFF MUL NOT AND SWAP1 DUP4 PUSH20 0xFFFFFFFFFFFFFFFFFFFFFFFFFFFFFFFFFFFFFFFF AND MUL OR SWAP1 SSTORE POP DUP2 PUSH1 0x2 PUSH0 PUSH2 0x100 EXP DUP2 SLOAD DUP2 PUSH20 0xFFFFFFFFFFFFFFFFFFFFFFFFFFFFFFFFFFFFFFFF MUL NOT AND SWAP1 DUP4 PUSH20 0xFFFFFFFFFFFFFFFFFFFFFFFFFFFFFFFFFFFFFFFF AND MUL OR SWAP1 SSTORE POP DUP1 PUSH1 0x3 PUSH0 PUSH2 0x100 EXP DUP2 SLOAD DUP2 PUSH20 0xFFFFFFFFFFFFFFFFFFFFFFFFFFFFFFFFFFFFFFFF MUL NOT AND SWAP1 DUP4 PUSH20 0xFFFFFFFFFFFFFFFFFFFFFFFFFFFFFFFFFFFFFFFF AND MUL OR SWAP1 SSTORE POP POP POP PUSH3 0x8D5 JUMP JUMPDEST PUSH3 0x23F PUSH0 DUP4 DUP4 PUSH3 0x2CF PUSH1 0x20 SHL PUSH1 0x20 SHR JUMP JUMPDEST PUSH9 0x5345CDF77EB68F44C SLOAD DUP2 DUP2 ADD DUP2 DUP2 LT ISZERO PUSH3 0x263 JUMPI PUSH4 0xE5CFE957 PUSH0 MSTORE PUSH1 0x4 PUSH1 0x1C REVERT JUMPDEST DUP1 PUSH9 0x5345CDF77EB68F44C SSTORE PUSH4 0x87A211A2 PUSH1 0xC MSTORE DUP4 PUSH0 MSTORE PUSH1 0x20 PUSH1 0xC KECCAK256 DUP4 DUP2 SLOAD ADD DUP2 SSTORE DUP4 PUSH1 0x20 MSTORE PUSH1 0xC MLOAD PUSH1 0x60 SHR PUSH0 PUSH32 0xDDF252AD1BE2C89B69C2B068FC378DAA952BA7F163C4A11628F55A4DF523B3EF PUSH1 0x20 DUP1 LOG3 POP POP POP PUSH3 0x2CB PUSH0 DUP4 DUP4 PUSH3 0x2D4 PUSH1 0x20 SHL PUSH1 0x20 SHR JUMP JUMPDEST POP POP JUMP JUMPDEST POP POP POP JUMP JUMPDEST POP POP POP JUMP JUMPDEST PUSH0 PUSH1 0x40 MLOAD SWAP1 POP SWAP1 JUMP JUMPDEST PUSH0 DUP1 REVERT JUMPDEST PUSH0 DUP1 REVERT JUMPDEST PUSH0 PUSH20 0xFFFFFFFFFFFFFFFFFFFFFFFFFFFFFFFFFFFFFFFF DUP3 AND SWAP1 POP SWAP2 SWAP1 POP JUMP JUMPDEST PUSH0 PUSH3 0x315 DUP3 PUSH3 0x2EA JUMP JUMPDEST SWAP1 POP SWAP2 SWAP1 POP JUMP JUMPDEST PUSH3 0x327 DUP2 PUSH3 0x309 JUMP JUMPDEST DUP2 EQ PUSH3 0x332 JUMPI PUSH0 DUP1 REVERT JUMPDEST POP JUMP JUMPDEST PUSH0 DUP2 MLOAD SWAP1 POP PUSH3 0x345 DUP2 PUSH3 0x31C JUMP JUMPDEST SWAP3 SWAP2 POP POP JUMP JUMPDEST PUSH0 DUP1 PUSH1 0x40 DUP4 DUP6 SUB SLT ISZERO PUSH3 0x364 JUMPI PUSH3 0x363 PUSH3 0x2E2 JUMP JUMPDEST JUMPDEST PUSH0 PUSH3 0x373 DUP6 DUP3 DUP7 ADD PUSH3 0x335 JUMP JUMPDEST SWAP3 POP POP PUSH1 0x20 PUSH3 0x386 DUP6 DUP3 DUP7 ADD PUSH3 0x335 JUMP JUMPDEST SWAP2 POP POP SWAP3 POP SWAP3 SWAP1 POP JUMP JUMPDEST PUSH0 DUP1 REVERT JUMPDEST PUSH0 DUP1 REVERT JUMPDEST PUSH0 PUSH1 0x1F NOT PUSH1 0x1F DUP4 ADD AND SWAP1 POP SWAP2 SWAP1 POP JUMP JUMPDEST PUSH32 0x4E487B7100000000000000000000000000000000000000000000000000000000 PUSH0 MSTORE PUSH1 0x41 PUSH1 0x4 MSTORE PUSH1 0x24 PUSH0 REVERT JUMPDEST PUSH3 0x3E0 DUP3 PUSH3 0x398 JUMP JUMPDEST DUP2 ADD DUP2 DUP2 LT PUSH8 0xFFFFFFFFFFFFFFFF DUP3 GT OR ISZERO PUSH3 0x402 JUMPI PUSH3 0x401 PUSH3 0x3A8 JUMP JUMPDEST JUMPDEST DUP1 PUSH1 0x40 MSTORE POP POP POP JUMP JUMPDEST PUSH0 PUSH3 0x416 PUSH3 0x2D9 JUMP JUMPDEST SWAP1 POP PUSH3 0x424 DUP3 DUP3 PUSH3 0x3D5 JUMP JUMPDEST SWAP2 SWAP1 POP JUMP JUMPDEST PUSH0 PUSH8 0xFFFFFFFFFFFFFFFF DUP3 GT ISZERO PUSH3 0x446 JUMPI PUSH3 0x445 PUSH3 0x3A8 JUMP JUMPDEST JUMPDEST PUSH3 0x451 DUP3 PUSH3 0x398 JUMP JUMPDEST SWAP1 POP PUSH1 0x20 DUP2 ADD SWAP1 POP SWAP2 SWAP1 POP JUMP JUMPDEST PUSH0 JUMPDEST DUP4 DUP2 LT ISZERO PUSH3 0x47D JUMPI DUP1 DUP3 ADD MLOAD DUP2 DUP5 ADD MSTORE PUSH1 0x20 DUP2 ADD SWAP1 POP PUSH3 0x460 JUMP JUMPDEST PUSH0 DUP5 DUP5 ADD MSTORE POP POP POP POP JUMP JUMPDEST PUSH0 PUSH3 0x49E PUSH3 0x498 DUP5 PUSH3 0x429 JUMP JUMPDEST PUSH3 0x40B JUMP JUMPDEST SWAP1 POP DUP3 DUP2 MSTORE PUSH1 0x20 DUP2 ADD DUP5 DUP5 DUP5 ADD GT ISZERO PUSH3 0x4BD JUMPI PUSH3 0x4BC PUSH3 0x394 JUMP JUMPDEST JUMPDEST PUSH3 0x4CA DUP5 DUP3 DUP6 PUSH3 0x45E JUMP JUMPDEST POP SWAP4 SWAP3 POP POP POP JUMP JUMPDEST PUSH0 DUP3 PUSH1 0x1F DUP4 ADD SLT PUSH3 0x4E9 JUMPI PUSH3 0x4E8 PUSH3 0x390 JUMP JUMPDEST JUMPDEST DUP2 MLOAD PUSH3 0x4FB DUP5 DUP3 PUSH1 0x20 DUP7 ADD PUSH3 0x488 JUMP JUMPDEST SWAP2 POP POP SWAP3 SWAP2 POP POP JUMP JUMPDEST PUSH0 PUSH1 0x20 DUP3 DUP5 SUB SLT ISZERO PUSH3 0x51C JUMPI PUSH3 0x51B PUSH3 0x2E2 JUMP JUMPDEST JUMPDEST PUSH0 DUP3 ADD MLOAD PUSH8 0xFFFFFFFFFFFFFFFF DUP2 GT ISZERO PUSH3 0x53C JUMPI PUSH3 0x53B PUSH3 0x2E6 JUMP JUMPDEST JUMPDEST PUSH3 0x54A DUP5 DUP3 DUP6 ADD PUSH3 0x4D2 JUMP JUMPDEST SWAP2 POP POP SWAP3 SWAP2 POP POP JUMP JUMPDEST PUSH0 DUP2 MLOAD SWAP1 POP SWAP2 SWAP1 POP JUMP JUMPDEST PUSH0 DUP2 SWAP1 POP SWAP3 SWAP2 POP POP JUMP JUMPDEST PUSH0 PUSH3 0x573 DUP3 PUSH3 0x553 JUMP JUMPDEST PUSH3 0x57F DUP2 DUP6 PUSH3 0x55D JUMP JUMPDEST SWAP4 POP PUSH3 0x591 DUP2 DUP6 PUSH1 0x20 DUP7 ADD PUSH3 0x45E JUMP JUMPDEST DUP1 DUP5 ADD SWAP2 POP POP SWAP3 SWAP2 POP POP JUMP JUMPDEST PUSH0 PUSH3 0x5AA DUP3 DUP6 PUSH3 0x567 JUMP JUMPDEST SWAP2 POP PUSH3 0x5B8 DUP3 DUP5 PUSH3 0x567 JUMP JUMPDEST SWAP2 POP DUP2 SWAP1 POP SWAP4 SWAP3 POP POP POP JUMP JUMPDEST PUSH32 0x4E487B7100000000000000000000000000000000000000000000000000000000 PUSH0 MSTORE PUSH1 0x22 PUSH1 0x4 MSTORE PUSH1 0x24 PUSH0 REVERT JUMPDEST PUSH0 PUSH1 0x2 DUP3 DIV SWAP1 POP PUSH1 0x1 DUP3 AND DUP1 PUSH3 0x609 JUMPI PUSH1 0x7F DUP3 AND SWAP2 POP JUMPDEST PUSH1 0x20 DUP3 LT DUP2 SUB PUSH3 0x61F JUMPI PUSH3 0x61E PUSH3 0x5C4 JUMP JUMPDEST JUMPDEST POP SWAP2 SWAP1 POP JUMP JUMPDEST PUSH0 DUP2 SWAP1 POP DUP2 PUSH0 MSTORE PUSH1 0x20 PUSH0 KECCAK256 SWAP1 POP SWAP2 SWAP1 POP JUMP JUMPDEST PUSH0 PUSH1 0x20 PUSH1 0x1F DUP4 ADD DIV SWAP1 POP SWAP2 SWAP1 POP JUMP JUMPDEST PUSH0 DUP3 DUP3 SHL SWAP1 POP SWAP3 SWAP2 POP POP JUMP JUMPDEST PUSH0 PUSH1 0x8 DUP4 MUL PUSH3 0x683 PUSH32 0xFFFFFFFFFFFFFFFFFFFFFFFFFFFFFFFFFFFFFFFFFFFFFFFFFFFFFFFFFFFFFFFF DUP3 PUSH3 0x646 JUMP JUMPDEST PUSH3 0x68F DUP7 DUP4 PUSH3 0x646 JUMP JUMPDEST SWAP6 POP DUP1 NOT DUP5 AND SWAP4 POP DUP1 DUP7 AND DUP5 OR SWAP3 POP POP POP SWAP4 SWAP3 POP POP POP JUMP JUMPDEST PUSH0 DUP2 SWAP1 POP SWAP2 SWAP1 POP JUMP JUMPDEST PUSH0 DUP2 SWAP1 POP SWAP2 SWAP1 POP JUMP JUMPDEST PUSH0 PUSH3 0x6D9 PUSH3 0x6D3 PUSH3 0x6CD DUP5 PUSH3 0x6A7 JUMP JUMPDEST PUSH3 0x6B0 JUMP JUMPDEST PUSH3 0x6A7 JUMP JUMPDEST SWAP1 POP SWAP2 SWAP1 POP JUMP JUMPDEST PUSH0 DUP2 SWAP1 POP SWAP2 SWAP1 POP JUMP JUMPDEST PUSH3 0x6F4 DUP4 PUSH3 0x6B9 JUMP JUMPDEST PUSH3 0x70C PUSH3 0x703 DUP3 PUSH3 0x6E0 JUMP JUMPDEST DUP5 DUP5 SLOAD PUSH3 0x652 JUMP JUMPDEST DUP3 SSTORE POP POP POP POP JUMP JUMPDEST PUSH0 SWAP1 JUMP JUMPDEST PUSH3 0x722 PUSH3 0x714 JUMP JUMPDEST PUSH3 0x72F DUP2 DUP5 DUP5 PUSH3 0x6E9 JUMP JUMPDEST POP POP POP JUMP JUMPDEST JUMPDEST DUP2 DUP2 LT ISZERO PUSH3 0x756 JUMPI PUSH3 0x74A PUSH0 DUP3 PUSH3 0x718 JUMP JUMPDEST PUSH1 0x1 DUP2 ADD SWAP1 POP PUSH3 0x735 JUMP JUMPDEST POP POP JUMP JUMPDEST PUSH1 0x1F DUP3 GT ISZERO PUSH3 0x7A5 JUMPI PUSH3 0x76F DUP2 PUSH3 0x625 JUMP JUMPDEST PUSH3 0x77A DUP5 PUSH3 0x637 JUMP JUMPDEST DUP2 ADD PUSH1 0x20 DUP6 LT ISZERO PUSH3 0x78A JUMPI DUP2 SWAP1 POP JUMPDEST PUSH3 0x7A2 PUSH3 0x799 DUP6 PUSH3 0x637 JUMP JUMPDEST DUP4 ADD DUP3 PUSH3 0x734 JUMP JUMPDEST POP POP JUMPDEST POP POP POP JUMP JUMPDEST PUSH0 DUP3 DUP3 SHR SWAP1 POP SWAP3 SWAP2 POP POP JUMP JUMPDEST PUSH0 PUSH3 0x7C7 PUSH0 NOT DUP5 PUSH1 0x8 MUL PUSH3 0x7AA JUMP JUMPDEST NOT DUP1 DUP4 AND SWAP2 POP POP SWAP3 SWAP2 POP POP JUMP JUMPDEST PUSH0 PUSH3 0x7E1 DUP4 DUP4 PUSH3 0x7B6 JUMP JUMPDEST SWAP2 POP DUP3 PUSH1 0x2 MUL DUP3 OR SWAP1 POP SWAP3 SWAP2 POP POP JUMP JUMPDEST PUSH3 0x7FC DUP3 PUSH3 0x553 JUMP JUMPDEST PUSH8 0xFFFFFFFFFFFFFFFF DUP2 GT ISZERO PUSH3 0x818 JUMPI PUSH3 0x817 PUSH3 0x3A8 JUMP JUMPDEST JUMPDEST PUSH3 0x824 DUP3 SLOAD PUSH3 0x5F1 JUMP JUMPDEST PUSH3 0x831 DUP3 DUP3 DUP6 PUSH3 0x75A JUMP JUMPDEST PUSH0 PUSH1 0x20 SWAP1 POP PUSH1 0x1F DUP4 GT PUSH1 0x1 DUP2 EQ PUSH3 0x867 JUMPI PUSH0 DUP5 ISZERO PUSH3 0x852 JUMPI DUP3 DUP8 ADD MLOAD SWAP1 POP JUMPDEST PUSH3 0x85E DUP6 DUP3 PUSH3 0x7D4 JUMP JUMPDEST DUP7 SSTORE POP PUSH3 0x8CD JUMP JUMPDEST PUSH1 0x1F NOT DUP5 AND PUSH3 0x877 DUP7 PUSH3 0x625 JUMP JUMPDEST PUSH0 JUMPDEST DUP3 DUP2 LT ISZERO PUSH3 0x8A0 JUMPI DUP5 DUP10 ADD MLOAD DUP3 SSTORE PUSH1 0x1 DUP3 ADD SWAP2 POP PUSH1 0x20 DUP6 ADD SWAP5 POP PUSH1 0x20 DUP2 ADD SWAP1 POP PUSH3 0x879 JUMP JUMPDEST DUP7 DUP4 LT ISZERO PUSH3 0x8C0 JUMPI DUP5 DUP10 ADD MLOAD PUSH3 0x8BC PUSH1 0x1F DUP10 AND DUP3 PUSH3 0x7B6 JUMP JUMPDEST DUP4 SSTORE POP JUMPDEST PUSH1 0x1 PUSH1 0x2 DUP9 MUL ADD DUP9 SSTORE POP POP POP JUMPDEST POP POP POP POP POP POP JUMP JUMPDEST PUSH2 0x1ABD DUP1 PUSH3 0x8E3 PUSH0 CODECOPY PUSH0 RETURN INVALID PUSH1 0x80 PUSH1 0x40 MSTORE CALLVALUE DUP1 ISZERO PUSH2 0xF JUMPI PUSH0 DUP1 REVERT JUMPDEST POP PUSH1 0x4 CALLDATASIZE LT PUSH2 0x109 JUMPI PUSH0 CALLDATALOAD PUSH1 0xE0 SHR DUP1 PUSH4 0x7ECEBE00 GT PUSH2 0xA0 JUMPI DUP1 PUSH4 0xC45A0155 GT PUSH2 0x6F JUMPI DUP1 PUSH4 0xC45A0155 EQ PUSH2 0x2F4 JUMPI DUP1 PUSH4 0xD004F0F7 EQ PUSH2 0x312 JUMPI DUP1 PUSH4 0xD505ACCF EQ PUSH2 0x342 JUMPI DUP1 PUSH4 0xDD62ED3E EQ PUSH2 0x35E JUMPI DUP1 PUSH4 0xE2BBB158 EQ PUSH2 0x38E JUMPI PUSH2 0x109 JUMP JUMPDEST DUP1 PUSH4 0x7ECEBE00 EQ PUSH2 0x246 JUMPI DUP1 PUSH4 0x8F79306E EQ PUSH2 0x276 JUMPI DUP1 PUSH4 0x95D89B41 EQ PUSH2 0x2A6 JUMPI DUP1 PUSH4 0xA9059CBB EQ PUSH2 0x2C4 JUMPI PUSH2 0x109 JUMP JUMPDEST DUP1 PUSH4 0x2E1A7D4D GT PUSH2 0xDC JUMPI DUP1 PUSH4 0x2E1A7D4D EQ PUSH2 0x1A9 JUMPI DUP1 PUSH4 0x313CE567 EQ PUSH2 0x1DA JUMPI DUP1 PUSH4 0x3644E515 EQ PUSH2 0x1F8 JUMPI DUP1 PUSH4 0x70A08231 EQ PUSH2 0x216 JUMPI PUSH2 0x109 JUMP JUMPDEST DUP1 PUSH4 0x6FDDE03 EQ PUSH2 0x10D JUMPI DUP1 PUSH4 0x95EA7B3 EQ PUSH2 0x12B JUMPI DUP1 PUSH4 0x18160DDD EQ PUSH2 0x15B JUMPI DUP1 PUSH4 0x23B872DD EQ PUSH2 0x179 JUMPI JUMPDEST PUSH0 DUP1 REVERT JUMPDEST PUSH2 0x115 PUSH2 0x3BE JUMP JUMPDEST PUSH1 0x40 MLOAD PUSH2 0x122 SWAP2 SWAP1 PUSH2 0x1330 JUMP JUMPDEST PUSH1 0x40 MLOAD DUP1 SWAP2 SUB SWAP1 RETURN JUMPDEST PUSH2 0x145 PUSH1 0x4 DUP1 CALLDATASIZE SUB DUP2 ADD SWAP1 PUSH2 0x140 SWAP2 SWAP1 PUSH2 0x13E1 JUMP JUMPDEST PUSH2 0x41C JUMP JUMPDEST PUSH1 0x40 MLOAD PUSH2 0x152 SWAP2 SWAP1 PUSH2 0x1439 JUMP JUMPDEST PUSH1 0x40 MLOAD DUP1 SWAP2 SUB SWAP1 RETURN JUMPDEST PUSH2 0x163 PUSH2 0x46C JUMP JUMPDEST PUSH1 0x40 MLOAD PUSH2 0x170 SWAP2 SWAP1 PUSH2 0x1461 JUMP JUMPDEST PUSH1 0x40 MLOAD DUP1 SWAP2 SUB SWAP1 RETURN JUMPDEST PUSH2 0x193 PUSH1 0x4 DUP1 CALLDATASIZE SUB DUP2 ADD SWAP1 PUSH2 0x18E SWAP2 SWAP1 PUSH2 0x147A JUMP JUMPDEST PUSH2 0x47D JUMP JUMPDEST PUSH1 0x40 MLOAD PUSH2 0x1A0 SWAP2 SWAP1 PUSH2 0x1439 JUMP JUMPDEST PUSH1 0x40 MLOAD DUP1 SWAP2 SUB SWAP1 RETURN JUMPDEST PUSH2 0x1C3 PUSH1 0x4 DUP1 CALLDATASIZE SUB DUP2 ADD SWAP1 PUSH2 0x1BE SWAP2 SWAP1 PUSH2 0x14CA JUMP JUMPDEST PUSH2 0x54E JUMP JUMPDEST PUSH1 0x40 MLOAD PUSH2 0x1D1 SWAP3 SWAP2 SWAP1 PUSH2 0x14F5 JUMP JUMPDEST PUSH1 0x40 MLOAD DUP1 SWAP2 SUB SWAP1 RETURN JUMPDEST PUSH2 0x1E2 PUSH2 0x6BB JUMP JUMPDEST PUSH1 0x40 MLOAD PUSH2 0x1EF SWAP2 SWAP1 PUSH2 0x1537 JUMP JUMPDEST PUSH1 0x40 MLOAD DUP1 SWAP2 SUB SWAP1 RETURN JUMPDEST PUSH2 0x200 PUSH2 0x6C3 JUMP JUMPDEST PUSH1 0x40 MLOAD PUSH2 0x20D SWAP2 SWAP1 PUSH2 0x1568 JUMP JUMPDEST PUSH1 0x40 MLOAD DUP1 SWAP2 SUB SWAP1 RETURN JUMPDEST PUSH2 0x230 PUSH1 0x4 DUP1 CALLDATASIZE SUB DUP2 ADD SWAP1 PUSH2 0x22B SWAP2 SWAP1 PUSH2 0x1581 JUMP JUMPDEST PUSH2 0x753 JUMP JUMPDEST PUSH1 0x40 MLOAD PUSH2 0x23D SWAP2 SWAP1 PUSH2 0x1461 JUMP JUMPDEST PUSH1 0x40 MLOAD DUP1 SWAP2 SUB SWAP1 RETURN JUMPDEST PUSH2 0x260 PUSH1 0x4 DUP1 CALLDATASIZE SUB DUP2 ADD SWAP1 PUSH2 0x25B SWAP2 SWAP1 PUSH2 0x1581 JUMP JUMPDEST PUSH2 0x76C JUMP JUMPDEST PUSH1 0x40 MLOAD PUSH2 0x26D SWAP2 SWAP1 PUSH2 0x1461 JUMP JUMPDEST PUSH1 0x40 MLOAD DUP1 SWAP2 SUB SWAP1 RETURN JUMPDEST PUSH2 0x290 PUSH1 0x4 DUP1 CALLDATASIZE SUB DUP2 ADD SWAP1 PUSH2 0x28B SWAP2 SWAP1 PUSH2 0x13E1 JUMP JUMPDEST PUSH2 0x785 JUMP JUMPDEST PUSH1 0x40 MLOAD PUSH2 0x29D SWAP2 SWAP1 PUSH2 0x1461 JUMP JUMPDEST PUSH1 0x40 MLOAD DUP1 SWAP2 SUB SWAP1 RETURN JUMPDEST PUSH2 0x2AE PUSH2 0x8B4 JUMP JUMPDEST PUSH1 0x40 MLOAD PUSH2 0x2BB SWAP2 SWAP1 PUSH2 0x1330 JUMP JUMPDEST PUSH1 0x40 MLOAD DUP1 SWAP2 SUB SWAP1 RETURN JUMPDEST PUSH2 0x2DE PUSH1 0x4 DUP1 CALLDATASIZE SUB DUP2 ADD SWAP1 PUSH2 0x2D9 SWAP2 SWAP1 PUSH2 0x13E1 JUMP JUMPDEST PUSH2 0x943 JUMP JUMPDEST PUSH1 0x40 MLOAD PUSH2 0x2EB SWAP2 SWAP1 PUSH2 0x1439 JUMP JUMPDEST PUSH1 0x40 MLOAD DUP1 SWAP2 SUB SWAP1 RETURN JUMPDEST PUSH2 0x2FC PUSH2 0x9D1 JUMP JUMPDEST PUSH1 0x40 MLOAD PUSH2 0x309 SWAP2 SWAP1 PUSH2 0x15BB JUMP JUMPDEST PUSH1 0x40 MLOAD DUP1 SWAP2 SUB SWAP1 RETURN JUMPDEST PUSH2 0x32C PUSH1 0x4 DUP1 CALLDATASIZE SUB DUP2 ADD SWAP1 PUSH2 0x327 SWAP2 SWAP1 PUSH2 0x13E1 JUMP JUMPDEST PUSH2 0x9F6 JUMP JUMPDEST PUSH1 0x40 MLOAD PUSH2 0x339 SWAP2 SWAP1 PUSH2 0x1461 JUMP JUMPDEST PUSH1 0x40 MLOAD DUP1 SWAP2 SUB SWAP1 RETURN JUMPDEST PUSH2 0x35C PUSH1 0x4 DUP1 CALLDATASIZE SUB DUP2 ADD SWAP1 PUSH2 0x357 SWAP2 SWAP1 PUSH2 0x1628 JUMP JUMPDEST PUSH2 0xD23 JUMP JUMPDEST STOP JUMPDEST PUSH2 0x378 PUSH1 0x4 DUP1 CALLDATASIZE SUB DUP2 ADD SWAP1 PUSH2 0x373 SWAP2 SWAP1 PUSH2 0x16C5 JUMP JUMPDEST PUSH2 0xEBF JUMP JUMPDEST PUSH1 0x40 MLOAD PUSH2 0x385 SWAP2 SWAP1 PUSH2 0x1461 JUMP JUMPDEST PUSH1 0x40 MLOAD DUP1 SWAP2 SUB SWAP1 RETURN JUMPDEST PUSH2 0x3A8 PUSH1 0x4 DUP1 CALLDATASIZE SUB DUP2 ADD SWAP1 PUSH2 0x3A3 SWAP2 SWAP1 PUSH2 0x1703 JUMP JUMPDEST PUSH2 0xEDD JUMP JUMPDEST PUSH1 0x40 MLOAD PUSH2 0x3B5 SWAP2 SWAP1 PUSH2 0x1461 JUMP JUMPDEST PUSH1 0x40 MLOAD DUP1 SWAP2 SUB SWAP1 RETURN JUMPDEST PUSH1 0x60 PUSH1 0x40 MLOAD DUP1 PUSH1 0x40 ADD PUSH1 0x40 MSTORE DUP1 PUSH1 0x5 DUP2 MSTORE PUSH1 0x20 ADD PUSH32 0x4D494E492D000000000000000000000000000000000000000000000000000000 DUP2 MSTORE POP PUSH0 PUSH1 0x40 MLOAD PUSH1 0x20 ADD PUSH2 0x408 SWAP3 SWAP2 SWAP1 PUSH2 0x186A JUMP JUMPDEST PUSH1 0x40 MLOAD PUSH1 0x20 DUP2 DUP4 SUB SUB DUP2 MSTORE SWAP1 PUSH1 0x40 MSTORE SWAP1 POP SWAP1 JUMP JUMPDEST PUSH0 DUP3 PUSH1 0x20 MSTORE PUSH4 0x7F5E9F20 PUSH1 0xC MSTORE CALLER PUSH0 MSTORE DUP2 PUSH1 0x34 PUSH1 0xC KECCAK256 SSTORE DUP2 PUSH0 MSTORE PUSH1 0x2C MLOAD PUSH1 0x60 SHR CALLER PUSH32 0x8C5BE1E5EBEC7D5BD14F71427D1E84F3DD0314C0F7B2291E5B200AC8C7C3B925 PUSH1 0x20 PUSH0 LOG3 PUSH1 0x1 SWAP1 POP SWAP3 SWAP2 POP POP JUMP JUMPDEST PUSH0 PUSH9 0x5345CDF77EB68F44C SLOAD SWAP1 POP SWAP1 JUMP JUMPDEST PUSH0 PUSH2 0x489 DUP5 DUP5 DUP5 PUSH2 0xFD4 JUMP JUMPDEST DUP4 PUSH1 0x60 SHL CALLER PUSH1 0x20 MSTORE PUSH4 0x7F5E9F20 DUP2 OR PUSH1 0xC MSTORE PUSH1 0x34 PUSH1 0xC KECCAK256 DUP1 SLOAD PUSH1 0x1 DUP2 ADD ISZERO PUSH2 0x4C6 JUMPI DUP1 DUP6 GT ISZERO PUSH2 0x4C0 JUMPI PUSH4 0x13BE252B PUSH0 MSTORE PUSH1 0x4 PUSH1 0x1C REVERT JUMPDEST DUP5 DUP2 SUB DUP3 SSTORE JUMPDEST PUSH4 0x87A211A2 DUP4 OR PUSH1 0xC MSTORE PUSH1 0x20 PUSH1 0xC KECCAK256 DUP1 SLOAD DUP1 DUP8 GT ISZERO PUSH2 0x4EC JUMPI PUSH4 0xF4D678B8 PUSH0 MSTORE PUSH1 0x4 PUSH1 0x1C REVERT JUMPDEST DUP7 DUP2 SUB DUP3 SSTORE DUP8 PUSH0 MSTORE PUSH1 0x20 PUSH1 0xC KECCAK256 DUP8 DUP2 SLOAD ADD DUP2 SSTORE DUP8 PUSH1 0x20 MSTORE PUSH1 0xC MLOAD PUSH1 0x60 SHR DUP7 PUSH1 0x60 SHR PUSH32 0xDDF252AD1BE2C89B69C2B068FC378DAA952BA7F163C4A11628F55A4DF523B3EF PUSH1 0x20 DUP1 LOG3 POP POP POP POP POP POP PUSH2 0x543 DUP5 DUP5 DUP5 PUSH2 0xFD9 JUMP JUMPDEST PUSH1 0x1 SWAP1 POP SWAP4 SWAP3 POP POP POP JUMP JUMPDEST PUSH0 DUP1 DUP3 PUSH2 0x55A CALLER PUSH2 0x753 JUMP JUMPDEST LT ISZERO PUSH2 0x592 JUMPI PUSH1 0x40 MLOAD PUSH32 0x50B1F35600000000000000000000000000000000000000000000000000000000 DUP2 MSTORE PUSH1 0x4 ADD PUSH1 0x40 MLOAD DUP1 SWAP2 SUB SWAP1 REVERT JUMPDEST PUSH0 PUSH2 0x59B PUSH2 0x46C JUMP JUMPDEST SWAP1 POP PUSH0 DUP2 PUSH1 0x4 SLOAD DUP7 PUSH2 0x5AD SWAP2 SWAP1 PUSH2 0x18BA JUMP JUMPDEST PUSH2 0x5B7 SWAP2 SWAP1 PUSH2 0x1928 JUMP JUMPDEST SWAP1 POP PUSH0 DUP3 PUSH1 0x4 SLOAD DUP8 PUSH2 0x5C9 SWAP2 SWAP1 PUSH2 0x18BA JUMP JUMPDEST PUSH2 0x5D3 SWAP2 SWAP1 PUSH2 0x1928 JUMP JUMPDEST SWAP1 POP PUSH0 DUP3 EQ DUP1 PUSH2 0x5E2 JUMPI POP PUSH0 DUP2 EQ JUMPDEST ISZERO PUSH2 0x619 JUMPI PUSH1 0x40 MLOAD PUSH32 0x2CD294CF00000000000000000000000000000000000000000000000000000000 DUP2 MSTORE PUSH1 0x4 ADD PUSH1 0x40 MLOAD DUP1 SWAP2 SUB SWAP1 REVERT JUMPDEST PUSH2 0x646 PUSH1 0x2 PUSH0 SWAP1 SLOAD SWAP1 PUSH2 0x100 EXP SWAP1 DIV PUSH20 0xFFFFFFFFFFFFFFFFFFFFFFFFFFFFFFFFFFFFFFFF AND ADDRESS CALLER DUP6 PUSH2 0xFDE JUMP JUMPDEST PUSH2 0x673 PUSH1 0x3 PUSH0 SWAP1 SLOAD SWAP1 PUSH2 0x100 EXP SWAP1 DIV PUSH20 0xFFFFFFFFFFFFFFFFFFFFFFFFFFFFFFFFFFFFFFFF AND ADDRESS CALLER DUP5 PUSH2 0xFDE JUMP JUMPDEST PUSH2 0x67D ADDRESS DUP8 PUSH2 0x109C JUMP JUMPDEST DUP2 PUSH1 0x4 PUSH0 DUP3 DUP3 SLOAD PUSH2 0x68E SWAP2 SWAP1 PUSH2 0x1958 JUMP JUMPDEST SWAP3 POP POP DUP2 SWAP1 SSTORE POP DUP1 PUSH1 0x5 PUSH0 DUP3 DUP3 SLOAD PUSH2 0x6A6 SWAP2 SWAP1 PUSH2 0x1958 JUMP JUMPDEST SWAP3 POP POP DUP2 SWAP1 SSTORE POP DUP2 DUP2 SWAP5 POP SWAP5 POP POP POP POP SWAP2 POP SWAP2 JUMP JUMPDEST PUSH0 PUSH1 0x12 SWAP1 POP SWAP1 JUMP JUMPDEST PUSH0 DUP1 PUSH2 0x6CD PUSH2 0x112C JUMP JUMPDEST SWAP1 POP PUSH0 DUP1 SHL DUP2 SUB PUSH2 0x6EA JUMPI PUSH2 0x6E0 PUSH2 0x3BE JUMP JUMPDEST DUP1 MLOAD SWAP1 PUSH1 0x20 ADD KECCAK256 SWAP1 POP JUMPDEST PUSH1 0x40 MLOAD PUSH32 0x8B73C3C69BB8FE3D512ECC4CF759CC79239F7B179B0FFACAA9A75D522B39400F DUP2 MSTORE DUP2 PUSH1 0x20 DUP3 ADD MSTORE PUSH32 0xC89EFDAA54C0F20C7ADF612882DF0950F5A951637E0307CDCB4C672F298B8BC6 PUSH1 0x40 DUP3 ADD MSTORE CHAINID PUSH1 0x60 DUP3 ADD MSTORE ADDRESS PUSH1 0x80 DUP3 ADD MSTORE PUSH1 0xA0 DUP2 KECCAK256 SWAP3 POP POP POP SWAP1 JUMP JUMPDEST PUSH0 PUSH4 0x87A211A2 PUSH1 0xC MSTORE DUP2 PUSH0 MSTORE PUSH1 0x20 PUSH1 0xC KECCAK256 SLOAD SWAP1 POP SWAP2 SWAP1 POP JUMP JUMPDEST PUSH0 PUSH4 0x38377508 PUSH1 0xC MSTORE DUP2 PUSH0 MSTORE PUSH1 0x20 PUSH1 0xC KECCAK256 SLOAD SWAP1 POP SWAP2 SWAP1 POP JUMP JUMPDEST PUSH0 DUP3 PUSH1 0x2 PUSH0 SWAP1 SLOAD SWAP1 PUSH2 0x100 EXP SWAP1 DIV PUSH20 0xFFFFFFFFFFFFFFFFFFFFFFFFFFFFFFFFFFFFFFFF AND PUSH20 0xFFFFFFFFFFFFFFFFFFFFFFFFFFFFFFFFFFFFFFFF AND DUP2 PUSH20 0xFFFFFFFFFFFFFFFFFFFFFFFFFFFFFFFFFFFFFFFF AND EQ ISZERO DUP1 ISZERO PUSH2 0x831 JUMPI POP PUSH1 0x3 PUSH0 SWAP1 SLOAD SWAP1 PUSH2 0x100 EXP SWAP1 DIV PUSH20 0xFFFFFFFFFFFFFFFFFFFFFFFFFFFFFFFFFFFFFFFF AND PUSH20 0xFFFFFFFFFFFFFFFFFFFFFFFFFFFFFFFFFFFFFFFF AND DUP2 PUSH20 0xFFFFFFFFFFFFFFFFFFFFFFFFFFFFFFFFFFFFFFFF AND EQ ISZERO JUMPDEST ISZERO PUSH2 0x868 JUMPI PUSH1 0x40 MLOAD PUSH32 0x82BCE52600000000000000000000000000000000000000000000000000000000 DUP2 MSTORE PUSH1 0x4 ADD PUSH1 0x40 MLOAD DUP1 SWAP2 SUB SWAP1 REVERT JUMPDEST PUSH0 DUP4 SUB PUSH2 0x8A1 JUMPI PUSH1 0x40 MLOAD PUSH32 0x8966F48700000000000000000000000000000000000000000000000000000000 DUP2 MSTORE PUSH1 0x4 ADD PUSH1 0x40 MLOAD DUP1 SWAP2 SUB SWAP1 REVERT JUMPDEST PUSH2 0x8AB DUP5 DUP5 PUSH2 0x1130 JUMP JUMPDEST SWAP2 POP POP SWAP3 SWAP2 POP POP JUMP JUMPDEST PUSH1 0x60 PUSH0 DUP1 SLOAD PUSH2 0x8C2 SWAP1 PUSH2 0x17A8 JUMP JUMPDEST DUP1 PUSH1 0x1F ADD PUSH1 0x20 DUP1 SWAP2 DIV MUL PUSH1 0x20 ADD PUSH1 0x40 MLOAD SWAP1 DUP2 ADD PUSH1 0x40 MSTORE DUP1 SWAP3 SWAP2 SWAP1 DUP2 DUP2 MSTORE PUSH1 0x20 ADD DUP3 DUP1 SLOAD PUSH2 0x8EE SWAP1 PUSH2 0x17A8 JUMP JUMPDEST DUP1 ISZERO PUSH2 0x939 JUMPI DUP1 PUSH1 0x1F LT PUSH2 0x910 JUMPI PUSH2 0x100 DUP1 DUP4 SLOAD DIV MUL DUP4 MSTORE SWAP2 PUSH1 0x20 ADD SWAP2 PUSH2 0x939 JUMP JUMPDEST DUP3 ADD SWAP2 SWAP1 PUSH0 MSTORE PUSH1 0x20 PUSH0 KECCAK256 SWAP1 JUMPDEST DUP2 SLOAD DUP2 MSTORE SWAP1 PUSH1 0x1 ADD SWAP1 PUSH1 0x20 ADD DUP1 DUP4 GT PUSH2 0x91C JUMPI DUP3 SWAP1 SUB PUSH1 0x1F AND DUP3 ADD SWAP2 JUMPDEST POP POP POP POP POP SWAP1 POP SWAP1 JUMP JUMPDEST PUSH0 PUSH2 0x94F CALLER DUP5 DUP5 PUSH2 0xFD4 JUMP JUMPDEST PUSH4 0x87A211A2 PUSH1 0xC MSTORE CALLER PUSH0 MSTORE PUSH1 0x20 PUSH1 0xC KECCAK256 DUP1 SLOAD DUP1 DUP5 GT ISZERO PUSH2 0x976 JUMPI PUSH4 0xF4D678B8 PUSH0 MSTORE PUSH1 0x4 PUSH1 0x1C REVERT JUMPDEST DUP4 DUP2 SUB DUP3 SSTORE DUP5 PUSH0 MSTORE PUSH1 0x20 PUSH1 0xC KECCAK256 DUP5 DUP2 SLOAD ADD DUP2 SSTORE DUP5 PUSH1 0x20 MSTORE PUSH1 0xC MLOAD PUSH1 0x60 SHR CALLER PUSH32 0xDDF252AD1BE2C89B69C2B068FC378DAA952BA7F163C4A11628F55A4DF523B3EF PUSH1 0x20 DUP1 LOG3 POP POP POP PUSH2 0x9C7 CALLER DUP5 DUP5 PUSH2 0xFD9 JUMP JUMPDEST PUSH1 0x1 SWAP1 POP SWAP3 SWAP2 POP POP JUMP JUMPDEST PUSH1 0x1 PUSH0 SWAP1 SLOAD SWAP1 PUSH2 0x100 EXP SWAP1 DIV PUSH20 0xFFFFFFFFFFFFFFFFFFFFFFFFFFFFFFFFFFFFFFFF AND DUP2 JUMP JUMPDEST PUSH0 DUP3 PUSH1 0x2 PUSH0 SWAP1 SLOAD SWAP1 PUSH2 0x100 EXP SWAP1 DIV PUSH20 0xFFFFFFFFFFFFFFFFFFFFFFFFFFFFFFFFFFFFFFFF AND PUSH20 0xFFFFFFFFFFFFFFFFFFFFFFFFFFFFFFFFFFFFFFFF AND DUP2 PUSH20 0xFFFFFFFFFFFFFFFFFFFFFFFFFFFFFFFFFFFFFFFF AND EQ ISZERO DUP1 ISZERO PUSH2 0xAA2 JUMPI POP PUSH1 0x3 PUSH0 SWAP1 SLOAD SWAP1 PUSH2 0x100 EXP SWAP1 DIV PUSH20 0xFFFFFFFFFFFFFFFFFFFFFFFFFFFFFFFFFFFFFFFF AND PUSH20 0xFFFFFFFFFFFFFFFFFFFFFFFFFFFFFFFFFFFFFFFF AND DUP2 PUSH20 0xFFFFFFFFFFFFFFFFFFFFFFFFFFFFFFFFFFFFFFFF AND EQ ISZERO JUMPDEST ISZERO PUSH2 0xAD9 JUMPI PUSH1 0x40 MLOAD PUSH32 0x82BCE52600000000000000000000000000000000000000000000000000000000 DUP2 MSTORE PUSH1 0x4 ADD PUSH1 0x40 MLOAD DUP1 SWAP2 SUB SWAP1 REVERT JUMPDEST PUSH0 PUSH1 0x2 PUSH0 SWAP1 SLOAD SWAP1 PUSH2 0x100 EXP SWAP1 DIV PUSH20 0xFFFFFFFFFFFFFFFFFFFFFFFFFFFFFFFFFFFFFFFF AND SWAP1 POP PUSH0 PUSH1 0x3 PUSH0 SWAP1 SLOAD SWAP1 PUSH2 0x100 EXP SWAP1 DIV PUSH20 0xFFFFFFFFFFFFFFFFFFFFFFFFFFFFFFFFFFFFFFFF AND SWAP1 POP PUSH0 DUP6 SUB PUSH2 0xB5C JUMPI PUSH1 0x40 MLOAD PUSH32 0x8966F48700000000000000000000000000000000000000000000000000000000 DUP2 MSTORE PUSH1 0x4 ADD PUSH1 0x40 MLOAD DUP1 SWAP2 SUB SWAP1 REVERT JUMPDEST PUSH0 PUSH2 0xB67 DUP8 DUP8 PUSH2 0x1130 JUMP JUMPDEST SWAP1 POP PUSH0 DUP4 PUSH20 0xFFFFFFFFFFFFFFFFFFFFFFFFFFFFFFFFFFFFFFFF AND DUP9 PUSH20 0xFFFFFFFFFFFFFFFFFFFFFFFFFFFFFFFFFFFFFFFF AND EQ PUSH2 0xBA3 JUMPI DUP4 PUSH2 0xBA5 JUMP JUMPDEST DUP3 JUMPDEST SWAP1 POP DUP2 PUSH1 0x2 DUP3 PUSH20 0xFFFFFFFFFFFFFFFFFFFFFFFFFFFFFFFFFFFFFFFF AND PUSH4 0x70A08231 ADDRESS PUSH1 0x40 MLOAD DUP3 PUSH4 0xFFFFFFFF AND PUSH1 0xE0 SHL DUP2 MSTORE PUSH1 0x4 ADD PUSH2 0xBE3 SWAP2 SWAP1 PUSH2 0x15BB JUMP JUMPDEST PUSH1 0x20 PUSH1 0x40 MLOAD DUP1 DUP4 SUB DUP2 DUP7 GAS STATICCALL ISZERO DUP1 ISZERO PUSH2 0xBFE JUMPI RETURNDATASIZE PUSH0 DUP1 RETURNDATACOPY RETURNDATASIZE PUSH0 REVERT JUMPDEST POP POP POP POP PUSH1 0x40 MLOAD RETURNDATASIZE PUSH1 0x1F NOT PUSH1 0x1F DUP3 ADD AND DUP3 ADD DUP1 PUSH1 0x40 MSTORE POP DUP2 ADD SWAP1 PUSH2 0xC22 SWAP2 SWAP1 PUSH2 0x199F JUMP JUMPDEST PUSH2 0xC2C SWAP2 SWAP1 PUSH2 0x1928 JUMP JUMPDEST LT ISZERO PUSH2 0xC64 JUMPI PUSH1 0x40 MLOAD PUSH32 0x8CAB1F2800000000000000000000000000000000000000000000000000000000 DUP2 MSTORE PUSH1 0x4 ADD PUSH1 0x40 MLOAD DUP1 SWAP2 SUB SWAP1 REVERT JUMPDEST PUSH2 0xC70 DUP9 CALLER ADDRESS DUP11 PUSH2 0xFDE JUMP JUMPDEST PUSH2 0xC7C DUP2 ADDRESS CALLER DUP6 PUSH2 0xFDE JUMP JUMPDEST DUP4 PUSH20 0xFFFFFFFFFFFFFFFFFFFFFFFFFFFFFFFFFFFFFFFF AND DUP2 PUSH20 0xFFFFFFFFFFFFFFFFFFFFFFFFFFFFFFFFFFFFFFFF AND SUB PUSH2 0xCE4 JUMPI DUP2 PUSH1 0x4 PUSH0 DUP3 DUP3 SLOAD PUSH2 0xCC0 SWAP2 SWAP1 PUSH2 0x1958 JUMP JUMPDEST SWAP3 POP POP DUP2 SWAP1 SSTORE POP DUP7 PUSH1 0x5 PUSH0 DUP3 DUP3 SLOAD PUSH2 0xCD8 SWAP2 SWAP1 PUSH2 0x19CA JUMP JUMPDEST SWAP3 POP POP DUP2 SWAP1 SSTORE POP PUSH2 0xD15 JUMP JUMPDEST DUP7 PUSH1 0x4 PUSH0 DUP3 DUP3 SLOAD PUSH2 0xCF5 SWAP2 SWAP1 PUSH2 0x19CA JUMP JUMPDEST SWAP3 POP POP DUP2 SWAP1 SSTORE POP DUP2 PUSH1 0x5 PUSH0 DUP3 DUP3 SLOAD PUSH2 0xD0D SWAP2 SWAP1 PUSH2 0x1958 JUMP JUMPDEST SWAP3 POP POP DUP2 SWAP1 SSTORE POP JUMPDEST DUP2 SWAP6 POP POP POP POP POP POP SWAP3 SWAP2 POP POP JUMP JUMPDEST PUSH0 PUSH2 0xD2C PUSH2 0x112C JUMP JUMPDEST SWAP1 POP PUSH0 DUP1 SHL DUP2 SUB PUSH2 0xD49 JUMPI PUSH2 0xD3F PUSH2 0x3BE JUMP JUMPDEST DUP1 MLOAD SWAP1 PUSH1 0x20 ADD KECCAK256 SWAP1 POP JUMPDEST DUP5 TIMESTAMP GT ISZERO PUSH2 0xD5E JUMPI PUSH4 0x1A15A3CC PUSH0 MSTORE PUSH1 0x4 PUSH1 0x1C REVERT JUMPDEST PUSH1 0x40 MLOAD DUP9 PUSH1 0x60 SHL PUSH1 0x60 SHR SWAP9 POP DUP8 PUSH1 0x60 SHL PUSH1 0x60 SHR SWAP8 POP PUSH6 0x383775081901 PUSH1 0xE MSTORE DUP9 PUSH0 MSTORE PUSH1 0x20 PUSH1 0xC KECCAK256 DUP1 SLOAD PUSH32 0x8B73C3C69BB8FE3D512ECC4CF759CC79239F7B179B0FFACAA9A75D522B39400F DUP4 MSTORE DUP4 PUSH1 0x20 DUP5 ADD MSTORE PUSH32 0xC89EFDAA54C0F20C7ADF612882DF0950F5A951637E0307CDCB4C672F298B8BC6 PUSH1 0x40 DUP5 ADD MSTORE CHAINID PUSH1 0x60 DUP5 ADD MSTORE ADDRESS PUSH1 0x80 DUP5 ADD MSTORE PUSH1 0xA0 DUP4 KECCAK256 PUSH1 0x2E MSTORE PUSH32 0x6E71EDAE12B1B97F4D1F60370FEF10105FA2FAAE0126114A169C64845D6126C9 DUP4 MSTORE DUP11 PUSH1 0x20 DUP5 ADD MSTORE DUP10 PUSH1 0x40 DUP5 ADD MSTORE DUP9 PUSH1 0x60 DUP5 ADD MSTORE DUP1 PUSH1 0x80 DUP5 ADD MSTORE DUP8 PUSH1 0xA0 DUP5 ADD MSTORE PUSH1 0xC0 DUP4 KECCAK256 PUSH1 0x4E MSTORE PUSH1 0x42 PUSH1 0x2C KECCAK256 PUSH0 MSTORE DUP7 PUSH1 0xFF AND PUSH1 0x20 MSTORE DUP6 PUSH1 0x40 MSTORE DUP5 PUSH1 0x60 MSTORE PUSH1 0x20 DUP1 PUSH1 0x80 PUSH0 PUSH1 0x1 GAS STATICCALL DUP12 RETURNDATASIZE MLOAD EQ PUSH2 0xE66 JUMPI PUSH4 0xDDAFBAEF PUSH0 MSTORE PUSH1 0x4 PUSH1 0x1C REVERT JUMPDEST DUP1 DUP3 ADD DUP4 SSTORE DUP11 PUSH4 0x7F5E9F20 PUSH1 0xA0 SHL OR PUSH1 0x40 MSTORE DUP10 PUSH1 0x34 PUSH1 0x2C KECCAK256 SSTORE DUP11 DUP13 PUSH32 0x8C5BE1E5EBEC7D5BD14F71427D1E84F3DD0314C0F7B2291E5B200AC8C7C3B925 PUSH1 0x20 PUSH1 0x60 DUP9 ADD LOG3 DUP4 PUSH1 0x40 MSTORE PUSH0 PUSH1 0x60 MSTORE POP POP POP POP POP POP POP POP POP POP POP POP JUMP JUMPDEST PUSH0 DUP2 PUSH1 0x20 MSTORE PUSH4 0x7F5E9F20 PUSH1 0xC MSTORE DUP3 PUSH0 MSTORE PUSH1 0x34 PUSH1 0xC KECCAK256 SLOAD SWAP1 POP SWAP3 SWAP2 POP POP JUMP JUMPDEST PUSH0 DUP1 PUSH2 0xF0A PUSH1 0x2 PUSH0 SWAP1 SLOAD SWAP1 PUSH2 0x100 EXP SWAP1 DIV PUSH20 0xFFFFFFFFFFFFFFFFFFFFFFFFFFFFFFFFFFFFFFFF AND DUP6 PUSH2 0x1130 JUMP JUMPDEST SWAP1 POP DUP3 DUP2 LT ISZERO PUSH2 0xF46 JUMPI PUSH1 0x40 MLOAD PUSH32 0x2CD294CF00000000000000000000000000000000000000000000000000000000 DUP2 MSTORE PUSH1 0x4 ADD PUSH1 0x40 MLOAD DUP1 SWAP2 SUB SWAP1 REVERT JUMPDEST PUSH0 PUSH2 0xF4F PUSH2 0x46C JUMP JUMPDEST SWAP1 POP PUSH0 PUSH2 0xF8C DUP3 PUSH1 0x4 SLOAD DUP9 PUSH2 0xF64 SWAP2 SWAP1 PUSH2 0x18BA JUMP JUMPDEST PUSH2 0xF6E SWAP2 SWAP1 PUSH2 0x1928 JUMP JUMPDEST DUP4 PUSH1 0x5 SLOAD DUP9 PUSH2 0xF7D SWAP2 SWAP1 PUSH2 0x18BA JUMP JUMPDEST PUSH2 0xF87 SWAP2 SWAP1 PUSH2 0x1928 JUMP JUMPDEST PUSH2 0x11FC JUMP JUMPDEST SWAP1 POP PUSH2 0xF98 CALLER DUP3 PUSH2 0x1214 JUMP JUMPDEST DUP6 PUSH1 0x4 PUSH0 DUP3 DUP3 SLOAD PUSH2 0xFA9 SWAP2 SWAP1 PUSH2 0x19CA JUMP JUMPDEST SWAP3 POP POP DUP2 SWAP1 SSTORE POP DUP5 PUSH1 0x5 PUSH0 DUP3 DUP3 SLOAD PUSH2 0xFC1 SWAP2 SWAP1 PUSH2 0x19CA JUMP JUMPDEST SWAP3 POP POP DUP2 SWAP1 SSTORE POP DUP1 SWAP4 POP POP POP POP SWAP3 SWAP2 POP POP JUMP JUMPDEST POP POP POP JUMP JUMPDEST POP POP POP JUMP JUMPDEST PUSH0 DUP5 PUSH20 0xFFFFFFFFFFFFFFFFFFFFFFFFFFFFFFFFFFFFFFFF AND PUSH4 0x23B872DD DUP6 DUP6 DUP6 PUSH1 0x40 MLOAD DUP5 PUSH4 0xFFFFFFFF AND PUSH1 0xE0 SHL DUP2 MSTORE PUSH1 0x4 ADD PUSH2 0x101C SWAP4 SWAP3 SWAP2 SWAP1 PUSH2 0x19FD JUMP JUMPDEST PUSH1 0x20 PUSH1 0x40 MLOAD DUP1 DUP4 SUB DUP2 PUSH0 DUP8 GAS CALL ISZERO DUP1 ISZERO PUSH2 0x1038 JUMPI RETURNDATASIZE PUSH0 DUP1 RETURNDATACOPY RETURNDATASIZE PUSH0 REVERT JUMPDEST POP POP POP POP PUSH1 0x40 MLOAD RETURNDATASIZE PUSH1 0x1F NOT PUSH1 0x1F DUP3 ADD AND DUP3 ADD DUP1 PUSH1 0x40 MSTORE POP DUP2 ADD SWAP1 PUSH2 0x105C SWAP2 SWAP1 PUSH2 0x1A5C JUMP JUMPDEST SWAP1 POP DUP1 PUSH2 0x1095 JUMPI PUSH1 0x40 MLOAD PUSH32 0x3F4AB80E00000000000000000000000000000000000000000000000000000000 DUP2 MSTORE PUSH1 0x4 ADD PUSH1 0x40 MLOAD DUP1 SWAP2 SUB SWAP1 REVERT JUMPDEST POP POP POP POP POP JUMP JUMPDEST PUSH2 0x10A7 DUP3 PUSH0 DUP4 PUSH2 0xFD4 JUMP JUMPDEST PUSH4 0x87A211A2 PUSH1 0xC MSTORE DUP2 PUSH0 MSTORE PUSH1 0x20 PUSH1 0xC KECCAK256 DUP1 SLOAD DUP1 DUP4 GT ISZERO PUSH2 0x10CE JUMPI PUSH4 0xF4D678B8 PUSH0 MSTORE PUSH1 0x4 PUSH1 0x1C REVERT JUMPDEST DUP3 DUP2 SUB DUP3 SSTORE DUP3 PUSH9 0x5345CDF77EB68F44C SLOAD SUB PUSH9 0x5345CDF77EB68F44C SSTORE DUP3 PUSH0 MSTORE PUSH0 DUP5 PUSH1 0x60 SHL PUSH1 0x60 SHR PUSH32 0xDDF252AD1BE2C89B69C2B068FC378DAA952BA7F163C4A11628F55A4DF523B3EF PUSH1 0x20 PUSH0 LOG3 POP POP PUSH2 0x1128 DUP3 PUSH0 DUP4 PUSH2 0xFD9 JUMP JUMPDEST POP POP JUMP JUMPDEST PUSH0 SWAP1 JUMP JUMPDEST PUSH0 DUP1 PUSH1 0x2 PUSH0 SWAP1 SLOAD SWAP1 PUSH2 0x100 EXP SWAP1 DIV PUSH20 0xFFFFFFFFFFFFFFFFFFFFFFFFFFFFFFFFFFFFFFFF AND SWAP1 POP PUSH0 DUP2 PUSH20 0xFFFFFFFFFFFFFFFFFFFFFFFFFFFFFFFFFFFFFFFF AND DUP6 PUSH20 0xFFFFFFFFFFFFFFFFFFFFFFFFFFFFFFFFFFFFFFFF AND EQ PUSH2 0x1192 JUMPI PUSH1 0x5 SLOAD PUSH2 0x1196 JUMP JUMPDEST PUSH1 0x4 SLOAD JUMPDEST SWAP1 POP PUSH0 DUP3 PUSH20 0xFFFFFFFFFFFFFFFFFFFFFFFFFFFFFFFFFFFFFFFF AND DUP7 PUSH20 0xFFFFFFFFFFFFFFFFFFFFFFFFFFFFFFFFFFFFFFFF AND EQ PUSH2 0x11D4 JUMPI PUSH1 0x4 SLOAD PUSH2 0x11D8 JUMP JUMPDEST PUSH1 0x5 SLOAD JUMPDEST SWAP1 POP DUP1 DUP6 DUP4 PUSH2 0x11E7 SWAP2 SWAP1 PUSH2 0x18BA JUMP JUMPDEST PUSH2 0x11F1 SWAP2 SWAP1 PUSH2 0x1928 JUMP JUMPDEST SWAP4 POP POP POP POP SWAP3 SWAP2 POP POP JUMP JUMPDEST PUSH0 DUP2 DUP4 LT PUSH2 0x120A JUMPI DUP2 PUSH2 0x120C JUMP JUMPDEST DUP3 JUMPDEST SWAP1 POP SWAP3 SWAP2 POP POP JUMP JUMPDEST PUSH2 0x121F PUSH0 DUP4 DUP4 PUSH2 0xFD4 JUMP JUMPDEST PUSH9 0x5345CDF77EB68F44C SLOAD DUP2 DUP2 ADD DUP2 DUP2 LT ISZERO PUSH2 0x1242 JUMPI PUSH4 0xE5CFE957 PUSH0 MSTORE PUSH1 0x4 PUSH1 0x1C REVERT JUMPDEST DUP1 PUSH9 0x5345CDF77EB68F44C SSTORE PUSH4 0x87A211A2 PUSH1 0xC MSTORE DUP4 PUSH0 MSTORE PUSH1 0x20 PUSH1 0xC KECCAK256 DUP4 DUP2 SLOAD ADD DUP2 SSTORE DUP4 PUSH1 0x20 MSTORE PUSH1 0xC MLOAD PUSH1 0x60 SHR PUSH0 PUSH32 0xDDF252AD1BE2C89B69C2B068FC378DAA952BA7F163C4A11628F55A4DF523B3EF PUSH1 0x20 DUP1 LOG3 POP POP POP PUSH2 0x12A2 PUSH0 DUP4 DUP4 PUSH2 0xFD9 JUMP JUMPDEST POP POP JUMP JUMPDEST PUSH0 DUP2 MLOAD SWAP1 POP SWAP2 SWAP1 POP JUMP JUMPDEST PUSH0 DUP3 DUP3 MSTORE PUSH1 0x20 DUP3 ADD SWAP1 POP SWAP3 SWAP2 POP POP JUMP JUMPDEST PUSH0 JUMPDEST DUP4 DUP2 LT ISZERO PUSH2 0x12DD JUMPI DUP1 DUP3 ADD MLOAD DUP2 DUP5 ADD MSTORE PUSH1 0x20 DUP2 ADD SWAP1 POP PUSH2 0x12C2 JUMP JUMPDEST PUSH0 DUP5 DUP5 ADD MSTORE POP POP POP POP JUMP JUMPDEST PUSH0 PUSH1 0x1F NOT PUSH1 0x1F DUP4 ADD AND SWAP1 POP SWAP2 SWAP1 POP JUMP JUMPDEST PUSH0 PUSH2 0x1302 DUP3 PUSH2 0x12A6 JUMP JUMPDEST PUSH2 0x130C DUP2 DUP6 PUSH2 0x12B0 JUMP JUMPDEST SWAP4 POP PUSH2 0x131C DUP2 DUP6 PUSH1 0x20 DUP7 ADD PUSH2 0x12C0 JUMP JUMPDEST PUSH2 0x1325 DUP2 PUSH2 0x12E8 JUMP JUMPDEST DUP5 ADD SWAP2 POP POP SWAP3 SWAP2 POP POP JUMP JUMPDEST PUSH0 PUSH1 0x20 DUP3 ADD SWAP1 POP DUP2 DUP2 SUB PUSH0 DUP4 ADD MSTORE PUSH2 0x1348 DUP2 DUP5 PUSH2 0x12F8 JUMP JUMPDEST SWAP1 POP SWAP3 SWAP2 POP POP JUMP JUMPDEST PUSH0 DUP1 REVERT JUMPDEST PUSH0 PUSH20 0xFFFFFFFFFFFFFFFFFFFFFFFFFFFFFFFFFFFFFFFF DUP3 AND SWAP1 POP SWAP2 SWAP1 POP JUMP JUMPDEST PUSH0 PUSH2 0x137D DUP3 PUSH2 0x1354 JUMP JUMPDEST SWAP1 POP SWAP2 SWAP1 POP JUMP JUMPDEST PUSH2 0x138D DUP2 PUSH2 0x1373 JUMP JUMPDEST DUP2 EQ PUSH2 0x1397 JUMPI PUSH0 DUP1 REVERT JUMPDEST POP JUMP JUMPDEST PUSH0 DUP2 CALLDATALOAD SWAP1 POP PUSH2 0x13A8 DUP2 PUSH2 0x1384 JUMP JUMPDEST SWAP3 SWAP2 POP POP JUMP JUMPDEST PUSH0 DUP2 SWAP1 POP SWAP2 SWAP1 POP JUMP JUMPDEST PUSH2 0x13C0 DUP2 PUSH2 0x13AE JUMP JUMPDEST DUP2 EQ PUSH2 0x13CA JUMPI PUSH0 DUP1 REVERT JUMPDEST POP JUMP JUMPDEST PUSH0 DUP2 CALLDATALOAD SWAP1 POP PUSH2 0x13DB DUP2 PUSH2 0x13B7 JUMP JUMPDEST SWAP3 SWAP2 POP POP JUMP JUMPDEST PUSH0 DUP1 PUSH1 0x40 DUP4 DUP6 SUB SLT ISZERO PUSH2 0x13F7 JUMPI PUSH2 0x13F6 PUSH2 0x1350 JUMP JUMPDEST JUMPDEST PUSH0 PUSH2 0x1404 DUP6 DUP3 DUP7 ADD PUSH2 0x139A JUMP JUMPDEST SWAP3 POP POP PUSH1 0x20 PUSH2 0x1415 DUP6 DUP3 DUP7 ADD PUSH2 0x13CD JUMP JUMPDEST SWAP2 POP POP SWAP3 POP SWAP3 SWAP1 POP JUMP JUMPDEST PUSH0 DUP2 ISZERO ISZERO SWAP1 POP SWAP2 SWAP1 POP JUMP JUMPDEST PUSH2 0x1433 DUP2 PUSH2 0x141F JUMP JUMPDEST DUP3 MSTORE POP POP JUMP JUMPDEST PUSH0 PUSH1 0x20 DUP3 ADD SWAP1 POP PUSH2 0x144C PUSH0 DUP4 ADD DUP5 PUSH2 0x142A JUMP JUMPDEST SWAP3 SWAP2 POP POP JUMP JUMPDEST PUSH2 0x145B DUP2 PUSH2 0x13AE JUMP JUMPDEST DUP3 MSTORE POP POP JUMP JUMPDEST PUSH0 PUSH1 0x20 DUP3 ADD SWAP1 POP PUSH2 0x1474 PUSH0 DUP4 ADD DUP5 PUSH2 0x1452 JUMP JUMPDEST SWAP3 SWAP2 POP POP JUMP JUMPDEST PUSH0 DUP1 PUSH0 PUSH1 0x60 DUP5 DUP7 SUB SLT ISZERO PUSH2 0x1491 JUMPI PUSH2 0x1490 PUSH2 0x1350 JUMP JUMPDEST JUMPDEST PUSH0 PUSH2 0x149E DUP7 DUP3 DUP8 ADD PUSH2 0x139A JUMP JUMPDEST SWAP4 POP POP PUSH1 0x20 PUSH2 0x14AF DUP7 DUP3 DUP8 ADD PUSH2 0x139A JUMP JUMPDEST SWAP3 POP POP PUSH1 0x40 PUSH2 0x14C0 DUP7 DUP3 DUP8 ADD PUSH2 0x13CD JUMP JUMPDEST SWAP2 POP POP SWAP3 POP SWAP3 POP SWAP3 JUMP JUMPDEST PUSH0 PUSH1 0x20 DUP3 DUP5 SUB SLT ISZERO PUSH2 0x14DF JUMPI PUSH2 0x14DE PUSH2 0x1350 JUMP JUMPDEST JUMPDEST PUSH0 PUSH2 0x14EC DUP5 DUP3 DUP6 ADD PUSH2 0x13CD JUMP JUMPDEST SWAP2 POP POP SWAP3 SWAP2 POP POP JUMP JUMPDEST PUSH0 PUSH1 0x40 DUP3 ADD SWAP1 POP PUSH2 0x1508 PUSH0 DUP4 ADD DUP6 PUSH2 0x1452 JUMP JUMPDEST PUSH2 0x1515 PUSH1 0x20 DUP4 ADD DUP5 PUSH2 0x1452 JUMP JUMPDEST SWAP4 SWAP3 POP POP POP JUMP JUMPDEST PUSH0 PUSH1 0xFF DUP3 AND SWAP1 POP SWAP2 SWAP1 POP JUMP JUMPDEST PUSH2 0x1531 DUP2 PUSH2 0x151C JUMP JUMPDEST DUP3 MSTORE POP POP JUMP JUMPDEST PUSH0 PUSH1 0x20 DUP3 ADD SWAP1 POP PUSH2 0x154A PUSH0 DUP4 ADD DUP5 PUSH2 0x1528 JUMP JUMPDEST SWAP3 SWAP2 POP POP JUMP JUMPDEST PUSH0 DUP2 SWAP1 POP SWAP2 SWAP1 POP JUMP JUMPDEST PUSH2 0x1562 DUP2 PUSH2 0x1550 JUMP JUMPDEST DUP3 MSTORE POP POP JUMP JUMPDEST PUSH0 PUSH1 0x20 DUP3 ADD SWAP1 POP PUSH2 0x157B PUSH0 DUP4 ADD DUP5 PUSH2 0x1559 JUMP JUMPDEST SWAP3 SWAP2 POP POP JUMP JUMPDEST PUSH0 PUSH1 0x20 DUP3 DUP5 SUB SLT ISZERO PUSH2 0x1596 JUMPI PUSH2 0x1595 PUSH2 0x1350 JUMP JUMPDEST JUMPDEST PUSH0 PUSH2 0x15A3 DUP5 DUP3 DUP6 ADD PUSH2 0x139A JUMP JUMPDEST SWAP2 POP POP SWAP3 SWAP2 POP POP JUMP JUMPDEST PUSH2 0x15B5 DUP2 PUSH2 0x1373 JUMP JUMPDEST DUP3 MSTORE POP POP JUMP JUMPDEST PUSH0 PUSH1 0x20 DUP3 ADD SWAP1 POP PUSH2 0x15CE PUSH0 DUP4 ADD DUP5 PUSH2 0x15AC JUMP JUMPDEST SWAP3 SWAP2 POP POP JUMP JUMPDEST PUSH2 0x15DD DUP2 PUSH2 0x151C JUMP JUMPDEST DUP2 EQ PUSH2 0x15E7 JUMPI PUSH0 DUP1 REVERT JUMPDEST POP JUMP JUMPDEST PUSH0 DUP2 CALLDATALOAD SWAP1 POP PUSH2 0x15F8 DUP2 PUSH2 0x15D4 JUMP JUMPDEST SWAP3 SWAP2 POP POP JUMP JUMPDEST PUSH2 0x1607 DUP2 PUSH2 0x1550 JUMP JUMPDEST DUP2 EQ PUSH2 0x1611 JUMPI PUSH0 DUP1 REVERT JUMPDEST POP JUMP JUMPDEST PUSH0 DUP2 CALLDATALOAD SWAP1 POP PUSH2 0x1622 DUP2 PUSH2 0x15FE JUMP JUMPDEST SWAP3 SWAP2 POP POP JUMP JUMPDEST PUSH0 DUP1 PUSH0 DUP1 PUSH0 DUP1 PUSH0 PUSH1 0xE0 DUP9 DUP11 SUB SLT ISZERO PUSH2 0x1643 JUMPI PUSH2 0x1642 PUSH2 0x1350 JUMP JUMPDEST JUMPDEST PUSH0 PUSH2 0x1650 DUP11 DUP3 DUP12 ADD PUSH2 0x139A JUMP JUMPDEST SWAP8 POP POP PUSH1 0x20 PUSH2 0x1661 DUP11 DUP3 DUP12 ADD PUSH2 0x139A JUMP JUMPDEST SWAP7 POP POP PUSH1 0x40 PUSH2 0x1672 DUP11 DUP3 DUP12 ADD PUSH2 0x13CD JUMP JUMPDEST SWAP6 POP POP PUSH1 0x60 PUSH2 0x1683 DUP11 DUP3 DUP12 ADD PUSH2 0x13CD JUMP JUMPDEST SWAP5 POP POP PUSH1 0x80 PUSH2 0x1694 DUP11 DUP3 DUP12 ADD PUSH2 0x15EA JUMP JUMPDEST SWAP4 POP POP PUSH1 0xA0 PUSH2 0x16A5 DUP11 DUP3 DUP12 ADD PUSH2 0x1614 JUMP JUMPDEST SWAP3 POP POP PUSH1 0xC0 PUSH2 0x16B6 DUP11 DUP3 DUP12 ADD PUSH2 0x1614 JUMP JUMPDEST SWAP2 POP POP SWAP3 SWAP6 SWAP9 SWAP2 SWAP5 SWAP8 POP SWAP3 SWAP6 POP JUMP JUMPDEST PUSH0 DUP1 PUSH1 0x40 DUP4 DUP6 SUB SLT ISZERO PUSH2 0x16DB JUMPI PUSH2 0x16DA PUSH2 0x1350 JUMP JUMPDEST JUMPDEST PUSH0 PUSH2 0x16E8 DUP6 DUP3 DUP7 ADD PUSH2 0x139A JUMP JUMPDEST SWAP3 POP POP PUSH1 0x20 PUSH2 0x16F9 DUP6 DUP3 DUP7 ADD PUSH2 0x139A JUMP JUMPDEST SWAP2 POP POP SWAP3 POP SWAP3 SWAP1 POP JUMP JUMPDEST PUSH0 DUP1 PUSH1 0x40 DUP4 DUP6 SUB SLT ISZERO PUSH2 0x1719 JUMPI PUSH2 0x1718 PUSH2 0x1350 JUMP JUMPDEST JUMPDEST PUSH0 PUSH2 0x1726 DUP6 DUP3 DUP7 ADD PUSH2 0x13CD JUMP JUMPDEST SWAP3 POP POP PUSH1 0x20 PUSH2 0x1737 DUP6 DUP3 DUP7 ADD PUSH2 0x13CD JUMP JUMPDEST SWAP2 POP POP SWAP3 POP SWAP3 SWAP1 POP JUMP JUMPDEST PUSH0 DUP2 SWAP1 POP SWAP3 SWAP2 POP POP JUMP JUMPDEST PUSH0 PUSH2 0x1755 DUP3 PUSH2 0x12A6 JUMP JUMPDEST PUSH2 0x175F DUP2 DUP6 PUSH2 0x1741 JUMP JUMPDEST SWAP4 POP PUSH2 0x176F DUP2 DUP6 PUSH1 0x20 DUP7 ADD PUSH2 0x12C0 JUMP JUMPDEST DUP1 DUP5 ADD SWAP2 POP POP SWAP3 SWAP2 POP POP JUMP JUMPDEST PUSH32 0x4E487B7100000000000000000000000000000000000000000000000000000000 PUSH0 MSTORE PUSH1 0x22 PUSH1 0x4 MSTORE PUSH1 0x24 PUSH0 REVERT JUMPDEST PUSH0 PUSH1 0x2 DUP3 DIV SWAP1 POP PUSH1 0x1 DUP3 AND DUP1 PUSH2 0x17BF JUMPI PUSH1 0x7F DUP3 AND SWAP2 POP JUMPDEST PUSH1 0x20 DUP3 LT DUP2 SUB PUSH2 0x17D2 JUMPI PUSH2 0x17D1 PUSH2 0x177B JUMP JUMPDEST JUMPDEST POP SWAP2 SWAP1 POP JUMP JUMPDEST PUSH0 DUP2 SWAP1 POP DUP2 PUSH0 MSTORE PUSH1 0x20 PUSH0 KECCAK256 SWAP1 POP SWAP2 SWAP1 POP JUMP JUMPDEST PUSH0 DUP2 SLOAD PUSH2 0x17F6 DUP2 PUSH2 0x17A8 JUMP JUMPDEST PUSH2 0x1800 DUP2 DUP7 PUSH2 0x1741 JUMP JUMPDEST SWAP5 POP PUSH1 0x1 DUP3 AND PUSH0 DUP2 EQ PUSH2 0x181A JUMPI PUSH1 0x1 DUP2 EQ PUSH2 0x182F JUMPI PUSH2 0x1861 JUMP JUMPDEST PUSH1 0xFF NOT DUP4 AND DUP7 MSTORE DUP2 ISZERO ISZERO DUP3 MUL DUP7 ADD SWAP4 POP PUSH2 0x1861 JUMP JUMPDEST PUSH2 0x1838 DUP6 PUSH2 0x17D8 JUMP JUMPDEST PUSH0 JUMPDEST DUP4 DUP2 LT ISZERO PUSH2 0x1859 JUMPI DUP2 SLOAD DUP2 DUP10 ADD MSTORE PUSH1 0x1 DUP3 ADD SWAP2 POP PUSH1 0x20 DUP2 ADD SWAP1 POP PUSH2 0x183A JUMP JUMPDEST DUP4 DUP9 ADD SWAP6 POP POP POP JUMPDEST POP POP POP SWAP3 SWAP2 POP POP JUMP JUMPDEST PUSH0 PUSH2 0x1875 DUP3 DUP6 PUSH2 0x174B JUMP JUMPDEST SWAP2 POP PUSH2 0x1881 DUP3 DUP5 PUSH2 0x17EA JUMP JUMPDEST SWAP2 POP DUP2 SWAP1 POP SWAP4 SWAP3 POP POP POP JUMP JUMPDEST PUSH32 0x4E487B7100000000000000000000000000000000000000000000000000000000 PUSH0 MSTORE PUSH1 0x11 PUSH1 0x4 MSTORE PUSH1 0x24 PUSH0 REVERT JUMPDEST PUSH0 PUSH2 0x18C4 DUP3 PUSH2 0x13AE JUMP JUMPDEST SWAP2 POP PUSH2 0x18CF DUP4 PUSH2 0x13AE JUMP JUMPDEST SWAP3 POP DUP3 DUP3 MUL PUSH2 0x18DD DUP2 PUSH2 0x13AE JUMP JUMPDEST SWAP2 POP DUP3 DUP3 DIV DUP5 EQ DUP4 ISZERO OR PUSH2 0x18F4 JUMPI PUSH2 0x18F3 PUSH2 0x188D JUMP JUMPDEST JUMPDEST POP SWAP3 SWAP2 POP POP JUMP JUMPDEST PUSH32 0x4E487B7100000000000000000000000000000000000000000000000000000000 PUSH0 MSTORE PUSH1 0x12 PUSH1 0x4 MSTORE PUSH1 0x24 PUSH0 REVERT JUMPDEST PUSH0 PUSH2 0x1932 DUP3 PUSH2 0x13AE JUMP JUMPDEST SWAP2 POP PUSH2 0x193D DUP4 PUSH2 0x13AE JUMP JUMPDEST SWAP3 POP DUP3 PUSH2 0x194D JUMPI PUSH2 0x194C PUSH2 0x18FB JUMP JUMPDEST JUMPDEST DUP3 DUP3 DIV SWAP1 POP SWAP3 SWAP2 POP POP JUMP JUMPDEST PUSH0 PUSH2 0x1962 DUP3 PUSH2 0x13AE JUMP JUMPDEST SWAP2 POP PUSH2 0x196D DUP4 PUSH2 0x13AE JUMP JUMPDEST SWAP3 POP DUP3 DUP3 SUB SWAP1 POP DUP2 DUP2 GT ISZERO PUSH2 0x1985 JUMPI PUSH2 0x1984 PUSH2 0x188D JUMP JUMPDEST JUMPDEST SWAP3 SWAP2 POP POP JUMP JUMPDEST PUSH0 DUP2 MLOAD SWAP1 POP PUSH2 0x1999 DUP2 PUSH2 0x13B7 JUMP JUMPDEST SWAP3 SWAP2 POP POP JUMP JUMPDEST PUSH0 PUSH1 0x20 DUP3 DUP5 SUB SLT ISZERO PUSH2 0x19B4 JUMPI PUSH2 0x19B3 PUSH2 0x1350 JUMP JUMPDEST JUMPDEST PUSH0 PUSH2 0x19C1 DUP5 DUP3 DUP6 ADD PUSH2 0x198B JUMP JUMPDEST SWAP2 POP POP SWAP3 SWAP2 POP POP JUMP JUMPDEST PUSH0 PUSH2 0x19D4 DUP3 PUSH2 0x13AE JUMP JUMPDEST SWAP2 POP PUSH2 0x19DF DUP4 PUSH2 0x13AE JUMP JUMPDEST SWAP3 POP DUP3 DUP3 ADD SWAP1 POP DUP1 DUP3 GT ISZERO PUSH2 0x19F7 JUMPI PUSH2 0x19F6 PUSH2 0x188D JUMP JUMPDEST JUMPDEST SWAP3 SWAP2 POP POP JUMP JUMPDEST PUSH0 PUSH1 0x60 DUP3 ADD SWAP1 POP PUSH2 0x1A10 PUSH0 DUP4 ADD DUP7 PUSH2 0x15AC JUMP JUMPDEST PUSH2 0x1A1D PUSH1 0x20 DUP4 ADD DUP6 PUSH2 0x15AC JUMP JUMPDEST PUSH2 0x1A2A PUSH1 0x40 DUP4 ADD DUP5 PUSH2 0x1452 JUMP JUMPDEST SWAP5 SWAP4 POP POP POP POP JUMP JUMPDEST PUSH2 0x1A3B DUP2 PUSH2 0x141F JUMP JUMPDEST DUP2 EQ PUSH2 0x1A45 JUMPI PUSH0 DUP1 REVERT JUMPDEST POP JUMP JUMPDEST PUSH0 DUP2 MLOAD SWAP1 POP PUSH2 0x1A56 DUP2 PUSH2 0x1A32 JUMP JUMPDEST SWAP3 SWAP2 POP POP JUMP JUMPDEST PUSH0 PUSH1 0x20 DUP3 DUP5 SUB SLT ISZERO PUSH2 0x1A71 JUMPI PUSH2 0x1A70 PUSH2 0x1350 JUMP JUMPDEST JUMPDEST PUSH0 PUSH2 0x1A7E DUP5 DUP3 DUP6 ADD PUSH2 0x1A48 JUMP JUMPDEST SWAP2 POP POP SWAP3 SWAP2 POP POP JUMP INVALID LOG2 PUSH5 0x6970667358 0x22 SLT KECCAK256 0xF 0xFC CALLDATALOAD 0xEA CREATE SELFDESTRUCT DUP12 PUSH14 0xE8FD6FB27CFCFEFCFA1BC0FFE7BB SWAP3 PUSH14 0xBA91FCE612F16EA164736F6C6343 STOP ADDMOD EQ STOP CALLER "
				},
				"gasEstimates": {
					"creation": {
						"codeDepositCost": "1369000",
						"executionCost": "infinite",
						"totalCost": "infinite"
					},
					"external": {
						"DOMAIN_SEPARATOR()": "infinite",
						"allowance(address,address)": "infinite",
						"approve(address,uint256)": "24826",
						"balanceOf(address)": "2886",
						"decimals()": "383",
						"deposit(uint256,uint256)": "infinite",
						"factory()": "2530",
						"name()": "infinite",
						"nonces(address)": "2820",
						"permit(address,address,uint256,uint256,uint8,bytes32,bytes32)": "infinite",
						"quote(address,uint256)": "infinite",
						"swap(address,uint256)": "infinite",
						"symbol()": "infinite",
						"totalSupply()": "2500",
						"transfer(address,uint256)": "51338",
						"transferFrom(address,address,uint256)": "infinite",
						"withdraw(uint256)": "infinite"
					},
					"internal": {
						"_quote(address,uint256)": "infinite",
						"_transfer(address,address,address,uint256)": "infinite",
						"min(uint256,uint256)": "63"
					}
				},
				"methodIdentifiers": {
					"DOMAIN_SEPARATOR()": "3644e515",
					"allowance(address,address)": "dd62ed3e",
					"approve(address,uint256)": "095ea7b3",
					"balanceOf(address)": "70a08231",
					"decimals()": "313ce567",
					"deposit(uint256,uint256)": "e2bbb158",
					"factory()": "c45a0155",
					"name()": "06fdde03",
					"nonces(address)": "7ecebe00",
					"permit(address,address,uint256,uint256,uint8,bytes32,bytes32)": "d505accf",
					"quote(address,uint256)": "8f79306e",
					"swap(address,uint256)": "d004f0f7",
					"symbol()": "95d89b41",
					"totalSupply()": "18160ddd",
					"transfer(address,uint256)": "a9059cbb",
					"transferFrom(address,address,uint256)": "23b872dd",
					"withdraw(uint256)": "2e1a7d4d"
				}
			},
			"storageLayout": {
				"storage": [
					{
						"astId": 14,
						"contract": "contracts/Pool.sol:Pool",
						"label": "s_name",
						"offset": 0,
						"slot": "0",
						"type": "t_string_storage"
					},
					{
						"astId": 138,
						"contract": "contracts/Pool.sol:Pool",
						"label": "factory",
						"offset": 0,
						"slot": "1",
						"type": "t_address"
					},
					{
						"astId": 140,
						"contract": "contracts/Pool.sol:Pool",
						"label": "s_token0",
						"offset": 0,
						"slot": "2",
						"type": "t_address"
					},
					{
						"astId": 142,
						"contract": "contracts/Pool.sol:Pool",
						"label": "s_token1",
						"offset": 0,
						"slot": "3",
						"type": "t_address"
					},
					{
						"astId": 144,
						"contract": "contracts/Pool.sol:Pool",
						"label": "s_reserve0",
						"offset": 0,
						"slot": "4",
						"type": "t_uint256"
					},
					{
						"astId": 146,
						"contract": "contracts/Pool.sol:Pool",
						"label": "s_reserve1",
						"offset": 0,
						"slot": "5",
						"type": "t_uint256"
					}
				],
				"types": {
					"t_address": {
						"encoding": "inplace",
						"label": "address",
						"numberOfBytes": "20"
					},
					"t_string_storage": {
						"encoding": "bytes",
						"label": "string",
						"numberOfBytes": "32"
					},
					"t_uint256": {
						"encoding": "inplace",
						"label": "uint256",
						"numberOfBytes": "32"
					}
				}
			},
			"userdoc": {
				"kind": "user",
				"methods": {},
				"version": 1
			}
		}
	}
}