{
	"contracts/LP.sol": {
		"LP": {
			"abi": [
				{
					"inputs": [
						{
							"internalType": "string",
							"name": "_name",
							"type": "string"
						}
					],
					"stateMutability": "nonpayable",
					"type": "constructor"
				},
				{
					"inputs": [],
					"name": "AllowanceOverflow",
					"type": "error"
				},
				{
					"inputs": [],
					"name": "AllowanceUnderflow",
					"type": "error"
				},
				{
					"inputs": [],
					"name": "InsufficientAllowance",
					"type": "error"
				},
				{
					"inputs": [],
					"name": "InsufficientBalance",
					"type": "error"
				},
				{
					"inputs": [],
					"name": "InvalidPermit",
					"type": "error"
				},
				{
					"inputs": [],
					"name": "PermitExpired",
					"type": "error"
				},
				{
					"inputs": [],
					"name": "TotalSupplyOverflow",
					"type": "error"
				},
				{
					"anonymous": false,
					"inputs": [
						{
							"indexed": true,
							"internalType": "address",
							"name": "owner",
							"type": "address"
						},
						{
							"indexed": true,
							"internalType": "address",
							"name": "spender",
							"type": "address"
						},
						{
							"indexed": false,
							"internalType": "uint256",
							"name": "amount",
							"type": "uint256"
						}
					],
					"name": "Approval",
					"type": "event"
				},
				{
					"anonymous": false,
					"inputs": [
						{
							"indexed": true,
							"internalType": "address",
							"name": "from",
							"type": "address"
						},
						{
							"indexed": true,
							"internalType": "address",
							"name": "to",
							"type": "address"
						},
						{
							"indexed": false,
							"internalType": "uint256",
							"name": "amount",
							"type": "uint256"
						}
					],
					"name": "Transfer",
					"type": "event"
				},
				{
					"inputs": [],
					"name": "DOMAIN_SEPARATOR",
					"outputs": [
						{
							"internalType": "bytes32",
							"name": "result",
							"type": "bytes32"
						}
					],
					"stateMutability": "view",
					"type": "function"
				},
				{
					"inputs": [
						{
							"internalType": "address",
							"name": "owner",
							"type": "address"
						},
						{
							"internalType": "address",
							"name": "spender",
							"type": "address"
						}
					],
					"name": "allowance",
					"outputs": [
						{
							"internalType": "uint256",
							"name": "result",
							"type": "uint256"
						}
					],
					"stateMutability": "view",
					"type": "function"
				},
				{
					"inputs": [
						{
							"internalType": "address",
							"name": "spender",
							"type": "address"
						},
						{
							"internalType": "uint256",
							"name": "amount",
							"type": "uint256"
						}
					],
					"name": "approve",
					"outputs": [
						{
							"internalType": "bool",
							"name": "",
							"type": "bool"
						}
					],
					"stateMutability": "nonpayable",
					"type": "function"
				},
				{
					"inputs": [
						{
							"internalType": "address",
							"name": "owner",
							"type": "address"
						}
					],
					"name": "balanceOf",
					"outputs": [
						{
							"internalType": "uint256",
							"name": "result",
							"type": "uint256"
						}
					],
					"stateMutability": "view",
					"type": "function"
				},
				{
					"inputs": [],
					"name": "decimals",
					"outputs": [
						{
							"internalType": "uint8",
							"name": "",
							"type": "uint8"
						}
					],
					"stateMutability": "view",
					"type": "function"
				},
				{
					"inputs": [],
					"name": "name",
					"outputs": [
						{
							"internalType": "string",
							"name": "",
							"type": "string"
						}
					],
					"stateMutability": "view",
					"type": "function"
				},
				{
					"inputs": [
						{
							"internalType": "address",
							"name": "owner",
							"type": "address"
						}
					],
					"name": "nonces",
					"outputs": [
						{
							"internalType": "uint256",
							"name": "result",
							"type": "uint256"
						}
					],
					"stateMutability": "view",
					"type": "function"
				},
				{
					"inputs": [
						{
							"internalType": "address",
							"name": "owner",
							"type": "address"
						},
						{
							"internalType": "address",
							"name": "spender",
							"type": "address"
						},
						{
							"internalType": "uint256",
							"name": "value",
							"type": "uint256"
						},
						{
							"internalType": "uint256",
							"name": "deadline",
							"type": "uint256"
						},
						{
							"internalType": "uint8",
							"name": "v",
							"type": "uint8"
						},
						{
							"internalType": "bytes32",
							"name": "r",
							"type": "bytes32"
						},
						{
							"internalType": "bytes32",
							"name": "s",
							"type": "bytes32"
						}
					],
					"name": "permit",
					"outputs": [],
					"stateMutability": "nonpayable",
					"type": "function"
				},
				{
					"inputs": [],
					"name": "symbol",
					"outputs": [
						{
							"internalType": "string",
							"name": "",
							"type": "string"
						}
					],
					"stateMutability": "view",
					"type": "function"
				},
				{
					"inputs": [],
					"name": "totalSupply",
					"outputs": [
						{
							"internalType": "uint256",
							"name": "result",
							"type": "uint256"
						}
					],
					"stateMutability": "view",
					"type": "function"
				},
				{
					"inputs": [
						{
							"internalType": "address",
							"name": "to",
							"type": "address"
						},
						{
							"internalType": "uint256",
							"name": "amount",
							"type": "uint256"
						}
					],
					"name": "transfer",
					"outputs": [
						{
							"internalType": "bool",
							"name": "",
							"type": "bool"
						}
					],
					"stateMutability": "nonpayable",
					"type": "function"
				},
				{
					"inputs": [
						{
							"internalType": "address",
							"name": "from",
							"type": "address"
						},
						{
							"internalType": "address",
							"name": "to",
							"type": "address"
						},
						{
							"internalType": "uint256",
							"name": "amount",
							"type": "uint256"
						}
					],
					"name": "transferFrom",
					"outputs": [
						{
							"internalType": "bool",
							"name": "",
							"type": "bool"
						}
					],
					"stateMutability": "nonpayable",
					"type": "function"
				}
			],
			"devdoc": {
				"errors": {
					"AllowanceOverflow()": [
						{
							"details": "The allowance has overflowed."
						}
					],
					"AllowanceUnderflow()": [
						{
							"details": "The allowance has underflowed."
						}
					],
					"InsufficientAllowance()": [
						{
							"details": "Insufficient allowance."
						}
					],
					"InsufficientBalance()": [
						{
							"details": "Insufficient balance."
						}
					],
					"InvalidPermit()": [
						{
							"details": "The permit is invalid."
						}
					],
					"PermitExpired()": [
						{
							"details": "The permit has expired."
						}
					],
					"TotalSupplyOverflow()": [
						{
							"details": "The total supply has overflowed."
						}
					]
				},
				"events": {
					"Approval(address,address,uint256)": {
						"details": "Emitted when `amount` tokens is approved by `owner` to be used by `spender`."
					},
					"Transfer(address,address,uint256)": {
						"details": "Emitted when `amount` tokens is transferred from `from` to `to`."
					}
				},
				"kind": "dev",
				"methods": {
					"DOMAIN_SEPARATOR()": {
						"details": "Returns the EIP-712 domain separator for the EIP-2612 permit."
					},
					"allowance(address,address)": {
						"details": "Returns the amount of tokens that `spender` can spend on behalf of `owner`."
					},
					"approve(address,uint256)": {
						"details": "Sets `amount` as the allowance of `spender` over the caller's tokens. Emits a {Approval} event."
					},
					"balanceOf(address)": {
						"details": "Returns the amount of tokens owned by `owner`."
					},
					"decimals()": {
						"details": "Returns the decimals places of the token."
					},
					"name()": {
						"details": "Returns the name of the token."
					},
					"nonces(address)": {
						"details": "Returns the current nonce for `owner`. This value is used to compute the signature for EIP-2612 permit."
					},
					"permit(address,address,uint256,uint256,uint8,bytes32,bytes32)": {
						"details": "Sets `value` as the allowance of `spender` over the tokens of `owner`, authorized by a signed approval by `owner`. Emits a {Approval} event."
					},
					"symbol()": {
						"details": "Returns the symbol of the token."
					},
					"totalSupply()": {
						"details": "Returns the amount of tokens in existence."
					},
					"transfer(address,uint256)": {
						"details": "Transfer `amount` tokens from the caller to `to`. Requirements: - `from` must at least have `amount`. Emits a {Transfer} event."
					},
					"transferFrom(address,address,uint256)": {
						"details": "Transfers `amount` tokens from `from` to `to`. Note: Does not update the allowance if it is the maximum uint256 value. Requirements: - `from` must at least have `amount`. - The caller must have at least `amount` of allowance to transfer the tokens of `from`. Emits a {Transfer} event."
					}
				},
				"version": 1
			},
			"evm": {
				"assembly": "    /* \"contracts/LP.sol\":177:609  contract LP is ERC20 {... */\n  mstore(0x40, 0x80)\n    /* \"contracts/LP.sol\":318:383  constructor(string memory _name){... */\n  callvalue\n  dup1\n  iszero\n  tag_1\n  jumpi\n  0x00\n  dup1\n  revert\ntag_1:\n  pop\n  mload(0x40)\n  sub(codesize, bytecodeSize)\n  dup1\n  bytecodeSize\n  dup4\n  codecopy\n  dup2\n  dup2\n  add\n  0x40\n  mstore\n  dup2\n  add\n  swap1\n  tag_2\n  swap2\n  swap1\n  tag_3\n  jump\t// in\ntag_2:\n    /* \"contracts/LP.sol\":370:375  _name */\n  dup1\n    /* \"contracts/LP.sol\":361:367  s_name */\n  0x00\n    /* \"contracts/LP.sol\":361:375  s_name = _name */\n  swap1\n  dup2\n  tag_6\n  swap2\n  swap1\n  tag_7\n  jump\t// in\ntag_6:\n  pop\n    /* \"contracts/LP.sol\":318:383  constructor(string memory _name){... */\n  pop\n    /* \"contracts/LP.sol\":177:609  contract LP is ERC20 {... */\n  jump(tag_8)\n    /* \"#utility.yul\":7:82   */\ntag_9:\n    /* \"#utility.yul\":40:46   */\n  0x00\n    /* \"#utility.yul\":73:75   */\n  0x40\n    /* \"#utility.yul\":67:76   */\n  mload\n    /* \"#utility.yul\":57:76   */\n  swap1\n  pop\n    /* \"#utility.yul\":7:82   */\n  swap1\n  jump\t// out\n    /* \"#utility.yul\":88:205   */\ntag_10:\n    /* \"#utility.yul\":197:198   */\n  0x00\n    /* \"#utility.yul\":194:195   */\n  dup1\n    /* \"#utility.yul\":187:199   */\n  revert\n    /* \"#utility.yul\":211:328   */\ntag_11:\n    /* \"#utility.yul\":320:321   */\n  0x00\n    /* \"#utility.yul\":317:318   */\n  dup1\n    /* \"#utility.yul\":310:322   */\n  revert\n    /* \"#utility.yul\":334:451   */\ntag_12:\n    /* \"#utility.yul\":443:444   */\n  0x00\n    /* \"#utility.yul\":440:441   */\n  dup1\n    /* \"#utility.yul\":433:445   */\n  revert\n    /* \"#utility.yul\":457:574   */\ntag_13:\n    /* \"#utility.yul\":566:567   */\n  0x00\n    /* \"#utility.yul\":563:564   */\n  dup1\n    /* \"#utility.yul\":556:568   */\n  revert\n    /* \"#utility.yul\":580:682   */\ntag_14:\n    /* \"#utility.yul\":621:627   */\n  0x00\n    /* \"#utility.yul\":672:674   */\n  0x1f\n    /* \"#utility.yul\":668:675   */\n  not\n    /* \"#utility.yul\":663:665   */\n  0x1f\n    /* \"#utility.yul\":656:661   */\n  dup4\n    /* \"#utility.yul\":652:666   */\n  add\n    /* \"#utility.yul\":648:676   */\n  and\n    /* \"#utility.yul\":638:676   */\n  swap1\n  pop\n    /* \"#utility.yul\":580:682   */\n  swap2\n  swap1\n  pop\n  jump\t// out\n    /* \"#utility.yul\":688:868   */\ntag_15:\n    /* \"#utility.yul\":736:813   */\n  0x4e487b7100000000000000000000000000000000000000000000000000000000\n    /* \"#utility.yul\":733:734   */\n  0x00\n    /* \"#utility.yul\":726:814   */\n  mstore\n    /* \"#utility.yul\":833:837   */\n  0x41\n    /* \"#utility.yul\":830:831   */\n  0x04\n    /* \"#utility.yul\":823:838   */\n  mstore\n    /* \"#utility.yul\":857:861   */\n  0x24\n    /* \"#utility.yul\":854:855   */\n  0x00\n    /* \"#utility.yul\":847:862   */\n  revert\n    /* \"#utility.yul\":874:1155   */\ntag_16:\n    /* \"#utility.yul\":957:984   */\n  tag_50\n    /* \"#utility.yul\":979:983   */\n  dup3\n    /* \"#utility.yul\":957:984   */\n  tag_14\n  jump\t// in\ntag_50:\n    /* \"#utility.yul\":949:955   */\n  dup2\n    /* \"#utility.yul\":945:985   */\n  add\n    /* \"#utility.yul\":1087:1093   */\n  dup2\n    /* \"#utility.yul\":1075:1085   */\n  dup2\n    /* \"#utility.yul\":1072:1094   */\n  lt\n    /* \"#utility.yul\":1051:1069   */\n  0xffffffffffffffff\n    /* \"#utility.yul\":1039:1049   */\n  dup3\n    /* \"#utility.yul\":1036:1070   */\n  gt\n    /* \"#utility.yul\":1033:1095   */\n  or\n    /* \"#utility.yul\":1030:1118   */\n  iszero\n  tag_51\n  jumpi\n    /* \"#utility.yul\":1098:1116   */\n  tag_52\n  tag_15\n  jump\t// in\ntag_52:\n    /* \"#utility.yul\":1030:1118   */\ntag_51:\n    /* \"#utility.yul\":1138:1148   */\n  dup1\n    /* \"#utility.yul\":1134:1136   */\n  0x40\n    /* \"#utility.yul\":1127:1149   */\n  mstore\n    /* \"#utility.yul\":917:1155   */\n  pop\n    /* \"#utility.yul\":874:1155   */\n  pop\n  pop\n  jump\t// out\n    /* \"#utility.yul\":1161:1290   */\ntag_17:\n    /* \"#utility.yul\":1195:1201   */\n  0x00\n    /* \"#utility.yul\":1222:1242   */\n  tag_54\n  tag_9\n  jump\t// in\ntag_54:\n    /* \"#utility.yul\":1212:1242   */\n  swap1\n  pop\n    /* \"#utility.yul\":1251:1284   */\n  tag_55\n    /* \"#utility.yul\":1279:1283   */\n  dup3\n    /* \"#utility.yul\":1271:1277   */\n  dup3\n    /* \"#utility.yul\":1251:1284   */\n  tag_16\n  jump\t// in\ntag_55:\n    /* \"#utility.yul\":1161:1290   */\n  swap2\n  swap1\n  pop\n  jump\t// out\n    /* \"#utility.yul\":1296:1604   */\ntag_18:\n    /* \"#utility.yul\":1358:1362   */\n  0x00\n    /* \"#utility.yul\":1448:1466   */\n  0xffffffffffffffff\n    /* \"#utility.yul\":1440:1446   */\n  dup3\n    /* \"#utility.yul\":1437:1467   */\n  gt\n    /* \"#utility.yul\":1434:1490   */\n  iszero\n  tag_57\n  jumpi\n    /* \"#utility.yul\":1470:1488   */\n  tag_58\n  tag_15\n  jump\t// in\ntag_58:\n    /* \"#utility.yul\":1434:1490   */\ntag_57:\n    /* \"#utility.yul\":1508:1537   */\n  tag_59\n    /* \"#utility.yul\":1530:1536   */\n  dup3\n    /* \"#utility.yul\":1508:1537   */\n  tag_14\n  jump\t// in\ntag_59:\n    /* \"#utility.yul\":1500:1537   */\n  swap1\n  pop\n    /* \"#utility.yul\":1592:1596   */\n  0x20\n    /* \"#utility.yul\":1586:1590   */\n  dup2\n    /* \"#utility.yul\":1582:1597   */\n  add\n    /* \"#utility.yul\":1574:1597   */\n  swap1\n  pop\n    /* \"#utility.yul\":1296:1604   */\n  swap2\n  swap1\n  pop\n  jump\t// out\n    /* \"#utility.yul\":1610:1856   */\ntag_19:\n    /* \"#utility.yul\":1691:1692   */\n  0x00\n    /* \"#utility.yul\":1701:1814   */\ntag_61:\n    /* \"#utility.yul\":1715:1721   */\n  dup4\n    /* \"#utility.yul\":1712:1713   */\n  dup2\n    /* \"#utility.yul\":1709:1722   */\n  lt\n    /* \"#utility.yul\":1701:1814   */\n  iszero\n  tag_63\n  jumpi\n    /* \"#utility.yul\":1800:1801   */\n  dup1\n    /* \"#utility.yul\":1795:1798   */\n  dup3\n    /* \"#utility.yul\":1791:1802   */\n  add\n    /* \"#utility.yul\":1785:1803   */\n  mload\n    /* \"#utility.yul\":1781:1782   */\n  dup2\n    /* \"#utility.yul\":1776:1779   */\n  dup5\n    /* \"#utility.yul\":1772:1783   */\n  add\n    /* \"#utility.yul\":1765:1804   */\n  mstore\n    /* \"#utility.yul\":1737:1739   */\n  0x20\n    /* \"#utility.yul\":1734:1735   */\n  dup2\n    /* \"#utility.yul\":1730:1740   */\n  add\n    /* \"#utility.yul\":1725:1740   */\n  swap1\n  pop\n    /* \"#utility.yul\":1701:1814   */\n  jump(tag_61)\ntag_63:\n    /* \"#utility.yul\":1848:1849   */\n  0x00\n    /* \"#utility.yul\":1839:1845   */\n  dup5\n    /* \"#utility.yul\":1834:1837   */\n  dup5\n    /* \"#utility.yul\":1830:1846   */\n  add\n    /* \"#utility.yul\":1823:1850   */\n  mstore\n    /* \"#utility.yul\":1672:1856   */\n  pop\n    /* \"#utility.yul\":1610:1856   */\n  pop\n  pop\n  pop\n  jump\t// out\n    /* \"#utility.yul\":1862:2296   */\ntag_20:\n    /* \"#utility.yul\":1951:1956   */\n  0x00\n    /* \"#utility.yul\":1976:2042   */\n  tag_65\n    /* \"#utility.yul\":1992:2041   */\n  tag_66\n    /* \"#utility.yul\":2034:2040   */\n  dup5\n    /* \"#utility.yul\":1992:2041   */\n  tag_18\n  jump\t// in\ntag_66:\n    /* \"#utility.yul\":1976:2042   */\n  tag_17\n  jump\t// in\ntag_65:\n    /* \"#utility.yul\":1967:2042   */\n  swap1\n  pop\n    /* \"#utility.yul\":2065:2071   */\n  dup3\n    /* \"#utility.yul\":2058:2063   */\n  dup2\n    /* \"#utility.yul\":2051:2072   */\n  mstore\n    /* \"#utility.yul\":2103:2107   */\n  0x20\n    /* \"#utility.yul\":2096:2101   */\n  dup2\n    /* \"#utility.yul\":2092:2108   */\n  add\n    /* \"#utility.yul\":2141:2144   */\n  dup5\n    /* \"#utility.yul\":2132:2138   */\n  dup5\n    /* \"#utility.yul\":2127:2130   */\n  dup5\n    /* \"#utility.yul\":2123:2139   */\n  add\n    /* \"#utility.yul\":2120:2145   */\n  gt\n    /* \"#utility.yul\":2117:2229   */\n  iszero\n  tag_67\n  jumpi\n    /* \"#utility.yul\":2148:2227   */\n  tag_68\n  tag_13\n  jump\t// in\ntag_68:\n    /* \"#utility.yul\":2117:2229   */\ntag_67:\n    /* \"#utility.yul\":2238:2290   */\n  tag_69\n    /* \"#utility.yul\":2283:2289   */\n  dup5\n    /* \"#utility.yul\":2278:2281   */\n  dup3\n    /* \"#utility.yul\":2273:2276   */\n  dup6\n    /* \"#utility.yul\":2238:2290   */\n  tag_19\n  jump\t// in\ntag_69:\n    /* \"#utility.yul\":1957:2296   */\n  pop\n    /* \"#utility.yul\":1862:2296   */\n  swap4\n  swap3\n  pop\n  pop\n  pop\n  jump\t// out\n    /* \"#utility.yul\":2316:2671   */\ntag_21:\n    /* \"#utility.yul\":2383:2388   */\n  0x00\n    /* \"#utility.yul\":2432:2435   */\n  dup3\n    /* \"#utility.yul\":2425:2429   */\n  0x1f\n    /* \"#utility.yul\":2417:2423   */\n  dup4\n    /* \"#utility.yul\":2413:2430   */\n  add\n    /* \"#utility.yul\":2409:2436   */\n  slt\n    /* \"#utility.yul\":2399:2521   */\n  tag_71\n  jumpi\n    /* \"#utility.yul\":2440:2519   */\n  tag_72\n  tag_12\n  jump\t// in\ntag_72:\n    /* \"#utility.yul\":2399:2521   */\ntag_71:\n    /* \"#utility.yul\":2550:2556   */\n  dup2\n    /* \"#utility.yul\":2544:2557   */\n  mload\n    /* \"#utility.yul\":2575:2665   */\n  tag_73\n    /* \"#utility.yul\":2661:2664   */\n  dup5\n    /* \"#utility.yul\":2653:2659   */\n  dup3\n    /* \"#utility.yul\":2646:2650   */\n  0x20\n    /* \"#utility.yul\":2638:2644   */\n  dup7\n    /* \"#utility.yul\":2634:2651   */\n  add\n    /* \"#utility.yul\":2575:2665   */\n  tag_20\n  jump\t// in\ntag_73:\n    /* \"#utility.yul\":2566:2665   */\n  swap2\n  pop\n    /* \"#utility.yul\":2389:2671   */\n  pop\n    /* \"#utility.yul\":2316:2671   */\n  swap3\n  swap2\n  pop\n  pop\n  jump\t// out\n    /* \"#utility.yul\":2677:3201   */\ntag_3:\n    /* \"#utility.yul\":2757:2763   */\n  0x00\n    /* \"#utility.yul\":2806:2808   */\n  0x20\n    /* \"#utility.yul\":2794:2803   */\n  dup3\n    /* \"#utility.yul\":2785:2792   */\n  dup5\n    /* \"#utility.yul\":2781:2804   */\n  sub\n    /* \"#utility.yul\":2777:2809   */\n  slt\n    /* \"#utility.yul\":2774:2893   */\n  iszero\n  tag_75\n  jumpi\n    /* \"#utility.yul\":2812:2891   */\n  tag_76\n  tag_10\n  jump\t// in\ntag_76:\n    /* \"#utility.yul\":2774:2893   */\ntag_75:\n    /* \"#utility.yul\":2953:2954   */\n  0x00\n    /* \"#utility.yul\":2942:2951   */\n  dup3\n    /* \"#utility.yul\":2938:2955   */\n  add\n    /* \"#utility.yul\":2932:2956   */\n  mload\n    /* \"#utility.yul\":2983:3001   */\n  0xffffffffffffffff\n    /* \"#utility.yul\":2975:2981   */\n  dup2\n    /* \"#utility.yul\":2972:3002   */\n  gt\n    /* \"#utility.yul\":2969:3086   */\n  iszero\n  tag_77\n  jumpi\n    /* \"#utility.yul\":3005:3084   */\n  tag_78\n  tag_11\n  jump\t// in\ntag_78:\n    /* \"#utility.yul\":2969:3086   */\ntag_77:\n    /* \"#utility.yul\":3110:3184   */\n  tag_79\n    /* \"#utility.yul\":3176:3183   */\n  dup5\n    /* \"#utility.yul\":3167:3173   */\n  dup3\n    /* \"#utility.yul\":3156:3165   */\n  dup6\n    /* \"#utility.yul\":3152:3174   */\n  add\n    /* \"#utility.yul\":3110:3184   */\n  tag_21\n  jump\t// in\ntag_79:\n    /* \"#utility.yul\":3100:3184   */\n  swap2\n  pop\n    /* \"#utility.yul\":2903:3194   */\n  pop\n    /* \"#utility.yul\":2677:3201   */\n  swap3\n  swap2\n  pop\n  pop\n  jump\t// out\n    /* \"#utility.yul\":3207:3306   */\ntag_22:\n    /* \"#utility.yul\":3259:3265   */\n  0x00\n    /* \"#utility.yul\":3293:3298   */\n  dup2\n    /* \"#utility.yul\":3287:3299   */\n  mload\n    /* \"#utility.yul\":3277:3299   */\n  swap1\n  pop\n    /* \"#utility.yul\":3207:3306   */\n  swap2\n  swap1\n  pop\n  jump\t// out\n    /* \"#utility.yul\":3312:3492   */\ntag_23:\n    /* \"#utility.yul\":3360:3437   */\n  0x4e487b7100000000000000000000000000000000000000000000000000000000\n    /* \"#utility.yul\":3357:3358   */\n  0x00\n    /* \"#utility.yul\":3350:3438   */\n  mstore\n    /* \"#utility.yul\":3457:3461   */\n  0x22\n    /* \"#utility.yul\":3454:3455   */\n  0x04\n    /* \"#utility.yul\":3447:3462   */\n  mstore\n    /* \"#utility.yul\":3481:3485   */\n  0x24\n    /* \"#utility.yul\":3478:3479   */\n  0x00\n    /* \"#utility.yul\":3471:3486   */\n  revert\n    /* \"#utility.yul\":3498:3818   */\ntag_24:\n    /* \"#utility.yul\":3542:3548   */\n  0x00\n    /* \"#utility.yul\":3579:3580   */\n  0x02\n    /* \"#utility.yul\":3573:3577   */\n  dup3\n    /* \"#utility.yul\":3569:3581   */\n  div\n    /* \"#utility.yul\":3559:3581   */\n  swap1\n  pop\n    /* \"#utility.yul\":3626:3627   */\n  0x01\n    /* \"#utility.yul\":3620:3624   */\n  dup3\n    /* \"#utility.yul\":3616:3628   */\n  and\n    /* \"#utility.yul\":3647:3665   */\n  dup1\n    /* \"#utility.yul\":3637:3718   */\n  tag_83\n  jumpi\n    /* \"#utility.yul\":3703:3707   */\n  0x7f\n    /* \"#utility.yul\":3695:3701   */\n  dup3\n    /* \"#utility.yul\":3691:3708   */\n  and\n    /* \"#utility.yul\":3681:3708   */\n  swap2\n  pop\n    /* \"#utility.yul\":3637:3718   */\ntag_83:\n    /* \"#utility.yul\":3765:3767   */\n  0x20\n    /* \"#utility.yul\":3757:3763   */\n  dup3\n    /* \"#utility.yul\":3754:3768   */\n  lt\n    /* \"#utility.yul\":3734:3752   */\n  dup2\n    /* \"#utility.yul\":3731:3769   */\n  sub\n    /* \"#utility.yul\":3728:3812   */\n  tag_84\n  jumpi\n    /* \"#utility.yul\":3784:3802   */\n  tag_85\n  tag_23\n  jump\t// in\ntag_85:\n    /* \"#utility.yul\":3728:3812   */\ntag_84:\n    /* \"#utility.yul\":3549:3818   */\n  pop\n    /* \"#utility.yul\":3498:3818   */\n  swap2\n  swap1\n  pop\n  jump\t// out\n    /* \"#utility.yul\":3824:3965   */\ntag_25:\n    /* \"#utility.yul\":3873:3877   */\n  0x00\n    /* \"#utility.yul\":3896:3899   */\n  dup2\n    /* \"#utility.yul\":3888:3899   */\n  swap1\n  pop\n    /* \"#utility.yul\":3919:3922   */\n  dup2\n    /* \"#utility.yul\":3916:3917   */\n  0x00\n    /* \"#utility.yul\":3909:3923   */\n  mstore\n    /* \"#utility.yul\":3953:3957   */\n  0x20\n    /* \"#utility.yul\":3950:3951   */\n  0x00\n    /* \"#utility.yul\":3940:3958   */\n  keccak256\n    /* \"#utility.yul\":3932:3958   */\n  swap1\n  pop\n    /* \"#utility.yul\":3824:3965   */\n  swap2\n  swap1\n  pop\n  jump\t// out\n    /* \"#utility.yul\":3971:4064   */\ntag_26:\n    /* \"#utility.yul\":4008:4014   */\n  0x00\n    /* \"#utility.yul\":4055:4057   */\n  0x20\n    /* \"#utility.yul\":4050:4052   */\n  0x1f\n    /* \"#utility.yul\":4043:4048   */\n  dup4\n    /* \"#utility.yul\":4039:4053   */\n  add\n    /* \"#utility.yul\":4035:4058   */\n  div\n    /* \"#utility.yul\":4025:4058   */\n  swap1\n  pop\n    /* \"#utility.yul\":3971:4064   */\n  swap2\n  swap1\n  pop\n  jump\t// out\n    /* \"#utility.yul\":4070:4177   */\ntag_27:\n    /* \"#utility.yul\":4114:4122   */\n  0x00\n    /* \"#utility.yul\":4164:4169   */\n  dup3\n    /* \"#utility.yul\":4158:4162   */\n  dup3\n    /* \"#utility.yul\":4154:4170   */\n  shl\n    /* \"#utility.yul\":4133:4170   */\n  swap1\n  pop\n    /* \"#utility.yul\":4070:4177   */\n  swap3\n  swap2\n  pop\n  pop\n  jump\t// out\n    /* \"#utility.yul\":4183:4576   */\ntag_28:\n    /* \"#utility.yul\":4252:4258   */\n  0x00\n    /* \"#utility.yul\":4302:4303   */\n  0x08\n    /* \"#utility.yul\":4290:4300   */\n  dup4\n    /* \"#utility.yul\":4286:4304   */\n  mul\n    /* \"#utility.yul\":4325:4422   */\n  tag_90\n    /* \"#utility.yul\":4355:4421   */\n  0xffffffffffffffffffffffffffffffffffffffffffffffffffffffffffffffff\n    /* \"#utility.yul\":4344:4353   */\n  dup3\n    /* \"#utility.yul\":4325:4422   */\n  tag_27\n  jump\t// in\ntag_90:\n    /* \"#utility.yul\":4443:4482   */\n  tag_91\n    /* \"#utility.yul\":4473:4481   */\n  dup7\n    /* \"#utility.yul\":4462:4471   */\n  dup4\n    /* \"#utility.yul\":4443:4482   */\n  tag_27\n  jump\t// in\ntag_91:\n    /* \"#utility.yul\":4431:4482   */\n  swap6\n  pop\n    /* \"#utility.yul\":4515:4519   */\n  dup1\n    /* \"#utility.yul\":4511:4520   */\n  not\n    /* \"#utility.yul\":4504:4509   */\n  dup5\n    /* \"#utility.yul\":4500:4521   */\n  and\n    /* \"#utility.yul\":4491:4521   */\n  swap4\n  pop\n    /* \"#utility.yul\":4564:4568   */\n  dup1\n    /* \"#utility.yul\":4554:4562   */\n  dup7\n    /* \"#utility.yul\":4550:4569   */\n  and\n    /* \"#utility.yul\":4543:4548   */\n  dup5\n    /* \"#utility.yul\":4540:4570   */\n  or\n    /* \"#utility.yul\":4530:4570   */\n  swap3\n  pop\n    /* \"#utility.yul\":4259:4576   */\n  pop\n  pop\n    /* \"#utility.yul\":4183:4576   */\n  swap4\n  swap3\n  pop\n  pop\n  pop\n  jump\t// out\n    /* \"#utility.yul\":4582:4659   */\ntag_29:\n    /* \"#utility.yul\":4619:4626   */\n  0x00\n    /* \"#utility.yul\":4648:4653   */\n  dup2\n    /* \"#utility.yul\":4637:4653   */\n  swap1\n  pop\n    /* \"#utility.yul\":4582:4659   */\n  swap2\n  swap1\n  pop\n  jump\t// out\n    /* \"#utility.yul\":4665:4725   */\ntag_30:\n    /* \"#utility.yul\":4693:4696   */\n  0x00\n    /* \"#utility.yul\":4714:4719   */\n  dup2\n    /* \"#utility.yul\":4707:4719   */\n  swap1\n  pop\n    /* \"#utility.yul\":4665:4725   */\n  swap2\n  swap1\n  pop\n  jump\t// out\n    /* \"#utility.yul\":4731:4873   */\ntag_31:\n    /* \"#utility.yul\":4781:4790   */\n  0x00\n    /* \"#utility.yul\":4814:4867   */\n  tag_95\n    /* \"#utility.yul\":4832:4866   */\n  tag_96\n    /* \"#utility.yul\":4841:4865   */\n  tag_97\n    /* \"#utility.yul\":4859:4864   */\n  dup5\n    /* \"#utility.yul\":4841:4865   */\n  tag_29\n  jump\t// in\ntag_97:\n    /* \"#utility.yul\":4832:4866   */\n  tag_30\n  jump\t// in\ntag_96:\n    /* \"#utility.yul\":4814:4867   */\n  tag_29\n  jump\t// in\ntag_95:\n    /* \"#utility.yul\":4801:4867   */\n  swap1\n  pop\n    /* \"#utility.yul\":4731:4873   */\n  swap2\n  swap1\n  pop\n  jump\t// out\n    /* \"#utility.yul\":4879:4954   */\ntag_32:\n    /* \"#utility.yul\":4922:4925   */\n  0x00\n    /* \"#utility.yul\":4943:4948   */\n  dup2\n    /* \"#utility.yul\":4936:4948   */\n  swap1\n  pop\n    /* \"#utility.yul\":4879:4954   */\n  swap2\n  swap1\n  pop\n  jump\t// out\n    /* \"#utility.yul\":4960:5229   */\ntag_33:\n    /* \"#utility.yul\":5070:5109   */\n  tag_100\n    /* \"#utility.yul\":5101:5108   */\n  dup4\n    /* \"#utility.yul\":5070:5109   */\n  tag_31\n  jump\t// in\ntag_100:\n    /* \"#utility.yul\":5131:5222   */\n  tag_101\n    /* \"#utility.yul\":5180:5221   */\n  tag_102\n    /* \"#utility.yul\":5204:5220   */\n  dup3\n    /* \"#utility.yul\":5180:5221   */\n  tag_32\n  jump\t// in\ntag_102:\n    /* \"#utility.yul\":5172:5178   */\n  dup5\n    /* \"#utility.yul\":5165:5169   */\n  dup5\n    /* \"#utility.yul\":5159:5170   */\n  sload\n    /* \"#utility.yul\":5131:5222   */\n  tag_28\n  jump\t// in\ntag_101:\n    /* \"#utility.yul\":5125:5129   */\n  dup3\n    /* \"#utility.yul\":5118:5223   */\n  sstore\n    /* \"#utility.yul\":5036:5229   */\n  pop\n    /* \"#utility.yul\":4960:5229   */\n  pop\n  pop\n  pop\n  jump\t// out\n    /* \"#utility.yul\":5235:5308   */\ntag_34:\n    /* \"#utility.yul\":5280:5283   */\n  0x00\n    /* \"#utility.yul\":5235:5308   */\n  swap1\n  jump\t// out\n    /* \"#utility.yul\":5314:5503   */\ntag_35:\n    /* \"#utility.yul\":5391:5423   */\n  tag_105\n  tag_34\n  jump\t// in\ntag_105:\n    /* \"#utility.yul\":5432:5497   */\n  tag_106\n    /* \"#utility.yul\":5490:5496   */\n  dup2\n    /* \"#utility.yul\":5482:5488   */\n  dup5\n    /* \"#utility.yul\":5476:5480   */\n  dup5\n    /* \"#utility.yul\":5432:5497   */\n  tag_33\n  jump\t// in\ntag_106:\n    /* \"#utility.yul\":5367:5503   */\n  pop\n    /* \"#utility.yul\":5314:5503   */\n  pop\n  pop\n  jump\t// out\n    /* \"#utility.yul\":5509:5695   */\ntag_36:\n    /* \"#utility.yul\":5569:5689   */\ntag_108:\n    /* \"#utility.yul\":5586:5589   */\n  dup2\n    /* \"#utility.yul\":5579:5584   */\n  dup2\n    /* \"#utility.yul\":5576:5590   */\n  lt\n    /* \"#utility.yul\":5569:5689   */\n  iszero\n  tag_110\n  jumpi\n    /* \"#utility.yul\":5640:5679   */\n  tag_111\n    /* \"#utility.yul\":5677:5678   */\n  0x00\n    /* \"#utility.yul\":5670:5675   */\n  dup3\n    /* \"#utility.yul\":5640:5679   */\n  tag_35\n  jump\t// in\ntag_111:\n    /* \"#utility.yul\":5613:5614   */\n  0x01\n    /* \"#utility.yul\":5606:5611   */\n  dup2\n    /* \"#utility.yul\":5602:5615   */\n  add\n    /* \"#utility.yul\":5593:5615   */\n  swap1\n  pop\n    /* \"#utility.yul\":5569:5689   */\n  jump(tag_108)\ntag_110:\n    /* \"#utility.yul\":5509:5695   */\n  pop\n  pop\n  jump\t// out\n    /* \"#utility.yul\":5701:6244   */\ntag_37:\n    /* \"#utility.yul\":5802:5804   */\n  0x1f\n    /* \"#utility.yul\":5797:5800   */\n  dup3\n    /* \"#utility.yul\":5794:5805   */\n  gt\n    /* \"#utility.yul\":5791:6237   */\n  iszero\n  tag_113\n  jumpi\n    /* \"#utility.yul\":5836:5874   */\n  tag_114\n    /* \"#utility.yul\":5868:5873   */\n  dup2\n    /* \"#utility.yul\":5836:5874   */\n  tag_25\n  jump\t// in\ntag_114:\n    /* \"#utility.yul\":5920:5949   */\n  tag_115\n    /* \"#utility.yul\":5938:5948   */\n  dup5\n    /* \"#utility.yul\":5920:5949   */\n  tag_26\n  jump\t// in\ntag_115:\n    /* \"#utility.yul\":5910:5918   */\n  dup2\n    /* \"#utility.yul\":5906:5950   */\n  add\n    /* \"#utility.yul\":6103:6105   */\n  0x20\n    /* \"#utility.yul\":6091:6101   */\n  dup6\n    /* \"#utility.yul\":6088:6106   */\n  lt\n    /* \"#utility.yul\":6085:6134   */\n  iszero\n  tag_116\n  jumpi\n    /* \"#utility.yul\":6124:6132   */\n  dup2\n    /* \"#utility.yul\":6109:6132   */\n  swap1\n  pop\n    /* \"#utility.yul\":6085:6134   */\ntag_116:\n    /* \"#utility.yul\":6147:6227   */\n  tag_117\n    /* \"#utility.yul\":6203:6225   */\n  tag_118\n    /* \"#utility.yul\":6221:6224   */\n  dup6\n    /* \"#utility.yul\":6203:6225   */\n  tag_26\n  jump\t// in\ntag_118:\n    /* \"#utility.yul\":6193:6201   */\n  dup4\n    /* \"#utility.yul\":6189:6226   */\n  add\n    /* \"#utility.yul\":6176:6187   */\n  dup3\n    /* \"#utility.yul\":6147:6227   */\n  tag_36\n  jump\t// in\ntag_117:\n    /* \"#utility.yul\":5806:6237   */\n  pop\n  pop\n    /* \"#utility.yul\":5791:6237   */\ntag_113:\n    /* \"#utility.yul\":5701:6244   */\n  pop\n  pop\n  pop\n  jump\t// out\n    /* \"#utility.yul\":6250:6367   */\ntag_38:\n    /* \"#utility.yul\":6304:6312   */\n  0x00\n    /* \"#utility.yul\":6354:6359   */\n  dup3\n    /* \"#utility.yul\":6348:6352   */\n  dup3\n    /* \"#utility.yul\":6344:6360   */\n  shr\n    /* \"#utility.yul\":6323:6360   */\n  swap1\n  pop\n    /* \"#utility.yul\":6250:6367   */\n  swap3\n  swap2\n  pop\n  pop\n  jump\t// out\n    /* \"#utility.yul\":6373:6542   */\ntag_39:\n    /* \"#utility.yul\":6417:6423   */\n  0x00\n    /* \"#utility.yul\":6450:6501   */\n  tag_121\n    /* \"#utility.yul\":6498:6499   */\n  0x00\n    /* \"#utility.yul\":6494:6500   */\n  not\n    /* \"#utility.yul\":6486:6491   */\n  dup5\n    /* \"#utility.yul\":6483:6484   */\n  0x08\n    /* \"#utility.yul\":6479:6492   */\n  mul\n    /* \"#utility.yul\":6450:6501   */\n  tag_38\n  jump\t// in\ntag_121:\n    /* \"#utility.yul\":6446:6502   */\n  not\n    /* \"#utility.yul\":6531:6535   */\n  dup1\n    /* \"#utility.yul\":6525:6529   */\n  dup4\n    /* \"#utility.yul\":6521:6536   */\n  and\n    /* \"#utility.yul\":6511:6536   */\n  swap2\n  pop\n    /* \"#utility.yul\":6424:6542   */\n  pop\n    /* \"#utility.yul\":6373:6542   */\n  swap3\n  swap2\n  pop\n  pop\n  jump\t// out\n    /* \"#utility.yul\":6547:6842   */\ntag_40:\n    /* \"#utility.yul\":6623:6627   */\n  0x00\n    /* \"#utility.yul\":6769:6798   */\n  tag_123\n    /* \"#utility.yul\":6794:6797   */\n  dup4\n    /* \"#utility.yul\":6788:6792   */\n  dup4\n    /* \"#utility.yul\":6769:6798   */\n  tag_39\n  jump\t// in\ntag_123:\n    /* \"#utility.yul\":6761:6798   */\n  swap2\n  pop\n    /* \"#utility.yul\":6831:6834   */\n  dup3\n    /* \"#utility.yul\":6828:6829   */\n  0x02\n    /* \"#utility.yul\":6824:6835   */\n  mul\n    /* \"#utility.yul\":6818:6822   */\n  dup3\n    /* \"#utility.yul\":6815:6836   */\n  or\n    /* \"#utility.yul\":6807:6836   */\n  swap1\n  pop\n    /* \"#utility.yul\":6547:6842   */\n  swap3\n  swap2\n  pop\n  pop\n  jump\t// out\n    /* \"#utility.yul\":6847:8242   */\ntag_7:\n    /* \"#utility.yul\":6964:7001   */\n  tag_125\n    /* \"#utility.yul\":6997:7000   */\n  dup3\n    /* \"#utility.yul\":6964:7001   */\n  tag_22\n  jump\t// in\ntag_125:\n    /* \"#utility.yul\":7066:7084   */\n  0xffffffffffffffff\n    /* \"#utility.yul\":7058:7064   */\n  dup2\n    /* \"#utility.yul\":7055:7085   */\n  gt\n    /* \"#utility.yul\":7052:7108   */\n  iszero\n  tag_126\n  jumpi\n    /* \"#utility.yul\":7088:7106   */\n  tag_127\n  tag_15\n  jump\t// in\ntag_127:\n    /* \"#utility.yul\":7052:7108   */\ntag_126:\n    /* \"#utility.yul\":7132:7170   */\n  tag_128\n    /* \"#utility.yul\":7164:7168   */\n  dup3\n    /* \"#utility.yul\":7158:7169   */\n  sload\n    /* \"#utility.yul\":7132:7170   */\n  tag_24\n  jump\t// in\ntag_128:\n    /* \"#utility.yul\":7217:7284   */\n  tag_129\n    /* \"#utility.yul\":7277:7283   */\n  dup3\n    /* \"#utility.yul\":7269:7275   */\n  dup3\n    /* \"#utility.yul\":7263:7267   */\n  dup6\n    /* \"#utility.yul\":7217:7284   */\n  tag_37\n  jump\t// in\ntag_129:\n    /* \"#utility.yul\":7311:7312   */\n  0x00\n    /* \"#utility.yul\":7335:7339   */\n  0x20\n    /* \"#utility.yul\":7322:7339   */\n  swap1\n  pop\n    /* \"#utility.yul\":7367:7369   */\n  0x1f\n    /* \"#utility.yul\":7359:7365   */\n  dup4\n    /* \"#utility.yul\":7356:7370   */\n  gt\n    /* \"#utility.yul\":7384:7385   */\n  0x01\n    /* \"#utility.yul\":7379:7997   */\n  dup2\n  eq\n  tag_131\n  jumpi\n    /* \"#utility.yul\":8041:8042   */\n  0x00\n    /* \"#utility.yul\":8058:8064   */\n  dup5\n    /* \"#utility.yul\":8055:8132   */\n  iszero\n  tag_132\n  jumpi\n    /* \"#utility.yul\":8107:8116   */\n  dup3\n    /* \"#utility.yul\":8102:8105   */\n  dup8\n    /* \"#utility.yul\":8098:8117   */\n  add\n    /* \"#utility.yul\":8092:8118   */\n  mload\n    /* \"#utility.yul\":8083:8118   */\n  swap1\n  pop\n    /* \"#utility.yul\":8055:8132   */\ntag_132:\n    /* \"#utility.yul\":8158:8225   */\n  tag_133\n    /* \"#utility.yul\":8218:8224   */\n  dup6\n    /* \"#utility.yul\":8211:8216   */\n  dup3\n    /* \"#utility.yul\":8158:8225   */\n  tag_40\n  jump\t// in\ntag_133:\n    /* \"#utility.yul\":8152:8156   */\n  dup7\n    /* \"#utility.yul\":8145:8226   */\n  sstore\n    /* \"#utility.yul\":8014:8236   */\n  pop\n    /* \"#utility.yul\":7349:8236   */\n  jump(tag_130)\n    /* \"#utility.yul\":7379:7997   */\ntag_131:\n    /* \"#utility.yul\":7431:7435   */\n  0x1f\n    /* \"#utility.yul\":7427:7436   */\n  not\n    /* \"#utility.yul\":7419:7425   */\n  dup5\n    /* \"#utility.yul\":7415:7437   */\n  and\n    /* \"#utility.yul\":7465:7502   */\n  tag_134\n    /* \"#utility.yul\":7497:7501   */\n  dup7\n    /* \"#utility.yul\":7465:7502   */\n  tag_25\n  jump\t// in\ntag_134:\n    /* \"#utility.yul\":7524:7525   */\n  0x00\n    /* \"#utility.yul\":7538:7746   */\ntag_135:\n    /* \"#utility.yul\":7552:7559   */\n  dup3\n    /* \"#utility.yul\":7549:7550   */\n  dup2\n    /* \"#utility.yul\":7546:7560   */\n  lt\n    /* \"#utility.yul\":7538:7746   */\n  iszero\n  tag_137\n  jumpi\n    /* \"#utility.yul\":7631:7640   */\n  dup5\n    /* \"#utility.yul\":7626:7629   */\n  dup10\n    /* \"#utility.yul\":7622:7641   */\n  add\n    /* \"#utility.yul\":7616:7642   */\n  mload\n    /* \"#utility.yul\":7608:7614   */\n  dup3\n    /* \"#utility.yul\":7601:7643   */\n  sstore\n    /* \"#utility.yul\":7682:7683   */\n  0x01\n    /* \"#utility.yul\":7674:7680   */\n  dup3\n    /* \"#utility.yul\":7670:7684   */\n  add\n    /* \"#utility.yul\":7660:7684   */\n  swap2\n  pop\n    /* \"#utility.yul\":7729:7731   */\n  0x20\n    /* \"#utility.yul\":7718:7727   */\n  dup6\n    /* \"#utility.yul\":7714:7732   */\n  add\n    /* \"#utility.yul\":7701:7732   */\n  swap5\n  pop\n    /* \"#utility.yul\":7575:7579   */\n  0x20\n    /* \"#utility.yul\":7572:7573   */\n  dup2\n    /* \"#utility.yul\":7568:7580   */\n  add\n    /* \"#utility.yul\":7563:7580   */\n  swap1\n  pop\n    /* \"#utility.yul\":7538:7746   */\n  jump(tag_135)\ntag_137:\n    /* \"#utility.yul\":7774:7780   */\n  dup7\n    /* \"#utility.yul\":7765:7772   */\n  dup4\n    /* \"#utility.yul\":7762:7781   */\n  lt\n    /* \"#utility.yul\":7759:7938   */\n  iszero\n  tag_138\n  jumpi\n    /* \"#utility.yul\":7832:7841   */\n  dup5\n    /* \"#utility.yul\":7827:7830   */\n  dup10\n    /* \"#utility.yul\":7823:7842   */\n  add\n    /* \"#utility.yul\":7817:7843   */\n  mload\n    /* \"#utility.yul\":7875:7923   */\n  tag_139\n    /* \"#utility.yul\":7917:7921   */\n  0x1f\n    /* \"#utility.yul\":7909:7915   */\n  dup10\n    /* \"#utility.yul\":7905:7922   */\n  and\n    /* \"#utility.yul\":7894:7903   */\n  dup3\n    /* \"#utility.yul\":7875:7923   */\n  tag_39\n  jump\t// in\ntag_139:\n    /* \"#utility.yul\":7867:7873   */\n  dup4\n    /* \"#utility.yul\":7860:7924   */\n  sstore\n    /* \"#utility.yul\":7782:7938   */\n  pop\n    /* \"#utility.yul\":7759:7938   */\ntag_138:\n    /* \"#utility.yul\":7984:7985   */\n  0x01\n    /* \"#utility.yul\":7980:7981   */\n  0x02\n    /* \"#utility.yul\":7972:7978   */\n  dup9\n    /* \"#utility.yul\":7968:7982   */\n  mul\n    /* \"#utility.yul\":7964:7986   */\n  add\n    /* \"#utility.yul\":7958:7962   */\n  dup9\n    /* \"#utility.yul\":7951:7987   */\n  sstore\n    /* \"#utility.yul\":7386:7997   */\n  pop\n  pop\n  pop\n    /* \"#utility.yul\":7349:8236   */\ntag_130:\n  pop\n    /* \"#utility.yul\":6939:8242   */\n  pop\n  pop\n  pop\n    /* \"#utility.yul\":6847:8242   */\n  pop\n  pop\n  jump\t// out\n    /* \"contracts/LP.sol\":177:609  contract LP is ERC20 {... */\ntag_8:\n  dataSize(sub_0)\n  dup1\n  dataOffset(sub_0)\n  0x00\n  codecopy\n  0x00\n  return\nstop\n\nsub_0: assembly {\n        /* \"contracts/LP.sol\":177:609  contract LP is ERC20 {... */\n      mstore(0x40, 0x80)\n      callvalue\n      dup1\n      iszero\n      tag_1\n      jumpi\n      0x00\n      dup1\n      revert\n    tag_1:\n      pop\n      jumpi(tag_2, lt(calldatasize, 0x04))\n      shr(0xe0, calldataload(0x00))\n      dup1\n      0x70a08231\n      gt\n      tag_15\n      jumpi\n      dup1\n      0x70a08231\n      eq\n      tag_9\n      jumpi\n      dup1\n      0x7ecebe00\n      eq\n      tag_10\n      jumpi\n      dup1\n      0x95d89b41\n      eq\n      tag_11\n      jumpi\n      dup1\n      0xa9059cbb\n      eq\n      tag_12\n      jumpi\n      dup1\n      0xd505accf\n      eq\n      tag_13\n      jumpi\n      dup1\n      0xdd62ed3e\n      eq\n      tag_14\n      jumpi\n      jump(tag_2)\n    tag_15:\n      dup1\n      0x06fdde03\n      eq\n      tag_3\n      jumpi\n      dup1\n      0x095ea7b3\n      eq\n      tag_4\n      jumpi\n      dup1\n      0x18160ddd\n      eq\n      tag_5\n      jumpi\n      dup1\n      0x23b872dd\n      eq\n      tag_6\n      jumpi\n      dup1\n      0x313ce567\n      eq\n      tag_7\n      jumpi\n      dup1\n      0x3644e515\n      eq\n      tag_8\n      jumpi\n    tag_2:\n      0x00\n      dup1\n      revert\n        /* \"contracts/LP.sol\":391:506  function name() public view override returns(string memory) {... */\n    tag_3:\n      tag_16\n      tag_17\n      jump\t// in\n    tag_16:\n      mload(0x40)\n      tag_18\n      swap2\n      swap1\n      tag_19\n      jump\t// in\n    tag_18:\n      mload(0x40)\n      dup1\n      swap2\n      sub\n      swap1\n      return\n        /* \"https://github.com/Vectorized/solady/blob/e4a14a5b365b353352f7c38e699a2bc9363d6576/src/tokens/ERC20.sol\":7435:8008  function approve(address spender, uint256 amount) public virtual returns (bool) {... */\n    tag_4:\n      tag_20\n      0x04\n      dup1\n      calldatasize\n      sub\n      dup2\n      add\n      swap1\n      tag_21\n      swap2\n      swap1\n      tag_22\n      jump\t// in\n    tag_21:\n      tag_23\n      jump\t// in\n    tag_20:\n      mload(0x40)\n      tag_24\n      swap2\n      swap1\n      tag_25\n      jump\t// in\n    tag_24:\n      mload(0x40)\n      dup1\n      swap2\n      sub\n      swap1\n      return\n        /* \"https://github.com/Vectorized/solady/blob/e4a14a5b365b353352f7c38e699a2bc9363d6576/src/tokens/ERC20.sol\":6287:6482  function totalSupply() public view virtual returns (uint256 result) {... */\n    tag_5:\n      tag_26\n      tag_27\n      jump\t// in\n    tag_26:\n      mload(0x40)\n      tag_28\n      swap2\n      swap1\n      tag_29\n      jump\t// in\n    tag_28:\n      mload(0x40)\n      dup1\n      swap2\n      sub\n      swap1\n      return\n        /* \"https://github.com/Vectorized/solady/blob/e4a14a5b365b353352f7c38e699a2bc9363d6576/src/tokens/ERC20.sol\":9969:12160  function transferFrom(address from, address to, uint256 amount) public virtual returns (bool) {... */\n    tag_6:\n      tag_30\n      0x04\n      dup1\n      calldatasize\n      sub\n      dup2\n      add\n      swap1\n      tag_31\n      swap2\n      swap1\n      tag_32\n      jump\t// in\n    tag_31:\n      tag_33\n      jump\t// in\n    tag_30:\n      mload(0x40)\n      tag_34\n      swap2\n      swap1\n      tag_25\n      jump\t// in\n    tag_34:\n      mload(0x40)\n      dup1\n      swap2\n      sub\n      swap1\n      return\n        /* \"https://github.com/Vectorized/solady/blob/e4a14a5b365b353352f7c38e699a2bc9363d6576/src/tokens/ERC20.sol\":5860:5942  function decimals() public view virtual returns (uint8) {... */\n    tag_7:\n      tag_35\n      tag_36\n      jump\t// in\n    tag_35:\n      mload(0x40)\n      tag_37\n      swap2\n      swap1\n      tag_38\n      jump\t// in\n    tag_37:\n      mload(0x40)\n      dup1\n      swap2\n      sub\n      swap1\n      return\n        /* \"https://github.com/Vectorized/solady/blob/e4a14a5b365b353352f7c38e699a2bc9363d6576/src/tokens/ERC20.sol\":16620:17313  function DOMAIN_SEPARATOR() public view virtual returns (bytes32 result) {... */\n    tag_8:\n      tag_39\n      tag_40\n      jump\t// in\n    tag_39:\n      mload(0x40)\n      tag_41\n      swap2\n      swap1\n      tag_42\n      jump\t// in\n    tag_41:\n      mload(0x40)\n      dup1\n      swap2\n      sub\n      swap1\n      return\n        /* \"https://github.com/Vectorized/solady/blob/e4a14a5b365b353352f7c38e699a2bc9363d6576/src/tokens/ERC20.sol\":6548:6834  function balanceOf(address owner) public view virtual returns (uint256 result) {... */\n    tag_9:\n      tag_43\n      0x04\n      dup1\n      calldatasize\n      sub\n      dup2\n      add\n      swap1\n      tag_44\n      swap2\n      swap1\n      tag_45\n      jump\t// in\n    tag_44:\n      tag_46\n      jump\t// in\n    tag_43:\n      mload(0x40)\n      tag_47\n      swap2\n      swap1\n      tag_29\n      jump\t// in\n    tag_47:\n      mload(0x40)\n      dup1\n      swap2\n      sub\n      swap1\n      return\n        /* \"https://github.com/Vectorized/solady/blob/e4a14a5b365b353352f7c38e699a2bc9363d6576/src/tokens/ERC20.sol\":12800:13140  function nonces(address owner) public view virtual returns (uint256 result) {... */\n    tag_10:\n      tag_48\n      0x04\n      dup1\n      calldatasize\n      sub\n      dup2\n      add\n      swap1\n      tag_49\n      swap2\n      swap1\n      tag_45\n      jump\t// in\n    tag_49:\n      tag_50\n      jump\t// in\n    tag_48:\n      mload(0x40)\n      tag_51\n      swap2\n      swap1\n      tag_29\n      jump\t// in\n    tag_51:\n      mload(0x40)\n      dup1\n      swap2\n      sub\n      swap1\n      return\n        /* \"contracts/LP.sol\":512:606  function symbol() public view override returns(string memory) {... */\n    tag_11:\n      tag_52\n      tag_53\n      jump\t// in\n    tag_52:\n      mload(0x40)\n      tag_54\n      swap2\n      swap1\n      tag_19\n      jump\t// in\n    tag_54:\n      mload(0x40)\n      dup1\n      swap2\n      sub\n      swap1\n      return\n        /* \"https://github.com/Vectorized/solady/blob/e4a14a5b365b353352f7c38e699a2bc9363d6576/src/tokens/ERC20.sol\":8195:9601  function transfer(address to, uint256 amount) public virtual returns (bool) {... */\n    tag_12:\n      tag_55\n      0x04\n      dup1\n      calldatasize\n      sub\n      dup2\n      add\n      swap1\n      tag_56\n      swap2\n      swap1\n      tag_22\n      jump\t// in\n    tag_56:\n      tag_57\n      jump\t// in\n    tag_55:\n      mload(0x40)\n      tag_58\n      swap2\n      swap1\n      tag_25\n      jump\t// in\n    tag_58:\n      mload(0x40)\n      dup1\n      swap2\n      sub\n      swap1\n      return\n        /* \"https://github.com/Vectorized/solady/blob/e4a14a5b365b353352f7c38e699a2bc9363d6576/src/tokens/ERC20.sol\":13324:16539  function permit(... */\n    tag_13:\n      tag_59\n      0x04\n      dup1\n      calldatasize\n      sub\n      dup2\n      add\n      swap1\n      tag_60\n      swap2\n      swap1\n      tag_61\n      jump\t// in\n    tag_60:\n      tag_62\n      jump\t// in\n    tag_59:\n      stop\n        /* \"https://github.com/Vectorized/solady/blob/e4a14a5b365b353352f7c38e699a2bc9363d6576/src/tokens/ERC20.sol\":6929:7304  function allowance(address owner, address spender)... */\n    tag_14:\n      tag_63\n      0x04\n      dup1\n      calldatasize\n      sub\n      dup2\n      add\n      swap1\n      tag_64\n      swap2\n      swap1\n      tag_65\n      jump\t// in\n    tag_64:\n      tag_66\n      jump\t// in\n    tag_63:\n      mload(0x40)\n      tag_67\n      swap2\n      swap1\n      tag_29\n      jump\t// in\n    tag_67:\n      mload(0x40)\n      dup1\n      swap2\n      sub\n      swap1\n      return\n        /* \"contracts/LP.sol\":391:506  function name() public view override returns(string memory) {... */\n    tag_17:\n        /* \"contracts/LP.sol\":436:449  string memory */\n      0x60\n        /* \"contracts/LP.sol\":483:489  PREFIX */\n      mload(0x40)\n      dup1\n      0x40\n      add\n      0x40\n      mstore\n      dup1\n      0x05\n      dup2\n      mstore\n      0x20\n      add\n      0x4d494e492d000000000000000000000000000000000000000000000000000000\n      dup2\n      mstore\n      pop\n        /* \"contracts/LP.sol\":491:497  s_name */\n      0x00\n        /* \"contracts/LP.sol\":469:498  string.concat(PREFIX, s_name) */\n      add(0x20, mload(0x40))\n      tag_69\n      swap3\n      swap2\n      swap1\n      tag_70\n      jump\t// in\n    tag_69:\n      mload(0x40)\n      0x20\n      dup2\n      dup4\n      sub\n      sub\n      dup2\n      mstore\n      swap1\n      0x40\n      mstore\n        /* \"contracts/LP.sol\":462:498  return string.concat(PREFIX, s_name) */\n      swap1\n      pop\n        /* \"contracts/LP.sol\":391:506  function name() public view override returns(string memory) {... */\n      swap1\n      jump\t// out\n        /* \"https://github.com/Vectorized/solady/blob/e4a14a5b365b353352f7c38e699a2bc9363d6576/src/tokens/ERC20.sol\":7435:8008  function approve(address spender, uint256 amount) public virtual returns (bool) {... */\n    tag_23:\n        /* \"https://github.com/Vectorized/solady/blob/e4a14a5b365b353352f7c38e699a2bc9363d6576/src/tokens/ERC20.sol\":7509:7513  bool */\n      0x00\n        /* \"https://github.com/Vectorized/solady/blob/e4a14a5b365b353352f7c38e699a2bc9363d6576/src/tokens/ERC20.sol\":7668:7675  spender */\n      dup3\n        /* \"https://github.com/Vectorized/solady/blob/e4a14a5b365b353352f7c38e699a2bc9363d6576/src/tokens/ERC20.sol\":7662:7666  0x20 */\n      0x20\n        /* \"https://github.com/Vectorized/solady/blob/e4a14a5b365b353352f7c38e699a2bc9363d6576/src/tokens/ERC20.sol\":7655:7676  mstore(0x20, spender) */\n      mstore\n        /* \"https://github.com/Vectorized/solady/blob/e4a14a5b365b353352f7c38e699a2bc9363d6576/src/tokens/ERC20.sol\":7702:7722  _ALLOWANCE_SLOT_SEED */\n      0x7f5e9f20\n        /* \"https://github.com/Vectorized/solady/blob/e4a14a5b365b353352f7c38e699a2bc9363d6576/src/tokens/ERC20.sol\":7696:7700  0x0c */\n      0x0c\n        /* \"https://github.com/Vectorized/solady/blob/e4a14a5b365b353352f7c38e699a2bc9363d6576/src/tokens/ERC20.sol\":7689:7723  mstore(0x0c, _ALLOWANCE_SLOT_SEED) */\n      mstore\n        /* \"https://github.com/Vectorized/solady/blob/e4a14a5b365b353352f7c38e699a2bc9363d6576/src/tokens/ERC20.sol\":7749:7757  caller() */\n      caller\n        /* \"https://github.com/Vectorized/solady/blob/e4a14a5b365b353352f7c38e699a2bc9363d6576/src/tokens/ERC20.sol\":7743:7747  0x00 */\n      0x00\n        /* \"https://github.com/Vectorized/solady/blob/e4a14a5b365b353352f7c38e699a2bc9363d6576/src/tokens/ERC20.sol\":7736:7758  mstore(0x00, caller()) */\n      mstore\n        /* \"https://github.com/Vectorized/solady/blob/e4a14a5b365b353352f7c38e699a2bc9363d6576/src/tokens/ERC20.sol\":7801:7807  amount */\n      dup2\n        /* \"https://github.com/Vectorized/solady/blob/e4a14a5b365b353352f7c38e699a2bc9363d6576/src/tokens/ERC20.sol\":7794:7798  0x34 */\n      0x34\n        /* \"https://github.com/Vectorized/solady/blob/e4a14a5b365b353352f7c38e699a2bc9363d6576/src/tokens/ERC20.sol\":7788:7792  0x0c */\n      0x0c\n        /* \"https://github.com/Vectorized/solady/blob/e4a14a5b365b353352f7c38e699a2bc9363d6576/src/tokens/ERC20.sol\":7778:7799  keccak256(0x0c, 0x34) */\n      keccak256\n        /* \"https://github.com/Vectorized/solady/blob/e4a14a5b365b353352f7c38e699a2bc9363d6576/src/tokens/ERC20.sol\":7771:7808  sstore(keccak256(0x0c, 0x34), amount) */\n      sstore\n        /* \"https://github.com/Vectorized/solady/blob/e4a14a5b365b353352f7c38e699a2bc9363d6576/src/tokens/ERC20.sol\":7876:7882  amount */\n      dup2\n        /* \"https://github.com/Vectorized/solady/blob/e4a14a5b365b353352f7c38e699a2bc9363d6576/src/tokens/ERC20.sol\":7870:7874  0x00 */\n      0x00\n        /* \"https://github.com/Vectorized/solady/blob/e4a14a5b365b353352f7c38e699a2bc9363d6576/src/tokens/ERC20.sol\":7863:7883  mstore(0x00, amount) */\n      mstore\n        /* \"https://github.com/Vectorized/solady/blob/e4a14a5b365b353352f7c38e699a2bc9363d6576/src/tokens/ERC20.sol\":7964:7968  0x2c */\n      0x2c\n        /* \"https://github.com/Vectorized/solady/blob/e4a14a5b365b353352f7c38e699a2bc9363d6576/src/tokens/ERC20.sol\":7958:7969  mload(0x2c) */\n      mload\n        /* \"https://github.com/Vectorized/solady/blob/e4a14a5b365b353352f7c38e699a2bc9363d6576/src/tokens/ERC20.sol\":7954:7956  96 */\n      0x60\n        /* \"https://github.com/Vectorized/solady/blob/e4a14a5b365b353352f7c38e699a2bc9363d6576/src/tokens/ERC20.sol\":7950:7970  shr(96, mload(0x2c)) */\n      shr\n        /* \"https://github.com/Vectorized/solady/blob/e4a14a5b365b353352f7c38e699a2bc9363d6576/src/tokens/ERC20.sol\":7940:7948  caller() */\n      caller\n        /* \"https://github.com/Vectorized/solady/blob/e4a14a5b365b353352f7c38e699a2bc9363d6576/src/tokens/ERC20.sol\":7913:7938  _APPROVAL_EVENT_SIGNATURE */\n      0x8c5be1e5ebec7d5bd14f71427d1e84f3dd0314c0f7b2291e5b200ac8c7c3b925\n        /* \"https://github.com/Vectorized/solady/blob/e4a14a5b365b353352f7c38e699a2bc9363d6576/src/tokens/ERC20.sol\":7907:7911  0x20 */\n      0x20\n        /* \"https://github.com/Vectorized/solady/blob/e4a14a5b365b353352f7c38e699a2bc9363d6576/src/tokens/ERC20.sol\":7901:7905  0x00 */\n      0x00\n        /* \"https://github.com/Vectorized/solady/blob/e4a14a5b365b353352f7c38e699a2bc9363d6576/src/tokens/ERC20.sol\":7896:7971  log3(0x00, 0x20, _APPROVAL_EVENT_SIGNATURE, caller(), shr(96, mload(0x2c))) */\n      log3\n        /* \"https://github.com/Vectorized/solady/blob/e4a14a5b365b353352f7c38e699a2bc9363d6576/src/tokens/ERC20.sol\":7997:8001  true */\n      0x01\n        /* \"https://github.com/Vectorized/solady/blob/e4a14a5b365b353352f7c38e699a2bc9363d6576/src/tokens/ERC20.sol\":7990:8001  return true */\n      swap1\n      pop\n        /* \"https://github.com/Vectorized/solady/blob/e4a14a5b365b353352f7c38e699a2bc9363d6576/src/tokens/ERC20.sol\":7435:8008  function approve(address spender, uint256 amount) public virtual returns (bool) {... */\n      swap3\n      swap2\n      pop\n      pop\n      jump\t// out\n        /* \"https://github.com/Vectorized/solady/blob/e4a14a5b365b353352f7c38e699a2bc9363d6576/src/tokens/ERC20.sol\":6287:6482  function totalSupply() public view virtual returns (uint256 result) {... */\n    tag_27:\n        /* \"https://github.com/Vectorized/solady/blob/e4a14a5b365b353352f7c38e699a2bc9363d6576/src/tokens/ERC20.sol\":6339:6353  uint256 result */\n      0x00\n        /* \"https://github.com/Vectorized/solady/blob/e4a14a5b365b353352f7c38e699a2bc9363d6576/src/tokens/ERC20.sol\":6447:6465  _TOTAL_SUPPLY_SLOT */\n      0x05345cdf77eb68f44c\n        /* \"https://github.com/Vectorized/solady/blob/e4a14a5b365b353352f7c38e699a2bc9363d6576/src/tokens/ERC20.sol\":6441:6466  sload(_TOTAL_SUPPLY_SLOT) */\n      sload\n        /* \"https://github.com/Vectorized/solady/blob/e4a14a5b365b353352f7c38e699a2bc9363d6576/src/tokens/ERC20.sol\":6431:6466  result := sload(_TOTAL_SUPPLY_SLOT) */\n      swap1\n      pop\n        /* \"https://github.com/Vectorized/solady/blob/e4a14a5b365b353352f7c38e699a2bc9363d6576/src/tokens/ERC20.sol\":6287:6482  function totalSupply() public view virtual returns (uint256 result) {... */\n      swap1\n      jump\t// out\n        /* \"https://github.com/Vectorized/solady/blob/e4a14a5b365b353352f7c38e699a2bc9363d6576/src/tokens/ERC20.sol\":9969:12160  function transferFrom(address from, address to, uint256 amount) public virtual returns (bool) {... */\n    tag_33:\n        /* \"https://github.com/Vectorized/solady/blob/e4a14a5b365b353352f7c38e699a2bc9363d6576/src/tokens/ERC20.sol\":10057:10061  bool */\n      0x00\n        /* \"https://github.com/Vectorized/solady/blob/e4a14a5b365b353352f7c38e699a2bc9363d6576/src/tokens/ERC20.sol\":10073:10111  _beforeTokenTransfer(from, to, amount) */\n      tag_74\n        /* \"https://github.com/Vectorized/solady/blob/e4a14a5b365b353352f7c38e699a2bc9363d6576/src/tokens/ERC20.sol\":10094:10098  from */\n      dup5\n        /* \"https://github.com/Vectorized/solady/blob/e4a14a5b365b353352f7c38e699a2bc9363d6576/src/tokens/ERC20.sol\":10100:10102  to */\n      dup5\n        /* \"https://github.com/Vectorized/solady/blob/e4a14a5b365b353352f7c38e699a2bc9363d6576/src/tokens/ERC20.sol\":10104:10110  amount */\n      dup5\n        /* \"https://github.com/Vectorized/solady/blob/e4a14a5b365b353352f7c38e699a2bc9363d6576/src/tokens/ERC20.sol\":10073:10093  _beforeTokenTransfer */\n      tag_75\n        /* \"https://github.com/Vectorized/solady/blob/e4a14a5b365b353352f7c38e699a2bc9363d6576/src/tokens/ERC20.sol\":10073:10111  _beforeTokenTransfer(from, to, amount) */\n      jump\t// in\n    tag_74:\n        /* \"https://github.com/Vectorized/solady/blob/e4a14a5b365b353352f7c38e699a2bc9363d6576/src/tokens/ERC20.sol\":10208:10212  from */\n      dup4\n        /* \"https://github.com/Vectorized/solady/blob/e4a14a5b365b353352f7c38e699a2bc9363d6576/src/tokens/ERC20.sol\":10204:10206  96 */\n      0x60\n        /* \"https://github.com/Vectorized/solady/blob/e4a14a5b365b353352f7c38e699a2bc9363d6576/src/tokens/ERC20.sol\":10200:10213  shl(96, from) */\n      shl\n        /* \"https://github.com/Vectorized/solady/blob/e4a14a5b365b353352f7c38e699a2bc9363d6576/src/tokens/ERC20.sol\":10301:10309  caller() */\n      caller\n        /* \"https://github.com/Vectorized/solady/blob/e4a14a5b365b353352f7c38e699a2bc9363d6576/src/tokens/ERC20.sol\":10295:10299  0x20 */\n      0x20\n        /* \"https://github.com/Vectorized/solady/blob/e4a14a5b365b353352f7c38e699a2bc9363d6576/src/tokens/ERC20.sol\":10288:10310  mstore(0x20, caller()) */\n      mstore\n        /* \"https://github.com/Vectorized/solady/blob/e4a14a5b365b353352f7c38e699a2bc9363d6576/src/tokens/ERC20.sol\":10346:10366  _ALLOWANCE_SLOT_SEED */\n      0x7f5e9f20\n        /* \"https://github.com/Vectorized/solady/blob/e4a14a5b365b353352f7c38e699a2bc9363d6576/src/tokens/ERC20.sol\":10339:10344  from_ */\n      dup2\n        /* \"https://github.com/Vectorized/solady/blob/e4a14a5b365b353352f7c38e699a2bc9363d6576/src/tokens/ERC20.sol\":10336:10367  or(from_, _ALLOWANCE_SLOT_SEED) */\n      or\n        /* \"https://github.com/Vectorized/solady/blob/e4a14a5b365b353352f7c38e699a2bc9363d6576/src/tokens/ERC20.sol\":10330:10334  0x0c */\n      0x0c\n        /* \"https://github.com/Vectorized/solady/blob/e4a14a5b365b353352f7c38e699a2bc9363d6576/src/tokens/ERC20.sol\":10323:10368  mstore(0x0c, or(from_, _ALLOWANCE_SLOT_SEED)) */\n      mstore\n        /* \"https://github.com/Vectorized/solady/blob/e4a14a5b365b353352f7c38e699a2bc9363d6576/src/tokens/ERC20.sol\":10418:10422  0x34 */\n      0x34\n        /* \"https://github.com/Vectorized/solady/blob/e4a14a5b365b353352f7c38e699a2bc9363d6576/src/tokens/ERC20.sol\":10412:10416  0x0c */\n      0x0c\n        /* \"https://github.com/Vectorized/solady/blob/e4a14a5b365b353352f7c38e699a2bc9363d6576/src/tokens/ERC20.sol\":10402:10423  keccak256(0x0c, 0x34) */\n      keccak256\n        /* \"https://github.com/Vectorized/solady/blob/e4a14a5b365b353352f7c38e699a2bc9363d6576/src/tokens/ERC20.sol\":10460:10473  allowanceSlot */\n      dup1\n        /* \"https://github.com/Vectorized/solady/blob/e4a14a5b365b353352f7c38e699a2bc9363d6576/src/tokens/ERC20.sol\":10454:10474  sload(allowanceSlot) */\n      sload\n        /* \"https://github.com/Vectorized/solady/blob/e4a14a5b365b353352f7c38e699a2bc9363d6576/src/tokens/ERC20.sol\":10572:10573  1 */\n      0x01\n        /* \"https://github.com/Vectorized/solady/blob/e4a14a5b365b353352f7c38e699a2bc9363d6576/src/tokens/ERC20.sol\":10560:10570  allowance_ */\n      dup2\n        /* \"https://github.com/Vectorized/solady/blob/e4a14a5b365b353352f7c38e699a2bc9363d6576/src/tokens/ERC20.sol\":10556:10574  add(allowance_, 1) */\n      add\n        /* \"https://github.com/Vectorized/solady/blob/e4a14a5b365b353352f7c38e699a2bc9363d6576/src/tokens/ERC20.sol\":10553:10971  if add(allowance_, 1) {... */\n      iszero\n      tag_76\n      jumpi\n        /* \"https://github.com/Vectorized/solady/blob/e4a14a5b365b353352f7c38e699a2bc9363d6576/src/tokens/ERC20.sol\":10688:10698  allowance_ */\n      dup1\n        /* \"https://github.com/Vectorized/solady/blob/e4a14a5b365b353352f7c38e699a2bc9363d6576/src/tokens/ERC20.sol\":10680:10686  amount */\n      dup6\n        /* \"https://github.com/Vectorized/solady/blob/e4a14a5b365b353352f7c38e699a2bc9363d6576/src/tokens/ERC20.sol\":10677:10699  gt(amount, allowance_) */\n      gt\n        /* \"https://github.com/Vectorized/solady/blob/e4a14a5b365b353352f7c38e699a2bc9363d6576/src/tokens/ERC20.sol\":10674:10833  if gt(amount, allowance_) {... */\n      iszero\n      tag_77\n      jumpi\n        /* \"https://github.com/Vectorized/solady/blob/e4a14a5b365b353352f7c38e699a2bc9363d6576/src/tokens/ERC20.sol\":10735:10745  0x13be252b */\n      0x13be252b\n        /* \"https://github.com/Vectorized/solady/blob/e4a14a5b365b353352f7c38e699a2bc9363d6576/src/tokens/ERC20.sol\":10729:10733  0x00 */\n      0x00\n        /* \"https://github.com/Vectorized/solady/blob/e4a14a5b365b353352f7c38e699a2bc9363d6576/src/tokens/ERC20.sol\":10722:10746  mstore(0x00, 0x13be252b) */\n      mstore\n        /* \"https://github.com/Vectorized/solady/blob/e4a14a5b365b353352f7c38e699a2bc9363d6576/src/tokens/ERC20.sol\":10810:10814  0x04 */\n      0x04\n        /* \"https://github.com/Vectorized/solady/blob/e4a14a5b365b353352f7c38e699a2bc9363d6576/src/tokens/ERC20.sol\":10804:10808  0x1c */\n      0x1c\n        /* \"https://github.com/Vectorized/solady/blob/e4a14a5b365b353352f7c38e699a2bc9363d6576/src/tokens/ERC20.sol\":10797:10815  revert(0x1c, 0x04) */\n      revert\n        /* \"https://github.com/Vectorized/solady/blob/e4a14a5b365b353352f7c38e699a2bc9363d6576/src/tokens/ERC20.sol\":10674:10833  if gt(amount, allowance_) {... */\n    tag_77:\n        /* \"https://github.com/Vectorized/solady/blob/e4a14a5b365b353352f7c38e699a2bc9363d6576/src/tokens/ERC20.sol\":10949:10955  amount */\n      dup5\n        /* \"https://github.com/Vectorized/solady/blob/e4a14a5b365b353352f7c38e699a2bc9363d6576/src/tokens/ERC20.sol\":10937:10947  allowance_ */\n      dup2\n        /* \"https://github.com/Vectorized/solady/blob/e4a14a5b365b353352f7c38e699a2bc9363d6576/src/tokens/ERC20.sol\":10933:10956  sub(allowance_, amount) */\n      sub\n        /* \"https://github.com/Vectorized/solady/blob/e4a14a5b365b353352f7c38e699a2bc9363d6576/src/tokens/ERC20.sol\":10918:10931  allowanceSlot */\n      dup3\n        /* \"https://github.com/Vectorized/solady/blob/e4a14a5b365b353352f7c38e699a2bc9363d6576/src/tokens/ERC20.sol\":10911:10957  sstore(allowanceSlot, sub(allowance_, amount)) */\n      sstore\n        /* \"https://github.com/Vectorized/solady/blob/e4a14a5b365b353352f7c38e699a2bc9363d6576/src/tokens/ERC20.sol\":10553:10971  if add(allowance_, 1) {... */\n    tag_76:\n        /* \"https://github.com/Vectorized/solady/blob/e4a14a5b365b353352f7c38e699a2bc9363d6576/src/tokens/ERC20.sol\":11067:11085  _BALANCE_SLOT_SEED */\n      0x87a211a2\n        /* \"https://github.com/Vectorized/solady/blob/e4a14a5b365b353352f7c38e699a2bc9363d6576/src/tokens/ERC20.sol\":11060:11065  from_ */\n      dup4\n        /* \"https://github.com/Vectorized/solady/blob/e4a14a5b365b353352f7c38e699a2bc9363d6576/src/tokens/ERC20.sol\":11057:11086  or(from_, _BALANCE_SLOT_SEED) */\n      or\n        /* \"https://github.com/Vectorized/solady/blob/e4a14a5b365b353352f7c38e699a2bc9363d6576/src/tokens/ERC20.sol\":11051:11055  0x0c */\n      0x0c\n        /* \"https://github.com/Vectorized/solady/blob/e4a14a5b365b353352f7c38e699a2bc9363d6576/src/tokens/ERC20.sol\":11044:11087  mstore(0x0c, or(from_, _BALANCE_SLOT_SEED)) */\n      mstore\n        /* \"https://github.com/Vectorized/solady/blob/e4a14a5b365b353352f7c38e699a2bc9363d6576/src/tokens/ERC20.sol\":11139:11143  0x20 */\n      0x20\n        /* \"https://github.com/Vectorized/solady/blob/e4a14a5b365b353352f7c38e699a2bc9363d6576/src/tokens/ERC20.sol\":11133:11137  0x0c */\n      0x0c\n        /* \"https://github.com/Vectorized/solady/blob/e4a14a5b365b353352f7c38e699a2bc9363d6576/src/tokens/ERC20.sol\":11123:11144  keccak256(0x0c, 0x20) */\n      keccak256\n        /* \"https://github.com/Vectorized/solady/blob/e4a14a5b365b353352f7c38e699a2bc9363d6576/src/tokens/ERC20.sol\":11182:11197  fromBalanceSlot */\n      dup1\n        /* \"https://github.com/Vectorized/solady/blob/e4a14a5b365b353352f7c38e699a2bc9363d6576/src/tokens/ERC20.sol\":11176:11198  sload(fromBalanceSlot) */\n      sload\n        /* \"https://github.com/Vectorized/solady/blob/e4a14a5b365b353352f7c38e699a2bc9363d6576/src/tokens/ERC20.sol\":11272:11283  fromBalance */\n      dup1\n        /* \"https://github.com/Vectorized/solady/blob/e4a14a5b365b353352f7c38e699a2bc9363d6576/src/tokens/ERC20.sol\":11264:11270  amount */\n      dup8\n        /* \"https://github.com/Vectorized/solady/blob/e4a14a5b365b353352f7c38e699a2bc9363d6576/src/tokens/ERC20.sol\":11261:11284  gt(amount, fromBalance) */\n      gt\n        /* \"https://github.com/Vectorized/solady/blob/e4a14a5b365b353352f7c38e699a2bc9363d6576/src/tokens/ERC20.sol\":11258:11404  if gt(amount, fromBalance) {... */\n      iszero\n      tag_78\n      jumpi\n        /* \"https://github.com/Vectorized/solady/blob/e4a14a5b365b353352f7c38e699a2bc9363d6576/src/tokens/ERC20.sol\":11316:11326  0xf4d678b8 */\n      0xf4d678b8\n        /* \"https://github.com/Vectorized/solady/blob/e4a14a5b365b353352f7c38e699a2bc9363d6576/src/tokens/ERC20.sol\":11310:11314  0x00 */\n      0x00\n        /* \"https://github.com/Vectorized/solady/blob/e4a14a5b365b353352f7c38e699a2bc9363d6576/src/tokens/ERC20.sol\":11303:11327  mstore(0x00, 0xf4d678b8) */\n      mstore\n        /* \"https://github.com/Vectorized/solady/blob/e4a14a5b365b353352f7c38e699a2bc9363d6576/src/tokens/ERC20.sol\":11385:11389  0x04 */\n      0x04\n        /* \"https://github.com/Vectorized/solady/blob/e4a14a5b365b353352f7c38e699a2bc9363d6576/src/tokens/ERC20.sol\":11379:11383  0x1c */\n      0x1c\n        /* \"https://github.com/Vectorized/solady/blob/e4a14a5b365b353352f7c38e699a2bc9363d6576/src/tokens/ERC20.sol\":11372:11390  revert(0x1c, 0x04) */\n      revert\n        /* \"https://github.com/Vectorized/solady/blob/e4a14a5b365b353352f7c38e699a2bc9363d6576/src/tokens/ERC20.sol\":11258:11404  if gt(amount, fromBalance) {... */\n    tag_78:\n        /* \"https://github.com/Vectorized/solady/blob/e4a14a5b365b353352f7c38e699a2bc9363d6576/src/tokens/ERC20.sol\":11513:11519  amount */\n      dup7\n        /* \"https://github.com/Vectorized/solady/blob/e4a14a5b365b353352f7c38e699a2bc9363d6576/src/tokens/ERC20.sol\":11500:11511  fromBalance */\n      dup2\n        /* \"https://github.com/Vectorized/solady/blob/e4a14a5b365b353352f7c38e699a2bc9363d6576/src/tokens/ERC20.sol\":11496:11520  sub(fromBalance, amount) */\n      sub\n        /* \"https://github.com/Vectorized/solady/blob/e4a14a5b365b353352f7c38e699a2bc9363d6576/src/tokens/ERC20.sol\":11479:11494  fromBalanceSlot */\n      dup3\n        /* \"https://github.com/Vectorized/solady/blob/e4a14a5b365b353352f7c38e699a2bc9363d6576/src/tokens/ERC20.sol\":11472:11521  sstore(fromBalanceSlot, sub(fromBalance, amount)) */\n      sstore\n        /* \"https://github.com/Vectorized/solady/blob/e4a14a5b365b353352f7c38e699a2bc9363d6576/src/tokens/ERC20.sol\":11596:11598  to */\n      dup8\n        /* \"https://github.com/Vectorized/solady/blob/e4a14a5b365b353352f7c38e699a2bc9363d6576/src/tokens/ERC20.sol\":11590:11594  0x00 */\n      0x00\n        /* \"https://github.com/Vectorized/solady/blob/e4a14a5b365b353352f7c38e699a2bc9363d6576/src/tokens/ERC20.sol\":11583:11599  mstore(0x00, to) */\n      mstore\n        /* \"https://github.com/Vectorized/solady/blob/e4a14a5b365b353352f7c38e699a2bc9363d6576/src/tokens/ERC20.sol\":11649:11653  0x20 */\n      0x20\n        /* \"https://github.com/Vectorized/solady/blob/e4a14a5b365b353352f7c38e699a2bc9363d6576/src/tokens/ERC20.sol\":11643:11647  0x0c */\n      0x0c\n        /* \"https://github.com/Vectorized/solady/blob/e4a14a5b365b353352f7c38e699a2bc9363d6576/src/tokens/ERC20.sol\":11633:11654  keccak256(0x0c, 0x20) */\n      keccak256\n        /* \"https://github.com/Vectorized/solady/blob/e4a14a5b365b353352f7c38e699a2bc9363d6576/src/tokens/ERC20.sol\":11899:11905  amount */\n      dup8\n        /* \"https://github.com/Vectorized/solady/blob/e4a14a5b365b353352f7c38e699a2bc9363d6576/src/tokens/ERC20.sol\":11883:11896  toBalanceSlot */\n      dup2\n        /* \"https://github.com/Vectorized/solady/blob/e4a14a5b365b353352f7c38e699a2bc9363d6576/src/tokens/ERC20.sol\":11877:11897  sload(toBalanceSlot) */\n      sload\n        /* \"https://github.com/Vectorized/solady/blob/e4a14a5b365b353352f7c38e699a2bc9363d6576/src/tokens/ERC20.sol\":11873:11906  add(sload(toBalanceSlot), amount) */\n      add\n        /* \"https://github.com/Vectorized/solady/blob/e4a14a5b365b353352f7c38e699a2bc9363d6576/src/tokens/ERC20.sol\":11858:11871  toBalanceSlot */\n      dup2\n        /* \"https://github.com/Vectorized/solady/blob/e4a14a5b365b353352f7c38e699a2bc9363d6576/src/tokens/ERC20.sol\":11851:11907  sstore(toBalanceSlot, add(sload(toBalanceSlot), amount)) */\n      sstore\n        /* \"https://github.com/Vectorized/solady/blob/e4a14a5b365b353352f7c38e699a2bc9363d6576/src/tokens/ERC20.sol\":11975:11981  amount */\n      dup8\n        /* \"https://github.com/Vectorized/solady/blob/e4a14a5b365b353352f7c38e699a2bc9363d6576/src/tokens/ERC20.sol\":11969:11973  0x20 */\n      0x20\n        /* \"https://github.com/Vectorized/solady/blob/e4a14a5b365b353352f7c38e699a2bc9363d6576/src/tokens/ERC20.sol\":11962:11982  mstore(0x20, amount) */\n      mstore\n        /* \"https://github.com/Vectorized/solady/blob/e4a14a5b365b353352f7c38e699a2bc9363d6576/src/tokens/ERC20.sol\":12069:12073  0x0c */\n      0x0c\n        /* \"https://github.com/Vectorized/solady/blob/e4a14a5b365b353352f7c38e699a2bc9363d6576/src/tokens/ERC20.sol\":12063:12074  mload(0x0c) */\n      mload\n        /* \"https://github.com/Vectorized/solady/blob/e4a14a5b365b353352f7c38e699a2bc9363d6576/src/tokens/ERC20.sol\":12059:12061  96 */\n      0x60\n        /* \"https://github.com/Vectorized/solady/blob/e4a14a5b365b353352f7c38e699a2bc9363d6576/src/tokens/ERC20.sol\":12055:12075  shr(96, mload(0x0c)) */\n      shr\n        /* \"https://github.com/Vectorized/solady/blob/e4a14a5b365b353352f7c38e699a2bc9363d6576/src/tokens/ERC20.sol\":12047:12052  from_ */\n      dup7\n        /* \"https://github.com/Vectorized/solady/blob/e4a14a5b365b353352f7c38e699a2bc9363d6576/src/tokens/ERC20.sol\":12043:12045  96 */\n      0x60\n        /* \"https://github.com/Vectorized/solady/blob/e4a14a5b365b353352f7c38e699a2bc9363d6576/src/tokens/ERC20.sol\":12039:12053  shr(96, from_) */\n      shr\n        /* \"https://github.com/Vectorized/solady/blob/e4a14a5b365b353352f7c38e699a2bc9363d6576/src/tokens/ERC20.sol\":12012:12037  _TRANSFER_EVENT_SIGNATURE */\n      0xddf252ad1be2c89b69c2b068fc378daa952ba7f163c4a11628f55a4df523b3ef\n        /* \"https://github.com/Vectorized/solady/blob/e4a14a5b365b353352f7c38e699a2bc9363d6576/src/tokens/ERC20.sol\":12006:12010  0x20 */\n      0x20\n        /* \"https://github.com/Vectorized/solady/blob/e4a14a5b365b353352f7c38e699a2bc9363d6576/src/tokens/ERC20.sol\":12000:12004  0x20 */\n      dup1\n        /* \"https://github.com/Vectorized/solady/blob/e4a14a5b365b353352f7c38e699a2bc9363d6576/src/tokens/ERC20.sol\":11995:12076  log3(0x20, 0x20, _TRANSFER_EVENT_SIGNATURE, shr(96, from_), shr(96, mload(0x0c))) */\n      log3\n        /* \"https://github.com/Vectorized/solady/blob/e4a14a5b365b353352f7c38e699a2bc9363d6576/src/tokens/ERC20.sol\":10173:12086  {... */\n      pop\n      pop\n      pop\n      pop\n      pop\n      pop\n        /* \"https://github.com/Vectorized/solady/blob/e4a14a5b365b353352f7c38e699a2bc9363d6576/src/tokens/ERC20.sol\":12095:12132  _afterTokenTransfer(from, to, amount) */\n      tag_79\n        /* \"https://github.com/Vectorized/solady/blob/e4a14a5b365b353352f7c38e699a2bc9363d6576/src/tokens/ERC20.sol\":12115:12119  from */\n      dup5\n        /* \"https://github.com/Vectorized/solady/blob/e4a14a5b365b353352f7c38e699a2bc9363d6576/src/tokens/ERC20.sol\":12121:12123  to */\n      dup5\n        /* \"https://github.com/Vectorized/solady/blob/e4a14a5b365b353352f7c38e699a2bc9363d6576/src/tokens/ERC20.sol\":12125:12131  amount */\n      dup5\n        /* \"https://github.com/Vectorized/solady/blob/e4a14a5b365b353352f7c38e699a2bc9363d6576/src/tokens/ERC20.sol\":12095:12114  _afterTokenTransfer */\n      tag_80\n        /* \"https://github.com/Vectorized/solady/blob/e4a14a5b365b353352f7c38e699a2bc9363d6576/src/tokens/ERC20.sol\":12095:12132  _afterTokenTransfer(from, to, amount) */\n      jump\t// in\n    tag_79:\n        /* \"https://github.com/Vectorized/solady/blob/e4a14a5b365b353352f7c38e699a2bc9363d6576/src/tokens/ERC20.sol\":12149:12153  true */\n      0x01\n        /* \"https://github.com/Vectorized/solady/blob/e4a14a5b365b353352f7c38e699a2bc9363d6576/src/tokens/ERC20.sol\":12142:12153  return true */\n      swap1\n      pop\n        /* \"https://github.com/Vectorized/solady/blob/e4a14a5b365b353352f7c38e699a2bc9363d6576/src/tokens/ERC20.sol\":9969:12160  function transferFrom(address from, address to, uint256 amount) public virtual returns (bool) {... */\n      swap4\n      swap3\n      pop\n      pop\n      pop\n      jump\t// out\n        /* \"https://github.com/Vectorized/solady/blob/e4a14a5b365b353352f7c38e699a2bc9363d6576/src/tokens/ERC20.sol\":5860:5942  function decimals() public view virtual returns (uint8) {... */\n    tag_36:\n        /* \"https://github.com/Vectorized/solady/blob/e4a14a5b365b353352f7c38e699a2bc9363d6576/src/tokens/ERC20.sol\":5909:5914  uint8 */\n      0x00\n        /* \"https://github.com/Vectorized/solady/blob/e4a14a5b365b353352f7c38e699a2bc9363d6576/src/tokens/ERC20.sol\":5933:5935  18 */\n      0x12\n        /* \"https://github.com/Vectorized/solady/blob/e4a14a5b365b353352f7c38e699a2bc9363d6576/src/tokens/ERC20.sol\":5926:5935  return 18 */\n      swap1\n      pop\n        /* \"https://github.com/Vectorized/solady/blob/e4a14a5b365b353352f7c38e699a2bc9363d6576/src/tokens/ERC20.sol\":5860:5942  function decimals() public view virtual returns (uint8) {... */\n      swap1\n      jump\t// out\n        /* \"https://github.com/Vectorized/solady/blob/e4a14a5b365b353352f7c38e699a2bc9363d6576/src/tokens/ERC20.sol\":16620:17313  function DOMAIN_SEPARATOR() public view virtual returns (bytes32 result) {... */\n    tag_40:\n        /* \"https://github.com/Vectorized/solady/blob/e4a14a5b365b353352f7c38e699a2bc9363d6576/src/tokens/ERC20.sol\":16677:16691  bytes32 result */\n      0x00\n        /* \"https://github.com/Vectorized/solady/blob/e4a14a5b365b353352f7c38e699a2bc9363d6576/src/tokens/ERC20.sol\":16703:16719  bytes32 nameHash */\n      dup1\n        /* \"https://github.com/Vectorized/solady/blob/e4a14a5b365b353352f7c38e699a2bc9363d6576/src/tokens/ERC20.sol\":16722:16741  _constantNameHash() */\n      tag_83\n        /* \"https://github.com/Vectorized/solady/blob/e4a14a5b365b353352f7c38e699a2bc9363d6576/src/tokens/ERC20.sol\":16722:16739  _constantNameHash */\n      tag_84\n        /* \"https://github.com/Vectorized/solady/blob/e4a14a5b365b353352f7c38e699a2bc9363d6576/src/tokens/ERC20.sol\":16722:16741  _constantNameHash() */\n      jump\t// in\n    tag_83:\n        /* \"https://github.com/Vectorized/solady/blob/e4a14a5b365b353352f7c38e699a2bc9363d6576/src/tokens/ERC20.sol\":16703:16741  bytes32 nameHash = _constantNameHash() */\n      swap1\n      pop\n        /* \"https://github.com/Vectorized/solady/blob/e4a14a5b365b353352f7c38e699a2bc9363d6576/src/tokens/ERC20.sol\":16869:16870  0 */\n      0x00\n        /* \"https://github.com/Vectorized/solady/blob/e4a14a5b365b353352f7c38e699a2bc9363d6576/src/tokens/ERC20.sol\":16861:16871  bytes32(0) */\n      dup1\n      shl\n        /* \"https://github.com/Vectorized/solady/blob/e4a14a5b365b353352f7c38e699a2bc9363d6576/src/tokens/ERC20.sol\":16849:16857  nameHash */\n      dup2\n        /* \"https://github.com/Vectorized/solady/blob/e4a14a5b365b353352f7c38e699a2bc9363d6576/src/tokens/ERC20.sol\":16849:16871  nameHash == bytes32(0) */\n      sub\n        /* \"https://github.com/Vectorized/solady/blob/e4a14a5b365b353352f7c38e699a2bc9363d6576/src/tokens/ERC20.sol\":16845:16908  if (nameHash == bytes32(0)) nameHash = keccak256(bytes(name())) */\n      tag_85\n      jumpi\n        /* \"https://github.com/Vectorized/solady/blob/e4a14a5b365b353352f7c38e699a2bc9363d6576/src/tokens/ERC20.sol\":16900:16906  name() */\n      tag_86\n        /* \"https://github.com/Vectorized/solady/blob/e4a14a5b365b353352f7c38e699a2bc9363d6576/src/tokens/ERC20.sol\":16900:16904  name */\n      tag_17\n        /* \"https://github.com/Vectorized/solady/blob/e4a14a5b365b353352f7c38e699a2bc9363d6576/src/tokens/ERC20.sol\":16900:16906  name() */\n      jump\t// in\n    tag_86:\n        /* \"https://github.com/Vectorized/solady/blob/e4a14a5b365b353352f7c38e699a2bc9363d6576/src/tokens/ERC20.sol\":16884:16908  keccak256(bytes(name())) */\n      dup1\n      mload\n      swap1\n      0x20\n      add\n      keccak256\n        /* \"https://github.com/Vectorized/solady/blob/e4a14a5b365b353352f7c38e699a2bc9363d6576/src/tokens/ERC20.sol\":16873:16908  nameHash = keccak256(bytes(name())) */\n      swap1\n      pop\n        /* \"https://github.com/Vectorized/solady/blob/e4a14a5b365b353352f7c38e699a2bc9363d6576/src/tokens/ERC20.sol\":16845:16908  if (nameHash == bytes32(0)) nameHash = keccak256(bytes(name())) */\n    tag_85:\n        /* \"https://github.com/Vectorized/solady/blob/e4a14a5b365b353352f7c38e699a2bc9363d6576/src/tokens/ERC20.sol\":16999:17003  0x40 */\n      0x40\n        /* \"https://github.com/Vectorized/solady/blob/e4a14a5b365b353352f7c38e699a2bc9363d6576/src/tokens/ERC20.sol\":16993:17004  mload(0x40) */\n      mload\n        /* \"https://github.com/Vectorized/solady/blob/e4a14a5b365b353352f7c38e699a2bc9363d6576/src/tokens/ERC20.sol\":17060:17076  _DOMAIN_TYPEHASH */\n      0x8b73c3c69bb8fe3d512ecc4cf759cc79239f7b179b0ffacaa9a75d522b39400f\n        /* \"https://github.com/Vectorized/solady/blob/e4a14a5b365b353352f7c38e699a2bc9363d6576/src/tokens/ERC20.sol\":17057:17058  m */\n      dup2\n        /* \"https://github.com/Vectorized/solady/blob/e4a14a5b365b353352f7c38e699a2bc9363d6576/src/tokens/ERC20.sol\":17050:17077  mstore(m, _DOMAIN_TYPEHASH) */\n      mstore\n        /* \"https://github.com/Vectorized/solady/blob/e4a14a5b365b353352f7c38e699a2bc9363d6576/src/tokens/ERC20.sol\":17111:17119  nameHash */\n      dup2\n        /* \"https://github.com/Vectorized/solady/blob/e4a14a5b365b353352f7c38e699a2bc9363d6576/src/tokens/ERC20.sol\":17104:17108  0x20 */\n      0x20\n        /* \"https://github.com/Vectorized/solady/blob/e4a14a5b365b353352f7c38e699a2bc9363d6576/src/tokens/ERC20.sol\":17101:17102  m */\n      dup3\n        /* \"https://github.com/Vectorized/solady/blob/e4a14a5b365b353352f7c38e699a2bc9363d6576/src/tokens/ERC20.sol\":17097:17109  add(m, 0x20) */\n      add\n        /* \"https://github.com/Vectorized/solady/blob/e4a14a5b365b353352f7c38e699a2bc9363d6576/src/tokens/ERC20.sol\":17090:17120  mstore(add(m, 0x20), nameHash) */\n      mstore\n        /* \"https://github.com/Vectorized/solady/blob/e4a14a5b365b353352f7c38e699a2bc9363d6576/src/tokens/ERC20.sol\":17154:17167  _VERSION_HASH */\n      0xc89efdaa54c0f20c7adf612882df0950f5a951637e0307cdcb4c672f298b8bc6\n        /* \"https://github.com/Vectorized/solady/blob/e4a14a5b365b353352f7c38e699a2bc9363d6576/src/tokens/ERC20.sol\":17147:17151  0x40 */\n      0x40\n        /* \"https://github.com/Vectorized/solady/blob/e4a14a5b365b353352f7c38e699a2bc9363d6576/src/tokens/ERC20.sol\":17144:17145  m */\n      dup3\n        /* \"https://github.com/Vectorized/solady/blob/e4a14a5b365b353352f7c38e699a2bc9363d6576/src/tokens/ERC20.sol\":17140:17152  add(m, 0x40) */\n      add\n        /* \"https://github.com/Vectorized/solady/blob/e4a14a5b365b353352f7c38e699a2bc9363d6576/src/tokens/ERC20.sol\":17133:17168  mstore(add(m, 0x40), _VERSION_HASH) */\n      mstore\n        /* \"https://github.com/Vectorized/solady/blob/e4a14a5b365b353352f7c38e699a2bc9363d6576/src/tokens/ERC20.sol\":17202:17211  chainid() */\n      chainid\n        /* \"https://github.com/Vectorized/solady/blob/e4a14a5b365b353352f7c38e699a2bc9363d6576/src/tokens/ERC20.sol\":17195:17199  0x60 */\n      0x60\n        /* \"https://github.com/Vectorized/solady/blob/e4a14a5b365b353352f7c38e699a2bc9363d6576/src/tokens/ERC20.sol\":17192:17193  m */\n      dup3\n        /* \"https://github.com/Vectorized/solady/blob/e4a14a5b365b353352f7c38e699a2bc9363d6576/src/tokens/ERC20.sol\":17188:17200  add(m, 0x60) */\n      add\n        /* \"https://github.com/Vectorized/solady/blob/e4a14a5b365b353352f7c38e699a2bc9363d6576/src/tokens/ERC20.sol\":17181:17212  mstore(add(m, 0x60), chainid()) */\n      mstore\n        /* \"https://github.com/Vectorized/solady/blob/e4a14a5b365b353352f7c38e699a2bc9363d6576/src/tokens/ERC20.sol\":17246:17255  address() */\n      address\n        /* \"https://github.com/Vectorized/solady/blob/e4a14a5b365b353352f7c38e699a2bc9363d6576/src/tokens/ERC20.sol\":17239:17243  0x80 */\n      0x80\n        /* \"https://github.com/Vectorized/solady/blob/e4a14a5b365b353352f7c38e699a2bc9363d6576/src/tokens/ERC20.sol\":17236:17237  m */\n      dup3\n        /* \"https://github.com/Vectorized/solady/blob/e4a14a5b365b353352f7c38e699a2bc9363d6576/src/tokens/ERC20.sol\":17232:17244  add(m, 0x80) */\n      add\n        /* \"https://github.com/Vectorized/solady/blob/e4a14a5b365b353352f7c38e699a2bc9363d6576/src/tokens/ERC20.sol\":17225:17256  mstore(add(m, 0x80), address()) */\n      mstore\n        /* \"https://github.com/Vectorized/solady/blob/e4a14a5b365b353352f7c38e699a2bc9363d6576/src/tokens/ERC20.sol\":17292:17296  0xa0 */\n      0xa0\n        /* \"https://github.com/Vectorized/solady/blob/e4a14a5b365b353352f7c38e699a2bc9363d6576/src/tokens/ERC20.sol\":17289:17290  m */\n      dup2\n        /* \"https://github.com/Vectorized/solady/blob/e4a14a5b365b353352f7c38e699a2bc9363d6576/src/tokens/ERC20.sol\":17279:17297  keccak256(m, 0xa0) */\n      keccak256\n        /* \"https://github.com/Vectorized/solady/blob/e4a14a5b365b353352f7c38e699a2bc9363d6576/src/tokens/ERC20.sol\":17269:17297  result := keccak256(m, 0xa0) */\n      swap3\n      pop\n        /* \"https://github.com/Vectorized/solady/blob/e4a14a5b365b353352f7c38e699a2bc9363d6576/src/tokens/ERC20.sol\":16970:17307  {... */\n      pop\n      pop\n        /* \"https://github.com/Vectorized/solady/blob/e4a14a5b365b353352f7c38e699a2bc9363d6576/src/tokens/ERC20.sol\":16620:17313  function DOMAIN_SEPARATOR() public view virtual returns (bytes32 result) {... */\n      swap1\n      jump\t// out\n        /* \"https://github.com/Vectorized/solady/blob/e4a14a5b365b353352f7c38e699a2bc9363d6576/src/tokens/ERC20.sol\":6548:6834  function balanceOf(address owner) public view virtual returns (uint256 result) {... */\n    tag_46:\n        /* \"https://github.com/Vectorized/solady/blob/e4a14a5b365b353352f7c38e699a2bc9363d6576/src/tokens/ERC20.sol\":6611:6625  uint256 result */\n      0x00\n        /* \"https://github.com/Vectorized/solady/blob/e4a14a5b365b353352f7c38e699a2bc9363d6576/src/tokens/ERC20.sol\":6716:6734  _BALANCE_SLOT_SEED */\n      0x87a211a2\n        /* \"https://github.com/Vectorized/solady/blob/e4a14a5b365b353352f7c38e699a2bc9363d6576/src/tokens/ERC20.sol\":6710:6714  0x0c */\n      0x0c\n        /* \"https://github.com/Vectorized/solady/blob/e4a14a5b365b353352f7c38e699a2bc9363d6576/src/tokens/ERC20.sol\":6703:6735  mstore(0x0c, _BALANCE_SLOT_SEED) */\n      mstore\n        /* \"https://github.com/Vectorized/solady/blob/e4a14a5b365b353352f7c38e699a2bc9363d6576/src/tokens/ERC20.sol\":6761:6766  owner */\n      dup2\n        /* \"https://github.com/Vectorized/solady/blob/e4a14a5b365b353352f7c38e699a2bc9363d6576/src/tokens/ERC20.sol\":6755:6759  0x00 */\n      0x00\n        /* \"https://github.com/Vectorized/solady/blob/e4a14a5b365b353352f7c38e699a2bc9363d6576/src/tokens/ERC20.sol\":6748:6767  mstore(0x00, owner) */\n      mstore\n        /* \"https://github.com/Vectorized/solady/blob/e4a14a5b365b353352f7c38e699a2bc9363d6576/src/tokens/ERC20.sol\":6812:6816  0x20 */\n      0x20\n        /* \"https://github.com/Vectorized/solady/blob/e4a14a5b365b353352f7c38e699a2bc9363d6576/src/tokens/ERC20.sol\":6806:6810  0x0c */\n      0x0c\n        /* \"https://github.com/Vectorized/solady/blob/e4a14a5b365b353352f7c38e699a2bc9363d6576/src/tokens/ERC20.sol\":6796:6817  keccak256(0x0c, 0x20) */\n      keccak256\n        /* \"https://github.com/Vectorized/solady/blob/e4a14a5b365b353352f7c38e699a2bc9363d6576/src/tokens/ERC20.sol\":6790:6818  sload(keccak256(0x0c, 0x20)) */\n      sload\n        /* \"https://github.com/Vectorized/solady/blob/e4a14a5b365b353352f7c38e699a2bc9363d6576/src/tokens/ERC20.sol\":6780:6818  result := sload(keccak256(0x0c, 0x20)) */\n      swap1\n      pop\n        /* \"https://github.com/Vectorized/solady/blob/e4a14a5b365b353352f7c38e699a2bc9363d6576/src/tokens/ERC20.sol\":6548:6834  function balanceOf(address owner) public view virtual returns (uint256 result) {... */\n      swap2\n      swap1\n      pop\n      jump\t// out\n        /* \"https://github.com/Vectorized/solady/blob/e4a14a5b365b353352f7c38e699a2bc9363d6576/src/tokens/ERC20.sol\":12800:13140  function nonces(address owner) public view virtual returns (uint256 result) {... */\n    tag_50:\n        /* \"https://github.com/Vectorized/solady/blob/e4a14a5b365b353352f7c38e699a2bc9363d6576/src/tokens/ERC20.sol\":12860:12874  uint256 result */\n      0x00\n        /* \"https://github.com/Vectorized/solady/blob/e4a14a5b365b353352f7c38e699a2bc9363d6576/src/tokens/ERC20.sol\":13023:13040  _NONCES_SLOT_SEED */\n      0x38377508\n        /* \"https://github.com/Vectorized/solady/blob/e4a14a5b365b353352f7c38e699a2bc9363d6576/src/tokens/ERC20.sol\":13017:13021  0x0c */\n      0x0c\n        /* \"https://github.com/Vectorized/solady/blob/e4a14a5b365b353352f7c38e699a2bc9363d6576/src/tokens/ERC20.sol\":13010:13041  mstore(0x0c, _NONCES_SLOT_SEED) */\n      mstore\n        /* \"https://github.com/Vectorized/solady/blob/e4a14a5b365b353352f7c38e699a2bc9363d6576/src/tokens/ERC20.sol\":13067:13072  owner */\n      dup2\n        /* \"https://github.com/Vectorized/solady/blob/e4a14a5b365b353352f7c38e699a2bc9363d6576/src/tokens/ERC20.sol\":13061:13065  0x00 */\n      0x00\n        /* \"https://github.com/Vectorized/solady/blob/e4a14a5b365b353352f7c38e699a2bc9363d6576/src/tokens/ERC20.sol\":13054:13073  mstore(0x00, owner) */\n      mstore\n        /* \"https://github.com/Vectorized/solady/blob/e4a14a5b365b353352f7c38e699a2bc9363d6576/src/tokens/ERC20.sol\":13118:13122  0x20 */\n      0x20\n        /* \"https://github.com/Vectorized/solady/blob/e4a14a5b365b353352f7c38e699a2bc9363d6576/src/tokens/ERC20.sol\":13112:13116  0x0c */\n      0x0c\n        /* \"https://github.com/Vectorized/solady/blob/e4a14a5b365b353352f7c38e699a2bc9363d6576/src/tokens/ERC20.sol\":13102:13123  keccak256(0x0c, 0x20) */\n      keccak256\n        /* \"https://github.com/Vectorized/solady/blob/e4a14a5b365b353352f7c38e699a2bc9363d6576/src/tokens/ERC20.sol\":13096:13124  sload(keccak256(0x0c, 0x20)) */\n      sload\n        /* \"https://github.com/Vectorized/solady/blob/e4a14a5b365b353352f7c38e699a2bc9363d6576/src/tokens/ERC20.sol\":13086:13124  result := sload(keccak256(0x0c, 0x20)) */\n      swap1\n      pop\n        /* \"https://github.com/Vectorized/solady/blob/e4a14a5b365b353352f7c38e699a2bc9363d6576/src/tokens/ERC20.sol\":12800:13140  function nonces(address owner) public view virtual returns (uint256 result) {... */\n      swap2\n      swap1\n      pop\n      jump\t// out\n        /* \"contracts/LP.sol\":512:606  function symbol() public view override returns(string memory) {... */\n    tag_53:\n        /* \"contracts/LP.sol\":559:572  string memory */\n      0x60\n        /* \"contracts/LP.sol\":592:598  s_name */\n      0x00\n        /* \"contracts/LP.sol\":585:598  return s_name */\n      dup1\n      sload\n      tag_90\n      swap1\n      tag_91\n      jump\t// in\n    tag_90:\n      dup1\n      0x1f\n      add\n      0x20\n      dup1\n      swap2\n      div\n      mul\n      0x20\n      add\n      mload(0x40)\n      swap1\n      dup2\n      add\n      0x40\n      mstore\n      dup1\n      swap3\n      swap2\n      swap1\n      dup2\n      dup2\n      mstore\n      0x20\n      add\n      dup3\n      dup1\n      sload\n      tag_92\n      swap1\n      tag_91\n      jump\t// in\n    tag_92:\n      dup1\n      iszero\n      tag_93\n      jumpi\n      dup1\n      0x1f\n      lt\n      tag_94\n      jumpi\n      0x0100\n      dup1\n      dup4\n      sload\n      div\n      mul\n      dup4\n      mstore\n      swap2\n      0x20\n      add\n      swap2\n      jump(tag_93)\n    tag_94:\n      dup3\n      add\n      swap2\n      swap1\n      0x00\n      mstore\n      keccak256(0x00, 0x20)\n      swap1\n    tag_95:\n      dup2\n      sload\n      dup2\n      mstore\n      swap1\n      0x01\n      add\n      swap1\n      0x20\n      add\n      dup1\n      dup4\n      gt\n      tag_95\n      jumpi\n      dup3\n      swap1\n      sub\n      0x1f\n      and\n      dup3\n      add\n      swap2\n    tag_93:\n      pop\n      pop\n      pop\n      pop\n      pop\n      swap1\n      pop\n        /* \"contracts/LP.sol\":512:606  function symbol() public view override returns(string memory) {... */\n      swap1\n      jump\t// out\n        /* \"https://github.com/Vectorized/solady/blob/e4a14a5b365b353352f7c38e699a2bc9363d6576/src/tokens/ERC20.sol\":8195:9601  function transfer(address to, uint256 amount) public virtual returns (bool) {... */\n    tag_57:\n        /* \"https://github.com/Vectorized/solady/blob/e4a14a5b365b353352f7c38e699a2bc9363d6576/src/tokens/ERC20.sol\":8265:8269  bool */\n      0x00\n        /* \"https://github.com/Vectorized/solady/blob/e4a14a5b365b353352f7c38e699a2bc9363d6576/src/tokens/ERC20.sol\":8281:8325  _beforeTokenTransfer(msg.sender, to, amount) */\n      tag_97\n        /* \"https://github.com/Vectorized/solady/blob/e4a14a5b365b353352f7c38e699a2bc9363d6576/src/tokens/ERC20.sol\":8302:8312  msg.sender */\n      caller\n        /* \"https://github.com/Vectorized/solady/blob/e4a14a5b365b353352f7c38e699a2bc9363d6576/src/tokens/ERC20.sol\":8314:8316  to */\n      dup5\n        /* \"https://github.com/Vectorized/solady/blob/e4a14a5b365b353352f7c38e699a2bc9363d6576/src/tokens/ERC20.sol\":8318:8324  amount */\n      dup5\n        /* \"https://github.com/Vectorized/solady/blob/e4a14a5b365b353352f7c38e699a2bc9363d6576/src/tokens/ERC20.sol\":8281:8301  _beforeTokenTransfer */\n      tag_75\n        /* \"https://github.com/Vectorized/solady/blob/e4a14a5b365b353352f7c38e699a2bc9363d6576/src/tokens/ERC20.sol\":8281:8325  _beforeTokenTransfer(msg.sender, to, amount) */\n      jump\t// in\n    tag_97:\n        /* \"https://github.com/Vectorized/solady/blob/e4a14a5b365b353352f7c38e699a2bc9363d6576/src/tokens/ERC20.sol\":8474:8492  _BALANCE_SLOT_SEED */\n      0x87a211a2\n        /* \"https://github.com/Vectorized/solady/blob/e4a14a5b365b353352f7c38e699a2bc9363d6576/src/tokens/ERC20.sol\":8468:8472  0x0c */\n      0x0c\n        /* \"https://github.com/Vectorized/solady/blob/e4a14a5b365b353352f7c38e699a2bc9363d6576/src/tokens/ERC20.sol\":8461:8493  mstore(0x0c, _BALANCE_SLOT_SEED) */\n      mstore\n        /* \"https://github.com/Vectorized/solady/blob/e4a14a5b365b353352f7c38e699a2bc9363d6576/src/tokens/ERC20.sol\":8519:8527  caller() */\n      caller\n        /* \"https://github.com/Vectorized/solady/blob/e4a14a5b365b353352f7c38e699a2bc9363d6576/src/tokens/ERC20.sol\":8513:8517  0x00 */\n      0x00\n        /* \"https://github.com/Vectorized/solady/blob/e4a14a5b365b353352f7c38e699a2bc9363d6576/src/tokens/ERC20.sol\":8506:8528  mstore(0x00, caller()) */\n      mstore\n        /* \"https://github.com/Vectorized/solady/blob/e4a14a5b365b353352f7c38e699a2bc9363d6576/src/tokens/ERC20.sol\":8580:8584  0x20 */\n      0x20\n        /* \"https://github.com/Vectorized/solady/blob/e4a14a5b365b353352f7c38e699a2bc9363d6576/src/tokens/ERC20.sol\":8574:8578  0x0c */\n      0x0c\n        /* \"https://github.com/Vectorized/solady/blob/e4a14a5b365b353352f7c38e699a2bc9363d6576/src/tokens/ERC20.sol\":8564:8585  keccak256(0x0c, 0x20) */\n      keccak256\n        /* \"https://github.com/Vectorized/solady/blob/e4a14a5b365b353352f7c38e699a2bc9363d6576/src/tokens/ERC20.sol\":8623:8638  fromBalanceSlot */\n      dup1\n        /* \"https://github.com/Vectorized/solady/blob/e4a14a5b365b353352f7c38e699a2bc9363d6576/src/tokens/ERC20.sol\":8617:8639  sload(fromBalanceSlot) */\n      sload\n        /* \"https://github.com/Vectorized/solady/blob/e4a14a5b365b353352f7c38e699a2bc9363d6576/src/tokens/ERC20.sol\":8713:8724  fromBalance */\n      dup1\n        /* \"https://github.com/Vectorized/solady/blob/e4a14a5b365b353352f7c38e699a2bc9363d6576/src/tokens/ERC20.sol\":8705:8711  amount */\n      dup5\n        /* \"https://github.com/Vectorized/solady/blob/e4a14a5b365b353352f7c38e699a2bc9363d6576/src/tokens/ERC20.sol\":8702:8725  gt(amount, fromBalance) */\n      gt\n        /* \"https://github.com/Vectorized/solady/blob/e4a14a5b365b353352f7c38e699a2bc9363d6576/src/tokens/ERC20.sol\":8699:8845  if gt(amount, fromBalance) {... */\n      iszero\n      tag_98\n      jumpi\n        /* \"https://github.com/Vectorized/solady/blob/e4a14a5b365b353352f7c38e699a2bc9363d6576/src/tokens/ERC20.sol\":8757:8767  0xf4d678b8 */\n      0xf4d678b8\n        /* \"https://github.com/Vectorized/solady/blob/e4a14a5b365b353352f7c38e699a2bc9363d6576/src/tokens/ERC20.sol\":8751:8755  0x00 */\n      0x00\n        /* \"https://github.com/Vectorized/solady/blob/e4a14a5b365b353352f7c38e699a2bc9363d6576/src/tokens/ERC20.sol\":8744:8768  mstore(0x00, 0xf4d678b8) */\n      mstore\n        /* \"https://github.com/Vectorized/solady/blob/e4a14a5b365b353352f7c38e699a2bc9363d6576/src/tokens/ERC20.sol\":8826:8830  0x04 */\n      0x04\n        /* \"https://github.com/Vectorized/solady/blob/e4a14a5b365b353352f7c38e699a2bc9363d6576/src/tokens/ERC20.sol\":8820:8824  0x1c */\n      0x1c\n        /* \"https://github.com/Vectorized/solady/blob/e4a14a5b365b353352f7c38e699a2bc9363d6576/src/tokens/ERC20.sol\":8813:8831  revert(0x1c, 0x04) */\n      revert\n        /* \"https://github.com/Vectorized/solady/blob/e4a14a5b365b353352f7c38e699a2bc9363d6576/src/tokens/ERC20.sol\":8699:8845  if gt(amount, fromBalance) {... */\n    tag_98:\n        /* \"https://github.com/Vectorized/solady/blob/e4a14a5b365b353352f7c38e699a2bc9363d6576/src/tokens/ERC20.sol\":8954:8960  amount */\n      dup4\n        /* \"https://github.com/Vectorized/solady/blob/e4a14a5b365b353352f7c38e699a2bc9363d6576/src/tokens/ERC20.sol\":8941:8952  fromBalance */\n      dup2\n        /* \"https://github.com/Vectorized/solady/blob/e4a14a5b365b353352f7c38e699a2bc9363d6576/src/tokens/ERC20.sol\":8937:8961  sub(fromBalance, amount) */\n      sub\n        /* \"https://github.com/Vectorized/solady/blob/e4a14a5b365b353352f7c38e699a2bc9363d6576/src/tokens/ERC20.sol\":8920:8935  fromBalanceSlot */\n      dup3\n        /* \"https://github.com/Vectorized/solady/blob/e4a14a5b365b353352f7c38e699a2bc9363d6576/src/tokens/ERC20.sol\":8913:8962  sstore(fromBalanceSlot, sub(fromBalance, amount)) */\n      sstore\n        /* \"https://github.com/Vectorized/solady/blob/e4a14a5b365b353352f7c38e699a2bc9363d6576/src/tokens/ERC20.sol\":9037:9039  to */\n      dup5\n        /* \"https://github.com/Vectorized/solady/blob/e4a14a5b365b353352f7c38e699a2bc9363d6576/src/tokens/ERC20.sol\":9031:9035  0x00 */\n      0x00\n        /* \"https://github.com/Vectorized/solady/blob/e4a14a5b365b353352f7c38e699a2bc9363d6576/src/tokens/ERC20.sol\":9024:9040  mstore(0x00, to) */\n      mstore\n        /* \"https://github.com/Vectorized/solady/blob/e4a14a5b365b353352f7c38e699a2bc9363d6576/src/tokens/ERC20.sol\":9090:9094  0x20 */\n      0x20\n        /* \"https://github.com/Vectorized/solady/blob/e4a14a5b365b353352f7c38e699a2bc9363d6576/src/tokens/ERC20.sol\":9084:9088  0x0c */\n      0x0c\n        /* \"https://github.com/Vectorized/solady/blob/e4a14a5b365b353352f7c38e699a2bc9363d6576/src/tokens/ERC20.sol\":9074:9095  keccak256(0x0c, 0x20) */\n      keccak256\n        /* \"https://github.com/Vectorized/solady/blob/e4a14a5b365b353352f7c38e699a2bc9363d6576/src/tokens/ERC20.sol\":9340:9346  amount */\n      dup5\n        /* \"https://github.com/Vectorized/solady/blob/e4a14a5b365b353352f7c38e699a2bc9363d6576/src/tokens/ERC20.sol\":9324:9337  toBalanceSlot */\n      dup2\n        /* \"https://github.com/Vectorized/solady/blob/e4a14a5b365b353352f7c38e699a2bc9363d6576/src/tokens/ERC20.sol\":9318:9338  sload(toBalanceSlot) */\n      sload\n        /* \"https://github.com/Vectorized/solady/blob/e4a14a5b365b353352f7c38e699a2bc9363d6576/src/tokens/ERC20.sol\":9314:9347  add(sload(toBalanceSlot), amount) */\n      add\n        /* \"https://github.com/Vectorized/solady/blob/e4a14a5b365b353352f7c38e699a2bc9363d6576/src/tokens/ERC20.sol\":9299:9312  toBalanceSlot */\n      dup2\n        /* \"https://github.com/Vectorized/solady/blob/e4a14a5b365b353352f7c38e699a2bc9363d6576/src/tokens/ERC20.sol\":9292:9348  sstore(toBalanceSlot, add(sload(toBalanceSlot), amount)) */\n      sstore\n        /* \"https://github.com/Vectorized/solady/blob/e4a14a5b365b353352f7c38e699a2bc9363d6576/src/tokens/ERC20.sol\":9416:9422  amount */\n      dup5\n        /* \"https://github.com/Vectorized/solady/blob/e4a14a5b365b353352f7c38e699a2bc9363d6576/src/tokens/ERC20.sol\":9410:9414  0x20 */\n      0x20\n        /* \"https://github.com/Vectorized/solady/blob/e4a14a5b365b353352f7c38e699a2bc9363d6576/src/tokens/ERC20.sol\":9403:9423  mstore(0x20, amount) */\n      mstore\n        /* \"https://github.com/Vectorized/solady/blob/e4a14a5b365b353352f7c38e699a2bc9363d6576/src/tokens/ERC20.sol\":9504:9508  0x0c */\n      0x0c\n        /* \"https://github.com/Vectorized/solady/blob/e4a14a5b365b353352f7c38e699a2bc9363d6576/src/tokens/ERC20.sol\":9498:9509  mload(0x0c) */\n      mload\n        /* \"https://github.com/Vectorized/solady/blob/e4a14a5b365b353352f7c38e699a2bc9363d6576/src/tokens/ERC20.sol\":9494:9496  96 */\n      0x60\n        /* \"https://github.com/Vectorized/solady/blob/e4a14a5b365b353352f7c38e699a2bc9363d6576/src/tokens/ERC20.sol\":9490:9510  shr(96, mload(0x0c)) */\n      shr\n        /* \"https://github.com/Vectorized/solady/blob/e4a14a5b365b353352f7c38e699a2bc9363d6576/src/tokens/ERC20.sol\":9480:9488  caller() */\n      caller\n        /* \"https://github.com/Vectorized/solady/blob/e4a14a5b365b353352f7c38e699a2bc9363d6576/src/tokens/ERC20.sol\":9453:9478  _TRANSFER_EVENT_SIGNATURE */\n      0xddf252ad1be2c89b69c2b068fc378daa952ba7f163c4a11628f55a4df523b3ef\n        /* \"https://github.com/Vectorized/solady/blob/e4a14a5b365b353352f7c38e699a2bc9363d6576/src/tokens/ERC20.sol\":9447:9451  0x20 */\n      0x20\n        /* \"https://github.com/Vectorized/solady/blob/e4a14a5b365b353352f7c38e699a2bc9363d6576/src/tokens/ERC20.sol\":9441:9445  0x20 */\n      dup1\n        /* \"https://github.com/Vectorized/solady/blob/e4a14a5b365b353352f7c38e699a2bc9363d6576/src/tokens/ERC20.sol\":9436:9511  log3(0x20, 0x20, _TRANSFER_EVENT_SIGNATURE, caller(), shr(96, mload(0x0c))) */\n      log3\n        /* \"https://github.com/Vectorized/solady/blob/e4a14a5b365b353352f7c38e699a2bc9363d6576/src/tokens/ERC20.sol\":8387:9521  {... */\n      pop\n      pop\n      pop\n        /* \"https://github.com/Vectorized/solady/blob/e4a14a5b365b353352f7c38e699a2bc9363d6576/src/tokens/ERC20.sol\":9530:9573  _afterTokenTransfer(msg.sender, to, amount) */\n      tag_99\n        /* \"https://github.com/Vectorized/solady/blob/e4a14a5b365b353352f7c38e699a2bc9363d6576/src/tokens/ERC20.sol\":9550:9560  msg.sender */\n      caller\n        /* \"https://github.com/Vectorized/solady/blob/e4a14a5b365b353352f7c38e699a2bc9363d6576/src/tokens/ERC20.sol\":9562:9564  to */\n      dup5\n        /* \"https://github.com/Vectorized/solady/blob/e4a14a5b365b353352f7c38e699a2bc9363d6576/src/tokens/ERC20.sol\":9566:9572  amount */\n      dup5\n        /* \"https://github.com/Vectorized/solady/blob/e4a14a5b365b353352f7c38e699a2bc9363d6576/src/tokens/ERC20.sol\":9530:9549  _afterTokenTransfer */\n      tag_80\n        /* \"https://github.com/Vectorized/solady/blob/e4a14a5b365b353352f7c38e699a2bc9363d6576/src/tokens/ERC20.sol\":9530:9573  _afterTokenTransfer(msg.sender, to, amount) */\n      jump\t// in\n    tag_99:\n        /* \"https://github.com/Vectorized/solady/blob/e4a14a5b365b353352f7c38e699a2bc9363d6576/src/tokens/ERC20.sol\":9590:9594  true */\n      0x01\n        /* \"https://github.com/Vectorized/solady/blob/e4a14a5b365b353352f7c38e699a2bc9363d6576/src/tokens/ERC20.sol\":9583:9594  return true */\n      swap1\n      pop\n        /* \"https://github.com/Vectorized/solady/blob/e4a14a5b365b353352f7c38e699a2bc9363d6576/src/tokens/ERC20.sol\":8195:9601  function transfer(address to, uint256 amount) public virtual returns (bool) {... */\n      swap3\n      swap2\n      pop\n      pop\n      jump\t// out\n        /* \"https://github.com/Vectorized/solady/blob/e4a14a5b365b353352f7c38e699a2bc9363d6576/src/tokens/ERC20.sol\":13324:16539  function permit(... */\n    tag_62:\n        /* \"https://github.com/Vectorized/solady/blob/e4a14a5b365b353352f7c38e699a2bc9363d6576/src/tokens/ERC20.sol\":13523:13539  bytes32 nameHash */\n      0x00\n        /* \"https://github.com/Vectorized/solady/blob/e4a14a5b365b353352f7c38e699a2bc9363d6576/src/tokens/ERC20.sol\":13542:13561  _constantNameHash() */\n      tag_101\n        /* \"https://github.com/Vectorized/solady/blob/e4a14a5b365b353352f7c38e699a2bc9363d6576/src/tokens/ERC20.sol\":13542:13559  _constantNameHash */\n      tag_84\n        /* \"https://github.com/Vectorized/solady/blob/e4a14a5b365b353352f7c38e699a2bc9363d6576/src/tokens/ERC20.sol\":13542:13561  _constantNameHash() */\n      jump\t// in\n    tag_101:\n        /* \"https://github.com/Vectorized/solady/blob/e4a14a5b365b353352f7c38e699a2bc9363d6576/src/tokens/ERC20.sol\":13523:13561  bytes32 nameHash = _constantNameHash() */\n      swap1\n      pop\n        /* \"https://github.com/Vectorized/solady/blob/e4a14a5b365b353352f7c38e699a2bc9363d6576/src/tokens/ERC20.sol\":13689:13690  0 */\n      0x00\n        /* \"https://github.com/Vectorized/solady/blob/e4a14a5b365b353352f7c38e699a2bc9363d6576/src/tokens/ERC20.sol\":13681:13691  bytes32(0) */\n      dup1\n      shl\n        /* \"https://github.com/Vectorized/solady/blob/e4a14a5b365b353352f7c38e699a2bc9363d6576/src/tokens/ERC20.sol\":13669:13677  nameHash */\n      dup2\n        /* \"https://github.com/Vectorized/solady/blob/e4a14a5b365b353352f7c38e699a2bc9363d6576/src/tokens/ERC20.sol\":13669:13691  nameHash == bytes32(0) */\n      sub\n        /* \"https://github.com/Vectorized/solady/blob/e4a14a5b365b353352f7c38e699a2bc9363d6576/src/tokens/ERC20.sol\":13665:13728  if (nameHash == bytes32(0)) nameHash = keccak256(bytes(name())) */\n      tag_102\n      jumpi\n        /* \"https://github.com/Vectorized/solady/blob/e4a14a5b365b353352f7c38e699a2bc9363d6576/src/tokens/ERC20.sol\":13720:13726  name() */\n      tag_103\n        /* \"https://github.com/Vectorized/solady/blob/e4a14a5b365b353352f7c38e699a2bc9363d6576/src/tokens/ERC20.sol\":13720:13724  name */\n      tag_17\n        /* \"https://github.com/Vectorized/solady/blob/e4a14a5b365b353352f7c38e699a2bc9363d6576/src/tokens/ERC20.sol\":13720:13726  name() */\n      jump\t// in\n    tag_103:\n        /* \"https://github.com/Vectorized/solady/blob/e4a14a5b365b353352f7c38e699a2bc9363d6576/src/tokens/ERC20.sol\":13704:13728  keccak256(bytes(name())) */\n      dup1\n      mload\n      swap1\n      0x20\n      add\n      keccak256\n        /* \"https://github.com/Vectorized/solady/blob/e4a14a5b365b353352f7c38e699a2bc9363d6576/src/tokens/ERC20.sol\":13693:13728  nameHash = keccak256(bytes(name())) */\n      swap1\n      pop\n        /* \"https://github.com/Vectorized/solady/blob/e4a14a5b365b353352f7c38e699a2bc9363d6576/src/tokens/ERC20.sol\":13665:13728  if (nameHash == bytes32(0)) nameHash = keccak256(bytes(name())) */\n    tag_102:\n        /* \"https://github.com/Vectorized/solady/blob/e4a14a5b365b353352f7c38e699a2bc9363d6576/src/tokens/ERC20.sol\":13896:13904  deadline */\n      dup5\n        /* \"https://github.com/Vectorized/solady/blob/e4a14a5b365b353352f7c38e699a2bc9363d6576/src/tokens/ERC20.sol\":13883:13894  timestamp() */\n      timestamp\n        /* \"https://github.com/Vectorized/solady/blob/e4a14a5b365b353352f7c38e699a2bc9363d6576/src/tokens/ERC20.sol\":13880:13905  gt(timestamp(), deadline) */\n      gt\n        /* \"https://github.com/Vectorized/solady/blob/e4a14a5b365b353352f7c38e699a2bc9363d6576/src/tokens/ERC20.sol\":13877:14019  if gt(timestamp(), deadline) {... */\n      iszero\n      tag_104\n      jumpi\n        /* \"https://github.com/Vectorized/solady/blob/e4a14a5b365b353352f7c38e699a2bc9363d6576/src/tokens/ERC20.sol\":13937:13947  0x1a15a3cc */\n      0x1a15a3cc\n        /* \"https://github.com/Vectorized/solady/blob/e4a14a5b365b353352f7c38e699a2bc9363d6576/src/tokens/ERC20.sol\":13931:13935  0x00 */\n      0x00\n        /* \"https://github.com/Vectorized/solady/blob/e4a14a5b365b353352f7c38e699a2bc9363d6576/src/tokens/ERC20.sol\":13924:13948  mstore(0x00, 0x1a15a3cc) */\n      mstore\n        /* \"https://github.com/Vectorized/solady/blob/e4a14a5b365b353352f7c38e699a2bc9363d6576/src/tokens/ERC20.sol\":14000:14004  0x04 */\n      0x04\n        /* \"https://github.com/Vectorized/solady/blob/e4a14a5b365b353352f7c38e699a2bc9363d6576/src/tokens/ERC20.sol\":13994:13998  0x1c */\n      0x1c\n        /* \"https://github.com/Vectorized/solady/blob/e4a14a5b365b353352f7c38e699a2bc9363d6576/src/tokens/ERC20.sol\":13987:14005  revert(0x1c, 0x04) */\n      revert\n        /* \"https://github.com/Vectorized/solady/blob/e4a14a5b365b353352f7c38e699a2bc9363d6576/src/tokens/ERC20.sol\":13877:14019  if gt(timestamp(), deadline) {... */\n    tag_104:\n        /* \"https://github.com/Vectorized/solady/blob/e4a14a5b365b353352f7c38e699a2bc9363d6576/src/tokens/ERC20.sol\":14047:14051  0x40 */\n      0x40\n        /* \"https://github.com/Vectorized/solady/blob/e4a14a5b365b353352f7c38e699a2bc9363d6576/src/tokens/ERC20.sol\":14041:14052  mload(0x40) */\n      mload\n        /* \"https://github.com/Vectorized/solady/blob/e4a14a5b365b353352f7c38e699a2bc9363d6576/src/tokens/ERC20.sol\":14163:14168  owner */\n      dup9\n        /* \"https://github.com/Vectorized/solady/blob/e4a14a5b365b353352f7c38e699a2bc9363d6576/src/tokens/ERC20.sol\":14159:14161  96 */\n      0x60\n        /* \"https://github.com/Vectorized/solady/blob/e4a14a5b365b353352f7c38e699a2bc9363d6576/src/tokens/ERC20.sol\":14155:14169  shl(96, owner) */\n      shl\n        /* \"https://github.com/Vectorized/solady/blob/e4a14a5b365b353352f7c38e699a2bc9363d6576/src/tokens/ERC20.sol\":14151:14153  96 */\n      0x60\n        /* \"https://github.com/Vectorized/solady/blob/e4a14a5b365b353352f7c38e699a2bc9363d6576/src/tokens/ERC20.sol\":14147:14170  shr(96, shl(96, owner)) */\n      shr\n        /* \"https://github.com/Vectorized/solady/blob/e4a14a5b365b353352f7c38e699a2bc9363d6576/src/tokens/ERC20.sol\":14138:14170  owner := shr(96, shl(96, owner)) */\n      swap9\n      pop\n        /* \"https://github.com/Vectorized/solady/blob/e4a14a5b365b353352f7c38e699a2bc9363d6576/src/tokens/ERC20.sol\":14210:14217  spender */\n      dup8\n        /* \"https://github.com/Vectorized/solady/blob/e4a14a5b365b353352f7c38e699a2bc9363d6576/src/tokens/ERC20.sol\":14206:14208  96 */\n      0x60\n        /* \"https://github.com/Vectorized/solady/blob/e4a14a5b365b353352f7c38e699a2bc9363d6576/src/tokens/ERC20.sol\":14202:14218  shl(96, spender) */\n      shl\n        /* \"https://github.com/Vectorized/solady/blob/e4a14a5b365b353352f7c38e699a2bc9363d6576/src/tokens/ERC20.sol\":14198:14200  96 */\n      0x60\n        /* \"https://github.com/Vectorized/solady/blob/e4a14a5b365b353352f7c38e699a2bc9363d6576/src/tokens/ERC20.sol\":14194:14219  shr(96, shl(96, spender)) */\n      shr\n        /* \"https://github.com/Vectorized/solady/blob/e4a14a5b365b353352f7c38e699a2bc9363d6576/src/tokens/ERC20.sol\":14183:14219  spender := shr(96, shl(96, spender)) */\n      swap8\n      pop\n        /* \"https://github.com/Vectorized/solady/blob/e4a14a5b365b353352f7c38e699a2bc9363d6576/src/tokens/ERC20.sol\":14303:14342  _NONCES_SLOT_SEED_WITH_SIGNATURE_PREFIX */\n      0x383775081901\n        /* \"https://github.com/Vectorized/solady/blob/e4a14a5b365b353352f7c38e699a2bc9363d6576/src/tokens/ERC20.sol\":14297:14301  0x0e */\n      0x0e\n        /* \"https://github.com/Vectorized/solady/blob/e4a14a5b365b353352f7c38e699a2bc9363d6576/src/tokens/ERC20.sol\":14290:14343  mstore(0x0e, _NONCES_SLOT_SEED_WITH_SIGNATURE_PREFIX) */\n      mstore\n        /* \"https://github.com/Vectorized/solady/blob/e4a14a5b365b353352f7c38e699a2bc9363d6576/src/tokens/ERC20.sol\":14369:14374  owner */\n      dup9\n        /* \"https://github.com/Vectorized/solady/blob/e4a14a5b365b353352f7c38e699a2bc9363d6576/src/tokens/ERC20.sol\":14363:14367  0x00 */\n      0x00\n        /* \"https://github.com/Vectorized/solady/blob/e4a14a5b365b353352f7c38e699a2bc9363d6576/src/tokens/ERC20.sol\":14356:14375  mstore(0x00, owner) */\n      mstore\n        /* \"https://github.com/Vectorized/solady/blob/e4a14a5b365b353352f7c38e699a2bc9363d6576/src/tokens/ERC20.sol\":14421:14425  0x20 */\n      0x20\n        /* \"https://github.com/Vectorized/solady/blob/e4a14a5b365b353352f7c38e699a2bc9363d6576/src/tokens/ERC20.sol\":14415:14419  0x0c */\n      0x0c\n        /* \"https://github.com/Vectorized/solady/blob/e4a14a5b365b353352f7c38e699a2bc9363d6576/src/tokens/ERC20.sol\":14405:14426  keccak256(0x0c, 0x20) */\n      keccak256\n        /* \"https://github.com/Vectorized/solady/blob/e4a14a5b365b353352f7c38e699a2bc9363d6576/src/tokens/ERC20.sol\":14463:14472  nonceSlot */\n      dup1\n        /* \"https://github.com/Vectorized/solady/blob/e4a14a5b365b353352f7c38e699a2bc9363d6576/src/tokens/ERC20.sol\":14457:14473  sload(nonceSlot) */\n      sload\n        /* \"https://github.com/Vectorized/solady/blob/e4a14a5b365b353352f7c38e699a2bc9363d6576/src/tokens/ERC20.sol\":14541:14557  _DOMAIN_TYPEHASH */\n      0x8b73c3c69bb8fe3d512ecc4cf759cc79239f7b179b0ffacaa9a75d522b39400f\n        /* \"https://github.com/Vectorized/solady/blob/e4a14a5b365b353352f7c38e699a2bc9363d6576/src/tokens/ERC20.sol\":14538:14539  m */\n      dup4\n        /* \"https://github.com/Vectorized/solady/blob/e4a14a5b365b353352f7c38e699a2bc9363d6576/src/tokens/ERC20.sol\":14531:14558  mstore(m, _DOMAIN_TYPEHASH) */\n      mstore\n        /* \"https://github.com/Vectorized/solady/blob/e4a14a5b365b353352f7c38e699a2bc9363d6576/src/tokens/ERC20.sol\":14592:14600  nameHash */\n      dup4\n        /* \"https://github.com/Vectorized/solady/blob/e4a14a5b365b353352f7c38e699a2bc9363d6576/src/tokens/ERC20.sol\":14585:14589  0x20 */\n      0x20\n        /* \"https://github.com/Vectorized/solady/blob/e4a14a5b365b353352f7c38e699a2bc9363d6576/src/tokens/ERC20.sol\":14582:14583  m */\n      dup5\n        /* \"https://github.com/Vectorized/solady/blob/e4a14a5b365b353352f7c38e699a2bc9363d6576/src/tokens/ERC20.sol\":14578:14590  add(m, 0x20) */\n      add\n        /* \"https://github.com/Vectorized/solady/blob/e4a14a5b365b353352f7c38e699a2bc9363d6576/src/tokens/ERC20.sol\":14571:14601  mstore(add(m, 0x20), nameHash) */\n      mstore\n        /* \"https://github.com/Vectorized/solady/blob/e4a14a5b365b353352f7c38e699a2bc9363d6576/src/tokens/ERC20.sol\":14635:14648  _VERSION_HASH */\n      0xc89efdaa54c0f20c7adf612882df0950f5a951637e0307cdcb4c672f298b8bc6\n        /* \"https://github.com/Vectorized/solady/blob/e4a14a5b365b353352f7c38e699a2bc9363d6576/src/tokens/ERC20.sol\":14628:14632  0x40 */\n      0x40\n        /* \"https://github.com/Vectorized/solady/blob/e4a14a5b365b353352f7c38e699a2bc9363d6576/src/tokens/ERC20.sol\":14625:14626  m */\n      dup5\n        /* \"https://github.com/Vectorized/solady/blob/e4a14a5b365b353352f7c38e699a2bc9363d6576/src/tokens/ERC20.sol\":14621:14633  add(m, 0x40) */\n      add\n        /* \"https://github.com/Vectorized/solady/blob/e4a14a5b365b353352f7c38e699a2bc9363d6576/src/tokens/ERC20.sol\":14614:14649  mstore(add(m, 0x40), _VERSION_HASH) */\n      mstore\n        /* \"https://github.com/Vectorized/solady/blob/e4a14a5b365b353352f7c38e699a2bc9363d6576/src/tokens/ERC20.sol\":14683:14692  chainid() */\n      chainid\n        /* \"https://github.com/Vectorized/solady/blob/e4a14a5b365b353352f7c38e699a2bc9363d6576/src/tokens/ERC20.sol\":14676:14680  0x60 */\n      0x60\n        /* \"https://github.com/Vectorized/solady/blob/e4a14a5b365b353352f7c38e699a2bc9363d6576/src/tokens/ERC20.sol\":14673:14674  m */\n      dup5\n        /* \"https://github.com/Vectorized/solady/blob/e4a14a5b365b353352f7c38e699a2bc9363d6576/src/tokens/ERC20.sol\":14669:14681  add(m, 0x60) */\n      add\n        /* \"https://github.com/Vectorized/solady/blob/e4a14a5b365b353352f7c38e699a2bc9363d6576/src/tokens/ERC20.sol\":14662:14693  mstore(add(m, 0x60), chainid()) */\n      mstore\n        /* \"https://github.com/Vectorized/solady/blob/e4a14a5b365b353352f7c38e699a2bc9363d6576/src/tokens/ERC20.sol\":14727:14736  address() */\n      address\n        /* \"https://github.com/Vectorized/solady/blob/e4a14a5b365b353352f7c38e699a2bc9363d6576/src/tokens/ERC20.sol\":14720:14724  0x80 */\n      0x80\n        /* \"https://github.com/Vectorized/solady/blob/e4a14a5b365b353352f7c38e699a2bc9363d6576/src/tokens/ERC20.sol\":14717:14718  m */\n      dup5\n        /* \"https://github.com/Vectorized/solady/blob/e4a14a5b365b353352f7c38e699a2bc9363d6576/src/tokens/ERC20.sol\":14713:14725  add(m, 0x80) */\n      add\n        /* \"https://github.com/Vectorized/solady/blob/e4a14a5b365b353352f7c38e699a2bc9363d6576/src/tokens/ERC20.sol\":14706:14737  mstore(add(m, 0x80), address()) */\n      mstore\n        /* \"https://github.com/Vectorized/solady/blob/e4a14a5b365b353352f7c38e699a2bc9363d6576/src/tokens/ERC20.sol\":14776:14780  0xa0 */\n      0xa0\n        /* \"https://github.com/Vectorized/solady/blob/e4a14a5b365b353352f7c38e699a2bc9363d6576/src/tokens/ERC20.sol\":14773:14774  m */\n      dup4\n        /* \"https://github.com/Vectorized/solady/blob/e4a14a5b365b353352f7c38e699a2bc9363d6576/src/tokens/ERC20.sol\":14763:14781  keccak256(m, 0xa0) */\n      keccak256\n        /* \"https://github.com/Vectorized/solady/blob/e4a14a5b365b353352f7c38e699a2bc9363d6576/src/tokens/ERC20.sol\":14757:14761  0x2e */\n      0x2e\n        /* \"https://github.com/Vectorized/solady/blob/e4a14a5b365b353352f7c38e699a2bc9363d6576/src/tokens/ERC20.sol\":14750:14782  mstore(0x2e, keccak256(m, 0xa0)) */\n      mstore\n        /* \"https://github.com/Vectorized/solady/blob/e4a14a5b365b353352f7c38e699a2bc9363d6576/src/tokens/ERC20.sol\":14845:14861  _PERMIT_TYPEHASH */\n      0x6e71edae12b1b97f4d1f60370fef10105fa2faae0126114a169c64845d6126c9\n        /* \"https://github.com/Vectorized/solady/blob/e4a14a5b365b353352f7c38e699a2bc9363d6576/src/tokens/ERC20.sol\":14842:14843  m */\n      dup4\n        /* \"https://github.com/Vectorized/solady/blob/e4a14a5b365b353352f7c38e699a2bc9363d6576/src/tokens/ERC20.sol\":14835:14862  mstore(m, _PERMIT_TYPEHASH) */\n      mstore\n        /* \"https://github.com/Vectorized/solady/blob/e4a14a5b365b353352f7c38e699a2bc9363d6576/src/tokens/ERC20.sol\":14896:14901  owner */\n      dup11\n        /* \"https://github.com/Vectorized/solady/blob/e4a14a5b365b353352f7c38e699a2bc9363d6576/src/tokens/ERC20.sol\":14889:14893  0x20 */\n      0x20\n        /* \"https://github.com/Vectorized/solady/blob/e4a14a5b365b353352f7c38e699a2bc9363d6576/src/tokens/ERC20.sol\":14886:14887  m */\n      dup5\n        /* \"https://github.com/Vectorized/solady/blob/e4a14a5b365b353352f7c38e699a2bc9363d6576/src/tokens/ERC20.sol\":14882:14894  add(m, 0x20) */\n      add\n        /* \"https://github.com/Vectorized/solady/blob/e4a14a5b365b353352f7c38e699a2bc9363d6576/src/tokens/ERC20.sol\":14875:14902  mstore(add(m, 0x20), owner) */\n      mstore\n        /* \"https://github.com/Vectorized/solady/blob/e4a14a5b365b353352f7c38e699a2bc9363d6576/src/tokens/ERC20.sol\":14936:14943  spender */\n      dup10\n        /* \"https://github.com/Vectorized/solady/blob/e4a14a5b365b353352f7c38e699a2bc9363d6576/src/tokens/ERC20.sol\":14929:14933  0x40 */\n      0x40\n        /* \"https://github.com/Vectorized/solady/blob/e4a14a5b365b353352f7c38e699a2bc9363d6576/src/tokens/ERC20.sol\":14926:14927  m */\n      dup5\n        /* \"https://github.com/Vectorized/solady/blob/e4a14a5b365b353352f7c38e699a2bc9363d6576/src/tokens/ERC20.sol\":14922:14934  add(m, 0x40) */\n      add\n        /* \"https://github.com/Vectorized/solady/blob/e4a14a5b365b353352f7c38e699a2bc9363d6576/src/tokens/ERC20.sol\":14915:14944  mstore(add(m, 0x40), spender) */\n      mstore\n        /* \"https://github.com/Vectorized/solady/blob/e4a14a5b365b353352f7c38e699a2bc9363d6576/src/tokens/ERC20.sol\":14978:14983  value */\n      dup9\n        /* \"https://github.com/Vectorized/solady/blob/e4a14a5b365b353352f7c38e699a2bc9363d6576/src/tokens/ERC20.sol\":14971:14975  0x60 */\n      0x60\n        /* \"https://github.com/Vectorized/solady/blob/e4a14a5b365b353352f7c38e699a2bc9363d6576/src/tokens/ERC20.sol\":14968:14969  m */\n      dup5\n        /* \"https://github.com/Vectorized/solady/blob/e4a14a5b365b353352f7c38e699a2bc9363d6576/src/tokens/ERC20.sol\":14964:14976  add(m, 0x60) */\n      add\n        /* \"https://github.com/Vectorized/solady/blob/e4a14a5b365b353352f7c38e699a2bc9363d6576/src/tokens/ERC20.sol\":14957:14984  mstore(add(m, 0x60), value) */\n      mstore\n        /* \"https://github.com/Vectorized/solady/blob/e4a14a5b365b353352f7c38e699a2bc9363d6576/src/tokens/ERC20.sol\":15018:15028  nonceValue */\n      dup1\n        /* \"https://github.com/Vectorized/solady/blob/e4a14a5b365b353352f7c38e699a2bc9363d6576/src/tokens/ERC20.sol\":15011:15015  0x80 */\n      0x80\n        /* \"https://github.com/Vectorized/solady/blob/e4a14a5b365b353352f7c38e699a2bc9363d6576/src/tokens/ERC20.sol\":15008:15009  m */\n      dup5\n        /* \"https://github.com/Vectorized/solady/blob/e4a14a5b365b353352f7c38e699a2bc9363d6576/src/tokens/ERC20.sol\":15004:15016  add(m, 0x80) */\n      add\n        /* \"https://github.com/Vectorized/solady/blob/e4a14a5b365b353352f7c38e699a2bc9363d6576/src/tokens/ERC20.sol\":14997:15029  mstore(add(m, 0x80), nonceValue) */\n      mstore\n        /* \"https://github.com/Vectorized/solady/blob/e4a14a5b365b353352f7c38e699a2bc9363d6576/src/tokens/ERC20.sol\":15063:15071  deadline */\n      dup8\n        /* \"https://github.com/Vectorized/solady/blob/e4a14a5b365b353352f7c38e699a2bc9363d6576/src/tokens/ERC20.sol\":15056:15060  0xa0 */\n      0xa0\n        /* \"https://github.com/Vectorized/solady/blob/e4a14a5b365b353352f7c38e699a2bc9363d6576/src/tokens/ERC20.sol\":15053:15054  m */\n      dup5\n        /* \"https://github.com/Vectorized/solady/blob/e4a14a5b365b353352f7c38e699a2bc9363d6576/src/tokens/ERC20.sol\":15049:15061  add(m, 0xa0) */\n      add\n        /* \"https://github.com/Vectorized/solady/blob/e4a14a5b365b353352f7c38e699a2bc9363d6576/src/tokens/ERC20.sol\":15042:15072  mstore(add(m, 0xa0), deadline) */\n      mstore\n        /* \"https://github.com/Vectorized/solady/blob/e4a14a5b365b353352f7c38e699a2bc9363d6576/src/tokens/ERC20.sol\":15111:15115  0xc0 */\n      0xc0\n        /* \"https://github.com/Vectorized/solady/blob/e4a14a5b365b353352f7c38e699a2bc9363d6576/src/tokens/ERC20.sol\":15108:15109  m */\n      dup4\n        /* \"https://github.com/Vectorized/solady/blob/e4a14a5b365b353352f7c38e699a2bc9363d6576/src/tokens/ERC20.sol\":15098:15116  keccak256(m, 0xc0) */\n      keccak256\n        /* \"https://github.com/Vectorized/solady/blob/e4a14a5b365b353352f7c38e699a2bc9363d6576/src/tokens/ERC20.sol\":15092:15096  0x4e */\n      0x4e\n        /* \"https://github.com/Vectorized/solady/blob/e4a14a5b365b353352f7c38e699a2bc9363d6576/src/tokens/ERC20.sol\":15085:15117  mstore(0x4e, keccak256(m, 0xc0)) */\n      mstore\n        /* \"https://github.com/Vectorized/solady/blob/e4a14a5b365b353352f7c38e699a2bc9363d6576/src/tokens/ERC20.sol\":15206:15210  0x42 */\n      0x42\n        /* \"https://github.com/Vectorized/solady/blob/e4a14a5b365b353352f7c38e699a2bc9363d6576/src/tokens/ERC20.sol\":15200:15204  0x2c */\n      0x2c\n        /* \"https://github.com/Vectorized/solady/blob/e4a14a5b365b353352f7c38e699a2bc9363d6576/src/tokens/ERC20.sol\":15190:15211  keccak256(0x2c, 0x42) */\n      keccak256\n        /* \"https://github.com/Vectorized/solady/blob/e4a14a5b365b353352f7c38e699a2bc9363d6576/src/tokens/ERC20.sol\":15184:15188  0x00 */\n      0x00\n        /* \"https://github.com/Vectorized/solady/blob/e4a14a5b365b353352f7c38e699a2bc9363d6576/src/tokens/ERC20.sol\":15177:15212  mstore(0x00, keccak256(0x2c, 0x42)) */\n      mstore\n        /* \"https://github.com/Vectorized/solady/blob/e4a14a5b365b353352f7c38e699a2bc9363d6576/src/tokens/ERC20.sol\":15248:15249  v */\n      dup7\n        /* \"https://github.com/Vectorized/solady/blob/e4a14a5b365b353352f7c38e699a2bc9363d6576/src/tokens/ERC20.sol\":15242:15246  0xff */\n      0xff\n        /* \"https://github.com/Vectorized/solady/blob/e4a14a5b365b353352f7c38e699a2bc9363d6576/src/tokens/ERC20.sol\":15238:15250  and(0xff, v) */\n      and\n        /* \"https://github.com/Vectorized/solady/blob/e4a14a5b365b353352f7c38e699a2bc9363d6576/src/tokens/ERC20.sol\":15232:15236  0x20 */\n      0x20\n        /* \"https://github.com/Vectorized/solady/blob/e4a14a5b365b353352f7c38e699a2bc9363d6576/src/tokens/ERC20.sol\":15225:15251  mstore(0x20, and(0xff, v)) */\n      mstore\n        /* \"https://github.com/Vectorized/solady/blob/e4a14a5b365b353352f7c38e699a2bc9363d6576/src/tokens/ERC20.sol\":15277:15278  r */\n      dup6\n        /* \"https://github.com/Vectorized/solady/blob/e4a14a5b365b353352f7c38e699a2bc9363d6576/src/tokens/ERC20.sol\":15271:15275  0x40 */\n      0x40\n        /* \"https://github.com/Vectorized/solady/blob/e4a14a5b365b353352f7c38e699a2bc9363d6576/src/tokens/ERC20.sol\":15264:15279  mstore(0x40, r) */\n      mstore\n        /* \"https://github.com/Vectorized/solady/blob/e4a14a5b365b353352f7c38e699a2bc9363d6576/src/tokens/ERC20.sol\":15305:15306  s */\n      dup5\n        /* \"https://github.com/Vectorized/solady/blob/e4a14a5b365b353352f7c38e699a2bc9363d6576/src/tokens/ERC20.sol\":15299:15303  0x60 */\n      0x60\n        /* \"https://github.com/Vectorized/solady/blob/e4a14a5b365b353352f7c38e699a2bc9363d6576/src/tokens/ERC20.sol\":15292:15307  mstore(0x60, s) */\n      mstore\n        /* \"https://github.com/Vectorized/solady/blob/e4a14a5b365b353352f7c38e699a2bc9363d6576/src/tokens/ERC20.sol\":15365:15369  0x20 */\n      0x20\n        /* \"https://github.com/Vectorized/solady/blob/e4a14a5b365b353352f7c38e699a2bc9363d6576/src/tokens/ERC20.sol\":15359:15363  0x20 */\n      dup1\n        /* \"https://github.com/Vectorized/solady/blob/e4a14a5b365b353352f7c38e699a2bc9363d6576/src/tokens/ERC20.sol\":15353:15357  0x80 */\n      0x80\n        /* \"https://github.com/Vectorized/solady/blob/e4a14a5b365b353352f7c38e699a2bc9363d6576/src/tokens/ERC20.sol\":15350:15351  0 */\n      0x00\n        /* \"https://github.com/Vectorized/solady/blob/e4a14a5b365b353352f7c38e699a2bc9363d6576/src/tokens/ERC20.sol\":15347:15348  1 */\n      0x01\n        /* \"https://github.com/Vectorized/solady/blob/e4a14a5b365b353352f7c38e699a2bc9363d6576/src/tokens/ERC20.sol\":15340:15345  gas() */\n      gas\n        /* \"https://github.com/Vectorized/solady/blob/e4a14a5b365b353352f7c38e699a2bc9363d6576/src/tokens/ERC20.sol\":15329:15370  staticcall(gas(), 1, 0, 0x80, 0x20, 0x20) */\n      staticcall\n        /* \"https://github.com/Vectorized/solady/blob/e4a14a5b365b353352f7c38e699a2bc9363d6576/src/tokens/ERC20.sol\":15786:15791  owner */\n      dup12\n        /* \"https://github.com/Vectorized/solady/blob/e4a14a5b365b353352f7c38e699a2bc9363d6576/src/tokens/ERC20.sol\":15767:15783  returndatasize() */\n      returndatasize\n        /* \"https://github.com/Vectorized/solady/blob/e4a14a5b365b353352f7c38e699a2bc9363d6576/src/tokens/ERC20.sol\":15761:15784  mload(returndatasize()) */\n      mload\n        /* \"https://github.com/Vectorized/solady/blob/e4a14a5b365b353352f7c38e699a2bc9363d6576/src/tokens/ERC20.sol\":15758:15792  eq(mload(returndatasize()), owner) */\n      eq\n        /* \"https://github.com/Vectorized/solady/blob/e4a14a5b365b353352f7c38e699a2bc9363d6576/src/tokens/ERC20.sol\":15748:15907  if iszero(eq(mload(returndatasize()), owner)) {... */\n      tag_105\n      jumpi\n        /* \"https://github.com/Vectorized/solady/blob/e4a14a5b365b353352f7c38e699a2bc9363d6576/src/tokens/ERC20.sol\":15825:15835  0xddafbaef */\n      0xddafbaef\n        /* \"https://github.com/Vectorized/solady/blob/e4a14a5b365b353352f7c38e699a2bc9363d6576/src/tokens/ERC20.sol\":15819:15823  0x00 */\n      0x00\n        /* \"https://github.com/Vectorized/solady/blob/e4a14a5b365b353352f7c38e699a2bc9363d6576/src/tokens/ERC20.sol\":15812:15836  mstore(0x00, 0xddafbaef) */\n      mstore\n        /* \"https://github.com/Vectorized/solady/blob/e4a14a5b365b353352f7c38e699a2bc9363d6576/src/tokens/ERC20.sol\":15888:15892  0x04 */\n      0x04\n        /* \"https://github.com/Vectorized/solady/blob/e4a14a5b365b353352f7c38e699a2bc9363d6576/src/tokens/ERC20.sol\":15882:15886  0x1c */\n      0x1c\n        /* \"https://github.com/Vectorized/solady/blob/e4a14a5b365b353352f7c38e699a2bc9363d6576/src/tokens/ERC20.sol\":15875:15893  revert(0x1c, 0x04) */\n      revert\n        /* \"https://github.com/Vectorized/solady/blob/e4a14a5b365b353352f7c38e699a2bc9363d6576/src/tokens/ERC20.sol\":15748:15907  if iszero(eq(mload(returndatasize()), owner)) {... */\n    tag_105:\n        /* \"https://github.com/Vectorized/solady/blob/e4a14a5b365b353352f7c38e699a2bc9363d6576/src/tokens/ERC20.sol\":16008:16009  t */\n      dup1\n        /* \"https://github.com/Vectorized/solady/blob/e4a14a5b365b353352f7c38e699a2bc9363d6576/src/tokens/ERC20.sol\":15996:16006  nonceValue */\n      dup3\n        /* \"https://github.com/Vectorized/solady/blob/e4a14a5b365b353352f7c38e699a2bc9363d6576/src/tokens/ERC20.sol\":15992:16010  add(nonceValue, t) */\n      add\n        /* \"https://github.com/Vectorized/solady/blob/e4a14a5b365b353352f7c38e699a2bc9363d6576/src/tokens/ERC20.sol\":15981:15990  nonceSlot */\n      dup4\n        /* \"https://github.com/Vectorized/solady/blob/e4a14a5b365b353352f7c38e699a2bc9363d6576/src/tokens/ERC20.sol\":15974:16011  sstore(nonceSlot, add(nonceValue, t)) */\n      sstore\n        /* \"https://github.com/Vectorized/solady/blob/e4a14a5b365b353352f7c38e699a2bc9363d6576/src/tokens/ERC20.sol\":16222:16229  spender */\n      dup11\n        /* \"https://github.com/Vectorized/solady/blob/e4a14a5b365b353352f7c38e699a2bc9363d6576/src/tokens/ERC20.sol\":16199:16219  _ALLOWANCE_SLOT_SEED */\n      0x7f5e9f20\n        /* \"https://github.com/Vectorized/solady/blob/e4a14a5b365b353352f7c38e699a2bc9363d6576/src/tokens/ERC20.sol\":16194:16197  160 */\n      0xa0\n        /* \"https://github.com/Vectorized/solady/blob/e4a14a5b365b353352f7c38e699a2bc9363d6576/src/tokens/ERC20.sol\":16190:16220  shl(160, _ALLOWANCE_SLOT_SEED) */\n      shl\n        /* \"https://github.com/Vectorized/solady/blob/e4a14a5b365b353352f7c38e699a2bc9363d6576/src/tokens/ERC20.sol\":16187:16230  or(shl(160, _ALLOWANCE_SLOT_SEED), spender) */\n      or\n        /* \"https://github.com/Vectorized/solady/blob/e4a14a5b365b353352f7c38e699a2bc9363d6576/src/tokens/ERC20.sol\":16181:16185  0x40 */\n      0x40\n        /* \"https://github.com/Vectorized/solady/blob/e4a14a5b365b353352f7c38e699a2bc9363d6576/src/tokens/ERC20.sol\":16174:16231  mstore(0x40, or(shl(160, _ALLOWANCE_SLOT_SEED), spender)) */\n      mstore\n        /* \"https://github.com/Vectorized/solady/blob/e4a14a5b365b353352f7c38e699a2bc9363d6576/src/tokens/ERC20.sol\":16274:16279  value */\n      dup10\n        /* \"https://github.com/Vectorized/solady/blob/e4a14a5b365b353352f7c38e699a2bc9363d6576/src/tokens/ERC20.sol\":16267:16271  0x34 */\n      0x34\n        /* \"https://github.com/Vectorized/solady/blob/e4a14a5b365b353352f7c38e699a2bc9363d6576/src/tokens/ERC20.sol\":16261:16265  0x2c */\n      0x2c\n        /* \"https://github.com/Vectorized/solady/blob/e4a14a5b365b353352f7c38e699a2bc9363d6576/src/tokens/ERC20.sol\":16251:16272  keccak256(0x2c, 0x34) */\n      keccak256\n        /* \"https://github.com/Vectorized/solady/blob/e4a14a5b365b353352f7c38e699a2bc9363d6576/src/tokens/ERC20.sol\":16244:16280  sstore(keccak256(0x2c, 0x34), value) */\n      sstore\n        /* \"https://github.com/Vectorized/solady/blob/e4a14a5b365b353352f7c38e699a2bc9363d6576/src/tokens/ERC20.sol\":16394:16401  spender */\n      dup11\n        /* \"https://github.com/Vectorized/solady/blob/e4a14a5b365b353352f7c38e699a2bc9363d6576/src/tokens/ERC20.sol\":16387:16392  owner */\n      dup13\n        /* \"https://github.com/Vectorized/solady/blob/e4a14a5b365b353352f7c38e699a2bc9363d6576/src/tokens/ERC20.sol\":16360:16385  _APPROVAL_EVENT_SIGNATURE */\n      0x8c5be1e5ebec7d5bd14f71427d1e84f3dd0314c0f7b2291e5b200ac8c7c3b925\n        /* \"https://github.com/Vectorized/solady/blob/e4a14a5b365b353352f7c38e699a2bc9363d6576/src/tokens/ERC20.sol\":16354:16358  0x20 */\n      0x20\n        /* \"https://github.com/Vectorized/solady/blob/e4a14a5b365b353352f7c38e699a2bc9363d6576/src/tokens/ERC20.sol\":16347:16351  0x60 */\n      0x60\n        /* \"https://github.com/Vectorized/solady/blob/e4a14a5b365b353352f7c38e699a2bc9363d6576/src/tokens/ERC20.sol\":16344:16345  m */\n      dup9\n        /* \"https://github.com/Vectorized/solady/blob/e4a14a5b365b353352f7c38e699a2bc9363d6576/src/tokens/ERC20.sol\":16340:16352  add(m, 0x60) */\n      add\n        /* \"https://github.com/Vectorized/solady/blob/e4a14a5b365b353352f7c38e699a2bc9363d6576/src/tokens/ERC20.sol\":16335:16402  log3(add(m, 0x60), 0x20, _APPROVAL_EVENT_SIGNATURE, owner, spender) */\n      log3\n        /* \"https://github.com/Vectorized/solady/blob/e4a14a5b365b353352f7c38e699a2bc9363d6576/src/tokens/ERC20.sol\":16428:16429  m */\n      dup4\n        /* \"https://github.com/Vectorized/solady/blob/e4a14a5b365b353352f7c38e699a2bc9363d6576/src/tokens/ERC20.sol\":16422:16426  0x40 */\n      0x40\n        /* \"https://github.com/Vectorized/solady/blob/e4a14a5b365b353352f7c38e699a2bc9363d6576/src/tokens/ERC20.sol\":16415:16430  mstore(0x40, m) */\n      mstore\n        /* \"https://github.com/Vectorized/solady/blob/e4a14a5b365b353352f7c38e699a2bc9363d6576/src/tokens/ERC20.sol\":16492:16493  0 */\n      0x00\n        /* \"https://github.com/Vectorized/solady/blob/e4a14a5b365b353352f7c38e699a2bc9363d6576/src/tokens/ERC20.sol\":16486:16490  0x60 */\n      0x60\n        /* \"https://github.com/Vectorized/solady/blob/e4a14a5b365b353352f7c38e699a2bc9363d6576/src/tokens/ERC20.sol\":16479:16494  mstore(0x60, 0) */\n      mstore\n        /* \"https://github.com/Vectorized/solady/blob/e4a14a5b365b353352f7c38e699a2bc9363d6576/src/tokens/ERC20.sol\":13790:16533  {... */\n      pop\n      pop\n      pop\n      pop\n      pop\n        /* \"https://github.com/Vectorized/solady/blob/e4a14a5b365b353352f7c38e699a2bc9363d6576/src/tokens/ERC20.sol\":13324:16539  function permit(... */\n      pop\n      pop\n      pop\n      pop\n      pop\n      pop\n      pop\n      jump\t// out\n        /* \"https://github.com/Vectorized/solady/blob/e4a14a5b365b353352f7c38e699a2bc9363d6576/src/tokens/ERC20.sol\":6929:7304  function allowance(address owner, address spender)... */\n    tag_66:\n        /* \"https://github.com/Vectorized/solady/blob/e4a14a5b365b353352f7c38e699a2bc9363d6576/src/tokens/ERC20.sol\":7041:7055  uint256 result */\n      0x00\n        /* \"https://github.com/Vectorized/solady/blob/e4a14a5b365b353352f7c38e699a2bc9363d6576/src/tokens/ERC20.sol\":7150:7157  spender */\n      dup2\n        /* \"https://github.com/Vectorized/solady/blob/e4a14a5b365b353352f7c38e699a2bc9363d6576/src/tokens/ERC20.sol\":7144:7148  0x20 */\n      0x20\n        /* \"https://github.com/Vectorized/solady/blob/e4a14a5b365b353352f7c38e699a2bc9363d6576/src/tokens/ERC20.sol\":7137:7158  mstore(0x20, spender) */\n      mstore\n        /* \"https://github.com/Vectorized/solady/blob/e4a14a5b365b353352f7c38e699a2bc9363d6576/src/tokens/ERC20.sol\":7184:7204  _ALLOWANCE_SLOT_SEED */\n      0x7f5e9f20\n        /* \"https://github.com/Vectorized/solady/blob/e4a14a5b365b353352f7c38e699a2bc9363d6576/src/tokens/ERC20.sol\":7178:7182  0x0c */\n      0x0c\n        /* \"https://github.com/Vectorized/solady/blob/e4a14a5b365b353352f7c38e699a2bc9363d6576/src/tokens/ERC20.sol\":7171:7205  mstore(0x0c, _ALLOWANCE_SLOT_SEED) */\n      mstore\n        /* \"https://github.com/Vectorized/solady/blob/e4a14a5b365b353352f7c38e699a2bc9363d6576/src/tokens/ERC20.sol\":7231:7236  owner */\n      dup3\n        /* \"https://github.com/Vectorized/solady/blob/e4a14a5b365b353352f7c38e699a2bc9363d6576/src/tokens/ERC20.sol\":7225:7229  0x00 */\n      0x00\n        /* \"https://github.com/Vectorized/solady/blob/e4a14a5b365b353352f7c38e699a2bc9363d6576/src/tokens/ERC20.sol\":7218:7237  mstore(0x00, owner) */\n      mstore\n        /* \"https://github.com/Vectorized/solady/blob/e4a14a5b365b353352f7c38e699a2bc9363d6576/src/tokens/ERC20.sol\":7282:7286  0x34 */\n      0x34\n        /* \"https://github.com/Vectorized/solady/blob/e4a14a5b365b353352f7c38e699a2bc9363d6576/src/tokens/ERC20.sol\":7276:7280  0x0c */\n      0x0c\n        /* \"https://github.com/Vectorized/solady/blob/e4a14a5b365b353352f7c38e699a2bc9363d6576/src/tokens/ERC20.sol\":7266:7287  keccak256(0x0c, 0x34) */\n      keccak256\n        /* \"https://github.com/Vectorized/solady/blob/e4a14a5b365b353352f7c38e699a2bc9363d6576/src/tokens/ERC20.sol\":7260:7288  sload(keccak256(0x0c, 0x34)) */\n      sload\n        /* \"https://github.com/Vectorized/solady/blob/e4a14a5b365b353352f7c38e699a2bc9363d6576/src/tokens/ERC20.sol\":7250:7288  result := sload(keccak256(0x0c, 0x34)) */\n      swap1\n      pop\n        /* \"https://github.com/Vectorized/solady/blob/e4a14a5b365b353352f7c38e699a2bc9363d6576/src/tokens/ERC20.sol\":6929:7304  function allowance(address owner, address spender)... */\n      swap3\n      swap2\n      pop\n      pop\n      jump\t// out\n        /* \"https://github.com/Vectorized/solady/blob/e4a14a5b365b353352f7c38e699a2bc9363d6576/src/tokens/ERC20.sol\":24588:24679  function _beforeTokenTransfer(address from, address to, uint256 amount) internal virtual {} */\n    tag_75:\n      pop\n      pop\n      pop\n      jump\t// out\n        /* \"https://github.com/Vectorized/solady/blob/e4a14a5b365b353352f7c38e699a2bc9363d6576/src/tokens/ERC20.sol\":24791:24881  function _afterTokenTransfer(address from, address to, uint256 amount) internal virtual {} */\n    tag_80:\n      pop\n      pop\n      pop\n      jump\t// out\n        /* \"https://github.com/Vectorized/solady/blob/e4a14a5b365b353352f7c38e699a2bc9363d6576/src/tokens/ERC20.sol\":12591:12669  function _constantNameHash() internal view virtual returns (bytes32 result) {} */\n    tag_84:\n        /* \"https://github.com/Vectorized/solady/blob/e4a14a5b365b353352f7c38e699a2bc9363d6576/src/tokens/ERC20.sol\":12651:12665  bytes32 result */\n      0x00\n        /* \"https://github.com/Vectorized/solady/blob/e4a14a5b365b353352f7c38e699a2bc9363d6576/src/tokens/ERC20.sol\":12591:12669  function _constantNameHash() internal view virtual returns (bytes32 result) {} */\n      swap1\n      jump\t// out\n        /* \"#utility.yul\":7:106   */\n    tag_110:\n        /* \"#utility.yul\":59:65   */\n      0x00\n        /* \"#utility.yul\":93:98   */\n      dup2\n        /* \"#utility.yul\":87:99   */\n      mload\n        /* \"#utility.yul\":77:99   */\n      swap1\n      pop\n        /* \"#utility.yul\":7:106   */\n      swap2\n      swap1\n      pop\n      jump\t// out\n        /* \"#utility.yul\":112:281   */\n    tag_111:\n        /* \"#utility.yul\":196:207   */\n      0x00\n        /* \"#utility.yul\":230:236   */\n      dup3\n        /* \"#utility.yul\":225:228   */\n      dup3\n        /* \"#utility.yul\":218:237   */\n      mstore\n        /* \"#utility.yul\":270:274   */\n      0x20\n        /* \"#utility.yul\":265:268   */\n      dup3\n        /* \"#utility.yul\":261:275   */\n      add\n        /* \"#utility.yul\":246:275   */\n      swap1\n      pop\n        /* \"#utility.yul\":112:281   */\n      swap3\n      swap2\n      pop\n      pop\n      jump\t// out\n        /* \"#utility.yul\":287:533   */\n    tag_112:\n        /* \"#utility.yul\":368:369   */\n      0x00\n        /* \"#utility.yul\":378:491   */\n    tag_145:\n        /* \"#utility.yul\":392:398   */\n      dup4\n        /* \"#utility.yul\":389:390   */\n      dup2\n        /* \"#utility.yul\":386:399   */\n      lt\n        /* \"#utility.yul\":378:491   */\n      iszero\n      tag_147\n      jumpi\n        /* \"#utility.yul\":477:478   */\n      dup1\n        /* \"#utility.yul\":472:475   */\n      dup3\n        /* \"#utility.yul\":468:479   */\n      add\n        /* \"#utility.yul\":462:480   */\n      mload\n        /* \"#utility.yul\":458:459   */\n      dup2\n        /* \"#utility.yul\":453:456   */\n      dup5\n        /* \"#utility.yul\":449:460   */\n      add\n        /* \"#utility.yul\":442:481   */\n      mstore\n        /* \"#utility.yul\":414:416   */\n      0x20\n        /* \"#utility.yul\":411:412   */\n      dup2\n        /* \"#utility.yul\":407:417   */\n      add\n        /* \"#utility.yul\":402:417   */\n      swap1\n      pop\n        /* \"#utility.yul\":378:491   */\n      jump(tag_145)\n    tag_147:\n        /* \"#utility.yul\":525:526   */\n      0x00\n        /* \"#utility.yul\":516:522   */\n      dup5\n        /* \"#utility.yul\":511:514   */\n      dup5\n        /* \"#utility.yul\":507:523   */\n      add\n        /* \"#utility.yul\":500:527   */\n      mstore\n        /* \"#utility.yul\":349:533   */\n      pop\n        /* \"#utility.yul\":287:533   */\n      pop\n      pop\n      pop\n      jump\t// out\n        /* \"#utility.yul\":539:641   */\n    tag_113:\n        /* \"#utility.yul\":580:586   */\n      0x00\n        /* \"#utility.yul\":631:633   */\n      0x1f\n        /* \"#utility.yul\":627:634   */\n      not\n        /* \"#utility.yul\":622:624   */\n      0x1f\n        /* \"#utility.yul\":615:620   */\n      dup4\n        /* \"#utility.yul\":611:625   */\n      add\n        /* \"#utility.yul\":607:635   */\n      and\n        /* \"#utility.yul\":597:635   */\n      swap1\n      pop\n        /* \"#utility.yul\":539:641   */\n      swap2\n      swap1\n      pop\n      jump\t// out\n        /* \"#utility.yul\":647:1024   */\n    tag_114:\n        /* \"#utility.yul\":735:738   */\n      0x00\n        /* \"#utility.yul\":763:802   */\n      tag_150\n        /* \"#utility.yul\":796:801   */\n      dup3\n        /* \"#utility.yul\":763:802   */\n      tag_110\n      jump\t// in\n    tag_150:\n        /* \"#utility.yul\":818:889   */\n      tag_151\n        /* \"#utility.yul\":882:888   */\n      dup2\n        /* \"#utility.yul\":877:880   */\n      dup6\n        /* \"#utility.yul\":818:889   */\n      tag_111\n      jump\t// in\n    tag_151:\n        /* \"#utility.yul\":811:889   */\n      swap4\n      pop\n        /* \"#utility.yul\":898:963   */\n      tag_152\n        /* \"#utility.yul\":956:962   */\n      dup2\n        /* \"#utility.yul\":951:954   */\n      dup6\n        /* \"#utility.yul\":944:948   */\n      0x20\n        /* \"#utility.yul\":937:942   */\n      dup7\n        /* \"#utility.yul\":933:949   */\n      add\n        /* \"#utility.yul\":898:963   */\n      tag_112\n      jump\t// in\n    tag_152:\n        /* \"#utility.yul\":988:1017   */\n      tag_153\n        /* \"#utility.yul\":1010:1016   */\n      dup2\n        /* \"#utility.yul\":988:1017   */\n      tag_113\n      jump\t// in\n    tag_153:\n        /* \"#utility.yul\":983:986   */\n      dup5\n        /* \"#utility.yul\":979:1018   */\n      add\n        /* \"#utility.yul\":972:1018   */\n      swap2\n      pop\n        /* \"#utility.yul\":739:1024   */\n      pop\n        /* \"#utility.yul\":647:1024   */\n      swap3\n      swap2\n      pop\n      pop\n      jump\t// out\n        /* \"#utility.yul\":1030:1343   */\n    tag_19:\n        /* \"#utility.yul\":1143:1147   */\n      0x00\n        /* \"#utility.yul\":1181:1183   */\n      0x20\n        /* \"#utility.yul\":1170:1179   */\n      dup3\n        /* \"#utility.yul\":1166:1184   */\n      add\n        /* \"#utility.yul\":1158:1184   */\n      swap1\n      pop\n        /* \"#utility.yul\":1230:1239   */\n      dup2\n        /* \"#utility.yul\":1224:1228   */\n      dup2\n        /* \"#utility.yul\":1220:1240   */\n      sub\n        /* \"#utility.yul\":1216:1217   */\n      0x00\n        /* \"#utility.yul\":1205:1214   */\n      dup4\n        /* \"#utility.yul\":1201:1218   */\n      add\n        /* \"#utility.yul\":1194:1241   */\n      mstore\n        /* \"#utility.yul\":1258:1336   */\n      tag_155\n        /* \"#utility.yul\":1331:1335   */\n      dup2\n        /* \"#utility.yul\":1322:1328   */\n      dup5\n        /* \"#utility.yul\":1258:1336   */\n      tag_114\n      jump\t// in\n    tag_155:\n        /* \"#utility.yul\":1250:1336   */\n      swap1\n      pop\n        /* \"#utility.yul\":1030:1343   */\n      swap3\n      swap2\n      pop\n      pop\n      jump\t// out\n        /* \"#utility.yul\":1430:1547   */\n    tag_116:\n        /* \"#utility.yul\":1539:1540   */\n      0x00\n        /* \"#utility.yul\":1536:1537   */\n      dup1\n        /* \"#utility.yul\":1529:1541   */\n      revert\n        /* \"#utility.yul\":1676:1802   */\n    tag_118:\n        /* \"#utility.yul\":1713:1720   */\n      0x00\n        /* \"#utility.yul\":1753:1795   */\n      0xffffffffffffffffffffffffffffffffffffffff\n        /* \"#utility.yul\":1746:1751   */\n      dup3\n        /* \"#utility.yul\":1742:1796   */\n      and\n        /* \"#utility.yul\":1731:1796   */\n      swap1\n      pop\n        /* \"#utility.yul\":1676:1802   */\n      swap2\n      swap1\n      pop\n      jump\t// out\n        /* \"#utility.yul\":1808:1904   */\n    tag_119:\n        /* \"#utility.yul\":1845:1852   */\n      0x00\n        /* \"#utility.yul\":1874:1898   */\n      tag_161\n        /* \"#utility.yul\":1892:1897   */\n      dup3\n        /* \"#utility.yul\":1874:1898   */\n      tag_118\n      jump\t// in\n    tag_161:\n        /* \"#utility.yul\":1863:1898   */\n      swap1\n      pop\n        /* \"#utility.yul\":1808:1904   */\n      swap2\n      swap1\n      pop\n      jump\t// out\n        /* \"#utility.yul\":1910:2032   */\n    tag_120:\n        /* \"#utility.yul\":1983:2007   */\n      tag_163\n        /* \"#utility.yul\":2001:2006   */\n      dup2\n        /* \"#utility.yul\":1983:2007   */\n      tag_119\n      jump\t// in\n    tag_163:\n        /* \"#utility.yul\":1976:1981   */\n      dup2\n        /* \"#utility.yul\":1973:2008   */\n      eq\n        /* \"#utility.yul\":1963:2026   */\n      tag_164\n      jumpi\n        /* \"#utility.yul\":2022:2023   */\n      0x00\n        /* \"#utility.yul\":2019:2020   */\n      dup1\n        /* \"#utility.yul\":2012:2024   */\n      revert\n        /* \"#utility.yul\":1963:2026   */\n    tag_164:\n        /* \"#utility.yul\":1910:2032   */\n      pop\n      jump\t// out\n        /* \"#utility.yul\":2038:2177   */\n    tag_121:\n        /* \"#utility.yul\":2084:2089   */\n      0x00\n        /* \"#utility.yul\":2122:2128   */\n      dup2\n        /* \"#utility.yul\":2109:2129   */\n      calldataload\n        /* \"#utility.yul\":2100:2129   */\n      swap1\n      pop\n        /* \"#utility.yul\":2138:2171   */\n      tag_166\n        /* \"#utility.yul\":2165:2170   */\n      dup2\n        /* \"#utility.yul\":2138:2171   */\n      tag_120\n      jump\t// in\n    tag_166:\n        /* \"#utility.yul\":2038:2177   */\n      swap3\n      swap2\n      pop\n      pop\n      jump\t// out\n        /* \"#utility.yul\":2183:2260   */\n    tag_122:\n        /* \"#utility.yul\":2220:2227   */\n      0x00\n        /* \"#utility.yul\":2249:2254   */\n      dup2\n        /* \"#utility.yul\":2238:2254   */\n      swap1\n      pop\n        /* \"#utility.yul\":2183:2260   */\n      swap2\n      swap1\n      pop\n      jump\t// out\n        /* \"#utility.yul\":2266:2388   */\n    tag_123:\n        /* \"#utility.yul\":2339:2363   */\n      tag_169\n        /* \"#utility.yul\":2357:2362   */\n      dup2\n        /* \"#utility.yul\":2339:2363   */\n      tag_122\n      jump\t// in\n    tag_169:\n        /* \"#utility.yul\":2332:2337   */\n      dup2\n        /* \"#utility.yul\":2329:2364   */\n      eq\n        /* \"#utility.yul\":2319:2382   */\n      tag_170\n      jumpi\n        /* \"#utility.yul\":2378:2379   */\n      0x00\n        /* \"#utility.yul\":2375:2376   */\n      dup1\n        /* \"#utility.yul\":2368:2380   */\n      revert\n        /* \"#utility.yul\":2319:2382   */\n    tag_170:\n        /* \"#utility.yul\":2266:2388   */\n      pop\n      jump\t// out\n        /* \"#utility.yul\":2394:2533   */\n    tag_124:\n        /* \"#utility.yul\":2440:2445   */\n      0x00\n        /* \"#utility.yul\":2478:2484   */\n      dup2\n        /* \"#utility.yul\":2465:2485   */\n      calldataload\n        /* \"#utility.yul\":2456:2485   */\n      swap1\n      pop\n        /* \"#utility.yul\":2494:2527   */\n      tag_172\n        /* \"#utility.yul\":2521:2526   */\n      dup2\n        /* \"#utility.yul\":2494:2527   */\n      tag_123\n      jump\t// in\n    tag_172:\n        /* \"#utility.yul\":2394:2533   */\n      swap3\n      swap2\n      pop\n      pop\n      jump\t// out\n        /* \"#utility.yul\":2539:3013   */\n    tag_22:\n        /* \"#utility.yul\":2607:2613   */\n      0x00\n        /* \"#utility.yul\":2615:2621   */\n      dup1\n        /* \"#utility.yul\":2664:2666   */\n      0x40\n        /* \"#utility.yul\":2652:2661   */\n      dup4\n        /* \"#utility.yul\":2643:2650   */\n      dup6\n        /* \"#utility.yul\":2639:2662   */\n      sub\n        /* \"#utility.yul\":2635:2667   */\n      slt\n        /* \"#utility.yul\":2632:2751   */\n      iszero\n      tag_174\n      jumpi\n        /* \"#utility.yul\":2670:2749   */\n      tag_175\n      tag_116\n      jump\t// in\n    tag_175:\n        /* \"#utility.yul\":2632:2751   */\n    tag_174:\n        /* \"#utility.yul\":2790:2791   */\n      0x00\n        /* \"#utility.yul\":2815:2868   */\n      tag_176\n        /* \"#utility.yul\":2860:2867   */\n      dup6\n        /* \"#utility.yul\":2851:2857   */\n      dup3\n        /* \"#utility.yul\":2840:2849   */\n      dup7\n        /* \"#utility.yul\":2836:2858   */\n      add\n        /* \"#utility.yul\":2815:2868   */\n      tag_121\n      jump\t// in\n    tag_176:\n        /* \"#utility.yul\":2805:2868   */\n      swap3\n      pop\n        /* \"#utility.yul\":2761:2878   */\n      pop\n        /* \"#utility.yul\":2917:2919   */\n      0x20\n        /* \"#utility.yul\":2943:2996   */\n      tag_177\n        /* \"#utility.yul\":2988:2995   */\n      dup6\n        /* \"#utility.yul\":2979:2985   */\n      dup3\n        /* \"#utility.yul\":2968:2977   */\n      dup7\n        /* \"#utility.yul\":2964:2986   */\n      add\n        /* \"#utility.yul\":2943:2996   */\n      tag_124\n      jump\t// in\n    tag_177:\n        /* \"#utility.yul\":2933:2996   */\n      swap2\n      pop\n        /* \"#utility.yul\":2888:3006   */\n      pop\n        /* \"#utility.yul\":2539:3013   */\n      swap3\n      pop\n      swap3\n      swap1\n      pop\n      jump\t// out\n        /* \"#utility.yul\":3019:3109   */\n    tag_125:\n        /* \"#utility.yul\":3053:3060   */\n      0x00\n        /* \"#utility.yul\":3096:3101   */\n      dup2\n        /* \"#utility.yul\":3089:3102   */\n      iszero\n        /* \"#utility.yul\":3082:3103   */\n      iszero\n        /* \"#utility.yul\":3071:3103   */\n      swap1\n      pop\n        /* \"#utility.yul\":3019:3109   */\n      swap2\n      swap1\n      pop\n      jump\t// out\n        /* \"#utility.yul\":3115:3224   */\n    tag_126:\n        /* \"#utility.yul\":3196:3217   */\n      tag_180\n        /* \"#utility.yul\":3211:3216   */\n      dup2\n        /* \"#utility.yul\":3196:3217   */\n      tag_125\n      jump\t// in\n    tag_180:\n        /* \"#utility.yul\":3191:3194   */\n      dup3\n        /* \"#utility.yul\":3184:3218   */\n      mstore\n        /* \"#utility.yul\":3115:3224   */\n      pop\n      pop\n      jump\t// out\n        /* \"#utility.yul\":3230:3440   */\n    tag_25:\n        /* \"#utility.yul\":3317:3321   */\n      0x00\n        /* \"#utility.yul\":3355:3357   */\n      0x20\n        /* \"#utility.yul\":3344:3353   */\n      dup3\n        /* \"#utility.yul\":3340:3358   */\n      add\n        /* \"#utility.yul\":3332:3358   */\n      swap1\n      pop\n        /* \"#utility.yul\":3368:3433   */\n      tag_182\n        /* \"#utility.yul\":3430:3431   */\n      0x00\n        /* \"#utility.yul\":3419:3428   */\n      dup4\n        /* \"#utility.yul\":3415:3432   */\n      add\n        /* \"#utility.yul\":3406:3412   */\n      dup5\n        /* \"#utility.yul\":3368:3433   */\n      tag_126\n      jump\t// in\n    tag_182:\n        /* \"#utility.yul\":3230:3440   */\n      swap3\n      swap2\n      pop\n      pop\n      jump\t// out\n        /* \"#utility.yul\":3446:3564   */\n    tag_127:\n        /* \"#utility.yul\":3533:3557   */\n      tag_184\n        /* \"#utility.yul\":3551:3556   */\n      dup2\n        /* \"#utility.yul\":3533:3557   */\n      tag_122\n      jump\t// in\n    tag_184:\n        /* \"#utility.yul\":3528:3531   */\n      dup3\n        /* \"#utility.yul\":3521:3558   */\n      mstore\n        /* \"#utility.yul\":3446:3564   */\n      pop\n      pop\n      jump\t// out\n        /* \"#utility.yul\":3570:3792   */\n    tag_29:\n        /* \"#utility.yul\":3663:3667   */\n      0x00\n        /* \"#utility.yul\":3701:3703   */\n      0x20\n        /* \"#utility.yul\":3690:3699   */\n      dup3\n        /* \"#utility.yul\":3686:3704   */\n      add\n        /* \"#utility.yul\":3678:3704   */\n      swap1\n      pop\n        /* \"#utility.yul\":3714:3785   */\n      tag_186\n        /* \"#utility.yul\":3782:3783   */\n      0x00\n        /* \"#utility.yul\":3771:3780   */\n      dup4\n        /* \"#utility.yul\":3767:3784   */\n      add\n        /* \"#utility.yul\":3758:3764   */\n      dup5\n        /* \"#utility.yul\":3714:3785   */\n      tag_127\n      jump\t// in\n    tag_186:\n        /* \"#utility.yul\":3570:3792   */\n      swap3\n      swap2\n      pop\n      pop\n      jump\t// out\n        /* \"#utility.yul\":3798:4417   */\n    tag_32:\n        /* \"#utility.yul\":3875:3881   */\n      0x00\n        /* \"#utility.yul\":3883:3889   */\n      dup1\n        /* \"#utility.yul\":3891:3897   */\n      0x00\n        /* \"#utility.yul\":3940:3942   */\n      0x60\n        /* \"#utility.yul\":3928:3937   */\n      dup5\n        /* \"#utility.yul\":3919:3926   */\n      dup7\n        /* \"#utility.yul\":3915:3938   */\n      sub\n        /* \"#utility.yul\":3911:3943   */\n      slt\n        /* \"#utility.yul\":3908:4027   */\n      iszero\n      tag_188\n      jumpi\n        /* \"#utility.yul\":3946:4025   */\n      tag_189\n      tag_116\n      jump\t// in\n    tag_189:\n        /* \"#utility.yul\":3908:4027   */\n    tag_188:\n        /* \"#utility.yul\":4066:4067   */\n      0x00\n        /* \"#utility.yul\":4091:4144   */\n      tag_190\n        /* \"#utility.yul\":4136:4143   */\n      dup7\n        /* \"#utility.yul\":4127:4133   */\n      dup3\n        /* \"#utility.yul\":4116:4125   */\n      dup8\n        /* \"#utility.yul\":4112:4134   */\n      add\n        /* \"#utility.yul\":4091:4144   */\n      tag_121\n      jump\t// in\n    tag_190:\n        /* \"#utility.yul\":4081:4144   */\n      swap4\n      pop\n        /* \"#utility.yul\":4037:4154   */\n      pop\n        /* \"#utility.yul\":4193:4195   */\n      0x20\n        /* \"#utility.yul\":4219:4272   */\n      tag_191\n        /* \"#utility.yul\":4264:4271   */\n      dup7\n        /* \"#utility.yul\":4255:4261   */\n      dup3\n        /* \"#utility.yul\":4244:4253   */\n      dup8\n        /* \"#utility.yul\":4240:4262   */\n      add\n        /* \"#utility.yul\":4219:4272   */\n      tag_121\n      jump\t// in\n    tag_191:\n        /* \"#utility.yul\":4209:4272   */\n      swap3\n      pop\n        /* \"#utility.yul\":4164:4282   */\n      pop\n        /* \"#utility.yul\":4321:4323   */\n      0x40\n        /* \"#utility.yul\":4347:4400   */\n      tag_192\n        /* \"#utility.yul\":4392:4399   */\n      dup7\n        /* \"#utility.yul\":4383:4389   */\n      dup3\n        /* \"#utility.yul\":4372:4381   */\n      dup8\n        /* \"#utility.yul\":4368:4390   */\n      add\n        /* \"#utility.yul\":4347:4400   */\n      tag_124\n      jump\t// in\n    tag_192:\n        /* \"#utility.yul\":4337:4400   */\n      swap2\n      pop\n        /* \"#utility.yul\":4292:4410   */\n      pop\n        /* \"#utility.yul\":3798:4417   */\n      swap3\n      pop\n      swap3\n      pop\n      swap3\n      jump\t// out\n        /* \"#utility.yul\":4423:4509   */\n    tag_128:\n        /* \"#utility.yul\":4458:4465   */\n      0x00\n        /* \"#utility.yul\":4498:4502   */\n      0xff\n        /* \"#utility.yul\":4491:4496   */\n      dup3\n        /* \"#utility.yul\":4487:4503   */\n      and\n        /* \"#utility.yul\":4476:4503   */\n      swap1\n      pop\n        /* \"#utility.yul\":4423:4509   */\n      swap2\n      swap1\n      pop\n      jump\t// out\n        /* \"#utility.yul\":4515:4627   */\n    tag_129:\n        /* \"#utility.yul\":4598:4620   */\n      tag_195\n        /* \"#utility.yul\":4614:4619   */\n      dup2\n        /* \"#utility.yul\":4598:4620   */\n      tag_128\n      jump\t// in\n    tag_195:\n        /* \"#utility.yul\":4593:4596   */\n      dup3\n        /* \"#utility.yul\":4586:4621   */\n      mstore\n        /* \"#utility.yul\":4515:4627   */\n      pop\n      pop\n      jump\t// out\n        /* \"#utility.yul\":4633:4847   */\n    tag_38:\n        /* \"#utility.yul\":4722:4726   */\n      0x00\n        /* \"#utility.yul\":4760:4762   */\n      0x20\n        /* \"#utility.yul\":4749:4758   */\n      dup3\n        /* \"#utility.yul\":4745:4763   */\n      add\n        /* \"#utility.yul\":4737:4763   */\n      swap1\n      pop\n        /* \"#utility.yul\":4773:4840   */\n      tag_197\n        /* \"#utility.yul\":4837:4838   */\n      0x00\n        /* \"#utility.yul\":4826:4835   */\n      dup4\n        /* \"#utility.yul\":4822:4839   */\n      add\n        /* \"#utility.yul\":4813:4819   */\n      dup5\n        /* \"#utility.yul\":4773:4840   */\n      tag_129\n      jump\t// in\n    tag_197:\n        /* \"#utility.yul\":4633:4847   */\n      swap3\n      swap2\n      pop\n      pop\n      jump\t// out\n        /* \"#utility.yul\":4853:4930   */\n    tag_130:\n        /* \"#utility.yul\":4890:4897   */\n      0x00\n        /* \"#utility.yul\":4919:4924   */\n      dup2\n        /* \"#utility.yul\":4908:4924   */\n      swap1\n      pop\n        /* \"#utility.yul\":4853:4930   */\n      swap2\n      swap1\n      pop\n      jump\t// out\n        /* \"#utility.yul\":4936:5054   */\n    tag_131:\n        /* \"#utility.yul\":5023:5047   */\n      tag_200\n        /* \"#utility.yul\":5041:5046   */\n      dup2\n        /* \"#utility.yul\":5023:5047   */\n      tag_130\n      jump\t// in\n    tag_200:\n        /* \"#utility.yul\":5018:5021   */\n      dup3\n        /* \"#utility.yul\":5011:5048   */\n      mstore\n        /* \"#utility.yul\":4936:5054   */\n      pop\n      pop\n      jump\t// out\n        /* \"#utility.yul\":5060:5282   */\n    tag_42:\n        /* \"#utility.yul\":5153:5157   */\n      0x00\n        /* \"#utility.yul\":5191:5193   */\n      0x20\n        /* \"#utility.yul\":5180:5189   */\n      dup3\n        /* \"#utility.yul\":5176:5194   */\n      add\n        /* \"#utility.yul\":5168:5194   */\n      swap1\n      pop\n        /* \"#utility.yul\":5204:5275   */\n      tag_202\n        /* \"#utility.yul\":5272:5273   */\n      0x00\n        /* \"#utility.yul\":5261:5270   */\n      dup4\n        /* \"#utility.yul\":5257:5274   */\n      add\n        /* \"#utility.yul\":5248:5254   */\n      dup5\n        /* \"#utility.yul\":5204:5275   */\n      tag_131\n      jump\t// in\n    tag_202:\n        /* \"#utility.yul\":5060:5282   */\n      swap3\n      swap2\n      pop\n      pop\n      jump\t// out\n        /* \"#utility.yul\":5288:5617   */\n    tag_45:\n        /* \"#utility.yul\":5347:5353   */\n      0x00\n        /* \"#utility.yul\":5396:5398   */\n      0x20\n        /* \"#utility.yul\":5384:5393   */\n      dup3\n        /* \"#utility.yul\":5375:5382   */\n      dup5\n        /* \"#utility.yul\":5371:5394   */\n      sub\n        /* \"#utility.yul\":5367:5399   */\n      slt\n        /* \"#utility.yul\":5364:5483   */\n      iszero\n      tag_204\n      jumpi\n        /* \"#utility.yul\":5402:5481   */\n      tag_205\n      tag_116\n      jump\t// in\n    tag_205:\n        /* \"#utility.yul\":5364:5483   */\n    tag_204:\n        /* \"#utility.yul\":5522:5523   */\n      0x00\n        /* \"#utility.yul\":5547:5600   */\n      tag_206\n        /* \"#utility.yul\":5592:5599   */\n      dup5\n        /* \"#utility.yul\":5583:5589   */\n      dup3\n        /* \"#utility.yul\":5572:5581   */\n      dup6\n        /* \"#utility.yul\":5568:5590   */\n      add\n        /* \"#utility.yul\":5547:5600   */\n      tag_121\n      jump\t// in\n    tag_206:\n        /* \"#utility.yul\":5537:5600   */\n      swap2\n      pop\n        /* \"#utility.yul\":5493:5610   */\n      pop\n        /* \"#utility.yul\":5288:5617   */\n      swap3\n      swap2\n      pop\n      pop\n      jump\t// out\n        /* \"#utility.yul\":5623:5741   */\n    tag_132:\n        /* \"#utility.yul\":5694:5716   */\n      tag_208\n        /* \"#utility.yul\":5710:5715   */\n      dup2\n        /* \"#utility.yul\":5694:5716   */\n      tag_128\n      jump\t// in\n    tag_208:\n        /* \"#utility.yul\":5687:5692   */\n      dup2\n        /* \"#utility.yul\":5684:5717   */\n      eq\n        /* \"#utility.yul\":5674:5735   */\n      tag_209\n      jumpi\n        /* \"#utility.yul\":5731:5732   */\n      0x00\n        /* \"#utility.yul\":5728:5729   */\n      dup1\n        /* \"#utility.yul\":5721:5733   */\n      revert\n        /* \"#utility.yul\":5674:5735   */\n    tag_209:\n        /* \"#utility.yul\":5623:5741   */\n      pop\n      jump\t// out\n        /* \"#utility.yul\":5747:5882   */\n    tag_133:\n        /* \"#utility.yul\":5791:5796   */\n      0x00\n        /* \"#utility.yul\":5829:5835   */\n      dup2\n        /* \"#utility.yul\":5816:5836   */\n      calldataload\n        /* \"#utility.yul\":5807:5836   */\n      swap1\n      pop\n        /* \"#utility.yul\":5845:5876   */\n      tag_211\n        /* \"#utility.yul\":5870:5875   */\n      dup2\n        /* \"#utility.yul\":5845:5876   */\n      tag_132\n      jump\t// in\n    tag_211:\n        /* \"#utility.yul\":5747:5882   */\n      swap3\n      swap2\n      pop\n      pop\n      jump\t// out\n        /* \"#utility.yul\":5888:6010   */\n    tag_134:\n        /* \"#utility.yul\":5961:5985   */\n      tag_213\n        /* \"#utility.yul\":5979:5984   */\n      dup2\n        /* \"#utility.yul\":5961:5985   */\n      tag_130\n      jump\t// in\n    tag_213:\n        /* \"#utility.yul\":5954:5959   */\n      dup2\n        /* \"#utility.yul\":5951:5986   */\n      eq\n        /* \"#utility.yul\":5941:6004   */\n      tag_214\n      jumpi\n        /* \"#utility.yul\":6000:6001   */\n      0x00\n        /* \"#utility.yul\":5997:5998   */\n      dup1\n        /* \"#utility.yul\":5990:6002   */\n      revert\n        /* \"#utility.yul\":5941:6004   */\n    tag_214:\n        /* \"#utility.yul\":5888:6010   */\n      pop\n      jump\t// out\n        /* \"#utility.yul\":6016:6155   */\n    tag_135:\n        /* \"#utility.yul\":6062:6067   */\n      0x00\n        /* \"#utility.yul\":6100:6106   */\n      dup2\n        /* \"#utility.yul\":6087:6107   */\n      calldataload\n        /* \"#utility.yul\":6078:6107   */\n      swap1\n      pop\n        /* \"#utility.yul\":6116:6149   */\n      tag_216\n        /* \"#utility.yul\":6143:6148   */\n      dup2\n        /* \"#utility.yul\":6116:6149   */\n      tag_134\n      jump\t// in\n    tag_216:\n        /* \"#utility.yul\":6016:6155   */\n      swap3\n      swap2\n      pop\n      pop\n      jump\t// out\n        /* \"#utility.yul\":6161:7360   */\n    tag_61:\n        /* \"#utility.yul\":6272:6278   */\n      0x00\n        /* \"#utility.yul\":6280:6286   */\n      dup1\n        /* \"#utility.yul\":6288:6294   */\n      0x00\n        /* \"#utility.yul\":6296:6302   */\n      dup1\n        /* \"#utility.yul\":6304:6310   */\n      0x00\n        /* \"#utility.yul\":6312:6318   */\n      dup1\n        /* \"#utility.yul\":6320:6326   */\n      0x00\n        /* \"#utility.yul\":6369:6372   */\n      0xe0\n        /* \"#utility.yul\":6357:6366   */\n      dup9\n        /* \"#utility.yul\":6348:6355   */\n      dup11\n        /* \"#utility.yul\":6344:6367   */\n      sub\n        /* \"#utility.yul\":6340:6373   */\n      slt\n        /* \"#utility.yul\":6337:6457   */\n      iszero\n      tag_218\n      jumpi\n        /* \"#utility.yul\":6376:6455   */\n      tag_219\n      tag_116\n      jump\t// in\n    tag_219:\n        /* \"#utility.yul\":6337:6457   */\n    tag_218:\n        /* \"#utility.yul\":6496:6497   */\n      0x00\n        /* \"#utility.yul\":6521:6574   */\n      tag_220\n        /* \"#utility.yul\":6566:6573   */\n      dup11\n        /* \"#utility.yul\":6557:6563   */\n      dup3\n        /* \"#utility.yul\":6546:6555   */\n      dup12\n        /* \"#utility.yul\":6542:6564   */\n      add\n        /* \"#utility.yul\":6521:6574   */\n      tag_121\n      jump\t// in\n    tag_220:\n        /* \"#utility.yul\":6511:6574   */\n      swap8\n      pop\n        /* \"#utility.yul\":6467:6584   */\n      pop\n        /* \"#utility.yul\":6623:6625   */\n      0x20\n        /* \"#utility.yul\":6649:6702   */\n      tag_221\n        /* \"#utility.yul\":6694:6701   */\n      dup11\n        /* \"#utility.yul\":6685:6691   */\n      dup3\n        /* \"#utility.yul\":6674:6683   */\n      dup12\n        /* \"#utility.yul\":6670:6692   */\n      add\n        /* \"#utility.yul\":6649:6702   */\n      tag_121\n      jump\t// in\n    tag_221:\n        /* \"#utility.yul\":6639:6702   */\n      swap7\n      pop\n        /* \"#utility.yul\":6594:6712   */\n      pop\n        /* \"#utility.yul\":6751:6753   */\n      0x40\n        /* \"#utility.yul\":6777:6830   */\n      tag_222\n        /* \"#utility.yul\":6822:6829   */\n      dup11\n        /* \"#utility.yul\":6813:6819   */\n      dup3\n        /* \"#utility.yul\":6802:6811   */\n      dup12\n        /* \"#utility.yul\":6798:6820   */\n      add\n        /* \"#utility.yul\":6777:6830   */\n      tag_124\n      jump\t// in\n    tag_222:\n        /* \"#utility.yul\":6767:6830   */\n      swap6\n      pop\n        /* \"#utility.yul\":6722:6840   */\n      pop\n        /* \"#utility.yul\":6879:6881   */\n      0x60\n        /* \"#utility.yul\":6905:6958   */\n      tag_223\n        /* \"#utility.yul\":6950:6957   */\n      dup11\n        /* \"#utility.yul\":6941:6947   */\n      dup3\n        /* \"#utility.yul\":6930:6939   */\n      dup12\n        /* \"#utility.yul\":6926:6948   */\n      add\n        /* \"#utility.yul\":6905:6958   */\n      tag_124\n      jump\t// in\n    tag_223:\n        /* \"#utility.yul\":6895:6958   */\n      swap5\n      pop\n        /* \"#utility.yul\":6850:6968   */\n      pop\n        /* \"#utility.yul\":7007:7010   */\n      0x80\n        /* \"#utility.yul\":7034:7085   */\n      tag_224\n        /* \"#utility.yul\":7077:7084   */\n      dup11\n        /* \"#utility.yul\":7068:7074   */\n      dup3\n        /* \"#utility.yul\":7057:7066   */\n      dup12\n        /* \"#utility.yul\":7053:7075   */\n      add\n        /* \"#utility.yul\":7034:7085   */\n      tag_133\n      jump\t// in\n    tag_224:\n        /* \"#utility.yul\":7024:7085   */\n      swap4\n      pop\n        /* \"#utility.yul\":6978:7095   */\n      pop\n        /* \"#utility.yul\":7134:7137   */\n      0xa0\n        /* \"#utility.yul\":7161:7214   */\n      tag_225\n        /* \"#utility.yul\":7206:7213   */\n      dup11\n        /* \"#utility.yul\":7197:7203   */\n      dup3\n        /* \"#utility.yul\":7186:7195   */\n      dup12\n        /* \"#utility.yul\":7182:7204   */\n      add\n        /* \"#utility.yul\":7161:7214   */\n      tag_135\n      jump\t// in\n    tag_225:\n        /* \"#utility.yul\":7151:7214   */\n      swap3\n      pop\n        /* \"#utility.yul\":7105:7224   */\n      pop\n        /* \"#utility.yul\":7263:7266   */\n      0xc0\n        /* \"#utility.yul\":7290:7343   */\n      tag_226\n        /* \"#utility.yul\":7335:7342   */\n      dup11\n        /* \"#utility.yul\":7326:7332   */\n      dup3\n        /* \"#utility.yul\":7315:7324   */\n      dup12\n        /* \"#utility.yul\":7311:7333   */\n      add\n        /* \"#utility.yul\":7290:7343   */\n      tag_135\n      jump\t// in\n    tag_226:\n        /* \"#utility.yul\":7280:7343   */\n      swap2\n      pop\n        /* \"#utility.yul\":7234:7353   */\n      pop\n        /* \"#utility.yul\":6161:7360   */\n      swap3\n      swap6\n      swap9\n      swap2\n      swap5\n      swap8\n      pop\n      swap3\n      swap6\n      pop\n      jump\t// out\n        /* \"#utility.yul\":7366:7840   */\n    tag_65:\n        /* \"#utility.yul\":7434:7440   */\n      0x00\n        /* \"#utility.yul\":7442:7448   */\n      dup1\n        /* \"#utility.yul\":7491:7493   */\n      0x40\n        /* \"#utility.yul\":7479:7488   */\n      dup4\n        /* \"#utility.yul\":7470:7477   */\n      dup6\n        /* \"#utility.yul\":7466:7489   */\n      sub\n        /* \"#utility.yul\":7462:7494   */\n      slt\n        /* \"#utility.yul\":7459:7578   */\n      iszero\n      tag_228\n      jumpi\n        /* \"#utility.yul\":7497:7576   */\n      tag_229\n      tag_116\n      jump\t// in\n    tag_229:\n        /* \"#utility.yul\":7459:7578   */\n    tag_228:\n        /* \"#utility.yul\":7617:7618   */\n      0x00\n        /* \"#utility.yul\":7642:7695   */\n      tag_230\n        /* \"#utility.yul\":7687:7694   */\n      dup6\n        /* \"#utility.yul\":7678:7684   */\n      dup3\n        /* \"#utility.yul\":7667:7676   */\n      dup7\n        /* \"#utility.yul\":7663:7685   */\n      add\n        /* \"#utility.yul\":7642:7695   */\n      tag_121\n      jump\t// in\n    tag_230:\n        /* \"#utility.yul\":7632:7695   */\n      swap3\n      pop\n        /* \"#utility.yul\":7588:7705   */\n      pop\n        /* \"#utility.yul\":7744:7746   */\n      0x20\n        /* \"#utility.yul\":7770:7823   */\n      tag_231\n        /* \"#utility.yul\":7815:7822   */\n      dup6\n        /* \"#utility.yul\":7806:7812   */\n      dup3\n        /* \"#utility.yul\":7795:7804   */\n      dup7\n        /* \"#utility.yul\":7791:7813   */\n      add\n        /* \"#utility.yul\":7770:7823   */\n      tag_121\n      jump\t// in\n    tag_231:\n        /* \"#utility.yul\":7760:7823   */\n      swap2\n      pop\n        /* \"#utility.yul\":7715:7833   */\n      pop\n        /* \"#utility.yul\":7366:7840   */\n      swap3\n      pop\n      swap3\n      swap1\n      pop\n      jump\t// out\n        /* \"#utility.yul\":7846:7994   */\n    tag_136:\n        /* \"#utility.yul\":7948:7959   */\n      0x00\n        /* \"#utility.yul\":7985:7988   */\n      dup2\n        /* \"#utility.yul\":7970:7988   */\n      swap1\n      pop\n        /* \"#utility.yul\":7846:7994   */\n      swap3\n      swap2\n      pop\n      pop\n      jump\t// out\n        /* \"#utility.yul\":8000:8390   */\n    tag_137:\n        /* \"#utility.yul\":8106:8109   */\n      0x00\n        /* \"#utility.yul\":8134:8173   */\n      tag_234\n        /* \"#utility.yul\":8167:8172   */\n      dup3\n        /* \"#utility.yul\":8134:8173   */\n      tag_110\n      jump\t// in\n    tag_234:\n        /* \"#utility.yul\":8189:8278   */\n      tag_235\n        /* \"#utility.yul\":8271:8277   */\n      dup2\n        /* \"#utility.yul\":8266:8269   */\n      dup6\n        /* \"#utility.yul\":8189:8278   */\n      tag_136\n      jump\t// in\n    tag_235:\n        /* \"#utility.yul\":8182:8278   */\n      swap4\n      pop\n        /* \"#utility.yul\":8287:8352   */\n      tag_236\n        /* \"#utility.yul\":8345:8351   */\n      dup2\n        /* \"#utility.yul\":8340:8343   */\n      dup6\n        /* \"#utility.yul\":8333:8337   */\n      0x20\n        /* \"#utility.yul\":8326:8331   */\n      dup7\n        /* \"#utility.yul\":8322:8338   */\n      add\n        /* \"#utility.yul\":8287:8352   */\n      tag_112\n      jump\t// in\n    tag_236:\n        /* \"#utility.yul\":8377:8383   */\n      dup1\n        /* \"#utility.yul\":8372:8375   */\n      dup5\n        /* \"#utility.yul\":8368:8384   */\n      add\n        /* \"#utility.yul\":8361:8384   */\n      swap2\n      pop\n        /* \"#utility.yul\":8110:8390   */\n      pop\n        /* \"#utility.yul\":8000:8390   */\n      swap3\n      swap2\n      pop\n      pop\n      jump\t// out\n        /* \"#utility.yul\":8396:8576   */\n    tag_138:\n        /* \"#utility.yul\":8444:8521   */\n      0x4e487b7100000000000000000000000000000000000000000000000000000000\n        /* \"#utility.yul\":8441:8442   */\n      0x00\n        /* \"#utility.yul\":8434:8522   */\n      mstore\n        /* \"#utility.yul\":8541:8545   */\n      0x22\n        /* \"#utility.yul\":8538:8539   */\n      0x04\n        /* \"#utility.yul\":8531:8546   */\n      mstore\n        /* \"#utility.yul\":8565:8569   */\n      0x24\n        /* \"#utility.yul\":8562:8563   */\n      0x00\n        /* \"#utility.yul\":8555:8570   */\n      revert\n        /* \"#utility.yul\":8582:8902   */\n    tag_91:\n        /* \"#utility.yul\":8626:8632   */\n      0x00\n        /* \"#utility.yul\":8663:8664   */\n      0x02\n        /* \"#utility.yul\":8657:8661   */\n      dup3\n        /* \"#utility.yul\":8653:8665   */\n      div\n        /* \"#utility.yul\":8643:8665   */\n      swap1\n      pop\n        /* \"#utility.yul\":8710:8711   */\n      0x01\n        /* \"#utility.yul\":8704:8708   */\n      dup3\n        /* \"#utility.yul\":8700:8712   */\n      and\n        /* \"#utility.yul\":8731:8749   */\n      dup1\n        /* \"#utility.yul\":8721:8802   */\n      tag_239\n      jumpi\n        /* \"#utility.yul\":8787:8791   */\n      0x7f\n        /* \"#utility.yul\":8779:8785   */\n      dup3\n        /* \"#utility.yul\":8775:8792   */\n      and\n        /* \"#utility.yul\":8765:8792   */\n      swap2\n      pop\n        /* \"#utility.yul\":8721:8802   */\n    tag_239:\n        /* \"#utility.yul\":8849:8851   */\n      0x20\n        /* \"#utility.yul\":8841:8847   */\n      dup3\n        /* \"#utility.yul\":8838:8852   */\n      lt\n        /* \"#utility.yul\":8818:8836   */\n      dup2\n        /* \"#utility.yul\":8815:8853   */\n      sub\n        /* \"#utility.yul\":8812:8896   */\n      tag_240\n      jumpi\n        /* \"#utility.yul\":8868:8886   */\n      tag_241\n      tag_138\n      jump\t// in\n    tag_241:\n        /* \"#utility.yul\":8812:8896   */\n    tag_240:\n        /* \"#utility.yul\":8633:8902   */\n      pop\n        /* \"#utility.yul\":8582:8902   */\n      swap2\n      swap1\n      pop\n      jump\t// out\n        /* \"#utility.yul\":8908:9049   */\n    tag_139:\n        /* \"#utility.yul\":8957:8961   */\n      0x00\n        /* \"#utility.yul\":8980:8983   */\n      dup2\n        /* \"#utility.yul\":8972:8983   */\n      swap1\n      pop\n        /* \"#utility.yul\":9003:9006   */\n      dup2\n        /* \"#utility.yul\":9000:9001   */\n      0x00\n        /* \"#utility.yul\":8993:9007   */\n      mstore\n        /* \"#utility.yul\":9037:9041   */\n      0x20\n        /* \"#utility.yul\":9034:9035   */\n      0x00\n        /* \"#utility.yul\":9024:9042   */\n      keccak256\n        /* \"#utility.yul\":9016:9042   */\n      swap1\n      pop\n        /* \"#utility.yul\":8908:9049   */\n      swap2\n      swap1\n      pop\n      jump\t// out\n        /* \"#utility.yul\":9079:9953   */\n    tag_140:\n        /* \"#utility.yul\":9182:9185   */\n      0x00\n        /* \"#utility.yul\":9219:9224   */\n      dup2\n        /* \"#utility.yul\":9213:9225   */\n      sload\n        /* \"#utility.yul\":9248:9284   */\n      tag_244\n        /* \"#utility.yul\":9274:9283   */\n      dup2\n        /* \"#utility.yul\":9248:9284   */\n      tag_91\n      jump\t// in\n    tag_244:\n        /* \"#utility.yul\":9300:9389   */\n      tag_245\n        /* \"#utility.yul\":9382:9388   */\n      dup2\n        /* \"#utility.yul\":9377:9380   */\n      dup7\n        /* \"#utility.yul\":9300:9389   */\n      tag_136\n      jump\t// in\n    tag_245:\n        /* \"#utility.yul\":9293:9389   */\n      swap5\n      pop\n        /* \"#utility.yul\":9420:9421   */\n      0x01\n        /* \"#utility.yul\":9409:9418   */\n      dup3\n        /* \"#utility.yul\":9405:9422   */\n      and\n        /* \"#utility.yul\":9436:9437   */\n      0x00\n        /* \"#utility.yul\":9431:9597   */\n      dup2\n      eq\n      tag_247\n      jumpi\n        /* \"#utility.yul\":9611:9612   */\n      0x01\n        /* \"#utility.yul\":9606:9947   */\n      dup2\n      eq\n      tag_248\n      jumpi\n        /* \"#utility.yul\":9398:9947   */\n      jump(tag_246)\n        /* \"#utility.yul\":9431:9597   */\n    tag_247:\n        /* \"#utility.yul\":9515:9519   */\n      0xff\n        /* \"#utility.yul\":9511:9520   */\n      not\n        /* \"#utility.yul\":9500:9509   */\n      dup4\n        /* \"#utility.yul\":9496:9521   */\n      and\n        /* \"#utility.yul\":9491:9494   */\n      dup7\n        /* \"#utility.yul\":9484:9522   */\n      mstore\n        /* \"#utility.yul\":9577:9583   */\n      dup2\n        /* \"#utility.yul\":9570:9584   */\n      iszero\n        /* \"#utility.yul\":9563:9585   */\n      iszero\n        /* \"#utility.yul\":9555:9561   */\n      dup3\n        /* \"#utility.yul\":9551:9586   */\n      mul\n        /* \"#utility.yul\":9546:9549   */\n      dup7\n        /* \"#utility.yul\":9542:9587   */\n      add\n        /* \"#utility.yul\":9535:9587   */\n      swap4\n      pop\n        /* \"#utility.yul\":9431:9597   */\n      jump(tag_246)\n        /* \"#utility.yul\":9606:9947   */\n    tag_248:\n        /* \"#utility.yul\":9673:9711   */\n      tag_249\n        /* \"#utility.yul\":9705:9710   */\n      dup6\n        /* \"#utility.yul\":9673:9711   */\n      tag_139\n      jump\t// in\n    tag_249:\n        /* \"#utility.yul\":9733:9734   */\n      0x00\n        /* \"#utility.yul\":9747:9901   */\n    tag_250:\n        /* \"#utility.yul\":9761:9767   */\n      dup4\n        /* \"#utility.yul\":9758:9759   */\n      dup2\n        /* \"#utility.yul\":9755:9768   */\n      lt\n        /* \"#utility.yul\":9747:9901   */\n      iszero\n      tag_252\n      jumpi\n        /* \"#utility.yul\":9835:9842   */\n      dup2\n        /* \"#utility.yul\":9829:9843   */\n      sload\n        /* \"#utility.yul\":9825:9826   */\n      dup2\n        /* \"#utility.yul\":9820:9823   */\n      dup10\n        /* \"#utility.yul\":9816:9827   */\n      add\n        /* \"#utility.yul\":9809:9844   */\n      mstore\n        /* \"#utility.yul\":9885:9886   */\n      0x01\n        /* \"#utility.yul\":9876:9883   */\n      dup3\n        /* \"#utility.yul\":9872:9887   */\n      add\n        /* \"#utility.yul\":9861:9887   */\n      swap2\n      pop\n        /* \"#utility.yul\":9783:9787   */\n      0x20\n        /* \"#utility.yul\":9780:9781   */\n      dup2\n        /* \"#utility.yul\":9776:9788   */\n      add\n        /* \"#utility.yul\":9771:9788   */\n      swap1\n      pop\n        /* \"#utility.yul\":9747:9901   */\n      jump(tag_250)\n    tag_252:\n        /* \"#utility.yul\":9930:9936   */\n      dup4\n        /* \"#utility.yul\":9925:9928   */\n      dup9\n        /* \"#utility.yul\":9921:9937   */\n      add\n        /* \"#utility.yul\":9914:9937   */\n      swap6\n      pop\n        /* \"#utility.yul\":9613:9947   */\n      pop\n      pop\n        /* \"#utility.yul\":9398:9947   */\n    tag_246:\n      pop\n        /* \"#utility.yul\":9186:9953   */\n      pop\n      pop\n        /* \"#utility.yul\":9079:9953   */\n      swap3\n      swap2\n      pop\n      pop\n      jump\t// out\n        /* \"#utility.yul\":9959:10388   */\n    tag_70:\n        /* \"#utility.yul\":10136:10139   */\n      0x00\n        /* \"#utility.yul\":10158:10253   */\n      tag_254\n        /* \"#utility.yul\":10249:10252   */\n      dup3\n        /* \"#utility.yul\":10240:10246   */\n      dup6\n        /* \"#utility.yul\":10158:10253   */\n      tag_137\n      jump\t// in\n    tag_254:\n        /* \"#utility.yul\":10151:10253   */\n      swap2\n      pop\n        /* \"#utility.yul\":10270:10362   */\n      tag_255\n        /* \"#utility.yul\":10358:10361   */\n      dup3\n        /* \"#utility.yul\":10349:10355   */\n      dup5\n        /* \"#utility.yul\":10270:10362   */\n      tag_140\n      jump\t// in\n    tag_255:\n        /* \"#utility.yul\":10263:10362   */\n      swap2\n      pop\n        /* \"#utility.yul\":10379:10382   */\n      dup2\n        /* \"#utility.yul\":10372:10382   */\n      swap1\n      pop\n        /* \"#utility.yul\":9959:10388   */\n      swap4\n      swap3\n      pop\n      pop\n      pop\n      jump\t// out\n\n    auxdata: 0xa26469706673582212204521ebb049dbcbfa50b067da5c7177c3e375a0f79c2f7e1dda03ec1dc3abbca164736f6c63430008140033\n}\n",
				"bytecode": {
					"linkReferences": {},
					"object": "608060405234801562000010575f80fd5b5060405162001277380380620012778339818101604052810190620000369190620001d3565b805f908162000046919062000459565b50506200053d565b5f604051905090565b5f80fd5b5f80fd5b5f80fd5b5f80fd5b5f601f19601f8301169050919050565b7f4e487b71000000000000000000000000000000000000000000000000000000005f52604160045260245ffd5b620000af8262000067565b810181811067ffffffffffffffff82111715620000d157620000d062000077565b5b80604052505050565b5f620000e56200004e565b9050620000f38282620000a4565b919050565b5f67ffffffffffffffff82111562000115576200011462000077565b5b620001208262000067565b9050602081019050919050565b5f5b838110156200014c5780820151818401526020810190506200012f565b5f8484015250505050565b5f6200016d6200016784620000f8565b620000da565b9050828152602081018484840111156200018c576200018b62000063565b5b620001998482856200012d565b509392505050565b5f82601f830112620001b857620001b76200005f565b5b8151620001ca84826020860162000157565b91505092915050565b5f60208284031215620001eb57620001ea62000057565b5b5f82015167ffffffffffffffff8111156200020b576200020a6200005b565b5b6200021984828501620001a1565b91505092915050565b5f81519050919050565b7f4e487b71000000000000000000000000000000000000000000000000000000005f52602260045260245ffd5b5f60028204905060018216806200027157607f821691505b6020821081036200028757620002866200022c565b5b50919050565b5f819050815f5260205f209050919050565b5f6020601f8301049050919050565b5f82821b905092915050565b5f60088302620002eb7fffffffffffffffffffffffffffffffffffffffffffffffffffffffffffffffff82620002ae565b620002f78683620002ae565b95508019841693508086168417925050509392505050565b5f819050919050565b5f819050919050565b5f620003416200033b62000335846200030f565b62000318565b6200030f565b9050919050565b5f819050919050565b6200035c8362000321565b620003746200036b8262000348565b848454620002ba565b825550505050565b5f90565b6200038a6200037c565b6200039781848462000351565b505050565b5b81811015620003be57620003b25f8262000380565b6001810190506200039d565b5050565b601f8211156200040d57620003d7816200028d565b620003e2846200029f565b81016020851015620003f2578190505b6200040a62000401856200029f565b8301826200039c565b50505b505050565b5f82821c905092915050565b5f6200042f5f198460080262000412565b1980831691505092915050565b5f6200044983836200041e565b9150826002028217905092915050565b620004648262000222565b67ffffffffffffffff81111562000480576200047f62000077565b5b6200048c825462000259565b62000499828285620003c2565b5f60209050601f831160018114620004cf575f8415620004ba578287015190505b620004c685826200043c565b86555062000535565b601f198416620004df866200028d565b5f5b828110156200050857848901518255600182019150602085019450602081019050620004e1565b8683101562000528578489015162000524601f8916826200041e565b8355505b6001600288020188555050505b505050505050565b610d2c806200054b5f395ff3fe608060405234801561000f575f80fd5b50600436106100b2575f3560e01c806370a082311161006f57806370a082311461018e5780637ecebe00146101be57806395d89b41146101ee578063a9059cbb1461020c578063d505accf1461023c578063dd62ed3e14610258576100b2565b806306fdde03146100b6578063095ea7b3146100d457806318160ddd1461010457806323b872dd14610122578063313ce567146101525780633644e51514610170575b5f80fd5b6100be610288565b6040516100cb9190610851565b60405180910390f35b6100ee60048036038101906100e99190610902565b6102e6565b6040516100fb919061095a565b60405180910390f35b61010c610336565b6040516101199190610982565b60405180910390f35b61013c6004803603810190610137919061099b565b610347565b604051610149919061095a565b60405180910390f35b61015a610418565b6040516101679190610a06565b60405180910390f35b610178610420565b6040516101859190610a37565b60405180910390f35b6101a860048036038101906101a39190610a50565b6104b0565b6040516101b59190610982565b60405180910390f35b6101d860048036038101906101d39190610a50565b6104c9565b6040516101e59190610982565b60405180910390f35b6101f66104e2565b6040516102039190610851565b60405180910390f35b61022660048036038101906102219190610902565b610571565b604051610233919061095a565b60405180910390f35b61025660048036038101906102519190610acf565b6105ff565b005b610272600480360381019061026d9190610b6c565b61079b565b60405161027f9190610982565b60405180910390f35b60606040518060400160405280600581526020017f4d494e492d0000000000000000000000000000000000000000000000000000008152505f6040516020016102d2929190610cd3565b604051602081830303815290604052905090565b5f82602052637f5e9f20600c52335f52816034600c2055815f52602c5160601c337f8c5be1e5ebec7d5bd14f71427d1e84f3dd0314c0f7b2291e5b200ac8c7c3b92560205fa36001905092915050565b5f6805345cdf77eb68f44c54905090565b5f6103538484846107b9565b8360601b33602052637f5e9f208117600c526034600c2080546001810115610390578085111561038a576313be252b5f526004601cfd5b84810382555b6387a211a28317600c526020600c208054808711156103b65763f4d678b85f526004601cfd5b8681038255875f526020600c2087815401815587602052600c5160601c8660601c7fddf252ad1be2c89b69c2b068fc378daa952ba7f163c4a11628f55a4df523b3ef602080a350505050505061040d8484846107be565b600190509392505050565b5f6012905090565b5f8061042a6107c3565b90505f801b81036104475761043d610288565b8051906020012090505b6040517f8b73c3c69bb8fe3d512ecc4cf759cc79239f7b179b0ffacaa9a75d522b39400f81528160208201527fc89efdaa54c0f20c7adf612882df0950f5a951637e0307cdcb4c672f298b8bc6604082015246606082015230608082015260a081209250505090565b5f6387a211a2600c52815f526020600c20549050919050565b5f6338377508600c52815f526020600c20549050919050565b60605f80546104f090610c11565b80601f016020809104026020016040519081016040528092919081815260200182805461051c90610c11565b80156105675780601f1061053e57610100808354040283529160200191610567565b820191905f5260205f20905b81548152906001019060200180831161054a57829003601f168201915b5050505050905090565b5f61057d3384846107b9565b6387a211a2600c52335f526020600c208054808411156105a45763f4d678b85f526004601cfd5b8381038255845f526020600c2084815401815584602052600c5160601c337fddf252ad1be2c89b69c2b068fc378daa952ba7f163c4a11628f55a4df523b3ef602080a35050506105f53384846107be565b6001905092915050565b5f6106086107c3565b90505f801b81036106255761061b610288565b8051906020012090505b8442111561063a57631a15a3cc5f526004601cfd5b6040518860601b60601c98508760601b60601c975065383775081901600e52885f526020600c2080547f8b73c3c69bb8fe3d512ecc4cf759cc79239f7b179b0ffacaa9a75d522b39400f83528360208401527fc89efdaa54c0f20c7adf612882df0950f5a951637e0307cdcb4c672f298b8bc6604084015246606084015230608084015260a08320602e527f6e71edae12b1b97f4d1f60370fef10105fa2faae0126114a169c64845d6126c983528a60208401528960408401528860608401528060808401528760a084015260c08320604e526042602c205f528660ff16602052856040528460605260208060805f60015afa8b3d51146107425763ddafbaef5f526004601cfd5b80820183558a637f5e9f2060a01b17604052896034602c20558a8c7f8c5be1e5ebec7d5bd14f71427d1e84f3dd0314c0f7b2291e5b200ac8c7c3b925602060608801a3836040525f606052505050505050505050505050565b5f81602052637f5e9f20600c52825f526034600c2054905092915050565b505050565b505050565b5f90565b5f81519050919050565b5f82825260208201905092915050565b5f5b838110156107fe5780820151818401526020810190506107e3565b5f8484015250505050565b5f601f19601f8301169050919050565b5f610823826107c7565b61082d81856107d1565b935061083d8185602086016107e1565b61084681610809565b840191505092915050565b5f6020820190508181035f8301526108698184610819565b905092915050565b5f80fd5b5f73ffffffffffffffffffffffffffffffffffffffff82169050919050565b5f61089e82610875565b9050919050565b6108ae81610894565b81146108b8575f80fd5b50565b5f813590506108c9816108a5565b92915050565b5f819050919050565b6108e1816108cf565b81146108eb575f80fd5b50565b5f813590506108fc816108d8565b92915050565b5f806040838503121561091857610917610871565b5b5f610925858286016108bb565b9250506020610936858286016108ee565b9150509250929050565b5f8115159050919050565b61095481610940565b82525050565b5f60208201905061096d5f83018461094b565b92915050565b61097c816108cf565b82525050565b5f6020820190506109955f830184610973565b92915050565b5f805f606084860312156109b2576109b1610871565b5b5f6109bf868287016108bb565b93505060206109d0868287016108bb565b92505060406109e1868287016108ee565b9150509250925092565b5f60ff82169050919050565b610a00816109eb565b82525050565b5f602082019050610a195f8301846109f7565b92915050565b5f819050919050565b610a3181610a1f565b82525050565b5f602082019050610a4a5f830184610a28565b92915050565b5f60208284031215610a6557610a64610871565b5b5f610a72848285016108bb565b91505092915050565b610a84816109eb565b8114610a8e575f80fd5b50565b5f81359050610a9f81610a7b565b92915050565b610aae81610a1f565b8114610ab8575f80fd5b50565b5f81359050610ac981610aa5565b92915050565b5f805f805f805f60e0888a031215610aea57610ae9610871565b5b5f610af78a828b016108bb565b9750506020610b088a828b016108bb565b9650506040610b198a828b016108ee565b9550506060610b2a8a828b016108ee565b9450506080610b3b8a828b01610a91565b93505060a0610b4c8a828b01610abb565b92505060c0610b5d8a828b01610abb565b91505092959891949750929550565b5f8060408385031215610b8257610b81610871565b5b5f610b8f858286016108bb565b9250506020610ba0858286016108bb565b9150509250929050565b5f81905092915050565b5f610bbe826107c7565b610bc88185610baa565b9350610bd88185602086016107e1565b80840191505092915050565b7f4e487b71000000000000000000000000000000000000000000000000000000005f52602260045260245ffd5b5f6002820490506001821680610c2857607f821691505b602082108103610c3b57610c3a610be4565b5b50919050565b5f819050815f5260205f209050919050565b5f8154610c5f81610c11565b610c698186610baa565b9450600182165f8114610c835760018114610c9857610cca565b60ff1983168652811515820286019350610cca565b610ca185610c41565b5f5b83811015610cc257815481890152600182019150602081019050610ca3565b838801955050505b50505092915050565b5f610cde8285610bb4565b9150610cea8284610c53565b9150819050939250505056fea26469706673582212204521ebb049dbcbfa50b067da5c7177c3e375a0f79c2f7e1dda03ec1dc3abbca164736f6c63430008140033",
					"opcodes": "PUSH1 0x80 PUSH1 0x40 MSTORE CALLVALUE DUP1 ISZERO PUSH3 0x10 JUMPI PUSH0 DUP1 REVERT JUMPDEST POP PUSH1 0x40 MLOAD PUSH3 0x1277 CODESIZE SUB DUP1 PUSH3 0x1277 DUP4 CODECOPY DUP2 DUP2 ADD PUSH1 0x40 MSTORE DUP2 ADD SWAP1 PUSH3 0x36 SWAP2 SWAP1 PUSH3 0x1D3 JUMP JUMPDEST DUP1 PUSH0 SWAP1 DUP2 PUSH3 0x46 SWAP2 SWAP1 PUSH3 0x459 JUMP JUMPDEST POP POP PUSH3 0x53D JUMP JUMPDEST PUSH0 PUSH1 0x40 MLOAD SWAP1 POP SWAP1 JUMP JUMPDEST PUSH0 DUP1 REVERT JUMPDEST PUSH0 DUP1 REVERT JUMPDEST PUSH0 DUP1 REVERT JUMPDEST PUSH0 DUP1 REVERT JUMPDEST PUSH0 PUSH1 0x1F NOT PUSH1 0x1F DUP4 ADD AND SWAP1 POP SWAP2 SWAP1 POP JUMP JUMPDEST PUSH32 0x4E487B7100000000000000000000000000000000000000000000000000000000 PUSH0 MSTORE PUSH1 0x41 PUSH1 0x4 MSTORE PUSH1 0x24 PUSH0 REVERT JUMPDEST PUSH3 0xAF DUP3 PUSH3 0x67 JUMP JUMPDEST DUP2 ADD DUP2 DUP2 LT PUSH8 0xFFFFFFFFFFFFFFFF DUP3 GT OR ISZERO PUSH3 0xD1 JUMPI PUSH3 0xD0 PUSH3 0x77 JUMP JUMPDEST JUMPDEST DUP1 PUSH1 0x40 MSTORE POP POP POP JUMP JUMPDEST PUSH0 PUSH3 0xE5 PUSH3 0x4E JUMP JUMPDEST SWAP1 POP PUSH3 0xF3 DUP3 DUP3 PUSH3 0xA4 JUMP JUMPDEST SWAP2 SWAP1 POP JUMP JUMPDEST PUSH0 PUSH8 0xFFFFFFFFFFFFFFFF DUP3 GT ISZERO PUSH3 0x115 JUMPI PUSH3 0x114 PUSH3 0x77 JUMP JUMPDEST JUMPDEST PUSH3 0x120 DUP3 PUSH3 0x67 JUMP JUMPDEST SWAP1 POP PUSH1 0x20 DUP2 ADD SWAP1 POP SWAP2 SWAP1 POP JUMP JUMPDEST PUSH0 JUMPDEST DUP4 DUP2 LT ISZERO PUSH3 0x14C JUMPI DUP1 DUP3 ADD MLOAD DUP2 DUP5 ADD MSTORE PUSH1 0x20 DUP2 ADD SWAP1 POP PUSH3 0x12F JUMP JUMPDEST PUSH0 DUP5 DUP5 ADD MSTORE POP POP POP POP JUMP JUMPDEST PUSH0 PUSH3 0x16D PUSH3 0x167 DUP5 PUSH3 0xF8 JUMP JUMPDEST PUSH3 0xDA JUMP JUMPDEST SWAP1 POP DUP3 DUP2 MSTORE PUSH1 0x20 DUP2 ADD DUP5 DUP5 DUP5 ADD GT ISZERO PUSH3 0x18C JUMPI PUSH3 0x18B PUSH3 0x63 JUMP JUMPDEST JUMPDEST PUSH3 0x199 DUP5 DUP3 DUP6 PUSH3 0x12D JUMP JUMPDEST POP SWAP4 SWAP3 POP POP POP JUMP JUMPDEST PUSH0 DUP3 PUSH1 0x1F DUP4 ADD SLT PUSH3 0x1B8 JUMPI PUSH3 0x1B7 PUSH3 0x5F JUMP JUMPDEST JUMPDEST DUP2 MLOAD PUSH3 0x1CA DUP5 DUP3 PUSH1 0x20 DUP7 ADD PUSH3 0x157 JUMP JUMPDEST SWAP2 POP POP SWAP3 SWAP2 POP POP JUMP JUMPDEST PUSH0 PUSH1 0x20 DUP3 DUP5 SUB SLT ISZERO PUSH3 0x1EB JUMPI PUSH3 0x1EA PUSH3 0x57 JUMP JUMPDEST JUMPDEST PUSH0 DUP3 ADD MLOAD PUSH8 0xFFFFFFFFFFFFFFFF DUP2 GT ISZERO PUSH3 0x20B JUMPI PUSH3 0x20A PUSH3 0x5B JUMP JUMPDEST JUMPDEST PUSH3 0x219 DUP5 DUP3 DUP6 ADD PUSH3 0x1A1 JUMP JUMPDEST SWAP2 POP POP SWAP3 SWAP2 POP POP JUMP JUMPDEST PUSH0 DUP2 MLOAD SWAP1 POP SWAP2 SWAP1 POP JUMP JUMPDEST PUSH32 0x4E487B7100000000000000000000000000000000000000000000000000000000 PUSH0 MSTORE PUSH1 0x22 PUSH1 0x4 MSTORE PUSH1 0x24 PUSH0 REVERT JUMPDEST PUSH0 PUSH1 0x2 DUP3 DIV SWAP1 POP PUSH1 0x1 DUP3 AND DUP1 PUSH3 0x271 JUMPI PUSH1 0x7F DUP3 AND SWAP2 POP JUMPDEST PUSH1 0x20 DUP3 LT DUP2 SUB PUSH3 0x287 JUMPI PUSH3 0x286 PUSH3 0x22C JUMP JUMPDEST JUMPDEST POP SWAP2 SWAP1 POP JUMP JUMPDEST PUSH0 DUP2 SWAP1 POP DUP2 PUSH0 MSTORE PUSH1 0x20 PUSH0 KECCAK256 SWAP1 POP SWAP2 SWAP1 POP JUMP JUMPDEST PUSH0 PUSH1 0x20 PUSH1 0x1F DUP4 ADD DIV SWAP1 POP SWAP2 SWAP1 POP JUMP JUMPDEST PUSH0 DUP3 DUP3 SHL SWAP1 POP SWAP3 SWAP2 POP POP JUMP JUMPDEST PUSH0 PUSH1 0x8 DUP4 MUL PUSH3 0x2EB PUSH32 0xFFFFFFFFFFFFFFFFFFFFFFFFFFFFFFFFFFFFFFFFFFFFFFFFFFFFFFFFFFFFFFFF DUP3 PUSH3 0x2AE JUMP JUMPDEST PUSH3 0x2F7 DUP7 DUP4 PUSH3 0x2AE JUMP JUMPDEST SWAP6 POP DUP1 NOT DUP5 AND SWAP4 POP DUP1 DUP7 AND DUP5 OR SWAP3 POP POP POP SWAP4 SWAP3 POP POP POP JUMP JUMPDEST PUSH0 DUP2 SWAP1 POP SWAP2 SWAP1 POP JUMP JUMPDEST PUSH0 DUP2 SWAP1 POP SWAP2 SWAP1 POP JUMP JUMPDEST PUSH0 PUSH3 0x341 PUSH3 0x33B PUSH3 0x335 DUP5 PUSH3 0x30F JUMP JUMPDEST PUSH3 0x318 JUMP JUMPDEST PUSH3 0x30F JUMP JUMPDEST SWAP1 POP SWAP2 SWAP1 POP JUMP JUMPDEST PUSH0 DUP2 SWAP1 POP SWAP2 SWAP1 POP JUMP JUMPDEST PUSH3 0x35C DUP4 PUSH3 0x321 JUMP JUMPDEST PUSH3 0x374 PUSH3 0x36B DUP3 PUSH3 0x348 JUMP JUMPDEST DUP5 DUP5 SLOAD PUSH3 0x2BA JUMP JUMPDEST DUP3 SSTORE POP POP POP POP JUMP JUMPDEST PUSH0 SWAP1 JUMP JUMPDEST PUSH3 0x38A PUSH3 0x37C JUMP JUMPDEST PUSH3 0x397 DUP2 DUP5 DUP5 PUSH3 0x351 JUMP JUMPDEST POP POP POP JUMP JUMPDEST JUMPDEST DUP2 DUP2 LT ISZERO PUSH3 0x3BE JUMPI PUSH3 0x3B2 PUSH0 DUP3 PUSH3 0x380 JUMP JUMPDEST PUSH1 0x1 DUP2 ADD SWAP1 POP PUSH3 0x39D JUMP JUMPDEST POP POP JUMP JUMPDEST PUSH1 0x1F DUP3 GT ISZERO PUSH3 0x40D JUMPI PUSH3 0x3D7 DUP2 PUSH3 0x28D JUMP JUMPDEST PUSH3 0x3E2 DUP5 PUSH3 0x29F JUMP JUMPDEST DUP2 ADD PUSH1 0x20 DUP6 LT ISZERO PUSH3 0x3F2 JUMPI DUP2 SWAP1 POP JUMPDEST PUSH3 0x40A PUSH3 0x401 DUP6 PUSH3 0x29F JUMP JUMPDEST DUP4 ADD DUP3 PUSH3 0x39C JUMP JUMPDEST POP POP JUMPDEST POP POP POP JUMP JUMPDEST PUSH0 DUP3 DUP3 SHR SWAP1 POP SWAP3 SWAP2 POP POP JUMP JUMPDEST PUSH0 PUSH3 0x42F PUSH0 NOT DUP5 PUSH1 0x8 MUL PUSH3 0x412 JUMP JUMPDEST NOT DUP1 DUP4 AND SWAP2 POP POP SWAP3 SWAP2 POP POP JUMP JUMPDEST PUSH0 PUSH3 0x449 DUP4 DUP4 PUSH3 0x41E JUMP JUMPDEST SWAP2 POP DUP3 PUSH1 0x2 MUL DUP3 OR SWAP1 POP SWAP3 SWAP2 POP POP JUMP JUMPDEST PUSH3 0x464 DUP3 PUSH3 0x222 JUMP JUMPDEST PUSH8 0xFFFFFFFFFFFFFFFF DUP2 GT ISZERO PUSH3 0x480 JUMPI PUSH3 0x47F PUSH3 0x77 JUMP JUMPDEST JUMPDEST PUSH3 0x48C DUP3 SLOAD PUSH3 0x259 JUMP JUMPDEST PUSH3 0x499 DUP3 DUP3 DUP6 PUSH3 0x3C2 JUMP JUMPDEST PUSH0 PUSH1 0x20 SWAP1 POP PUSH1 0x1F DUP4 GT PUSH1 0x1 DUP2 EQ PUSH3 0x4CF JUMPI PUSH0 DUP5 ISZERO PUSH3 0x4BA JUMPI DUP3 DUP8 ADD MLOAD SWAP1 POP JUMPDEST PUSH3 0x4C6 DUP6 DUP3 PUSH3 0x43C JUMP JUMPDEST DUP7 SSTORE POP PUSH3 0x535 JUMP JUMPDEST PUSH1 0x1F NOT DUP5 AND PUSH3 0x4DF DUP7 PUSH3 0x28D JUMP JUMPDEST PUSH0 JUMPDEST DUP3 DUP2 LT ISZERO PUSH3 0x508 JUMPI DUP5 DUP10 ADD MLOAD DUP3 SSTORE PUSH1 0x1 DUP3 ADD SWAP2 POP PUSH1 0x20 DUP6 ADD SWAP5 POP PUSH1 0x20 DUP2 ADD SWAP1 POP PUSH3 0x4E1 JUMP JUMPDEST DUP7 DUP4 LT ISZERO PUSH3 0x528 JUMPI DUP5 DUP10 ADD MLOAD PUSH3 0x524 PUSH1 0x1F DUP10 AND DUP3 PUSH3 0x41E JUMP JUMPDEST DUP4 SSTORE POP JUMPDEST PUSH1 0x1 PUSH1 0x2 DUP9 MUL ADD DUP9 SSTORE POP POP POP JUMPDEST POP POP POP POP POP POP JUMP JUMPDEST PUSH2 0xD2C DUP1 PUSH3 0x54B PUSH0 CODECOPY PUSH0 RETURN INVALID PUSH1 0x80 PUSH1 0x40 MSTORE CALLVALUE DUP1 ISZERO PUSH2 0xF JUMPI PUSH0 DUP1 REVERT JUMPDEST POP PUSH1 0x4 CALLDATASIZE LT PUSH2 0xB2 JUMPI PUSH0 CALLDATALOAD PUSH1 0xE0 SHR DUP1 PUSH4 0x70A08231 GT PUSH2 0x6F JUMPI DUP1 PUSH4 0x70A08231 EQ PUSH2 0x18E JUMPI DUP1 PUSH4 0x7ECEBE00 EQ PUSH2 0x1BE JUMPI DUP1 PUSH4 0x95D89B41 EQ PUSH2 0x1EE JUMPI DUP1 PUSH4 0xA9059CBB EQ PUSH2 0x20C JUMPI DUP1 PUSH4 0xD505ACCF EQ PUSH2 0x23C JUMPI DUP1 PUSH4 0xDD62ED3E EQ PUSH2 0x258 JUMPI PUSH2 0xB2 JUMP JUMPDEST DUP1 PUSH4 0x6FDDE03 EQ PUSH2 0xB6 JUMPI DUP1 PUSH4 0x95EA7B3 EQ PUSH2 0xD4 JUMPI DUP1 PUSH4 0x18160DDD EQ PUSH2 0x104 JUMPI DUP1 PUSH4 0x23B872DD EQ PUSH2 0x122 JUMPI DUP1 PUSH4 0x313CE567 EQ PUSH2 0x152 JUMPI DUP1 PUSH4 0x3644E515 EQ PUSH2 0x170 JUMPI JUMPDEST PUSH0 DUP1 REVERT JUMPDEST PUSH2 0xBE PUSH2 0x288 JUMP JUMPDEST PUSH1 0x40 MLOAD PUSH2 0xCB SWAP2 SWAP1 PUSH2 0x851 JUMP JUMPDEST PUSH1 0x40 MLOAD DUP1 SWAP2 SUB SWAP1 RETURN JUMPDEST PUSH2 0xEE PUSH1 0x4 DUP1 CALLDATASIZE SUB DUP2 ADD SWAP1 PUSH2 0xE9 SWAP2 SWAP1 PUSH2 0x902 JUMP JUMPDEST PUSH2 0x2E6 JUMP JUMPDEST PUSH1 0x40 MLOAD PUSH2 0xFB SWAP2 SWAP1 PUSH2 0x95A JUMP JUMPDEST PUSH1 0x40 MLOAD DUP1 SWAP2 SUB SWAP1 RETURN JUMPDEST PUSH2 0x10C PUSH2 0x336 JUMP JUMPDEST PUSH1 0x40 MLOAD PUSH2 0x119 SWAP2 SWAP1 PUSH2 0x982 JUMP JUMPDEST PUSH1 0x40 MLOAD DUP1 SWAP2 SUB SWAP1 RETURN JUMPDEST PUSH2 0x13C PUSH1 0x4 DUP1 CALLDATASIZE SUB DUP2 ADD SWAP1 PUSH2 0x137 SWAP2 SWAP1 PUSH2 0x99B JUMP JUMPDEST PUSH2 0x347 JUMP JUMPDEST PUSH1 0x40 MLOAD PUSH2 0x149 SWAP2 SWAP1 PUSH2 0x95A JUMP JUMPDEST PUSH1 0x40 MLOAD DUP1 SWAP2 SUB SWAP1 RETURN JUMPDEST PUSH2 0x15A PUSH2 0x418 JUMP JUMPDEST PUSH1 0x40 MLOAD PUSH2 0x167 SWAP2 SWAP1 PUSH2 0xA06 JUMP JUMPDEST PUSH1 0x40 MLOAD DUP1 SWAP2 SUB SWAP1 RETURN JUMPDEST PUSH2 0x178 PUSH2 0x420 JUMP JUMPDEST PUSH1 0x40 MLOAD PUSH2 0x185 SWAP2 SWAP1 PUSH2 0xA37 JUMP JUMPDEST PUSH1 0x40 MLOAD DUP1 SWAP2 SUB SWAP1 RETURN JUMPDEST PUSH2 0x1A8 PUSH1 0x4 DUP1 CALLDATASIZE SUB DUP2 ADD SWAP1 PUSH2 0x1A3 SWAP2 SWAP1 PUSH2 0xA50 JUMP JUMPDEST PUSH2 0x4B0 JUMP JUMPDEST PUSH1 0x40 MLOAD PUSH2 0x1B5 SWAP2 SWAP1 PUSH2 0x982 JUMP JUMPDEST PUSH1 0x40 MLOAD DUP1 SWAP2 SUB SWAP1 RETURN JUMPDEST PUSH2 0x1D8 PUSH1 0x4 DUP1 CALLDATASIZE SUB DUP2 ADD SWAP1 PUSH2 0x1D3 SWAP2 SWAP1 PUSH2 0xA50 JUMP JUMPDEST PUSH2 0x4C9 JUMP JUMPDEST PUSH1 0x40 MLOAD PUSH2 0x1E5 SWAP2 SWAP1 PUSH2 0x982 JUMP JUMPDEST PUSH1 0x40 MLOAD DUP1 SWAP2 SUB SWAP1 RETURN JUMPDEST PUSH2 0x1F6 PUSH2 0x4E2 JUMP JUMPDEST PUSH1 0x40 MLOAD PUSH2 0x203 SWAP2 SWAP1 PUSH2 0x851 JUMP JUMPDEST PUSH1 0x40 MLOAD DUP1 SWAP2 SUB SWAP1 RETURN JUMPDEST PUSH2 0x226 PUSH1 0x4 DUP1 CALLDATASIZE SUB DUP2 ADD SWAP1 PUSH2 0x221 SWAP2 SWAP1 PUSH2 0x902 JUMP JUMPDEST PUSH2 0x571 JUMP JUMPDEST PUSH1 0x40 MLOAD PUSH2 0x233 SWAP2 SWAP1 PUSH2 0x95A JUMP JUMPDEST PUSH1 0x40 MLOAD DUP1 SWAP2 SUB SWAP1 RETURN JUMPDEST PUSH2 0x256 PUSH1 0x4 DUP1 CALLDATASIZE SUB DUP2 ADD SWAP1 PUSH2 0x251 SWAP2 SWAP1 PUSH2 0xACF JUMP JUMPDEST PUSH2 0x5FF JUMP JUMPDEST STOP JUMPDEST PUSH2 0x272 PUSH1 0x4 DUP1 CALLDATASIZE SUB DUP2 ADD SWAP1 PUSH2 0x26D SWAP2 SWAP1 PUSH2 0xB6C JUMP JUMPDEST PUSH2 0x79B JUMP JUMPDEST PUSH1 0x40 MLOAD PUSH2 0x27F SWAP2 SWAP1 PUSH2 0x982 JUMP JUMPDEST PUSH1 0x40 MLOAD DUP1 SWAP2 SUB SWAP1 RETURN JUMPDEST PUSH1 0x60 PUSH1 0x40 MLOAD DUP1 PUSH1 0x40 ADD PUSH1 0x40 MSTORE DUP1 PUSH1 0x5 DUP2 MSTORE PUSH1 0x20 ADD PUSH32 0x4D494E492D000000000000000000000000000000000000000000000000000000 DUP2 MSTORE POP PUSH0 PUSH1 0x40 MLOAD PUSH1 0x20 ADD PUSH2 0x2D2 SWAP3 SWAP2 SWAP1 PUSH2 0xCD3 JUMP JUMPDEST PUSH1 0x40 MLOAD PUSH1 0x20 DUP2 DUP4 SUB SUB DUP2 MSTORE SWAP1 PUSH1 0x40 MSTORE SWAP1 POP SWAP1 JUMP JUMPDEST PUSH0 DUP3 PUSH1 0x20 MSTORE PUSH4 0x7F5E9F20 PUSH1 0xC MSTORE CALLER PUSH0 MSTORE DUP2 PUSH1 0x34 PUSH1 0xC KECCAK256 SSTORE DUP2 PUSH0 MSTORE PUSH1 0x2C MLOAD PUSH1 0x60 SHR CALLER PUSH32 0x8C5BE1E5EBEC7D5BD14F71427D1E84F3DD0314C0F7B2291E5B200AC8C7C3B925 PUSH1 0x20 PUSH0 LOG3 PUSH1 0x1 SWAP1 POP SWAP3 SWAP2 POP POP JUMP JUMPDEST PUSH0 PUSH9 0x5345CDF77EB68F44C SLOAD SWAP1 POP SWAP1 JUMP JUMPDEST PUSH0 PUSH2 0x353 DUP5 DUP5 DUP5 PUSH2 0x7B9 JUMP JUMPDEST DUP4 PUSH1 0x60 SHL CALLER PUSH1 0x20 MSTORE PUSH4 0x7F5E9F20 DUP2 OR PUSH1 0xC MSTORE PUSH1 0x34 PUSH1 0xC KECCAK256 DUP1 SLOAD PUSH1 0x1 DUP2 ADD ISZERO PUSH2 0x390 JUMPI DUP1 DUP6 GT ISZERO PUSH2 0x38A JUMPI PUSH4 0x13BE252B PUSH0 MSTORE PUSH1 0x4 PUSH1 0x1C REVERT JUMPDEST DUP5 DUP2 SUB DUP3 SSTORE JUMPDEST PUSH4 0x87A211A2 DUP4 OR PUSH1 0xC MSTORE PUSH1 0x20 PUSH1 0xC KECCAK256 DUP1 SLOAD DUP1 DUP8 GT ISZERO PUSH2 0x3B6 JUMPI PUSH4 0xF4D678B8 PUSH0 MSTORE PUSH1 0x4 PUSH1 0x1C REVERT JUMPDEST DUP7 DUP2 SUB DUP3 SSTORE DUP8 PUSH0 MSTORE PUSH1 0x20 PUSH1 0xC KECCAK256 DUP8 DUP2 SLOAD ADD DUP2 SSTORE DUP8 PUSH1 0x20 MSTORE PUSH1 0xC MLOAD PUSH1 0x60 SHR DUP7 PUSH1 0x60 SHR PUSH32 0xDDF252AD1BE2C89B69C2B068FC378DAA952BA7F163C4A11628F55A4DF523B3EF PUSH1 0x20 DUP1 LOG3 POP POP POP POP POP POP PUSH2 0x40D DUP5 DUP5 DUP5 PUSH2 0x7BE JUMP JUMPDEST PUSH1 0x1 SWAP1 POP SWAP4 SWAP3 POP POP POP JUMP JUMPDEST PUSH0 PUSH1 0x12 SWAP1 POP SWAP1 JUMP JUMPDEST PUSH0 DUP1 PUSH2 0x42A PUSH2 0x7C3 JUMP JUMPDEST SWAP1 POP PUSH0 DUP1 SHL DUP2 SUB PUSH2 0x447 JUMPI PUSH2 0x43D PUSH2 0x288 JUMP JUMPDEST DUP1 MLOAD SWAP1 PUSH1 0x20 ADD KECCAK256 SWAP1 POP JUMPDEST PUSH1 0x40 MLOAD PUSH32 0x8B73C3C69BB8FE3D512ECC4CF759CC79239F7B179B0FFACAA9A75D522B39400F DUP2 MSTORE DUP2 PUSH1 0x20 DUP3 ADD MSTORE PUSH32 0xC89EFDAA54C0F20C7ADF612882DF0950F5A951637E0307CDCB4C672F298B8BC6 PUSH1 0x40 DUP3 ADD MSTORE CHAINID PUSH1 0x60 DUP3 ADD MSTORE ADDRESS PUSH1 0x80 DUP3 ADD MSTORE PUSH1 0xA0 DUP2 KECCAK256 SWAP3 POP POP POP SWAP1 JUMP JUMPDEST PUSH0 PUSH4 0x87A211A2 PUSH1 0xC MSTORE DUP2 PUSH0 MSTORE PUSH1 0x20 PUSH1 0xC KECCAK256 SLOAD SWAP1 POP SWAP2 SWAP1 POP JUMP JUMPDEST PUSH0 PUSH4 0x38377508 PUSH1 0xC MSTORE DUP2 PUSH0 MSTORE PUSH1 0x20 PUSH1 0xC KECCAK256 SLOAD SWAP1 POP SWAP2 SWAP1 POP JUMP JUMPDEST PUSH1 0x60 PUSH0 DUP1 SLOAD PUSH2 0x4F0 SWAP1 PUSH2 0xC11 JUMP JUMPDEST DUP1 PUSH1 0x1F ADD PUSH1 0x20 DUP1 SWAP2 DIV MUL PUSH1 0x20 ADD PUSH1 0x40 MLOAD SWAP1 DUP2 ADD PUSH1 0x40 MSTORE DUP1 SWAP3 SWAP2 SWAP1 DUP2 DUP2 MSTORE PUSH1 0x20 ADD DUP3 DUP1 SLOAD PUSH2 0x51C SWAP1 PUSH2 0xC11 JUMP JUMPDEST DUP1 ISZERO PUSH2 0x567 JUMPI DUP1 PUSH1 0x1F LT PUSH2 0x53E JUMPI PUSH2 0x100 DUP1 DUP4 SLOAD DIV MUL DUP4 MSTORE SWAP2 PUSH1 0x20 ADD SWAP2 PUSH2 0x567 JUMP JUMPDEST DUP3 ADD SWAP2 SWAP1 PUSH0 MSTORE PUSH1 0x20 PUSH0 KECCAK256 SWAP1 JUMPDEST DUP2 SLOAD DUP2 MSTORE SWAP1 PUSH1 0x1 ADD SWAP1 PUSH1 0x20 ADD DUP1 DUP4 GT PUSH2 0x54A JUMPI DUP3 SWAP1 SUB PUSH1 0x1F AND DUP3 ADD SWAP2 JUMPDEST POP POP POP POP POP SWAP1 POP SWAP1 JUMP JUMPDEST PUSH0 PUSH2 0x57D CALLER DUP5 DUP5 PUSH2 0x7B9 JUMP JUMPDEST PUSH4 0x87A211A2 PUSH1 0xC MSTORE CALLER PUSH0 MSTORE PUSH1 0x20 PUSH1 0xC KECCAK256 DUP1 SLOAD DUP1 DUP5 GT ISZERO PUSH2 0x5A4 JUMPI PUSH4 0xF4D678B8 PUSH0 MSTORE PUSH1 0x4 PUSH1 0x1C REVERT JUMPDEST DUP4 DUP2 SUB DUP3 SSTORE DUP5 PUSH0 MSTORE PUSH1 0x20 PUSH1 0xC KECCAK256 DUP5 DUP2 SLOAD ADD DUP2 SSTORE DUP5 PUSH1 0x20 MSTORE PUSH1 0xC MLOAD PUSH1 0x60 SHR CALLER PUSH32 0xDDF252AD1BE2C89B69C2B068FC378DAA952BA7F163C4A11628F55A4DF523B3EF PUSH1 0x20 DUP1 LOG3 POP POP POP PUSH2 0x5F5 CALLER DUP5 DUP5 PUSH2 0x7BE JUMP JUMPDEST PUSH1 0x1 SWAP1 POP SWAP3 SWAP2 POP POP JUMP JUMPDEST PUSH0 PUSH2 0x608 PUSH2 0x7C3 JUMP JUMPDEST SWAP1 POP PUSH0 DUP1 SHL DUP2 SUB PUSH2 0x625 JUMPI PUSH2 0x61B PUSH2 0x288 JUMP JUMPDEST DUP1 MLOAD SWAP1 PUSH1 0x20 ADD KECCAK256 SWAP1 POP JUMPDEST DUP5 TIMESTAMP GT ISZERO PUSH2 0x63A JUMPI PUSH4 0x1A15A3CC PUSH0 MSTORE PUSH1 0x4 PUSH1 0x1C REVERT JUMPDEST PUSH1 0x40 MLOAD DUP9 PUSH1 0x60 SHL PUSH1 0x60 SHR SWAP9 POP DUP8 PUSH1 0x60 SHL PUSH1 0x60 SHR SWAP8 POP PUSH6 0x383775081901 PUSH1 0xE MSTORE DUP9 PUSH0 MSTORE PUSH1 0x20 PUSH1 0xC KECCAK256 DUP1 SLOAD PUSH32 0x8B73C3C69BB8FE3D512ECC4CF759CC79239F7B179B0FFACAA9A75D522B39400F DUP4 MSTORE DUP4 PUSH1 0x20 DUP5 ADD MSTORE PUSH32 0xC89EFDAA54C0F20C7ADF612882DF0950F5A951637E0307CDCB4C672F298B8BC6 PUSH1 0x40 DUP5 ADD MSTORE CHAINID PUSH1 0x60 DUP5 ADD MSTORE ADDRESS PUSH1 0x80 DUP5 ADD MSTORE PUSH1 0xA0 DUP4 KECCAK256 PUSH1 0x2E MSTORE PUSH32 0x6E71EDAE12B1B97F4D1F60370FEF10105FA2FAAE0126114A169C64845D6126C9 DUP4 MSTORE DUP11 PUSH1 0x20 DUP5 ADD MSTORE DUP10 PUSH1 0x40 DUP5 ADD MSTORE DUP9 PUSH1 0x60 DUP5 ADD MSTORE DUP1 PUSH1 0x80 DUP5 ADD MSTORE DUP8 PUSH1 0xA0 DUP5 ADD MSTORE PUSH1 0xC0 DUP4 KECCAK256 PUSH1 0x4E MSTORE PUSH1 0x42 PUSH1 0x2C KECCAK256 PUSH0 MSTORE DUP7 PUSH1 0xFF AND PUSH1 0x20 MSTORE DUP6 PUSH1 0x40 MSTORE DUP5 PUSH1 0x60 MSTORE PUSH1 0x20 DUP1 PUSH1 0x80 PUSH0 PUSH1 0x1 GAS STATICCALL DUP12 RETURNDATASIZE MLOAD EQ PUSH2 0x742 JUMPI PUSH4 0xDDAFBAEF PUSH0 MSTORE PUSH1 0x4 PUSH1 0x1C REVERT JUMPDEST DUP1 DUP3 ADD DUP4 SSTORE DUP11 PUSH4 0x7F5E9F20 PUSH1 0xA0 SHL OR PUSH1 0x40 MSTORE DUP10 PUSH1 0x34 PUSH1 0x2C KECCAK256 SSTORE DUP11 DUP13 PUSH32 0x8C5BE1E5EBEC7D5BD14F71427D1E84F3DD0314C0F7B2291E5B200AC8C7C3B925 PUSH1 0x20 PUSH1 0x60 DUP9 ADD LOG3 DUP4 PUSH1 0x40 MSTORE PUSH0 PUSH1 0x60 MSTORE POP POP POP POP POP POP POP POP POP POP POP POP JUMP JUMPDEST PUSH0 DUP2 PUSH1 0x20 MSTORE PUSH4 0x7F5E9F20 PUSH1 0xC MSTORE DUP3 PUSH0 MSTORE PUSH1 0x34 PUSH1 0xC KECCAK256 SLOAD SWAP1 POP SWAP3 SWAP2 POP POP JUMP JUMPDEST POP POP POP JUMP JUMPDEST POP POP POP JUMP JUMPDEST PUSH0 SWAP1 JUMP JUMPDEST PUSH0 DUP2 MLOAD SWAP1 POP SWAP2 SWAP1 POP JUMP JUMPDEST PUSH0 DUP3 DUP3 MSTORE PUSH1 0x20 DUP3 ADD SWAP1 POP SWAP3 SWAP2 POP POP JUMP JUMPDEST PUSH0 JUMPDEST DUP4 DUP2 LT ISZERO PUSH2 0x7FE JUMPI DUP1 DUP3 ADD MLOAD DUP2 DUP5 ADD MSTORE PUSH1 0x20 DUP2 ADD SWAP1 POP PUSH2 0x7E3 JUMP JUMPDEST PUSH0 DUP5 DUP5 ADD MSTORE POP POP POP POP JUMP JUMPDEST PUSH0 PUSH1 0x1F NOT PUSH1 0x1F DUP4 ADD AND SWAP1 POP SWAP2 SWAP1 POP JUMP JUMPDEST PUSH0 PUSH2 0x823 DUP3 PUSH2 0x7C7 JUMP JUMPDEST PUSH2 0x82D DUP2 DUP6 PUSH2 0x7D1 JUMP JUMPDEST SWAP4 POP PUSH2 0x83D DUP2 DUP6 PUSH1 0x20 DUP7 ADD PUSH2 0x7E1 JUMP JUMPDEST PUSH2 0x846 DUP2 PUSH2 0x809 JUMP JUMPDEST DUP5 ADD SWAP2 POP POP SWAP3 SWAP2 POP POP JUMP JUMPDEST PUSH0 PUSH1 0x20 DUP3 ADD SWAP1 POP DUP2 DUP2 SUB PUSH0 DUP4 ADD MSTORE PUSH2 0x869 DUP2 DUP5 PUSH2 0x819 JUMP JUMPDEST SWAP1 POP SWAP3 SWAP2 POP POP JUMP JUMPDEST PUSH0 DUP1 REVERT JUMPDEST PUSH0 PUSH20 0xFFFFFFFFFFFFFFFFFFFFFFFFFFFFFFFFFFFFFFFF DUP3 AND SWAP1 POP SWAP2 SWAP1 POP JUMP JUMPDEST PUSH0 PUSH2 0x89E DUP3 PUSH2 0x875 JUMP JUMPDEST SWAP1 POP SWAP2 SWAP1 POP JUMP JUMPDEST PUSH2 0x8AE DUP2 PUSH2 0x894 JUMP JUMPDEST DUP2 EQ PUSH2 0x8B8 JUMPI PUSH0 DUP1 REVERT JUMPDEST POP JUMP JUMPDEST PUSH0 DUP2 CALLDATALOAD SWAP1 POP PUSH2 0x8C9 DUP2 PUSH2 0x8A5 JUMP JUMPDEST SWAP3 SWAP2 POP POP JUMP JUMPDEST PUSH0 DUP2 SWAP1 POP SWAP2 SWAP1 POP JUMP JUMPDEST PUSH2 0x8E1 DUP2 PUSH2 0x8CF JUMP JUMPDEST DUP2 EQ PUSH2 0x8EB JUMPI PUSH0 DUP1 REVERT JUMPDEST POP JUMP JUMPDEST PUSH0 DUP2 CALLDATALOAD SWAP1 POP PUSH2 0x8FC DUP2 PUSH2 0x8D8 JUMP JUMPDEST SWAP3 SWAP2 POP POP JUMP JUMPDEST PUSH0 DUP1 PUSH1 0x40 DUP4 DUP6 SUB SLT ISZERO PUSH2 0x918 JUMPI PUSH2 0x917 PUSH2 0x871 JUMP JUMPDEST JUMPDEST PUSH0 PUSH2 0x925 DUP6 DUP3 DUP7 ADD PUSH2 0x8BB JUMP JUMPDEST SWAP3 POP POP PUSH1 0x20 PUSH2 0x936 DUP6 DUP3 DUP7 ADD PUSH2 0x8EE JUMP JUMPDEST SWAP2 POP POP SWAP3 POP SWAP3 SWAP1 POP JUMP JUMPDEST PUSH0 DUP2 ISZERO ISZERO SWAP1 POP SWAP2 SWAP1 POP JUMP JUMPDEST PUSH2 0x954 DUP2 PUSH2 0x940 JUMP JUMPDEST DUP3 MSTORE POP POP JUMP JUMPDEST PUSH0 PUSH1 0x20 DUP3 ADD SWAP1 POP PUSH2 0x96D PUSH0 DUP4 ADD DUP5 PUSH2 0x94B JUMP JUMPDEST SWAP3 SWAP2 POP POP JUMP JUMPDEST PUSH2 0x97C DUP2 PUSH2 0x8CF JUMP JUMPDEST DUP3 MSTORE POP POP JUMP JUMPDEST PUSH0 PUSH1 0x20 DUP3 ADD SWAP1 POP PUSH2 0x995 PUSH0 DUP4 ADD DUP5 PUSH2 0x973 JUMP JUMPDEST SWAP3 SWAP2 POP POP JUMP JUMPDEST PUSH0 DUP1 PUSH0 PUSH1 0x60 DUP5 DUP7 SUB SLT ISZERO PUSH2 0x9B2 JUMPI PUSH2 0x9B1 PUSH2 0x871 JUMP JUMPDEST JUMPDEST PUSH0 PUSH2 0x9BF DUP7 DUP3 DUP8 ADD PUSH2 0x8BB JUMP JUMPDEST SWAP4 POP POP PUSH1 0x20 PUSH2 0x9D0 DUP7 DUP3 DUP8 ADD PUSH2 0x8BB JUMP JUMPDEST SWAP3 POP POP PUSH1 0x40 PUSH2 0x9E1 DUP7 DUP3 DUP8 ADD PUSH2 0x8EE JUMP JUMPDEST SWAP2 POP POP SWAP3 POP SWAP3 POP SWAP3 JUMP JUMPDEST PUSH0 PUSH1 0xFF DUP3 AND SWAP1 POP SWAP2 SWAP1 POP JUMP JUMPDEST PUSH2 0xA00 DUP2 PUSH2 0x9EB JUMP JUMPDEST DUP3 MSTORE POP POP JUMP JUMPDEST PUSH0 PUSH1 0x20 DUP3 ADD SWAP1 POP PUSH2 0xA19 PUSH0 DUP4 ADD DUP5 PUSH2 0x9F7 JUMP JUMPDEST SWAP3 SWAP2 POP POP JUMP JUMPDEST PUSH0 DUP2 SWAP1 POP SWAP2 SWAP1 POP JUMP JUMPDEST PUSH2 0xA31 DUP2 PUSH2 0xA1F JUMP JUMPDEST DUP3 MSTORE POP POP JUMP JUMPDEST PUSH0 PUSH1 0x20 DUP3 ADD SWAP1 POP PUSH2 0xA4A PUSH0 DUP4 ADD DUP5 PUSH2 0xA28 JUMP JUMPDEST SWAP3 SWAP2 POP POP JUMP JUMPDEST PUSH0 PUSH1 0x20 DUP3 DUP5 SUB SLT ISZERO PUSH2 0xA65 JUMPI PUSH2 0xA64 PUSH2 0x871 JUMP JUMPDEST JUMPDEST PUSH0 PUSH2 0xA72 DUP5 DUP3 DUP6 ADD PUSH2 0x8BB JUMP JUMPDEST SWAP2 POP POP SWAP3 SWAP2 POP POP JUMP JUMPDEST PUSH2 0xA84 DUP2 PUSH2 0x9EB JUMP JUMPDEST DUP2 EQ PUSH2 0xA8E JUMPI PUSH0 DUP1 REVERT JUMPDEST POP JUMP JUMPDEST PUSH0 DUP2 CALLDATALOAD SWAP1 POP PUSH2 0xA9F DUP2 PUSH2 0xA7B JUMP JUMPDEST SWAP3 SWAP2 POP POP JUMP JUMPDEST PUSH2 0xAAE DUP2 PUSH2 0xA1F JUMP JUMPDEST DUP2 EQ PUSH2 0xAB8 JUMPI PUSH0 DUP1 REVERT JUMPDEST POP JUMP JUMPDEST PUSH0 DUP2 CALLDATALOAD SWAP1 POP PUSH2 0xAC9 DUP2 PUSH2 0xAA5 JUMP JUMPDEST SWAP3 SWAP2 POP POP JUMP JUMPDEST PUSH0 DUP1 PUSH0 DUP1 PUSH0 DUP1 PUSH0 PUSH1 0xE0 DUP9 DUP11 SUB SLT ISZERO PUSH2 0xAEA JUMPI PUSH2 0xAE9 PUSH2 0x871 JUMP JUMPDEST JUMPDEST PUSH0 PUSH2 0xAF7 DUP11 DUP3 DUP12 ADD PUSH2 0x8BB JUMP JUMPDEST SWAP8 POP POP PUSH1 0x20 PUSH2 0xB08 DUP11 DUP3 DUP12 ADD PUSH2 0x8BB JUMP JUMPDEST SWAP7 POP POP PUSH1 0x40 PUSH2 0xB19 DUP11 DUP3 DUP12 ADD PUSH2 0x8EE JUMP JUMPDEST SWAP6 POP POP PUSH1 0x60 PUSH2 0xB2A DUP11 DUP3 DUP12 ADD PUSH2 0x8EE JUMP JUMPDEST SWAP5 POP POP PUSH1 0x80 PUSH2 0xB3B DUP11 DUP3 DUP12 ADD PUSH2 0xA91 JUMP JUMPDEST SWAP4 POP POP PUSH1 0xA0 PUSH2 0xB4C DUP11 DUP3 DUP12 ADD PUSH2 0xABB JUMP JUMPDEST SWAP3 POP POP PUSH1 0xC0 PUSH2 0xB5D DUP11 DUP3 DUP12 ADD PUSH2 0xABB JUMP JUMPDEST SWAP2 POP POP SWAP3 SWAP6 SWAP9 SWAP2 SWAP5 SWAP8 POP SWAP3 SWAP6 POP JUMP JUMPDEST PUSH0 DUP1 PUSH1 0x40 DUP4 DUP6 SUB SLT ISZERO PUSH2 0xB82 JUMPI PUSH2 0xB81 PUSH2 0x871 JUMP JUMPDEST JUMPDEST PUSH0 PUSH2 0xB8F DUP6 DUP3 DUP7 ADD PUSH2 0x8BB JUMP JUMPDEST SWAP3 POP POP PUSH1 0x20 PUSH2 0xBA0 DUP6 DUP3 DUP7 ADD PUSH2 0x8BB JUMP JUMPDEST SWAP2 POP POP SWAP3 POP SWAP3 SWAP1 POP JUMP JUMPDEST PUSH0 DUP2 SWAP1 POP SWAP3 SWAP2 POP POP JUMP JUMPDEST PUSH0 PUSH2 0xBBE DUP3 PUSH2 0x7C7 JUMP JUMPDEST PUSH2 0xBC8 DUP2 DUP6 PUSH2 0xBAA JUMP JUMPDEST SWAP4 POP PUSH2 0xBD8 DUP2 DUP6 PUSH1 0x20 DUP7 ADD PUSH2 0x7E1 JUMP JUMPDEST DUP1 DUP5 ADD SWAP2 POP POP SWAP3 SWAP2 POP POP JUMP JUMPDEST PUSH32 0x4E487B7100000000000000000000000000000000000000000000000000000000 PUSH0 MSTORE PUSH1 0x22 PUSH1 0x4 MSTORE PUSH1 0x24 PUSH0 REVERT JUMPDEST PUSH0 PUSH1 0x2 DUP3 DIV SWAP1 POP PUSH1 0x1 DUP3 AND DUP1 PUSH2 0xC28 JUMPI PUSH1 0x7F DUP3 AND SWAP2 POP JUMPDEST PUSH1 0x20 DUP3 LT DUP2 SUB PUSH2 0xC3B JUMPI PUSH2 0xC3A PUSH2 0xBE4 JUMP JUMPDEST JUMPDEST POP SWAP2 SWAP1 POP JUMP JUMPDEST PUSH0 DUP2 SWAP1 POP DUP2 PUSH0 MSTORE PUSH1 0x20 PUSH0 KECCAK256 SWAP1 POP SWAP2 SWAP1 POP JUMP JUMPDEST PUSH0 DUP2 SLOAD PUSH2 0xC5F DUP2 PUSH2 0xC11 JUMP JUMPDEST PUSH2 0xC69 DUP2 DUP7 PUSH2 0xBAA JUMP JUMPDEST SWAP5 POP PUSH1 0x1 DUP3 AND PUSH0 DUP2 EQ PUSH2 0xC83 JUMPI PUSH1 0x1 DUP2 EQ PUSH2 0xC98 JUMPI PUSH2 0xCCA JUMP JUMPDEST PUSH1 0xFF NOT DUP4 AND DUP7 MSTORE DUP2 ISZERO ISZERO DUP3 MUL DUP7 ADD SWAP4 POP PUSH2 0xCCA JUMP JUMPDEST PUSH2 0xCA1 DUP6 PUSH2 0xC41 JUMP JUMPDEST PUSH0 JUMPDEST DUP4 DUP2 LT ISZERO PUSH2 0xCC2 JUMPI DUP2 SLOAD DUP2 DUP10 ADD MSTORE PUSH1 0x1 DUP3 ADD SWAP2 POP PUSH1 0x20 DUP2 ADD SWAP1 POP PUSH2 0xCA3 JUMP JUMPDEST DUP4 DUP9 ADD SWAP6 POP POP POP JUMPDEST POP POP POP SWAP3 SWAP2 POP POP JUMP JUMPDEST PUSH0 PUSH2 0xCDE DUP3 DUP6 PUSH2 0xBB4 JUMP JUMPDEST SWAP2 POP PUSH2 0xCEA DUP3 DUP5 PUSH2 0xC53 JUMP JUMPDEST SWAP2 POP DUP2 SWAP1 POP SWAP4 SWAP3 POP POP POP JUMP INVALID LOG2 PUSH5 0x6970667358 0x22 SLT KECCAK256 GASLIMIT 0x21 0xEB 0xB0 0x49 0xDB 0xCB STATICCALL POP 0xB0 PUSH8 0xDA5C7177C3E375A0 0xF7 SWAP13 0x2F PUSH31 0x1DDA03EC1DC3ABBCA164736F6C634300081400330000000000000000000000 "
				},
				"gasEstimates": {
					"creation": {
						"codeDepositCost": "674400",
						"executionCost": "infinite",
						"totalCost": "infinite"
					},
					"external": {
						"DOMAIN_SEPARATOR()": "infinite",
						"allowance(address,address)": "infinite",
						"approve(address,uint256)": "24803",
						"balanceOf(address)": "2797",
						"decimals()": "427",
						"name()": "infinite",
						"nonces(address)": "2819",
						"permit(address,address,uint256,uint256,uint8,bytes32,bytes32)": "infinite",
						"symbol()": "infinite",
						"totalSupply()": "2477",
						"transfer(address,uint256)": "51315",
						"transferFrom(address,address,uint256)": "infinite"
					}
				},
				"methodIdentifiers": {
					"DOMAIN_SEPARATOR()": "3644e515",
					"allowance(address,address)": "dd62ed3e",
					"approve(address,uint256)": "095ea7b3",
					"balanceOf(address)": "70a08231",
					"decimals()": "313ce567",
					"name()": "06fdde03",
					"nonces(address)": "7ecebe00",
					"permit(address,address,uint256,uint256,uint8,bytes32,bytes32)": "d505accf",
					"symbol()": "95d89b41",
					"totalSupply()": "18160ddd",
					"transfer(address,uint256)": "a9059cbb",
					"transferFrom(address,address,uint256)": "23b872dd"
				}
			},
			"storageLayout": {
				"storage": [
					{
						"astId": 14,
						"contract": "contracts/LP.sol:LP",
						"label": "s_name",
						"offset": 0,
						"slot": "0",
						"type": "t_string_storage"
					}
				],
				"types": {
					"t_string_storage": {
						"encoding": "bytes",
						"label": "string",
						"numberOfBytes": "32"
					}
				}
			},
			"userdoc": {
				"kind": "user",
				"methods": {},
				"version": 1
			}
		}
	}
}