{
	"contracts/Pool.sol": {
		"Pool": {
			"abi": [
				{
					"inputs": [
						{
							"internalType": "address",
							"name": "token0",
							"type": "address"
						},
						{
							"internalType": "address",
							"name": "token1",
							"type": "address"
						}
					],
					"stateMutability": "nonpayable",
					"type": "constructor"
				},
				{
					"inputs": [],
					"name": "AMOUNT_EQUALS_ZERO",
					"type": "error"
				},
				{
					"inputs": [],
					"name": "AllowanceOverflow",
					"type": "error"
				},
				{
					"inputs": [],
					"name": "AllowanceUnderflow",
					"type": "error"
				},
				{
					"inputs": [],
					"name": "INSUFFICIENT_AMOUNT",
					"type": "error"
				},
				{
					"inputs": [],
					"name": "INSUFFICIENT_BALANCE",
					"type": "error"
				},
				{
					"inputs": [],
					"name": "InsufficientAllowance",
					"type": "error"
				},
				{
					"inputs": [],
					"name": "InsufficientBalance",
					"type": "error"
				},
				{
					"inputs": [],
					"name": "InvalidPermit",
					"type": "error"
				},
				{
					"inputs": [],
					"name": "NOT_ENOUGH_BALANCE",
					"type": "error"
				},
				{
					"inputs": [],
					"name": "PermitExpired",
					"type": "error"
				},
				{
					"inputs": [],
					"name": "TOKEN_NOT_INSIDE_POOL",
					"type": "error"
				},
				{
					"inputs": [],
					"name": "TRANSFER_FAILED",
					"type": "error"
				},
				{
					"inputs": [],
					"name": "TotalSupplyOverflow",
					"type": "error"
				},
				{
					"anonymous": false,
					"inputs": [
						{
							"indexed": true,
							"internalType": "address",
							"name": "owner",
							"type": "address"
						},
						{
							"indexed": true,
							"internalType": "address",
							"name": "spender",
							"type": "address"
						},
						{
							"indexed": false,
							"internalType": "uint256",
							"name": "amount",
							"type": "uint256"
						}
					],
					"name": "Approval",
					"type": "event"
				},
				{
					"anonymous": false,
					"inputs": [
						{
							"indexed": false,
							"internalType": "address",
							"name": "pool",
							"type": "address"
						},
						{
							"indexed": false,
							"internalType": "uint256",
							"name": "lpAmount",
							"type": "uint256"
						},
						{
							"indexed": false,
							"internalType": "uint256",
							"name": "amount0",
							"type": "uint256"
						},
						{
							"indexed": false,
							"internalType": "uint256",
							"name": "amount1",
							"type": "uint256"
						}
					],
					"name": "Deposit",
					"type": "event"
				},
				{
					"anonymous": false,
					"inputs": [
						{
							"indexed": false,
							"internalType": "address",
							"name": "token0",
							"type": "address"
						},
						{
							"indexed": false,
							"internalType": "address",
							"name": "token1",
							"type": "address"
						},
						{
							"indexed": false,
							"internalType": "uint256",
							"name": "amount0",
							"type": "uint256"
						},
						{
							"indexed": false,
							"internalType": "uint256",
							"name": "amount1",
							"type": "uint256"
						}
					],
					"name": "Swap",
					"type": "event"
				},
				{
					"anonymous": false,
					"inputs": [
						{
							"indexed": true,
							"internalType": "address",
							"name": "from",
							"type": "address"
						},
						{
							"indexed": true,
							"internalType": "address",
							"name": "to",
							"type": "address"
						},
						{
							"indexed": false,
							"internalType": "uint256",
							"name": "amount",
							"type": "uint256"
						}
					],
					"name": "Transfer",
					"type": "event"
				},
				{
					"anonymous": false,
					"inputs": [
						{
							"indexed": false,
							"internalType": "address",
							"name": "pool",
							"type": "address"
						},
						{
							"indexed": false,
							"internalType": "uint256",
							"name": "lpAmount",
							"type": "uint256"
						},
						{
							"indexed": false,
							"internalType": "uint256",
							"name": "amount0",
							"type": "uint256"
						},
						{
							"indexed": false,
							"internalType": "uint256",
							"name": "amount1",
							"type": "uint256"
						}
					],
					"name": "Withdraw",
					"type": "event"
				},
				{
					"inputs": [],
					"name": "DOMAIN_SEPARATOR",
					"outputs": [
						{
							"internalType": "bytes32",
							"name": "result",
							"type": "bytes32"
						}
					],
					"stateMutability": "view",
					"type": "function"
				},
				{
					"inputs": [],
					"name": "LP_FEE",
					"outputs": [
						{
							"internalType": "uint256",
							"name": "",
							"type": "uint256"
						}
					],
					"stateMutability": "view",
					"type": "function"
				},
				{
					"inputs": [],
					"name": "PROTOCOL_FEE",
					"outputs": [
						{
							"internalType": "uint256",
							"name": "",
							"type": "uint256"
						}
					],
					"stateMutability": "view",
					"type": "function"
				},
				{
					"inputs": [
						{
							"internalType": "address",
							"name": "owner",
							"type": "address"
						},
						{
							"internalType": "address",
							"name": "spender",
							"type": "address"
						}
					],
					"name": "allowance",
					"outputs": [
						{
							"internalType": "uint256",
							"name": "result",
							"type": "uint256"
						}
					],
					"stateMutability": "view",
					"type": "function"
				},
				{
					"inputs": [
						{
							"internalType": "address",
							"name": "spender",
							"type": "address"
						},
						{
							"internalType": "uint256",
							"name": "amount",
							"type": "uint256"
						}
					],
					"name": "approve",
					"outputs": [
						{
							"internalType": "bool",
							"name": "",
							"type": "bool"
						}
					],
					"stateMutability": "nonpayable",
					"type": "function"
				},
				{
					"inputs": [
						{
							"internalType": "address",
							"name": "owner",
							"type": "address"
						}
					],
					"name": "balanceOf",
					"outputs": [
						{
							"internalType": "uint256",
							"name": "result",
							"type": "uint256"
						}
					],
					"stateMutability": "view",
					"type": "function"
				},
				{
					"inputs": [],
					"name": "decimals",
					"outputs": [
						{
							"internalType": "uint8",
							"name": "",
							"type": "uint8"
						}
					],
					"stateMutability": "view",
					"type": "function"
				},
				{
					"inputs": [
						{
							"internalType": "uint256",
							"name": "amount0",
							"type": "uint256"
						},
						{
							"internalType": "uint256",
							"name": "amount1",
							"type": "uint256"
						}
					],
					"name": "deposit",
					"outputs": [
						{
							"internalType": "uint256",
							"name": "liquidity",
							"type": "uint256"
						}
					],
					"stateMutability": "nonpayable",
					"type": "function"
				},
				{
					"inputs": [],
					"name": "factory",
					"outputs": [
						{
							"internalType": "address",
							"name": "",
							"type": "address"
						}
					],
					"stateMutability": "view",
					"type": "function"
				},
				{
					"inputs": [],
					"name": "kLast",
					"outputs": [
						{
							"internalType": "uint256",
							"name": "",
							"type": "uint256"
						}
					],
					"stateMutability": "view",
					"type": "function"
				},
				{
					"inputs": [],
					"name": "name",
					"outputs": [
						{
							"internalType": "string",
							"name": "",
							"type": "string"
						}
					],
					"stateMutability": "view",
					"type": "function"
				},
				{
					"inputs": [
						{
							"internalType": "address",
							"name": "owner",
							"type": "address"
						}
					],
					"name": "nonces",
					"outputs": [
						{
							"internalType": "uint256",
							"name": "result",
							"type": "uint256"
						}
					],
					"stateMutability": "view",
					"type": "function"
				},
				{
					"inputs": [
						{
							"internalType": "address",
							"name": "owner",
							"type": "address"
						},
						{
							"internalType": "address",
							"name": "spender",
							"type": "address"
						},
						{
							"internalType": "uint256",
							"name": "value",
							"type": "uint256"
						},
						{
							"internalType": "uint256",
							"name": "deadline",
							"type": "uint256"
						},
						{
							"internalType": "uint8",
							"name": "v",
							"type": "uint8"
						},
						{
							"internalType": "bytes32",
							"name": "r",
							"type": "bytes32"
						},
						{
							"internalType": "bytes32",
							"name": "s",
							"type": "bytes32"
						}
					],
					"name": "permit",
					"outputs": [],
					"stateMutability": "nonpayable",
					"type": "function"
				},
				{
					"inputs": [
						{
							"internalType": "address",
							"name": "token",
							"type": "address"
						},
						{
							"internalType": "uint256",
							"name": "amount",
							"type": "uint256"
						}
					],
					"name": "quote",
					"outputs": [
						{
							"internalType": "uint256",
							"name": "",
							"type": "uint256"
						}
					],
					"stateMutability": "view",
					"type": "function"
				},
				{
					"inputs": [
						{
							"internalType": "uint256",
							"name": "a",
							"type": "uint256"
						}
					],
					"name": "sqrt",
					"outputs": [
						{
							"internalType": "uint256",
							"name": "",
							"type": "uint256"
						}
					],
					"stateMutability": "pure",
					"type": "function"
				},
				{
					"inputs": [
						{
							"internalType": "address",
							"name": "token",
							"type": "address"
						},
						{
							"internalType": "uint256",
							"name": "amount",
							"type": "uint256"
						}
					],
					"name": "swap",
					"outputs": [
						{
							"internalType": "uint256",
							"name": "amountOut",
							"type": "uint256"
						}
					],
					"stateMutability": "nonpayable",
					"type": "function"
				},
				{
					"inputs": [],
					"name": "symbol",
					"outputs": [
						{
							"internalType": "string",
							"name": "",
							"type": "string"
						}
					],
					"stateMutability": "view",
					"type": "function"
				},
				{
					"inputs": [],
					"name": "totalSupply",
					"outputs": [
						{
							"internalType": "uint256",
							"name": "result",
							"type": "uint256"
						}
					],
					"stateMutability": "view",
					"type": "function"
				},
				{
					"inputs": [
						{
							"internalType": "address",
							"name": "to",
							"type": "address"
						},
						{
							"internalType": "uint256",
							"name": "amount",
							"type": "uint256"
						}
					],
					"name": "transfer",
					"outputs": [
						{
							"internalType": "bool",
							"name": "",
							"type": "bool"
						}
					],
					"stateMutability": "nonpayable",
					"type": "function"
				},
				{
					"inputs": [
						{
							"internalType": "address",
							"name": "from",
							"type": "address"
						},
						{
							"internalType": "address",
							"name": "to",
							"type": "address"
						},
						{
							"internalType": "uint256",
							"name": "amount",
							"type": "uint256"
						}
					],
					"name": "transferFrom",
					"outputs": [
						{
							"internalType": "bool",
							"name": "",
							"type": "bool"
						}
					],
					"stateMutability": "nonpayable",
					"type": "function"
				},
				{
					"inputs": [
						{
							"internalType": "uint256",
							"name": "lpAmount",
							"type": "uint256"
						}
					],
					"name": "withdraw",
					"outputs": [
						{
							"internalType": "uint256",
							"name": "amount0",
							"type": "uint256"
						},
						{
							"internalType": "uint256",
							"name": "amount1",
							"type": "uint256"
						}
					],
					"stateMutability": "nonpayable",
					"type": "function"
				}
			],
			"devdoc": {
				"errors": {
					"AllowanceOverflow()": [
						{
							"details": "The allowance has overflowed."
						}
					],
					"AllowanceUnderflow()": [
						{
							"details": "The allowance has underflowed."
						}
					],
					"InsufficientAllowance()": [
						{
							"details": "Insufficient allowance."
						}
					],
					"InsufficientBalance()": [
						{
							"details": "Insufficient balance."
						}
					],
					"InvalidPermit()": [
						{
							"details": "The permit is invalid."
						}
					],
					"PermitExpired()": [
						{
							"details": "The permit has expired."
						}
					],
					"TotalSupplyOverflow()": [
						{
							"details": "The total supply has overflowed."
						}
					]
				},
				"events": {
					"Approval(address,address,uint256)": {
						"details": "Emitted when `amount` tokens is approved by `owner` to be used by `spender`."
					},
					"Transfer(address,address,uint256)": {
						"details": "Emitted when `amount` tokens is transferred from `from` to `to`."
					}
				},
				"kind": "dev",
				"methods": {
					"DOMAIN_SEPARATOR()": {
						"details": "Returns the EIP-712 domain separator for the EIP-2612 permit."
					},
					"allowance(address,address)": {
						"details": "Returns the amount of tokens that `spender` can spend on behalf of `owner`."
					},
					"approve(address,uint256)": {
						"details": "Sets `amount` as the allowance of `spender` over the caller's tokens. Emits a {Approval} event."
					},
					"balanceOf(address)": {
						"details": "Returns the amount of tokens owned by `owner`."
					},
					"decimals()": {
						"details": "Returns the decimals places of the token."
					},
					"name()": {
						"details": "Returns the name of the token."
					},
					"nonces(address)": {
						"details": "Returns the current nonce for `owner`. This value is used to compute the signature for EIP-2612 permit."
					},
					"permit(address,address,uint256,uint256,uint8,bytes32,bytes32)": {
						"details": "Sets `value` as the allowance of `spender` over the tokens of `owner`, authorized by a signed approval by `owner`. Emits a {Approval} event."
					},
					"symbol()": {
						"details": "Returns the symbol of the token."
					},
					"totalSupply()": {
						"details": "Returns the amount of tokens in existence."
					},
					"transfer(address,uint256)": {
						"details": "Transfer `amount` tokens from the caller to `to`. Requirements: - `from` must at least have `amount`. Emits a {Transfer} event."
					},
					"transferFrom(address,address,uint256)": {
						"details": "Transfers `amount` tokens from `from` to `to`. Note: Does not update the allowance if it is the maximum uint256 value. Requirements: - `from` must at least have `amount`. - The caller must have at least `amount` of allowance to transfer the tokens of `from`. Emits a {Transfer} event."
					}
				},
				"version": 1
			},
			"evm": {
				"assembly": "    /* \"contracts/Pool.sol\":579:8190  contract Pool is IPool, LP {... */\n  mstore(0x40, 0x80)\n    /* \"contracts/Pool.sol\":1329:1535  constructor(address token0, address token1) LP(string.concat(IERC20(token0).symbol(), IERC20(token1).symbol())){... */\n  callvalue\n  dup1\n  iszero\n  tag_1\n  jumpi\n  0x00\n  dup1\n  revert\ntag_1:\n  pop\n  mload(0x40)\n  sub(codesize, bytecodeSize)\n  dup1\n  bytecodeSize\n  dup4\n  codecopy\n  dup2\n  dup2\n  add\n  0x40\n  mstore\n  dup2\n  add\n  swap1\n  tag_2\n  swap2\n  swap1\n  tag_3\n  jump\t// in\ntag_2:\n    /* \"contracts/Pool.sol\":1397:1403  token0 */\n  dup2\n    /* \"contracts/Pool.sol\":1390:1411  IERC20(token0).symbol */\n  0xffffffffffffffffffffffffffffffffffffffff\n  and\n  0x95d89b41\n    /* \"contracts/Pool.sol\":1390:1413  IERC20(token0).symbol() */\n  mload(0x40)\n  dup2\n  0xffffffff\n  and\n  0xe0\n  shl\n  dup2\n  mstore\n  0x04\n  add\n  0x00\n  mload(0x40)\n  dup1\n  dup4\n  sub\n  dup2\n  dup7\n  gas\n  staticcall\n  iszero\n  dup1\n  iszero\n  tag_6\n  jumpi\n  returndatasize\n  0x00\n  dup1\n  returndatacopy\n  revert(0x00, returndatasize)\ntag_6:\n  pop\n  pop\n  pop\n  pop\n  mload(0x40)\n  returndatasize\n  0x00\n  dup3\n  returndatacopy\n  returndatasize\n  not(0x1f)\n  0x1f\n  dup3\n  add\n  and\n  dup3\n  add\n  dup1\n  0x40\n  mstore\n  pop\n  dup2\n  add\n  swap1\n  tag_7\n  swap2\n  swap1\n  tag_8\n  jump\t// in\ntag_7:\n    /* \"contracts/Pool.sol\":1422:1428  token1 */\n  dup2\n    /* \"contracts/Pool.sol\":1415:1436  IERC20(token1).symbol */\n  0xffffffffffffffffffffffffffffffffffffffff\n  and\n  0x95d89b41\n    /* \"contracts/Pool.sol\":1415:1438  IERC20(token1).symbol() */\n  mload(0x40)\n  dup2\n  0xffffffff\n  and\n  0xe0\n  shl\n  dup2\n  mstore\n  0x04\n  add\n  0x00\n  mload(0x40)\n  dup1\n  dup4\n  sub\n  dup2\n  dup7\n  gas\n  staticcall\n  iszero\n  dup1\n  iszero\n  tag_10\n  jumpi\n  returndatasize\n  0x00\n  dup1\n  returndatacopy\n  revert(0x00, returndatasize)\ntag_10:\n  pop\n  pop\n  pop\n  pop\n  mload(0x40)\n  returndatasize\n  0x00\n  dup3\n  returndatacopy\n  returndatasize\n  not(0x1f)\n  0x1f\n  dup3\n  add\n  and\n  dup3\n  add\n  dup1\n  0x40\n  mstore\n  pop\n  dup2\n  add\n  swap1\n  tag_11\n  swap2\n  swap1\n  tag_8\n  jump\t// in\ntag_11:\n    /* \"contracts/Pool.sol\":1376:1439  string.concat(IERC20(token0).symbol(), IERC20(token1).symbol()) */\n  add(0x20, mload(0x40))\n  tag_12\n  swap3\n  swap2\n  swap1\n  tag_13\n  jump\t// in\ntag_12:\n  mload(0x40)\n  0x20\n  dup2\n  dup4\n  sub\n  sub\n  dup2\n  mstore\n  swap1\n  0x40\n  mstore\n    /* \"contracts/LP.sol\":370:375  _name */\n  dup1\n    /* \"contracts/LP.sol\":361:367  s_name */\n  0x00\n    /* \"contracts/LP.sol\":361:375  s_name = _name */\n  swap1\n  dup2\n  tag_16\n  swap2\n  swap1\n  tag_17\n  jump\t// in\ntag_16:\n  pop\n    /* \"contracts/LP.sol\":318:383  constructor(string memory _name){... */\n  pop\n    /* \"contracts/Pool.sol\":1461:1471  msg.sender */\n  caller\n    /* \"contracts/Pool.sol\":1451:1458  factory */\n  0x01\n  0x00\n    /* \"contracts/Pool.sol\":1451:1471  factory = msg.sender */\n  0x0100\n  exp\n  dup2\n  sload\n  dup2\n  0xffffffffffffffffffffffffffffffffffffffff\n  mul\n  not\n  and\n  swap1\n  dup4\n  0xffffffffffffffffffffffffffffffffffffffff\n  and\n  mul\n  or\n  swap1\n  sstore\n  pop\n    /* \"contracts/Pool.sol\":1493:1499  token0 */\n  dup2\n    /* \"contracts/Pool.sol\":1482:1490  s_token0 */\n  0x03\n  0x00\n    /* \"contracts/Pool.sol\":1482:1499  s_token0 = token0 */\n  0x0100\n  exp\n  dup2\n  sload\n  dup2\n  0xffffffffffffffffffffffffffffffffffffffff\n  mul\n  not\n  and\n  swap1\n  dup4\n  0xffffffffffffffffffffffffffffffffffffffff\n  and\n  mul\n  or\n  swap1\n  sstore\n  pop\n    /* \"contracts/Pool.sol\":1521:1527  token1 */\n  dup1\n    /* \"contracts/Pool.sol\":1510:1518  s_token1 */\n  0x04\n  0x00\n    /* \"contracts/Pool.sol\":1510:1527  s_token1 = token1 */\n  0x0100\n  exp\n  dup2\n  sload\n  dup2\n  0xffffffffffffffffffffffffffffffffffffffff\n  mul\n  not\n  and\n  swap1\n  dup4\n  0xffffffffffffffffffffffffffffffffffffffff\n  and\n  mul\n  or\n  swap1\n  sstore\n  pop\n    /* \"contracts/Pool.sol\":1329:1535  constructor(address token0, address token1) LP(string.concat(IERC20(token0).symbol(), IERC20(token1).symbol())){... */\n  pop\n  pop\n    /* \"contracts/Pool.sol\":579:8190  contract Pool is IPool, LP {... */\n  jump(tag_19)\n    /* \"#utility.yul\":7:82   */\ntag_20:\n    /* \"#utility.yul\":40:46   */\n  0x00\n    /* \"#utility.yul\":73:75   */\n  0x40\n    /* \"#utility.yul\":67:76   */\n  mload\n    /* \"#utility.yul\":57:76   */\n  swap1\n  pop\n    /* \"#utility.yul\":7:82   */\n  swap1\n  jump\t// out\n    /* \"#utility.yul\":88:205   */\ntag_21:\n    /* \"#utility.yul\":197:198   */\n  0x00\n    /* \"#utility.yul\":194:195   */\n  dup1\n    /* \"#utility.yul\":187:199   */\n  revert\n    /* \"#utility.yul\":211:328   */\ntag_22:\n    /* \"#utility.yul\":320:321   */\n  0x00\n    /* \"#utility.yul\":317:318   */\n  dup1\n    /* \"#utility.yul\":310:322   */\n  revert\n    /* \"#utility.yul\":334:460   */\ntag_23:\n    /* \"#utility.yul\":371:378   */\n  0x00\n    /* \"#utility.yul\":411:453   */\n  0xffffffffffffffffffffffffffffffffffffffff\n    /* \"#utility.yul\":404:409   */\n  dup3\n    /* \"#utility.yul\":400:454   */\n  and\n    /* \"#utility.yul\":389:454   */\n  swap1\n  pop\n    /* \"#utility.yul\":334:460   */\n  swap2\n  swap1\n  pop\n  jump\t// out\n    /* \"#utility.yul\":466:562   */\ntag_24:\n    /* \"#utility.yul\":503:510   */\n  0x00\n    /* \"#utility.yul\":532:556   */\n  tag_64\n    /* \"#utility.yul\":550:555   */\n  dup3\n    /* \"#utility.yul\":532:556   */\n  tag_23\n  jump\t// in\ntag_64:\n    /* \"#utility.yul\":521:556   */\n  swap1\n  pop\n    /* \"#utility.yul\":466:562   */\n  swap2\n  swap1\n  pop\n  jump\t// out\n    /* \"#utility.yul\":568:690   */\ntag_25:\n    /* \"#utility.yul\":641:665   */\n  tag_66\n    /* \"#utility.yul\":659:664   */\n  dup2\n    /* \"#utility.yul\":641:665   */\n  tag_24\n  jump\t// in\ntag_66:\n    /* \"#utility.yul\":634:639   */\n  dup2\n    /* \"#utility.yul\":631:666   */\n  eq\n    /* \"#utility.yul\":621:684   */\n  tag_67\n  jumpi\n    /* \"#utility.yul\":680:681   */\n  0x00\n    /* \"#utility.yul\":677:678   */\n  dup1\n    /* \"#utility.yul\":670:682   */\n  revert\n    /* \"#utility.yul\":621:684   */\ntag_67:\n    /* \"#utility.yul\":568:690   */\n  pop\n  jump\t// out\n    /* \"#utility.yul\":696:839   */\ntag_26:\n    /* \"#utility.yul\":753:758   */\n  0x00\n    /* \"#utility.yul\":784:790   */\n  dup2\n    /* \"#utility.yul\":778:791   */\n  mload\n    /* \"#utility.yul\":769:791   */\n  swap1\n  pop\n    /* \"#utility.yul\":800:833   */\n  tag_69\n    /* \"#utility.yul\":827:832   */\n  dup2\n    /* \"#utility.yul\":800:833   */\n  tag_25\n  jump\t// in\ntag_69:\n    /* \"#utility.yul\":696:839   */\n  swap3\n  swap2\n  pop\n  pop\n  jump\t// out\n    /* \"#utility.yul\":845:1352   */\ntag_3:\n    /* \"#utility.yul\":924:930   */\n  0x00\n    /* \"#utility.yul\":932:938   */\n  dup1\n    /* \"#utility.yul\":981:983   */\n  0x40\n    /* \"#utility.yul\":969:978   */\n  dup4\n    /* \"#utility.yul\":960:967   */\n  dup6\n    /* \"#utility.yul\":956:979   */\n  sub\n    /* \"#utility.yul\":952:984   */\n  slt\n    /* \"#utility.yul\":949:1068   */\n  iszero\n  tag_71\n  jumpi\n    /* \"#utility.yul\":987:1066   */\n  tag_72\n  tag_21\n  jump\t// in\ntag_72:\n    /* \"#utility.yul\":949:1068   */\ntag_71:\n    /* \"#utility.yul\":1107:1108   */\n  0x00\n    /* \"#utility.yul\":1132:1196   */\n  tag_73\n    /* \"#utility.yul\":1188:1195   */\n  dup6\n    /* \"#utility.yul\":1179:1185   */\n  dup3\n    /* \"#utility.yul\":1168:1177   */\n  dup7\n    /* \"#utility.yul\":1164:1186   */\n  add\n    /* \"#utility.yul\":1132:1196   */\n  tag_26\n  jump\t// in\ntag_73:\n    /* \"#utility.yul\":1122:1196   */\n  swap3\n  pop\n    /* \"#utility.yul\":1078:1206   */\n  pop\n    /* \"#utility.yul\":1245:1247   */\n  0x20\n    /* \"#utility.yul\":1271:1335   */\n  tag_74\n    /* \"#utility.yul\":1327:1334   */\n  dup6\n    /* \"#utility.yul\":1318:1324   */\n  dup3\n    /* \"#utility.yul\":1307:1316   */\n  dup7\n    /* \"#utility.yul\":1303:1325   */\n  add\n    /* \"#utility.yul\":1271:1335   */\n  tag_26\n  jump\t// in\ntag_74:\n    /* \"#utility.yul\":1261:1335   */\n  swap2\n  pop\n    /* \"#utility.yul\":1216:1345   */\n  pop\n    /* \"#utility.yul\":845:1352   */\n  swap3\n  pop\n  swap3\n  swap1\n  pop\n  jump\t// out\n    /* \"#utility.yul\":1358:1475   */\ntag_27:\n    /* \"#utility.yul\":1467:1468   */\n  0x00\n    /* \"#utility.yul\":1464:1465   */\n  dup1\n    /* \"#utility.yul\":1457:1469   */\n  revert\n    /* \"#utility.yul\":1481:1598   */\ntag_28:\n    /* \"#utility.yul\":1590:1591   */\n  0x00\n    /* \"#utility.yul\":1587:1588   */\n  dup1\n    /* \"#utility.yul\":1580:1592   */\n  revert\n    /* \"#utility.yul\":1604:1706   */\ntag_29:\n    /* \"#utility.yul\":1645:1651   */\n  0x00\n    /* \"#utility.yul\":1696:1698   */\n  0x1f\n    /* \"#utility.yul\":1692:1699   */\n  not\n    /* \"#utility.yul\":1687:1689   */\n  0x1f\n    /* \"#utility.yul\":1680:1685   */\n  dup4\n    /* \"#utility.yul\":1676:1690   */\n  add\n    /* \"#utility.yul\":1672:1700   */\n  and\n    /* \"#utility.yul\":1662:1700   */\n  swap1\n  pop\n    /* \"#utility.yul\":1604:1706   */\n  swap2\n  swap1\n  pop\n  jump\t// out\n    /* \"#utility.yul\":1712:1892   */\ntag_30:\n    /* \"#utility.yul\":1760:1837   */\n  0x4e487b7100000000000000000000000000000000000000000000000000000000\n    /* \"#utility.yul\":1757:1758   */\n  0x00\n    /* \"#utility.yul\":1750:1838   */\n  mstore\n    /* \"#utility.yul\":1857:1861   */\n  0x41\n    /* \"#utility.yul\":1854:1855   */\n  0x04\n    /* \"#utility.yul\":1847:1862   */\n  mstore\n    /* \"#utility.yul\":1881:1885   */\n  0x24\n    /* \"#utility.yul\":1878:1879   */\n  0x00\n    /* \"#utility.yul\":1871:1886   */\n  revert\n    /* \"#utility.yul\":1898:2179   */\ntag_31:\n    /* \"#utility.yul\":1981:2008   */\n  tag_80\n    /* \"#utility.yul\":2003:2007   */\n  dup3\n    /* \"#utility.yul\":1981:2008   */\n  tag_29\n  jump\t// in\ntag_80:\n    /* \"#utility.yul\":1973:1979   */\n  dup2\n    /* \"#utility.yul\":1969:2009   */\n  add\n    /* \"#utility.yul\":2111:2117   */\n  dup2\n    /* \"#utility.yul\":2099:2109   */\n  dup2\n    /* \"#utility.yul\":2096:2118   */\n  lt\n    /* \"#utility.yul\":2075:2093   */\n  0xffffffffffffffff\n    /* \"#utility.yul\":2063:2073   */\n  dup3\n    /* \"#utility.yul\":2060:2094   */\n  gt\n    /* \"#utility.yul\":2057:2119   */\n  or\n    /* \"#utility.yul\":2054:2142   */\n  iszero\n  tag_81\n  jumpi\n    /* \"#utility.yul\":2122:2140   */\n  tag_82\n  tag_30\n  jump\t// in\ntag_82:\n    /* \"#utility.yul\":2054:2142   */\ntag_81:\n    /* \"#utility.yul\":2162:2172   */\n  dup1\n    /* \"#utility.yul\":2158:2160   */\n  0x40\n    /* \"#utility.yul\":2151:2173   */\n  mstore\n    /* \"#utility.yul\":1941:2179   */\n  pop\n    /* \"#utility.yul\":1898:2179   */\n  pop\n  pop\n  jump\t// out\n    /* \"#utility.yul\":2185:2314   */\ntag_32:\n    /* \"#utility.yul\":2219:2225   */\n  0x00\n    /* \"#utility.yul\":2246:2266   */\n  tag_84\n  tag_20\n  jump\t// in\ntag_84:\n    /* \"#utility.yul\":2236:2266   */\n  swap1\n  pop\n    /* \"#utility.yul\":2275:2308   */\n  tag_85\n    /* \"#utility.yul\":2303:2307   */\n  dup3\n    /* \"#utility.yul\":2295:2301   */\n  dup3\n    /* \"#utility.yul\":2275:2308   */\n  tag_31\n  jump\t// in\ntag_85:\n    /* \"#utility.yul\":2185:2314   */\n  swap2\n  swap1\n  pop\n  jump\t// out\n    /* \"#utility.yul\":2320:2628   */\ntag_33:\n    /* \"#utility.yul\":2382:2386   */\n  0x00\n    /* \"#utility.yul\":2472:2490   */\n  0xffffffffffffffff\n    /* \"#utility.yul\":2464:2470   */\n  dup3\n    /* \"#utility.yul\":2461:2491   */\n  gt\n    /* \"#utility.yul\":2458:2514   */\n  iszero\n  tag_87\n  jumpi\n    /* \"#utility.yul\":2494:2512   */\n  tag_88\n  tag_30\n  jump\t// in\ntag_88:\n    /* \"#utility.yul\":2458:2514   */\ntag_87:\n    /* \"#utility.yul\":2532:2561   */\n  tag_89\n    /* \"#utility.yul\":2554:2560   */\n  dup3\n    /* \"#utility.yul\":2532:2561   */\n  tag_29\n  jump\t// in\ntag_89:\n    /* \"#utility.yul\":2524:2561   */\n  swap1\n  pop\n    /* \"#utility.yul\":2616:2620   */\n  0x20\n    /* \"#utility.yul\":2610:2614   */\n  dup2\n    /* \"#utility.yul\":2606:2621   */\n  add\n    /* \"#utility.yul\":2598:2621   */\n  swap1\n  pop\n    /* \"#utility.yul\":2320:2628   */\n  swap2\n  swap1\n  pop\n  jump\t// out\n    /* \"#utility.yul\":2634:2880   */\ntag_34:\n    /* \"#utility.yul\":2715:2716   */\n  0x00\n    /* \"#utility.yul\":2725:2838   */\ntag_91:\n    /* \"#utility.yul\":2739:2745   */\n  dup4\n    /* \"#utility.yul\":2736:2737   */\n  dup2\n    /* \"#utility.yul\":2733:2746   */\n  lt\n    /* \"#utility.yul\":2725:2838   */\n  iszero\n  tag_93\n  jumpi\n    /* \"#utility.yul\":2824:2825   */\n  dup1\n    /* \"#utility.yul\":2819:2822   */\n  dup3\n    /* \"#utility.yul\":2815:2826   */\n  add\n    /* \"#utility.yul\":2809:2827   */\n  mload\n    /* \"#utility.yul\":2805:2806   */\n  dup2\n    /* \"#utility.yul\":2800:2803   */\n  dup5\n    /* \"#utility.yul\":2796:2807   */\n  add\n    /* \"#utility.yul\":2789:2828   */\n  mstore\n    /* \"#utility.yul\":2761:2763   */\n  0x20\n    /* \"#utility.yul\":2758:2759   */\n  dup2\n    /* \"#utility.yul\":2754:2764   */\n  add\n    /* \"#utility.yul\":2749:2764   */\n  swap1\n  pop\n    /* \"#utility.yul\":2725:2838   */\n  jump(tag_91)\ntag_93:\n    /* \"#utility.yul\":2872:2873   */\n  0x00\n    /* \"#utility.yul\":2863:2869   */\n  dup5\n    /* \"#utility.yul\":2858:2861   */\n  dup5\n    /* \"#utility.yul\":2854:2870   */\n  add\n    /* \"#utility.yul\":2847:2874   */\n  mstore\n    /* \"#utility.yul\":2696:2880   */\n  pop\n    /* \"#utility.yul\":2634:2880   */\n  pop\n  pop\n  pop\n  jump\t// out\n    /* \"#utility.yul\":2886:3320   */\ntag_35:\n    /* \"#utility.yul\":2975:2980   */\n  0x00\n    /* \"#utility.yul\":3000:3066   */\n  tag_95\n    /* \"#utility.yul\":3016:3065   */\n  tag_96\n    /* \"#utility.yul\":3058:3064   */\n  dup5\n    /* \"#utility.yul\":3016:3065   */\n  tag_33\n  jump\t// in\ntag_96:\n    /* \"#utility.yul\":3000:3066   */\n  tag_32\n  jump\t// in\ntag_95:\n    /* \"#utility.yul\":2991:3066   */\n  swap1\n  pop\n    /* \"#utility.yul\":3089:3095   */\n  dup3\n    /* \"#utility.yul\":3082:3087   */\n  dup2\n    /* \"#utility.yul\":3075:3096   */\n  mstore\n    /* \"#utility.yul\":3127:3131   */\n  0x20\n    /* \"#utility.yul\":3120:3125   */\n  dup2\n    /* \"#utility.yul\":3116:3132   */\n  add\n    /* \"#utility.yul\":3165:3168   */\n  dup5\n    /* \"#utility.yul\":3156:3162   */\n  dup5\n    /* \"#utility.yul\":3151:3154   */\n  dup5\n    /* \"#utility.yul\":3147:3163   */\n  add\n    /* \"#utility.yul\":3144:3169   */\n  gt\n    /* \"#utility.yul\":3141:3253   */\n  iszero\n  tag_97\n  jumpi\n    /* \"#utility.yul\":3172:3251   */\n  tag_98\n  tag_28\n  jump\t// in\ntag_98:\n    /* \"#utility.yul\":3141:3253   */\ntag_97:\n    /* \"#utility.yul\":3262:3314   */\n  tag_99\n    /* \"#utility.yul\":3307:3313   */\n  dup5\n    /* \"#utility.yul\":3302:3305   */\n  dup3\n    /* \"#utility.yul\":3297:3300   */\n  dup6\n    /* \"#utility.yul\":3262:3314   */\n  tag_34\n  jump\t// in\ntag_99:\n    /* \"#utility.yul\":2981:3320   */\n  pop\n    /* \"#utility.yul\":2886:3320   */\n  swap4\n  swap3\n  pop\n  pop\n  pop\n  jump\t// out\n    /* \"#utility.yul\":3340:3695   */\ntag_36:\n    /* \"#utility.yul\":3407:3412   */\n  0x00\n    /* \"#utility.yul\":3456:3459   */\n  dup3\n    /* \"#utility.yul\":3449:3453   */\n  0x1f\n    /* \"#utility.yul\":3441:3447   */\n  dup4\n    /* \"#utility.yul\":3437:3454   */\n  add\n    /* \"#utility.yul\":3433:3460   */\n  slt\n    /* \"#utility.yul\":3423:3545   */\n  tag_101\n  jumpi\n    /* \"#utility.yul\":3464:3543   */\n  tag_102\n  tag_27\n  jump\t// in\ntag_102:\n    /* \"#utility.yul\":3423:3545   */\ntag_101:\n    /* \"#utility.yul\":3574:3580   */\n  dup2\n    /* \"#utility.yul\":3568:3581   */\n  mload\n    /* \"#utility.yul\":3599:3689   */\n  tag_103\n    /* \"#utility.yul\":3685:3688   */\n  dup5\n    /* \"#utility.yul\":3677:3683   */\n  dup3\n    /* \"#utility.yul\":3670:3674   */\n  0x20\n    /* \"#utility.yul\":3662:3668   */\n  dup7\n    /* \"#utility.yul\":3658:3675   */\n  add\n    /* \"#utility.yul\":3599:3689   */\n  tag_35\n  jump\t// in\ntag_103:\n    /* \"#utility.yul\":3590:3689   */\n  swap2\n  pop\n    /* \"#utility.yul\":3413:3695   */\n  pop\n    /* \"#utility.yul\":3340:3695   */\n  swap3\n  swap2\n  pop\n  pop\n  jump\t// out\n    /* \"#utility.yul\":3701:4225   */\ntag_8:\n    /* \"#utility.yul\":3781:3787   */\n  0x00\n    /* \"#utility.yul\":3830:3832   */\n  0x20\n    /* \"#utility.yul\":3818:3827   */\n  dup3\n    /* \"#utility.yul\":3809:3816   */\n  dup5\n    /* \"#utility.yul\":3805:3828   */\n  sub\n    /* \"#utility.yul\":3801:3833   */\n  slt\n    /* \"#utility.yul\":3798:3917   */\n  iszero\n  tag_105\n  jumpi\n    /* \"#utility.yul\":3836:3915   */\n  tag_106\n  tag_21\n  jump\t// in\ntag_106:\n    /* \"#utility.yul\":3798:3917   */\ntag_105:\n    /* \"#utility.yul\":3977:3978   */\n  0x00\n    /* \"#utility.yul\":3966:3975   */\n  dup3\n    /* \"#utility.yul\":3962:3979   */\n  add\n    /* \"#utility.yul\":3956:3980   */\n  mload\n    /* \"#utility.yul\":4007:4025   */\n  0xffffffffffffffff\n    /* \"#utility.yul\":3999:4005   */\n  dup2\n    /* \"#utility.yul\":3996:4026   */\n  gt\n    /* \"#utility.yul\":3993:4110   */\n  iszero\n  tag_107\n  jumpi\n    /* \"#utility.yul\":4029:4108   */\n  tag_108\n  tag_22\n  jump\t// in\ntag_108:\n    /* \"#utility.yul\":3993:4110   */\ntag_107:\n    /* \"#utility.yul\":4134:4208   */\n  tag_109\n    /* \"#utility.yul\":4200:4207   */\n  dup5\n    /* \"#utility.yul\":4191:4197   */\n  dup3\n    /* \"#utility.yul\":4180:4189   */\n  dup6\n    /* \"#utility.yul\":4176:4198   */\n  add\n    /* \"#utility.yul\":4134:4208   */\n  tag_36\n  jump\t// in\ntag_109:\n    /* \"#utility.yul\":4124:4208   */\n  swap2\n  pop\n    /* \"#utility.yul\":3927:4218   */\n  pop\n    /* \"#utility.yul\":3701:4225   */\n  swap3\n  swap2\n  pop\n  pop\n  jump\t// out\n    /* \"#utility.yul\":4231:4330   */\ntag_37:\n    /* \"#utility.yul\":4283:4289   */\n  0x00\n    /* \"#utility.yul\":4317:4322   */\n  dup2\n    /* \"#utility.yul\":4311:4323   */\n  mload\n    /* \"#utility.yul\":4301:4323   */\n  swap1\n  pop\n    /* \"#utility.yul\":4231:4330   */\n  swap2\n  swap1\n  pop\n  jump\t// out\n    /* \"#utility.yul\":4336:4484   */\ntag_38:\n    /* \"#utility.yul\":4438:4449   */\n  0x00\n    /* \"#utility.yul\":4475:4478   */\n  dup2\n    /* \"#utility.yul\":4460:4478   */\n  swap1\n  pop\n    /* \"#utility.yul\":4336:4484   */\n  swap3\n  swap2\n  pop\n  pop\n  jump\t// out\n    /* \"#utility.yul\":4490:4880   */\ntag_39:\n    /* \"#utility.yul\":4596:4599   */\n  0x00\n    /* \"#utility.yul\":4624:4663   */\n  tag_113\n    /* \"#utility.yul\":4657:4662   */\n  dup3\n    /* \"#utility.yul\":4624:4663   */\n  tag_37\n  jump\t// in\ntag_113:\n    /* \"#utility.yul\":4679:4768   */\n  tag_114\n    /* \"#utility.yul\":4761:4767   */\n  dup2\n    /* \"#utility.yul\":4756:4759   */\n  dup6\n    /* \"#utility.yul\":4679:4768   */\n  tag_38\n  jump\t// in\ntag_114:\n    /* \"#utility.yul\":4672:4768   */\n  swap4\n  pop\n    /* \"#utility.yul\":4777:4842   */\n  tag_115\n    /* \"#utility.yul\":4835:4841   */\n  dup2\n    /* \"#utility.yul\":4830:4833   */\n  dup6\n    /* \"#utility.yul\":4823:4827   */\n  0x20\n    /* \"#utility.yul\":4816:4821   */\n  dup7\n    /* \"#utility.yul\":4812:4828   */\n  add\n    /* \"#utility.yul\":4777:4842   */\n  tag_34\n  jump\t// in\ntag_115:\n    /* \"#utility.yul\":4867:4873   */\n  dup1\n    /* \"#utility.yul\":4862:4865   */\n  dup5\n    /* \"#utility.yul\":4858:4874   */\n  add\n    /* \"#utility.yul\":4851:4874   */\n  swap2\n  pop\n    /* \"#utility.yul\":4600:4880   */\n  pop\n    /* \"#utility.yul\":4490:4880   */\n  swap3\n  swap2\n  pop\n  pop\n  jump\t// out\n    /* \"#utility.yul\":4886:5321   */\ntag_13:\n    /* \"#utility.yul\":5066:5069   */\n  0x00\n    /* \"#utility.yul\":5088:5183   */\n  tag_117\n    /* \"#utility.yul\":5179:5182   */\n  dup3\n    /* \"#utility.yul\":5170:5176   */\n  dup6\n    /* \"#utility.yul\":5088:5183   */\n  tag_39\n  jump\t// in\ntag_117:\n    /* \"#utility.yul\":5081:5183   */\n  swap2\n  pop\n    /* \"#utility.yul\":5200:5295   */\n  tag_118\n    /* \"#utility.yul\":5291:5294   */\n  dup3\n    /* \"#utility.yul\":5282:5288   */\n  dup5\n    /* \"#utility.yul\":5200:5295   */\n  tag_39\n  jump\t// in\ntag_118:\n    /* \"#utility.yul\":5193:5295   */\n  swap2\n  pop\n    /* \"#utility.yul\":5312:5315   */\n  dup2\n    /* \"#utility.yul\":5305:5315   */\n  swap1\n  pop\n    /* \"#utility.yul\":4886:5321   */\n  swap4\n  swap3\n  pop\n  pop\n  pop\n  jump\t// out\n    /* \"#utility.yul\":5327:5507   */\ntag_40:\n    /* \"#utility.yul\":5375:5452   */\n  0x4e487b7100000000000000000000000000000000000000000000000000000000\n    /* \"#utility.yul\":5372:5373   */\n  0x00\n    /* \"#utility.yul\":5365:5453   */\n  mstore\n    /* \"#utility.yul\":5472:5476   */\n  0x22\n    /* \"#utility.yul\":5469:5470   */\n  0x04\n    /* \"#utility.yul\":5462:5477   */\n  mstore\n    /* \"#utility.yul\":5496:5500   */\n  0x24\n    /* \"#utility.yul\":5493:5494   */\n  0x00\n    /* \"#utility.yul\":5486:5501   */\n  revert\n    /* \"#utility.yul\":5513:5833   */\ntag_41:\n    /* \"#utility.yul\":5557:5563   */\n  0x00\n    /* \"#utility.yul\":5594:5595   */\n  0x02\n    /* \"#utility.yul\":5588:5592   */\n  dup3\n    /* \"#utility.yul\":5584:5596   */\n  div\n    /* \"#utility.yul\":5574:5596   */\n  swap1\n  pop\n    /* \"#utility.yul\":5641:5642   */\n  0x01\n    /* \"#utility.yul\":5635:5639   */\n  dup3\n    /* \"#utility.yul\":5631:5643   */\n  and\n    /* \"#utility.yul\":5662:5680   */\n  dup1\n    /* \"#utility.yul\":5652:5733   */\n  tag_121\n  jumpi\n    /* \"#utility.yul\":5718:5722   */\n  0x7f\n    /* \"#utility.yul\":5710:5716   */\n  dup3\n    /* \"#utility.yul\":5706:5723   */\n  and\n    /* \"#utility.yul\":5696:5723   */\n  swap2\n  pop\n    /* \"#utility.yul\":5652:5733   */\ntag_121:\n    /* \"#utility.yul\":5780:5782   */\n  0x20\n    /* \"#utility.yul\":5772:5778   */\n  dup3\n    /* \"#utility.yul\":5769:5783   */\n  lt\n    /* \"#utility.yul\":5749:5767   */\n  dup2\n    /* \"#utility.yul\":5746:5784   */\n  sub\n    /* \"#utility.yul\":5743:5827   */\n  tag_122\n  jumpi\n    /* \"#utility.yul\":5799:5817   */\n  tag_123\n  tag_40\n  jump\t// in\ntag_123:\n    /* \"#utility.yul\":5743:5827   */\ntag_122:\n    /* \"#utility.yul\":5564:5833   */\n  pop\n    /* \"#utility.yul\":5513:5833   */\n  swap2\n  swap1\n  pop\n  jump\t// out\n    /* \"#utility.yul\":5839:5980   */\ntag_42:\n    /* \"#utility.yul\":5888:5892   */\n  0x00\n    /* \"#utility.yul\":5911:5914   */\n  dup2\n    /* \"#utility.yul\":5903:5914   */\n  swap1\n  pop\n    /* \"#utility.yul\":5934:5937   */\n  dup2\n    /* \"#utility.yul\":5931:5932   */\n  0x00\n    /* \"#utility.yul\":5924:5938   */\n  mstore\n    /* \"#utility.yul\":5968:5972   */\n  0x20\n    /* \"#utility.yul\":5965:5966   */\n  0x00\n    /* \"#utility.yul\":5955:5973   */\n  keccak256\n    /* \"#utility.yul\":5947:5973   */\n  swap1\n  pop\n    /* \"#utility.yul\":5839:5980   */\n  swap2\n  swap1\n  pop\n  jump\t// out\n    /* \"#utility.yul\":5986:6079   */\ntag_43:\n    /* \"#utility.yul\":6023:6029   */\n  0x00\n    /* \"#utility.yul\":6070:6072   */\n  0x20\n    /* \"#utility.yul\":6065:6067   */\n  0x1f\n    /* \"#utility.yul\":6058:6063   */\n  dup4\n    /* \"#utility.yul\":6054:6068   */\n  add\n    /* \"#utility.yul\":6050:6073   */\n  div\n    /* \"#utility.yul\":6040:6073   */\n  swap1\n  pop\n    /* \"#utility.yul\":5986:6079   */\n  swap2\n  swap1\n  pop\n  jump\t// out\n    /* \"#utility.yul\":6085:6192   */\ntag_44:\n    /* \"#utility.yul\":6129:6137   */\n  0x00\n    /* \"#utility.yul\":6179:6184   */\n  dup3\n    /* \"#utility.yul\":6173:6177   */\n  dup3\n    /* \"#utility.yul\":6169:6185   */\n  shl\n    /* \"#utility.yul\":6148:6185   */\n  swap1\n  pop\n    /* \"#utility.yul\":6085:6192   */\n  swap3\n  swap2\n  pop\n  pop\n  jump\t// out\n    /* \"#utility.yul\":6198:6591   */\ntag_45:\n    /* \"#utility.yul\":6267:6273   */\n  0x00\n    /* \"#utility.yul\":6317:6318   */\n  0x08\n    /* \"#utility.yul\":6305:6315   */\n  dup4\n    /* \"#utility.yul\":6301:6319   */\n  mul\n    /* \"#utility.yul\":6340:6437   */\n  tag_128\n    /* \"#utility.yul\":6370:6436   */\n  0xffffffffffffffffffffffffffffffffffffffffffffffffffffffffffffffff\n    /* \"#utility.yul\":6359:6368   */\n  dup3\n    /* \"#utility.yul\":6340:6437   */\n  tag_44\n  jump\t// in\ntag_128:\n    /* \"#utility.yul\":6458:6497   */\n  tag_129\n    /* \"#utility.yul\":6488:6496   */\n  dup7\n    /* \"#utility.yul\":6477:6486   */\n  dup4\n    /* \"#utility.yul\":6458:6497   */\n  tag_44\n  jump\t// in\ntag_129:\n    /* \"#utility.yul\":6446:6497   */\n  swap6\n  pop\n    /* \"#utility.yul\":6530:6534   */\n  dup1\n    /* \"#utility.yul\":6526:6535   */\n  not\n    /* \"#utility.yul\":6519:6524   */\n  dup5\n    /* \"#utility.yul\":6515:6536   */\n  and\n    /* \"#utility.yul\":6506:6536   */\n  swap4\n  pop\n    /* \"#utility.yul\":6579:6583   */\n  dup1\n    /* \"#utility.yul\":6569:6577   */\n  dup7\n    /* \"#utility.yul\":6565:6584   */\n  and\n    /* \"#utility.yul\":6558:6563   */\n  dup5\n    /* \"#utility.yul\":6555:6585   */\n  or\n    /* \"#utility.yul\":6545:6585   */\n  swap3\n  pop\n    /* \"#utility.yul\":6274:6591   */\n  pop\n  pop\n    /* \"#utility.yul\":6198:6591   */\n  swap4\n  swap3\n  pop\n  pop\n  pop\n  jump\t// out\n    /* \"#utility.yul\":6597:6674   */\ntag_46:\n    /* \"#utility.yul\":6634:6641   */\n  0x00\n    /* \"#utility.yul\":6663:6668   */\n  dup2\n    /* \"#utility.yul\":6652:6668   */\n  swap1\n  pop\n    /* \"#utility.yul\":6597:6674   */\n  swap2\n  swap1\n  pop\n  jump\t// out\n    /* \"#utility.yul\":6680:6740   */\ntag_47:\n    /* \"#utility.yul\":6708:6711   */\n  0x00\n    /* \"#utility.yul\":6729:6734   */\n  dup2\n    /* \"#utility.yul\":6722:6734   */\n  swap1\n  pop\n    /* \"#utility.yul\":6680:6740   */\n  swap2\n  swap1\n  pop\n  jump\t// out\n    /* \"#utility.yul\":6746:6888   */\ntag_48:\n    /* \"#utility.yul\":6796:6805   */\n  0x00\n    /* \"#utility.yul\":6829:6882   */\n  tag_133\n    /* \"#utility.yul\":6847:6881   */\n  tag_134\n    /* \"#utility.yul\":6856:6880   */\n  tag_135\n    /* \"#utility.yul\":6874:6879   */\n  dup5\n    /* \"#utility.yul\":6856:6880   */\n  tag_46\n  jump\t// in\ntag_135:\n    /* \"#utility.yul\":6847:6881   */\n  tag_47\n  jump\t// in\ntag_134:\n    /* \"#utility.yul\":6829:6882   */\n  tag_46\n  jump\t// in\ntag_133:\n    /* \"#utility.yul\":6816:6882   */\n  swap1\n  pop\n    /* \"#utility.yul\":6746:6888   */\n  swap2\n  swap1\n  pop\n  jump\t// out\n    /* \"#utility.yul\":6894:6969   */\ntag_49:\n    /* \"#utility.yul\":6937:6940   */\n  0x00\n    /* \"#utility.yul\":6958:6963   */\n  dup2\n    /* \"#utility.yul\":6951:6963   */\n  swap1\n  pop\n    /* \"#utility.yul\":6894:6969   */\n  swap2\n  swap1\n  pop\n  jump\t// out\n    /* \"#utility.yul\":6975:7244   */\ntag_50:\n    /* \"#utility.yul\":7085:7124   */\n  tag_138\n    /* \"#utility.yul\":7116:7123   */\n  dup4\n    /* \"#utility.yul\":7085:7124   */\n  tag_48\n  jump\t// in\ntag_138:\n    /* \"#utility.yul\":7146:7237   */\n  tag_139\n    /* \"#utility.yul\":7195:7236   */\n  tag_140\n    /* \"#utility.yul\":7219:7235   */\n  dup3\n    /* \"#utility.yul\":7195:7236   */\n  tag_49\n  jump\t// in\ntag_140:\n    /* \"#utility.yul\":7187:7193   */\n  dup5\n    /* \"#utility.yul\":7180:7184   */\n  dup5\n    /* \"#utility.yul\":7174:7185   */\n  sload\n    /* \"#utility.yul\":7146:7237   */\n  tag_45\n  jump\t// in\ntag_139:\n    /* \"#utility.yul\":7140:7144   */\n  dup3\n    /* \"#utility.yul\":7133:7238   */\n  sstore\n    /* \"#utility.yul\":7051:7244   */\n  pop\n    /* \"#utility.yul\":6975:7244   */\n  pop\n  pop\n  pop\n  jump\t// out\n    /* \"#utility.yul\":7250:7323   */\ntag_51:\n    /* \"#utility.yul\":7295:7298   */\n  0x00\n    /* \"#utility.yul\":7250:7323   */\n  swap1\n  jump\t// out\n    /* \"#utility.yul\":7329:7518   */\ntag_52:\n    /* \"#utility.yul\":7406:7438   */\n  tag_143\n  tag_51\n  jump\t// in\ntag_143:\n    /* \"#utility.yul\":7447:7512   */\n  tag_144\n    /* \"#utility.yul\":7505:7511   */\n  dup2\n    /* \"#utility.yul\":7497:7503   */\n  dup5\n    /* \"#utility.yul\":7491:7495   */\n  dup5\n    /* \"#utility.yul\":7447:7512   */\n  tag_50\n  jump\t// in\ntag_144:\n    /* \"#utility.yul\":7382:7518   */\n  pop\n    /* \"#utility.yul\":7329:7518   */\n  pop\n  pop\n  jump\t// out\n    /* \"#utility.yul\":7524:7710   */\ntag_53:\n    /* \"#utility.yul\":7584:7704   */\ntag_146:\n    /* \"#utility.yul\":7601:7604   */\n  dup2\n    /* \"#utility.yul\":7594:7599   */\n  dup2\n    /* \"#utility.yul\":7591:7605   */\n  lt\n    /* \"#utility.yul\":7584:7704   */\n  iszero\n  tag_148\n  jumpi\n    /* \"#utility.yul\":7655:7694   */\n  tag_149\n    /* \"#utility.yul\":7692:7693   */\n  0x00\n    /* \"#utility.yul\":7685:7690   */\n  dup3\n    /* \"#utility.yul\":7655:7694   */\n  tag_52\n  jump\t// in\ntag_149:\n    /* \"#utility.yul\":7628:7629   */\n  0x01\n    /* \"#utility.yul\":7621:7626   */\n  dup2\n    /* \"#utility.yul\":7617:7630   */\n  add\n    /* \"#utility.yul\":7608:7630   */\n  swap1\n  pop\n    /* \"#utility.yul\":7584:7704   */\n  jump(tag_146)\ntag_148:\n    /* \"#utility.yul\":7524:7710   */\n  pop\n  pop\n  jump\t// out\n    /* \"#utility.yul\":7716:8259   */\ntag_54:\n    /* \"#utility.yul\":7817:7819   */\n  0x1f\n    /* \"#utility.yul\":7812:7815   */\n  dup3\n    /* \"#utility.yul\":7809:7820   */\n  gt\n    /* \"#utility.yul\":7806:8252   */\n  iszero\n  tag_151\n  jumpi\n    /* \"#utility.yul\":7851:7889   */\n  tag_152\n    /* \"#utility.yul\":7883:7888   */\n  dup2\n    /* \"#utility.yul\":7851:7889   */\n  tag_42\n  jump\t// in\ntag_152:\n    /* \"#utility.yul\":7935:7964   */\n  tag_153\n    /* \"#utility.yul\":7953:7963   */\n  dup5\n    /* \"#utility.yul\":7935:7964   */\n  tag_43\n  jump\t// in\ntag_153:\n    /* \"#utility.yul\":7925:7933   */\n  dup2\n    /* \"#utility.yul\":7921:7965   */\n  add\n    /* \"#utility.yul\":8118:8120   */\n  0x20\n    /* \"#utility.yul\":8106:8116   */\n  dup6\n    /* \"#utility.yul\":8103:8121   */\n  lt\n    /* \"#utility.yul\":8100:8149   */\n  iszero\n  tag_154\n  jumpi\n    /* \"#utility.yul\":8139:8147   */\n  dup2\n    /* \"#utility.yul\":8124:8147   */\n  swap1\n  pop\n    /* \"#utility.yul\":8100:8149   */\ntag_154:\n    /* \"#utility.yul\":8162:8242   */\n  tag_155\n    /* \"#utility.yul\":8218:8240   */\n  tag_156\n    /* \"#utility.yul\":8236:8239   */\n  dup6\n    /* \"#utility.yul\":8218:8240   */\n  tag_43\n  jump\t// in\ntag_156:\n    /* \"#utility.yul\":8208:8216   */\n  dup4\n    /* \"#utility.yul\":8204:8241   */\n  add\n    /* \"#utility.yul\":8191:8202   */\n  dup3\n    /* \"#utility.yul\":8162:8242   */\n  tag_53\n  jump\t// in\ntag_155:\n    /* \"#utility.yul\":7821:8252   */\n  pop\n  pop\n    /* \"#utility.yul\":7806:8252   */\ntag_151:\n    /* \"#utility.yul\":7716:8259   */\n  pop\n  pop\n  pop\n  jump\t// out\n    /* \"#utility.yul\":8265:8382   */\ntag_55:\n    /* \"#utility.yul\":8319:8327   */\n  0x00\n    /* \"#utility.yul\":8369:8374   */\n  dup3\n    /* \"#utility.yul\":8363:8367   */\n  dup3\n    /* \"#utility.yul\":8359:8375   */\n  shr\n    /* \"#utility.yul\":8338:8375   */\n  swap1\n  pop\n    /* \"#utility.yul\":8265:8382   */\n  swap3\n  swap2\n  pop\n  pop\n  jump\t// out\n    /* \"#utility.yul\":8388:8557   */\ntag_56:\n    /* \"#utility.yul\":8432:8438   */\n  0x00\n    /* \"#utility.yul\":8465:8516   */\n  tag_159\n    /* \"#utility.yul\":8513:8514   */\n  0x00\n    /* \"#utility.yul\":8509:8515   */\n  not\n    /* \"#utility.yul\":8501:8506   */\n  dup5\n    /* \"#utility.yul\":8498:8499   */\n  0x08\n    /* \"#utility.yul\":8494:8507   */\n  mul\n    /* \"#utility.yul\":8465:8516   */\n  tag_55\n  jump\t// in\ntag_159:\n    /* \"#utility.yul\":8461:8517   */\n  not\n    /* \"#utility.yul\":8546:8550   */\n  dup1\n    /* \"#utility.yul\":8540:8544   */\n  dup4\n    /* \"#utility.yul\":8536:8551   */\n  and\n    /* \"#utility.yul\":8526:8551   */\n  swap2\n  pop\n    /* \"#utility.yul\":8439:8557   */\n  pop\n    /* \"#utility.yul\":8388:8557   */\n  swap3\n  swap2\n  pop\n  pop\n  jump\t// out\n    /* \"#utility.yul\":8562:8857   */\ntag_57:\n    /* \"#utility.yul\":8638:8642   */\n  0x00\n    /* \"#utility.yul\":8784:8813   */\n  tag_161\n    /* \"#utility.yul\":8809:8812   */\n  dup4\n    /* \"#utility.yul\":8803:8807   */\n  dup4\n    /* \"#utility.yul\":8784:8813   */\n  tag_56\n  jump\t// in\ntag_161:\n    /* \"#utility.yul\":8776:8813   */\n  swap2\n  pop\n    /* \"#utility.yul\":8846:8849   */\n  dup3\n    /* \"#utility.yul\":8843:8844   */\n  0x02\n    /* \"#utility.yul\":8839:8850   */\n  mul\n    /* \"#utility.yul\":8833:8837   */\n  dup3\n    /* \"#utility.yul\":8830:8851   */\n  or\n    /* \"#utility.yul\":8822:8851   */\n  swap1\n  pop\n    /* \"#utility.yul\":8562:8857   */\n  swap3\n  swap2\n  pop\n  pop\n  jump\t// out\n    /* \"#utility.yul\":8862:10257   */\ntag_17:\n    /* \"#utility.yul\":8979:9016   */\n  tag_163\n    /* \"#utility.yul\":9012:9015   */\n  dup3\n    /* \"#utility.yul\":8979:9016   */\n  tag_37\n  jump\t// in\ntag_163:\n    /* \"#utility.yul\":9081:9099   */\n  0xffffffffffffffff\n    /* \"#utility.yul\":9073:9079   */\n  dup2\n    /* \"#utility.yul\":9070:9100   */\n  gt\n    /* \"#utility.yul\":9067:9123   */\n  iszero\n  tag_164\n  jumpi\n    /* \"#utility.yul\":9103:9121   */\n  tag_165\n  tag_30\n  jump\t// in\ntag_165:\n    /* \"#utility.yul\":9067:9123   */\ntag_164:\n    /* \"#utility.yul\":9147:9185   */\n  tag_166\n    /* \"#utility.yul\":9179:9183   */\n  dup3\n    /* \"#utility.yul\":9173:9184   */\n  sload\n    /* \"#utility.yul\":9147:9185   */\n  tag_41\n  jump\t// in\ntag_166:\n    /* \"#utility.yul\":9232:9299   */\n  tag_167\n    /* \"#utility.yul\":9292:9298   */\n  dup3\n    /* \"#utility.yul\":9284:9290   */\n  dup3\n    /* \"#utility.yul\":9278:9282   */\n  dup6\n    /* \"#utility.yul\":9232:9299   */\n  tag_54\n  jump\t// in\ntag_167:\n    /* \"#utility.yul\":9326:9327   */\n  0x00\n    /* \"#utility.yul\":9350:9354   */\n  0x20\n    /* \"#utility.yul\":9337:9354   */\n  swap1\n  pop\n    /* \"#utility.yul\":9382:9384   */\n  0x1f\n    /* \"#utility.yul\":9374:9380   */\n  dup4\n    /* \"#utility.yul\":9371:9385   */\n  gt\n    /* \"#utility.yul\":9399:9400   */\n  0x01\n    /* \"#utility.yul\":9394:10012   */\n  dup2\n  eq\n  tag_169\n  jumpi\n    /* \"#utility.yul\":10056:10057   */\n  0x00\n    /* \"#utility.yul\":10073:10079   */\n  dup5\n    /* \"#utility.yul\":10070:10147   */\n  iszero\n  tag_170\n  jumpi\n    /* \"#utility.yul\":10122:10131   */\n  dup3\n    /* \"#utility.yul\":10117:10120   */\n  dup8\n    /* \"#utility.yul\":10113:10132   */\n  add\n    /* \"#utility.yul\":10107:10133   */\n  mload\n    /* \"#utility.yul\":10098:10133   */\n  swap1\n  pop\n    /* \"#utility.yul\":10070:10147   */\ntag_170:\n    /* \"#utility.yul\":10173:10240   */\n  tag_171\n    /* \"#utility.yul\":10233:10239   */\n  dup6\n    /* \"#utility.yul\":10226:10231   */\n  dup3\n    /* \"#utility.yul\":10173:10240   */\n  tag_57\n  jump\t// in\ntag_171:\n    /* \"#utility.yul\":10167:10171   */\n  dup7\n    /* \"#utility.yul\":10160:10241   */\n  sstore\n    /* \"#utility.yul\":10029:10251   */\n  pop\n    /* \"#utility.yul\":9364:10251   */\n  jump(tag_168)\n    /* \"#utility.yul\":9394:10012   */\ntag_169:\n    /* \"#utility.yul\":9446:9450   */\n  0x1f\n    /* \"#utility.yul\":9442:9451   */\n  not\n    /* \"#utility.yul\":9434:9440   */\n  dup5\n    /* \"#utility.yul\":9430:9452   */\n  and\n    /* \"#utility.yul\":9480:9517   */\n  tag_172\n    /* \"#utility.yul\":9512:9516   */\n  dup7\n    /* \"#utility.yul\":9480:9517   */\n  tag_42\n  jump\t// in\ntag_172:\n    /* \"#utility.yul\":9539:9540   */\n  0x00\n    /* \"#utility.yul\":9553:9761   */\ntag_173:\n    /* \"#utility.yul\":9567:9574   */\n  dup3\n    /* \"#utility.yul\":9564:9565   */\n  dup2\n    /* \"#utility.yul\":9561:9575   */\n  lt\n    /* \"#utility.yul\":9553:9761   */\n  iszero\n  tag_175\n  jumpi\n    /* \"#utility.yul\":9646:9655   */\n  dup5\n    /* \"#utility.yul\":9641:9644   */\n  dup10\n    /* \"#utility.yul\":9637:9656   */\n  add\n    /* \"#utility.yul\":9631:9657   */\n  mload\n    /* \"#utility.yul\":9623:9629   */\n  dup3\n    /* \"#utility.yul\":9616:9658   */\n  sstore\n    /* \"#utility.yul\":9697:9698   */\n  0x01\n    /* \"#utility.yul\":9689:9695   */\n  dup3\n    /* \"#utility.yul\":9685:9699   */\n  add\n    /* \"#utility.yul\":9675:9699   */\n  swap2\n  pop\n    /* \"#utility.yul\":9744:9746   */\n  0x20\n    /* \"#utility.yul\":9733:9742   */\n  dup6\n    /* \"#utility.yul\":9729:9747   */\n  add\n    /* \"#utility.yul\":9716:9747   */\n  swap5\n  pop\n    /* \"#utility.yul\":9590:9594   */\n  0x20\n    /* \"#utility.yul\":9587:9588   */\n  dup2\n    /* \"#utility.yul\":9583:9595   */\n  add\n    /* \"#utility.yul\":9578:9595   */\n  swap1\n  pop\n    /* \"#utility.yul\":9553:9761   */\n  jump(tag_173)\ntag_175:\n    /* \"#utility.yul\":9789:9795   */\n  dup7\n    /* \"#utility.yul\":9780:9787   */\n  dup4\n    /* \"#utility.yul\":9777:9796   */\n  lt\n    /* \"#utility.yul\":9774:9953   */\n  iszero\n  tag_176\n  jumpi\n    /* \"#utility.yul\":9847:9856   */\n  dup5\n    /* \"#utility.yul\":9842:9845   */\n  dup10\n    /* \"#utility.yul\":9838:9857   */\n  add\n    /* \"#utility.yul\":9832:9858   */\n  mload\n    /* \"#utility.yul\":9890:9938   */\n  tag_177\n    /* \"#utility.yul\":9932:9936   */\n  0x1f\n    /* \"#utility.yul\":9924:9930   */\n  dup10\n    /* \"#utility.yul\":9920:9937   */\n  and\n    /* \"#utility.yul\":9909:9918   */\n  dup3\n    /* \"#utility.yul\":9890:9938   */\n  tag_56\n  jump\t// in\ntag_177:\n    /* \"#utility.yul\":9882:9888   */\n  dup4\n    /* \"#utility.yul\":9875:9939   */\n  sstore\n    /* \"#utility.yul\":9797:9953   */\n  pop\n    /* \"#utility.yul\":9774:9953   */\ntag_176:\n    /* \"#utility.yul\":9999:10000   */\n  0x01\n    /* \"#utility.yul\":9995:9996   */\n  0x02\n    /* \"#utility.yul\":9987:9993   */\n  dup9\n    /* \"#utility.yul\":9983:9997   */\n  mul\n    /* \"#utility.yul\":9979:10001   */\n  add\n    /* \"#utility.yul\":9973:9977   */\n  dup9\n    /* \"#utility.yul\":9966:10002   */\n  sstore\n    /* \"#utility.yul\":9401:10012   */\n  pop\n  pop\n  pop\n    /* \"#utility.yul\":9364:10251   */\ntag_168:\n  pop\n    /* \"#utility.yul\":8954:10257   */\n  pop\n  pop\n  pop\n    /* \"#utility.yul\":8862:10257   */\n  pop\n  pop\n  jump\t// out\n    /* \"contracts/Pool.sol\":579:8190  contract Pool is IPool, LP {... */\ntag_19:\n  dataSize(sub_0)\n  dup1\n  dataOffset(sub_0)\n  0x00\n  codecopy\n  0x00\n  return\nstop\n\nsub_0: assembly {\n        /* \"contracts/Pool.sol\":579:8190  contract Pool is IPool, LP {... */\n      mstore(0x40, 0x80)\n      callvalue\n      dup1\n      iszero\n      tag_1\n      jumpi\n      0x00\n      dup1\n      revert\n    tag_1:\n      pop\n      jumpi(tag_2, lt(calldatasize, 0x04))\n      shr(0xe0, calldataload(0x00))\n      dup1\n      0x70a08231\n      gt\n      tag_24\n      jumpi\n      dup1\n      0xa9059cbb\n      gt\n      tag_25\n      jumpi\n      dup1\n      0xa9059cbb\n      eq\n      tag_18\n      jumpi\n      dup1\n      0xc45a0155\n      eq\n      tag_19\n      jumpi\n      dup1\n      0xd004f0f7\n      eq\n      tag_20\n      jumpi\n      dup1\n      0xd505accf\n      eq\n      tag_21\n      jumpi\n      dup1\n      0xdd62ed3e\n      eq\n      tag_22\n      jumpi\n      dup1\n      0xe2bbb158\n      eq\n      tag_23\n      jumpi\n      jump(tag_2)\n    tag_25:\n      dup1\n      0x70a08231\n      eq\n      tag_13\n      jumpi\n      dup1\n      0x7464fc3d\n      eq\n      tag_14\n      jumpi\n      dup1\n      0x7ecebe00\n      eq\n      tag_15\n      jumpi\n      dup1\n      0x8f79306e\n      eq\n      tag_16\n      jumpi\n      dup1\n      0x95d89b41\n      eq\n      tag_17\n      jumpi\n      jump(tag_2)\n    tag_24:\n      dup1\n      0x2e1a7d4d\n      gt\n      tag_26\n      jumpi\n      dup1\n      0x2e1a7d4d\n      eq\n      tag_8\n      jumpi\n      dup1\n      0x313ce567\n      eq\n      tag_9\n      jumpi\n      dup1\n      0x3644e515\n      eq\n      tag_10\n      jumpi\n      dup1\n      0x5e3f2727\n      eq\n      tag_11\n      jumpi\n      dup1\n      0x677342ce\n      eq\n      tag_12\n      jumpi\n      jump(tag_2)\n    tag_26:\n      dup1\n      0x06fdde03\n      eq\n      tag_3\n      jumpi\n      dup1\n      0x095ea7b3\n      eq\n      tag_4\n      jumpi\n      dup1\n      0x0b4501fd\n      eq\n      tag_5\n      jumpi\n      dup1\n      0x18160ddd\n      eq\n      tag_6\n      jumpi\n      dup1\n      0x23b872dd\n      eq\n      tag_7\n      jumpi\n    tag_2:\n      0x00\n      dup1\n      revert\n        /* \"contracts/LP.sol\":391:506  function name() public view override returns(string memory) {... */\n    tag_3:\n      tag_27\n      tag_28\n      jump\t// in\n    tag_27:\n      mload(0x40)\n      tag_29\n      swap2\n      swap1\n      tag_30\n      jump\t// in\n    tag_29:\n      mload(0x40)\n      dup1\n      swap2\n      sub\n      swap1\n      return\n        /* \"https://github.com/Vectorized/solady/blob/e4a14a5b365b353352f7c38e699a2bc9363d6576/src/tokens/ERC20.sol\":7435:8008  function approve(address spender, uint256 amount) public virtual returns (bool) {... */\n    tag_4:\n      tag_31\n      0x04\n      dup1\n      calldatasize\n      sub\n      dup2\n      add\n      swap1\n      tag_32\n      swap2\n      swap1\n      tag_33\n      jump\t// in\n    tag_32:\n      tag_34\n      jump\t// in\n    tag_31:\n      mload(0x40)\n      tag_35\n      swap2\n      swap1\n      tag_36\n      jump\t// in\n    tag_35:\n      mload(0x40)\n      dup1\n      swap2\n      sub\n      swap1\n      return\n        /* \"contracts/Pool.sol\":662:700  uint constant public PROTOCOL_FEE  = 5 */\n    tag_5:\n      tag_37\n      tag_38\n      jump\t// in\n    tag_37:\n      mload(0x40)\n      tag_39\n      swap2\n      swap1\n      tag_40\n      jump\t// in\n    tag_39:\n      mload(0x40)\n      dup1\n      swap2\n      sub\n      swap1\n      return\n        /* \"https://github.com/Vectorized/solady/blob/e4a14a5b365b353352f7c38e699a2bc9363d6576/src/tokens/ERC20.sol\":6287:6482  function totalSupply() public view virtual returns (uint256 result) {... */\n    tag_6:\n      tag_41\n      tag_42\n      jump\t// in\n    tag_41:\n      mload(0x40)\n      tag_43\n      swap2\n      swap1\n      tag_40\n      jump\t// in\n    tag_43:\n      mload(0x40)\n      dup1\n      swap2\n      sub\n      swap1\n      return\n        /* \"https://github.com/Vectorized/solady/blob/e4a14a5b365b353352f7c38e699a2bc9363d6576/src/tokens/ERC20.sol\":9969:12160  function transferFrom(address from, address to, uint256 amount) public virtual returns (bool) {... */\n    tag_7:\n      tag_44\n      0x04\n      dup1\n      calldatasize\n      sub\n      dup2\n      add\n      swap1\n      tag_45\n      swap2\n      swap1\n      tag_46\n      jump\t// in\n    tag_45:\n      tag_47\n      jump\t// in\n    tag_44:\n      mload(0x40)\n      tag_48\n      swap2\n      swap1\n      tag_36\n      jump\t// in\n    tag_48:\n      mload(0x40)\n      dup1\n      swap2\n      sub\n      swap1\n      return\n        /* \"contracts/Pool.sol\":3841:4752  function withdraw(uint256 lpAmount) external returns (uint256 amount0, uint256 amount1){... */\n    tag_8:\n      tag_49\n      0x04\n      dup1\n      calldatasize\n      sub\n      dup2\n      add\n      swap1\n      tag_50\n      swap2\n      swap1\n      tag_51\n      jump\t// in\n    tag_50:\n      tag_52\n      jump\t// in\n    tag_49:\n      mload(0x40)\n      tag_53\n      swap3\n      swap2\n      swap1\n      tag_54\n      jump\t// in\n    tag_53:\n      mload(0x40)\n      dup1\n      swap2\n      sub\n      swap1\n      return\n        /* \"https://github.com/Vectorized/solady/blob/e4a14a5b365b353352f7c38e699a2bc9363d6576/src/tokens/ERC20.sol\":5860:5942  function decimals() public view virtual returns (uint8) {... */\n    tag_9:\n      tag_55\n      tag_56\n      jump\t// in\n    tag_55:\n      mload(0x40)\n      tag_57\n      swap2\n      swap1\n      tag_58\n      jump\t// in\n    tag_57:\n      mload(0x40)\n      dup1\n      swap2\n      sub\n      swap1\n      return\n        /* \"https://github.com/Vectorized/solady/blob/e4a14a5b365b353352f7c38e699a2bc9363d6576/src/tokens/ERC20.sol\":16620:17313  function DOMAIN_SEPARATOR() public view virtual returns (bytes32 result) {... */\n    tag_10:\n      tag_59\n      tag_60\n      jump\t// in\n    tag_59:\n      mload(0x40)\n      tag_61\n      swap2\n      swap1\n      tag_62\n      jump\t// in\n    tag_61:\n      mload(0x40)\n      dup1\n      swap2\n      sub\n      swap1\n      return\n        /* \"contracts/Pool.sol\":615:647  uint constant public LP_FEE = 30 */\n    tag_11:\n      tag_63\n      tag_64\n      jump\t// in\n    tag_63:\n      mload(0x40)\n      tag_65\n      swap2\n      swap1\n      tag_40\n      jump\t// in\n    tag_65:\n      mload(0x40)\n      dup1\n      swap2\n      sub\n      swap1\n      return\n        /* \"contracts/Pool.sol\":6274:7998  function sqrt(uint256 a) public pure returns (uint256) {... */\n    tag_12:\n      tag_66\n      0x04\n      dup1\n      calldatasize\n      sub\n      dup2\n      add\n      swap1\n      tag_67\n      swap2\n      swap1\n      tag_51\n      jump\t// in\n    tag_67:\n      tag_68\n      jump\t// in\n    tag_66:\n      mload(0x40)\n      tag_69\n      swap2\n      swap1\n      tag_40\n      jump\t// in\n    tag_69:\n      mload(0x40)\n      dup1\n      swap2\n      sub\n      swap1\n      return\n        /* \"https://github.com/Vectorized/solady/blob/e4a14a5b365b353352f7c38e699a2bc9363d6576/src/tokens/ERC20.sol\":6548:6834  function balanceOf(address owner) public view virtual returns (uint256 result) {... */\n    tag_13:\n      tag_70\n      0x04\n      dup1\n      calldatasize\n      sub\n      dup2\n      add\n      swap1\n      tag_71\n      swap2\n      swap1\n      tag_72\n      jump\t// in\n    tag_71:\n      tag_73\n      jump\t// in\n    tag_70:\n      mload(0x40)\n      tag_74\n      swap2\n      swap1\n      tag_40\n      jump\t// in\n    tag_74:\n      mload(0x40)\n      dup1\n      swap2\n      sub\n      swap1\n      return\n        /* \"contracts/Pool.sol\":768:785  uint public kLast */\n    tag_14:\n      tag_75\n      tag_76\n      jump\t// in\n    tag_75:\n      mload(0x40)\n      tag_77\n      swap2\n      swap1\n      tag_40\n      jump\t// in\n    tag_77:\n      mload(0x40)\n      dup1\n      swap2\n      sub\n      swap1\n      return\n        /* \"https://github.com/Vectorized/solady/blob/e4a14a5b365b353352f7c38e699a2bc9363d6576/src/tokens/ERC20.sol\":12800:13140  function nonces(address owner) public view virtual returns (uint256 result) {... */\n    tag_15:\n      tag_78\n      0x04\n      dup1\n      calldatasize\n      sub\n      dup2\n      add\n      swap1\n      tag_79\n      swap2\n      swap1\n      tag_72\n      jump\t// in\n    tag_79:\n      tag_80\n      jump\t// in\n    tag_78:\n      mload(0x40)\n      tag_81\n      swap2\n      swap1\n      tag_40\n      jump\t// in\n    tag_81:\n      mload(0x40)\n      dup1\n      swap2\n      sub\n      swap1\n      return\n        /* \"contracts/Pool.sol\":4760:4959  function quote(address token, uint256 amount) public view checkTokenInside(token) returns(uint256){... */\n    tag_16:\n      tag_82\n      0x04\n      dup1\n      calldatasize\n      sub\n      dup2\n      add\n      swap1\n      tag_83\n      swap2\n      swap1\n      tag_33\n      jump\t// in\n    tag_83:\n      tag_84\n      jump\t// in\n    tag_82:\n      mload(0x40)\n      tag_85\n      swap2\n      swap1\n      tag_40\n      jump\t// in\n    tag_85:\n      mload(0x40)\n      dup1\n      swap2\n      sub\n      swap1\n      return\n        /* \"contracts/LP.sol\":512:606  function symbol() public view override returns(string memory) {... */\n    tag_17:\n      tag_86\n      tag_87\n      jump\t// in\n    tag_86:\n      mload(0x40)\n      tag_88\n      swap2\n      swap1\n      tag_30\n      jump\t// in\n    tag_88:\n      mload(0x40)\n      dup1\n      swap2\n      sub\n      swap1\n      return\n        /* \"https://github.com/Vectorized/solady/blob/e4a14a5b365b353352f7c38e699a2bc9363d6576/src/tokens/ERC20.sol\":8195:9601  function transfer(address to, uint256 amount) public virtual returns (bool) {... */\n    tag_18:\n      tag_89\n      0x04\n      dup1\n      calldatasize\n      sub\n      dup2\n      add\n      swap1\n      tag_90\n      swap2\n      swap1\n      tag_33\n      jump\t// in\n    tag_90:\n      tag_91\n      jump\t// in\n    tag_89:\n      mload(0x40)\n      tag_92\n      swap2\n      swap1\n      tag_36\n      jump\t// in\n    tag_92:\n      mload(0x40)\n      dup1\n      swap2\n      sub\n      swap1\n      return\n        /* \"contracts/Pool.sol\":739:761  address public factory */\n    tag_19:\n      tag_93\n      tag_94\n      jump\t// in\n    tag_93:\n      mload(0x40)\n      tag_95\n      swap2\n      swap1\n      tag_96\n      jump\t// in\n    tag_95:\n      mload(0x40)\n      dup1\n      swap2\n      sub\n      swap1\n      return\n        /* \"contracts/Pool.sol\":1695:2697  function swap(address token, uint256 amount) external checkTokenInside(token) returns(uint256 amountOut) {... */\n    tag_20:\n      tag_97\n      0x04\n      dup1\n      calldatasize\n      sub\n      dup2\n      add\n      swap1\n      tag_98\n      swap2\n      swap1\n      tag_33\n      jump\t// in\n    tag_98:\n      tag_99\n      jump\t// in\n    tag_97:\n      mload(0x40)\n      tag_100\n      swap2\n      swap1\n      tag_40\n      jump\t// in\n    tag_100:\n      mload(0x40)\n      dup1\n      swap2\n      sub\n      swap1\n      return\n        /* \"https://github.com/Vectorized/solady/blob/e4a14a5b365b353352f7c38e699a2bc9363d6576/src/tokens/ERC20.sol\":13324:16539  function permit(... */\n    tag_21:\n      tag_101\n      0x04\n      dup1\n      calldatasize\n      sub\n      dup2\n      add\n      swap1\n      tag_102\n      swap2\n      swap1\n      tag_103\n      jump\t// in\n    tag_102:\n      tag_104\n      jump\t// in\n    tag_101:\n      stop\n        /* \"https://github.com/Vectorized/solady/blob/e4a14a5b365b353352f7c38e699a2bc9363d6576/src/tokens/ERC20.sol\":6929:7304  function allowance(address owner, address spender)... */\n    tag_22:\n      tag_105\n      0x04\n      dup1\n      calldatasize\n      sub\n      dup2\n      add\n      swap1\n      tag_106\n      swap2\n      swap1\n      tag_107\n      jump\t// in\n    tag_106:\n      tag_108\n      jump\t// in\n    tag_105:\n      mload(0x40)\n      tag_109\n      swap2\n      swap1\n      tag_40\n      jump\t// in\n    tag_109:\n      mload(0x40)\n      dup1\n      swap2\n      sub\n      swap1\n      return\n        /* \"contracts/Pool.sol\":2705:3833  function deposit(uint256 amount0, uint256 amount1) external returns(uint256 liquidity){... */\n    tag_23:\n      tag_110\n      0x04\n      dup1\n      calldatasize\n      sub\n      dup2\n      add\n      swap1\n      tag_111\n      swap2\n      swap1\n      tag_112\n      jump\t// in\n    tag_111:\n      tag_113\n      jump\t// in\n    tag_110:\n      mload(0x40)\n      tag_114\n      swap2\n      swap1\n      tag_40\n      jump\t// in\n    tag_114:\n      mload(0x40)\n      dup1\n      swap2\n      sub\n      swap1\n      return\n        /* \"contracts/LP.sol\":391:506  function name() public view override returns(string memory) {... */\n    tag_28:\n        /* \"contracts/LP.sol\":436:449  string memory */\n      0x60\n        /* \"contracts/LP.sol\":483:489  PREFIX */\n      mload(0x40)\n      dup1\n      0x40\n      add\n      0x40\n      mstore\n      dup1\n      0x05\n      dup2\n      mstore\n      0x20\n      add\n      0x4d494e492d000000000000000000000000000000000000000000000000000000\n      dup2\n      mstore\n      pop\n        /* \"contracts/LP.sol\":491:497  s_name */\n      0x00\n        /* \"contracts/LP.sol\":469:498  string.concat(PREFIX, s_name) */\n      add(0x20, mload(0x40))\n      tag_116\n      swap3\n      swap2\n      swap1\n      tag_117\n      jump\t// in\n    tag_116:\n      mload(0x40)\n      0x20\n      dup2\n      dup4\n      sub\n      sub\n      dup2\n      mstore\n      swap1\n      0x40\n      mstore\n        /* \"contracts/LP.sol\":462:498  return string.concat(PREFIX, s_name) */\n      swap1\n      pop\n        /* \"contracts/LP.sol\":391:506  function name() public view override returns(string memory) {... */\n      swap1\n      jump\t// out\n        /* \"https://github.com/Vectorized/solady/blob/e4a14a5b365b353352f7c38e699a2bc9363d6576/src/tokens/ERC20.sol\":7435:8008  function approve(address spender, uint256 amount) public virtual returns (bool) {... */\n    tag_34:\n        /* \"https://github.com/Vectorized/solady/blob/e4a14a5b365b353352f7c38e699a2bc9363d6576/src/tokens/ERC20.sol\":7509:7513  bool */\n      0x00\n        /* \"https://github.com/Vectorized/solady/blob/e4a14a5b365b353352f7c38e699a2bc9363d6576/src/tokens/ERC20.sol\":7668:7675  spender */\n      dup3\n        /* \"https://github.com/Vectorized/solady/blob/e4a14a5b365b353352f7c38e699a2bc9363d6576/src/tokens/ERC20.sol\":7662:7666  0x20 */\n      0x20\n        /* \"https://github.com/Vectorized/solady/blob/e4a14a5b365b353352f7c38e699a2bc9363d6576/src/tokens/ERC20.sol\":7655:7676  mstore(0x20, spender) */\n      mstore\n        /* \"https://github.com/Vectorized/solady/blob/e4a14a5b365b353352f7c38e699a2bc9363d6576/src/tokens/ERC20.sol\":7702:7722  _ALLOWANCE_SLOT_SEED */\n      0x7f5e9f20\n        /* \"https://github.com/Vectorized/solady/blob/e4a14a5b365b353352f7c38e699a2bc9363d6576/src/tokens/ERC20.sol\":7696:7700  0x0c */\n      0x0c\n        /* \"https://github.com/Vectorized/solady/blob/e4a14a5b365b353352f7c38e699a2bc9363d6576/src/tokens/ERC20.sol\":7689:7723  mstore(0x0c, _ALLOWANCE_SLOT_SEED) */\n      mstore\n        /* \"https://github.com/Vectorized/solady/blob/e4a14a5b365b353352f7c38e699a2bc9363d6576/src/tokens/ERC20.sol\":7749:7757  caller() */\n      caller\n        /* \"https://github.com/Vectorized/solady/blob/e4a14a5b365b353352f7c38e699a2bc9363d6576/src/tokens/ERC20.sol\":7743:7747  0x00 */\n      0x00\n        /* \"https://github.com/Vectorized/solady/blob/e4a14a5b365b353352f7c38e699a2bc9363d6576/src/tokens/ERC20.sol\":7736:7758  mstore(0x00, caller()) */\n      mstore\n        /* \"https://github.com/Vectorized/solady/blob/e4a14a5b365b353352f7c38e699a2bc9363d6576/src/tokens/ERC20.sol\":7801:7807  amount */\n      dup2\n        /* \"https://github.com/Vectorized/solady/blob/e4a14a5b365b353352f7c38e699a2bc9363d6576/src/tokens/ERC20.sol\":7794:7798  0x34 */\n      0x34\n        /* \"https://github.com/Vectorized/solady/blob/e4a14a5b365b353352f7c38e699a2bc9363d6576/src/tokens/ERC20.sol\":7788:7792  0x0c */\n      0x0c\n        /* \"https://github.com/Vectorized/solady/blob/e4a14a5b365b353352f7c38e699a2bc9363d6576/src/tokens/ERC20.sol\":7778:7799  keccak256(0x0c, 0x34) */\n      keccak256\n        /* \"https://github.com/Vectorized/solady/blob/e4a14a5b365b353352f7c38e699a2bc9363d6576/src/tokens/ERC20.sol\":7771:7808  sstore(keccak256(0x0c, 0x34), amount) */\n      sstore\n        /* \"https://github.com/Vectorized/solady/blob/e4a14a5b365b353352f7c38e699a2bc9363d6576/src/tokens/ERC20.sol\":7876:7882  amount */\n      dup2\n        /* \"https://github.com/Vectorized/solady/blob/e4a14a5b365b353352f7c38e699a2bc9363d6576/src/tokens/ERC20.sol\":7870:7874  0x00 */\n      0x00\n        /* \"https://github.com/Vectorized/solady/blob/e4a14a5b365b353352f7c38e699a2bc9363d6576/src/tokens/ERC20.sol\":7863:7883  mstore(0x00, amount) */\n      mstore\n        /* \"https://github.com/Vectorized/solady/blob/e4a14a5b365b353352f7c38e699a2bc9363d6576/src/tokens/ERC20.sol\":7964:7968  0x2c */\n      0x2c\n        /* \"https://github.com/Vectorized/solady/blob/e4a14a5b365b353352f7c38e699a2bc9363d6576/src/tokens/ERC20.sol\":7958:7969  mload(0x2c) */\n      mload\n        /* \"https://github.com/Vectorized/solady/blob/e4a14a5b365b353352f7c38e699a2bc9363d6576/src/tokens/ERC20.sol\":7954:7956  96 */\n      0x60\n        /* \"https://github.com/Vectorized/solady/blob/e4a14a5b365b353352f7c38e699a2bc9363d6576/src/tokens/ERC20.sol\":7950:7970  shr(96, mload(0x2c)) */\n      shr\n        /* \"https://github.com/Vectorized/solady/blob/e4a14a5b365b353352f7c38e699a2bc9363d6576/src/tokens/ERC20.sol\":7940:7948  caller() */\n      caller\n        /* \"https://github.com/Vectorized/solady/blob/e4a14a5b365b353352f7c38e699a2bc9363d6576/src/tokens/ERC20.sol\":7913:7938  _APPROVAL_EVENT_SIGNATURE */\n      0x8c5be1e5ebec7d5bd14f71427d1e84f3dd0314c0f7b2291e5b200ac8c7c3b925\n        /* \"https://github.com/Vectorized/solady/blob/e4a14a5b365b353352f7c38e699a2bc9363d6576/src/tokens/ERC20.sol\":7907:7911  0x20 */\n      0x20\n        /* \"https://github.com/Vectorized/solady/blob/e4a14a5b365b353352f7c38e699a2bc9363d6576/src/tokens/ERC20.sol\":7901:7905  0x00 */\n      0x00\n        /* \"https://github.com/Vectorized/solady/blob/e4a14a5b365b353352f7c38e699a2bc9363d6576/src/tokens/ERC20.sol\":7896:7971  log3(0x00, 0x20, _APPROVAL_EVENT_SIGNATURE, caller(), shr(96, mload(0x2c))) */\n      log3\n        /* \"https://github.com/Vectorized/solady/blob/e4a14a5b365b353352f7c38e699a2bc9363d6576/src/tokens/ERC20.sol\":7997:8001  true */\n      0x01\n        /* \"https://github.com/Vectorized/solady/blob/e4a14a5b365b353352f7c38e699a2bc9363d6576/src/tokens/ERC20.sol\":7990:8001  return true */\n      swap1\n      pop\n        /* \"https://github.com/Vectorized/solady/blob/e4a14a5b365b353352f7c38e699a2bc9363d6576/src/tokens/ERC20.sol\":7435:8008  function approve(address spender, uint256 amount) public virtual returns (bool) {... */\n      swap3\n      swap2\n      pop\n      pop\n      jump\t// out\n        /* \"contracts/Pool.sol\":662:700  uint constant public PROTOCOL_FEE  = 5 */\n    tag_38:\n        /* \"contracts/Pool.sol\":699:700  5 */\n      0x05\n        /* \"contracts/Pool.sol\":662:700  uint constant public PROTOCOL_FEE  = 5 */\n      dup2\n      jump\t// out\n        /* \"https://github.com/Vectorized/solady/blob/e4a14a5b365b353352f7c38e699a2bc9363d6576/src/tokens/ERC20.sol\":6287:6482  function totalSupply() public view virtual returns (uint256 result) {... */\n    tag_42:\n        /* \"https://github.com/Vectorized/solady/blob/e4a14a5b365b353352f7c38e699a2bc9363d6576/src/tokens/ERC20.sol\":6339:6353  uint256 result */\n      0x00\n        /* \"https://github.com/Vectorized/solady/blob/e4a14a5b365b353352f7c38e699a2bc9363d6576/src/tokens/ERC20.sol\":6447:6465  _TOTAL_SUPPLY_SLOT */\n      0x05345cdf77eb68f44c\n        /* \"https://github.com/Vectorized/solady/blob/e4a14a5b365b353352f7c38e699a2bc9363d6576/src/tokens/ERC20.sol\":6441:6466  sload(_TOTAL_SUPPLY_SLOT) */\n      sload\n        /* \"https://github.com/Vectorized/solady/blob/e4a14a5b365b353352f7c38e699a2bc9363d6576/src/tokens/ERC20.sol\":6431:6466  result := sload(_TOTAL_SUPPLY_SLOT) */\n      swap1\n      pop\n        /* \"https://github.com/Vectorized/solady/blob/e4a14a5b365b353352f7c38e699a2bc9363d6576/src/tokens/ERC20.sol\":6287:6482  function totalSupply() public view virtual returns (uint256 result) {... */\n      swap1\n      jump\t// out\n        /* \"https://github.com/Vectorized/solady/blob/e4a14a5b365b353352f7c38e699a2bc9363d6576/src/tokens/ERC20.sol\":9969:12160  function transferFrom(address from, address to, uint256 amount) public virtual returns (bool) {... */\n    tag_47:\n        /* \"https://github.com/Vectorized/solady/blob/e4a14a5b365b353352f7c38e699a2bc9363d6576/src/tokens/ERC20.sol\":10057:10061  bool */\n      0x00\n        /* \"https://github.com/Vectorized/solady/blob/e4a14a5b365b353352f7c38e699a2bc9363d6576/src/tokens/ERC20.sol\":10073:10111  _beforeTokenTransfer(from, to, amount) */\n      tag_121\n        /* \"https://github.com/Vectorized/solady/blob/e4a14a5b365b353352f7c38e699a2bc9363d6576/src/tokens/ERC20.sol\":10094:10098  from */\n      dup5\n        /* \"https://github.com/Vectorized/solady/blob/e4a14a5b365b353352f7c38e699a2bc9363d6576/src/tokens/ERC20.sol\":10100:10102  to */\n      dup5\n        /* \"https://github.com/Vectorized/solady/blob/e4a14a5b365b353352f7c38e699a2bc9363d6576/src/tokens/ERC20.sol\":10104:10110  amount */\n      dup5\n        /* \"https://github.com/Vectorized/solady/blob/e4a14a5b365b353352f7c38e699a2bc9363d6576/src/tokens/ERC20.sol\":10073:10093  _beforeTokenTransfer */\n      tag_122\n        /* \"https://github.com/Vectorized/solady/blob/e4a14a5b365b353352f7c38e699a2bc9363d6576/src/tokens/ERC20.sol\":10073:10111  _beforeTokenTransfer(from, to, amount) */\n      jump\t// in\n    tag_121:\n        /* \"https://github.com/Vectorized/solady/blob/e4a14a5b365b353352f7c38e699a2bc9363d6576/src/tokens/ERC20.sol\":10208:10212  from */\n      dup4\n        /* \"https://github.com/Vectorized/solady/blob/e4a14a5b365b353352f7c38e699a2bc9363d6576/src/tokens/ERC20.sol\":10204:10206  96 */\n      0x60\n        /* \"https://github.com/Vectorized/solady/blob/e4a14a5b365b353352f7c38e699a2bc9363d6576/src/tokens/ERC20.sol\":10200:10213  shl(96, from) */\n      shl\n        /* \"https://github.com/Vectorized/solady/blob/e4a14a5b365b353352f7c38e699a2bc9363d6576/src/tokens/ERC20.sol\":10301:10309  caller() */\n      caller\n        /* \"https://github.com/Vectorized/solady/blob/e4a14a5b365b353352f7c38e699a2bc9363d6576/src/tokens/ERC20.sol\":10295:10299  0x20 */\n      0x20\n        /* \"https://github.com/Vectorized/solady/blob/e4a14a5b365b353352f7c38e699a2bc9363d6576/src/tokens/ERC20.sol\":10288:10310  mstore(0x20, caller()) */\n      mstore\n        /* \"https://github.com/Vectorized/solady/blob/e4a14a5b365b353352f7c38e699a2bc9363d6576/src/tokens/ERC20.sol\":10346:10366  _ALLOWANCE_SLOT_SEED */\n      0x7f5e9f20\n        /* \"https://github.com/Vectorized/solady/blob/e4a14a5b365b353352f7c38e699a2bc9363d6576/src/tokens/ERC20.sol\":10339:10344  from_ */\n      dup2\n        /* \"https://github.com/Vectorized/solady/blob/e4a14a5b365b353352f7c38e699a2bc9363d6576/src/tokens/ERC20.sol\":10336:10367  or(from_, _ALLOWANCE_SLOT_SEED) */\n      or\n        /* \"https://github.com/Vectorized/solady/blob/e4a14a5b365b353352f7c38e699a2bc9363d6576/src/tokens/ERC20.sol\":10330:10334  0x0c */\n      0x0c\n        /* \"https://github.com/Vectorized/solady/blob/e4a14a5b365b353352f7c38e699a2bc9363d6576/src/tokens/ERC20.sol\":10323:10368  mstore(0x0c, or(from_, _ALLOWANCE_SLOT_SEED)) */\n      mstore\n        /* \"https://github.com/Vectorized/solady/blob/e4a14a5b365b353352f7c38e699a2bc9363d6576/src/tokens/ERC20.sol\":10418:10422  0x34 */\n      0x34\n        /* \"https://github.com/Vectorized/solady/blob/e4a14a5b365b353352f7c38e699a2bc9363d6576/src/tokens/ERC20.sol\":10412:10416  0x0c */\n      0x0c\n        /* \"https://github.com/Vectorized/solady/blob/e4a14a5b365b353352f7c38e699a2bc9363d6576/src/tokens/ERC20.sol\":10402:10423  keccak256(0x0c, 0x34) */\n      keccak256\n        /* \"https://github.com/Vectorized/solady/blob/e4a14a5b365b353352f7c38e699a2bc9363d6576/src/tokens/ERC20.sol\":10460:10473  allowanceSlot */\n      dup1\n        /* \"https://github.com/Vectorized/solady/blob/e4a14a5b365b353352f7c38e699a2bc9363d6576/src/tokens/ERC20.sol\":10454:10474  sload(allowanceSlot) */\n      sload\n        /* \"https://github.com/Vectorized/solady/blob/e4a14a5b365b353352f7c38e699a2bc9363d6576/src/tokens/ERC20.sol\":10572:10573  1 */\n      0x01\n        /* \"https://github.com/Vectorized/solady/blob/e4a14a5b365b353352f7c38e699a2bc9363d6576/src/tokens/ERC20.sol\":10560:10570  allowance_ */\n      dup2\n        /* \"https://github.com/Vectorized/solady/blob/e4a14a5b365b353352f7c38e699a2bc9363d6576/src/tokens/ERC20.sol\":10556:10574  add(allowance_, 1) */\n      add\n        /* \"https://github.com/Vectorized/solady/blob/e4a14a5b365b353352f7c38e699a2bc9363d6576/src/tokens/ERC20.sol\":10553:10971  if add(allowance_, 1) {... */\n      iszero\n      tag_123\n      jumpi\n        /* \"https://github.com/Vectorized/solady/blob/e4a14a5b365b353352f7c38e699a2bc9363d6576/src/tokens/ERC20.sol\":10688:10698  allowance_ */\n      dup1\n        /* \"https://github.com/Vectorized/solady/blob/e4a14a5b365b353352f7c38e699a2bc9363d6576/src/tokens/ERC20.sol\":10680:10686  amount */\n      dup6\n        /* \"https://github.com/Vectorized/solady/blob/e4a14a5b365b353352f7c38e699a2bc9363d6576/src/tokens/ERC20.sol\":10677:10699  gt(amount, allowance_) */\n      gt\n        /* \"https://github.com/Vectorized/solady/blob/e4a14a5b365b353352f7c38e699a2bc9363d6576/src/tokens/ERC20.sol\":10674:10833  if gt(amount, allowance_) {... */\n      iszero\n      tag_124\n      jumpi\n        /* \"https://github.com/Vectorized/solady/blob/e4a14a5b365b353352f7c38e699a2bc9363d6576/src/tokens/ERC20.sol\":10735:10745  0x13be252b */\n      0x13be252b\n        /* \"https://github.com/Vectorized/solady/blob/e4a14a5b365b353352f7c38e699a2bc9363d6576/src/tokens/ERC20.sol\":10729:10733  0x00 */\n      0x00\n        /* \"https://github.com/Vectorized/solady/blob/e4a14a5b365b353352f7c38e699a2bc9363d6576/src/tokens/ERC20.sol\":10722:10746  mstore(0x00, 0x13be252b) */\n      mstore\n        /* \"https://github.com/Vectorized/solady/blob/e4a14a5b365b353352f7c38e699a2bc9363d6576/src/tokens/ERC20.sol\":10810:10814  0x04 */\n      0x04\n        /* \"https://github.com/Vectorized/solady/blob/e4a14a5b365b353352f7c38e699a2bc9363d6576/src/tokens/ERC20.sol\":10804:10808  0x1c */\n      0x1c\n        /* \"https://github.com/Vectorized/solady/blob/e4a14a5b365b353352f7c38e699a2bc9363d6576/src/tokens/ERC20.sol\":10797:10815  revert(0x1c, 0x04) */\n      revert\n        /* \"https://github.com/Vectorized/solady/blob/e4a14a5b365b353352f7c38e699a2bc9363d6576/src/tokens/ERC20.sol\":10674:10833  if gt(amount, allowance_) {... */\n    tag_124:\n        /* \"https://github.com/Vectorized/solady/blob/e4a14a5b365b353352f7c38e699a2bc9363d6576/src/tokens/ERC20.sol\":10949:10955  amount */\n      dup5\n        /* \"https://github.com/Vectorized/solady/blob/e4a14a5b365b353352f7c38e699a2bc9363d6576/src/tokens/ERC20.sol\":10937:10947  allowance_ */\n      dup2\n        /* \"https://github.com/Vectorized/solady/blob/e4a14a5b365b353352f7c38e699a2bc9363d6576/src/tokens/ERC20.sol\":10933:10956  sub(allowance_, amount) */\n      sub\n        /* \"https://github.com/Vectorized/solady/blob/e4a14a5b365b353352f7c38e699a2bc9363d6576/src/tokens/ERC20.sol\":10918:10931  allowanceSlot */\n      dup3\n        /* \"https://github.com/Vectorized/solady/blob/e4a14a5b365b353352f7c38e699a2bc9363d6576/src/tokens/ERC20.sol\":10911:10957  sstore(allowanceSlot, sub(allowance_, amount)) */\n      sstore\n        /* \"https://github.com/Vectorized/solady/blob/e4a14a5b365b353352f7c38e699a2bc9363d6576/src/tokens/ERC20.sol\":10553:10971  if add(allowance_, 1) {... */\n    tag_123:\n        /* \"https://github.com/Vectorized/solady/blob/e4a14a5b365b353352f7c38e699a2bc9363d6576/src/tokens/ERC20.sol\":11067:11085  _BALANCE_SLOT_SEED */\n      0x87a211a2\n        /* \"https://github.com/Vectorized/solady/blob/e4a14a5b365b353352f7c38e699a2bc9363d6576/src/tokens/ERC20.sol\":11060:11065  from_ */\n      dup4\n        /* \"https://github.com/Vectorized/solady/blob/e4a14a5b365b353352f7c38e699a2bc9363d6576/src/tokens/ERC20.sol\":11057:11086  or(from_, _BALANCE_SLOT_SEED) */\n      or\n        /* \"https://github.com/Vectorized/solady/blob/e4a14a5b365b353352f7c38e699a2bc9363d6576/src/tokens/ERC20.sol\":11051:11055  0x0c */\n      0x0c\n        /* \"https://github.com/Vectorized/solady/blob/e4a14a5b365b353352f7c38e699a2bc9363d6576/src/tokens/ERC20.sol\":11044:11087  mstore(0x0c, or(from_, _BALANCE_SLOT_SEED)) */\n      mstore\n        /* \"https://github.com/Vectorized/solady/blob/e4a14a5b365b353352f7c38e699a2bc9363d6576/src/tokens/ERC20.sol\":11139:11143  0x20 */\n      0x20\n        /* \"https://github.com/Vectorized/solady/blob/e4a14a5b365b353352f7c38e699a2bc9363d6576/src/tokens/ERC20.sol\":11133:11137  0x0c */\n      0x0c\n        /* \"https://github.com/Vectorized/solady/blob/e4a14a5b365b353352f7c38e699a2bc9363d6576/src/tokens/ERC20.sol\":11123:11144  keccak256(0x0c, 0x20) */\n      keccak256\n        /* \"https://github.com/Vectorized/solady/blob/e4a14a5b365b353352f7c38e699a2bc9363d6576/src/tokens/ERC20.sol\":11182:11197  fromBalanceSlot */\n      dup1\n        /* \"https://github.com/Vectorized/solady/blob/e4a14a5b365b353352f7c38e699a2bc9363d6576/src/tokens/ERC20.sol\":11176:11198  sload(fromBalanceSlot) */\n      sload\n        /* \"https://github.com/Vectorized/solady/blob/e4a14a5b365b353352f7c38e699a2bc9363d6576/src/tokens/ERC20.sol\":11272:11283  fromBalance */\n      dup1\n        /* \"https://github.com/Vectorized/solady/blob/e4a14a5b365b353352f7c38e699a2bc9363d6576/src/tokens/ERC20.sol\":11264:11270  amount */\n      dup8\n        /* \"https://github.com/Vectorized/solady/blob/e4a14a5b365b353352f7c38e699a2bc9363d6576/src/tokens/ERC20.sol\":11261:11284  gt(amount, fromBalance) */\n      gt\n        /* \"https://github.com/Vectorized/solady/blob/e4a14a5b365b353352f7c38e699a2bc9363d6576/src/tokens/ERC20.sol\":11258:11404  if gt(amount, fromBalance) {... */\n      iszero\n      tag_125\n      jumpi\n        /* \"https://github.com/Vectorized/solady/blob/e4a14a5b365b353352f7c38e699a2bc9363d6576/src/tokens/ERC20.sol\":11316:11326  0xf4d678b8 */\n      0xf4d678b8\n        /* \"https://github.com/Vectorized/solady/blob/e4a14a5b365b353352f7c38e699a2bc9363d6576/src/tokens/ERC20.sol\":11310:11314  0x00 */\n      0x00\n        /* \"https://github.com/Vectorized/solady/blob/e4a14a5b365b353352f7c38e699a2bc9363d6576/src/tokens/ERC20.sol\":11303:11327  mstore(0x00, 0xf4d678b8) */\n      mstore\n        /* \"https://github.com/Vectorized/solady/blob/e4a14a5b365b353352f7c38e699a2bc9363d6576/src/tokens/ERC20.sol\":11385:11389  0x04 */\n      0x04\n        /* \"https://github.com/Vectorized/solady/blob/e4a14a5b365b353352f7c38e699a2bc9363d6576/src/tokens/ERC20.sol\":11379:11383  0x1c */\n      0x1c\n        /* \"https://github.com/Vectorized/solady/blob/e4a14a5b365b353352f7c38e699a2bc9363d6576/src/tokens/ERC20.sol\":11372:11390  revert(0x1c, 0x04) */\n      revert\n        /* \"https://github.com/Vectorized/solady/blob/e4a14a5b365b353352f7c38e699a2bc9363d6576/src/tokens/ERC20.sol\":11258:11404  if gt(amount, fromBalance) {... */\n    tag_125:\n        /* \"https://github.com/Vectorized/solady/blob/e4a14a5b365b353352f7c38e699a2bc9363d6576/src/tokens/ERC20.sol\":11513:11519  amount */\n      dup7\n        /* \"https://github.com/Vectorized/solady/blob/e4a14a5b365b353352f7c38e699a2bc9363d6576/src/tokens/ERC20.sol\":11500:11511  fromBalance */\n      dup2\n        /* \"https://github.com/Vectorized/solady/blob/e4a14a5b365b353352f7c38e699a2bc9363d6576/src/tokens/ERC20.sol\":11496:11520  sub(fromBalance, amount) */\n      sub\n        /* \"https://github.com/Vectorized/solady/blob/e4a14a5b365b353352f7c38e699a2bc9363d6576/src/tokens/ERC20.sol\":11479:11494  fromBalanceSlot */\n      dup3\n        /* \"https://github.com/Vectorized/solady/blob/e4a14a5b365b353352f7c38e699a2bc9363d6576/src/tokens/ERC20.sol\":11472:11521  sstore(fromBalanceSlot, sub(fromBalance, amount)) */\n      sstore\n        /* \"https://github.com/Vectorized/solady/blob/e4a14a5b365b353352f7c38e699a2bc9363d6576/src/tokens/ERC20.sol\":11596:11598  to */\n      dup8\n        /* \"https://github.com/Vectorized/solady/blob/e4a14a5b365b353352f7c38e699a2bc9363d6576/src/tokens/ERC20.sol\":11590:11594  0x00 */\n      0x00\n        /* \"https://github.com/Vectorized/solady/blob/e4a14a5b365b353352f7c38e699a2bc9363d6576/src/tokens/ERC20.sol\":11583:11599  mstore(0x00, to) */\n      mstore\n        /* \"https://github.com/Vectorized/solady/blob/e4a14a5b365b353352f7c38e699a2bc9363d6576/src/tokens/ERC20.sol\":11649:11653  0x20 */\n      0x20\n        /* \"https://github.com/Vectorized/solady/blob/e4a14a5b365b353352f7c38e699a2bc9363d6576/src/tokens/ERC20.sol\":11643:11647  0x0c */\n      0x0c\n        /* \"https://github.com/Vectorized/solady/blob/e4a14a5b365b353352f7c38e699a2bc9363d6576/src/tokens/ERC20.sol\":11633:11654  keccak256(0x0c, 0x20) */\n      keccak256\n        /* \"https://github.com/Vectorized/solady/blob/e4a14a5b365b353352f7c38e699a2bc9363d6576/src/tokens/ERC20.sol\":11899:11905  amount */\n      dup8\n        /* \"https://github.com/Vectorized/solady/blob/e4a14a5b365b353352f7c38e699a2bc9363d6576/src/tokens/ERC20.sol\":11883:11896  toBalanceSlot */\n      dup2\n        /* \"https://github.com/Vectorized/solady/blob/e4a14a5b365b353352f7c38e699a2bc9363d6576/src/tokens/ERC20.sol\":11877:11897  sload(toBalanceSlot) */\n      sload\n        /* \"https://github.com/Vectorized/solady/blob/e4a14a5b365b353352f7c38e699a2bc9363d6576/src/tokens/ERC20.sol\":11873:11906  add(sload(toBalanceSlot), amount) */\n      add\n        /* \"https://github.com/Vectorized/solady/blob/e4a14a5b365b353352f7c38e699a2bc9363d6576/src/tokens/ERC20.sol\":11858:11871  toBalanceSlot */\n      dup2\n        /* \"https://github.com/Vectorized/solady/blob/e4a14a5b365b353352f7c38e699a2bc9363d6576/src/tokens/ERC20.sol\":11851:11907  sstore(toBalanceSlot, add(sload(toBalanceSlot), amount)) */\n      sstore\n        /* \"https://github.com/Vectorized/solady/blob/e4a14a5b365b353352f7c38e699a2bc9363d6576/src/tokens/ERC20.sol\":11975:11981  amount */\n      dup8\n        /* \"https://github.com/Vectorized/solady/blob/e4a14a5b365b353352f7c38e699a2bc9363d6576/src/tokens/ERC20.sol\":11969:11973  0x20 */\n      0x20\n        /* \"https://github.com/Vectorized/solady/blob/e4a14a5b365b353352f7c38e699a2bc9363d6576/src/tokens/ERC20.sol\":11962:11982  mstore(0x20, amount) */\n      mstore\n        /* \"https://github.com/Vectorized/solady/blob/e4a14a5b365b353352f7c38e699a2bc9363d6576/src/tokens/ERC20.sol\":12069:12073  0x0c */\n      0x0c\n        /* \"https://github.com/Vectorized/solady/blob/e4a14a5b365b353352f7c38e699a2bc9363d6576/src/tokens/ERC20.sol\":12063:12074  mload(0x0c) */\n      mload\n        /* \"https://github.com/Vectorized/solady/blob/e4a14a5b365b353352f7c38e699a2bc9363d6576/src/tokens/ERC20.sol\":12059:12061  96 */\n      0x60\n        /* \"https://github.com/Vectorized/solady/blob/e4a14a5b365b353352f7c38e699a2bc9363d6576/src/tokens/ERC20.sol\":12055:12075  shr(96, mload(0x0c)) */\n      shr\n        /* \"https://github.com/Vectorized/solady/blob/e4a14a5b365b353352f7c38e699a2bc9363d6576/src/tokens/ERC20.sol\":12047:12052  from_ */\n      dup7\n        /* \"https://github.com/Vectorized/solady/blob/e4a14a5b365b353352f7c38e699a2bc9363d6576/src/tokens/ERC20.sol\":12043:12045  96 */\n      0x60\n        /* \"https://github.com/Vectorized/solady/blob/e4a14a5b365b353352f7c38e699a2bc9363d6576/src/tokens/ERC20.sol\":12039:12053  shr(96, from_) */\n      shr\n        /* \"https://github.com/Vectorized/solady/blob/e4a14a5b365b353352f7c38e699a2bc9363d6576/src/tokens/ERC20.sol\":12012:12037  _TRANSFER_EVENT_SIGNATURE */\n      0xddf252ad1be2c89b69c2b068fc378daa952ba7f163c4a11628f55a4df523b3ef\n        /* \"https://github.com/Vectorized/solady/blob/e4a14a5b365b353352f7c38e699a2bc9363d6576/src/tokens/ERC20.sol\":12006:12010  0x20 */\n      0x20\n        /* \"https://github.com/Vectorized/solady/blob/e4a14a5b365b353352f7c38e699a2bc9363d6576/src/tokens/ERC20.sol\":12000:12004  0x20 */\n      dup1\n        /* \"https://github.com/Vectorized/solady/blob/e4a14a5b365b353352f7c38e699a2bc9363d6576/src/tokens/ERC20.sol\":11995:12076  log3(0x20, 0x20, _TRANSFER_EVENT_SIGNATURE, shr(96, from_), shr(96, mload(0x0c))) */\n      log3\n        /* \"https://github.com/Vectorized/solady/blob/e4a14a5b365b353352f7c38e699a2bc9363d6576/src/tokens/ERC20.sol\":10173:12086  {... */\n      pop\n      pop\n      pop\n      pop\n      pop\n      pop\n        /* \"https://github.com/Vectorized/solady/blob/e4a14a5b365b353352f7c38e699a2bc9363d6576/src/tokens/ERC20.sol\":12095:12132  _afterTokenTransfer(from, to, amount) */\n      tag_126\n        /* \"https://github.com/Vectorized/solady/blob/e4a14a5b365b353352f7c38e699a2bc9363d6576/src/tokens/ERC20.sol\":12115:12119  from */\n      dup5\n        /* \"https://github.com/Vectorized/solady/blob/e4a14a5b365b353352f7c38e699a2bc9363d6576/src/tokens/ERC20.sol\":12121:12123  to */\n      dup5\n        /* \"https://github.com/Vectorized/solady/blob/e4a14a5b365b353352f7c38e699a2bc9363d6576/src/tokens/ERC20.sol\":12125:12131  amount */\n      dup5\n        /* \"https://github.com/Vectorized/solady/blob/e4a14a5b365b353352f7c38e699a2bc9363d6576/src/tokens/ERC20.sol\":12095:12114  _afterTokenTransfer */\n      tag_127\n        /* \"https://github.com/Vectorized/solady/blob/e4a14a5b365b353352f7c38e699a2bc9363d6576/src/tokens/ERC20.sol\":12095:12132  _afterTokenTransfer(from, to, amount) */\n      jump\t// in\n    tag_126:\n        /* \"https://github.com/Vectorized/solady/blob/e4a14a5b365b353352f7c38e699a2bc9363d6576/src/tokens/ERC20.sol\":12149:12153  true */\n      0x01\n        /* \"https://github.com/Vectorized/solady/blob/e4a14a5b365b353352f7c38e699a2bc9363d6576/src/tokens/ERC20.sol\":12142:12153  return true */\n      swap1\n      pop\n        /* \"https://github.com/Vectorized/solady/blob/e4a14a5b365b353352f7c38e699a2bc9363d6576/src/tokens/ERC20.sol\":9969:12160  function transferFrom(address from, address to, uint256 amount) public virtual returns (bool) {... */\n      swap4\n      swap3\n      pop\n      pop\n      pop\n      jump\t// out\n        /* \"contracts/Pool.sol\":3841:4752  function withdraw(uint256 lpAmount) external returns (uint256 amount0, uint256 amount1){... */\n    tag_52:\n        /* \"contracts/Pool.sol\":3895:3910  uint256 amount0 */\n      0x00\n        /* \"contracts/Pool.sol\":3912:3927  uint256 amount1 */\n      dup1\n        /* \"contracts/Pool.sol\":3966:3974  lpAmount */\n      dup3\n        /* \"contracts/Pool.sol\":3942:3963  balanceOf(msg.sender) */\n      tag_129\n        /* \"contracts/Pool.sol\":3952:3962  msg.sender */\n      caller\n        /* \"contracts/Pool.sol\":3942:3951  balanceOf */\n      tag_73\n        /* \"contracts/Pool.sol\":3942:3963  balanceOf(msg.sender) */\n      jump\t// in\n    tag_129:\n        /* \"contracts/Pool.sol\":3942:3974  balanceOf(msg.sender) < lpAmount */\n      lt\n        /* \"contracts/Pool.sol\":3939:4005  if(balanceOf(msg.sender) < lpAmount) revert INSUFFICIENT_BALANCE() */\n      iszero\n      tag_130\n      jumpi\n        /* \"contracts/Pool.sol\":3983:4005  INSUFFICIENT_BALANCE() */\n      mload(0x40)\n      0x50b1f35600000000000000000000000000000000000000000000000000000000\n      dup2\n      mstore\n      0x04\n      add\n      mload(0x40)\n      dup1\n      swap2\n      sub\n      swap1\n      revert\n        /* \"contracts/Pool.sol\":3939:4005  if(balanceOf(msg.sender) < lpAmount) revert INSUFFICIENT_BALANCE() */\n    tag_130:\n        /* \"contracts/Pool.sol\":4017:4031  uint _reserve0 */\n      0x00\n        /* \"contracts/Pool.sol\":4033:4047  uint _reserve1 */\n      dup1\n        /* \"contracts/Pool.sol\":4052:4062  s_reserve0 */\n      sload(0x05)\n        /* \"contracts/Pool.sol\":4064:4074  s_reserve1 */\n      sload(0x06)\n        /* \"contracts/Pool.sol\":4016:4075  (uint _reserve0, uint _reserve1) = (s_reserve0, s_reserve1) */\n      swap2\n      pop\n      swap2\n      pop\n        /* \"contracts/Pool.sol\":4086:4103  uint _totalSupply */\n      0x00\n        /* \"contracts/Pool.sol\":4106:4119  totalSupply() */\n      tag_131\n        /* \"contracts/Pool.sol\":4106:4117  totalSupply */\n      tag_42\n        /* \"contracts/Pool.sol\":4106:4119  totalSupply() */\n      jump\t// in\n    tag_131:\n        /* \"contracts/Pool.sol\":4086:4119  uint _totalSupply = totalSupply() */\n      swap1\n      pop\n        /* \"contracts/Pool.sol\":4164:4176  _totalSupply */\n      dup1\n        /* \"contracts/Pool.sol\":4152:4161  _reserve0 */\n      dup4\n        /* \"contracts/Pool.sol\":4141:4149  lpAmount */\n      dup8\n        /* \"contracts/Pool.sol\":4141:4161  lpAmount * _reserve0 */\n      tag_132\n      swap2\n      swap1\n      tag_133\n      jump\t// in\n    tag_132:\n        /* \"contracts/Pool.sol\":4141:4176  lpAmount * _reserve0 / _totalSupply */\n      tag_134\n      swap2\n      swap1\n      tag_135\n      jump\t// in\n    tag_134:\n        /* \"contracts/Pool.sol\":4131:4176  amount0 = lpAmount * _reserve0 / _totalSupply */\n      swap5\n      pop\n        /* \"contracts/Pool.sol\":4220:4232  _totalSupply */\n      dup1\n        /* \"contracts/Pool.sol\":4208:4217  _reserve1 */\n      dup3\n        /* \"contracts/Pool.sol\":4197:4205  lpAmount */\n      dup8\n        /* \"contracts/Pool.sol\":4197:4217  lpAmount * _reserve1 */\n      tag_136\n      swap2\n      swap1\n      tag_133\n      jump\t// in\n    tag_136:\n        /* \"contracts/Pool.sol\":4197:4232  lpAmount * _reserve1 / _totalSupply */\n      tag_137\n      swap2\n      swap1\n      tag_135\n      jump\t// in\n    tag_137:\n        /* \"contracts/Pool.sol\":4187:4232  amount1 = lpAmount * _reserve1 / _totalSupply */\n      swap4\n      pop\n        /* \"contracts/Pool.sol\":4257:4258  0 */\n      0x00\n        /* \"contracts/Pool.sol\":4246:4253  amount0 */\n      dup6\n        /* \"contracts/Pool.sol\":4246:4258  amount0 == 0 */\n      eq\n        /* \"contracts/Pool.sol\":4246:4274  amount0 == 0 || amount1 == 0 */\n      dup1\n      tag_138\n      jumpi\n      pop\n        /* \"contracts/Pool.sol\":4273:4274  0 */\n      0x00\n        /* \"contracts/Pool.sol\":4262:4269  amount1 */\n      dup5\n        /* \"contracts/Pool.sol\":4262:4274  amount1 == 0 */\n      eq\n        /* \"contracts/Pool.sol\":4246:4274  amount0 == 0 || amount1 == 0 */\n    tag_138:\n        /* \"contracts/Pool.sol\":4243:4304  if(amount0 == 0 || amount1 == 0) revert INSUFFICIENT_AMOUNT() */\n      iszero\n      tag_139\n      jumpi\n        /* \"contracts/Pool.sol\":4283:4304  INSUFFICIENT_AMOUNT() */\n      mload(0x40)\n      0x2cd294cf00000000000000000000000000000000000000000000000000000000\n      dup2\n      mstore\n      0x04\n      add\n      mload(0x40)\n      dup1\n      swap2\n      sub\n      swap1\n      revert\n        /* \"contracts/Pool.sol\":4243:4304  if(amount0 == 0 || amount1 == 0) revert INSUFFICIENT_AMOUNT() */\n    tag_139:\n        /* \"contracts/Pool.sol\":4315:4344  mintFee(_reserve0, _reserve1) */\n      tag_140\n        /* \"contracts/Pool.sol\":4323:4332  _reserve0 */\n      dup4\n        /* \"contracts/Pool.sol\":4334:4343  _reserve1 */\n      dup4\n        /* \"contracts/Pool.sol\":4315:4322  mintFee */\n      tag_141\n        /* \"contracts/Pool.sol\":4315:4344  mintFee(_reserve0, _reserve1) */\n      jump\t// in\n    tag_140:\n        /* \"contracts/Pool.sol\":4355:4410  _transfer(s_token0, address(this), msg.sender, amount0) */\n      tag_142\n        /* \"contracts/Pool.sol\":4365:4373  s_token0 */\n      0x03\n      0x00\n      swap1\n      sload\n      swap1\n      0x0100\n      exp\n      swap1\n      div\n      0xffffffffffffffffffffffffffffffffffffffff\n      and\n        /* \"contracts/Pool.sol\":4383:4387  this */\n      address\n        /* \"contracts/Pool.sol\":4390:4400  msg.sender */\n      caller\n        /* \"contracts/Pool.sol\":4402:4409  amount0 */\n      dup9\n        /* \"contracts/Pool.sol\":4355:4364  _transfer */\n      tag_143\n        /* \"contracts/Pool.sol\":4355:4410  _transfer(s_token0, address(this), msg.sender, amount0) */\n      jump\t// in\n    tag_142:\n        /* \"contracts/Pool.sol\":4421:4476  _transfer(s_token1, address(this), msg.sender, amount1) */\n      tag_144\n        /* \"contracts/Pool.sol\":4431:4439  s_token1 */\n      0x04\n      0x00\n      swap1\n      sload\n      swap1\n      0x0100\n      exp\n      swap1\n      div\n      0xffffffffffffffffffffffffffffffffffffffff\n      and\n        /* \"contracts/Pool.sol\":4449:4453  this */\n      address\n        /* \"contracts/Pool.sol\":4456:4466  msg.sender */\n      caller\n        /* \"contracts/Pool.sol\":4468:4475  amount1 */\n      dup8\n        /* \"contracts/Pool.sol\":4421:4430  _transfer */\n      tag_143\n        /* \"contracts/Pool.sol\":4421:4476  _transfer(s_token1, address(this), msg.sender, amount1) */\n      jump\t// in\n    tag_144:\n        /* \"contracts/Pool.sol\":4487:4517  _burn(address(this), lpAmount) */\n      tag_145\n        /* \"contracts/Pool.sol\":4501:4505  this */\n      address\n        /* \"contracts/Pool.sol\":4508:4516  lpAmount */\n      dup8\n        /* \"contracts/Pool.sol\":4487:4492  _burn */\n      tag_146\n        /* \"contracts/Pool.sol\":4487:4517  _burn(address(this), lpAmount) */\n      jump\t// in\n    tag_145:\n        /* \"contracts/Pool.sol\":4542:4549  amount0 */\n      dup5\n        /* \"contracts/Pool.sol\":4528:4538  s_reserve0 */\n      0x05\n      0x00\n        /* \"contracts/Pool.sol\":4528:4549  s_reserve0 -= amount0 */\n      dup3\n      dup3\n      sload\n      tag_147\n      swap2\n      swap1\n      tag_148\n      jump\t// in\n    tag_147:\n      swap3\n      pop\n      pop\n      dup2\n      swap1\n      sstore\n      pop\n        /* \"contracts/Pool.sol\":4574:4581  amount1 */\n      dup4\n        /* \"contracts/Pool.sol\":4560:4570  s_reserve1 */\n      0x06\n      0x00\n        /* \"contracts/Pool.sol\":4560:4581  s_reserve1 -= amount1 */\n      dup3\n      dup3\n      sload\n      tag_149\n      swap2\n      swap1\n      tag_148\n      jump\t// in\n    tag_149:\n      swap3\n      pop\n      pop\n      dup2\n      swap1\n      sstore\n      pop\n        /* \"contracts/Pool.sol\":4613:4623  s_reserve1 */\n      sload(0x06)\n        /* \"contracts/Pool.sol\":4600:4610  s_reserve0 */\n      sload(0x05)\n        /* \"contracts/Pool.sol\":4600:4623  s_reserve0 * s_reserve1 */\n      tag_150\n      swap2\n      swap1\n      tag_133\n      jump\t// in\n    tag_150:\n        /* \"contracts/Pool.sol\":4592:4597  kLast */\n      0x02\n        /* \"contracts/Pool.sol\":4592:4623  kLast = s_reserve0 * s_reserve1 */\n      dup2\n      swap1\n      sstore\n      pop\n        /* \"contracts/Pool.sol\":4693:4744  Withdraw(address(this), lpAmount, amount0, amount1) */\n      0x02f25270a4d87bea75db541cdfe559334a275b4a233520ed6c0a2429667cca94\n        /* \"contracts/Pool.sol\":4710:4714  this */\n      address\n        /* \"contracts/Pool.sol\":4717:4725  lpAmount */\n      dup8\n        /* \"contracts/Pool.sol\":4727:4734  amount0 */\n      dup8\n        /* \"contracts/Pool.sol\":4736:4743  amount1 */\n      dup8\n        /* \"contracts/Pool.sol\":4693:4744  Withdraw(address(this), lpAmount, amount0, amount1) */\n      mload(0x40)\n      tag_151\n      swap5\n      swap4\n      swap3\n      swap2\n      swap1\n      tag_152\n      jump\t// in\n    tag_151:\n      mload(0x40)\n      dup1\n      swap2\n      sub\n      swap1\n      log1\n        /* \"contracts/Pool.sol\":3928:4752  {... */\n      pop\n      pop\n      pop\n        /* \"contracts/Pool.sol\":3841:4752  function withdraw(uint256 lpAmount) external returns (uint256 amount0, uint256 amount1){... */\n      swap2\n      pop\n      swap2\n      jump\t// out\n        /* \"https://github.com/Vectorized/solady/blob/e4a14a5b365b353352f7c38e699a2bc9363d6576/src/tokens/ERC20.sol\":5860:5942  function decimals() public view virtual returns (uint8) {... */\n    tag_56:\n        /* \"https://github.com/Vectorized/solady/blob/e4a14a5b365b353352f7c38e699a2bc9363d6576/src/tokens/ERC20.sol\":5909:5914  uint8 */\n      0x00\n        /* \"https://github.com/Vectorized/solady/blob/e4a14a5b365b353352f7c38e699a2bc9363d6576/src/tokens/ERC20.sol\":5933:5935  18 */\n      0x12\n        /* \"https://github.com/Vectorized/solady/blob/e4a14a5b365b353352f7c38e699a2bc9363d6576/src/tokens/ERC20.sol\":5926:5935  return 18 */\n      swap1\n      pop\n        /* \"https://github.com/Vectorized/solady/blob/e4a14a5b365b353352f7c38e699a2bc9363d6576/src/tokens/ERC20.sol\":5860:5942  function decimals() public view virtual returns (uint8) {... */\n      swap1\n      jump\t// out\n        /* \"https://github.com/Vectorized/solady/blob/e4a14a5b365b353352f7c38e699a2bc9363d6576/src/tokens/ERC20.sol\":16620:17313  function DOMAIN_SEPARATOR() public view virtual returns (bytes32 result) {... */\n    tag_60:\n        /* \"https://github.com/Vectorized/solady/blob/e4a14a5b365b353352f7c38e699a2bc9363d6576/src/tokens/ERC20.sol\":16677:16691  bytes32 result */\n      0x00\n        /* \"https://github.com/Vectorized/solady/blob/e4a14a5b365b353352f7c38e699a2bc9363d6576/src/tokens/ERC20.sol\":16703:16719  bytes32 nameHash */\n      dup1\n        /* \"https://github.com/Vectorized/solady/blob/e4a14a5b365b353352f7c38e699a2bc9363d6576/src/tokens/ERC20.sol\":16722:16741  _constantNameHash() */\n      tag_155\n        /* \"https://github.com/Vectorized/solady/blob/e4a14a5b365b353352f7c38e699a2bc9363d6576/src/tokens/ERC20.sol\":16722:16739  _constantNameHash */\n      tag_156\n        /* \"https://github.com/Vectorized/solady/blob/e4a14a5b365b353352f7c38e699a2bc9363d6576/src/tokens/ERC20.sol\":16722:16741  _constantNameHash() */\n      jump\t// in\n    tag_155:\n        /* \"https://github.com/Vectorized/solady/blob/e4a14a5b365b353352f7c38e699a2bc9363d6576/src/tokens/ERC20.sol\":16703:16741  bytes32 nameHash = _constantNameHash() */\n      swap1\n      pop\n        /* \"https://github.com/Vectorized/solady/blob/e4a14a5b365b353352f7c38e699a2bc9363d6576/src/tokens/ERC20.sol\":16869:16870  0 */\n      0x00\n        /* \"https://github.com/Vectorized/solady/blob/e4a14a5b365b353352f7c38e699a2bc9363d6576/src/tokens/ERC20.sol\":16861:16871  bytes32(0) */\n      dup1\n      shl\n        /* \"https://github.com/Vectorized/solady/blob/e4a14a5b365b353352f7c38e699a2bc9363d6576/src/tokens/ERC20.sol\":16849:16857  nameHash */\n      dup2\n        /* \"https://github.com/Vectorized/solady/blob/e4a14a5b365b353352f7c38e699a2bc9363d6576/src/tokens/ERC20.sol\":16849:16871  nameHash == bytes32(0) */\n      sub\n        /* \"https://github.com/Vectorized/solady/blob/e4a14a5b365b353352f7c38e699a2bc9363d6576/src/tokens/ERC20.sol\":16845:16908  if (nameHash == bytes32(0)) nameHash = keccak256(bytes(name())) */\n      tag_157\n      jumpi\n        /* \"https://github.com/Vectorized/solady/blob/e4a14a5b365b353352f7c38e699a2bc9363d6576/src/tokens/ERC20.sol\":16900:16906  name() */\n      tag_158\n        /* \"https://github.com/Vectorized/solady/blob/e4a14a5b365b353352f7c38e699a2bc9363d6576/src/tokens/ERC20.sol\":16900:16904  name */\n      tag_28\n        /* \"https://github.com/Vectorized/solady/blob/e4a14a5b365b353352f7c38e699a2bc9363d6576/src/tokens/ERC20.sol\":16900:16906  name() */\n      jump\t// in\n    tag_158:\n        /* \"https://github.com/Vectorized/solady/blob/e4a14a5b365b353352f7c38e699a2bc9363d6576/src/tokens/ERC20.sol\":16884:16908  keccak256(bytes(name())) */\n      dup1\n      mload\n      swap1\n      0x20\n      add\n      keccak256\n        /* \"https://github.com/Vectorized/solady/blob/e4a14a5b365b353352f7c38e699a2bc9363d6576/src/tokens/ERC20.sol\":16873:16908  nameHash = keccak256(bytes(name())) */\n      swap1\n      pop\n        /* \"https://github.com/Vectorized/solady/blob/e4a14a5b365b353352f7c38e699a2bc9363d6576/src/tokens/ERC20.sol\":16845:16908  if (nameHash == bytes32(0)) nameHash = keccak256(bytes(name())) */\n    tag_157:\n        /* \"https://github.com/Vectorized/solady/blob/e4a14a5b365b353352f7c38e699a2bc9363d6576/src/tokens/ERC20.sol\":16999:17003  0x40 */\n      0x40\n        /* \"https://github.com/Vectorized/solady/blob/e4a14a5b365b353352f7c38e699a2bc9363d6576/src/tokens/ERC20.sol\":16993:17004  mload(0x40) */\n      mload\n        /* \"https://github.com/Vectorized/solady/blob/e4a14a5b365b353352f7c38e699a2bc9363d6576/src/tokens/ERC20.sol\":17060:17076  _DOMAIN_TYPEHASH */\n      0x8b73c3c69bb8fe3d512ecc4cf759cc79239f7b179b0ffacaa9a75d522b39400f\n        /* \"https://github.com/Vectorized/solady/blob/e4a14a5b365b353352f7c38e699a2bc9363d6576/src/tokens/ERC20.sol\":17057:17058  m */\n      dup2\n        /* \"https://github.com/Vectorized/solady/blob/e4a14a5b365b353352f7c38e699a2bc9363d6576/src/tokens/ERC20.sol\":17050:17077  mstore(m, _DOMAIN_TYPEHASH) */\n      mstore\n        /* \"https://github.com/Vectorized/solady/blob/e4a14a5b365b353352f7c38e699a2bc9363d6576/src/tokens/ERC20.sol\":17111:17119  nameHash */\n      dup2\n        /* \"https://github.com/Vectorized/solady/blob/e4a14a5b365b353352f7c38e699a2bc9363d6576/src/tokens/ERC20.sol\":17104:17108  0x20 */\n      0x20\n        /* \"https://github.com/Vectorized/solady/blob/e4a14a5b365b353352f7c38e699a2bc9363d6576/src/tokens/ERC20.sol\":17101:17102  m */\n      dup3\n        /* \"https://github.com/Vectorized/solady/blob/e4a14a5b365b353352f7c38e699a2bc9363d6576/src/tokens/ERC20.sol\":17097:17109  add(m, 0x20) */\n      add\n        /* \"https://github.com/Vectorized/solady/blob/e4a14a5b365b353352f7c38e699a2bc9363d6576/src/tokens/ERC20.sol\":17090:17120  mstore(add(m, 0x20), nameHash) */\n      mstore\n        /* \"https://github.com/Vectorized/solady/blob/e4a14a5b365b353352f7c38e699a2bc9363d6576/src/tokens/ERC20.sol\":17154:17167  _VERSION_HASH */\n      0xc89efdaa54c0f20c7adf612882df0950f5a951637e0307cdcb4c672f298b8bc6\n        /* \"https://github.com/Vectorized/solady/blob/e4a14a5b365b353352f7c38e699a2bc9363d6576/src/tokens/ERC20.sol\":17147:17151  0x40 */\n      0x40\n        /* \"https://github.com/Vectorized/solady/blob/e4a14a5b365b353352f7c38e699a2bc9363d6576/src/tokens/ERC20.sol\":17144:17145  m */\n      dup3\n        /* \"https://github.com/Vectorized/solady/blob/e4a14a5b365b353352f7c38e699a2bc9363d6576/src/tokens/ERC20.sol\":17140:17152  add(m, 0x40) */\n      add\n        /* \"https://github.com/Vectorized/solady/blob/e4a14a5b365b353352f7c38e699a2bc9363d6576/src/tokens/ERC20.sol\":17133:17168  mstore(add(m, 0x40), _VERSION_HASH) */\n      mstore\n        /* \"https://github.com/Vectorized/solady/blob/e4a14a5b365b353352f7c38e699a2bc9363d6576/src/tokens/ERC20.sol\":17202:17211  chainid() */\n      chainid\n        /* \"https://github.com/Vectorized/solady/blob/e4a14a5b365b353352f7c38e699a2bc9363d6576/src/tokens/ERC20.sol\":17195:17199  0x60 */\n      0x60\n        /* \"https://github.com/Vectorized/solady/blob/e4a14a5b365b353352f7c38e699a2bc9363d6576/src/tokens/ERC20.sol\":17192:17193  m */\n      dup3\n        /* \"https://github.com/Vectorized/solady/blob/e4a14a5b365b353352f7c38e699a2bc9363d6576/src/tokens/ERC20.sol\":17188:17200  add(m, 0x60) */\n      add\n        /* \"https://github.com/Vectorized/solady/blob/e4a14a5b365b353352f7c38e699a2bc9363d6576/src/tokens/ERC20.sol\":17181:17212  mstore(add(m, 0x60), chainid()) */\n      mstore\n        /* \"https://github.com/Vectorized/solady/blob/e4a14a5b365b353352f7c38e699a2bc9363d6576/src/tokens/ERC20.sol\":17246:17255  address() */\n      address\n        /* \"https://github.com/Vectorized/solady/blob/e4a14a5b365b353352f7c38e699a2bc9363d6576/src/tokens/ERC20.sol\":17239:17243  0x80 */\n      0x80\n        /* \"https://github.com/Vectorized/solady/blob/e4a14a5b365b353352f7c38e699a2bc9363d6576/src/tokens/ERC20.sol\":17236:17237  m */\n      dup3\n        /* \"https://github.com/Vectorized/solady/blob/e4a14a5b365b353352f7c38e699a2bc9363d6576/src/tokens/ERC20.sol\":17232:17244  add(m, 0x80) */\n      add\n        /* \"https://github.com/Vectorized/solady/blob/e4a14a5b365b353352f7c38e699a2bc9363d6576/src/tokens/ERC20.sol\":17225:17256  mstore(add(m, 0x80), address()) */\n      mstore\n        /* \"https://github.com/Vectorized/solady/blob/e4a14a5b365b353352f7c38e699a2bc9363d6576/src/tokens/ERC20.sol\":17292:17296  0xa0 */\n      0xa0\n        /* \"https://github.com/Vectorized/solady/blob/e4a14a5b365b353352f7c38e699a2bc9363d6576/src/tokens/ERC20.sol\":17289:17290  m */\n      dup2\n        /* \"https://github.com/Vectorized/solady/blob/e4a14a5b365b353352f7c38e699a2bc9363d6576/src/tokens/ERC20.sol\":17279:17297  keccak256(m, 0xa0) */\n      keccak256\n        /* \"https://github.com/Vectorized/solady/blob/e4a14a5b365b353352f7c38e699a2bc9363d6576/src/tokens/ERC20.sol\":17269:17297  result := keccak256(m, 0xa0) */\n      swap3\n      pop\n        /* \"https://github.com/Vectorized/solady/blob/e4a14a5b365b353352f7c38e699a2bc9363d6576/src/tokens/ERC20.sol\":16970:17307  {... */\n      pop\n      pop\n        /* \"https://github.com/Vectorized/solady/blob/e4a14a5b365b353352f7c38e699a2bc9363d6576/src/tokens/ERC20.sol\":16620:17313  function DOMAIN_SEPARATOR() public view virtual returns (bytes32 result) {... */\n      swap1\n      jump\t// out\n        /* \"contracts/Pool.sol\":615:647  uint constant public LP_FEE = 30 */\n    tag_64:\n        /* \"contracts/Pool.sol\":645:647  30 */\n      0x1e\n        /* \"contracts/Pool.sol\":615:647  uint constant public LP_FEE = 30 */\n      dup2\n      jump\t// out\n        /* \"contracts/Pool.sol\":6274:7998  function sqrt(uint256 a) public pure returns (uint256) {... */\n    tag_68:\n        /* \"contracts/Pool.sol\":6320:6327  uint256 */\n      0x00\n        /* \"contracts/Pool.sol\":6374:6375  1 */\n      0x01\n        /* \"contracts/Pool.sol\":6369:6370  a */\n      dup3\n        /* \"contracts/Pool.sol\":6369:6375  a <= 1 */\n      gt\n        /* \"contracts/Pool.sol\":6365:6420  if (a <= 1) {... */\n      tag_160\n      jumpi\n        /* \"contracts/Pool.sol\":6403:6404  a */\n      dup2\n        /* \"contracts/Pool.sol\":6396:6404  return a */\n      swap1\n      pop\n      jump(tag_159)\n        /* \"contracts/Pool.sol\":6365:6420  if (a <= 1) {... */\n    tag_160:\n        /* \"contracts/Pool.sol\":6434:6444  uint256 aa */\n      0x00\n        /* \"contracts/Pool.sol\":6447:6448  a */\n      dup3\n        /* \"contracts/Pool.sol\":6434:6448  uint256 aa = a */\n      swap1\n      pop\n        /* \"contracts/Pool.sol\":6463:6473  uint256 xn */\n      0x00\n        /* \"contracts/Pool.sol\":6476:6477  1 */\n      0x01\n        /* \"contracts/Pool.sol\":6463:6477  uint256 xn = 1 */\n      swap1\n      pop\n        /* \"contracts/Pool.sol\":6505:6513  1 << 128 */\n      0x0100000000000000000000000000000000\n        /* \"contracts/Pool.sol\":6498:6500  aa */\n      dup3\n        /* \"contracts/Pool.sol\":6498:6514  aa >= (1 << 128) */\n      lt\n        /* \"contracts/Pool.sol\":6494:6589  if (aa >= (1 << 128)) {... */\n      tag_161\n      jumpi\n        /* \"contracts/Pool.sol\":6542:6545  128 */\n      0x80\n        /* \"contracts/Pool.sol\":6535:6545  aa >>= 128 */\n      dup3\n      swap1\n      shr\n      swap2\n      pop\n        /* \"contracts/Pool.sol\":6571:6573  64 */\n      0x40\n        /* \"contracts/Pool.sol\":6564:6573  xn <<= 64 */\n      dup2\n      swap1\n      shl\n      swap1\n      pop\n        /* \"contracts/Pool.sol\":6494:6589  if (aa >= (1 << 128)) {... */\n    tag_161:\n        /* \"contracts/Pool.sol\":6614:6621  1 << 64 */\n      0x010000000000000000\n        /* \"contracts/Pool.sol\":6607:6609  aa */\n      dup3\n        /* \"contracts/Pool.sol\":6607:6622  aa >= (1 << 64) */\n      lt\n        /* \"contracts/Pool.sol\":6603:6696  if (aa >= (1 << 64)) {... */\n      tag_162\n      jumpi\n        /* \"contracts/Pool.sol\":6650:6652  64 */\n      0x40\n        /* \"contracts/Pool.sol\":6643:6652  aa >>= 64 */\n      dup3\n      swap1\n      shr\n      swap2\n      pop\n        /* \"contracts/Pool.sol\":6678:6680  32 */\n      0x20\n        /* \"contracts/Pool.sol\":6671:6680  xn <<= 32 */\n      dup2\n      swap1\n      shl\n      swap1\n      pop\n        /* \"contracts/Pool.sol\":6603:6696  if (aa >= (1 << 64)) {... */\n    tag_162:\n        /* \"contracts/Pool.sol\":6721:6728  1 << 32 */\n      0x0100000000\n        /* \"contracts/Pool.sol\":6714:6716  aa */\n      dup3\n        /* \"contracts/Pool.sol\":6714:6729  aa >= (1 << 32) */\n      lt\n        /* \"contracts/Pool.sol\":6710:6803  if (aa >= (1 << 32)) {... */\n      tag_163\n      jumpi\n        /* \"contracts/Pool.sol\":6757:6759  32 */\n      0x20\n        /* \"contracts/Pool.sol\":6750:6759  aa >>= 32 */\n      dup3\n      swap1\n      shr\n      swap2\n      pop\n        /* \"contracts/Pool.sol\":6785:6787  16 */\n      0x10\n        /* \"contracts/Pool.sol\":6778:6787  xn <<= 16 */\n      dup2\n      swap1\n      shl\n      swap1\n      pop\n        /* \"contracts/Pool.sol\":6710:6803  if (aa >= (1 << 32)) {... */\n    tag_163:\n        /* \"contracts/Pool.sol\":6828:6835  1 << 16 */\n      0x010000\n        /* \"contracts/Pool.sol\":6821:6823  aa */\n      dup3\n        /* \"contracts/Pool.sol\":6821:6836  aa >= (1 << 16) */\n      lt\n        /* \"contracts/Pool.sol\":6817:6909  if (aa >= (1 << 16)) {... */\n      tag_164\n      jumpi\n        /* \"contracts/Pool.sol\":6864:6866  16 */\n      0x10\n        /* \"contracts/Pool.sol\":6857:6866  aa >>= 16 */\n      dup3\n      swap1\n      shr\n      swap2\n      pop\n        /* \"contracts/Pool.sol\":6892:6893  8 */\n      0x08\n        /* \"contracts/Pool.sol\":6885:6893  xn <<= 8 */\n      dup2\n      swap1\n      shl\n      swap1\n      pop\n        /* \"contracts/Pool.sol\":6817:6909  if (aa >= (1 << 16)) {... */\n    tag_164:\n        /* \"contracts/Pool.sol\":6934:6940  1 << 8 */\n      0x0100\n        /* \"contracts/Pool.sol\":6927:6929  aa */\n      dup3\n        /* \"contracts/Pool.sol\":6927:6941  aa >= (1 << 8) */\n      lt\n        /* \"contracts/Pool.sol\":6923:7013  if (aa >= (1 << 8)) {... */\n      tag_165\n      jumpi\n        /* \"contracts/Pool.sol\":6969:6970  8 */\n      0x08\n        /* \"contracts/Pool.sol\":6962:6970  aa >>= 8 */\n      dup3\n      swap1\n      shr\n      swap2\n      pop\n        /* \"contracts/Pool.sol\":6996:6997  4 */\n      0x04\n        /* \"contracts/Pool.sol\":6989:6997  xn <<= 4 */\n      dup2\n      swap1\n      shl\n      swap1\n      pop\n        /* \"contracts/Pool.sol\":6923:7013  if (aa >= (1 << 8)) {... */\n    tag_165:\n        /* \"contracts/Pool.sol\":7038:7044  1 << 4 */\n      0x10\n        /* \"contracts/Pool.sol\":7031:7033  aa */\n      dup3\n        /* \"contracts/Pool.sol\":7031:7045  aa >= (1 << 4) */\n      lt\n        /* \"contracts/Pool.sol\":7027:7117  if (aa >= (1 << 4)) {... */\n      tag_166\n      jumpi\n        /* \"contracts/Pool.sol\":7073:7074  4 */\n      0x04\n        /* \"contracts/Pool.sol\":7066:7074  aa >>= 4 */\n      dup3\n      swap1\n      shr\n      swap2\n      pop\n        /* \"contracts/Pool.sol\":7100:7101  2 */\n      0x02\n        /* \"contracts/Pool.sol\":7093:7101  xn <<= 2 */\n      dup2\n      swap1\n      shl\n      swap1\n      pop\n        /* \"contracts/Pool.sol\":7027:7117  if (aa >= (1 << 4)) {... */\n    tag_166:\n        /* \"contracts/Pool.sol\":7142:7148  1 << 2 */\n      0x04\n        /* \"contracts/Pool.sol\":7135:7137  aa */\n      dup3\n        /* \"contracts/Pool.sol\":7135:7149  aa >= (1 << 2) */\n      lt\n        /* \"contracts/Pool.sol\":7131:7194  if (aa >= (1 << 2)) {... */\n      tag_167\n      jumpi\n        /* \"contracts/Pool.sol\":7177:7178  1 */\n      0x01\n        /* \"contracts/Pool.sol\":7170:7178  xn <<= 1 */\n      dup2\n      swap1\n      shl\n      swap1\n      pop\n        /* \"contracts/Pool.sol\":7131:7194  if (aa >= (1 << 2)) {... */\n    tag_167:\n        /* \"contracts/Pool.sol\":7225:7226  1 */\n      0x01\n        /* \"contracts/Pool.sol\":7218:7220  xn */\n      dup2\n        /* \"contracts/Pool.sol\":7214:7215  3 */\n      0x03\n        /* \"contracts/Pool.sol\":7214:7220  3 * xn */\n      mul\n        /* \"contracts/Pool.sol\":7213:7226  (3 * xn) >> 1 */\n      swap1\n      shr\n        /* \"contracts/Pool.sol\":7208:7226  xn = (3 * xn) >> 1 */\n      swap1\n      pop\n        /* \"contracts/Pool.sol\":7305:7306  1 */\n      0x01\n        /* \"contracts/Pool.sol\":7298:7300  xn */\n      dup2\n        /* \"contracts/Pool.sol\":7294:7295  a */\n      dup6\n        /* \"contracts/Pool.sol\":7294:7300  a / xn */\n      dup2\n      tag_168\n      jumpi\n      tag_169\n      tag_170\n      jump\t// in\n    tag_169:\n    tag_168:\n      div\n        /* \"contracts/Pool.sol\":7289:7291  xn */\n      dup3\n        /* \"contracts/Pool.sol\":7289:7300  xn + a / xn */\n      add\n        /* \"contracts/Pool.sol\":7288:7306  (xn + a / xn) >> 1 */\n      swap1\n      shr\n        /* \"contracts/Pool.sol\":7283:7306  xn = (xn + a / xn) >> 1 */\n      swap1\n      pop\n        /* \"contracts/Pool.sol\":7415:7416  1 */\n      0x01\n        /* \"contracts/Pool.sol\":7408:7410  xn */\n      dup2\n        /* \"contracts/Pool.sol\":7404:7405  a */\n      dup6\n        /* \"contracts/Pool.sol\":7404:7410  a / xn */\n      dup2\n      tag_171\n      jumpi\n      tag_172\n      tag_170\n      jump\t// in\n    tag_172:\n    tag_171:\n      div\n        /* \"contracts/Pool.sol\":7399:7401  xn */\n      dup3\n        /* \"contracts/Pool.sol\":7399:7410  xn + a / xn */\n      add\n        /* \"contracts/Pool.sol\":7398:7416  (xn + a / xn) >> 1 */\n      swap1\n      shr\n        /* \"contracts/Pool.sol\":7393:7416  xn = (xn + a / xn) >> 1 */\n      swap1\n      pop\n        /* \"contracts/Pool.sol\":7527:7528  1 */\n      0x01\n        /* \"contracts/Pool.sol\":7520:7522  xn */\n      dup2\n        /* \"contracts/Pool.sol\":7516:7517  a */\n      dup6\n        /* \"contracts/Pool.sol\":7516:7522  a / xn */\n      dup2\n      tag_173\n      jumpi\n      tag_174\n      tag_170\n      jump\t// in\n    tag_174:\n    tag_173:\n      div\n        /* \"contracts/Pool.sol\":7511:7513  xn */\n      dup3\n        /* \"contracts/Pool.sol\":7511:7522  xn + a / xn */\n      add\n        /* \"contracts/Pool.sol\":7510:7528  (xn + a / xn) >> 1 */\n      swap1\n      shr\n        /* \"contracts/Pool.sol\":7505:7528  xn = (xn + a / xn) >> 1 */\n      swap1\n      pop\n        /* \"contracts/Pool.sol\":7637:7638  1 */\n      0x01\n        /* \"contracts/Pool.sol\":7630:7632  xn */\n      dup2\n        /* \"contracts/Pool.sol\":7626:7627  a */\n      dup6\n        /* \"contracts/Pool.sol\":7626:7632  a / xn */\n      dup2\n      tag_175\n      jumpi\n      tag_176\n      tag_170\n      jump\t// in\n    tag_176:\n    tag_175:\n      div\n        /* \"contracts/Pool.sol\":7621:7623  xn */\n      dup3\n        /* \"contracts/Pool.sol\":7621:7632  xn + a / xn */\n      add\n        /* \"contracts/Pool.sol\":7620:7638  (xn + a / xn) >> 1 */\n      swap1\n      shr\n        /* \"contracts/Pool.sol\":7615:7638  xn = (xn + a / xn) >> 1 */\n      swap1\n      pop\n        /* \"contracts/Pool.sol\":7748:7749  1 */\n      0x01\n        /* \"contracts/Pool.sol\":7741:7743  xn */\n      dup2\n        /* \"contracts/Pool.sol\":7737:7738  a */\n      dup6\n        /* \"contracts/Pool.sol\":7737:7743  a / xn */\n      dup2\n      tag_177\n      jumpi\n      tag_178\n      tag_170\n      jump\t// in\n    tag_178:\n    tag_177:\n      div\n        /* \"contracts/Pool.sol\":7732:7734  xn */\n      dup3\n        /* \"contracts/Pool.sol\":7732:7743  xn + a / xn */\n      add\n        /* \"contracts/Pool.sol\":7731:7749  (xn + a / xn) >> 1 */\n      swap1\n      shr\n        /* \"contracts/Pool.sol\":7726:7749  xn = (xn + a / xn) >> 1 */\n      swap1\n      pop\n        /* \"contracts/Pool.sol\":7859:7860  1 */\n      0x01\n        /* \"contracts/Pool.sol\":7852:7854  xn */\n      dup2\n        /* \"contracts/Pool.sol\":7848:7849  a */\n      dup6\n        /* \"contracts/Pool.sol\":7848:7854  a / xn */\n      dup2\n      tag_179\n      jumpi\n      tag_180\n      tag_170\n      jump\t// in\n    tag_180:\n    tag_179:\n      div\n        /* \"contracts/Pool.sol\":7843:7845  xn */\n      dup3\n        /* \"contracts/Pool.sol\":7843:7854  xn + a / xn */\n      add\n        /* \"contracts/Pool.sol\":7842:7860  (xn + a / xn) >> 1 */\n      swap1\n      shr\n        /* \"contracts/Pool.sol\":7837:7860  xn = (xn + a / xn) >> 1 */\n      swap1\n      pop\n        /* \"contracts/Pool.sol\":7960:7979  toUint(xn > a / xn) */\n      tag_181\n        /* \"contracts/Pool.sol\":7976:7978  xn */\n      dup2\n        /* \"contracts/Pool.sol\":7972:7973  a */\n      dup6\n        /* \"contracts/Pool.sol\":7972:7978  a / xn */\n      dup2\n      tag_182\n      jumpi\n      tag_183\n      tag_170\n      jump\t// in\n    tag_183:\n    tag_182:\n      div\n        /* \"contracts/Pool.sol\":7967:7969  xn */\n      dup3\n        /* \"contracts/Pool.sol\":7967:7978  xn > a / xn */\n      gt\n        /* \"contracts/Pool.sol\":7960:7966  toUint */\n      tag_184\n        /* \"contracts/Pool.sol\":7960:7979  toUint(xn > a / xn) */\n      jump\t// in\n    tag_181:\n        /* \"contracts/Pool.sol\":7955:7957  xn */\n      dup2\n        /* \"contracts/Pool.sol\":7955:7979  xn - toUint(xn > a / xn) */\n      sub\n        /* \"contracts/Pool.sol\":7948:7979  return xn - toUint(xn > a / xn) */\n      swap3\n      pop\n      pop\n      pop\n        /* \"contracts/Pool.sol\":6274:7998  function sqrt(uint256 a) public pure returns (uint256) {... */\n    tag_159:\n      swap2\n      swap1\n      pop\n      jump\t// out\n        /* \"https://github.com/Vectorized/solady/blob/e4a14a5b365b353352f7c38e699a2bc9363d6576/src/tokens/ERC20.sol\":6548:6834  function balanceOf(address owner) public view virtual returns (uint256 result) {... */\n    tag_73:\n        /* \"https://github.com/Vectorized/solady/blob/e4a14a5b365b353352f7c38e699a2bc9363d6576/src/tokens/ERC20.sol\":6611:6625  uint256 result */\n      0x00\n        /* \"https://github.com/Vectorized/solady/blob/e4a14a5b365b353352f7c38e699a2bc9363d6576/src/tokens/ERC20.sol\":6716:6734  _BALANCE_SLOT_SEED */\n      0x87a211a2\n        /* \"https://github.com/Vectorized/solady/blob/e4a14a5b365b353352f7c38e699a2bc9363d6576/src/tokens/ERC20.sol\":6710:6714  0x0c */\n      0x0c\n        /* \"https://github.com/Vectorized/solady/blob/e4a14a5b365b353352f7c38e699a2bc9363d6576/src/tokens/ERC20.sol\":6703:6735  mstore(0x0c, _BALANCE_SLOT_SEED) */\n      mstore\n        /* \"https://github.com/Vectorized/solady/blob/e4a14a5b365b353352f7c38e699a2bc9363d6576/src/tokens/ERC20.sol\":6761:6766  owner */\n      dup2\n        /* \"https://github.com/Vectorized/solady/blob/e4a14a5b365b353352f7c38e699a2bc9363d6576/src/tokens/ERC20.sol\":6755:6759  0x00 */\n      0x00\n        /* \"https://github.com/Vectorized/solady/blob/e4a14a5b365b353352f7c38e699a2bc9363d6576/src/tokens/ERC20.sol\":6748:6767  mstore(0x00, owner) */\n      mstore\n        /* \"https://github.com/Vectorized/solady/blob/e4a14a5b365b353352f7c38e699a2bc9363d6576/src/tokens/ERC20.sol\":6812:6816  0x20 */\n      0x20\n        /* \"https://github.com/Vectorized/solady/blob/e4a14a5b365b353352f7c38e699a2bc9363d6576/src/tokens/ERC20.sol\":6806:6810  0x0c */\n      0x0c\n        /* \"https://github.com/Vectorized/solady/blob/e4a14a5b365b353352f7c38e699a2bc9363d6576/src/tokens/ERC20.sol\":6796:6817  keccak256(0x0c, 0x20) */\n      keccak256\n        /* \"https://github.com/Vectorized/solady/blob/e4a14a5b365b353352f7c38e699a2bc9363d6576/src/tokens/ERC20.sol\":6790:6818  sload(keccak256(0x0c, 0x20)) */\n      sload\n        /* \"https://github.com/Vectorized/solady/blob/e4a14a5b365b353352f7c38e699a2bc9363d6576/src/tokens/ERC20.sol\":6780:6818  result := sload(keccak256(0x0c, 0x20)) */\n      swap1\n      pop\n        /* \"https://github.com/Vectorized/solady/blob/e4a14a5b365b353352f7c38e699a2bc9363d6576/src/tokens/ERC20.sol\":6548:6834  function balanceOf(address owner) public view virtual returns (uint256 result) {... */\n      swap2\n      swap1\n      pop\n      jump\t// out\n        /* \"contracts/Pool.sol\":768:785  uint public kLast */\n    tag_76:\n      sload(0x02)\n      dup2\n      jump\t// out\n        /* \"https://github.com/Vectorized/solady/blob/e4a14a5b365b353352f7c38e699a2bc9363d6576/src/tokens/ERC20.sol\":12800:13140  function nonces(address owner) public view virtual returns (uint256 result) {... */\n    tag_80:\n        /* \"https://github.com/Vectorized/solady/blob/e4a14a5b365b353352f7c38e699a2bc9363d6576/src/tokens/ERC20.sol\":12860:12874  uint256 result */\n      0x00\n        /* \"https://github.com/Vectorized/solady/blob/e4a14a5b365b353352f7c38e699a2bc9363d6576/src/tokens/ERC20.sol\":13023:13040  _NONCES_SLOT_SEED */\n      0x38377508\n        /* \"https://github.com/Vectorized/solady/blob/e4a14a5b365b353352f7c38e699a2bc9363d6576/src/tokens/ERC20.sol\":13017:13021  0x0c */\n      0x0c\n        /* \"https://github.com/Vectorized/solady/blob/e4a14a5b365b353352f7c38e699a2bc9363d6576/src/tokens/ERC20.sol\":13010:13041  mstore(0x0c, _NONCES_SLOT_SEED) */\n      mstore\n        /* \"https://github.com/Vectorized/solady/blob/e4a14a5b365b353352f7c38e699a2bc9363d6576/src/tokens/ERC20.sol\":13067:13072  owner */\n      dup2\n        /* \"https://github.com/Vectorized/solady/blob/e4a14a5b365b353352f7c38e699a2bc9363d6576/src/tokens/ERC20.sol\":13061:13065  0x00 */\n      0x00\n        /* \"https://github.com/Vectorized/solady/blob/e4a14a5b365b353352f7c38e699a2bc9363d6576/src/tokens/ERC20.sol\":13054:13073  mstore(0x00, owner) */\n      mstore\n        /* \"https://github.com/Vectorized/solady/blob/e4a14a5b365b353352f7c38e699a2bc9363d6576/src/tokens/ERC20.sol\":13118:13122  0x20 */\n      0x20\n        /* \"https://github.com/Vectorized/solady/blob/e4a14a5b365b353352f7c38e699a2bc9363d6576/src/tokens/ERC20.sol\":13112:13116  0x0c */\n      0x0c\n        /* \"https://github.com/Vectorized/solady/blob/e4a14a5b365b353352f7c38e699a2bc9363d6576/src/tokens/ERC20.sol\":13102:13123  keccak256(0x0c, 0x20) */\n      keccak256\n        /* \"https://github.com/Vectorized/solady/blob/e4a14a5b365b353352f7c38e699a2bc9363d6576/src/tokens/ERC20.sol\":13096:13124  sload(keccak256(0x0c, 0x20)) */\n      sload\n        /* \"https://github.com/Vectorized/solady/blob/e4a14a5b365b353352f7c38e699a2bc9363d6576/src/tokens/ERC20.sol\":13086:13124  result := sload(keccak256(0x0c, 0x20)) */\n      swap1\n      pop\n        /* \"https://github.com/Vectorized/solady/blob/e4a14a5b365b353352f7c38e699a2bc9363d6576/src/tokens/ERC20.sol\":12800:13140  function nonces(address owner) public view virtual returns (uint256 result) {... */\n      swap2\n      swap1\n      pop\n      jump\t// out\n        /* \"contracts/Pool.sol\":4760:4959  function quote(address token, uint256 amount) public view checkTokenInside(token) returns(uint256){... */\n    tag_84:\n        /* \"contracts/Pool.sol\":4850:4857  uint256 */\n      0x00\n        /* \"contracts/Pool.sol\":4835:4840  token */\n      dup3\n        /* \"contracts/Pool.sol\":1606:1614  s_token0 */\n      0x03\n      0x00\n      swap1\n      sload\n      swap1\n      0x0100\n      exp\n      swap1\n      div\n      0xffffffffffffffffffffffffffffffffffffffff\n      and\n        /* \"contracts/Pool.sol\":1597:1614  token != s_token0 */\n      0xffffffffffffffffffffffffffffffffffffffff\n      and\n        /* \"contracts/Pool.sol\":1597:1602  token */\n      dup2\n        /* \"contracts/Pool.sol\":1597:1614  token != s_token0 */\n      0xffffffffffffffffffffffffffffffffffffffff\n      and\n      eq\n      iszero\n        /* \"contracts/Pool.sol\":1597:1635  token != s_token0 && token != s_token1 */\n      dup1\n      iszero\n      tag_188\n      jumpi\n      pop\n        /* \"contracts/Pool.sol\":1627:1635  s_token1 */\n      0x04\n      0x00\n      swap1\n      sload\n      swap1\n      0x0100\n      exp\n      swap1\n      div\n      0xffffffffffffffffffffffffffffffffffffffff\n      and\n        /* \"contracts/Pool.sol\":1618:1635  token != s_token1 */\n      0xffffffffffffffffffffffffffffffffffffffff\n      and\n        /* \"contracts/Pool.sol\":1618:1623  token */\n      dup2\n        /* \"contracts/Pool.sol\":1618:1635  token != s_token1 */\n      0xffffffffffffffffffffffffffffffffffffffff\n      and\n      eq\n      iszero\n        /* \"contracts/Pool.sol\":1597:1635  token != s_token0 && token != s_token1 */\n    tag_188:\n        /* \"contracts/Pool.sol\":1594:1667  if(token != s_token0 && token != s_token1) revert TOKEN_NOT_INSIDE_POOL() */\n      iszero\n      tag_189\n      jumpi\n        /* \"contracts/Pool.sol\":1644:1667  TOKEN_NOT_INSIDE_POOL() */\n      mload(0x40)\n      0x82bce52600000000000000000000000000000000000000000000000000000000\n      dup2\n      mstore\n      0x04\n      add\n      mload(0x40)\n      dup1\n      swap2\n      sub\n      swap1\n      revert\n        /* \"contracts/Pool.sol\":1594:1667  if(token != s_token0 && token != s_token1) revert TOKEN_NOT_INSIDE_POOL() */\n    tag_189:\n        /* \"contracts/Pool.sol\":4882:4883  0 */\n      0x00\n        /* \"contracts/Pool.sol\":4872:4878  amount */\n      dup4\n        /* \"contracts/Pool.sol\":4872:4883  amount == 0 */\n      sub\n        /* \"contracts/Pool.sol\":4869:4912  if(amount == 0) revert AMOUNT_EQUALS_ZERO() */\n      tag_191\n      jumpi\n        /* \"contracts/Pool.sol\":4892:4912  AMOUNT_EQUALS_ZERO() */\n      mload(0x40)\n      0x8966f48700000000000000000000000000000000000000000000000000000000\n      dup2\n      mstore\n      0x04\n      add\n      mload(0x40)\n      dup1\n      swap2\n      sub\n      swap1\n      revert\n        /* \"contracts/Pool.sol\":4869:4912  if(amount == 0) revert AMOUNT_EQUALS_ZERO() */\n    tag_191:\n        /* \"contracts/Pool.sol\":4930:4951  _quote(token, amount) */\n      tag_192\n        /* \"contracts/Pool.sol\":4937:4942  token */\n      dup5\n        /* \"contracts/Pool.sol\":4944:4950  amount */\n      dup5\n        /* \"contracts/Pool.sol\":4930:4936  _quote */\n      tag_193\n        /* \"contracts/Pool.sol\":4930:4951  _quote(token, amount) */\n      jump\t// in\n    tag_192:\n        /* \"contracts/Pool.sol\":4923:4951  return _quote(token, amount) */\n      swap2\n      pop\n        /* \"contracts/Pool.sol\":4760:4959  function quote(address token, uint256 amount) public view checkTokenInside(token) returns(uint256){... */\n      pop\n      swap3\n      swap2\n      pop\n      pop\n      jump\t// out\n        /* \"contracts/LP.sol\":512:606  function symbol() public view override returns(string memory) {... */\n    tag_87:\n        /* \"contracts/LP.sol\":559:572  string memory */\n      0x60\n        /* \"contracts/LP.sol\":592:598  s_name */\n      0x00\n        /* \"contracts/LP.sol\":585:598  return s_name */\n      dup1\n      sload\n      tag_195\n      swap1\n      tag_196\n      jump\t// in\n    tag_195:\n      dup1\n      0x1f\n      add\n      0x20\n      dup1\n      swap2\n      div\n      mul\n      0x20\n      add\n      mload(0x40)\n      swap1\n      dup2\n      add\n      0x40\n      mstore\n      dup1\n      swap3\n      swap2\n      swap1\n      dup2\n      dup2\n      mstore\n      0x20\n      add\n      dup3\n      dup1\n      sload\n      tag_197\n      swap1\n      tag_196\n      jump\t// in\n    tag_197:\n      dup1\n      iszero\n      tag_198\n      jumpi\n      dup1\n      0x1f\n      lt\n      tag_199\n      jumpi\n      0x0100\n      dup1\n      dup4\n      sload\n      div\n      mul\n      dup4\n      mstore\n      swap2\n      0x20\n      add\n      swap2\n      jump(tag_198)\n    tag_199:\n      dup3\n      add\n      swap2\n      swap1\n      0x00\n      mstore\n      keccak256(0x00, 0x20)\n      swap1\n    tag_200:\n      dup2\n      sload\n      dup2\n      mstore\n      swap1\n      0x01\n      add\n      swap1\n      0x20\n      add\n      dup1\n      dup4\n      gt\n      tag_200\n      jumpi\n      dup3\n      swap1\n      sub\n      0x1f\n      and\n      dup3\n      add\n      swap2\n    tag_198:\n      pop\n      pop\n      pop\n      pop\n      pop\n      swap1\n      pop\n        /* \"contracts/LP.sol\":512:606  function symbol() public view override returns(string memory) {... */\n      swap1\n      jump\t// out\n        /* \"https://github.com/Vectorized/solady/blob/e4a14a5b365b353352f7c38e699a2bc9363d6576/src/tokens/ERC20.sol\":8195:9601  function transfer(address to, uint256 amount) public virtual returns (bool) {... */\n    tag_91:\n        /* \"https://github.com/Vectorized/solady/blob/e4a14a5b365b353352f7c38e699a2bc9363d6576/src/tokens/ERC20.sol\":8265:8269  bool */\n      0x00\n        /* \"https://github.com/Vectorized/solady/blob/e4a14a5b365b353352f7c38e699a2bc9363d6576/src/tokens/ERC20.sol\":8281:8325  _beforeTokenTransfer(msg.sender, to, amount) */\n      tag_202\n        /* \"https://github.com/Vectorized/solady/blob/e4a14a5b365b353352f7c38e699a2bc9363d6576/src/tokens/ERC20.sol\":8302:8312  msg.sender */\n      caller\n        /* \"https://github.com/Vectorized/solady/blob/e4a14a5b365b353352f7c38e699a2bc9363d6576/src/tokens/ERC20.sol\":8314:8316  to */\n      dup5\n        /* \"https://github.com/Vectorized/solady/blob/e4a14a5b365b353352f7c38e699a2bc9363d6576/src/tokens/ERC20.sol\":8318:8324  amount */\n      dup5\n        /* \"https://github.com/Vectorized/solady/blob/e4a14a5b365b353352f7c38e699a2bc9363d6576/src/tokens/ERC20.sol\":8281:8301  _beforeTokenTransfer */\n      tag_122\n        /* \"https://github.com/Vectorized/solady/blob/e4a14a5b365b353352f7c38e699a2bc9363d6576/src/tokens/ERC20.sol\":8281:8325  _beforeTokenTransfer(msg.sender, to, amount) */\n      jump\t// in\n    tag_202:\n        /* \"https://github.com/Vectorized/solady/blob/e4a14a5b365b353352f7c38e699a2bc9363d6576/src/tokens/ERC20.sol\":8474:8492  _BALANCE_SLOT_SEED */\n      0x87a211a2\n        /* \"https://github.com/Vectorized/solady/blob/e4a14a5b365b353352f7c38e699a2bc9363d6576/src/tokens/ERC20.sol\":8468:8472  0x0c */\n      0x0c\n        /* \"https://github.com/Vectorized/solady/blob/e4a14a5b365b353352f7c38e699a2bc9363d6576/src/tokens/ERC20.sol\":8461:8493  mstore(0x0c, _BALANCE_SLOT_SEED) */\n      mstore\n        /* \"https://github.com/Vectorized/solady/blob/e4a14a5b365b353352f7c38e699a2bc9363d6576/src/tokens/ERC20.sol\":8519:8527  caller() */\n      caller\n        /* \"https://github.com/Vectorized/solady/blob/e4a14a5b365b353352f7c38e699a2bc9363d6576/src/tokens/ERC20.sol\":8513:8517  0x00 */\n      0x00\n        /* \"https://github.com/Vectorized/solady/blob/e4a14a5b365b353352f7c38e699a2bc9363d6576/src/tokens/ERC20.sol\":8506:8528  mstore(0x00, caller()) */\n      mstore\n        /* \"https://github.com/Vectorized/solady/blob/e4a14a5b365b353352f7c38e699a2bc9363d6576/src/tokens/ERC20.sol\":8580:8584  0x20 */\n      0x20\n        /* \"https://github.com/Vectorized/solady/blob/e4a14a5b365b353352f7c38e699a2bc9363d6576/src/tokens/ERC20.sol\":8574:8578  0x0c */\n      0x0c\n        /* \"https://github.com/Vectorized/solady/blob/e4a14a5b365b353352f7c38e699a2bc9363d6576/src/tokens/ERC20.sol\":8564:8585  keccak256(0x0c, 0x20) */\n      keccak256\n        /* \"https://github.com/Vectorized/solady/blob/e4a14a5b365b353352f7c38e699a2bc9363d6576/src/tokens/ERC20.sol\":8623:8638  fromBalanceSlot */\n      dup1\n        /* \"https://github.com/Vectorized/solady/blob/e4a14a5b365b353352f7c38e699a2bc9363d6576/src/tokens/ERC20.sol\":8617:8639  sload(fromBalanceSlot) */\n      sload\n        /* \"https://github.com/Vectorized/solady/blob/e4a14a5b365b353352f7c38e699a2bc9363d6576/src/tokens/ERC20.sol\":8713:8724  fromBalance */\n      dup1\n        /* \"https://github.com/Vectorized/solady/blob/e4a14a5b365b353352f7c38e699a2bc9363d6576/src/tokens/ERC20.sol\":8705:8711  amount */\n      dup5\n        /* \"https://github.com/Vectorized/solady/blob/e4a14a5b365b353352f7c38e699a2bc9363d6576/src/tokens/ERC20.sol\":8702:8725  gt(amount, fromBalance) */\n      gt\n        /* \"https://github.com/Vectorized/solady/blob/e4a14a5b365b353352f7c38e699a2bc9363d6576/src/tokens/ERC20.sol\":8699:8845  if gt(amount, fromBalance) {... */\n      iszero\n      tag_203\n      jumpi\n        /* \"https://github.com/Vectorized/solady/blob/e4a14a5b365b353352f7c38e699a2bc9363d6576/src/tokens/ERC20.sol\":8757:8767  0xf4d678b8 */\n      0xf4d678b8\n        /* \"https://github.com/Vectorized/solady/blob/e4a14a5b365b353352f7c38e699a2bc9363d6576/src/tokens/ERC20.sol\":8751:8755  0x00 */\n      0x00\n        /* \"https://github.com/Vectorized/solady/blob/e4a14a5b365b353352f7c38e699a2bc9363d6576/src/tokens/ERC20.sol\":8744:8768  mstore(0x00, 0xf4d678b8) */\n      mstore\n        /* \"https://github.com/Vectorized/solady/blob/e4a14a5b365b353352f7c38e699a2bc9363d6576/src/tokens/ERC20.sol\":8826:8830  0x04 */\n      0x04\n        /* \"https://github.com/Vectorized/solady/blob/e4a14a5b365b353352f7c38e699a2bc9363d6576/src/tokens/ERC20.sol\":8820:8824  0x1c */\n      0x1c\n        /* \"https://github.com/Vectorized/solady/blob/e4a14a5b365b353352f7c38e699a2bc9363d6576/src/tokens/ERC20.sol\":8813:8831  revert(0x1c, 0x04) */\n      revert\n        /* \"https://github.com/Vectorized/solady/blob/e4a14a5b365b353352f7c38e699a2bc9363d6576/src/tokens/ERC20.sol\":8699:8845  if gt(amount, fromBalance) {... */\n    tag_203:\n        /* \"https://github.com/Vectorized/solady/blob/e4a14a5b365b353352f7c38e699a2bc9363d6576/src/tokens/ERC20.sol\":8954:8960  amount */\n      dup4\n        /* \"https://github.com/Vectorized/solady/blob/e4a14a5b365b353352f7c38e699a2bc9363d6576/src/tokens/ERC20.sol\":8941:8952  fromBalance */\n      dup2\n        /* \"https://github.com/Vectorized/solady/blob/e4a14a5b365b353352f7c38e699a2bc9363d6576/src/tokens/ERC20.sol\":8937:8961  sub(fromBalance, amount) */\n      sub\n        /* \"https://github.com/Vectorized/solady/blob/e4a14a5b365b353352f7c38e699a2bc9363d6576/src/tokens/ERC20.sol\":8920:8935  fromBalanceSlot */\n      dup3\n        /* \"https://github.com/Vectorized/solady/blob/e4a14a5b365b353352f7c38e699a2bc9363d6576/src/tokens/ERC20.sol\":8913:8962  sstore(fromBalanceSlot, sub(fromBalance, amount)) */\n      sstore\n        /* \"https://github.com/Vectorized/solady/blob/e4a14a5b365b353352f7c38e699a2bc9363d6576/src/tokens/ERC20.sol\":9037:9039  to */\n      dup5\n        /* \"https://github.com/Vectorized/solady/blob/e4a14a5b365b353352f7c38e699a2bc9363d6576/src/tokens/ERC20.sol\":9031:9035  0x00 */\n      0x00\n        /* \"https://github.com/Vectorized/solady/blob/e4a14a5b365b353352f7c38e699a2bc9363d6576/src/tokens/ERC20.sol\":9024:9040  mstore(0x00, to) */\n      mstore\n        /* \"https://github.com/Vectorized/solady/blob/e4a14a5b365b353352f7c38e699a2bc9363d6576/src/tokens/ERC20.sol\":9090:9094  0x20 */\n      0x20\n        /* \"https://github.com/Vectorized/solady/blob/e4a14a5b365b353352f7c38e699a2bc9363d6576/src/tokens/ERC20.sol\":9084:9088  0x0c */\n      0x0c\n        /* \"https://github.com/Vectorized/solady/blob/e4a14a5b365b353352f7c38e699a2bc9363d6576/src/tokens/ERC20.sol\":9074:9095  keccak256(0x0c, 0x20) */\n      keccak256\n        /* \"https://github.com/Vectorized/solady/blob/e4a14a5b365b353352f7c38e699a2bc9363d6576/src/tokens/ERC20.sol\":9340:9346  amount */\n      dup5\n        /* \"https://github.com/Vectorized/solady/blob/e4a14a5b365b353352f7c38e699a2bc9363d6576/src/tokens/ERC20.sol\":9324:9337  toBalanceSlot */\n      dup2\n        /* \"https://github.com/Vectorized/solady/blob/e4a14a5b365b353352f7c38e699a2bc9363d6576/src/tokens/ERC20.sol\":9318:9338  sload(toBalanceSlot) */\n      sload\n        /* \"https://github.com/Vectorized/solady/blob/e4a14a5b365b353352f7c38e699a2bc9363d6576/src/tokens/ERC20.sol\":9314:9347  add(sload(toBalanceSlot), amount) */\n      add\n        /* \"https://github.com/Vectorized/solady/blob/e4a14a5b365b353352f7c38e699a2bc9363d6576/src/tokens/ERC20.sol\":9299:9312  toBalanceSlot */\n      dup2\n        /* \"https://github.com/Vectorized/solady/blob/e4a14a5b365b353352f7c38e699a2bc9363d6576/src/tokens/ERC20.sol\":9292:9348  sstore(toBalanceSlot, add(sload(toBalanceSlot), amount)) */\n      sstore\n        /* \"https://github.com/Vectorized/solady/blob/e4a14a5b365b353352f7c38e699a2bc9363d6576/src/tokens/ERC20.sol\":9416:9422  amount */\n      dup5\n        /* \"https://github.com/Vectorized/solady/blob/e4a14a5b365b353352f7c38e699a2bc9363d6576/src/tokens/ERC20.sol\":9410:9414  0x20 */\n      0x20\n        /* \"https://github.com/Vectorized/solady/blob/e4a14a5b365b353352f7c38e699a2bc9363d6576/src/tokens/ERC20.sol\":9403:9423  mstore(0x20, amount) */\n      mstore\n        /* \"https://github.com/Vectorized/solady/blob/e4a14a5b365b353352f7c38e699a2bc9363d6576/src/tokens/ERC20.sol\":9504:9508  0x0c */\n      0x0c\n        /* \"https://github.com/Vectorized/solady/blob/e4a14a5b365b353352f7c38e699a2bc9363d6576/src/tokens/ERC20.sol\":9498:9509  mload(0x0c) */\n      mload\n        /* \"https://github.com/Vectorized/solady/blob/e4a14a5b365b353352f7c38e699a2bc9363d6576/src/tokens/ERC20.sol\":9494:9496  96 */\n      0x60\n        /* \"https://github.com/Vectorized/solady/blob/e4a14a5b365b353352f7c38e699a2bc9363d6576/src/tokens/ERC20.sol\":9490:9510  shr(96, mload(0x0c)) */\n      shr\n        /* \"https://github.com/Vectorized/solady/blob/e4a14a5b365b353352f7c38e699a2bc9363d6576/src/tokens/ERC20.sol\":9480:9488  caller() */\n      caller\n        /* \"https://github.com/Vectorized/solady/blob/e4a14a5b365b353352f7c38e699a2bc9363d6576/src/tokens/ERC20.sol\":9453:9478  _TRANSFER_EVENT_SIGNATURE */\n      0xddf252ad1be2c89b69c2b068fc378daa952ba7f163c4a11628f55a4df523b3ef\n        /* \"https://github.com/Vectorized/solady/blob/e4a14a5b365b353352f7c38e699a2bc9363d6576/src/tokens/ERC20.sol\":9447:9451  0x20 */\n      0x20\n        /* \"https://github.com/Vectorized/solady/blob/e4a14a5b365b353352f7c38e699a2bc9363d6576/src/tokens/ERC20.sol\":9441:9445  0x20 */\n      dup1\n        /* \"https://github.com/Vectorized/solady/blob/e4a14a5b365b353352f7c38e699a2bc9363d6576/src/tokens/ERC20.sol\":9436:9511  log3(0x20, 0x20, _TRANSFER_EVENT_SIGNATURE, caller(), shr(96, mload(0x0c))) */\n      log3\n        /* \"https://github.com/Vectorized/solady/blob/e4a14a5b365b353352f7c38e699a2bc9363d6576/src/tokens/ERC20.sol\":8387:9521  {... */\n      pop\n      pop\n      pop\n        /* \"https://github.com/Vectorized/solady/blob/e4a14a5b365b353352f7c38e699a2bc9363d6576/src/tokens/ERC20.sol\":9530:9573  _afterTokenTransfer(msg.sender, to, amount) */\n      tag_204\n        /* \"https://github.com/Vectorized/solady/blob/e4a14a5b365b353352f7c38e699a2bc9363d6576/src/tokens/ERC20.sol\":9550:9560  msg.sender */\n      caller\n        /* \"https://github.com/Vectorized/solady/blob/e4a14a5b365b353352f7c38e699a2bc9363d6576/src/tokens/ERC20.sol\":9562:9564  to */\n      dup5\n        /* \"https://github.com/Vectorized/solady/blob/e4a14a5b365b353352f7c38e699a2bc9363d6576/src/tokens/ERC20.sol\":9566:9572  amount */\n      dup5\n        /* \"https://github.com/Vectorized/solady/blob/e4a14a5b365b353352f7c38e699a2bc9363d6576/src/tokens/ERC20.sol\":9530:9549  _afterTokenTransfer */\n      tag_127\n        /* \"https://github.com/Vectorized/solady/blob/e4a14a5b365b353352f7c38e699a2bc9363d6576/src/tokens/ERC20.sol\":9530:9573  _afterTokenTransfer(msg.sender, to, amount) */\n      jump\t// in\n    tag_204:\n        /* \"https://github.com/Vectorized/solady/blob/e4a14a5b365b353352f7c38e699a2bc9363d6576/src/tokens/ERC20.sol\":9590:9594  true */\n      0x01\n        /* \"https://github.com/Vectorized/solady/blob/e4a14a5b365b353352f7c38e699a2bc9363d6576/src/tokens/ERC20.sol\":9583:9594  return true */\n      swap1\n      pop\n        /* \"https://github.com/Vectorized/solady/blob/e4a14a5b365b353352f7c38e699a2bc9363d6576/src/tokens/ERC20.sol\":8195:9601  function transfer(address to, uint256 amount) public virtual returns (bool) {... */\n      swap3\n      swap2\n      pop\n      pop\n      jump\t// out\n        /* \"contracts/Pool.sol\":739:761  address public factory */\n    tag_94:\n      0x01\n      0x00\n      swap1\n      sload\n      swap1\n      0x0100\n      exp\n      swap1\n      div\n      0xffffffffffffffffffffffffffffffffffffffff\n      and\n      dup2\n      jump\t// out\n        /* \"contracts/Pool.sol\":1695:2697  function swap(address token, uint256 amount) external checkTokenInside(token) returns(uint256 amountOut) {... */\n    tag_99:\n        /* \"contracts/Pool.sol\":1781:1798  uint256 amountOut */\n      0x00\n        /* \"contracts/Pool.sol\":1766:1771  token */\n      dup3\n        /* \"contracts/Pool.sol\":1606:1614  s_token0 */\n      0x03\n      0x00\n      swap1\n      sload\n      swap1\n      0x0100\n      exp\n      swap1\n      div\n      0xffffffffffffffffffffffffffffffffffffffff\n      and\n        /* \"contracts/Pool.sol\":1597:1614  token != s_token0 */\n      0xffffffffffffffffffffffffffffffffffffffff\n      and\n        /* \"contracts/Pool.sol\":1597:1602  token */\n      dup2\n        /* \"contracts/Pool.sol\":1597:1614  token != s_token0 */\n      0xffffffffffffffffffffffffffffffffffffffff\n      and\n      eq\n      iszero\n        /* \"contracts/Pool.sol\":1597:1635  token != s_token0 && token != s_token1 */\n      dup1\n      iszero\n      tag_206\n      jumpi\n      pop\n        /* \"contracts/Pool.sol\":1627:1635  s_token1 */\n      0x04\n      0x00\n      swap1\n      sload\n      swap1\n      0x0100\n      exp\n      swap1\n      div\n      0xffffffffffffffffffffffffffffffffffffffff\n      and\n        /* \"contracts/Pool.sol\":1618:1635  token != s_token1 */\n      0xffffffffffffffffffffffffffffffffffffffff\n      and\n        /* \"contracts/Pool.sol\":1618:1623  token */\n      dup2\n        /* \"contracts/Pool.sol\":1618:1635  token != s_token1 */\n      0xffffffffffffffffffffffffffffffffffffffff\n      and\n      eq\n      iszero\n        /* \"contracts/Pool.sol\":1597:1635  token != s_token0 && token != s_token1 */\n    tag_206:\n        /* \"contracts/Pool.sol\":1594:1667  if(token != s_token0 && token != s_token1) revert TOKEN_NOT_INSIDE_POOL() */\n      iszero\n      tag_207\n      jumpi\n        /* \"contracts/Pool.sol\":1644:1667  TOKEN_NOT_INSIDE_POOL() */\n      mload(0x40)\n      0x82bce52600000000000000000000000000000000000000000000000000000000\n      dup2\n      mstore\n      0x04\n      add\n      mload(0x40)\n      dup1\n      swap2\n      sub\n      swap1\n      revert\n        /* \"contracts/Pool.sol\":1594:1667  if(token != s_token0 && token != s_token1) revert TOKEN_NOT_INSIDE_POOL() */\n    tag_207:\n        /* \"contracts/Pool.sol\":1811:1825  address token0 */\n      0x00\n        /* \"contracts/Pool.sol\":1828:1836  s_token0 */\n      0x03\n      0x00\n      swap1\n      sload\n      swap1\n      0x0100\n      exp\n      swap1\n      div\n      0xffffffffffffffffffffffffffffffffffffffff\n      and\n        /* \"contracts/Pool.sol\":1811:1836  address token0 = s_token0 */\n      swap1\n      pop\n        /* \"contracts/Pool.sol\":1847:1861  address token1 */\n      0x00\n        /* \"contracts/Pool.sol\":1864:1872  s_token1 */\n      0x04\n      0x00\n      swap1\n      sload\n      swap1\n      0x0100\n      exp\n      swap1\n      div\n      0xffffffffffffffffffffffffffffffffffffffff\n      and\n        /* \"contracts/Pool.sol\":1847:1872  address token1 = s_token1 */\n      swap1\n      pop\n        /* \"contracts/Pool.sol\":1896:1897  0 */\n      0x00\n        /* \"contracts/Pool.sol\":1886:1892  amount */\n      dup6\n        /* \"contracts/Pool.sol\":1886:1897  amount == 0 */\n      sub\n        /* \"contracts/Pool.sol\":1883:1926  if(amount == 0) revert AMOUNT_EQUALS_ZERO() */\n      tag_209\n      jumpi\n        /* \"contracts/Pool.sol\":1906:1926  AMOUNT_EQUALS_ZERO() */\n      mload(0x40)\n      0x8966f48700000000000000000000000000000000000000000000000000000000\n      dup2\n      mstore\n      0x04\n      add\n      mload(0x40)\n      dup1\n      swap2\n      sub\n      swap1\n      revert\n        /* \"contracts/Pool.sol\":1883:1926  if(amount == 0) revert AMOUNT_EQUALS_ZERO() */\n    tag_209:\n        /* \"contracts/Pool.sol\":1949:1970  _quote(token, amount) */\n      tag_210\n        /* \"contracts/Pool.sol\":1956:1961  token */\n      dup7\n        /* \"contracts/Pool.sol\":1963:1969  amount */\n      dup7\n        /* \"contracts/Pool.sol\":1949:1955  _quote */\n      tag_193\n        /* \"contracts/Pool.sol\":1949:1970  _quote(token, amount) */\n      jump\t// in\n    tag_210:\n        /* \"contracts/Pool.sol\":1937:1970  amountOut = _quote(token, amount) */\n      swap4\n      pop\n        /* \"contracts/Pool.sol\":1981:1999  address swap_token */\n      0x00\n        /* \"contracts/Pool.sol\":2011:2017  token0 */\n      dup3\n        /* \"contracts/Pool.sol\":2002:2017  token == token0 */\n      0xffffffffffffffffffffffffffffffffffffffff\n      and\n        /* \"contracts/Pool.sol\":2002:2007  token */\n      dup8\n        /* \"contracts/Pool.sol\":2002:2017  token == token0 */\n      0xffffffffffffffffffffffffffffffffffffffff\n      and\n      eq\n        /* \"contracts/Pool.sol\":2002:2035  token == token0 ? token1 : token0 */\n      tag_211\n      jumpi\n        /* \"contracts/Pool.sol\":2029:2035  token0 */\n      dup3\n        /* \"contracts/Pool.sol\":2002:2035  token == token0 ? token1 : token0 */\n      jump(tag_212)\n    tag_211:\n        /* \"contracts/Pool.sol\":2020:2026  token1 */\n      dup2\n        /* \"contracts/Pool.sol\":2002:2035  token == token0 ? token1 : token0 */\n    tag_212:\n        /* \"contracts/Pool.sol\":1981:2035  address swap_token = token == token0 ? token1 : token0 */\n      swap1\n      pop\n        /* \"contracts/Pool.sol\":2099:2108  amountOut */\n      dup5\n        /* \"contracts/Pool.sol\":2095:2096  2 */\n      0x02\n        /* \"contracts/Pool.sol\":2056:2066  swap_token */\n      dup3\n        /* \"contracts/Pool.sol\":2049:2077  IERC20(swap_token).balanceOf */\n      0xffffffffffffffffffffffffffffffffffffffff\n      and\n      0x70a08231\n        /* \"contracts/Pool.sol\":2086:2090  this */\n      address\n        /* \"contracts/Pool.sol\":2049:2092  IERC20(swap_token).balanceOf(address(this)) */\n      mload(0x40)\n      dup3\n      0xffffffff\n      and\n      0xe0\n      shl\n      dup2\n      mstore\n      0x04\n      add\n      tag_213\n      swap2\n      swap1\n      tag_96\n      jump\t// in\n    tag_213:\n      0x20\n      mload(0x40)\n      dup1\n      dup4\n      sub\n      dup2\n      dup7\n      gas\n      staticcall\n      iszero\n      dup1\n      iszero\n      tag_215\n      jumpi\n      returndatasize\n      0x00\n      dup1\n      returndatacopy\n      revert(0x00, returndatasize)\n    tag_215:\n      pop\n      pop\n      pop\n      pop\n      mload(0x40)\n      returndatasize\n      not(0x1f)\n      0x1f\n      dup3\n      add\n      and\n      dup3\n      add\n      dup1\n      0x40\n      mstore\n      pop\n      dup2\n      add\n      swap1\n      tag_216\n      swap2\n      swap1\n      tag_217\n      jump\t// in\n    tag_216:\n        /* \"contracts/Pool.sol\":2049:2096  IERC20(swap_token).balanceOf(address(this)) / 2 */\n      tag_218\n      swap2\n      swap1\n      tag_135\n      jump\t// in\n    tag_218:\n        /* \"contracts/Pool.sol\":2049:2108  IERC20(swap_token).balanceOf(address(this)) / 2 < amountOut */\n      lt\n        /* \"contracts/Pool.sol\":2046:2137  if(IERC20(swap_token).balanceOf(address(this)) / 2 < amountOut) revert NOT_ENOUGH_BALANCE() */\n      iszero\n      tag_219\n      jumpi\n        /* \"contracts/Pool.sol\":2117:2137  NOT_ENOUGH_BALANCE() */\n      mload(0x40)\n      0x8cab1f2800000000000000000000000000000000000000000000000000000000\n      dup2\n      mstore\n      0x04\n      add\n      mload(0x40)\n      dup1\n      swap2\n      sub\n      swap1\n      revert\n        /* \"contracts/Pool.sol\":2046:2137  if(IERC20(swap_token).balanceOf(address(this)) / 2 < amountOut) revert NOT_ENOUGH_BALANCE() */\n    tag_219:\n        /* \"contracts/Pool.sol\":2217:2268  _transfer(token, msg.sender, address(this), amount) */\n      tag_220\n        /* \"contracts/Pool.sol\":2227:2232  token */\n      dup8\n        /* \"contracts/Pool.sol\":2234:2244  msg.sender */\n      caller\n        /* \"contracts/Pool.sol\":2254:2258  this */\n      address\n        /* \"contracts/Pool.sol\":2261:2267  amount */\n      dup10\n        /* \"contracts/Pool.sol\":2217:2226  _transfer */\n      tag_143\n        /* \"contracts/Pool.sol\":2217:2268  _transfer(token, msg.sender, address(this), amount) */\n      jump\t// in\n    tag_220:\n        /* \"contracts/Pool.sol\":2279:2301  uint256 amountWithFees */\n      0x00\n        /* \"contracts/Pool.sol\":2325:2330  10000 */\n      0x2710\n        /* \"contracts/Pool.sol\":645:647  30 */\n      0x1e\n        /* \"contracts/Pool.sol\":2304:2313  amountOut */\n      dup8\n        /* \"contracts/Pool.sol\":2304:2322  amountOut * LP_FEE */\n      tag_221\n      swap2\n      swap1\n      tag_133\n      jump\t// in\n    tag_221:\n        /* \"contracts/Pool.sol\":2304:2330  amountOut * LP_FEE / 10000 */\n      tag_222\n      swap2\n      swap1\n      tag_135\n      jump\t// in\n    tag_222:\n        /* \"contracts/Pool.sol\":2279:2330  uint256 amountWithFees = amountOut * LP_FEE / 10000 */\n      swap1\n      pop\n        /* \"contracts/Pool.sol\":2341:2405  _transfer(swap_token, address(this), msg.sender, amountWithFees) */\n      tag_223\n        /* \"contracts/Pool.sol\":2351:2361  swap_token */\n      dup3\n        /* \"contracts/Pool.sol\":2371:2375  this */\n      address\n        /* \"contracts/Pool.sol\":2378:2388  msg.sender */\n      caller\n        /* \"contracts/Pool.sol\":2390:2404  amountWithFees */\n      dup5\n        /* \"contracts/Pool.sol\":2341:2350  _transfer */\n      tag_143\n        /* \"contracts/Pool.sol\":2341:2405  _transfer(swap_token, address(this), msg.sender, amountWithFees) */\n      jump\t// in\n    tag_223:\n        /* \"contracts/Pool.sol\":2433:2439  token0 */\n      dup4\n        /* \"contracts/Pool.sol\":2419:2439  swap_token == token0 */\n      0xffffffffffffffffffffffffffffffffffffffff\n      and\n        /* \"contracts/Pool.sol\":2419:2429  swap_token */\n      dup3\n        /* \"contracts/Pool.sol\":2419:2439  swap_token == token0 */\n      0xffffffffffffffffffffffffffffffffffffffff\n      and\n      sub\n        /* \"contracts/Pool.sol\":2416:2624  if(swap_token == token0){... */\n      tag_224\n      jumpi\n        /* \"contracts/Pool.sol\":2469:2478  amountOut */\n      dup6\n        /* \"contracts/Pool.sol\":2455:2465  s_reserve0 */\n      0x05\n      0x00\n        /* \"contracts/Pool.sol\":2455:2478  s_reserve0 -= amountOut */\n      dup3\n      dup3\n      sload\n      tag_225\n      swap2\n      swap1\n      tag_148\n      jump\t// in\n    tag_225:\n      swap3\n      pop\n      pop\n      dup2\n      swap1\n      sstore\n      pop\n        /* \"contracts/Pool.sol\":2507:2513  amount */\n      dup7\n        /* \"contracts/Pool.sol\":2493:2503  s_reserve1 */\n      0x06\n      0x00\n        /* \"contracts/Pool.sol\":2493:2513  s_reserve1 += amount */\n      dup3\n      dup3\n      sload\n      tag_226\n      swap2\n      swap1\n      tag_227\n      jump\t// in\n    tag_226:\n      swap3\n      pop\n      pop\n      dup2\n      swap1\n      sstore\n      pop\n        /* \"contracts/Pool.sol\":2416:2624  if(swap_token == token0){... */\n      jump(tag_228)\n    tag_224:\n        /* \"contracts/Pool.sol\":2568:2574  amount */\n      dup7\n        /* \"contracts/Pool.sol\":2554:2564  s_reserve0 */\n      0x05\n      0x00\n        /* \"contracts/Pool.sol\":2554:2574  s_reserve0 += amount */\n      dup3\n      dup3\n      sload\n      tag_229\n      swap2\n      swap1\n      tag_227\n      jump\t// in\n    tag_229:\n      swap3\n      pop\n      pop\n      dup2\n      swap1\n      sstore\n      pop\n        /* \"contracts/Pool.sol\":2603:2612  amountOut */\n      dup6\n        /* \"contracts/Pool.sol\":2589:2599  s_reserve1 */\n      0x06\n      0x00\n        /* \"contracts/Pool.sol\":2589:2612  s_reserve1 -= amountOut */\n      dup3\n      dup3\n      sload\n      tag_230\n      swap2\n      swap1\n      tag_148\n      jump\t// in\n    tag_230:\n      swap3\n      pop\n      pop\n      dup2\n      swap1\n      sstore\n      pop\n        /* \"contracts/Pool.sol\":2416:2624  if(swap_token == token0){... */\n    tag_228:\n        /* \"contracts/Pool.sol\":2639:2689  Swap(swap_token, token, amountWithFees, amountOut) */\n      0xfa2dda1cc1b86e41239702756b13effbc1a092b5c57e3ad320fbe4f3b13fe235\n        /* \"contracts/Pool.sol\":2644:2654  swap_token */\n      dup3\n        /* \"contracts/Pool.sol\":2656:2661  token */\n      dup10\n        /* \"contracts/Pool.sol\":2663:2677  amountWithFees */\n      dup4\n        /* \"contracts/Pool.sol\":2679:2688  amountOut */\n      dup10\n        /* \"contracts/Pool.sol\":2639:2689  Swap(swap_token, token, amountWithFees, amountOut) */\n      mload(0x40)\n      tag_231\n      swap5\n      swap4\n      swap3\n      swap2\n      swap1\n      tag_232\n      jump\t// in\n    tag_231:\n      mload(0x40)\n      dup1\n      swap2\n      sub\n      swap1\n      log1\n        /* \"contracts/Pool.sol\":1800:2697  {... */\n      pop\n      pop\n      pop\n      pop\n        /* \"contracts/Pool.sol\":1695:2697  function swap(address token, uint256 amount) external checkTokenInside(token) returns(uint256 amountOut) {... */\n      pop\n      swap3\n      swap2\n      pop\n      pop\n      jump\t// out\n        /* \"https://github.com/Vectorized/solady/blob/e4a14a5b365b353352f7c38e699a2bc9363d6576/src/tokens/ERC20.sol\":13324:16539  function permit(... */\n    tag_104:\n        /* \"https://github.com/Vectorized/solady/blob/e4a14a5b365b353352f7c38e699a2bc9363d6576/src/tokens/ERC20.sol\":13523:13539  bytes32 nameHash */\n      0x00\n        /* \"https://github.com/Vectorized/solady/blob/e4a14a5b365b353352f7c38e699a2bc9363d6576/src/tokens/ERC20.sol\":13542:13561  _constantNameHash() */\n      tag_234\n        /* \"https://github.com/Vectorized/solady/blob/e4a14a5b365b353352f7c38e699a2bc9363d6576/src/tokens/ERC20.sol\":13542:13559  _constantNameHash */\n      tag_156\n        /* \"https://github.com/Vectorized/solady/blob/e4a14a5b365b353352f7c38e699a2bc9363d6576/src/tokens/ERC20.sol\":13542:13561  _constantNameHash() */\n      jump\t// in\n    tag_234:\n        /* \"https://github.com/Vectorized/solady/blob/e4a14a5b365b353352f7c38e699a2bc9363d6576/src/tokens/ERC20.sol\":13523:13561  bytes32 nameHash = _constantNameHash() */\n      swap1\n      pop\n        /* \"https://github.com/Vectorized/solady/blob/e4a14a5b365b353352f7c38e699a2bc9363d6576/src/tokens/ERC20.sol\":13689:13690  0 */\n      0x00\n        /* \"https://github.com/Vectorized/solady/blob/e4a14a5b365b353352f7c38e699a2bc9363d6576/src/tokens/ERC20.sol\":13681:13691  bytes32(0) */\n      dup1\n      shl\n        /* \"https://github.com/Vectorized/solady/blob/e4a14a5b365b353352f7c38e699a2bc9363d6576/src/tokens/ERC20.sol\":13669:13677  nameHash */\n      dup2\n        /* \"https://github.com/Vectorized/solady/blob/e4a14a5b365b353352f7c38e699a2bc9363d6576/src/tokens/ERC20.sol\":13669:13691  nameHash == bytes32(0) */\n      sub\n        /* \"https://github.com/Vectorized/solady/blob/e4a14a5b365b353352f7c38e699a2bc9363d6576/src/tokens/ERC20.sol\":13665:13728  if (nameHash == bytes32(0)) nameHash = keccak256(bytes(name())) */\n      tag_235\n      jumpi\n        /* \"https://github.com/Vectorized/solady/blob/e4a14a5b365b353352f7c38e699a2bc9363d6576/src/tokens/ERC20.sol\":13720:13726  name() */\n      tag_236\n        /* \"https://github.com/Vectorized/solady/blob/e4a14a5b365b353352f7c38e699a2bc9363d6576/src/tokens/ERC20.sol\":13720:13724  name */\n      tag_28\n        /* \"https://github.com/Vectorized/solady/blob/e4a14a5b365b353352f7c38e699a2bc9363d6576/src/tokens/ERC20.sol\":13720:13726  name() */\n      jump\t// in\n    tag_236:\n        /* \"https://github.com/Vectorized/solady/blob/e4a14a5b365b353352f7c38e699a2bc9363d6576/src/tokens/ERC20.sol\":13704:13728  keccak256(bytes(name())) */\n      dup1\n      mload\n      swap1\n      0x20\n      add\n      keccak256\n        /* \"https://github.com/Vectorized/solady/blob/e4a14a5b365b353352f7c38e699a2bc9363d6576/src/tokens/ERC20.sol\":13693:13728  nameHash = keccak256(bytes(name())) */\n      swap1\n      pop\n        /* \"https://github.com/Vectorized/solady/blob/e4a14a5b365b353352f7c38e699a2bc9363d6576/src/tokens/ERC20.sol\":13665:13728  if (nameHash == bytes32(0)) nameHash = keccak256(bytes(name())) */\n    tag_235:\n        /* \"https://github.com/Vectorized/solady/blob/e4a14a5b365b353352f7c38e699a2bc9363d6576/src/tokens/ERC20.sol\":13896:13904  deadline */\n      dup5\n        /* \"https://github.com/Vectorized/solady/blob/e4a14a5b365b353352f7c38e699a2bc9363d6576/src/tokens/ERC20.sol\":13883:13894  timestamp() */\n      timestamp\n        /* \"https://github.com/Vectorized/solady/blob/e4a14a5b365b353352f7c38e699a2bc9363d6576/src/tokens/ERC20.sol\":13880:13905  gt(timestamp(), deadline) */\n      gt\n        /* \"https://github.com/Vectorized/solady/blob/e4a14a5b365b353352f7c38e699a2bc9363d6576/src/tokens/ERC20.sol\":13877:14019  if gt(timestamp(), deadline) {... */\n      iszero\n      tag_237\n      jumpi\n        /* \"https://github.com/Vectorized/solady/blob/e4a14a5b365b353352f7c38e699a2bc9363d6576/src/tokens/ERC20.sol\":13937:13947  0x1a15a3cc */\n      0x1a15a3cc\n        /* \"https://github.com/Vectorized/solady/blob/e4a14a5b365b353352f7c38e699a2bc9363d6576/src/tokens/ERC20.sol\":13931:13935  0x00 */\n      0x00\n        /* \"https://github.com/Vectorized/solady/blob/e4a14a5b365b353352f7c38e699a2bc9363d6576/src/tokens/ERC20.sol\":13924:13948  mstore(0x00, 0x1a15a3cc) */\n      mstore\n        /* \"https://github.com/Vectorized/solady/blob/e4a14a5b365b353352f7c38e699a2bc9363d6576/src/tokens/ERC20.sol\":14000:14004  0x04 */\n      0x04\n        /* \"https://github.com/Vectorized/solady/blob/e4a14a5b365b353352f7c38e699a2bc9363d6576/src/tokens/ERC20.sol\":13994:13998  0x1c */\n      0x1c\n        /* \"https://github.com/Vectorized/solady/blob/e4a14a5b365b353352f7c38e699a2bc9363d6576/src/tokens/ERC20.sol\":13987:14005  revert(0x1c, 0x04) */\n      revert\n        /* \"https://github.com/Vectorized/solady/blob/e4a14a5b365b353352f7c38e699a2bc9363d6576/src/tokens/ERC20.sol\":13877:14019  if gt(timestamp(), deadline) {... */\n    tag_237:\n        /* \"https://github.com/Vectorized/solady/blob/e4a14a5b365b353352f7c38e699a2bc9363d6576/src/tokens/ERC20.sol\":14047:14051  0x40 */\n      0x40\n        /* \"https://github.com/Vectorized/solady/blob/e4a14a5b365b353352f7c38e699a2bc9363d6576/src/tokens/ERC20.sol\":14041:14052  mload(0x40) */\n      mload\n        /* \"https://github.com/Vectorized/solady/blob/e4a14a5b365b353352f7c38e699a2bc9363d6576/src/tokens/ERC20.sol\":14163:14168  owner */\n      dup9\n        /* \"https://github.com/Vectorized/solady/blob/e4a14a5b365b353352f7c38e699a2bc9363d6576/src/tokens/ERC20.sol\":14159:14161  96 */\n      0x60\n        /* \"https://github.com/Vectorized/solady/blob/e4a14a5b365b353352f7c38e699a2bc9363d6576/src/tokens/ERC20.sol\":14155:14169  shl(96, owner) */\n      shl\n        /* \"https://github.com/Vectorized/solady/blob/e4a14a5b365b353352f7c38e699a2bc9363d6576/src/tokens/ERC20.sol\":14151:14153  96 */\n      0x60\n        /* \"https://github.com/Vectorized/solady/blob/e4a14a5b365b353352f7c38e699a2bc9363d6576/src/tokens/ERC20.sol\":14147:14170  shr(96, shl(96, owner)) */\n      shr\n        /* \"https://github.com/Vectorized/solady/blob/e4a14a5b365b353352f7c38e699a2bc9363d6576/src/tokens/ERC20.sol\":14138:14170  owner := shr(96, shl(96, owner)) */\n      swap9\n      pop\n        /* \"https://github.com/Vectorized/solady/blob/e4a14a5b365b353352f7c38e699a2bc9363d6576/src/tokens/ERC20.sol\":14210:14217  spender */\n      dup8\n        /* \"https://github.com/Vectorized/solady/blob/e4a14a5b365b353352f7c38e699a2bc9363d6576/src/tokens/ERC20.sol\":14206:14208  96 */\n      0x60\n        /* \"https://github.com/Vectorized/solady/blob/e4a14a5b365b353352f7c38e699a2bc9363d6576/src/tokens/ERC20.sol\":14202:14218  shl(96, spender) */\n      shl\n        /* \"https://github.com/Vectorized/solady/blob/e4a14a5b365b353352f7c38e699a2bc9363d6576/src/tokens/ERC20.sol\":14198:14200  96 */\n      0x60\n        /* \"https://github.com/Vectorized/solady/blob/e4a14a5b365b353352f7c38e699a2bc9363d6576/src/tokens/ERC20.sol\":14194:14219  shr(96, shl(96, spender)) */\n      shr\n        /* \"https://github.com/Vectorized/solady/blob/e4a14a5b365b353352f7c38e699a2bc9363d6576/src/tokens/ERC20.sol\":14183:14219  spender := shr(96, shl(96, spender)) */\n      swap8\n      pop\n        /* \"https://github.com/Vectorized/solady/blob/e4a14a5b365b353352f7c38e699a2bc9363d6576/src/tokens/ERC20.sol\":14303:14342  _NONCES_SLOT_SEED_WITH_SIGNATURE_PREFIX */\n      0x383775081901\n        /* \"https://github.com/Vectorized/solady/blob/e4a14a5b365b353352f7c38e699a2bc9363d6576/src/tokens/ERC20.sol\":14297:14301  0x0e */\n      0x0e\n        /* \"https://github.com/Vectorized/solady/blob/e4a14a5b365b353352f7c38e699a2bc9363d6576/src/tokens/ERC20.sol\":14290:14343  mstore(0x0e, _NONCES_SLOT_SEED_WITH_SIGNATURE_PREFIX) */\n      mstore\n        /* \"https://github.com/Vectorized/solady/blob/e4a14a5b365b353352f7c38e699a2bc9363d6576/src/tokens/ERC20.sol\":14369:14374  owner */\n      dup9\n        /* \"https://github.com/Vectorized/solady/blob/e4a14a5b365b353352f7c38e699a2bc9363d6576/src/tokens/ERC20.sol\":14363:14367  0x00 */\n      0x00\n        /* \"https://github.com/Vectorized/solady/blob/e4a14a5b365b353352f7c38e699a2bc9363d6576/src/tokens/ERC20.sol\":14356:14375  mstore(0x00, owner) */\n      mstore\n        /* \"https://github.com/Vectorized/solady/blob/e4a14a5b365b353352f7c38e699a2bc9363d6576/src/tokens/ERC20.sol\":14421:14425  0x20 */\n      0x20\n        /* \"https://github.com/Vectorized/solady/blob/e4a14a5b365b353352f7c38e699a2bc9363d6576/src/tokens/ERC20.sol\":14415:14419  0x0c */\n      0x0c\n        /* \"https://github.com/Vectorized/solady/blob/e4a14a5b365b353352f7c38e699a2bc9363d6576/src/tokens/ERC20.sol\":14405:14426  keccak256(0x0c, 0x20) */\n      keccak256\n        /* \"https://github.com/Vectorized/solady/blob/e4a14a5b365b353352f7c38e699a2bc9363d6576/src/tokens/ERC20.sol\":14463:14472  nonceSlot */\n      dup1\n        /* \"https://github.com/Vectorized/solady/blob/e4a14a5b365b353352f7c38e699a2bc9363d6576/src/tokens/ERC20.sol\":14457:14473  sload(nonceSlot) */\n      sload\n        /* \"https://github.com/Vectorized/solady/blob/e4a14a5b365b353352f7c38e699a2bc9363d6576/src/tokens/ERC20.sol\":14541:14557  _DOMAIN_TYPEHASH */\n      0x8b73c3c69bb8fe3d512ecc4cf759cc79239f7b179b0ffacaa9a75d522b39400f\n        /* \"https://github.com/Vectorized/solady/blob/e4a14a5b365b353352f7c38e699a2bc9363d6576/src/tokens/ERC20.sol\":14538:14539  m */\n      dup4\n        /* \"https://github.com/Vectorized/solady/blob/e4a14a5b365b353352f7c38e699a2bc9363d6576/src/tokens/ERC20.sol\":14531:14558  mstore(m, _DOMAIN_TYPEHASH) */\n      mstore\n        /* \"https://github.com/Vectorized/solady/blob/e4a14a5b365b353352f7c38e699a2bc9363d6576/src/tokens/ERC20.sol\":14592:14600  nameHash */\n      dup4\n        /* \"https://github.com/Vectorized/solady/blob/e4a14a5b365b353352f7c38e699a2bc9363d6576/src/tokens/ERC20.sol\":14585:14589  0x20 */\n      0x20\n        /* \"https://github.com/Vectorized/solady/blob/e4a14a5b365b353352f7c38e699a2bc9363d6576/src/tokens/ERC20.sol\":14582:14583  m */\n      dup5\n        /* \"https://github.com/Vectorized/solady/blob/e4a14a5b365b353352f7c38e699a2bc9363d6576/src/tokens/ERC20.sol\":14578:14590  add(m, 0x20) */\n      add\n        /* \"https://github.com/Vectorized/solady/blob/e4a14a5b365b353352f7c38e699a2bc9363d6576/src/tokens/ERC20.sol\":14571:14601  mstore(add(m, 0x20), nameHash) */\n      mstore\n        /* \"https://github.com/Vectorized/solady/blob/e4a14a5b365b353352f7c38e699a2bc9363d6576/src/tokens/ERC20.sol\":14635:14648  _VERSION_HASH */\n      0xc89efdaa54c0f20c7adf612882df0950f5a951637e0307cdcb4c672f298b8bc6\n        /* \"https://github.com/Vectorized/solady/blob/e4a14a5b365b353352f7c38e699a2bc9363d6576/src/tokens/ERC20.sol\":14628:14632  0x40 */\n      0x40\n        /* \"https://github.com/Vectorized/solady/blob/e4a14a5b365b353352f7c38e699a2bc9363d6576/src/tokens/ERC20.sol\":14625:14626  m */\n      dup5\n        /* \"https://github.com/Vectorized/solady/blob/e4a14a5b365b353352f7c38e699a2bc9363d6576/src/tokens/ERC20.sol\":14621:14633  add(m, 0x40) */\n      add\n        /* \"https://github.com/Vectorized/solady/blob/e4a14a5b365b353352f7c38e699a2bc9363d6576/src/tokens/ERC20.sol\":14614:14649  mstore(add(m, 0x40), _VERSION_HASH) */\n      mstore\n        /* \"https://github.com/Vectorized/solady/blob/e4a14a5b365b353352f7c38e699a2bc9363d6576/src/tokens/ERC20.sol\":14683:14692  chainid() */\n      chainid\n        /* \"https://github.com/Vectorized/solady/blob/e4a14a5b365b353352f7c38e699a2bc9363d6576/src/tokens/ERC20.sol\":14676:14680  0x60 */\n      0x60\n        /* \"https://github.com/Vectorized/solady/blob/e4a14a5b365b353352f7c38e699a2bc9363d6576/src/tokens/ERC20.sol\":14673:14674  m */\n      dup5\n        /* \"https://github.com/Vectorized/solady/blob/e4a14a5b365b353352f7c38e699a2bc9363d6576/src/tokens/ERC20.sol\":14669:14681  add(m, 0x60) */\n      add\n        /* \"https://github.com/Vectorized/solady/blob/e4a14a5b365b353352f7c38e699a2bc9363d6576/src/tokens/ERC20.sol\":14662:14693  mstore(add(m, 0x60), chainid()) */\n      mstore\n        /* \"https://github.com/Vectorized/solady/blob/e4a14a5b365b353352f7c38e699a2bc9363d6576/src/tokens/ERC20.sol\":14727:14736  address() */\n      address\n        /* \"https://github.com/Vectorized/solady/blob/e4a14a5b365b353352f7c38e699a2bc9363d6576/src/tokens/ERC20.sol\":14720:14724  0x80 */\n      0x80\n        /* \"https://github.com/Vectorized/solady/blob/e4a14a5b365b353352f7c38e699a2bc9363d6576/src/tokens/ERC20.sol\":14717:14718  m */\n      dup5\n        /* \"https://github.com/Vectorized/solady/blob/e4a14a5b365b353352f7c38e699a2bc9363d6576/src/tokens/ERC20.sol\":14713:14725  add(m, 0x80) */\n      add\n        /* \"https://github.com/Vectorized/solady/blob/e4a14a5b365b353352f7c38e699a2bc9363d6576/src/tokens/ERC20.sol\":14706:14737  mstore(add(m, 0x80), address()) */\n      mstore\n        /* \"https://github.com/Vectorized/solady/blob/e4a14a5b365b353352f7c38e699a2bc9363d6576/src/tokens/ERC20.sol\":14776:14780  0xa0 */\n      0xa0\n        /* \"https://github.com/Vectorized/solady/blob/e4a14a5b365b353352f7c38e699a2bc9363d6576/src/tokens/ERC20.sol\":14773:14774  m */\n      dup4\n        /* \"https://github.com/Vectorized/solady/blob/e4a14a5b365b353352f7c38e699a2bc9363d6576/src/tokens/ERC20.sol\":14763:14781  keccak256(m, 0xa0) */\n      keccak256\n        /* \"https://github.com/Vectorized/solady/blob/e4a14a5b365b353352f7c38e699a2bc9363d6576/src/tokens/ERC20.sol\":14757:14761  0x2e */\n      0x2e\n        /* \"https://github.com/Vectorized/solady/blob/e4a14a5b365b353352f7c38e699a2bc9363d6576/src/tokens/ERC20.sol\":14750:14782  mstore(0x2e, keccak256(m, 0xa0)) */\n      mstore\n        /* \"https://github.com/Vectorized/solady/blob/e4a14a5b365b353352f7c38e699a2bc9363d6576/src/tokens/ERC20.sol\":14845:14861  _PERMIT_TYPEHASH */\n      0x6e71edae12b1b97f4d1f60370fef10105fa2faae0126114a169c64845d6126c9\n        /* \"https://github.com/Vectorized/solady/blob/e4a14a5b365b353352f7c38e699a2bc9363d6576/src/tokens/ERC20.sol\":14842:14843  m */\n      dup4\n        /* \"https://github.com/Vectorized/solady/blob/e4a14a5b365b353352f7c38e699a2bc9363d6576/src/tokens/ERC20.sol\":14835:14862  mstore(m, _PERMIT_TYPEHASH) */\n      mstore\n        /* \"https://github.com/Vectorized/solady/blob/e4a14a5b365b353352f7c38e699a2bc9363d6576/src/tokens/ERC20.sol\":14896:14901  owner */\n      dup11\n        /* \"https://github.com/Vectorized/solady/blob/e4a14a5b365b353352f7c38e699a2bc9363d6576/src/tokens/ERC20.sol\":14889:14893  0x20 */\n      0x20\n        /* \"https://github.com/Vectorized/solady/blob/e4a14a5b365b353352f7c38e699a2bc9363d6576/src/tokens/ERC20.sol\":14886:14887  m */\n      dup5\n        /* \"https://github.com/Vectorized/solady/blob/e4a14a5b365b353352f7c38e699a2bc9363d6576/src/tokens/ERC20.sol\":14882:14894  add(m, 0x20) */\n      add\n        /* \"https://github.com/Vectorized/solady/blob/e4a14a5b365b353352f7c38e699a2bc9363d6576/src/tokens/ERC20.sol\":14875:14902  mstore(add(m, 0x20), owner) */\n      mstore\n        /* \"https://github.com/Vectorized/solady/blob/e4a14a5b365b353352f7c38e699a2bc9363d6576/src/tokens/ERC20.sol\":14936:14943  spender */\n      dup10\n        /* \"https://github.com/Vectorized/solady/blob/e4a14a5b365b353352f7c38e699a2bc9363d6576/src/tokens/ERC20.sol\":14929:14933  0x40 */\n      0x40\n        /* \"https://github.com/Vectorized/solady/blob/e4a14a5b365b353352f7c38e699a2bc9363d6576/src/tokens/ERC20.sol\":14926:14927  m */\n      dup5\n        /* \"https://github.com/Vectorized/solady/blob/e4a14a5b365b353352f7c38e699a2bc9363d6576/src/tokens/ERC20.sol\":14922:14934  add(m, 0x40) */\n      add\n        /* \"https://github.com/Vectorized/solady/blob/e4a14a5b365b353352f7c38e699a2bc9363d6576/src/tokens/ERC20.sol\":14915:14944  mstore(add(m, 0x40), spender) */\n      mstore\n        /* \"https://github.com/Vectorized/solady/blob/e4a14a5b365b353352f7c38e699a2bc9363d6576/src/tokens/ERC20.sol\":14978:14983  value */\n      dup9\n        /* \"https://github.com/Vectorized/solady/blob/e4a14a5b365b353352f7c38e699a2bc9363d6576/src/tokens/ERC20.sol\":14971:14975  0x60 */\n      0x60\n        /* \"https://github.com/Vectorized/solady/blob/e4a14a5b365b353352f7c38e699a2bc9363d6576/src/tokens/ERC20.sol\":14968:14969  m */\n      dup5\n        /* \"https://github.com/Vectorized/solady/blob/e4a14a5b365b353352f7c38e699a2bc9363d6576/src/tokens/ERC20.sol\":14964:14976  add(m, 0x60) */\n      add\n        /* \"https://github.com/Vectorized/solady/blob/e4a14a5b365b353352f7c38e699a2bc9363d6576/src/tokens/ERC20.sol\":14957:14984  mstore(add(m, 0x60), value) */\n      mstore\n        /* \"https://github.com/Vectorized/solady/blob/e4a14a5b365b353352f7c38e699a2bc9363d6576/src/tokens/ERC20.sol\":15018:15028  nonceValue */\n      dup1\n        /* \"https://github.com/Vectorized/solady/blob/e4a14a5b365b353352f7c38e699a2bc9363d6576/src/tokens/ERC20.sol\":15011:15015  0x80 */\n      0x80\n        /* \"https://github.com/Vectorized/solady/blob/e4a14a5b365b353352f7c38e699a2bc9363d6576/src/tokens/ERC20.sol\":15008:15009  m */\n      dup5\n        /* \"https://github.com/Vectorized/solady/blob/e4a14a5b365b353352f7c38e699a2bc9363d6576/src/tokens/ERC20.sol\":15004:15016  add(m, 0x80) */\n      add\n        /* \"https://github.com/Vectorized/solady/blob/e4a14a5b365b353352f7c38e699a2bc9363d6576/src/tokens/ERC20.sol\":14997:15029  mstore(add(m, 0x80), nonceValue) */\n      mstore\n        /* \"https://github.com/Vectorized/solady/blob/e4a14a5b365b353352f7c38e699a2bc9363d6576/src/tokens/ERC20.sol\":15063:15071  deadline */\n      dup8\n        /* \"https://github.com/Vectorized/solady/blob/e4a14a5b365b353352f7c38e699a2bc9363d6576/src/tokens/ERC20.sol\":15056:15060  0xa0 */\n      0xa0\n        /* \"https://github.com/Vectorized/solady/blob/e4a14a5b365b353352f7c38e699a2bc9363d6576/src/tokens/ERC20.sol\":15053:15054  m */\n      dup5\n        /* \"https://github.com/Vectorized/solady/blob/e4a14a5b365b353352f7c38e699a2bc9363d6576/src/tokens/ERC20.sol\":15049:15061  add(m, 0xa0) */\n      add\n        /* \"https://github.com/Vectorized/solady/blob/e4a14a5b365b353352f7c38e699a2bc9363d6576/src/tokens/ERC20.sol\":15042:15072  mstore(add(m, 0xa0), deadline) */\n      mstore\n        /* \"https://github.com/Vectorized/solady/blob/e4a14a5b365b353352f7c38e699a2bc9363d6576/src/tokens/ERC20.sol\":15111:15115  0xc0 */\n      0xc0\n        /* \"https://github.com/Vectorized/solady/blob/e4a14a5b365b353352f7c38e699a2bc9363d6576/src/tokens/ERC20.sol\":15108:15109  m */\n      dup4\n        /* \"https://github.com/Vectorized/solady/blob/e4a14a5b365b353352f7c38e699a2bc9363d6576/src/tokens/ERC20.sol\":15098:15116  keccak256(m, 0xc0) */\n      keccak256\n        /* \"https://github.com/Vectorized/solady/blob/e4a14a5b365b353352f7c38e699a2bc9363d6576/src/tokens/ERC20.sol\":15092:15096  0x4e */\n      0x4e\n        /* \"https://github.com/Vectorized/solady/blob/e4a14a5b365b353352f7c38e699a2bc9363d6576/src/tokens/ERC20.sol\":15085:15117  mstore(0x4e, keccak256(m, 0xc0)) */\n      mstore\n        /* \"https://github.com/Vectorized/solady/blob/e4a14a5b365b353352f7c38e699a2bc9363d6576/src/tokens/ERC20.sol\":15206:15210  0x42 */\n      0x42\n        /* \"https://github.com/Vectorized/solady/blob/e4a14a5b365b353352f7c38e699a2bc9363d6576/src/tokens/ERC20.sol\":15200:15204  0x2c */\n      0x2c\n        /* \"https://github.com/Vectorized/solady/blob/e4a14a5b365b353352f7c38e699a2bc9363d6576/src/tokens/ERC20.sol\":15190:15211  keccak256(0x2c, 0x42) */\n      keccak256\n        /* \"https://github.com/Vectorized/solady/blob/e4a14a5b365b353352f7c38e699a2bc9363d6576/src/tokens/ERC20.sol\":15184:15188  0x00 */\n      0x00\n        /* \"https://github.com/Vectorized/solady/blob/e4a14a5b365b353352f7c38e699a2bc9363d6576/src/tokens/ERC20.sol\":15177:15212  mstore(0x00, keccak256(0x2c, 0x42)) */\n      mstore\n        /* \"https://github.com/Vectorized/solady/blob/e4a14a5b365b353352f7c38e699a2bc9363d6576/src/tokens/ERC20.sol\":15248:15249  v */\n      dup7\n        /* \"https://github.com/Vectorized/solady/blob/e4a14a5b365b353352f7c38e699a2bc9363d6576/src/tokens/ERC20.sol\":15242:15246  0xff */\n      0xff\n        /* \"https://github.com/Vectorized/solady/blob/e4a14a5b365b353352f7c38e699a2bc9363d6576/src/tokens/ERC20.sol\":15238:15250  and(0xff, v) */\n      and\n        /* \"https://github.com/Vectorized/solady/blob/e4a14a5b365b353352f7c38e699a2bc9363d6576/src/tokens/ERC20.sol\":15232:15236  0x20 */\n      0x20\n        /* \"https://github.com/Vectorized/solady/blob/e4a14a5b365b353352f7c38e699a2bc9363d6576/src/tokens/ERC20.sol\":15225:15251  mstore(0x20, and(0xff, v)) */\n      mstore\n        /* \"https://github.com/Vectorized/solady/blob/e4a14a5b365b353352f7c38e699a2bc9363d6576/src/tokens/ERC20.sol\":15277:15278  r */\n      dup6\n        /* \"https://github.com/Vectorized/solady/blob/e4a14a5b365b353352f7c38e699a2bc9363d6576/src/tokens/ERC20.sol\":15271:15275  0x40 */\n      0x40\n        /* \"https://github.com/Vectorized/solady/blob/e4a14a5b365b353352f7c38e699a2bc9363d6576/src/tokens/ERC20.sol\":15264:15279  mstore(0x40, r) */\n      mstore\n        /* \"https://github.com/Vectorized/solady/blob/e4a14a5b365b353352f7c38e699a2bc9363d6576/src/tokens/ERC20.sol\":15305:15306  s */\n      dup5\n        /* \"https://github.com/Vectorized/solady/blob/e4a14a5b365b353352f7c38e699a2bc9363d6576/src/tokens/ERC20.sol\":15299:15303  0x60 */\n      0x60\n        /* \"https://github.com/Vectorized/solady/blob/e4a14a5b365b353352f7c38e699a2bc9363d6576/src/tokens/ERC20.sol\":15292:15307  mstore(0x60, s) */\n      mstore\n        /* \"https://github.com/Vectorized/solady/blob/e4a14a5b365b353352f7c38e699a2bc9363d6576/src/tokens/ERC20.sol\":15365:15369  0x20 */\n      0x20\n        /* \"https://github.com/Vectorized/solady/blob/e4a14a5b365b353352f7c38e699a2bc9363d6576/src/tokens/ERC20.sol\":15359:15363  0x20 */\n      dup1\n        /* \"https://github.com/Vectorized/solady/blob/e4a14a5b365b353352f7c38e699a2bc9363d6576/src/tokens/ERC20.sol\":15353:15357  0x80 */\n      0x80\n        /* \"https://github.com/Vectorized/solady/blob/e4a14a5b365b353352f7c38e699a2bc9363d6576/src/tokens/ERC20.sol\":15350:15351  0 */\n      0x00\n        /* \"https://github.com/Vectorized/solady/blob/e4a14a5b365b353352f7c38e699a2bc9363d6576/src/tokens/ERC20.sol\":15347:15348  1 */\n      0x01\n        /* \"https://github.com/Vectorized/solady/blob/e4a14a5b365b353352f7c38e699a2bc9363d6576/src/tokens/ERC20.sol\":15340:15345  gas() */\n      gas\n        /* \"https://github.com/Vectorized/solady/blob/e4a14a5b365b353352f7c38e699a2bc9363d6576/src/tokens/ERC20.sol\":15329:15370  staticcall(gas(), 1, 0, 0x80, 0x20, 0x20) */\n      staticcall\n        /* \"https://github.com/Vectorized/solady/blob/e4a14a5b365b353352f7c38e699a2bc9363d6576/src/tokens/ERC20.sol\":15786:15791  owner */\n      dup12\n        /* \"https://github.com/Vectorized/solady/blob/e4a14a5b365b353352f7c38e699a2bc9363d6576/src/tokens/ERC20.sol\":15767:15783  returndatasize() */\n      returndatasize\n        /* \"https://github.com/Vectorized/solady/blob/e4a14a5b365b353352f7c38e699a2bc9363d6576/src/tokens/ERC20.sol\":15761:15784  mload(returndatasize()) */\n      mload\n        /* \"https://github.com/Vectorized/solady/blob/e4a14a5b365b353352f7c38e699a2bc9363d6576/src/tokens/ERC20.sol\":15758:15792  eq(mload(returndatasize()), owner) */\n      eq\n        /* \"https://github.com/Vectorized/solady/blob/e4a14a5b365b353352f7c38e699a2bc9363d6576/src/tokens/ERC20.sol\":15748:15907  if iszero(eq(mload(returndatasize()), owner)) {... */\n      tag_238\n      jumpi\n        /* \"https://github.com/Vectorized/solady/blob/e4a14a5b365b353352f7c38e699a2bc9363d6576/src/tokens/ERC20.sol\":15825:15835  0xddafbaef */\n      0xddafbaef\n        /* \"https://github.com/Vectorized/solady/blob/e4a14a5b365b353352f7c38e699a2bc9363d6576/src/tokens/ERC20.sol\":15819:15823  0x00 */\n      0x00\n        /* \"https://github.com/Vectorized/solady/blob/e4a14a5b365b353352f7c38e699a2bc9363d6576/src/tokens/ERC20.sol\":15812:15836  mstore(0x00, 0xddafbaef) */\n      mstore\n        /* \"https://github.com/Vectorized/solady/blob/e4a14a5b365b353352f7c38e699a2bc9363d6576/src/tokens/ERC20.sol\":15888:15892  0x04 */\n      0x04\n        /* \"https://github.com/Vectorized/solady/blob/e4a14a5b365b353352f7c38e699a2bc9363d6576/src/tokens/ERC20.sol\":15882:15886  0x1c */\n      0x1c\n        /* \"https://github.com/Vectorized/solady/blob/e4a14a5b365b353352f7c38e699a2bc9363d6576/src/tokens/ERC20.sol\":15875:15893  revert(0x1c, 0x04) */\n      revert\n        /* \"https://github.com/Vectorized/solady/blob/e4a14a5b365b353352f7c38e699a2bc9363d6576/src/tokens/ERC20.sol\":15748:15907  if iszero(eq(mload(returndatasize()), owner)) {... */\n    tag_238:\n        /* \"https://github.com/Vectorized/solady/blob/e4a14a5b365b353352f7c38e699a2bc9363d6576/src/tokens/ERC20.sol\":16008:16009  t */\n      dup1\n        /* \"https://github.com/Vectorized/solady/blob/e4a14a5b365b353352f7c38e699a2bc9363d6576/src/tokens/ERC20.sol\":15996:16006  nonceValue */\n      dup3\n        /* \"https://github.com/Vectorized/solady/blob/e4a14a5b365b353352f7c38e699a2bc9363d6576/src/tokens/ERC20.sol\":15992:16010  add(nonceValue, t) */\n      add\n        /* \"https://github.com/Vectorized/solady/blob/e4a14a5b365b353352f7c38e699a2bc9363d6576/src/tokens/ERC20.sol\":15981:15990  nonceSlot */\n      dup4\n        /* \"https://github.com/Vectorized/solady/blob/e4a14a5b365b353352f7c38e699a2bc9363d6576/src/tokens/ERC20.sol\":15974:16011  sstore(nonceSlot, add(nonceValue, t)) */\n      sstore\n        /* \"https://github.com/Vectorized/solady/blob/e4a14a5b365b353352f7c38e699a2bc9363d6576/src/tokens/ERC20.sol\":16222:16229  spender */\n      dup11\n        /* \"https://github.com/Vectorized/solady/blob/e4a14a5b365b353352f7c38e699a2bc9363d6576/src/tokens/ERC20.sol\":16199:16219  _ALLOWANCE_SLOT_SEED */\n      0x7f5e9f20\n        /* \"https://github.com/Vectorized/solady/blob/e4a14a5b365b353352f7c38e699a2bc9363d6576/src/tokens/ERC20.sol\":16194:16197  160 */\n      0xa0\n        /* \"https://github.com/Vectorized/solady/blob/e4a14a5b365b353352f7c38e699a2bc9363d6576/src/tokens/ERC20.sol\":16190:16220  shl(160, _ALLOWANCE_SLOT_SEED) */\n      shl\n        /* \"https://github.com/Vectorized/solady/blob/e4a14a5b365b353352f7c38e699a2bc9363d6576/src/tokens/ERC20.sol\":16187:16230  or(shl(160, _ALLOWANCE_SLOT_SEED), spender) */\n      or\n        /* \"https://github.com/Vectorized/solady/blob/e4a14a5b365b353352f7c38e699a2bc9363d6576/src/tokens/ERC20.sol\":16181:16185  0x40 */\n      0x40\n        /* \"https://github.com/Vectorized/solady/blob/e4a14a5b365b353352f7c38e699a2bc9363d6576/src/tokens/ERC20.sol\":16174:16231  mstore(0x40, or(shl(160, _ALLOWANCE_SLOT_SEED), spender)) */\n      mstore\n        /* \"https://github.com/Vectorized/solady/blob/e4a14a5b365b353352f7c38e699a2bc9363d6576/src/tokens/ERC20.sol\":16274:16279  value */\n      dup10\n        /* \"https://github.com/Vectorized/solady/blob/e4a14a5b365b353352f7c38e699a2bc9363d6576/src/tokens/ERC20.sol\":16267:16271  0x34 */\n      0x34\n        /* \"https://github.com/Vectorized/solady/blob/e4a14a5b365b353352f7c38e699a2bc9363d6576/src/tokens/ERC20.sol\":16261:16265  0x2c */\n      0x2c\n        /* \"https://github.com/Vectorized/solady/blob/e4a14a5b365b353352f7c38e699a2bc9363d6576/src/tokens/ERC20.sol\":16251:16272  keccak256(0x2c, 0x34) */\n      keccak256\n        /* \"https://github.com/Vectorized/solady/blob/e4a14a5b365b353352f7c38e699a2bc9363d6576/src/tokens/ERC20.sol\":16244:16280  sstore(keccak256(0x2c, 0x34), value) */\n      sstore\n        /* \"https://github.com/Vectorized/solady/blob/e4a14a5b365b353352f7c38e699a2bc9363d6576/src/tokens/ERC20.sol\":16394:16401  spender */\n      dup11\n        /* \"https://github.com/Vectorized/solady/blob/e4a14a5b365b353352f7c38e699a2bc9363d6576/src/tokens/ERC20.sol\":16387:16392  owner */\n      dup13\n        /* \"https://github.com/Vectorized/solady/blob/e4a14a5b365b353352f7c38e699a2bc9363d6576/src/tokens/ERC20.sol\":16360:16385  _APPROVAL_EVENT_SIGNATURE */\n      0x8c5be1e5ebec7d5bd14f71427d1e84f3dd0314c0f7b2291e5b200ac8c7c3b925\n        /* \"https://github.com/Vectorized/solady/blob/e4a14a5b365b353352f7c38e699a2bc9363d6576/src/tokens/ERC20.sol\":16354:16358  0x20 */\n      0x20\n        /* \"https://github.com/Vectorized/solady/blob/e4a14a5b365b353352f7c38e699a2bc9363d6576/src/tokens/ERC20.sol\":16347:16351  0x60 */\n      0x60\n        /* \"https://github.com/Vectorized/solady/blob/e4a14a5b365b353352f7c38e699a2bc9363d6576/src/tokens/ERC20.sol\":16344:16345  m */\n      dup9\n        /* \"https://github.com/Vectorized/solady/blob/e4a14a5b365b353352f7c38e699a2bc9363d6576/src/tokens/ERC20.sol\":16340:16352  add(m, 0x60) */\n      add\n        /* \"https://github.com/Vectorized/solady/blob/e4a14a5b365b353352f7c38e699a2bc9363d6576/src/tokens/ERC20.sol\":16335:16402  log3(add(m, 0x60), 0x20, _APPROVAL_EVENT_SIGNATURE, owner, spender) */\n      log3\n        /* \"https://github.com/Vectorized/solady/blob/e4a14a5b365b353352f7c38e699a2bc9363d6576/src/tokens/ERC20.sol\":16428:16429  m */\n      dup4\n        /* \"https://github.com/Vectorized/solady/blob/e4a14a5b365b353352f7c38e699a2bc9363d6576/src/tokens/ERC20.sol\":16422:16426  0x40 */\n      0x40\n        /* \"https://github.com/Vectorized/solady/blob/e4a14a5b365b353352f7c38e699a2bc9363d6576/src/tokens/ERC20.sol\":16415:16430  mstore(0x40, m) */\n      mstore\n        /* \"https://github.com/Vectorized/solady/blob/e4a14a5b365b353352f7c38e699a2bc9363d6576/src/tokens/ERC20.sol\":16492:16493  0 */\n      0x00\n        /* \"https://github.com/Vectorized/solady/blob/e4a14a5b365b353352f7c38e699a2bc9363d6576/src/tokens/ERC20.sol\":16486:16490  0x60 */\n      0x60\n        /* \"https://github.com/Vectorized/solady/blob/e4a14a5b365b353352f7c38e699a2bc9363d6576/src/tokens/ERC20.sol\":16479:16494  mstore(0x60, 0) */\n      mstore\n        /* \"https://github.com/Vectorized/solady/blob/e4a14a5b365b353352f7c38e699a2bc9363d6576/src/tokens/ERC20.sol\":13790:16533  {... */\n      pop\n      pop\n      pop\n      pop\n      pop\n        /* \"https://github.com/Vectorized/solady/blob/e4a14a5b365b353352f7c38e699a2bc9363d6576/src/tokens/ERC20.sol\":13324:16539  function permit(... */\n      pop\n      pop\n      pop\n      pop\n      pop\n      pop\n      pop\n      jump\t// out\n        /* \"https://github.com/Vectorized/solady/blob/e4a14a5b365b353352f7c38e699a2bc9363d6576/src/tokens/ERC20.sol\":6929:7304  function allowance(address owner, address spender)... */\n    tag_108:\n        /* \"https://github.com/Vectorized/solady/blob/e4a14a5b365b353352f7c38e699a2bc9363d6576/src/tokens/ERC20.sol\":7041:7055  uint256 result */\n      0x00\n        /* \"https://github.com/Vectorized/solady/blob/e4a14a5b365b353352f7c38e699a2bc9363d6576/src/tokens/ERC20.sol\":7150:7157  spender */\n      dup2\n        /* \"https://github.com/Vectorized/solady/blob/e4a14a5b365b353352f7c38e699a2bc9363d6576/src/tokens/ERC20.sol\":7144:7148  0x20 */\n      0x20\n        /* \"https://github.com/Vectorized/solady/blob/e4a14a5b365b353352f7c38e699a2bc9363d6576/src/tokens/ERC20.sol\":7137:7158  mstore(0x20, spender) */\n      mstore\n        /* \"https://github.com/Vectorized/solady/blob/e4a14a5b365b353352f7c38e699a2bc9363d6576/src/tokens/ERC20.sol\":7184:7204  _ALLOWANCE_SLOT_SEED */\n      0x7f5e9f20\n        /* \"https://github.com/Vectorized/solady/blob/e4a14a5b365b353352f7c38e699a2bc9363d6576/src/tokens/ERC20.sol\":7178:7182  0x0c */\n      0x0c\n        /* \"https://github.com/Vectorized/solady/blob/e4a14a5b365b353352f7c38e699a2bc9363d6576/src/tokens/ERC20.sol\":7171:7205  mstore(0x0c, _ALLOWANCE_SLOT_SEED) */\n      mstore\n        /* \"https://github.com/Vectorized/solady/blob/e4a14a5b365b353352f7c38e699a2bc9363d6576/src/tokens/ERC20.sol\":7231:7236  owner */\n      dup3\n        /* \"https://github.com/Vectorized/solady/blob/e4a14a5b365b353352f7c38e699a2bc9363d6576/src/tokens/ERC20.sol\":7225:7229  0x00 */\n      0x00\n        /* \"https://github.com/Vectorized/solady/blob/e4a14a5b365b353352f7c38e699a2bc9363d6576/src/tokens/ERC20.sol\":7218:7237  mstore(0x00, owner) */\n      mstore\n        /* \"https://github.com/Vectorized/solady/blob/e4a14a5b365b353352f7c38e699a2bc9363d6576/src/tokens/ERC20.sol\":7282:7286  0x34 */\n      0x34\n        /* \"https://github.com/Vectorized/solady/blob/e4a14a5b365b353352f7c38e699a2bc9363d6576/src/tokens/ERC20.sol\":7276:7280  0x0c */\n      0x0c\n        /* \"https://github.com/Vectorized/solady/blob/e4a14a5b365b353352f7c38e699a2bc9363d6576/src/tokens/ERC20.sol\":7266:7287  keccak256(0x0c, 0x34) */\n      keccak256\n        /* \"https://github.com/Vectorized/solady/blob/e4a14a5b365b353352f7c38e699a2bc9363d6576/src/tokens/ERC20.sol\":7260:7288  sload(keccak256(0x0c, 0x34)) */\n      sload\n        /* \"https://github.com/Vectorized/solady/blob/e4a14a5b365b353352f7c38e699a2bc9363d6576/src/tokens/ERC20.sol\":7250:7288  result := sload(keccak256(0x0c, 0x34)) */\n      swap1\n      pop\n        /* \"https://github.com/Vectorized/solady/blob/e4a14a5b365b353352f7c38e699a2bc9363d6576/src/tokens/ERC20.sol\":6929:7304  function allowance(address owner, address spender)... */\n      swap3\n      swap2\n      pop\n      pop\n      jump\t// out\n        /* \"contracts/Pool.sol\":2705:3833  function deposit(uint256 amount0, uint256 amount1) external returns(uint256 liquidity){... */\n    tag_113:\n        /* \"contracts/Pool.sol\":2773:2790  uint256 liquidity */\n      0x00\n        /* \"contracts/Pool.sol\":2802:2819  uint _totalSupply */\n      dup1\n        /* \"contracts/Pool.sol\":2822:2835  totalSupply() */\n      tag_241\n        /* \"contracts/Pool.sol\":2822:2833  totalSupply */\n      tag_42\n        /* \"contracts/Pool.sol\":2822:2835  totalSupply() */\n      jump\t// in\n    tag_241:\n        /* \"contracts/Pool.sol\":2802:2835  uint _totalSupply = totalSupply() */\n      swap1\n      pop\n        /* \"contracts/Pool.sol\":2847:2861  uint _reserve0 */\n      0x00\n        /* \"contracts/Pool.sol\":2863:2877  uint _reserve1 */\n      dup1\n        /* \"contracts/Pool.sol\":2882:2892  s_reserve0 */\n      sload(0x05)\n        /* \"contracts/Pool.sol\":2894:2904  s_reserve1 */\n      sload(0x06)\n        /* \"contracts/Pool.sol\":2846:2905  (uint _reserve0, uint _reserve1) = (s_reserve0, s_reserve1) */\n      swap2\n      pop\n      swap2\n      pop\n        /* \"contracts/Pool.sol\":2916:2971  _transfer(s_token0,  msg.sender,address(this), amount0) */\n      tag_242\n        /* \"contracts/Pool.sol\":2926:2934  s_token0 */\n      0x03\n      0x00\n      swap1\n      sload\n      swap1\n      0x0100\n      exp\n      swap1\n      div\n      0xffffffffffffffffffffffffffffffffffffffff\n      and\n        /* \"contracts/Pool.sol\":2937:2947  msg.sender */\n      caller\n        /* \"contracts/Pool.sol\":2956:2960  this */\n      address\n        /* \"contracts/Pool.sol\":2963:2970  amount0 */\n      dup10\n        /* \"contracts/Pool.sol\":2916:2925  _transfer */\n      tag_143\n        /* \"contracts/Pool.sol\":2916:2971  _transfer(s_token0,  msg.sender,address(this), amount0) */\n      jump\t// in\n    tag_242:\n        /* \"contracts/Pool.sol\":2982:3038  _transfer(s_token1, msg.sender, address(this),  amount1) */\n      tag_243\n        /* \"contracts/Pool.sol\":2992:3000  s_token1 */\n      0x04\n      0x00\n      swap1\n      sload\n      swap1\n      0x0100\n      exp\n      swap1\n      div\n      0xffffffffffffffffffffffffffffffffffffffff\n      and\n        /* \"contracts/Pool.sol\":3002:3012  msg.sender */\n      caller\n        /* \"contracts/Pool.sol\":3022:3026  this */\n      address\n        /* \"contracts/Pool.sol\":3030:3037  amount1 */\n      dup9\n        /* \"contracts/Pool.sol\":2982:2991  _transfer */\n      tag_143\n        /* \"contracts/Pool.sol\":2982:3038  _transfer(s_token1, msg.sender, address(this),  amount1) */\n      jump\t// in\n    tag_243:\n        /* \"contracts/Pool.sol\":3049:3078  mintFee(_reserve0, _reserve1) */\n      tag_244\n        /* \"contracts/Pool.sol\":3057:3066  _reserve0 */\n      dup3\n        /* \"contracts/Pool.sol\":3068:3077  _reserve1 */\n      dup3\n        /* \"contracts/Pool.sol\":3049:3056  mintFee */\n      tag_141\n        /* \"contracts/Pool.sol\":3049:3078  mintFee(_reserve0, _reserve1) */\n      jump\t// in\n    tag_244:\n        /* \"contracts/Pool.sol\":3108:3109  0 */\n      0x00\n        /* \"contracts/Pool.sol\":3092:3104  _totalSupply */\n      dup4\n        /* \"contracts/Pool.sol\":3092:3109  _totalSupply == 0 */\n      sub\n        /* \"contracts/Pool.sol\":3089:3553  if(_totalSupply == 0){... */\n      tag_245\n      jumpi\n        /* \"contracts/LP.sol\":282:287  10**3 */\n      0x03e8\n        /* \"contracts/Pool.sol\":3137:3160  sqrt(amount0 * amount1) */\n      tag_246\n        /* \"contracts/Pool.sol\":3152:3159  amount1 */\n      dup7\n        /* \"contracts/Pool.sol\":3142:3149  amount0 */\n      dup9\n        /* \"contracts/Pool.sol\":3142:3159  amount0 * amount1 */\n      tag_247\n      swap2\n      swap1\n      tag_133\n      jump\t// in\n    tag_247:\n        /* \"contracts/Pool.sol\":3137:3141  sqrt */\n      tag_68\n        /* \"contracts/Pool.sol\":3137:3160  sqrt(amount0 * amount1) */\n      jump\t// in\n    tag_246:\n        /* \"contracts/Pool.sol\":3137:3180  sqrt(amount0 * amount1) - MINIMUM_LIQUIDITY */\n      tag_248\n      swap2\n      swap1\n      tag_148\n      jump\t// in\n    tag_248:\n        /* \"contracts/Pool.sol\":3125:3180  liquidity = sqrt(amount0 * amount1) - MINIMUM_LIQUIDITY */\n      swap4\n      pop\n        /* \"contracts/Pool.sol\":3251:3287  _mint(address(0), MINIMUM_LIQUIDITY) */\n      tag_249\n        /* \"contracts/Pool.sol\":3265:3266  0 */\n      0x00\n        /* \"contracts/LP.sol\":282:287  10**3 */\n      0x03e8\n        /* \"contracts/Pool.sol\":3251:3256  _mint */\n      tag_250\n        /* \"contracts/Pool.sol\":3251:3287  _mint(address(0), MINIMUM_LIQUIDITY) */\n      jump\t// in\n    tag_249:\n        /* \"contracts/Pool.sol\":3089:3553  if(_totalSupply == 0){... */\n      jump(tag_251)\n    tag_245:\n        /* \"contracts/Pool.sol\":3318:3339  uint256 quotedAmount1 */\n      0x00\n        /* \"contracts/Pool.sol\":3342:3367  _quote(s_token0, amount0) */\n      tag_252\n        /* \"contracts/Pool.sol\":3349:3357  s_token0 */\n      0x03\n      0x00\n      swap1\n      sload\n      swap1\n      0x0100\n      exp\n      swap1\n      div\n      0xffffffffffffffffffffffffffffffffffffffff\n      and\n        /* \"contracts/Pool.sol\":3359:3366  amount0 */\n      dup9\n        /* \"contracts/Pool.sol\":3342:3348  _quote */\n      tag_193\n        /* \"contracts/Pool.sol\":3342:3367  _quote(s_token0, amount0) */\n      jump\t// in\n    tag_252:\n        /* \"contracts/Pool.sol\":3318:3367  uint256 quotedAmount1 = _quote(s_token0, amount0) */\n      swap1\n      pop\n        /* \"contracts/Pool.sol\":3401:3408  amount1 */\n      dup6\n        /* \"contracts/Pool.sol\":3385:3398  quotedAmount1 */\n      dup2\n        /* \"contracts/Pool.sol\":3385:3408  quotedAmount1 < amount1 */\n      lt\n        /* \"contracts/Pool.sol\":3382:3438  if(quotedAmount1 < amount1) revert INSUFFICIENT_AMOUNT() */\n      iszero\n      tag_253\n      jumpi\n        /* \"contracts/Pool.sol\":3417:3438  INSUFFICIENT_AMOUNT() */\n      mload(0x40)\n      0x2cd294cf00000000000000000000000000000000000000000000000000000000\n      dup2\n      mstore\n      0x04\n      add\n      mload(0x40)\n      dup1\n      swap2\n      sub\n      swap1\n      revert\n        /* \"contracts/Pool.sol\":3382:3438  if(quotedAmount1 < amount1) revert INSUFFICIENT_AMOUNT() */\n    tag_253:\n        /* \"contracts/Pool.sol\":3465:3541  min(amount0 * _totalSupply / _reserve0, amount1 *  _totalSupply / _reserve1) */\n      tag_254\n        /* \"contracts/Pool.sol\":3494:3503  _reserve0 */\n      dup4\n        /* \"contracts/Pool.sol\":3479:3491  _totalSupply */\n      dup6\n        /* \"contracts/Pool.sol\":3469:3476  amount0 */\n      dup10\n        /* \"contracts/Pool.sol\":3469:3491  amount0 * _totalSupply */\n      tag_255\n      swap2\n      swap1\n      tag_133\n      jump\t// in\n    tag_255:\n        /* \"contracts/Pool.sol\":3469:3503  amount0 * _totalSupply / _reserve0 */\n      tag_256\n      swap2\n      swap1\n      tag_135\n      jump\t// in\n    tag_256:\n        /* \"contracts/Pool.sol\":3531:3540  _reserve1 */\n      dup4\n        /* \"contracts/Pool.sol\":3516:3528  _totalSupply */\n      dup7\n        /* \"contracts/Pool.sol\":3505:3512  amount1 */\n      dup10\n        /* \"contracts/Pool.sol\":3505:3528  amount1 *  _totalSupply */\n      tag_257\n      swap2\n      swap1\n      tag_133\n      jump\t// in\n    tag_257:\n        /* \"contracts/Pool.sol\":3505:3540  amount1 *  _totalSupply / _reserve1 */\n      tag_258\n      swap2\n      swap1\n      tag_135\n      jump\t// in\n    tag_258:\n        /* \"contracts/Pool.sol\":3465:3468  min */\n      tag_259\n        /* \"contracts/Pool.sol\":3465:3541  min(amount0 * _totalSupply / _reserve0, amount1 *  _totalSupply / _reserve1) */\n      jump\t// in\n    tag_254:\n        /* \"contracts/Pool.sol\":3453:3541  liquidity = min(amount0 * _totalSupply / _reserve0, amount1 *  _totalSupply / _reserve1) */\n      swap5\n      pop\n        /* \"contracts/Pool.sol\":3303:3553  {... */\n      pop\n        /* \"contracts/Pool.sol\":3089:3553  if(_totalSupply == 0){... */\n    tag_251:\n        /* \"contracts/Pool.sol\":3570:3598  _mint(msg.sender, liquidity) */\n      tag_260\n        /* \"contracts/Pool.sol\":3576:3586  msg.sender */\n      caller\n        /* \"contracts/Pool.sol\":3588:3597  liquidity */\n      dup6\n        /* \"contracts/Pool.sol\":3570:3575  _mint */\n      tag_250\n        /* \"contracts/Pool.sol\":3570:3598  _mint(msg.sender, liquidity) */\n      jump\t// in\n    tag_260:\n        /* \"contracts/Pool.sol\":3623:3630  amount0 */\n      dup6\n        /* \"contracts/Pool.sol\":3609:3619  s_reserve0 */\n      0x05\n      0x00\n        /* \"contracts/Pool.sol\":3609:3630  s_reserve0 += amount0 */\n      dup3\n      dup3\n      sload\n      tag_261\n      swap2\n      swap1\n      tag_227\n      jump\t// in\n    tag_261:\n      swap3\n      pop\n      pop\n      dup2\n      swap1\n      sstore\n      pop\n        /* \"contracts/Pool.sol\":3655:3662  amount1 */\n      dup5\n        /* \"contracts/Pool.sol\":3641:3651  s_reserve1 */\n      0x06\n      0x00\n        /* \"contracts/Pool.sol\":3641:3662  s_reserve1 += amount1 */\n      dup3\n      dup3\n      sload\n      tag_262\n      swap2\n      swap1\n      tag_227\n      jump\t// in\n    tag_262:\n      swap3\n      pop\n      pop\n      dup2\n      swap1\n      sstore\n      pop\n        /* \"contracts/Pool.sol\":3694:3704  s_reserve1 */\n      sload(0x06)\n        /* \"contracts/Pool.sol\":3681:3691  s_reserve0 */\n      sload(0x05)\n        /* \"contracts/Pool.sol\":3681:3704  s_reserve0 * s_reserve1 */\n      tag_263\n      swap2\n      swap1\n      tag_133\n      jump\t// in\n    tag_263:\n        /* \"contracts/Pool.sol\":3673:3678  kLast */\n      0x02\n        /* \"contracts/Pool.sol\":3673:3704  kLast = s_reserve0 * s_reserve1 */\n      dup2\n      swap1\n      sstore\n      pop\n        /* \"contracts/Pool.sol\":3774:3825  Deposit(address(this), liquidity, amount0, amount1) */\n      0x36af321ec8d3c75236829c5317affd40ddb308863a1236d2d277a4025cccee1e\n        /* \"contracts/Pool.sol\":3790:3794  this */\n      address\n        /* \"contracts/Pool.sol\":3797:3806  liquidity */\n      dup6\n        /* \"contracts/Pool.sol\":3808:3815  amount0 */\n      dup9\n        /* \"contracts/Pool.sol\":3817:3824  amount1 */\n      dup9\n        /* \"contracts/Pool.sol\":3774:3825  Deposit(address(this), liquidity, amount0, amount1) */\n      mload(0x40)\n      tag_264\n      swap5\n      swap4\n      swap3\n      swap2\n      swap1\n      tag_152\n      jump\t// in\n    tag_264:\n      mload(0x40)\n      dup1\n      swap2\n      sub\n      swap1\n      log1\n        /* \"contracts/Pool.sol\":2791:3833  {... */\n      pop\n      pop\n      pop\n        /* \"contracts/Pool.sol\":2705:3833  function deposit(uint256 amount0, uint256 amount1) external returns(uint256 liquidity){... */\n      swap3\n      swap2\n      pop\n      pop\n      jump\t// out\n        /* \"https://github.com/Vectorized/solady/blob/e4a14a5b365b353352f7c38e699a2bc9363d6576/src/tokens/ERC20.sol\":24588:24679  function _beforeTokenTransfer(address from, address to, uint256 amount) internal virtual {} */\n    tag_122:\n      pop\n      pop\n      pop\n      jump\t// out\n        /* \"https://github.com/Vectorized/solady/blob/e4a14a5b365b353352f7c38e699a2bc9363d6576/src/tokens/ERC20.sol\":24791:24881  function _afterTokenTransfer(address from, address to, uint256 amount) internal virtual {} */\n    tag_127:\n      pop\n      pop\n      pop\n      jump\t// out\n        /* \"contracts/Pool.sol\":4967:5604  function mintFee(uint _reserve0, uint _reserve1) private{... */\n    tag_141:\n        /* \"contracts/Pool.sol\":5034:5047  address feeTo */\n      0x00\n        /* \"contracts/Pool.sol\":5059:5066  factory */\n      0x01\n      0x00\n      swap1\n      sload\n      swap1\n      0x0100\n      exp\n      swap1\n      div\n      0xffffffffffffffffffffffffffffffffffffffff\n      and\n        /* \"contracts/Pool.sol\":5050:5090  IFactory(factory).getProtocolBeneficiary */\n      0xffffffffffffffffffffffffffffffffffffffff\n      and\n      0x085bf3b9\n        /* \"contracts/Pool.sol\":5050:5092  IFactory(factory).getProtocolBeneficiary() */\n      mload(0x40)\n      dup2\n      0xffffffff\n      and\n      0xe0\n      shl\n      dup2\n      mstore\n      0x04\n      add\n      0x20\n      mload(0x40)\n      dup1\n      dup4\n      sub\n      dup2\n      dup7\n      gas\n      staticcall\n      iszero\n      dup1\n      iszero\n      tag_269\n      jumpi\n      returndatasize\n      0x00\n      dup1\n      returndatacopy\n      revert(0x00, returndatasize)\n    tag_269:\n      pop\n      pop\n      pop\n      pop\n      mload(0x40)\n      returndatasize\n      not(0x1f)\n      0x1f\n      dup3\n      add\n      and\n      dup3\n      add\n      dup1\n      0x40\n      mstore\n      pop\n      dup2\n      add\n      swap1\n      tag_270\n      swap2\n      swap1\n      tag_271\n      jump\t// in\n    tag_270:\n        /* \"contracts/Pool.sol\":5034:5092  address feeTo = IFactory(factory).getProtocolBeneficiary() */\n      swap1\n      pop\n        /* \"contracts/Pool.sol\":5103:5114  uint _kLast */\n      0x00\n        /* \"contracts/Pool.sol\":5117:5122  kLast */\n      sload(0x02)\n        /* \"contracts/Pool.sol\":5103:5122  uint _kLast = kLast */\n      swap1\n      pop\n        /* \"contracts/Pool.sol\":5146:5147  0 */\n      0x00\n        /* \"contracts/Pool.sol\":5136:5142  _kLast */\n      dup2\n        /* \"contracts/Pool.sol\":5136:5147  _kLast != 0 */\n      eq\n        /* \"contracts/Pool.sol\":5133:5597  if(_kLast != 0){... */\n      tag_272\n      jumpi\n        /* \"contracts/Pool.sol\":5163:5173  uint rootK */\n      0x00\n        /* \"contracts/Pool.sol\":5176:5203  sqrt(_reserve0 * _reserve1) */\n      tag_273\n        /* \"contracts/Pool.sol\":5193:5202  _reserve1 */\n      dup5\n        /* \"contracts/Pool.sol\":5181:5190  _reserve0 */\n      dup7\n        /* \"contracts/Pool.sol\":5181:5202  _reserve0 * _reserve1 */\n      tag_274\n      swap2\n      swap1\n      tag_133\n      jump\t// in\n    tag_274:\n        /* \"contracts/Pool.sol\":5176:5180  sqrt */\n      tag_68\n        /* \"contracts/Pool.sol\":5176:5203  sqrt(_reserve0 * _reserve1) */\n      jump\t// in\n    tag_273:\n        /* \"contracts/Pool.sol\":5163:5203  uint rootK = sqrt(_reserve0 * _reserve1) */\n      swap1\n      pop\n        /* \"contracts/Pool.sol\":5218:5232  uint rootKLast */\n      0x00\n        /* \"contracts/Pool.sol\":5235:5247  sqrt(_kLast) */\n      tag_275\n        /* \"contracts/Pool.sol\":5240:5246  _kLast */\n      dup4\n        /* \"contracts/Pool.sol\":5235:5239  sqrt */\n      tag_68\n        /* \"contracts/Pool.sol\":5235:5247  sqrt(_kLast) */\n      jump\t// in\n    tag_275:\n        /* \"contracts/Pool.sol\":5218:5247  uint rootKLast = sqrt(_kLast) */\n      swap1\n      pop\n        /* \"contracts/Pool.sol\":5273:5282  rootKLast */\n      dup1\n        /* \"contracts/Pool.sol\":5265:5270  rootK */\n      dup3\n        /* \"contracts/Pool.sol\":5265:5282  rootK > rootKLast */\n      gt\n        /* \"contracts/Pool.sol\":5262:5586  if(rootK > rootKLast){... */\n      iszero\n      tag_276\n      jumpi\n        /* \"contracts/Pool.sol\":5302:5316  uint numerator */\n      0x00\n        /* \"contracts/Pool.sol\":5344:5353  rootKLast */\n      dup2\n        /* \"contracts/Pool.sol\":5336:5341  rootK */\n      dup4\n        /* \"contracts/Pool.sol\":5336:5353  rootK - rootKLast */\n      tag_277\n      swap2\n      swap1\n      tag_148\n      jump\t// in\n    tag_277:\n        /* \"contracts/Pool.sol\":5319:5332  totalSupply() */\n      tag_278\n        /* \"contracts/Pool.sol\":5319:5330  totalSupply */\n      tag_42\n        /* \"contracts/Pool.sol\":5319:5332  totalSupply() */\n      jump\t// in\n    tag_278:\n        /* \"contracts/Pool.sol\":5319:5354  totalSupply() * (rootK - rootKLast) */\n      tag_279\n      swap2\n      swap1\n      tag_133\n      jump\t// in\n    tag_279:\n        /* \"contracts/Pool.sol\":5302:5354  uint numerator = totalSupply() * (rootK - rootKLast) */\n      swap1\n      pop\n        /* \"contracts/Pool.sol\":5373:5389  uint denominator */\n      0x00\n        /* \"contracts/Pool.sol\":5415:5424  rootKLast */\n      dup3\n        /* \"contracts/Pool.sol\":699:700  5 */\n      0x05\n        /* \"contracts/Pool.sol\":5392:5397  rootK */\n      dup6\n        /* \"contracts/Pool.sol\":5392:5412  rootK * PROTOCOL_FEE */\n      tag_280\n      swap2\n      swap1\n      tag_133\n      jump\t// in\n    tag_280:\n        /* \"contracts/Pool.sol\":5392:5424  rootK * PROTOCOL_FEE + rootKLast */\n      tag_281\n      swap2\n      swap1\n      tag_227\n      jump\t// in\n    tag_281:\n        /* \"contracts/Pool.sol\":5373:5424  uint denominator = rootK * PROTOCOL_FEE + rootKLast */\n      swap1\n      pop\n        /* \"contracts/Pool.sol\":5471:5485  uint liquidity */\n      0x00\n        /* \"contracts/Pool.sol\":5500:5511  denominator */\n      dup2\n        /* \"contracts/Pool.sol\":5488:5497  numerator */\n      dup4\n        /* \"contracts/Pool.sol\":5488:5511  numerator / denominator */\n      tag_282\n      swap2\n      swap1\n      tag_135\n      jump\t// in\n    tag_282:\n        /* \"contracts/Pool.sol\":5471:5511  uint liquidity = numerator / denominator */\n      swap1\n      pop\n        /* \"contracts/Pool.sol\":5545:5546  0 */\n      0x00\n        /* \"contracts/Pool.sol\":5533:5542  liquidity */\n      dup2\n        /* \"contracts/Pool.sol\":5533:5546  liquidity > 0 */\n      gt\n        /* \"contracts/Pool.sol\":5530:5570  if(liquidity > 0) _mint(feeTo,liquidity) */\n      iszero\n      tag_283\n      jumpi\n        /* \"contracts/Pool.sol\":5548:5570  _mint(feeTo,liquidity) */\n      tag_284\n        /* \"contracts/Pool.sol\":5554:5559  feeTo */\n      dup8\n        /* \"contracts/Pool.sol\":5560:5569  liquidity */\n      dup3\n        /* \"contracts/Pool.sol\":5548:5553  _mint */\n      tag_250\n        /* \"contracts/Pool.sol\":5548:5570  _mint(feeTo,liquidity) */\n      jump\t// in\n    tag_284:\n        /* \"contracts/Pool.sol\":5530:5570  if(liquidity > 0) _mint(feeTo,liquidity) */\n    tag_283:\n        /* \"contracts/Pool.sol\":5283:5586  {... */\n      pop\n      pop\n      pop\n        /* \"contracts/Pool.sol\":5262:5586  if(rootK > rootKLast){... */\n    tag_276:\n        /* \"contracts/Pool.sol\":5148:5597  {... */\n      pop\n      pop\n        /* \"contracts/Pool.sol\":5133:5597  if(_kLast != 0){... */\n    tag_272:\n        /* \"contracts/Pool.sol\":5023:5604  {... */\n      pop\n      pop\n        /* \"contracts/Pool.sol\":4967:5604  function mintFee(uint _reserve0, uint _reserve1) private{... */\n      pop\n      pop\n      jump\t// out\n        /* \"contracts/Pool.sol\":5945:6154  function _transfer(address token, address from, address to, uint256 amount) private{... */\n    tag_143:\n        /* \"contracts/Pool.sol\":6039:6051  bool success */\n      0x00\n        /* \"contracts/Pool.sol\":6061:6066  token */\n      dup5\n        /* \"contracts/Pool.sol\":6054:6080  IERC20(token).transferFrom */\n      0xffffffffffffffffffffffffffffffffffffffff\n      and\n      0x23b872dd\n        /* \"contracts/Pool.sol\":6081:6085  from */\n      dup6\n        /* \"contracts/Pool.sol\":6087:6089  to */\n      dup6\n        /* \"contracts/Pool.sol\":6091:6097  amount */\n      dup6\n        /* \"contracts/Pool.sol\":6054:6098  IERC20(token).transferFrom(from, to, amount) */\n      mload(0x40)\n      dup5\n      0xffffffff\n      and\n      0xe0\n      shl\n      dup2\n      mstore\n      0x04\n      add\n      tag_286\n      swap4\n      swap3\n      swap2\n      swap1\n      tag_287\n      jump\t// in\n    tag_286:\n      0x20\n      mload(0x40)\n      dup1\n      dup4\n      sub\n      dup2\n      0x00\n      dup8\n      gas\n      call\n      iszero\n      dup1\n      iszero\n      tag_289\n      jumpi\n      returndatasize\n      0x00\n      dup1\n      returndatacopy\n      revert(0x00, returndatasize)\n    tag_289:\n      pop\n      pop\n      pop\n      pop\n      mload(0x40)\n      returndatasize\n      not(0x1f)\n      0x1f\n      dup3\n      add\n      and\n      dup3\n      add\n      dup1\n      0x40\n      mstore\n      pop\n      dup2\n      add\n      swap1\n      tag_290\n      swap2\n      swap1\n      tag_291\n      jump\t// in\n    tag_290:\n        /* \"contracts/Pool.sol\":6039:6098  bool success = IERC20(token).transferFrom(from, to, amount) */\n      swap1\n      pop\n        /* \"contracts/Pool.sol\":6113:6120  success */\n      dup1\n        /* \"contracts/Pool.sol\":6109:6146  if(!success) revert TRANSFER_FAILED() */\n      tag_292\n      jumpi\n        /* \"contracts/Pool.sol\":6129:6146  TRANSFER_FAILED() */\n      mload(0x40)\n      0x3f4ab80e00000000000000000000000000000000000000000000000000000000\n      dup2\n      mstore\n      0x04\n      add\n      mload(0x40)\n      dup1\n      swap2\n      sub\n      swap1\n      revert\n        /* \"contracts/Pool.sol\":6109:6146  if(!success) revert TRANSFER_FAILED() */\n    tag_292:\n        /* \"contracts/Pool.sol\":6028:6154  {... */\n      pop\n        /* \"contracts/Pool.sol\":5945:6154  function _transfer(address token, address from, address to, uint256 amount) private{... */\n      pop\n      pop\n      pop\n      pop\n      jump\t// out\n        /* \"https://github.com/Vectorized/solady/blob/e4a14a5b365b353352f7c38e699a2bc9363d6576/src/tokens/ERC20.sol\":19295:20414  function _burn(address from, uint256 amount) internal virtual {... */\n    tag_146:\n        /* \"https://github.com/Vectorized/solady/blob/e4a14a5b365b353352f7c38e699a2bc9363d6576/src/tokens/ERC20.sol\":19367:19413  _beforeTokenTransfer(from, address(0), amount) */\n      tag_294\n        /* \"https://github.com/Vectorized/solady/blob/e4a14a5b365b353352f7c38e699a2bc9363d6576/src/tokens/ERC20.sol\":19388:19392  from */\n      dup3\n        /* \"https://github.com/Vectorized/solady/blob/e4a14a5b365b353352f7c38e699a2bc9363d6576/src/tokens/ERC20.sol\":19402:19403  0 */\n      0x00\n        /* \"https://github.com/Vectorized/solady/blob/e4a14a5b365b353352f7c38e699a2bc9363d6576/src/tokens/ERC20.sol\":19406:19412  amount */\n      dup4\n        /* \"https://github.com/Vectorized/solady/blob/e4a14a5b365b353352f7c38e699a2bc9363d6576/src/tokens/ERC20.sol\":19367:19387  _beforeTokenTransfer */\n      tag_122\n        /* \"https://github.com/Vectorized/solady/blob/e4a14a5b365b353352f7c38e699a2bc9363d6576/src/tokens/ERC20.sol\":19367:19413  _beforeTokenTransfer(from, address(0), amount) */\n      jump\t// in\n    tag_294:\n        /* \"https://github.com/Vectorized/solady/blob/e4a14a5b365b353352f7c38e699a2bc9363d6576/src/tokens/ERC20.sol\":19562:19580  _BALANCE_SLOT_SEED */\n      0x87a211a2\n        /* \"https://github.com/Vectorized/solady/blob/e4a14a5b365b353352f7c38e699a2bc9363d6576/src/tokens/ERC20.sol\":19556:19560  0x0c */\n      0x0c\n        /* \"https://github.com/Vectorized/solady/blob/e4a14a5b365b353352f7c38e699a2bc9363d6576/src/tokens/ERC20.sol\":19549:19581  mstore(0x0c, _BALANCE_SLOT_SEED) */\n      mstore\n        /* \"https://github.com/Vectorized/solady/blob/e4a14a5b365b353352f7c38e699a2bc9363d6576/src/tokens/ERC20.sol\":19607:19611  from */\n      dup2\n        /* \"https://github.com/Vectorized/solady/blob/e4a14a5b365b353352f7c38e699a2bc9363d6576/src/tokens/ERC20.sol\":19601:19605  0x00 */\n      0x00\n        /* \"https://github.com/Vectorized/solady/blob/e4a14a5b365b353352f7c38e699a2bc9363d6576/src/tokens/ERC20.sol\":19594:19612  mstore(0x00, from) */\n      mstore\n        /* \"https://github.com/Vectorized/solady/blob/e4a14a5b365b353352f7c38e699a2bc9363d6576/src/tokens/ERC20.sol\":19664:19668  0x20 */\n      0x20\n        /* \"https://github.com/Vectorized/solady/blob/e4a14a5b365b353352f7c38e699a2bc9363d6576/src/tokens/ERC20.sol\":19658:19662  0x0c */\n      0x0c\n        /* \"https://github.com/Vectorized/solady/blob/e4a14a5b365b353352f7c38e699a2bc9363d6576/src/tokens/ERC20.sol\":19648:19669  keccak256(0x0c, 0x20) */\n      keccak256\n        /* \"https://github.com/Vectorized/solady/blob/e4a14a5b365b353352f7c38e699a2bc9363d6576/src/tokens/ERC20.sol\":19707:19722  fromBalanceSlot */\n      dup1\n        /* \"https://github.com/Vectorized/solady/blob/e4a14a5b365b353352f7c38e699a2bc9363d6576/src/tokens/ERC20.sol\":19701:19723  sload(fromBalanceSlot) */\n      sload\n        /* \"https://github.com/Vectorized/solady/blob/e4a14a5b365b353352f7c38e699a2bc9363d6576/src/tokens/ERC20.sol\":19797:19808  fromBalance */\n      dup1\n        /* \"https://github.com/Vectorized/solady/blob/e4a14a5b365b353352f7c38e699a2bc9363d6576/src/tokens/ERC20.sol\":19789:19795  amount */\n      dup4\n        /* \"https://github.com/Vectorized/solady/blob/e4a14a5b365b353352f7c38e699a2bc9363d6576/src/tokens/ERC20.sol\":19786:19809  gt(amount, fromBalance) */\n      gt\n        /* \"https://github.com/Vectorized/solady/blob/e4a14a5b365b353352f7c38e699a2bc9363d6576/src/tokens/ERC20.sol\":19783:19929  if gt(amount, fromBalance) {... */\n      iszero\n      tag_295\n      jumpi\n        /* \"https://github.com/Vectorized/solady/blob/e4a14a5b365b353352f7c38e699a2bc9363d6576/src/tokens/ERC20.sol\":19841:19851  0xf4d678b8 */\n      0xf4d678b8\n        /* \"https://github.com/Vectorized/solady/blob/e4a14a5b365b353352f7c38e699a2bc9363d6576/src/tokens/ERC20.sol\":19835:19839  0x00 */\n      0x00\n        /* \"https://github.com/Vectorized/solady/blob/e4a14a5b365b353352f7c38e699a2bc9363d6576/src/tokens/ERC20.sol\":19828:19852  mstore(0x00, 0xf4d678b8) */\n      mstore\n        /* \"https://github.com/Vectorized/solady/blob/e4a14a5b365b353352f7c38e699a2bc9363d6576/src/tokens/ERC20.sol\":19910:19914  0x04 */\n      0x04\n        /* \"https://github.com/Vectorized/solady/blob/e4a14a5b365b353352f7c38e699a2bc9363d6576/src/tokens/ERC20.sol\":19904:19908  0x1c */\n      0x1c\n        /* \"https://github.com/Vectorized/solady/blob/e4a14a5b365b353352f7c38e699a2bc9363d6576/src/tokens/ERC20.sol\":19897:19915  revert(0x1c, 0x04) */\n      revert\n        /* \"https://github.com/Vectorized/solady/blob/e4a14a5b365b353352f7c38e699a2bc9363d6576/src/tokens/ERC20.sol\":19783:19929  if gt(amount, fromBalance) {... */\n    tag_295:\n        /* \"https://github.com/Vectorized/solady/blob/e4a14a5b365b353352f7c38e699a2bc9363d6576/src/tokens/ERC20.sol\":20038:20044  amount */\n      dup3\n        /* \"https://github.com/Vectorized/solady/blob/e4a14a5b365b353352f7c38e699a2bc9363d6576/src/tokens/ERC20.sol\":20025:20036  fromBalance */\n      dup2\n        /* \"https://github.com/Vectorized/solady/blob/e4a14a5b365b353352f7c38e699a2bc9363d6576/src/tokens/ERC20.sol\":20021:20045  sub(fromBalance, amount) */\n      sub\n        /* \"https://github.com/Vectorized/solady/blob/e4a14a5b365b353352f7c38e699a2bc9363d6576/src/tokens/ERC20.sol\":20004:20019  fromBalanceSlot */\n      dup3\n        /* \"https://github.com/Vectorized/solady/blob/e4a14a5b365b353352f7c38e699a2bc9363d6576/src/tokens/ERC20.sol\":19997:20046  sstore(fromBalanceSlot, sub(fromBalance, amount)) */\n      sstore\n        /* \"https://github.com/Vectorized/solady/blob/e4a14a5b365b353352f7c38e699a2bc9363d6576/src/tokens/ERC20.sol\":20177:20183  amount */\n      dup3\n        /* \"https://github.com/Vectorized/solady/blob/e4a14a5b365b353352f7c38e699a2bc9363d6576/src/tokens/ERC20.sol\":20156:20174  _TOTAL_SUPPLY_SLOT */\n      0x05345cdf77eb68f44c\n        /* \"https://github.com/Vectorized/solady/blob/e4a14a5b365b353352f7c38e699a2bc9363d6576/src/tokens/ERC20.sol\":20150:20175  sload(_TOTAL_SUPPLY_SLOT) */\n      sload\n        /* \"https://github.com/Vectorized/solady/blob/e4a14a5b365b353352f7c38e699a2bc9363d6576/src/tokens/ERC20.sol\":20146:20184  sub(sload(_TOTAL_SUPPLY_SLOT), amount) */\n      sub\n        /* \"https://github.com/Vectorized/solady/blob/e4a14a5b365b353352f7c38e699a2bc9363d6576/src/tokens/ERC20.sol\":20126:20144  _TOTAL_SUPPLY_SLOT */\n      0x05345cdf77eb68f44c\n        /* \"https://github.com/Vectorized/solady/blob/e4a14a5b365b353352f7c38e699a2bc9363d6576/src/tokens/ERC20.sol\":20119:20185  sstore(_TOTAL_SUPPLY_SLOT, sub(sload(_TOTAL_SUPPLY_SLOT), amount)) */\n      sstore\n        /* \"https://github.com/Vectorized/solady/blob/e4a14a5b365b353352f7c38e699a2bc9363d6576/src/tokens/ERC20.sol\":20253:20259  amount */\n      dup3\n        /* \"https://github.com/Vectorized/solady/blob/e4a14a5b365b353352f7c38e699a2bc9363d6576/src/tokens/ERC20.sol\":20247:20251  0x00 */\n      0x00\n        /* \"https://github.com/Vectorized/solady/blob/e4a14a5b365b353352f7c38e699a2bc9363d6576/src/tokens/ERC20.sol\":20240:20260  mstore(0x00, amount) */\n      mstore\n        /* \"https://github.com/Vectorized/solady/blob/e4a14a5b365b353352f7c38e699a2bc9363d6576/src/tokens/ERC20.sol\":20341:20342  0 */\n      0x00\n        /* \"https://github.com/Vectorized/solady/blob/e4a14a5b365b353352f7c38e699a2bc9363d6576/src/tokens/ERC20.sol\":20333:20337  from */\n      dup5\n        /* \"https://github.com/Vectorized/solady/blob/e4a14a5b365b353352f7c38e699a2bc9363d6576/src/tokens/ERC20.sol\":20329:20331  96 */\n      0x60\n        /* \"https://github.com/Vectorized/solady/blob/e4a14a5b365b353352f7c38e699a2bc9363d6576/src/tokens/ERC20.sol\":20325:20338  shl(96, from) */\n      shl\n        /* \"https://github.com/Vectorized/solady/blob/e4a14a5b365b353352f7c38e699a2bc9363d6576/src/tokens/ERC20.sol\":20321:20323  96 */\n      0x60\n        /* \"https://github.com/Vectorized/solady/blob/e4a14a5b365b353352f7c38e699a2bc9363d6576/src/tokens/ERC20.sol\":20317:20339  shr(96, shl(96, from)) */\n      shr\n        /* \"https://github.com/Vectorized/solady/blob/e4a14a5b365b353352f7c38e699a2bc9363d6576/src/tokens/ERC20.sol\":20290:20315  _TRANSFER_EVENT_SIGNATURE */\n      0xddf252ad1be2c89b69c2b068fc378daa952ba7f163c4a11628f55a4df523b3ef\n        /* \"https://github.com/Vectorized/solady/blob/e4a14a5b365b353352f7c38e699a2bc9363d6576/src/tokens/ERC20.sol\":20284:20288  0x20 */\n      0x20\n        /* \"https://github.com/Vectorized/solady/blob/e4a14a5b365b353352f7c38e699a2bc9363d6576/src/tokens/ERC20.sol\":20278:20282  0x00 */\n      0x00\n        /* \"https://github.com/Vectorized/solady/blob/e4a14a5b365b353352f7c38e699a2bc9363d6576/src/tokens/ERC20.sol\":20273:20343  log3(0x00, 0x20, _TRANSFER_EVENT_SIGNATURE, shr(96, shl(96, from)), 0) */\n      log3\n        /* \"https://github.com/Vectorized/solady/blob/e4a14a5b365b353352f7c38e699a2bc9363d6576/src/tokens/ERC20.sol\":19475:20353  {... */\n      pop\n      pop\n        /* \"https://github.com/Vectorized/solady/blob/e4a14a5b365b353352f7c38e699a2bc9363d6576/src/tokens/ERC20.sol\":20362:20407  _afterTokenTransfer(from, address(0), amount) */\n      tag_296\n        /* \"https://github.com/Vectorized/solady/blob/e4a14a5b365b353352f7c38e699a2bc9363d6576/src/tokens/ERC20.sol\":20382:20386  from */\n      dup3\n        /* \"https://github.com/Vectorized/solady/blob/e4a14a5b365b353352f7c38e699a2bc9363d6576/src/tokens/ERC20.sol\":20396:20397  0 */\n      0x00\n        /* \"https://github.com/Vectorized/solady/blob/e4a14a5b365b353352f7c38e699a2bc9363d6576/src/tokens/ERC20.sol\":20400:20406  amount */\n      dup4\n        /* \"https://github.com/Vectorized/solady/blob/e4a14a5b365b353352f7c38e699a2bc9363d6576/src/tokens/ERC20.sol\":20362:20381  _afterTokenTransfer */\n      tag_127\n        /* \"https://github.com/Vectorized/solady/blob/e4a14a5b365b353352f7c38e699a2bc9363d6576/src/tokens/ERC20.sol\":20362:20407  _afterTokenTransfer(from, address(0), amount) */\n      jump\t// in\n    tag_296:\n        /* \"https://github.com/Vectorized/solady/blob/e4a14a5b365b353352f7c38e699a2bc9363d6576/src/tokens/ERC20.sol\":19295:20414  function _burn(address from, uint256 amount) internal virtual {... */\n      pop\n      pop\n      jump\t// out\n        /* \"https://github.com/Vectorized/solady/blob/e4a14a5b365b353352f7c38e699a2bc9363d6576/src/tokens/ERC20.sol\":12591:12669  function _constantNameHash() internal view virtual returns (bytes32 result) {} */\n    tag_156:\n        /* \"https://github.com/Vectorized/solady/blob/e4a14a5b365b353352f7c38e699a2bc9363d6576/src/tokens/ERC20.sol\":12651:12665  bytes32 result */\n      0x00\n        /* \"https://github.com/Vectorized/solady/blob/e4a14a5b365b353352f7c38e699a2bc9363d6576/src/tokens/ERC20.sol\":12591:12669  function _constantNameHash() internal view virtual returns (bytes32 result) {} */\n      swap1\n      jump\t// out\n        /* \"contracts/Pool.sol\":8004:8185  function toUint(bool b) internal pure returns (uint256 u) {... */\n    tag_184:\n        /* \"contracts/Pool.sol\":8051:8060  uint256 u */\n      0x00\n        /* \"contracts/Pool.sol\":8164:8165  b */\n      dup2\n        /* \"contracts/Pool.sol\":8157:8166  iszero(b) */\n      iszero\n        /* \"contracts/Pool.sol\":8150:8167  iszero(iszero(b)) */\n      iszero\n        /* \"contracts/Pool.sol\":8145:8167  u := iszero(iszero(b)) */\n      swap1\n      pop\n        /* \"contracts/Pool.sol\":8004:8185  function toUint(bool b) internal pure returns (uint256 u) {... */\n      swap2\n      swap1\n      pop\n      jump\t// out\n        /* \"contracts/Pool.sol\":5612:5937  function _quote(address token, uint256 amount) private view returns(uint256){... */\n    tag_193:\n        /* \"contracts/Pool.sol\":5680:5687  uint256 */\n      0x00\n        /* \"contracts/Pool.sol\":5699:5713  address token0 */\n      dup1\n        /* \"contracts/Pool.sol\":5716:5724  s_token0 */\n      0x03\n      0x00\n      swap1\n      sload\n      swap1\n      0x0100\n      exp\n      swap1\n      div\n      0xffffffffffffffffffffffffffffffffffffffff\n      and\n        /* \"contracts/Pool.sol\":5699:5724  address token0 = s_token0 */\n      swap1\n      pop\n        /* \"contracts/Pool.sol\":5735:5754  uint256 baseReserve */\n      0x00\n        /* \"contracts/Pool.sol\":5766:5772  token0 */\n      dup2\n        /* \"contracts/Pool.sol\":5757:5772  token == token0 */\n      0xffffffffffffffffffffffffffffffffffffffff\n      and\n        /* \"contracts/Pool.sol\":5757:5762  token */\n      dup6\n        /* \"contracts/Pool.sol\":5757:5772  token == token0 */\n      0xffffffffffffffffffffffffffffffffffffffff\n      and\n      eq\n        /* \"contracts/Pool.sol\":5757:5798  token == token0 ? s_reserve0 : s_reserve1 */\n      tag_300\n      jumpi\n        /* \"contracts/Pool.sol\":5788:5798  s_reserve1 */\n      sload(0x06)\n        /* \"contracts/Pool.sol\":5757:5798  token == token0 ? s_reserve0 : s_reserve1 */\n      jump(tag_301)\n    tag_300:\n        /* \"contracts/Pool.sol\":5775:5785  s_reserve0 */\n      sload(0x05)\n        /* \"contracts/Pool.sol\":5757:5798  token == token0 ? s_reserve0 : s_reserve1 */\n    tag_301:\n        /* \"contracts/Pool.sol\":5735:5798  uint256 baseReserve = token == token0 ? s_reserve0 : s_reserve1 */\n      swap1\n      pop\n        /* \"contracts/Pool.sol\":5809:5829  uint256 quoteReserve */\n      0x00\n        /* \"contracts/Pool.sol\":5841:5847  token0 */\n      dup3\n        /* \"contracts/Pool.sol\":5832:5847  token == token0 */\n      0xffffffffffffffffffffffffffffffffffffffff\n      and\n        /* \"contracts/Pool.sol\":5832:5837  token */\n      dup7\n        /* \"contracts/Pool.sol\":5832:5847  token == token0 */\n      0xffffffffffffffffffffffffffffffffffffffff\n      and\n      eq\n        /* \"contracts/Pool.sol\":5832:5873  token == token0 ? s_reserve1 : s_reserve0 */\n      tag_302\n      jumpi\n        /* \"contracts/Pool.sol\":5863:5873  s_reserve0 */\n      sload(0x05)\n        /* \"contracts/Pool.sol\":5832:5873  token == token0 ? s_reserve1 : s_reserve0 */\n      jump(tag_303)\n    tag_302:\n        /* \"contracts/Pool.sol\":5850:5860  s_reserve1 */\n      sload(0x06)\n        /* \"contracts/Pool.sol\":5832:5873  token == token0 ? s_reserve1 : s_reserve0 */\n    tag_303:\n        /* \"contracts/Pool.sol\":5809:5873  uint256 quoteReserve = token == token0 ? s_reserve1 : s_reserve0 */\n      swap1\n      pop\n        /* \"contracts/Pool.sol\":5916:5928  quoteReserve */\n      dup1\n        /* \"contracts/Pool.sol\":5906:5912  amount */\n      dup6\n        /* \"contracts/Pool.sol\":5892:5903  baseReserve */\n      dup4\n        /* \"contracts/Pool.sol\":5892:5912  baseReserve * amount */\n      tag_304\n      swap2\n      swap1\n      tag_133\n      jump\t// in\n    tag_304:\n        /* \"contracts/Pool.sol\":5891:5928  (baseReserve * amount) / quoteReserve */\n      tag_305\n      swap2\n      swap1\n      tag_135\n      jump\t// in\n    tag_305:\n        /* \"contracts/Pool.sol\":5884:5928  return (baseReserve * amount) / quoteReserve */\n      swap4\n      pop\n      pop\n      pop\n      pop\n        /* \"contracts/Pool.sol\":5612:5937  function _quote(address token, uint256 amount) private view returns(uint256){... */\n      swap3\n      swap2\n      pop\n      pop\n      jump\t// out\n        /* \"https://github.com/Vectorized/solady/blob/e4a14a5b365b353352f7c38e699a2bc9363d6576/src/tokens/ERC20.sol\":17717:18889  function _mint(address to, uint256 amount) internal virtual {... */\n    tag_250:\n        /* \"https://github.com/Vectorized/solady/blob/e4a14a5b365b353352f7c38e699a2bc9363d6576/src/tokens/ERC20.sol\":17787:17831  _beforeTokenTransfer(address(0), to, amount) */\n      tag_307\n        /* \"https://github.com/Vectorized/solady/blob/e4a14a5b365b353352f7c38e699a2bc9363d6576/src/tokens/ERC20.sol\":17816:17817  0 */\n      0x00\n        /* \"https://github.com/Vectorized/solady/blob/e4a14a5b365b353352f7c38e699a2bc9363d6576/src/tokens/ERC20.sol\":17820:17822  to */\n      dup4\n        /* \"https://github.com/Vectorized/solady/blob/e4a14a5b365b353352f7c38e699a2bc9363d6576/src/tokens/ERC20.sol\":17824:17830  amount */\n      dup4\n        /* \"https://github.com/Vectorized/solady/blob/e4a14a5b365b353352f7c38e699a2bc9363d6576/src/tokens/ERC20.sol\":17787:17807  _beforeTokenTransfer */\n      tag_122\n        /* \"https://github.com/Vectorized/solady/blob/e4a14a5b365b353352f7c38e699a2bc9363d6576/src/tokens/ERC20.sol\":17787:17831  _beforeTokenTransfer(address(0), to, amount) */\n      jump\t// in\n    tag_307:\n        /* \"https://github.com/Vectorized/solady/blob/e4a14a5b365b353352f7c38e699a2bc9363d6576/src/tokens/ERC20.sol\":17938:17956  _TOTAL_SUPPLY_SLOT */\n      0x05345cdf77eb68f44c\n        /* \"https://github.com/Vectorized/solady/blob/e4a14a5b365b353352f7c38e699a2bc9363d6576/src/tokens/ERC20.sol\":17932:17957  sload(_TOTAL_SUPPLY_SLOT) */\n      sload\n        /* \"https://github.com/Vectorized/solady/blob/e4a14a5b365b353352f7c38e699a2bc9363d6576/src/tokens/ERC20.sol\":18017:18023  amount */\n      dup2\n        /* \"https://github.com/Vectorized/solady/blob/e4a14a5b365b353352f7c38e699a2bc9363d6576/src/tokens/ERC20.sol\":17998:18015  totalSupplyBefore */\n      dup2\n        /* \"https://github.com/Vectorized/solady/blob/e4a14a5b365b353352f7c38e699a2bc9363d6576/src/tokens/ERC20.sol\":17994:18024  add(totalSupplyBefore, amount) */\n      add\n        /* \"https://github.com/Vectorized/solady/blob/e4a14a5b365b353352f7c38e699a2bc9363d6576/src/tokens/ERC20.sol\":18114:18131  totalSupplyBefore */\n      dup2\n        /* \"https://github.com/Vectorized/solady/blob/e4a14a5b365b353352f7c38e699a2bc9363d6576/src/tokens/ERC20.sol\":18096:18112  totalSupplyAfter */\n      dup2\n        /* \"https://github.com/Vectorized/solady/blob/e4a14a5b365b353352f7c38e699a2bc9363d6576/src/tokens/ERC20.sol\":18093:18132  lt(totalSupplyAfter, totalSupplyBefore) */\n      lt\n        /* \"https://github.com/Vectorized/solady/blob/e4a14a5b365b353352f7c38e699a2bc9363d6576/src/tokens/ERC20.sol\":18090:18252  if lt(totalSupplyAfter, totalSupplyBefore) {... */\n      iszero\n      tag_308\n      jumpi\n        /* \"https://github.com/Vectorized/solady/blob/e4a14a5b365b353352f7c38e699a2bc9363d6576/src/tokens/ERC20.sol\":18164:18174  0xe5cfe957 */\n      0xe5cfe957\n        /* \"https://github.com/Vectorized/solady/blob/e4a14a5b365b353352f7c38e699a2bc9363d6576/src/tokens/ERC20.sol\":18158:18162  0x00 */\n      0x00\n        /* \"https://github.com/Vectorized/solady/blob/e4a14a5b365b353352f7c38e699a2bc9363d6576/src/tokens/ERC20.sol\":18151:18175  mstore(0x00, 0xe5cfe957) */\n      mstore\n        /* \"https://github.com/Vectorized/solady/blob/e4a14a5b365b353352f7c38e699a2bc9363d6576/src/tokens/ERC20.sol\":18233:18237  0x04 */\n      0x04\n        /* \"https://github.com/Vectorized/solady/blob/e4a14a5b365b353352f7c38e699a2bc9363d6576/src/tokens/ERC20.sol\":18227:18231  0x1c */\n      0x1c\n        /* \"https://github.com/Vectorized/solady/blob/e4a14a5b365b353352f7c38e699a2bc9363d6576/src/tokens/ERC20.sol\":18220:18238  revert(0x1c, 0x04) */\n      revert\n        /* \"https://github.com/Vectorized/solady/blob/e4a14a5b365b353352f7c38e699a2bc9363d6576/src/tokens/ERC20.sol\":18090:18252  if lt(totalSupplyAfter, totalSupplyBefore) {... */\n    tag_308:\n        /* \"https://github.com/Vectorized/solady/blob/e4a14a5b365b353352f7c38e699a2bc9363d6576/src/tokens/ERC20.sol\":18339:18355  totalSupplyAfter */\n      dup1\n        /* \"https://github.com/Vectorized/solady/blob/e4a14a5b365b353352f7c38e699a2bc9363d6576/src/tokens/ERC20.sol\":18319:18337  _TOTAL_SUPPLY_SLOT */\n      0x05345cdf77eb68f44c\n        /* \"https://github.com/Vectorized/solady/blob/e4a14a5b365b353352f7c38e699a2bc9363d6576/src/tokens/ERC20.sol\":18312:18356  sstore(_TOTAL_SUPPLY_SLOT, totalSupplyAfter) */\n      sstore\n        /* \"https://github.com/Vectorized/solady/blob/e4a14a5b365b353352f7c38e699a2bc9363d6576/src/tokens/ERC20.sol\":18442:18460  _BALANCE_SLOT_SEED */\n      0x87a211a2\n        /* \"https://github.com/Vectorized/solady/blob/e4a14a5b365b353352f7c38e699a2bc9363d6576/src/tokens/ERC20.sol\":18436:18440  0x0c */\n      0x0c\n        /* \"https://github.com/Vectorized/solady/blob/e4a14a5b365b353352f7c38e699a2bc9363d6576/src/tokens/ERC20.sol\":18429:18461  mstore(0x0c, _BALANCE_SLOT_SEED) */\n      mstore\n        /* \"https://github.com/Vectorized/solady/blob/e4a14a5b365b353352f7c38e699a2bc9363d6576/src/tokens/ERC20.sol\":18487:18489  to */\n      dup4\n        /* \"https://github.com/Vectorized/solady/blob/e4a14a5b365b353352f7c38e699a2bc9363d6576/src/tokens/ERC20.sol\":18481:18485  0x00 */\n      0x00\n        /* \"https://github.com/Vectorized/solady/blob/e4a14a5b365b353352f7c38e699a2bc9363d6576/src/tokens/ERC20.sol\":18474:18490  mstore(0x00, to) */\n      mstore\n        /* \"https://github.com/Vectorized/solady/blob/e4a14a5b365b353352f7c38e699a2bc9363d6576/src/tokens/ERC20.sol\":18540:18544  0x20 */\n      0x20\n        /* \"https://github.com/Vectorized/solady/blob/e4a14a5b365b353352f7c38e699a2bc9363d6576/src/tokens/ERC20.sol\":18534:18538  0x0c */\n      0x0c\n        /* \"https://github.com/Vectorized/solady/blob/e4a14a5b365b353352f7c38e699a2bc9363d6576/src/tokens/ERC20.sol\":18524:18545  keccak256(0x0c, 0x20) */\n      keccak256\n        /* \"https://github.com/Vectorized/solady/blob/e4a14a5b365b353352f7c38e699a2bc9363d6576/src/tokens/ERC20.sol\":18656:18662  amount */\n      dup4\n        /* \"https://github.com/Vectorized/solady/blob/e4a14a5b365b353352f7c38e699a2bc9363d6576/src/tokens/ERC20.sol\":18640:18653  toBalanceSlot */\n      dup2\n        /* \"https://github.com/Vectorized/solady/blob/e4a14a5b365b353352f7c38e699a2bc9363d6576/src/tokens/ERC20.sol\":18634:18654  sload(toBalanceSlot) */\n      sload\n        /* \"https://github.com/Vectorized/solady/blob/e4a14a5b365b353352f7c38e699a2bc9363d6576/src/tokens/ERC20.sol\":18630:18663  add(sload(toBalanceSlot), amount) */\n      add\n        /* \"https://github.com/Vectorized/solady/blob/e4a14a5b365b353352f7c38e699a2bc9363d6576/src/tokens/ERC20.sol\":18615:18628  toBalanceSlot */\n      dup2\n        /* \"https://github.com/Vectorized/solady/blob/e4a14a5b365b353352f7c38e699a2bc9363d6576/src/tokens/ERC20.sol\":18608:18664  sstore(toBalanceSlot, add(sload(toBalanceSlot), amount)) */\n      sstore\n        /* \"https://github.com/Vectorized/solady/blob/e4a14a5b365b353352f7c38e699a2bc9363d6576/src/tokens/ERC20.sol\":18732:18738  amount */\n      dup4\n        /* \"https://github.com/Vectorized/solady/blob/e4a14a5b365b353352f7c38e699a2bc9363d6576/src/tokens/ERC20.sol\":18726:18730  0x20 */\n      0x20\n        /* \"https://github.com/Vectorized/solady/blob/e4a14a5b365b353352f7c38e699a2bc9363d6576/src/tokens/ERC20.sol\":18719:18739  mstore(0x20, amount) */\n      mstore\n        /* \"https://github.com/Vectorized/solady/blob/e4a14a5b365b353352f7c38e699a2bc9363d6576/src/tokens/ERC20.sol\":18813:18817  0x0c */\n      0x0c\n        /* \"https://github.com/Vectorized/solady/blob/e4a14a5b365b353352f7c38e699a2bc9363d6576/src/tokens/ERC20.sol\":18807:18818  mload(0x0c) */\n      mload\n        /* \"https://github.com/Vectorized/solady/blob/e4a14a5b365b353352f7c38e699a2bc9363d6576/src/tokens/ERC20.sol\":18803:18805  96 */\n      0x60\n        /* \"https://github.com/Vectorized/solady/blob/e4a14a5b365b353352f7c38e699a2bc9363d6576/src/tokens/ERC20.sol\":18799:18819  shr(96, mload(0x0c)) */\n      shr\n        /* \"https://github.com/Vectorized/solady/blob/e4a14a5b365b353352f7c38e699a2bc9363d6576/src/tokens/ERC20.sol\":18796:18797  0 */\n      0x00\n        /* \"https://github.com/Vectorized/solady/blob/e4a14a5b365b353352f7c38e699a2bc9363d6576/src/tokens/ERC20.sol\":18769:18794  _TRANSFER_EVENT_SIGNATURE */\n      0xddf252ad1be2c89b69c2b068fc378daa952ba7f163c4a11628f55a4df523b3ef\n        /* \"https://github.com/Vectorized/solady/blob/e4a14a5b365b353352f7c38e699a2bc9363d6576/src/tokens/ERC20.sol\":18763:18767  0x20 */\n      0x20\n        /* \"https://github.com/Vectorized/solady/blob/e4a14a5b365b353352f7c38e699a2bc9363d6576/src/tokens/ERC20.sol\":18757:18761  0x20 */\n      dup1\n        /* \"https://github.com/Vectorized/solady/blob/e4a14a5b365b353352f7c38e699a2bc9363d6576/src/tokens/ERC20.sol\":18752:18820  log3(0x20, 0x20, _TRANSFER_EVENT_SIGNATURE, 0, shr(96, mload(0x0c))) */\n      log3\n        /* \"https://github.com/Vectorized/solady/blob/e4a14a5b365b353352f7c38e699a2bc9363d6576/src/tokens/ERC20.sol\":17893:18830  {... */\n      pop\n      pop\n      pop\n        /* \"https://github.com/Vectorized/solady/blob/e4a14a5b365b353352f7c38e699a2bc9363d6576/src/tokens/ERC20.sol\":18839:18882  _afterTokenTransfer(address(0), to, amount) */\n      tag_309\n        /* \"https://github.com/Vectorized/solady/blob/e4a14a5b365b353352f7c38e699a2bc9363d6576/src/tokens/ERC20.sol\":18867:18868  0 */\n      0x00\n        /* \"https://github.com/Vectorized/solady/blob/e4a14a5b365b353352f7c38e699a2bc9363d6576/src/tokens/ERC20.sol\":18871:18873  to */\n      dup4\n        /* \"https://github.com/Vectorized/solady/blob/e4a14a5b365b353352f7c38e699a2bc9363d6576/src/tokens/ERC20.sol\":18875:18881  amount */\n      dup4\n        /* \"https://github.com/Vectorized/solady/blob/e4a14a5b365b353352f7c38e699a2bc9363d6576/src/tokens/ERC20.sol\":18839:18858  _afterTokenTransfer */\n      tag_127\n        /* \"https://github.com/Vectorized/solady/blob/e4a14a5b365b353352f7c38e699a2bc9363d6576/src/tokens/ERC20.sol\":18839:18882  _afterTokenTransfer(address(0), to, amount) */\n      jump\t// in\n    tag_309:\n        /* \"https://github.com/Vectorized/solady/blob/e4a14a5b365b353352f7c38e699a2bc9363d6576/src/tokens/ERC20.sol\":17717:18889  function _mint(address to, uint256 amount) internal virtual {... */\n      pop\n      pop\n      jump\t// out\n        /* \"contracts/Pool.sol\":6162:6268  function min(uint256 a, uint256 b) internal pure returns (uint256) {... */\n    tag_259:\n        /* \"contracts/Pool.sol\":6220:6227  uint256 */\n      0x00\n        /* \"contracts/Pool.sol\":6251:6252  b */\n      dup2\n        /* \"contracts/Pool.sol\":6247:6248  a */\n      dup4\n        /* \"contracts/Pool.sol\":6247:6252  a < b */\n      lt\n        /* \"contracts/Pool.sol\":6247:6260  a < b ? a : b */\n      tag_311\n      jumpi\n        /* \"contracts/Pool.sol\":6259:6260  b */\n      dup2\n        /* \"contracts/Pool.sol\":6247:6260  a < b ? a : b */\n      jump(tag_312)\n    tag_311:\n        /* \"contracts/Pool.sol\":6255:6256  a */\n      dup3\n        /* \"contracts/Pool.sol\":6247:6260  a < b ? a : b */\n    tag_312:\n        /* \"contracts/Pool.sol\":6240:6260  return a < b ? a : b */\n      swap1\n      pop\n        /* \"contracts/Pool.sol\":6162:6268  function min(uint256 a, uint256 b) internal pure returns (uint256) {... */\n      swap3\n      swap2\n      pop\n      pop\n      jump\t// out\n        /* \"#utility.yul\":7:106   */\n    tag_313:\n        /* \"#utility.yul\":59:65   */\n      0x00\n        /* \"#utility.yul\":93:98   */\n      dup2\n        /* \"#utility.yul\":87:99   */\n      mload\n        /* \"#utility.yul\":77:99   */\n      swap1\n      pop\n        /* \"#utility.yul\":7:106   */\n      swap2\n      swap1\n      pop\n      jump\t// out\n        /* \"#utility.yul\":112:281   */\n    tag_314:\n        /* \"#utility.yul\":196:207   */\n      0x00\n        /* \"#utility.yul\":230:236   */\n      dup3\n        /* \"#utility.yul\":225:228   */\n      dup3\n        /* \"#utility.yul\":218:237   */\n      mstore\n        /* \"#utility.yul\":270:274   */\n      0x20\n        /* \"#utility.yul\":265:268   */\n      dup3\n        /* \"#utility.yul\":261:275   */\n      add\n        /* \"#utility.yul\":246:275   */\n      swap1\n      pop\n        /* \"#utility.yul\":112:281   */\n      swap3\n      swap2\n      pop\n      pop\n      jump\t// out\n        /* \"#utility.yul\":287:533   */\n    tag_315:\n        /* \"#utility.yul\":368:369   */\n      0x00\n        /* \"#utility.yul\":378:491   */\n    tag_354:\n        /* \"#utility.yul\":392:398   */\n      dup4\n        /* \"#utility.yul\":389:390   */\n      dup2\n        /* \"#utility.yul\":386:399   */\n      lt\n        /* \"#utility.yul\":378:491   */\n      iszero\n      tag_356\n      jumpi\n        /* \"#utility.yul\":477:478   */\n      dup1\n        /* \"#utility.yul\":472:475   */\n      dup3\n        /* \"#utility.yul\":468:479   */\n      add\n        /* \"#utility.yul\":462:480   */\n      mload\n        /* \"#utility.yul\":458:459   */\n      dup2\n        /* \"#utility.yul\":453:456   */\n      dup5\n        /* \"#utility.yul\":449:460   */\n      add\n        /* \"#utility.yul\":442:481   */\n      mstore\n        /* \"#utility.yul\":414:416   */\n      0x20\n        /* \"#utility.yul\":411:412   */\n      dup2\n        /* \"#utility.yul\":407:417   */\n      add\n        /* \"#utility.yul\":402:417   */\n      swap1\n      pop\n        /* \"#utility.yul\":378:491   */\n      jump(tag_354)\n    tag_356:\n        /* \"#utility.yul\":525:526   */\n      0x00\n        /* \"#utility.yul\":516:522   */\n      dup5\n        /* \"#utility.yul\":511:514   */\n      dup5\n        /* \"#utility.yul\":507:523   */\n      add\n        /* \"#utility.yul\":500:527   */\n      mstore\n        /* \"#utility.yul\":349:533   */\n      pop\n        /* \"#utility.yul\":287:533   */\n      pop\n      pop\n      pop\n      jump\t// out\n        /* \"#utility.yul\":539:641   */\n    tag_316:\n        /* \"#utility.yul\":580:586   */\n      0x00\n        /* \"#utility.yul\":631:633   */\n      0x1f\n        /* \"#utility.yul\":627:634   */\n      not\n        /* \"#utility.yul\":622:624   */\n      0x1f\n        /* \"#utility.yul\":615:620   */\n      dup4\n        /* \"#utility.yul\":611:625   */\n      add\n        /* \"#utility.yul\":607:635   */\n      and\n        /* \"#utility.yul\":597:635   */\n      swap1\n      pop\n        /* \"#utility.yul\":539:641   */\n      swap2\n      swap1\n      pop\n      jump\t// out\n        /* \"#utility.yul\":647:1024   */\n    tag_317:\n        /* \"#utility.yul\":735:738   */\n      0x00\n        /* \"#utility.yul\":763:802   */\n      tag_359\n        /* \"#utility.yul\":796:801   */\n      dup3\n        /* \"#utility.yul\":763:802   */\n      tag_313\n      jump\t// in\n    tag_359:\n        /* \"#utility.yul\":818:889   */\n      tag_360\n        /* \"#utility.yul\":882:888   */\n      dup2\n        /* \"#utility.yul\":877:880   */\n      dup6\n        /* \"#utility.yul\":818:889   */\n      tag_314\n      jump\t// in\n    tag_360:\n        /* \"#utility.yul\":811:889   */\n      swap4\n      pop\n        /* \"#utility.yul\":898:963   */\n      tag_361\n        /* \"#utility.yul\":956:962   */\n      dup2\n        /* \"#utility.yul\":951:954   */\n      dup6\n        /* \"#utility.yul\":944:948   */\n      0x20\n        /* \"#utility.yul\":937:942   */\n      dup7\n        /* \"#utility.yul\":933:949   */\n      add\n        /* \"#utility.yul\":898:963   */\n      tag_315\n      jump\t// in\n    tag_361:\n        /* \"#utility.yul\":988:1017   */\n      tag_362\n        /* \"#utility.yul\":1010:1016   */\n      dup2\n        /* \"#utility.yul\":988:1017   */\n      tag_316\n      jump\t// in\n    tag_362:\n        /* \"#utility.yul\":983:986   */\n      dup5\n        /* \"#utility.yul\":979:1018   */\n      add\n        /* \"#utility.yul\":972:1018   */\n      swap2\n      pop\n        /* \"#utility.yul\":739:1024   */\n      pop\n        /* \"#utility.yul\":647:1024   */\n      swap3\n      swap2\n      pop\n      pop\n      jump\t// out\n        /* \"#utility.yul\":1030:1343   */\n    tag_30:\n        /* \"#utility.yul\":1143:1147   */\n      0x00\n        /* \"#utility.yul\":1181:1183   */\n      0x20\n        /* \"#utility.yul\":1170:1179   */\n      dup3\n        /* \"#utility.yul\":1166:1184   */\n      add\n        /* \"#utility.yul\":1158:1184   */\n      swap1\n      pop\n        /* \"#utility.yul\":1230:1239   */\n      dup2\n        /* \"#utility.yul\":1224:1228   */\n      dup2\n        /* \"#utility.yul\":1220:1240   */\n      sub\n        /* \"#utility.yul\":1216:1217   */\n      0x00\n        /* \"#utility.yul\":1205:1214   */\n      dup4\n        /* \"#utility.yul\":1201:1218   */\n      add\n        /* \"#utility.yul\":1194:1241   */\n      mstore\n        /* \"#utility.yul\":1258:1336   */\n      tag_364\n        /* \"#utility.yul\":1331:1335   */\n      dup2\n        /* \"#utility.yul\":1322:1328   */\n      dup5\n        /* \"#utility.yul\":1258:1336   */\n      tag_317\n      jump\t// in\n    tag_364:\n        /* \"#utility.yul\":1250:1336   */\n      swap1\n      pop\n        /* \"#utility.yul\":1030:1343   */\n      swap3\n      swap2\n      pop\n      pop\n      jump\t// out\n        /* \"#utility.yul\":1430:1547   */\n    tag_319:\n        /* \"#utility.yul\":1539:1540   */\n      0x00\n        /* \"#utility.yul\":1536:1537   */\n      dup1\n        /* \"#utility.yul\":1529:1541   */\n      revert\n        /* \"#utility.yul\":1676:1802   */\n    tag_321:\n        /* \"#utility.yul\":1713:1720   */\n      0x00\n        /* \"#utility.yul\":1753:1795   */\n      0xffffffffffffffffffffffffffffffffffffffff\n        /* \"#utility.yul\":1746:1751   */\n      dup3\n        /* \"#utility.yul\":1742:1796   */\n      and\n        /* \"#utility.yul\":1731:1796   */\n      swap1\n      pop\n        /* \"#utility.yul\":1676:1802   */\n      swap2\n      swap1\n      pop\n      jump\t// out\n        /* \"#utility.yul\":1808:1904   */\n    tag_322:\n        /* \"#utility.yul\":1845:1852   */\n      0x00\n        /* \"#utility.yul\":1874:1898   */\n      tag_370\n        /* \"#utility.yul\":1892:1897   */\n      dup3\n        /* \"#utility.yul\":1874:1898   */\n      tag_321\n      jump\t// in\n    tag_370:\n        /* \"#utility.yul\":1863:1898   */\n      swap1\n      pop\n        /* \"#utility.yul\":1808:1904   */\n      swap2\n      swap1\n      pop\n      jump\t// out\n        /* \"#utility.yul\":1910:2032   */\n    tag_323:\n        /* \"#utility.yul\":1983:2007   */\n      tag_372\n        /* \"#utility.yul\":2001:2006   */\n      dup2\n        /* \"#utility.yul\":1983:2007   */\n      tag_322\n      jump\t// in\n    tag_372:\n        /* \"#utility.yul\":1976:1981   */\n      dup2\n        /* \"#utility.yul\":1973:2008   */\n      eq\n        /* \"#utility.yul\":1963:2026   */\n      tag_373\n      jumpi\n        /* \"#utility.yul\":2022:2023   */\n      0x00\n        /* \"#utility.yul\":2019:2020   */\n      dup1\n        /* \"#utility.yul\":2012:2024   */\n      revert\n        /* \"#utility.yul\":1963:2026   */\n    tag_373:\n        /* \"#utility.yul\":1910:2032   */\n      pop\n      jump\t// out\n        /* \"#utility.yul\":2038:2177   */\n    tag_324:\n        /* \"#utility.yul\":2084:2089   */\n      0x00\n        /* \"#utility.yul\":2122:2128   */\n      dup2\n        /* \"#utility.yul\":2109:2129   */\n      calldataload\n        /* \"#utility.yul\":2100:2129   */\n      swap1\n      pop\n        /* \"#utility.yul\":2138:2171   */\n      tag_375\n        /* \"#utility.yul\":2165:2170   */\n      dup2\n        /* \"#utility.yul\":2138:2171   */\n      tag_323\n      jump\t// in\n    tag_375:\n        /* \"#utility.yul\":2038:2177   */\n      swap3\n      swap2\n      pop\n      pop\n      jump\t// out\n        /* \"#utility.yul\":2183:2260   */\n    tag_325:\n        /* \"#utility.yul\":2220:2227   */\n      0x00\n        /* \"#utility.yul\":2249:2254   */\n      dup2\n        /* \"#utility.yul\":2238:2254   */\n      swap1\n      pop\n        /* \"#utility.yul\":2183:2260   */\n      swap2\n      swap1\n      pop\n      jump\t// out\n        /* \"#utility.yul\":2266:2388   */\n    tag_326:\n        /* \"#utility.yul\":2339:2363   */\n      tag_378\n        /* \"#utility.yul\":2357:2362   */\n      dup2\n        /* \"#utility.yul\":2339:2363   */\n      tag_325\n      jump\t// in\n    tag_378:\n        /* \"#utility.yul\":2332:2337   */\n      dup2\n        /* \"#utility.yul\":2329:2364   */\n      eq\n        /* \"#utility.yul\":2319:2382   */\n      tag_379\n      jumpi\n        /* \"#utility.yul\":2378:2379   */\n      0x00\n        /* \"#utility.yul\":2375:2376   */\n      dup1\n        /* \"#utility.yul\":2368:2380   */\n      revert\n        /* \"#utility.yul\":2319:2382   */\n    tag_379:\n        /* \"#utility.yul\":2266:2388   */\n      pop\n      jump\t// out\n        /* \"#utility.yul\":2394:2533   */\n    tag_327:\n        /* \"#utility.yul\":2440:2445   */\n      0x00\n        /* \"#utility.yul\":2478:2484   */\n      dup2\n        /* \"#utility.yul\":2465:2485   */\n      calldataload\n        /* \"#utility.yul\":2456:2485   */\n      swap1\n      pop\n        /* \"#utility.yul\":2494:2527   */\n      tag_381\n        /* \"#utility.yul\":2521:2526   */\n      dup2\n        /* \"#utility.yul\":2494:2527   */\n      tag_326\n      jump\t// in\n    tag_381:\n        /* \"#utility.yul\":2394:2533   */\n      swap3\n      swap2\n      pop\n      pop\n      jump\t// out\n        /* \"#utility.yul\":2539:3013   */\n    tag_33:\n        /* \"#utility.yul\":2607:2613   */\n      0x00\n        /* \"#utility.yul\":2615:2621   */\n      dup1\n        /* \"#utility.yul\":2664:2666   */\n      0x40\n        /* \"#utility.yul\":2652:2661   */\n      dup4\n        /* \"#utility.yul\":2643:2650   */\n      dup6\n        /* \"#utility.yul\":2639:2662   */\n      sub\n        /* \"#utility.yul\":2635:2667   */\n      slt\n        /* \"#utility.yul\":2632:2751   */\n      iszero\n      tag_383\n      jumpi\n        /* \"#utility.yul\":2670:2749   */\n      tag_384\n      tag_319\n      jump\t// in\n    tag_384:\n        /* \"#utility.yul\":2632:2751   */\n    tag_383:\n        /* \"#utility.yul\":2790:2791   */\n      0x00\n        /* \"#utility.yul\":2815:2868   */\n      tag_385\n        /* \"#utility.yul\":2860:2867   */\n      dup6\n        /* \"#utility.yul\":2851:2857   */\n      dup3\n        /* \"#utility.yul\":2840:2849   */\n      dup7\n        /* \"#utility.yul\":2836:2858   */\n      add\n        /* \"#utility.yul\":2815:2868   */\n      tag_324\n      jump\t// in\n    tag_385:\n        /* \"#utility.yul\":2805:2868   */\n      swap3\n      pop\n        /* \"#utility.yul\":2761:2878   */\n      pop\n        /* \"#utility.yul\":2917:2919   */\n      0x20\n        /* \"#utility.yul\":2943:2996   */\n      tag_386\n        /* \"#utility.yul\":2988:2995   */\n      dup6\n        /* \"#utility.yul\":2979:2985   */\n      dup3\n        /* \"#utility.yul\":2968:2977   */\n      dup7\n        /* \"#utility.yul\":2964:2986   */\n      add\n        /* \"#utility.yul\":2943:2996   */\n      tag_327\n      jump\t// in\n    tag_386:\n        /* \"#utility.yul\":2933:2996   */\n      swap2\n      pop\n        /* \"#utility.yul\":2888:3006   */\n      pop\n        /* \"#utility.yul\":2539:3013   */\n      swap3\n      pop\n      swap3\n      swap1\n      pop\n      jump\t// out\n        /* \"#utility.yul\":3019:3109   */\n    tag_328:\n        /* \"#utility.yul\":3053:3060   */\n      0x00\n        /* \"#utility.yul\":3096:3101   */\n      dup2\n        /* \"#utility.yul\":3089:3102   */\n      iszero\n        /* \"#utility.yul\":3082:3103   */\n      iszero\n        /* \"#utility.yul\":3071:3103   */\n      swap1\n      pop\n        /* \"#utility.yul\":3019:3109   */\n      swap2\n      swap1\n      pop\n      jump\t// out\n        /* \"#utility.yul\":3115:3224   */\n    tag_329:\n        /* \"#utility.yul\":3196:3217   */\n      tag_389\n        /* \"#utility.yul\":3211:3216   */\n      dup2\n        /* \"#utility.yul\":3196:3217   */\n      tag_328\n      jump\t// in\n    tag_389:\n        /* \"#utility.yul\":3191:3194   */\n      dup3\n        /* \"#utility.yul\":3184:3218   */\n      mstore\n        /* \"#utility.yul\":3115:3224   */\n      pop\n      pop\n      jump\t// out\n        /* \"#utility.yul\":3230:3440   */\n    tag_36:\n        /* \"#utility.yul\":3317:3321   */\n      0x00\n        /* \"#utility.yul\":3355:3357   */\n      0x20\n        /* \"#utility.yul\":3344:3353   */\n      dup3\n        /* \"#utility.yul\":3340:3358   */\n      add\n        /* \"#utility.yul\":3332:3358   */\n      swap1\n      pop\n        /* \"#utility.yul\":3368:3433   */\n      tag_391\n        /* \"#utility.yul\":3430:3431   */\n      0x00\n        /* \"#utility.yul\":3419:3428   */\n      dup4\n        /* \"#utility.yul\":3415:3432   */\n      add\n        /* \"#utility.yul\":3406:3412   */\n      dup5\n        /* \"#utility.yul\":3368:3433   */\n      tag_329\n      jump\t// in\n    tag_391:\n        /* \"#utility.yul\":3230:3440   */\n      swap3\n      swap2\n      pop\n      pop\n      jump\t// out\n        /* \"#utility.yul\":3446:3564   */\n    tag_330:\n        /* \"#utility.yul\":3533:3557   */\n      tag_393\n        /* \"#utility.yul\":3551:3556   */\n      dup2\n        /* \"#utility.yul\":3533:3557   */\n      tag_325\n      jump\t// in\n    tag_393:\n        /* \"#utility.yul\":3528:3531   */\n      dup3\n        /* \"#utility.yul\":3521:3558   */\n      mstore\n        /* \"#utility.yul\":3446:3564   */\n      pop\n      pop\n      jump\t// out\n        /* \"#utility.yul\":3570:3792   */\n    tag_40:\n        /* \"#utility.yul\":3663:3667   */\n      0x00\n        /* \"#utility.yul\":3701:3703   */\n      0x20\n        /* \"#utility.yul\":3690:3699   */\n      dup3\n        /* \"#utility.yul\":3686:3704   */\n      add\n        /* \"#utility.yul\":3678:3704   */\n      swap1\n      pop\n        /* \"#utility.yul\":3714:3785   */\n      tag_395\n        /* \"#utility.yul\":3782:3783   */\n      0x00\n        /* \"#utility.yul\":3771:3780   */\n      dup4\n        /* \"#utility.yul\":3767:3784   */\n      add\n        /* \"#utility.yul\":3758:3764   */\n      dup5\n        /* \"#utility.yul\":3714:3785   */\n      tag_330\n      jump\t// in\n    tag_395:\n        /* \"#utility.yul\":3570:3792   */\n      swap3\n      swap2\n      pop\n      pop\n      jump\t// out\n        /* \"#utility.yul\":3798:4417   */\n    tag_46:\n        /* \"#utility.yul\":3875:3881   */\n      0x00\n        /* \"#utility.yul\":3883:3889   */\n      dup1\n        /* \"#utility.yul\":3891:3897   */\n      0x00\n        /* \"#utility.yul\":3940:3942   */\n      0x60\n        /* \"#utility.yul\":3928:3937   */\n      dup5\n        /* \"#utility.yul\":3919:3926   */\n      dup7\n        /* \"#utility.yul\":3915:3938   */\n      sub\n        /* \"#utility.yul\":3911:3943   */\n      slt\n        /* \"#utility.yul\":3908:4027   */\n      iszero\n      tag_397\n      jumpi\n        /* \"#utility.yul\":3946:4025   */\n      tag_398\n      tag_319\n      jump\t// in\n    tag_398:\n        /* \"#utility.yul\":3908:4027   */\n    tag_397:\n        /* \"#utility.yul\":4066:4067   */\n      0x00\n        /* \"#utility.yul\":4091:4144   */\n      tag_399\n        /* \"#utility.yul\":4136:4143   */\n      dup7\n        /* \"#utility.yul\":4127:4133   */\n      dup3\n        /* \"#utility.yul\":4116:4125   */\n      dup8\n        /* \"#utility.yul\":4112:4134   */\n      add\n        /* \"#utility.yul\":4091:4144   */\n      tag_324\n      jump\t// in\n    tag_399:\n        /* \"#utility.yul\":4081:4144   */\n      swap4\n      pop\n        /* \"#utility.yul\":4037:4154   */\n      pop\n        /* \"#utility.yul\":4193:4195   */\n      0x20\n        /* \"#utility.yul\":4219:4272   */\n      tag_400\n        /* \"#utility.yul\":4264:4271   */\n      dup7\n        /* \"#utility.yul\":4255:4261   */\n      dup3\n        /* \"#utility.yul\":4244:4253   */\n      dup8\n        /* \"#utility.yul\":4240:4262   */\n      add\n        /* \"#utility.yul\":4219:4272   */\n      tag_324\n      jump\t// in\n    tag_400:\n        /* \"#utility.yul\":4209:4272   */\n      swap3\n      pop\n        /* \"#utility.yul\":4164:4282   */\n      pop\n        /* \"#utility.yul\":4321:4323   */\n      0x40\n        /* \"#utility.yul\":4347:4400   */\n      tag_401\n        /* \"#utility.yul\":4392:4399   */\n      dup7\n        /* \"#utility.yul\":4383:4389   */\n      dup3\n        /* \"#utility.yul\":4372:4381   */\n      dup8\n        /* \"#utility.yul\":4368:4390   */\n      add\n        /* \"#utility.yul\":4347:4400   */\n      tag_327\n      jump\t// in\n    tag_401:\n        /* \"#utility.yul\":4337:4400   */\n      swap2\n      pop\n        /* \"#utility.yul\":4292:4410   */\n      pop\n        /* \"#utility.yul\":3798:4417   */\n      swap3\n      pop\n      swap3\n      pop\n      swap3\n      jump\t// out\n        /* \"#utility.yul\":4423:4752   */\n    tag_51:\n        /* \"#utility.yul\":4482:4488   */\n      0x00\n        /* \"#utility.yul\":4531:4533   */\n      0x20\n        /* \"#utility.yul\":4519:4528   */\n      dup3\n        /* \"#utility.yul\":4510:4517   */\n      dup5\n        /* \"#utility.yul\":4506:4529   */\n      sub\n        /* \"#utility.yul\":4502:4534   */\n      slt\n        /* \"#utility.yul\":4499:4618   */\n      iszero\n      tag_403\n      jumpi\n        /* \"#utility.yul\":4537:4616   */\n      tag_404\n      tag_319\n      jump\t// in\n    tag_404:\n        /* \"#utility.yul\":4499:4618   */\n    tag_403:\n        /* \"#utility.yul\":4657:4658   */\n      0x00\n        /* \"#utility.yul\":4682:4735   */\n      tag_405\n        /* \"#utility.yul\":4727:4734   */\n      dup5\n        /* \"#utility.yul\":4718:4724   */\n      dup3\n        /* \"#utility.yul\":4707:4716   */\n      dup6\n        /* \"#utility.yul\":4703:4725   */\n      add\n        /* \"#utility.yul\":4682:4735   */\n      tag_327\n      jump\t// in\n    tag_405:\n        /* \"#utility.yul\":4672:4735   */\n      swap2\n      pop\n        /* \"#utility.yul\":4628:4745   */\n      pop\n        /* \"#utility.yul\":4423:4752   */\n      swap3\n      swap2\n      pop\n      pop\n      jump\t// out\n        /* \"#utility.yul\":4758:5090   */\n    tag_54:\n        /* \"#utility.yul\":4879:4883   */\n      0x00\n        /* \"#utility.yul\":4917:4919   */\n      0x40\n        /* \"#utility.yul\":4906:4915   */\n      dup3\n        /* \"#utility.yul\":4902:4920   */\n      add\n        /* \"#utility.yul\":4894:4920   */\n      swap1\n      pop\n        /* \"#utility.yul\":4930:5001   */\n      tag_407\n        /* \"#utility.yul\":4998:4999   */\n      0x00\n        /* \"#utility.yul\":4987:4996   */\n      dup4\n        /* \"#utility.yul\":4983:5000   */\n      add\n        /* \"#utility.yul\":4974:4980   */\n      dup6\n        /* \"#utility.yul\":4930:5001   */\n      tag_330\n      jump\t// in\n    tag_407:\n        /* \"#utility.yul\":5011:5083   */\n      tag_408\n        /* \"#utility.yul\":5079:5081   */\n      0x20\n        /* \"#utility.yul\":5068:5077   */\n      dup4\n        /* \"#utility.yul\":5064:5082   */\n      add\n        /* \"#utility.yul\":5055:5061   */\n      dup5\n        /* \"#utility.yul\":5011:5083   */\n      tag_330\n      jump\t// in\n    tag_408:\n        /* \"#utility.yul\":4758:5090   */\n      swap4\n      swap3\n      pop\n      pop\n      pop\n      jump\t// out\n        /* \"#utility.yul\":5096:5182   */\n    tag_331:\n        /* \"#utility.yul\":5131:5138   */\n      0x00\n        /* \"#utility.yul\":5171:5175   */\n      0xff\n        /* \"#utility.yul\":5164:5169   */\n      dup3\n        /* \"#utility.yul\":5160:5176   */\n      and\n        /* \"#utility.yul\":5149:5176   */\n      swap1\n      pop\n        /* \"#utility.yul\":5096:5182   */\n      swap2\n      swap1\n      pop\n      jump\t// out\n        /* \"#utility.yul\":5188:5300   */\n    tag_332:\n        /* \"#utility.yul\":5271:5293   */\n      tag_411\n        /* \"#utility.yul\":5287:5292   */\n      dup2\n        /* \"#utility.yul\":5271:5293   */\n      tag_331\n      jump\t// in\n    tag_411:\n        /* \"#utility.yul\":5266:5269   */\n      dup3\n        /* \"#utility.yul\":5259:5294   */\n      mstore\n        /* \"#utility.yul\":5188:5300   */\n      pop\n      pop\n      jump\t// out\n        /* \"#utility.yul\":5306:5520   */\n    tag_58:\n        /* \"#utility.yul\":5395:5399   */\n      0x00\n        /* \"#utility.yul\":5433:5435   */\n      0x20\n        /* \"#utility.yul\":5422:5431   */\n      dup3\n        /* \"#utility.yul\":5418:5436   */\n      add\n        /* \"#utility.yul\":5410:5436   */\n      swap1\n      pop\n        /* \"#utility.yul\":5446:5513   */\n      tag_413\n        /* \"#utility.yul\":5510:5511   */\n      0x00\n        /* \"#utility.yul\":5499:5508   */\n      dup4\n        /* \"#utility.yul\":5495:5512   */\n      add\n        /* \"#utility.yul\":5486:5492   */\n      dup5\n        /* \"#utility.yul\":5446:5513   */\n      tag_332\n      jump\t// in\n    tag_413:\n        /* \"#utility.yul\":5306:5520   */\n      swap3\n      swap2\n      pop\n      pop\n      jump\t// out\n        /* \"#utility.yul\":5526:5603   */\n    tag_333:\n        /* \"#utility.yul\":5563:5570   */\n      0x00\n        /* \"#utility.yul\":5592:5597   */\n      dup2\n        /* \"#utility.yul\":5581:5597   */\n      swap1\n      pop\n        /* \"#utility.yul\":5526:5603   */\n      swap2\n      swap1\n      pop\n      jump\t// out\n        /* \"#utility.yul\":5609:5727   */\n    tag_334:\n        /* \"#utility.yul\":5696:5720   */\n      tag_416\n        /* \"#utility.yul\":5714:5719   */\n      dup2\n        /* \"#utility.yul\":5696:5720   */\n      tag_333\n      jump\t// in\n    tag_416:\n        /* \"#utility.yul\":5691:5694   */\n      dup3\n        /* \"#utility.yul\":5684:5721   */\n      mstore\n        /* \"#utility.yul\":5609:5727   */\n      pop\n      pop\n      jump\t// out\n        /* \"#utility.yul\":5733:5955   */\n    tag_62:\n        /* \"#utility.yul\":5826:5830   */\n      0x00\n        /* \"#utility.yul\":5864:5866   */\n      0x20\n        /* \"#utility.yul\":5853:5862   */\n      dup3\n        /* \"#utility.yul\":5849:5867   */\n      add\n        /* \"#utility.yul\":5841:5867   */\n      swap1\n      pop\n        /* \"#utility.yul\":5877:5948   */\n      tag_418\n        /* \"#utility.yul\":5945:5946   */\n      0x00\n        /* \"#utility.yul\":5934:5943   */\n      dup4\n        /* \"#utility.yul\":5930:5947   */\n      add\n        /* \"#utility.yul\":5921:5927   */\n      dup5\n        /* \"#utility.yul\":5877:5948   */\n      tag_334\n      jump\t// in\n    tag_418:\n        /* \"#utility.yul\":5733:5955   */\n      swap3\n      swap2\n      pop\n      pop\n      jump\t// out\n        /* \"#utility.yul\":5961:6290   */\n    tag_72:\n        /* \"#utility.yul\":6020:6026   */\n      0x00\n        /* \"#utility.yul\":6069:6071   */\n      0x20\n        /* \"#utility.yul\":6057:6066   */\n      dup3\n        /* \"#utility.yul\":6048:6055   */\n      dup5\n        /* \"#utility.yul\":6044:6067   */\n      sub\n        /* \"#utility.yul\":6040:6072   */\n      slt\n        /* \"#utility.yul\":6037:6156   */\n      iszero\n      tag_420\n      jumpi\n        /* \"#utility.yul\":6075:6154   */\n      tag_421\n      tag_319\n      jump\t// in\n    tag_421:\n        /* \"#utility.yul\":6037:6156   */\n    tag_420:\n        /* \"#utility.yul\":6195:6196   */\n      0x00\n        /* \"#utility.yul\":6220:6273   */\n      tag_422\n        /* \"#utility.yul\":6265:6272   */\n      dup5\n        /* \"#utility.yul\":6256:6262   */\n      dup3\n        /* \"#utility.yul\":6245:6254   */\n      dup6\n        /* \"#utility.yul\":6241:6263   */\n      add\n        /* \"#utility.yul\":6220:6273   */\n      tag_324\n      jump\t// in\n    tag_422:\n        /* \"#utility.yul\":6210:6273   */\n      swap2\n      pop\n        /* \"#utility.yul\":6166:6283   */\n      pop\n        /* \"#utility.yul\":5961:6290   */\n      swap3\n      swap2\n      pop\n      pop\n      jump\t// out\n        /* \"#utility.yul\":6296:6414   */\n    tag_335:\n        /* \"#utility.yul\":6383:6407   */\n      tag_424\n        /* \"#utility.yul\":6401:6406   */\n      dup2\n        /* \"#utility.yul\":6383:6407   */\n      tag_322\n      jump\t// in\n    tag_424:\n        /* \"#utility.yul\":6378:6381   */\n      dup3\n        /* \"#utility.yul\":6371:6408   */\n      mstore\n        /* \"#utility.yul\":6296:6414   */\n      pop\n      pop\n      jump\t// out\n        /* \"#utility.yul\":6420:6642   */\n    tag_96:\n        /* \"#utility.yul\":6513:6517   */\n      0x00\n        /* \"#utility.yul\":6551:6553   */\n      0x20\n        /* \"#utility.yul\":6540:6549   */\n      dup3\n        /* \"#utility.yul\":6536:6554   */\n      add\n        /* \"#utility.yul\":6528:6554   */\n      swap1\n      pop\n        /* \"#utility.yul\":6564:6635   */\n      tag_426\n        /* \"#utility.yul\":6632:6633   */\n      0x00\n        /* \"#utility.yul\":6621:6630   */\n      dup4\n        /* \"#utility.yul\":6617:6634   */\n      add\n        /* \"#utility.yul\":6608:6614   */\n      dup5\n        /* \"#utility.yul\":6564:6635   */\n      tag_335\n      jump\t// in\n    tag_426:\n        /* \"#utility.yul\":6420:6642   */\n      swap3\n      swap2\n      pop\n      pop\n      jump\t// out\n        /* \"#utility.yul\":6648:6766   */\n    tag_336:\n        /* \"#utility.yul\":6719:6741   */\n      tag_428\n        /* \"#utility.yul\":6735:6740   */\n      dup2\n        /* \"#utility.yul\":6719:6741   */\n      tag_331\n      jump\t// in\n    tag_428:\n        /* \"#utility.yul\":6712:6717   */\n      dup2\n        /* \"#utility.yul\":6709:6742   */\n      eq\n        /* \"#utility.yul\":6699:6760   */\n      tag_429\n      jumpi\n        /* \"#utility.yul\":6756:6757   */\n      0x00\n        /* \"#utility.yul\":6753:6754   */\n      dup1\n        /* \"#utility.yul\":6746:6758   */\n      revert\n        /* \"#utility.yul\":6699:6760   */\n    tag_429:\n        /* \"#utility.yul\":6648:6766   */\n      pop\n      jump\t// out\n        /* \"#utility.yul\":6772:6907   */\n    tag_337:\n        /* \"#utility.yul\":6816:6821   */\n      0x00\n        /* \"#utility.yul\":6854:6860   */\n      dup2\n        /* \"#utility.yul\":6841:6861   */\n      calldataload\n        /* \"#utility.yul\":6832:6861   */\n      swap1\n      pop\n        /* \"#utility.yul\":6870:6901   */\n      tag_431\n        /* \"#utility.yul\":6895:6900   */\n      dup2\n        /* \"#utility.yul\":6870:6901   */\n      tag_336\n      jump\t// in\n    tag_431:\n        /* \"#utility.yul\":6772:6907   */\n      swap3\n      swap2\n      pop\n      pop\n      jump\t// out\n        /* \"#utility.yul\":6913:7035   */\n    tag_338:\n        /* \"#utility.yul\":6986:7010   */\n      tag_433\n        /* \"#utility.yul\":7004:7009   */\n      dup2\n        /* \"#utility.yul\":6986:7010   */\n      tag_333\n      jump\t// in\n    tag_433:\n        /* \"#utility.yul\":6979:6984   */\n      dup2\n        /* \"#utility.yul\":6976:7011   */\n      eq\n        /* \"#utility.yul\":6966:7029   */\n      tag_434\n      jumpi\n        /* \"#utility.yul\":7025:7026   */\n      0x00\n        /* \"#utility.yul\":7022:7023   */\n      dup1\n        /* \"#utility.yul\":7015:7027   */\n      revert\n        /* \"#utility.yul\":6966:7029   */\n    tag_434:\n        /* \"#utility.yul\":6913:7035   */\n      pop\n      jump\t// out\n        /* \"#utility.yul\":7041:7180   */\n    tag_339:\n        /* \"#utility.yul\":7087:7092   */\n      0x00\n        /* \"#utility.yul\":7125:7131   */\n      dup2\n        /* \"#utility.yul\":7112:7132   */\n      calldataload\n        /* \"#utility.yul\":7103:7132   */\n      swap1\n      pop\n        /* \"#utility.yul\":7141:7174   */\n      tag_436\n        /* \"#utility.yul\":7168:7173   */\n      dup2\n        /* \"#utility.yul\":7141:7174   */\n      tag_338\n      jump\t// in\n    tag_436:\n        /* \"#utility.yul\":7041:7180   */\n      swap3\n      swap2\n      pop\n      pop\n      jump\t// out\n        /* \"#utility.yul\":7186:8385   */\n    tag_103:\n        /* \"#utility.yul\":7297:7303   */\n      0x00\n        /* \"#utility.yul\":7305:7311   */\n      dup1\n        /* \"#utility.yul\":7313:7319   */\n      0x00\n        /* \"#utility.yul\":7321:7327   */\n      dup1\n        /* \"#utility.yul\":7329:7335   */\n      0x00\n        /* \"#utility.yul\":7337:7343   */\n      dup1\n        /* \"#utility.yul\":7345:7351   */\n      0x00\n        /* \"#utility.yul\":7394:7397   */\n      0xe0\n        /* \"#utility.yul\":7382:7391   */\n      dup9\n        /* \"#utility.yul\":7373:7380   */\n      dup11\n        /* \"#utility.yul\":7369:7392   */\n      sub\n        /* \"#utility.yul\":7365:7398   */\n      slt\n        /* \"#utility.yul\":7362:7482   */\n      iszero\n      tag_438\n      jumpi\n        /* \"#utility.yul\":7401:7480   */\n      tag_439\n      tag_319\n      jump\t// in\n    tag_439:\n        /* \"#utility.yul\":7362:7482   */\n    tag_438:\n        /* \"#utility.yul\":7521:7522   */\n      0x00\n        /* \"#utility.yul\":7546:7599   */\n      tag_440\n        /* \"#utility.yul\":7591:7598   */\n      dup11\n        /* \"#utility.yul\":7582:7588   */\n      dup3\n        /* \"#utility.yul\":7571:7580   */\n      dup12\n        /* \"#utility.yul\":7567:7589   */\n      add\n        /* \"#utility.yul\":7546:7599   */\n      tag_324\n      jump\t// in\n    tag_440:\n        /* \"#utility.yul\":7536:7599   */\n      swap8\n      pop\n        /* \"#utility.yul\":7492:7609   */\n      pop\n        /* \"#utility.yul\":7648:7650   */\n      0x20\n        /* \"#utility.yul\":7674:7727   */\n      tag_441\n        /* \"#utility.yul\":7719:7726   */\n      dup11\n        /* \"#utility.yul\":7710:7716   */\n      dup3\n        /* \"#utility.yul\":7699:7708   */\n      dup12\n        /* \"#utility.yul\":7695:7717   */\n      add\n        /* \"#utility.yul\":7674:7727   */\n      tag_324\n      jump\t// in\n    tag_441:\n        /* \"#utility.yul\":7664:7727   */\n      swap7\n      pop\n        /* \"#utility.yul\":7619:7737   */\n      pop\n        /* \"#utility.yul\":7776:7778   */\n      0x40\n        /* \"#utility.yul\":7802:7855   */\n      tag_442\n        /* \"#utility.yul\":7847:7854   */\n      dup11\n        /* \"#utility.yul\":7838:7844   */\n      dup3\n        /* \"#utility.yul\":7827:7836   */\n      dup12\n        /* \"#utility.yul\":7823:7845   */\n      add\n        /* \"#utility.yul\":7802:7855   */\n      tag_327\n      jump\t// in\n    tag_442:\n        /* \"#utility.yul\":7792:7855   */\n      swap6\n      pop\n        /* \"#utility.yul\":7747:7865   */\n      pop\n        /* \"#utility.yul\":7904:7906   */\n      0x60\n        /* \"#utility.yul\":7930:7983   */\n      tag_443\n        /* \"#utility.yul\":7975:7982   */\n      dup11\n        /* \"#utility.yul\":7966:7972   */\n      dup3\n        /* \"#utility.yul\":7955:7964   */\n      dup12\n        /* \"#utility.yul\":7951:7973   */\n      add\n        /* \"#utility.yul\":7930:7983   */\n      tag_327\n      jump\t// in\n    tag_443:\n        /* \"#utility.yul\":7920:7983   */\n      swap5\n      pop\n        /* \"#utility.yul\":7875:7993   */\n      pop\n        /* \"#utility.yul\":8032:8035   */\n      0x80\n        /* \"#utility.yul\":8059:8110   */\n      tag_444\n        /* \"#utility.yul\":8102:8109   */\n      dup11\n        /* \"#utility.yul\":8093:8099   */\n      dup3\n        /* \"#utility.yul\":8082:8091   */\n      dup12\n        /* \"#utility.yul\":8078:8100   */\n      add\n        /* \"#utility.yul\":8059:8110   */\n      tag_337\n      jump\t// in\n    tag_444:\n        /* \"#utility.yul\":8049:8110   */\n      swap4\n      pop\n        /* \"#utility.yul\":8003:8120   */\n      pop\n        /* \"#utility.yul\":8159:8162   */\n      0xa0\n        /* \"#utility.yul\":8186:8239   */\n      tag_445\n        /* \"#utility.yul\":8231:8238   */\n      dup11\n        /* \"#utility.yul\":8222:8228   */\n      dup3\n        /* \"#utility.yul\":8211:8220   */\n      dup12\n        /* \"#utility.yul\":8207:8229   */\n      add\n        /* \"#utility.yul\":8186:8239   */\n      tag_339\n      jump\t// in\n    tag_445:\n        /* \"#utility.yul\":8176:8239   */\n      swap3\n      pop\n        /* \"#utility.yul\":8130:8249   */\n      pop\n        /* \"#utility.yul\":8288:8291   */\n      0xc0\n        /* \"#utility.yul\":8315:8368   */\n      tag_446\n        /* \"#utility.yul\":8360:8367   */\n      dup11\n        /* \"#utility.yul\":8351:8357   */\n      dup3\n        /* \"#utility.yul\":8340:8349   */\n      dup12\n        /* \"#utility.yul\":8336:8358   */\n      add\n        /* \"#utility.yul\":8315:8368   */\n      tag_339\n      jump\t// in\n    tag_446:\n        /* \"#utility.yul\":8305:8368   */\n      swap2\n      pop\n        /* \"#utility.yul\":8259:8378   */\n      pop\n        /* \"#utility.yul\":7186:8385   */\n      swap3\n      swap6\n      swap9\n      swap2\n      swap5\n      swap8\n      pop\n      swap3\n      swap6\n      pop\n      jump\t// out\n        /* \"#utility.yul\":8391:8865   */\n    tag_107:\n        /* \"#utility.yul\":8459:8465   */\n      0x00\n        /* \"#utility.yul\":8467:8473   */\n      dup1\n        /* \"#utility.yul\":8516:8518   */\n      0x40\n        /* \"#utility.yul\":8504:8513   */\n      dup4\n        /* \"#utility.yul\":8495:8502   */\n      dup6\n        /* \"#utility.yul\":8491:8514   */\n      sub\n        /* \"#utility.yul\":8487:8519   */\n      slt\n        /* \"#utility.yul\":8484:8603   */\n      iszero\n      tag_448\n      jumpi\n        /* \"#utility.yul\":8522:8601   */\n      tag_449\n      tag_319\n      jump\t// in\n    tag_449:\n        /* \"#utility.yul\":8484:8603   */\n    tag_448:\n        /* \"#utility.yul\":8642:8643   */\n      0x00\n        /* \"#utility.yul\":8667:8720   */\n      tag_450\n        /* \"#utility.yul\":8712:8719   */\n      dup6\n        /* \"#utility.yul\":8703:8709   */\n      dup3\n        /* \"#utility.yul\":8692:8701   */\n      dup7\n        /* \"#utility.yul\":8688:8710   */\n      add\n        /* \"#utility.yul\":8667:8720   */\n      tag_324\n      jump\t// in\n    tag_450:\n        /* \"#utility.yul\":8657:8720   */\n      swap3\n      pop\n        /* \"#utility.yul\":8613:8730   */\n      pop\n        /* \"#utility.yul\":8769:8771   */\n      0x20\n        /* \"#utility.yul\":8795:8848   */\n      tag_451\n        /* \"#utility.yul\":8840:8847   */\n      dup6\n        /* \"#utility.yul\":8831:8837   */\n      dup3\n        /* \"#utility.yul\":8820:8829   */\n      dup7\n        /* \"#utility.yul\":8816:8838   */\n      add\n        /* \"#utility.yul\":8795:8848   */\n      tag_324\n      jump\t// in\n    tag_451:\n        /* \"#utility.yul\":8785:8848   */\n      swap2\n      pop\n        /* \"#utility.yul\":8740:8858   */\n      pop\n        /* \"#utility.yul\":8391:8865   */\n      swap3\n      pop\n      swap3\n      swap1\n      pop\n      jump\t// out\n        /* \"#utility.yul\":8871:9345   */\n    tag_112:\n        /* \"#utility.yul\":8939:8945   */\n      0x00\n        /* \"#utility.yul\":8947:8953   */\n      dup1\n        /* \"#utility.yul\":8996:8998   */\n      0x40\n        /* \"#utility.yul\":8984:8993   */\n      dup4\n        /* \"#utility.yul\":8975:8982   */\n      dup6\n        /* \"#utility.yul\":8971:8994   */\n      sub\n        /* \"#utility.yul\":8967:8999   */\n      slt\n        /* \"#utility.yul\":8964:9083   */\n      iszero\n      tag_453\n      jumpi\n        /* \"#utility.yul\":9002:9081   */\n      tag_454\n      tag_319\n      jump\t// in\n    tag_454:\n        /* \"#utility.yul\":8964:9083   */\n    tag_453:\n        /* \"#utility.yul\":9122:9123   */\n      0x00\n        /* \"#utility.yul\":9147:9200   */\n      tag_455\n        /* \"#utility.yul\":9192:9199   */\n      dup6\n        /* \"#utility.yul\":9183:9189   */\n      dup3\n        /* \"#utility.yul\":9172:9181   */\n      dup7\n        /* \"#utility.yul\":9168:9190   */\n      add\n        /* \"#utility.yul\":9147:9200   */\n      tag_327\n      jump\t// in\n    tag_455:\n        /* \"#utility.yul\":9137:9200   */\n      swap3\n      pop\n        /* \"#utility.yul\":9093:9210   */\n      pop\n        /* \"#utility.yul\":9249:9251   */\n      0x20\n        /* \"#utility.yul\":9275:9328   */\n      tag_456\n        /* \"#utility.yul\":9320:9327   */\n      dup6\n        /* \"#utility.yul\":9311:9317   */\n      dup3\n        /* \"#utility.yul\":9300:9309   */\n      dup7\n        /* \"#utility.yul\":9296:9318   */\n      add\n        /* \"#utility.yul\":9275:9328   */\n      tag_327\n      jump\t// in\n    tag_456:\n        /* \"#utility.yul\":9265:9328   */\n      swap2\n      pop\n        /* \"#utility.yul\":9220:9338   */\n      pop\n        /* \"#utility.yul\":8871:9345   */\n      swap3\n      pop\n      swap3\n      swap1\n      pop\n      jump\t// out\n        /* \"#utility.yul\":9351:9499   */\n    tag_340:\n        /* \"#utility.yul\":9453:9464   */\n      0x00\n        /* \"#utility.yul\":9490:9493   */\n      dup2\n        /* \"#utility.yul\":9475:9493   */\n      swap1\n      pop\n        /* \"#utility.yul\":9351:9499   */\n      swap3\n      swap2\n      pop\n      pop\n      jump\t// out\n        /* \"#utility.yul\":9505:9895   */\n    tag_341:\n        /* \"#utility.yul\":9611:9614   */\n      0x00\n        /* \"#utility.yul\":9639:9678   */\n      tag_459\n        /* \"#utility.yul\":9672:9677   */\n      dup3\n        /* \"#utility.yul\":9639:9678   */\n      tag_313\n      jump\t// in\n    tag_459:\n        /* \"#utility.yul\":9694:9783   */\n      tag_460\n        /* \"#utility.yul\":9776:9782   */\n      dup2\n        /* \"#utility.yul\":9771:9774   */\n      dup6\n        /* \"#utility.yul\":9694:9783   */\n      tag_340\n      jump\t// in\n    tag_460:\n        /* \"#utility.yul\":9687:9783   */\n      swap4\n      pop\n        /* \"#utility.yul\":9792:9857   */\n      tag_461\n        /* \"#utility.yul\":9850:9856   */\n      dup2\n        /* \"#utility.yul\":9845:9848   */\n      dup6\n        /* \"#utility.yul\":9838:9842   */\n      0x20\n        /* \"#utility.yul\":9831:9836   */\n      dup7\n        /* \"#utility.yul\":9827:9843   */\n      add\n        /* \"#utility.yul\":9792:9857   */\n      tag_315\n      jump\t// in\n    tag_461:\n        /* \"#utility.yul\":9882:9888   */\n      dup1\n        /* \"#utility.yul\":9877:9880   */\n      dup5\n        /* \"#utility.yul\":9873:9889   */\n      add\n        /* \"#utility.yul\":9866:9889   */\n      swap2\n      pop\n        /* \"#utility.yul\":9615:9895   */\n      pop\n        /* \"#utility.yul\":9505:9895   */\n      swap3\n      swap2\n      pop\n      pop\n      jump\t// out\n        /* \"#utility.yul\":9901:10081   */\n    tag_342:\n        /* \"#utility.yul\":9949:10026   */\n      0x4e487b7100000000000000000000000000000000000000000000000000000000\n        /* \"#utility.yul\":9946:9947   */\n      0x00\n        /* \"#utility.yul\":9939:10027   */\n      mstore\n        /* \"#utility.yul\":10046:10050   */\n      0x22\n        /* \"#utility.yul\":10043:10044   */\n      0x04\n        /* \"#utility.yul\":10036:10051   */\n      mstore\n        /* \"#utility.yul\":10070:10074   */\n      0x24\n        /* \"#utility.yul\":10067:10068   */\n      0x00\n        /* \"#utility.yul\":10060:10075   */\n      revert\n        /* \"#utility.yul\":10087:10407   */\n    tag_196:\n        /* \"#utility.yul\":10131:10137   */\n      0x00\n        /* \"#utility.yul\":10168:10169   */\n      0x02\n        /* \"#utility.yul\":10162:10166   */\n      dup3\n        /* \"#utility.yul\":10158:10170   */\n      div\n        /* \"#utility.yul\":10148:10170   */\n      swap1\n      pop\n        /* \"#utility.yul\":10215:10216   */\n      0x01\n        /* \"#utility.yul\":10209:10213   */\n      dup3\n        /* \"#utility.yul\":10205:10217   */\n      and\n        /* \"#utility.yul\":10236:10254   */\n      dup1\n        /* \"#utility.yul\":10226:10307   */\n      tag_464\n      jumpi\n        /* \"#utility.yul\":10292:10296   */\n      0x7f\n        /* \"#utility.yul\":10284:10290   */\n      dup3\n        /* \"#utility.yul\":10280:10297   */\n      and\n        /* \"#utility.yul\":10270:10297   */\n      swap2\n      pop\n        /* \"#utility.yul\":10226:10307   */\n    tag_464:\n        /* \"#utility.yul\":10354:10356   */\n      0x20\n        /* \"#utility.yul\":10346:10352   */\n      dup3\n        /* \"#utility.yul\":10343:10357   */\n      lt\n        /* \"#utility.yul\":10323:10341   */\n      dup2\n        /* \"#utility.yul\":10320:10358   */\n      sub\n        /* \"#utility.yul\":10317:10401   */\n      tag_465\n      jumpi\n        /* \"#utility.yul\":10373:10391   */\n      tag_466\n      tag_342\n      jump\t// in\n    tag_466:\n        /* \"#utility.yul\":10317:10401   */\n    tag_465:\n        /* \"#utility.yul\":10138:10407   */\n      pop\n        /* \"#utility.yul\":10087:10407   */\n      swap2\n      swap1\n      pop\n      jump\t// out\n        /* \"#utility.yul\":10413:10554   */\n    tag_343:\n        /* \"#utility.yul\":10462:10466   */\n      0x00\n        /* \"#utility.yul\":10485:10488   */\n      dup2\n        /* \"#utility.yul\":10477:10488   */\n      swap1\n      pop\n        /* \"#utility.yul\":10508:10511   */\n      dup2\n        /* \"#utility.yul\":10505:10506   */\n      0x00\n        /* \"#utility.yul\":10498:10512   */\n      mstore\n        /* \"#utility.yul\":10542:10546   */\n      0x20\n        /* \"#utility.yul\":10539:10540   */\n      0x00\n        /* \"#utility.yul\":10529:10547   */\n      keccak256\n        /* \"#utility.yul\":10521:10547   */\n      swap1\n      pop\n        /* \"#utility.yul\":10413:10554   */\n      swap2\n      swap1\n      pop\n      jump\t// out\n        /* \"#utility.yul\":10584:11458   */\n    tag_344:\n        /* \"#utility.yul\":10687:10690   */\n      0x00\n        /* \"#utility.yul\":10724:10729   */\n      dup2\n        /* \"#utility.yul\":10718:10730   */\n      sload\n        /* \"#utility.yul\":10753:10789   */\n      tag_469\n        /* \"#utility.yul\":10779:10788   */\n      dup2\n        /* \"#utility.yul\":10753:10789   */\n      tag_196\n      jump\t// in\n    tag_469:\n        /* \"#utility.yul\":10805:10894   */\n      tag_470\n        /* \"#utility.yul\":10887:10893   */\n      dup2\n        /* \"#utility.yul\":10882:10885   */\n      dup7\n        /* \"#utility.yul\":10805:10894   */\n      tag_340\n      jump\t// in\n    tag_470:\n        /* \"#utility.yul\":10798:10894   */\n      swap5\n      pop\n        /* \"#utility.yul\":10925:10926   */\n      0x01\n        /* \"#utility.yul\":10914:10923   */\n      dup3\n        /* \"#utility.yul\":10910:10927   */\n      and\n        /* \"#utility.yul\":10941:10942   */\n      0x00\n        /* \"#utility.yul\":10936:11102   */\n      dup2\n      eq\n      tag_472\n      jumpi\n        /* \"#utility.yul\":11116:11117   */\n      0x01\n        /* \"#utility.yul\":11111:11452   */\n      dup2\n      eq\n      tag_473\n      jumpi\n        /* \"#utility.yul\":10903:11452   */\n      jump(tag_471)\n        /* \"#utility.yul\":10936:11102   */\n    tag_472:\n        /* \"#utility.yul\":11020:11024   */\n      0xff\n        /* \"#utility.yul\":11016:11025   */\n      not\n        /* \"#utility.yul\":11005:11014   */\n      dup4\n        /* \"#utility.yul\":11001:11026   */\n      and\n        /* \"#utility.yul\":10996:10999   */\n      dup7\n        /* \"#utility.yul\":10989:11027   */\n      mstore\n        /* \"#utility.yul\":11082:11088   */\n      dup2\n        /* \"#utility.yul\":11075:11089   */\n      iszero\n        /* \"#utility.yul\":11068:11090   */\n      iszero\n        /* \"#utility.yul\":11060:11066   */\n      dup3\n        /* \"#utility.yul\":11056:11091   */\n      mul\n        /* \"#utility.yul\":11051:11054   */\n      dup7\n        /* \"#utility.yul\":11047:11092   */\n      add\n        /* \"#utility.yul\":11040:11092   */\n      swap4\n      pop\n        /* \"#utility.yul\":10936:11102   */\n      jump(tag_471)\n        /* \"#utility.yul\":11111:11452   */\n    tag_473:\n        /* \"#utility.yul\":11178:11216   */\n      tag_474\n        /* \"#utility.yul\":11210:11215   */\n      dup6\n        /* \"#utility.yul\":11178:11216   */\n      tag_343\n      jump\t// in\n    tag_474:\n        /* \"#utility.yul\":11238:11239   */\n      0x00\n        /* \"#utility.yul\":11252:11406   */\n    tag_475:\n        /* \"#utility.yul\":11266:11272   */\n      dup4\n        /* \"#utility.yul\":11263:11264   */\n      dup2\n        /* \"#utility.yul\":11260:11273   */\n      lt\n        /* \"#utility.yul\":11252:11406   */\n      iszero\n      tag_477\n      jumpi\n        /* \"#utility.yul\":11340:11347   */\n      dup2\n        /* \"#utility.yul\":11334:11348   */\n      sload\n        /* \"#utility.yul\":11330:11331   */\n      dup2\n        /* \"#utility.yul\":11325:11328   */\n      dup10\n        /* \"#utility.yul\":11321:11332   */\n      add\n        /* \"#utility.yul\":11314:11349   */\n      mstore\n        /* \"#utility.yul\":11390:11391   */\n      0x01\n        /* \"#utility.yul\":11381:11388   */\n      dup3\n        /* \"#utility.yul\":11377:11392   */\n      add\n        /* \"#utility.yul\":11366:11392   */\n      swap2\n      pop\n        /* \"#utility.yul\":11288:11292   */\n      0x20\n        /* \"#utility.yul\":11285:11286   */\n      dup2\n        /* \"#utility.yul\":11281:11293   */\n      add\n        /* \"#utility.yul\":11276:11293   */\n      swap1\n      pop\n        /* \"#utility.yul\":11252:11406   */\n      jump(tag_475)\n    tag_477:\n        /* \"#utility.yul\":11435:11441   */\n      dup4\n        /* \"#utility.yul\":11430:11433   */\n      dup9\n        /* \"#utility.yul\":11426:11442   */\n      add\n        /* \"#utility.yul\":11419:11442   */\n      swap6\n      pop\n        /* \"#utility.yul\":11118:11452   */\n      pop\n      pop\n        /* \"#utility.yul\":10903:11452   */\n    tag_471:\n      pop\n        /* \"#utility.yul\":10691:11458   */\n      pop\n      pop\n        /* \"#utility.yul\":10584:11458   */\n      swap3\n      swap2\n      pop\n      pop\n      jump\t// out\n        /* \"#utility.yul\":11464:11893   */\n    tag_117:\n        /* \"#utility.yul\":11641:11644   */\n      0x00\n        /* \"#utility.yul\":11663:11758   */\n      tag_479\n        /* \"#utility.yul\":11754:11757   */\n      dup3\n        /* \"#utility.yul\":11745:11751   */\n      dup6\n        /* \"#utility.yul\":11663:11758   */\n      tag_341\n      jump\t// in\n    tag_479:\n        /* \"#utility.yul\":11656:11758   */\n      swap2\n      pop\n        /* \"#utility.yul\":11775:11867   */\n      tag_480\n        /* \"#utility.yul\":11863:11866   */\n      dup3\n        /* \"#utility.yul\":11854:11860   */\n      dup5\n        /* \"#utility.yul\":11775:11867   */\n      tag_344\n      jump\t// in\n    tag_480:\n        /* \"#utility.yul\":11768:11867   */\n      swap2\n      pop\n        /* \"#utility.yul\":11884:11887   */\n      dup2\n        /* \"#utility.yul\":11877:11887   */\n      swap1\n      pop\n        /* \"#utility.yul\":11464:11893   */\n      swap4\n      swap3\n      pop\n      pop\n      pop\n      jump\t// out\n        /* \"#utility.yul\":11899:12079   */\n    tag_345:\n        /* \"#utility.yul\":11947:12024   */\n      0x4e487b7100000000000000000000000000000000000000000000000000000000\n        /* \"#utility.yul\":11944:11945   */\n      0x00\n        /* \"#utility.yul\":11937:12025   */\n      mstore\n        /* \"#utility.yul\":12044:12048   */\n      0x11\n        /* \"#utility.yul\":12041:12042   */\n      0x04\n        /* \"#utility.yul\":12034:12049   */\n      mstore\n        /* \"#utility.yul\":12068:12072   */\n      0x24\n        /* \"#utility.yul\":12065:12066   */\n      0x00\n        /* \"#utility.yul\":12058:12073   */\n      revert\n        /* \"#utility.yul\":12085:12495   */\n    tag_133:\n        /* \"#utility.yul\":12125:12132   */\n      0x00\n        /* \"#utility.yul\":12148:12168   */\n      tag_483\n        /* \"#utility.yul\":12166:12167   */\n      dup3\n        /* \"#utility.yul\":12148:12168   */\n      tag_325\n      jump\t// in\n    tag_483:\n        /* \"#utility.yul\":12143:12168   */\n      swap2\n      pop\n        /* \"#utility.yul\":12182:12202   */\n      tag_484\n        /* \"#utility.yul\":12200:12201   */\n      dup4\n        /* \"#utility.yul\":12182:12202   */\n      tag_325\n      jump\t// in\n    tag_484:\n        /* \"#utility.yul\":12177:12202   */\n      swap3\n      pop\n        /* \"#utility.yul\":12237:12238   */\n      dup3\n        /* \"#utility.yul\":12234:12235   */\n      dup3\n        /* \"#utility.yul\":12230:12239   */\n      mul\n        /* \"#utility.yul\":12259:12289   */\n      tag_485\n        /* \"#utility.yul\":12277:12288   */\n      dup2\n        /* \"#utility.yul\":12259:12289   */\n      tag_325\n      jump\t// in\n    tag_485:\n        /* \"#utility.yul\":12248:12289   */\n      swap2\n      pop\n        /* \"#utility.yul\":12438:12439   */\n      dup3\n        /* \"#utility.yul\":12429:12436   */\n      dup3\n        /* \"#utility.yul\":12425:12440   */\n      div\n        /* \"#utility.yul\":12422:12423   */\n      dup5\n        /* \"#utility.yul\":12419:12441   */\n      eq\n        /* \"#utility.yul\":12399:12400   */\n      dup4\n        /* \"#utility.yul\":12392:12401   */\n      iszero\n        /* \"#utility.yul\":12372:12455   */\n      or\n        /* \"#utility.yul\":12349:12488   */\n      tag_486\n      jumpi\n        /* \"#utility.yul\":12468:12486   */\n      tag_487\n      tag_345\n      jump\t// in\n    tag_487:\n        /* \"#utility.yul\":12349:12488   */\n    tag_486:\n        /* \"#utility.yul\":12133:12495   */\n      pop\n        /* \"#utility.yul\":12085:12495   */\n      swap3\n      swap2\n      pop\n      pop\n      jump\t// out\n        /* \"#utility.yul\":12501:12681   */\n    tag_170:\n        /* \"#utility.yul\":12549:12626   */\n      0x4e487b7100000000000000000000000000000000000000000000000000000000\n        /* \"#utility.yul\":12546:12547   */\n      0x00\n        /* \"#utility.yul\":12539:12627   */\n      mstore\n        /* \"#utility.yul\":12646:12650   */\n      0x12\n        /* \"#utility.yul\":12643:12644   */\n      0x04\n        /* \"#utility.yul\":12636:12651   */\n      mstore\n        /* \"#utility.yul\":12670:12674   */\n      0x24\n        /* \"#utility.yul\":12667:12668   */\n      0x00\n        /* \"#utility.yul\":12660:12675   */\n      revert\n        /* \"#utility.yul\":12687:12872   */\n    tag_135:\n        /* \"#utility.yul\":12727:12728   */\n      0x00\n        /* \"#utility.yul\":12744:12764   */\n      tag_490\n        /* \"#utility.yul\":12762:12763   */\n      dup3\n        /* \"#utility.yul\":12744:12764   */\n      tag_325\n      jump\t// in\n    tag_490:\n        /* \"#utility.yul\":12739:12764   */\n      swap2\n      pop\n        /* \"#utility.yul\":12778:12798   */\n      tag_491\n        /* \"#utility.yul\":12796:12797   */\n      dup4\n        /* \"#utility.yul\":12778:12798   */\n      tag_325\n      jump\t// in\n    tag_491:\n        /* \"#utility.yul\":12773:12798   */\n      swap3\n      pop\n        /* \"#utility.yul\":12817:12818   */\n      dup3\n        /* \"#utility.yul\":12807:12842   */\n      tag_492\n      jumpi\n        /* \"#utility.yul\":12822:12840   */\n      tag_493\n      tag_170\n      jump\t// in\n    tag_493:\n        /* \"#utility.yul\":12807:12842   */\n    tag_492:\n        /* \"#utility.yul\":12864:12865   */\n      dup3\n        /* \"#utility.yul\":12861:12862   */\n      dup3\n        /* \"#utility.yul\":12857:12866   */\n      div\n        /* \"#utility.yul\":12852:12866   */\n      swap1\n      pop\n        /* \"#utility.yul\":12687:12872   */\n      swap3\n      swap2\n      pop\n      pop\n      jump\t// out\n        /* \"#utility.yul\":12878:13072   */\n    tag_148:\n        /* \"#utility.yul\":12918:12922   */\n      0x00\n        /* \"#utility.yul\":12938:12958   */\n      tag_495\n        /* \"#utility.yul\":12956:12957   */\n      dup3\n        /* \"#utility.yul\":12938:12958   */\n      tag_325\n      jump\t// in\n    tag_495:\n        /* \"#utility.yul\":12933:12958   */\n      swap2\n      pop\n        /* \"#utility.yul\":12972:12992   */\n      tag_496\n        /* \"#utility.yul\":12990:12991   */\n      dup4\n        /* \"#utility.yul\":12972:12992   */\n      tag_325\n      jump\t// in\n    tag_496:\n        /* \"#utility.yul\":12967:12992   */\n      swap3\n      pop\n        /* \"#utility.yul\":13016:13017   */\n      dup3\n        /* \"#utility.yul\":13013:13014   */\n      dup3\n        /* \"#utility.yul\":13009:13018   */\n      sub\n        /* \"#utility.yul\":13001:13018   */\n      swap1\n      pop\n        /* \"#utility.yul\":13040:13041   */\n      dup2\n        /* \"#utility.yul\":13034:13038   */\n      dup2\n        /* \"#utility.yul\":13031:13042   */\n      gt\n        /* \"#utility.yul\":13028:13065   */\n      iszero\n      tag_497\n      jumpi\n        /* \"#utility.yul\":13045:13063   */\n      tag_498\n      tag_345\n      jump\t// in\n    tag_498:\n        /* \"#utility.yul\":13028:13065   */\n    tag_497:\n        /* \"#utility.yul\":12878:13072   */\n      swap3\n      swap2\n      pop\n      pop\n      jump\t// out\n        /* \"#utility.yul\":13078:13631   */\n    tag_152:\n        /* \"#utility.yul\":13255:13259   */\n      0x00\n        /* \"#utility.yul\":13293:13296   */\n      0x80\n        /* \"#utility.yul\":13282:13291   */\n      dup3\n        /* \"#utility.yul\":13278:13297   */\n      add\n        /* \"#utility.yul\":13270:13297   */\n      swap1\n      pop\n        /* \"#utility.yul\":13307:13378   */\n      tag_500\n        /* \"#utility.yul\":13375:13376   */\n      0x00\n        /* \"#utility.yul\":13364:13373   */\n      dup4\n        /* \"#utility.yul\":13360:13377   */\n      add\n        /* \"#utility.yul\":13351:13357   */\n      dup8\n        /* \"#utility.yul\":13307:13378   */\n      tag_335\n      jump\t// in\n    tag_500:\n        /* \"#utility.yul\":13388:13460   */\n      tag_501\n        /* \"#utility.yul\":13456:13458   */\n      0x20\n        /* \"#utility.yul\":13445:13454   */\n      dup4\n        /* \"#utility.yul\":13441:13459   */\n      add\n        /* \"#utility.yul\":13432:13438   */\n      dup7\n        /* \"#utility.yul\":13388:13460   */\n      tag_330\n      jump\t// in\n    tag_501:\n        /* \"#utility.yul\":13470:13542   */\n      tag_502\n        /* \"#utility.yul\":13538:13540   */\n      0x40\n        /* \"#utility.yul\":13527:13536   */\n      dup4\n        /* \"#utility.yul\":13523:13541   */\n      add\n        /* \"#utility.yul\":13514:13520   */\n      dup6\n        /* \"#utility.yul\":13470:13542   */\n      tag_330\n      jump\t// in\n    tag_502:\n        /* \"#utility.yul\":13552:13624   */\n      tag_503\n        /* \"#utility.yul\":13620:13622   */\n      0x60\n        /* \"#utility.yul\":13609:13618   */\n      dup4\n        /* \"#utility.yul\":13605:13623   */\n      add\n        /* \"#utility.yul\":13596:13602   */\n      dup5\n        /* \"#utility.yul\":13552:13624   */\n      tag_330\n      jump\t// in\n    tag_503:\n        /* \"#utility.yul\":13078:13631   */\n      swap6\n      swap5\n      pop\n      pop\n      pop\n      pop\n      pop\n      jump\t// out\n        /* \"#utility.yul\":13637:13780   */\n    tag_346:\n        /* \"#utility.yul\":13694:13699   */\n      0x00\n        /* \"#utility.yul\":13725:13731   */\n      dup2\n        /* \"#utility.yul\":13719:13732   */\n      mload\n        /* \"#utility.yul\":13710:13732   */\n      swap1\n      pop\n        /* \"#utility.yul\":13741:13774   */\n      tag_505\n        /* \"#utility.yul\":13768:13773   */\n      dup2\n        /* \"#utility.yul\":13741:13774   */\n      tag_326\n      jump\t// in\n    tag_505:\n        /* \"#utility.yul\":13637:13780   */\n      swap3\n      swap2\n      pop\n      pop\n      jump\t// out\n        /* \"#utility.yul\":13786:14137   */\n    tag_217:\n        /* \"#utility.yul\":13856:13862   */\n      0x00\n        /* \"#utility.yul\":13905:13907   */\n      0x20\n        /* \"#utility.yul\":13893:13902   */\n      dup3\n        /* \"#utility.yul\":13884:13891   */\n      dup5\n        /* \"#utility.yul\":13880:13903   */\n      sub\n        /* \"#utility.yul\":13876:13908   */\n      slt\n        /* \"#utility.yul\":13873:13992   */\n      iszero\n      tag_507\n      jumpi\n        /* \"#utility.yul\":13911:13990   */\n      tag_508\n      tag_319\n      jump\t// in\n    tag_508:\n        /* \"#utility.yul\":13873:13992   */\n    tag_507:\n        /* \"#utility.yul\":14031:14032   */\n      0x00\n        /* \"#utility.yul\":14056:14120   */\n      tag_509\n        /* \"#utility.yul\":14112:14119   */\n      dup5\n        /* \"#utility.yul\":14103:14109   */\n      dup3\n        /* \"#utility.yul\":14092:14101   */\n      dup6\n        /* \"#utility.yul\":14088:14110   */\n      add\n        /* \"#utility.yul\":14056:14120   */\n      tag_346\n      jump\t// in\n    tag_509:\n        /* \"#utility.yul\":14046:14120   */\n      swap2\n      pop\n        /* \"#utility.yul\":14002:14130   */\n      pop\n        /* \"#utility.yul\":13786:14137   */\n      swap3\n      swap2\n      pop\n      pop\n      jump\t// out\n        /* \"#utility.yul\":14143:14334   */\n    tag_227:\n        /* \"#utility.yul\":14183:14186   */\n      0x00\n        /* \"#utility.yul\":14202:14222   */\n      tag_511\n        /* \"#utility.yul\":14220:14221   */\n      dup3\n        /* \"#utility.yul\":14202:14222   */\n      tag_325\n      jump\t// in\n    tag_511:\n        /* \"#utility.yul\":14197:14222   */\n      swap2\n      pop\n        /* \"#utility.yul\":14236:14256   */\n      tag_512\n        /* \"#utility.yul\":14254:14255   */\n      dup4\n        /* \"#utility.yul\":14236:14256   */\n      tag_325\n      jump\t// in\n    tag_512:\n        /* \"#utility.yul\":14231:14256   */\n      swap3\n      pop\n        /* \"#utility.yul\":14279:14280   */\n      dup3\n        /* \"#utility.yul\":14276:14277   */\n      dup3\n        /* \"#utility.yul\":14272:14281   */\n      add\n        /* \"#utility.yul\":14265:14281   */\n      swap1\n      pop\n        /* \"#utility.yul\":14300:14303   */\n      dup1\n        /* \"#utility.yul\":14297:14298   */\n      dup3\n        /* \"#utility.yul\":14294:14304   */\n      gt\n        /* \"#utility.yul\":14291:14327   */\n      iszero\n      tag_513\n      jumpi\n        /* \"#utility.yul\":14307:14325   */\n      tag_514\n      tag_345\n      jump\t// in\n    tag_514:\n        /* \"#utility.yul\":14291:14327   */\n    tag_513:\n        /* \"#utility.yul\":14143:14334   */\n      swap3\n      swap2\n      pop\n      pop\n      jump\t// out\n        /* \"#utility.yul\":14340:14893   */\n    tag_232:\n        /* \"#utility.yul\":14517:14521   */\n      0x00\n        /* \"#utility.yul\":14555:14558   */\n      0x80\n        /* \"#utility.yul\":14544:14553   */\n      dup3\n        /* \"#utility.yul\":14540:14559   */\n      add\n        /* \"#utility.yul\":14532:14559   */\n      swap1\n      pop\n        /* \"#utility.yul\":14569:14640   */\n      tag_516\n        /* \"#utility.yul\":14637:14638   */\n      0x00\n        /* \"#utility.yul\":14626:14635   */\n      dup4\n        /* \"#utility.yul\":14622:14639   */\n      add\n        /* \"#utility.yul\":14613:14619   */\n      dup8\n        /* \"#utility.yul\":14569:14640   */\n      tag_335\n      jump\t// in\n    tag_516:\n        /* \"#utility.yul\":14650:14722   */\n      tag_517\n        /* \"#utility.yul\":14718:14720   */\n      0x20\n        /* \"#utility.yul\":14707:14716   */\n      dup4\n        /* \"#utility.yul\":14703:14721   */\n      add\n        /* \"#utility.yul\":14694:14700   */\n      dup7\n        /* \"#utility.yul\":14650:14722   */\n      tag_335\n      jump\t// in\n    tag_517:\n        /* \"#utility.yul\":14732:14804   */\n      tag_518\n        /* \"#utility.yul\":14800:14802   */\n      0x40\n        /* \"#utility.yul\":14789:14798   */\n      dup4\n        /* \"#utility.yul\":14785:14803   */\n      add\n        /* \"#utility.yul\":14776:14782   */\n      dup6\n        /* \"#utility.yul\":14732:14804   */\n      tag_330\n      jump\t// in\n    tag_518:\n        /* \"#utility.yul\":14814:14886   */\n      tag_519\n        /* \"#utility.yul\":14882:14884   */\n      0x60\n        /* \"#utility.yul\":14871:14880   */\n      dup4\n        /* \"#utility.yul\":14867:14885   */\n      add\n        /* \"#utility.yul\":14858:14864   */\n      dup5\n        /* \"#utility.yul\":14814:14886   */\n      tag_330\n      jump\t// in\n    tag_519:\n        /* \"#utility.yul\":14340:14893   */\n      swap6\n      swap5\n      pop\n      pop\n      pop\n      pop\n      pop\n      jump\t// out\n        /* \"#utility.yul\":14899:15042   */\n    tag_347:\n        /* \"#utility.yul\":14956:14961   */\n      0x00\n        /* \"#utility.yul\":14987:14993   */\n      dup2\n        /* \"#utility.yul\":14981:14994   */\n      mload\n        /* \"#utility.yul\":14972:14994   */\n      swap1\n      pop\n        /* \"#utility.yul\":15003:15036   */\n      tag_521\n        /* \"#utility.yul\":15030:15035   */\n      dup2\n        /* \"#utility.yul\":15003:15036   */\n      tag_323\n      jump\t// in\n    tag_521:\n        /* \"#utility.yul\":14899:15042   */\n      swap3\n      swap2\n      pop\n      pop\n      jump\t// out\n        /* \"#utility.yul\":15048:15399   */\n    tag_271:\n        /* \"#utility.yul\":15118:15124   */\n      0x00\n        /* \"#utility.yul\":15167:15169   */\n      0x20\n        /* \"#utility.yul\":15155:15164   */\n      dup3\n        /* \"#utility.yul\":15146:15153   */\n      dup5\n        /* \"#utility.yul\":15142:15165   */\n      sub\n        /* \"#utility.yul\":15138:15170   */\n      slt\n        /* \"#utility.yul\":15135:15254   */\n      iszero\n      tag_523\n      jumpi\n        /* \"#utility.yul\":15173:15252   */\n      tag_524\n      tag_319\n      jump\t// in\n    tag_524:\n        /* \"#utility.yul\":15135:15254   */\n    tag_523:\n        /* \"#utility.yul\":15293:15294   */\n      0x00\n        /* \"#utility.yul\":15318:15382   */\n      tag_525\n        /* \"#utility.yul\":15374:15381   */\n      dup5\n        /* \"#utility.yul\":15365:15371   */\n      dup3\n        /* \"#utility.yul\":15354:15363   */\n      dup6\n        /* \"#utility.yul\":15350:15372   */\n      add\n        /* \"#utility.yul\":15318:15382   */\n      tag_347\n      jump\t// in\n    tag_525:\n        /* \"#utility.yul\":15308:15382   */\n      swap2\n      pop\n        /* \"#utility.yul\":15264:15392   */\n      pop\n        /* \"#utility.yul\":15048:15399   */\n      swap3\n      swap2\n      pop\n      pop\n      jump\t// out\n        /* \"#utility.yul\":15405:15847   */\n    tag_287:\n        /* \"#utility.yul\":15554:15558   */\n      0x00\n        /* \"#utility.yul\":15592:15594   */\n      0x60\n        /* \"#utility.yul\":15581:15590   */\n      dup3\n        /* \"#utility.yul\":15577:15595   */\n      add\n        /* \"#utility.yul\":15569:15595   */\n      swap1\n      pop\n        /* \"#utility.yul\":15605:15676   */\n      tag_527\n        /* \"#utility.yul\":15673:15674   */\n      0x00\n        /* \"#utility.yul\":15662:15671   */\n      dup4\n        /* \"#utility.yul\":15658:15675   */\n      add\n        /* \"#utility.yul\":15649:15655   */\n      dup7\n        /* \"#utility.yul\":15605:15676   */\n      tag_335\n      jump\t// in\n    tag_527:\n        /* \"#utility.yul\":15686:15758   */\n      tag_528\n        /* \"#utility.yul\":15754:15756   */\n      0x20\n        /* \"#utility.yul\":15743:15752   */\n      dup4\n        /* \"#utility.yul\":15739:15757   */\n      add\n        /* \"#utility.yul\":15730:15736   */\n      dup6\n        /* \"#utility.yul\":15686:15758   */\n      tag_335\n      jump\t// in\n    tag_528:\n        /* \"#utility.yul\":15768:15840   */\n      tag_529\n        /* \"#utility.yul\":15836:15838   */\n      0x40\n        /* \"#utility.yul\":15825:15834   */\n      dup4\n        /* \"#utility.yul\":15821:15839   */\n      add\n        /* \"#utility.yul\":15812:15818   */\n      dup5\n        /* \"#utility.yul\":15768:15840   */\n      tag_330\n      jump\t// in\n    tag_529:\n        /* \"#utility.yul\":15405:15847   */\n      swap5\n      swap4\n      pop\n      pop\n      pop\n      pop\n      jump\t// out\n        /* \"#utility.yul\":15853:15969   */\n    tag_348:\n        /* \"#utility.yul\":15923:15944   */\n      tag_531\n        /* \"#utility.yul\":15938:15943   */\n      dup2\n        /* \"#utility.yul\":15923:15944   */\n      tag_328\n      jump\t// in\n    tag_531:\n        /* \"#utility.yul\":15916:15921   */\n      dup2\n        /* \"#utility.yul\":15913:15945   */\n      eq\n        /* \"#utility.yul\":15903:15963   */\n      tag_532\n      jumpi\n        /* \"#utility.yul\":15959:15960   */\n      0x00\n        /* \"#utility.yul\":15956:15957   */\n      dup1\n        /* \"#utility.yul\":15949:15961   */\n      revert\n        /* \"#utility.yul\":15903:15963   */\n    tag_532:\n        /* \"#utility.yul\":15853:15969   */\n      pop\n      jump\t// out\n        /* \"#utility.yul\":15975:16112   */\n    tag_349:\n        /* \"#utility.yul\":16029:16034   */\n      0x00\n        /* \"#utility.yul\":16060:16066   */\n      dup2\n        /* \"#utility.yul\":16054:16067   */\n      mload\n        /* \"#utility.yul\":16045:16067   */\n      swap1\n      pop\n        /* \"#utility.yul\":16076:16106   */\n      tag_534\n        /* \"#utility.yul\":16100:16105   */\n      dup2\n        /* \"#utility.yul\":16076:16106   */\n      tag_348\n      jump\t// in\n    tag_534:\n        /* \"#utility.yul\":15975:16112   */\n      swap3\n      swap2\n      pop\n      pop\n      jump\t// out\n        /* \"#utility.yul\":16118:16463   */\n    tag_291:\n        /* \"#utility.yul\":16185:16191   */\n      0x00\n        /* \"#utility.yul\":16234:16236   */\n      0x20\n        /* \"#utility.yul\":16222:16231   */\n      dup3\n        /* \"#utility.yul\":16213:16220   */\n      dup5\n        /* \"#utility.yul\":16209:16232   */\n      sub\n        /* \"#utility.yul\":16205:16237   */\n      slt\n        /* \"#utility.yul\":16202:16321   */\n      iszero\n      tag_536\n      jumpi\n        /* \"#utility.yul\":16240:16319   */\n      tag_537\n      tag_319\n      jump\t// in\n    tag_537:\n        /* \"#utility.yul\":16202:16321   */\n    tag_536:\n        /* \"#utility.yul\":16360:16361   */\n      0x00\n        /* \"#utility.yul\":16385:16446   */\n      tag_538\n        /* \"#utility.yul\":16438:16445   */\n      dup5\n        /* \"#utility.yul\":16429:16435   */\n      dup3\n        /* \"#utility.yul\":16418:16427   */\n      dup6\n        /* \"#utility.yul\":16414:16436   */\n      add\n        /* \"#utility.yul\":16385:16446   */\n      tag_349\n      jump\t// in\n    tag_538:\n        /* \"#utility.yul\":16375:16446   */\n      swap2\n      pop\n        /* \"#utility.yul\":16331:16456   */\n      pop\n        /* \"#utility.yul\":16118:16463   */\n      swap3\n      swap2\n      pop\n      pop\n      jump\t// out\n\n    auxdata: 0xa264697066735822122097e1de0ac6550c2ac3d1883a558fdc423a06507fc493554cd74e790b4dcc590a64736f6c63430008140033\n}\n",
				"bytecode": {
					"linkReferences": {},
					"object": "608060405234801562000010575f80fd5b50604051620028ee380380620028ee83398181016040528101906200003691906200028a565b8173ffffffffffffffffffffffffffffffffffffffff166395d89b416040518163ffffffff1660e01b81526004015f60405180830381865afa1580156200007f573d5f803e3d5ffd5b505050506040513d5f823e3d601f19601f82011682018060405250810190620000a9919062000443565b8173ffffffffffffffffffffffffffffffffffffffff166395d89b416040518163ffffffff1660e01b81526004015f60405180830381865afa158015620000f2573d5f803e3d5ffd5b505050506040513d5f823e3d601f19601f820116820180604052508101906200011c919062000443565b6040516020016200012f929190620004dc565b604051602081830303815290604052805f90816200014e919062000730565b50503360015f6101000a81548173ffffffffffffffffffffffffffffffffffffffff021916908373ffffffffffffffffffffffffffffffffffffffff1602179055508160035f6101000a81548173ffffffffffffffffffffffffffffffffffffffff021916908373ffffffffffffffffffffffffffffffffffffffff1602179055508060045f6101000a81548173ffffffffffffffffffffffffffffffffffffffff021916908373ffffffffffffffffffffffffffffffffffffffff160217905550505062000814565b5f604051905090565b5f80fd5b5f80fd5b5f73ffffffffffffffffffffffffffffffffffffffff82169050919050565b5f620002548262000229565b9050919050565b620002668162000248565b811462000271575f80fd5b50565b5f8151905062000284816200025b565b92915050565b5f8060408385031215620002a357620002a262000221565b5b5f620002b28582860162000274565b9250506020620002c58582860162000274565b9150509250929050565b5f80fd5b5f80fd5b5f601f19601f8301169050919050565b7f4e487b71000000000000000000000000000000000000000000000000000000005f52604160045260245ffd5b6200031f82620002d7565b810181811067ffffffffffffffff82111715620003415762000340620002e7565b5b80604052505050565b5f6200035562000218565b905062000363828262000314565b919050565b5f67ffffffffffffffff821115620003855762000384620002e7565b5b6200039082620002d7565b9050602081019050919050565b5f5b83811015620003bc5780820151818401526020810190506200039f565b5f8484015250505050565b5f620003dd620003d78462000368565b6200034a565b905082815260208101848484011115620003fc57620003fb620002d3565b5b620004098482856200039d565b509392505050565b5f82601f830112620004285762000427620002cf565b5b81516200043a848260208601620003c7565b91505092915050565b5f602082840312156200045b576200045a62000221565b5b5f82015167ffffffffffffffff8111156200047b576200047a62000225565b5b620004898482850162000411565b91505092915050565b5f81519050919050565b5f81905092915050565b5f620004b28262000492565b620004be81856200049c565b9350620004d08185602086016200039d565b80840191505092915050565b5f620004e98285620004a6565b9150620004f78284620004a6565b91508190509392505050565b7f4e487b71000000000000000000000000000000000000000000000000000000005f52602260045260245ffd5b5f60028204905060018216806200054857607f821691505b6020821081036200055e576200055d62000503565b5b50919050565b5f819050815f5260205f209050919050565b5f6020601f8301049050919050565b5f82821b905092915050565b5f60088302620005c27fffffffffffffffffffffffffffffffffffffffffffffffffffffffffffffffff8262000585565b620005ce868362000585565b95508019841693508086168417925050509392505050565b5f819050919050565b5f819050919050565b5f62000618620006126200060c84620005e6565b620005ef565b620005e6565b9050919050565b5f819050919050565b6200063383620005f8565b6200064b62000642826200061f565b84845462000591565b825550505050565b5f90565b6200066162000653565b6200066e81848462000628565b505050565b5b818110156200069557620006895f8262000657565b60018101905062000674565b5050565b601f821115620006e457620006ae8162000564565b620006b98462000576565b81016020851015620006c9578190505b620006e1620006d88562000576565b83018262000673565b50505b505050565b5f82821c905092915050565b5f620007065f1984600802620006e9565b1980831691505092915050565b5f620007208383620006f5565b9150826002028217905092915050565b6200073b8262000492565b67ffffffffffffffff811115620007575762000756620002e7565b5b62000763825462000530565b6200077082828562000699565b5f60209050601f831160018114620007a6575f841562000791578287015190505b6200079d858262000713565b8655506200080c565b601f198416620007b68662000564565b5f5b82811015620007df57848901518255600182019150602085019450602081019050620007b8565b86831015620007ff5784890151620007fb601f891682620006f5565b8355505b6001600288020188555050505b505050505050565b6120cc80620008225f395ff3fe608060405234801561000f575f80fd5b5060043610610135575f3560e01c806370a08231116100b6578063a9059cbb1161007a578063a9059cbb1461037a578063c45a0155146103aa578063d004f0f7146103c8578063d505accf146103f8578063dd62ed3e14610414578063e2bbb1581461044457610135565b806370a08231146102ae5780637464fc3d146102de5780637ecebe00146102fc5780638f79306e1461032c57806395d89b411461035c57610135565b80632e1a7d4d116100fd5780632e1a7d4d146101f3578063313ce567146102245780633644e515146102425780635e3f272714610260578063677342ce1461027e57610135565b806306fdde0314610139578063095ea7b3146101575780630b4501fd1461018757806318160ddd146101a557806323b872dd146101c3575b5f80fd5b610141610474565b60405161014e919061187a565b60405180910390f35b610171600480360381019061016c919061192b565b6104d2565b60405161017e9190611983565b60405180910390f35b61018f610522565b60405161019c91906119ab565b60405180910390f35b6101ad610527565b6040516101ba91906119ab565b60405180910390f35b6101dd60048036038101906101d891906119c4565b610538565b6040516101ea9190611983565b60405180910390f35b61020d60048036038101906102089190611a14565b610609565b60405161021b929190611a3f565b60405180910390f35b61022c6107d3565b6040516102399190611a81565b60405180910390f35b61024a6107db565b6040516102579190611ab2565b60405180910390f35b61026861086b565b60405161027591906119ab565b60405180910390f35b61029860048036038101906102939190611a14565b610870565b6040516102a591906119ab565b60405180910390f35b6102c860048036038101906102c39190611acb565b610a0a565b6040516102d591906119ab565b60405180910390f35b6102e6610a23565b6040516102f391906119ab565b60405180910390f35b61031660048036038101906103119190611acb565b610a29565b60405161032391906119ab565b60405180910390f35b6103466004803603810190610341919061192b565b610a42565b60405161035391906119ab565b60405180910390f35b610364610b71565b604051610371919061187a565b60405180910390f35b610394600480360381019061038f919061192b565b610c00565b6040516103a19190611983565b60405180910390f35b6103b2610c8e565b6040516103bf9190611b05565b60405180910390f35b6103e260048036038101906103dd919061192b565b610cb3565b6040516103ef91906119ab565b60405180910390f35b610412600480360381019061040d9190611b72565b611036565b005b61042e60048036038101906104299190611c0f565b6111d2565b60405161043b91906119ab565b60405180910390f35b61045e60048036038101906104599190611c4d565b6111f0565b60405161046b91906119ab565b60405180910390f35b60606040518060400160405280600581526020017f4d494e492d0000000000000000000000000000000000000000000000000000008152505f6040516020016104be929190611db4565b604051602081830303815290604052905090565b5f82602052637f5e9f20600c52335f52816034600c2055815f52602c5160601c337f8c5be1e5ebec7d5bd14f71427d1e84f3dd0314c0f7b2291e5b200ac8c7c3b92560205fa36001905092915050565b600581565b5f6805345cdf77eb68f44c54905090565b5f6105448484846113df565b8360601b33602052637f5e9f208117600c526034600c2080546001810115610581578085111561057b576313be252b5f526004601cfd5b84810382555b6387a211a28317600c526020600c208054808711156105a75763f4d678b85f526004601cfd5b8681038255875f526020600c2087815401815587602052600c5160601c8660601c7fddf252ad1be2c89b69c2b068fc378daa952ba7f163c4a11628f55a4df523b3ef602080a35050505050506105fe8484846113e4565b600190509392505050565b5f808261061533610a0a565b101561064d576040517f50b1f35600000000000000000000000000000000000000000000000000000000815260040160405180910390fd5b5f80600554600654915091505f610662610527565b90508083876106719190611e04565b61067b9190611e72565b945080828761068a9190611e04565b6106949190611e72565b93505f8514806106a357505f84145b156106da576040517f2cd294cf00000000000000000000000000000000000000000000000000000000815260040160405180910390fd5b6106e483836113e9565b61071160035f9054906101000a900473ffffffffffffffffffffffffffffffffffffffff1630338861151d565b61073e60045f9054906101000a900473ffffffffffffffffffffffffffffffffffffffff1630338761151d565b61074830876115db565b8460055f8282546107599190611ea2565b925050819055508360065f8282546107719190611ea2565b925050819055506006546005546107889190611e04565b6002819055507f02f25270a4d87bea75db541cdfe559334a275b4a233520ed6c0a2429667cca94308787876040516107c39493929190611ed5565b60405180910390a1505050915091565b5f6012905090565b5f806107e561166b565b90505f801b8103610802576107f8610474565b8051906020012090505b6040517f8b73c3c69bb8fe3d512ecc4cf759cc79239f7b179b0ffacaa9a75d522b39400f81528160208201527fc89efdaa54c0f20c7adf612882df0950f5a951637e0307cdcb4c672f298b8bc6604082015246606082015230608082015260a081209250505090565b601e81565b5f6001821161088157819050610a05565b5f8290505f6001905070010000000000000000000000000000000082106108b157608082901c9150604081901b90505b6801000000000000000082106108d057604082901c9150602081901b90505b64010000000082106108eb57602082901c9150601081901b90505b62010000821061090457601082901c9150600881901b90505b610100821061091c57600882901c9150600481901b90505b6010821061093357600482901c9150600281901b90505b6004821061094357600181901b90505b600181600302901c9050600181858161095f5761095e611e45565b5b048201901c9050600181858161097857610977611e45565b5b048201901c9050600181858161099157610990611e45565b5b048201901c905060018185816109aa576109a9611e45565b5b048201901c905060018185816109c3576109c2611e45565b5b048201901c905060018185816109dc576109db611e45565b5b048201901c90506109fe8185816109f6576109f5611e45565b5b04821161166f565b8103925050505b919050565b5f6387a211a2600c52815f526020600c20549050919050565b60025481565b5f6338377508600c52815f526020600c20549050919050565b5f8260035f9054906101000a900473ffffffffffffffffffffffffffffffffffffffff1673ffffffffffffffffffffffffffffffffffffffff168173ffffffffffffffffffffffffffffffffffffffff1614158015610aee575060045f9054906101000a900473ffffffffffffffffffffffffffffffffffffffff1673ffffffffffffffffffffffffffffffffffffffff168173ffffffffffffffffffffffffffffffffffffffff1614155b15610b25576040517f82bce52600000000000000000000000000000000000000000000000000000000815260040160405180910390fd5b5f8303610b5e576040517f8966f48700000000000000000000000000000000000000000000000000000000815260040160405180910390fd5b610b68848461167a565b91505092915050565b60605f8054610b7f90611cf2565b80601f0160208091040260200160405190810160405280929190818152602001828054610bab90611cf2565b8015610bf65780601f10610bcd57610100808354040283529160200191610bf6565b820191905f5260205f20905b815481529060010190602001808311610bd957829003601f168201915b5050505050905090565b5f610c0c3384846113df565b6387a211a2600c52335f526020600c20805480841115610c335763f4d678b85f526004601cfd5b8381038255845f526020600c2084815401815584602052600c5160601c337fddf252ad1be2c89b69c2b068fc378daa952ba7f163c4a11628f55a4df523b3ef602080a3505050610c843384846113e4565b6001905092915050565b60015f9054906101000a900473ffffffffffffffffffffffffffffffffffffffff1681565b5f8260035f9054906101000a900473ffffffffffffffffffffffffffffffffffffffff1673ffffffffffffffffffffffffffffffffffffffff168173ffffffffffffffffffffffffffffffffffffffff1614158015610d5f575060045f9054906101000a900473ffffffffffffffffffffffffffffffffffffffff1673ffffffffffffffffffffffffffffffffffffffff168173ffffffffffffffffffffffffffffffffffffffff1614155b15610d96576040517f82bce52600000000000000000000000000000000000000000000000000000000815260040160405180910390fd5b5f60035f9054906101000a900473ffffffffffffffffffffffffffffffffffffffff1690505f60045f9054906101000a900473ffffffffffffffffffffffffffffffffffffffff1690505f8503610e19576040517f8966f48700000000000000000000000000000000000000000000000000000000815260040160405180910390fd5b610e23868661167a565b93505f8273ffffffffffffffffffffffffffffffffffffffff168773ffffffffffffffffffffffffffffffffffffffff1614610e5f5782610e61565b815b90508460028273ffffffffffffffffffffffffffffffffffffffff166370a08231306040518263ffffffff1660e01b8152600401610e9f9190611b05565b602060405180830381865afa158015610eba573d5f803e3d5ffd5b505050506040513d601f19601f82011682018060405250810190610ede9190611f2c565b610ee89190611e72565b1015610f20576040517f8cab1f2800000000000000000000000000000000000000000000000000000000815260040160405180910390fd5b610f2c8733308961151d565b5f612710601e87610f3d9190611e04565b610f479190611e72565b9050610f558230338461151d565b8373ffffffffffffffffffffffffffffffffffffffff168273ffffffffffffffffffffffffffffffffffffffff1603610fbd578560055f828254610f999190611ea2565b925050819055508660065f828254610fb19190611f57565b92505081905550610fee565b8660055f828254610fce9190611f57565b925050819055508560065f828254610fe69190611ea2565b925050819055505b7ffa2dda1cc1b86e41239702756b13effbc1a092b5c57e3ad320fbe4f3b13fe235828983896040516110239493929190611f8a565b60405180910390a1505050505092915050565b5f61103f61166b565b90505f801b810361105c57611052610474565b8051906020012090505b8442111561107157631a15a3cc5f526004601cfd5b6040518860601b60601c98508760601b60601c975065383775081901600e52885f526020600c2080547f8b73c3c69bb8fe3d512ecc4cf759cc79239f7b179b0ffacaa9a75d522b39400f83528360208401527fc89efdaa54c0f20c7adf612882df0950f5a951637e0307cdcb4c672f298b8bc6604084015246606084015230608084015260a08320602e527f6e71edae12b1b97f4d1f60370fef10105fa2faae0126114a169c64845d6126c983528a60208401528960408401528860608401528060808401528760a084015260c08320604e526042602c205f528660ff16602052856040528460605260208060805f60015afa8b3d51146111795763ddafbaef5f526004601cfd5b80820183558a637f5e9f2060a01b17604052896034602c20558a8c7f8c5be1e5ebec7d5bd14f71427d1e84f3dd0314c0f7b2291e5b200ac8c7c3b925602060608801a3836040525f606052505050505050505050505050565b5f81602052637f5e9f20600c52825f526034600c2054905092915050565b5f806111fa610527565b90505f806005546006549150915061123560035f9054906101000a900473ffffffffffffffffffffffffffffffffffffffff1633308961151d565b61126260045f9054906101000a900473ffffffffffffffffffffffffffffffffffffffff1633308861151d565b61126c82826113e9565b5f83036112a7576103e861128a86886112859190611e04565b610870565b6112949190611ea2565b93506112a25f6103e8611746565b611349565b5f6112d360035f9054906101000a900473ffffffffffffffffffffffffffffffffffffffff168861167a565b90508581101561130f576040517f2cd294cf00000000000000000000000000000000000000000000000000000000815260040160405180910390fd5b61134583858961131f9190611e04565b6113299190611e72565b8386896113369190611e04565b6113409190611e72565b6117d8565b9450505b6113533385611746565b8560055f8282546113649190611f57565b925050819055508460065f82825461137c9190611f57565b925050819055506006546005546113939190611e04565b6002819055507f36af321ec8d3c75236829c5317affd40ddb308863a1236d2d277a4025cccee1e308588886040516113ce9493929190611ed5565b60405180910390a150505092915050565b505050565b505050565b5f60015f9054906101000a900473ffffffffffffffffffffffffffffffffffffffff1673ffffffffffffffffffffffffffffffffffffffff1663085bf3b96040518163ffffffff1660e01b8152600401602060405180830381865afa158015611454573d5f803e3d5ffd5b505050506040513d601f19601f820116820180604052508101906114789190611fe1565b90505f60025490505f8114611517575f61149c84866114979190611e04565b610870565b90505f6114a883610870565b905080821115611514575f81836114bf9190611ea2565b6114c7610527565b6114d19190611e04565b90505f826005856114e29190611e04565b6114ec9190611f57565b90505f81836114fb9190611e72565b90505f8111156115105761150f8782611746565b5b5050505b50505b50505050565b5f8473ffffffffffffffffffffffffffffffffffffffff166323b872dd8585856040518463ffffffff1660e01b815260040161155b9392919061200c565b6020604051808303815f875af1158015611577573d5f803e3d5ffd5b505050506040513d601f19601f8201168201806040525081019061159b919061206b565b9050806115d4576040517f3f4ab80e00000000000000000000000000000000000000000000000000000000815260040160405180910390fd5b5050505050565b6115e6825f836113df565b6387a211a2600c52815f526020600c2080548083111561160d5763f4d678b85f526004601cfd5b8281038255826805345cdf77eb68f44c54036805345cdf77eb68f44c55825f525f8460601b60601c7fddf252ad1be2c89b69c2b068fc378daa952ba7f163c4a11628f55a4df523b3ef60205fa35050611667825f836113e4565b5050565b5f90565b5f8115159050919050565b5f8060035f9054906101000a900473ffffffffffffffffffffffffffffffffffffffff1690505f8173ffffffffffffffffffffffffffffffffffffffff168573ffffffffffffffffffffffffffffffffffffffff16146116dc576006546116e0565b6005545b90505f8273ffffffffffffffffffffffffffffffffffffffff168673ffffffffffffffffffffffffffffffffffffffff161461171e57600554611722565b6006545b90508085836117319190611e04565b61173b9190611e72565b935050505092915050565b6117515f83836113df565b6805345cdf77eb68f44c54818101818110156117745763e5cfe9575f526004601cfd5b806805345cdf77eb68f44c556387a211a2600c52835f526020600c2083815401815583602052600c5160601c5f7fddf252ad1be2c89b69c2b068fc378daa952ba7f163c4a11628f55a4df523b3ef602080a35050506117d45f83836113e4565b5050565b5f8183106117e657816117e8565b825b905092915050565b5f81519050919050565b5f82825260208201905092915050565b5f5b8381101561182757808201518184015260208101905061180c565b5f8484015250505050565b5f601f19601f8301169050919050565b5f61184c826117f0565b61185681856117fa565b935061186681856020860161180a565b61186f81611832565b840191505092915050565b5f6020820190508181035f8301526118928184611842565b905092915050565b5f80fd5b5f73ffffffffffffffffffffffffffffffffffffffff82169050919050565b5f6118c78261189e565b9050919050565b6118d7816118bd565b81146118e1575f80fd5b50565b5f813590506118f2816118ce565b92915050565b5f819050919050565b61190a816118f8565b8114611914575f80fd5b50565b5f8135905061192581611901565b92915050565b5f80604083850312156119415761194061189a565b5b5f61194e858286016118e4565b925050602061195f85828601611917565b9150509250929050565b5f8115159050919050565b61197d81611969565b82525050565b5f6020820190506119965f830184611974565b92915050565b6119a5816118f8565b82525050565b5f6020820190506119be5f83018461199c565b92915050565b5f805f606084860312156119db576119da61189a565b5b5f6119e8868287016118e4565b93505060206119f9868287016118e4565b9250506040611a0a86828701611917565b9150509250925092565b5f60208284031215611a2957611a2861189a565b5b5f611a3684828501611917565b91505092915050565b5f604082019050611a525f83018561199c565b611a5f602083018461199c565b9392505050565b5f60ff82169050919050565b611a7b81611a66565b82525050565b5f602082019050611a945f830184611a72565b92915050565b5f819050919050565b611aac81611a9a565b82525050565b5f602082019050611ac55f830184611aa3565b92915050565b5f60208284031215611ae057611adf61189a565b5b5f611aed848285016118e4565b91505092915050565b611aff816118bd565b82525050565b5f602082019050611b185f830184611af6565b92915050565b611b2781611a66565b8114611b31575f80fd5b50565b5f81359050611b4281611b1e565b92915050565b611b5181611a9a565b8114611b5b575f80fd5b50565b5f81359050611b6c81611b48565b92915050565b5f805f805f805f60e0888a031215611b8d57611b8c61189a565b5b5f611b9a8a828b016118e4565b9750506020611bab8a828b016118e4565b9650506040611bbc8a828b01611917565b9550506060611bcd8a828b01611917565b9450506080611bde8a828b01611b34565b93505060a0611bef8a828b01611b5e565b92505060c0611c008a828b01611b5e565b91505092959891949750929550565b5f8060408385031215611c2557611c2461189a565b5b5f611c32858286016118e4565b9250506020611c43858286016118e4565b9150509250929050565b5f8060408385031215611c6357611c6261189a565b5b5f611c7085828601611917565b9250506020611c8185828601611917565b9150509250929050565b5f81905092915050565b5f611c9f826117f0565b611ca98185611c8b565b9350611cb981856020860161180a565b80840191505092915050565b7f4e487b71000000000000000000000000000000000000000000000000000000005f52602260045260245ffd5b5f6002820490506001821680611d0957607f821691505b602082108103611d1c57611d1b611cc5565b5b50919050565b5f819050815f5260205f209050919050565b5f8154611d4081611cf2565b611d4a8186611c8b565b9450600182165f8114611d645760018114611d7957611dab565b60ff1983168652811515820286019350611dab565b611d8285611d22565b5f5b83811015611da357815481890152600182019150602081019050611d84565b838801955050505b50505092915050565b5f611dbf8285611c95565b9150611dcb8284611d34565b91508190509392505050565b7f4e487b71000000000000000000000000000000000000000000000000000000005f52601160045260245ffd5b5f611e0e826118f8565b9150611e19836118f8565b9250828202611e27816118f8565b91508282048414831517611e3e57611e3d611dd7565b5b5092915050565b7f4e487b71000000000000000000000000000000000000000000000000000000005f52601260045260245ffd5b5f611e7c826118f8565b9150611e87836118f8565b925082611e9757611e96611e45565b5b828204905092915050565b5f611eac826118f8565b9150611eb7836118f8565b9250828203905081811115611ecf57611ece611dd7565b5b92915050565b5f608082019050611ee85f830187611af6565b611ef5602083018661199c565b611f02604083018561199c565b611f0f606083018461199c565b95945050505050565b5f81519050611f2681611901565b92915050565b5f60208284031215611f4157611f4061189a565b5b5f611f4e84828501611f18565b91505092915050565b5f611f61826118f8565b9150611f6c836118f8565b9250828201905080821115611f8457611f83611dd7565b5b92915050565b5f608082019050611f9d5f830187611af6565b611faa6020830186611af6565b611fb7604083018561199c565b611fc4606083018461199c565b95945050505050565b5f81519050611fdb816118ce565b92915050565b5f60208284031215611ff657611ff561189a565b5b5f61200384828501611fcd565b91505092915050565b5f60608201905061201f5f830186611af6565b61202c6020830185611af6565b612039604083018461199c565b949350505050565b61204a81611969565b8114612054575f80fd5b50565b5f8151905061206581612041565b92915050565b5f602082840312156120805761207f61189a565b5b5f61208d84828501612057565b9150509291505056fea264697066735822122097e1de0ac6550c2ac3d1883a558fdc423a06507fc493554cd74e790b4dcc590a64736f6c63430008140033",
					"opcodes": "PUSH1 0x80 PUSH1 0x40 MSTORE CALLVALUE DUP1 ISZERO PUSH3 0x10 JUMPI PUSH0 DUP1 REVERT JUMPDEST POP PUSH1 0x40 MLOAD PUSH3 0x28EE CODESIZE SUB DUP1 PUSH3 0x28EE DUP4 CODECOPY DUP2 DUP2 ADD PUSH1 0x40 MSTORE DUP2 ADD SWAP1 PUSH3 0x36 SWAP2 SWAP1 PUSH3 0x28A JUMP JUMPDEST DUP2 PUSH20 0xFFFFFFFFFFFFFFFFFFFFFFFFFFFFFFFFFFFFFFFF AND PUSH4 0x95D89B41 PUSH1 0x40 MLOAD DUP2 PUSH4 0xFFFFFFFF AND PUSH1 0xE0 SHL DUP2 MSTORE PUSH1 0x4 ADD PUSH0 PUSH1 0x40 MLOAD DUP1 DUP4 SUB DUP2 DUP7 GAS STATICCALL ISZERO DUP1 ISZERO PUSH3 0x7F JUMPI RETURNDATASIZE PUSH0 DUP1 RETURNDATACOPY RETURNDATASIZE PUSH0 REVERT JUMPDEST POP POP POP POP PUSH1 0x40 MLOAD RETURNDATASIZE PUSH0 DUP3 RETURNDATACOPY RETURNDATASIZE PUSH1 0x1F NOT PUSH1 0x1F DUP3 ADD AND DUP3 ADD DUP1 PUSH1 0x40 MSTORE POP DUP2 ADD SWAP1 PUSH3 0xA9 SWAP2 SWAP1 PUSH3 0x443 JUMP JUMPDEST DUP2 PUSH20 0xFFFFFFFFFFFFFFFFFFFFFFFFFFFFFFFFFFFFFFFF AND PUSH4 0x95D89B41 PUSH1 0x40 MLOAD DUP2 PUSH4 0xFFFFFFFF AND PUSH1 0xE0 SHL DUP2 MSTORE PUSH1 0x4 ADD PUSH0 PUSH1 0x40 MLOAD DUP1 DUP4 SUB DUP2 DUP7 GAS STATICCALL ISZERO DUP1 ISZERO PUSH3 0xF2 JUMPI RETURNDATASIZE PUSH0 DUP1 RETURNDATACOPY RETURNDATASIZE PUSH0 REVERT JUMPDEST POP POP POP POP PUSH1 0x40 MLOAD RETURNDATASIZE PUSH0 DUP3 RETURNDATACOPY RETURNDATASIZE PUSH1 0x1F NOT PUSH1 0x1F DUP3 ADD AND DUP3 ADD DUP1 PUSH1 0x40 MSTORE POP DUP2 ADD SWAP1 PUSH3 0x11C SWAP2 SWAP1 PUSH3 0x443 JUMP JUMPDEST PUSH1 0x40 MLOAD PUSH1 0x20 ADD PUSH3 0x12F SWAP3 SWAP2 SWAP1 PUSH3 0x4DC JUMP JUMPDEST PUSH1 0x40 MLOAD PUSH1 0x20 DUP2 DUP4 SUB SUB DUP2 MSTORE SWAP1 PUSH1 0x40 MSTORE DUP1 PUSH0 SWAP1 DUP2 PUSH3 0x14E SWAP2 SWAP1 PUSH3 0x730 JUMP JUMPDEST POP POP CALLER PUSH1 0x1 PUSH0 PUSH2 0x100 EXP DUP2 SLOAD DUP2 PUSH20 0xFFFFFFFFFFFFFFFFFFFFFFFFFFFFFFFFFFFFFFFF MUL NOT AND SWAP1 DUP4 PUSH20 0xFFFFFFFFFFFFFFFFFFFFFFFFFFFFFFFFFFFFFFFF AND MUL OR SWAP1 SSTORE POP DUP2 PUSH1 0x3 PUSH0 PUSH2 0x100 EXP DUP2 SLOAD DUP2 PUSH20 0xFFFFFFFFFFFFFFFFFFFFFFFFFFFFFFFFFFFFFFFF MUL NOT AND SWAP1 DUP4 PUSH20 0xFFFFFFFFFFFFFFFFFFFFFFFFFFFFFFFFFFFFFFFF AND MUL OR SWAP1 SSTORE POP DUP1 PUSH1 0x4 PUSH0 PUSH2 0x100 EXP DUP2 SLOAD DUP2 PUSH20 0xFFFFFFFFFFFFFFFFFFFFFFFFFFFFFFFFFFFFFFFF MUL NOT AND SWAP1 DUP4 PUSH20 0xFFFFFFFFFFFFFFFFFFFFFFFFFFFFFFFFFFFFFFFF AND MUL OR SWAP1 SSTORE POP POP POP PUSH3 0x814 JUMP JUMPDEST PUSH0 PUSH1 0x40 MLOAD SWAP1 POP SWAP1 JUMP JUMPDEST PUSH0 DUP1 REVERT JUMPDEST PUSH0 DUP1 REVERT JUMPDEST PUSH0 PUSH20 0xFFFFFFFFFFFFFFFFFFFFFFFFFFFFFFFFFFFFFFFF DUP3 AND SWAP1 POP SWAP2 SWAP1 POP JUMP JUMPDEST PUSH0 PUSH3 0x254 DUP3 PUSH3 0x229 JUMP JUMPDEST SWAP1 POP SWAP2 SWAP1 POP JUMP JUMPDEST PUSH3 0x266 DUP2 PUSH3 0x248 JUMP JUMPDEST DUP2 EQ PUSH3 0x271 JUMPI PUSH0 DUP1 REVERT JUMPDEST POP JUMP JUMPDEST PUSH0 DUP2 MLOAD SWAP1 POP PUSH3 0x284 DUP2 PUSH3 0x25B JUMP JUMPDEST SWAP3 SWAP2 POP POP JUMP JUMPDEST PUSH0 DUP1 PUSH1 0x40 DUP4 DUP6 SUB SLT ISZERO PUSH3 0x2A3 JUMPI PUSH3 0x2A2 PUSH3 0x221 JUMP JUMPDEST JUMPDEST PUSH0 PUSH3 0x2B2 DUP6 DUP3 DUP7 ADD PUSH3 0x274 JUMP JUMPDEST SWAP3 POP POP PUSH1 0x20 PUSH3 0x2C5 DUP6 DUP3 DUP7 ADD PUSH3 0x274 JUMP JUMPDEST SWAP2 POP POP SWAP3 POP SWAP3 SWAP1 POP JUMP JUMPDEST PUSH0 DUP1 REVERT JUMPDEST PUSH0 DUP1 REVERT JUMPDEST PUSH0 PUSH1 0x1F NOT PUSH1 0x1F DUP4 ADD AND SWAP1 POP SWAP2 SWAP1 POP JUMP JUMPDEST PUSH32 0x4E487B7100000000000000000000000000000000000000000000000000000000 PUSH0 MSTORE PUSH1 0x41 PUSH1 0x4 MSTORE PUSH1 0x24 PUSH0 REVERT JUMPDEST PUSH3 0x31F DUP3 PUSH3 0x2D7 JUMP JUMPDEST DUP2 ADD DUP2 DUP2 LT PUSH8 0xFFFFFFFFFFFFFFFF DUP3 GT OR ISZERO PUSH3 0x341 JUMPI PUSH3 0x340 PUSH3 0x2E7 JUMP JUMPDEST JUMPDEST DUP1 PUSH1 0x40 MSTORE POP POP POP JUMP JUMPDEST PUSH0 PUSH3 0x355 PUSH3 0x218 JUMP JUMPDEST SWAP1 POP PUSH3 0x363 DUP3 DUP3 PUSH3 0x314 JUMP JUMPDEST SWAP2 SWAP1 POP JUMP JUMPDEST PUSH0 PUSH8 0xFFFFFFFFFFFFFFFF DUP3 GT ISZERO PUSH3 0x385 JUMPI PUSH3 0x384 PUSH3 0x2E7 JUMP JUMPDEST JUMPDEST PUSH3 0x390 DUP3 PUSH3 0x2D7 JUMP JUMPDEST SWAP1 POP PUSH1 0x20 DUP2 ADD SWAP1 POP SWAP2 SWAP1 POP JUMP JUMPDEST PUSH0 JUMPDEST DUP4 DUP2 LT ISZERO PUSH3 0x3BC JUMPI DUP1 DUP3 ADD MLOAD DUP2 DUP5 ADD MSTORE PUSH1 0x20 DUP2 ADD SWAP1 POP PUSH3 0x39F JUMP JUMPDEST PUSH0 DUP5 DUP5 ADD MSTORE POP POP POP POP JUMP JUMPDEST PUSH0 PUSH3 0x3DD PUSH3 0x3D7 DUP5 PUSH3 0x368 JUMP JUMPDEST PUSH3 0x34A JUMP JUMPDEST SWAP1 POP DUP3 DUP2 MSTORE PUSH1 0x20 DUP2 ADD DUP5 DUP5 DUP5 ADD GT ISZERO PUSH3 0x3FC JUMPI PUSH3 0x3FB PUSH3 0x2D3 JUMP JUMPDEST JUMPDEST PUSH3 0x409 DUP5 DUP3 DUP6 PUSH3 0x39D JUMP JUMPDEST POP SWAP4 SWAP3 POP POP POP JUMP JUMPDEST PUSH0 DUP3 PUSH1 0x1F DUP4 ADD SLT PUSH3 0x428 JUMPI PUSH3 0x427 PUSH3 0x2CF JUMP JUMPDEST JUMPDEST DUP2 MLOAD PUSH3 0x43A DUP5 DUP3 PUSH1 0x20 DUP7 ADD PUSH3 0x3C7 JUMP JUMPDEST SWAP2 POP POP SWAP3 SWAP2 POP POP JUMP JUMPDEST PUSH0 PUSH1 0x20 DUP3 DUP5 SUB SLT ISZERO PUSH3 0x45B JUMPI PUSH3 0x45A PUSH3 0x221 JUMP JUMPDEST JUMPDEST PUSH0 DUP3 ADD MLOAD PUSH8 0xFFFFFFFFFFFFFFFF DUP2 GT ISZERO PUSH3 0x47B JUMPI PUSH3 0x47A PUSH3 0x225 JUMP JUMPDEST JUMPDEST PUSH3 0x489 DUP5 DUP3 DUP6 ADD PUSH3 0x411 JUMP JUMPDEST SWAP2 POP POP SWAP3 SWAP2 POP POP JUMP JUMPDEST PUSH0 DUP2 MLOAD SWAP1 POP SWAP2 SWAP1 POP JUMP JUMPDEST PUSH0 DUP2 SWAP1 POP SWAP3 SWAP2 POP POP JUMP JUMPDEST PUSH0 PUSH3 0x4B2 DUP3 PUSH3 0x492 JUMP JUMPDEST PUSH3 0x4BE DUP2 DUP6 PUSH3 0x49C JUMP JUMPDEST SWAP4 POP PUSH3 0x4D0 DUP2 DUP6 PUSH1 0x20 DUP7 ADD PUSH3 0x39D JUMP JUMPDEST DUP1 DUP5 ADD SWAP2 POP POP SWAP3 SWAP2 POP POP JUMP JUMPDEST PUSH0 PUSH3 0x4E9 DUP3 DUP6 PUSH3 0x4A6 JUMP JUMPDEST SWAP2 POP PUSH3 0x4F7 DUP3 DUP5 PUSH3 0x4A6 JUMP JUMPDEST SWAP2 POP DUP2 SWAP1 POP SWAP4 SWAP3 POP POP POP JUMP JUMPDEST PUSH32 0x4E487B7100000000000000000000000000000000000000000000000000000000 PUSH0 MSTORE PUSH1 0x22 PUSH1 0x4 MSTORE PUSH1 0x24 PUSH0 REVERT JUMPDEST PUSH0 PUSH1 0x2 DUP3 DIV SWAP1 POP PUSH1 0x1 DUP3 AND DUP1 PUSH3 0x548 JUMPI PUSH1 0x7F DUP3 AND SWAP2 POP JUMPDEST PUSH1 0x20 DUP3 LT DUP2 SUB PUSH3 0x55E JUMPI PUSH3 0x55D PUSH3 0x503 JUMP JUMPDEST JUMPDEST POP SWAP2 SWAP1 POP JUMP JUMPDEST PUSH0 DUP2 SWAP1 POP DUP2 PUSH0 MSTORE PUSH1 0x20 PUSH0 KECCAK256 SWAP1 POP SWAP2 SWAP1 POP JUMP JUMPDEST PUSH0 PUSH1 0x20 PUSH1 0x1F DUP4 ADD DIV SWAP1 POP SWAP2 SWAP1 POP JUMP JUMPDEST PUSH0 DUP3 DUP3 SHL SWAP1 POP SWAP3 SWAP2 POP POP JUMP JUMPDEST PUSH0 PUSH1 0x8 DUP4 MUL PUSH3 0x5C2 PUSH32 0xFFFFFFFFFFFFFFFFFFFFFFFFFFFFFFFFFFFFFFFFFFFFFFFFFFFFFFFFFFFFFFFF DUP3 PUSH3 0x585 JUMP JUMPDEST PUSH3 0x5CE DUP7 DUP4 PUSH3 0x585 JUMP JUMPDEST SWAP6 POP DUP1 NOT DUP5 AND SWAP4 POP DUP1 DUP7 AND DUP5 OR SWAP3 POP POP POP SWAP4 SWAP3 POP POP POP JUMP JUMPDEST PUSH0 DUP2 SWAP1 POP SWAP2 SWAP1 POP JUMP JUMPDEST PUSH0 DUP2 SWAP1 POP SWAP2 SWAP1 POP JUMP JUMPDEST PUSH0 PUSH3 0x618 PUSH3 0x612 PUSH3 0x60C DUP5 PUSH3 0x5E6 JUMP JUMPDEST PUSH3 0x5EF JUMP JUMPDEST PUSH3 0x5E6 JUMP JUMPDEST SWAP1 POP SWAP2 SWAP1 POP JUMP JUMPDEST PUSH0 DUP2 SWAP1 POP SWAP2 SWAP1 POP JUMP JUMPDEST PUSH3 0x633 DUP4 PUSH3 0x5F8 JUMP JUMPDEST PUSH3 0x64B PUSH3 0x642 DUP3 PUSH3 0x61F JUMP JUMPDEST DUP5 DUP5 SLOAD PUSH3 0x591 JUMP JUMPDEST DUP3 SSTORE POP POP POP POP JUMP JUMPDEST PUSH0 SWAP1 JUMP JUMPDEST PUSH3 0x661 PUSH3 0x653 JUMP JUMPDEST PUSH3 0x66E DUP2 DUP5 DUP5 PUSH3 0x628 JUMP JUMPDEST POP POP POP JUMP JUMPDEST JUMPDEST DUP2 DUP2 LT ISZERO PUSH3 0x695 JUMPI PUSH3 0x689 PUSH0 DUP3 PUSH3 0x657 JUMP JUMPDEST PUSH1 0x1 DUP2 ADD SWAP1 POP PUSH3 0x674 JUMP JUMPDEST POP POP JUMP JUMPDEST PUSH1 0x1F DUP3 GT ISZERO PUSH3 0x6E4 JUMPI PUSH3 0x6AE DUP2 PUSH3 0x564 JUMP JUMPDEST PUSH3 0x6B9 DUP5 PUSH3 0x576 JUMP JUMPDEST DUP2 ADD PUSH1 0x20 DUP6 LT ISZERO PUSH3 0x6C9 JUMPI DUP2 SWAP1 POP JUMPDEST PUSH3 0x6E1 PUSH3 0x6D8 DUP6 PUSH3 0x576 JUMP JUMPDEST DUP4 ADD DUP3 PUSH3 0x673 JUMP JUMPDEST POP POP JUMPDEST POP POP POP JUMP JUMPDEST PUSH0 DUP3 DUP3 SHR SWAP1 POP SWAP3 SWAP2 POP POP JUMP JUMPDEST PUSH0 PUSH3 0x706 PUSH0 NOT DUP5 PUSH1 0x8 MUL PUSH3 0x6E9 JUMP JUMPDEST NOT DUP1 DUP4 AND SWAP2 POP POP SWAP3 SWAP2 POP POP JUMP JUMPDEST PUSH0 PUSH3 0x720 DUP4 DUP4 PUSH3 0x6F5 JUMP JUMPDEST SWAP2 POP DUP3 PUSH1 0x2 MUL DUP3 OR SWAP1 POP SWAP3 SWAP2 POP POP JUMP JUMPDEST PUSH3 0x73B DUP3 PUSH3 0x492 JUMP JUMPDEST PUSH8 0xFFFFFFFFFFFFFFFF DUP2 GT ISZERO PUSH3 0x757 JUMPI PUSH3 0x756 PUSH3 0x2E7 JUMP JUMPDEST JUMPDEST PUSH3 0x763 DUP3 SLOAD PUSH3 0x530 JUMP JUMPDEST PUSH3 0x770 DUP3 DUP3 DUP6 PUSH3 0x699 JUMP JUMPDEST PUSH0 PUSH1 0x20 SWAP1 POP PUSH1 0x1F DUP4 GT PUSH1 0x1 DUP2 EQ PUSH3 0x7A6 JUMPI PUSH0 DUP5 ISZERO PUSH3 0x791 JUMPI DUP3 DUP8 ADD MLOAD SWAP1 POP JUMPDEST PUSH3 0x79D DUP6 DUP3 PUSH3 0x713 JUMP JUMPDEST DUP7 SSTORE POP PUSH3 0x80C JUMP JUMPDEST PUSH1 0x1F NOT DUP5 AND PUSH3 0x7B6 DUP7 PUSH3 0x564 JUMP JUMPDEST PUSH0 JUMPDEST DUP3 DUP2 LT ISZERO PUSH3 0x7DF JUMPI DUP5 DUP10 ADD MLOAD DUP3 SSTORE PUSH1 0x1 DUP3 ADD SWAP2 POP PUSH1 0x20 DUP6 ADD SWAP5 POP PUSH1 0x20 DUP2 ADD SWAP1 POP PUSH3 0x7B8 JUMP JUMPDEST DUP7 DUP4 LT ISZERO PUSH3 0x7FF JUMPI DUP5 DUP10 ADD MLOAD PUSH3 0x7FB PUSH1 0x1F DUP10 AND DUP3 PUSH3 0x6F5 JUMP JUMPDEST DUP4 SSTORE POP JUMPDEST PUSH1 0x1 PUSH1 0x2 DUP9 MUL ADD DUP9 SSTORE POP POP POP JUMPDEST POP POP POP POP POP POP JUMP JUMPDEST PUSH2 0x20CC DUP1 PUSH3 0x822 PUSH0 CODECOPY PUSH0 RETURN INVALID PUSH1 0x80 PUSH1 0x40 MSTORE CALLVALUE DUP1 ISZERO PUSH2 0xF JUMPI PUSH0 DUP1 REVERT JUMPDEST POP PUSH1 0x4 CALLDATASIZE LT PUSH2 0x135 JUMPI PUSH0 CALLDATALOAD PUSH1 0xE0 SHR DUP1 PUSH4 0x70A08231 GT PUSH2 0xB6 JUMPI DUP1 PUSH4 0xA9059CBB GT PUSH2 0x7A JUMPI DUP1 PUSH4 0xA9059CBB EQ PUSH2 0x37A JUMPI DUP1 PUSH4 0xC45A0155 EQ PUSH2 0x3AA JUMPI DUP1 PUSH4 0xD004F0F7 EQ PUSH2 0x3C8 JUMPI DUP1 PUSH4 0xD505ACCF EQ PUSH2 0x3F8 JUMPI DUP1 PUSH4 0xDD62ED3E EQ PUSH2 0x414 JUMPI DUP1 PUSH4 0xE2BBB158 EQ PUSH2 0x444 JUMPI PUSH2 0x135 JUMP JUMPDEST DUP1 PUSH4 0x70A08231 EQ PUSH2 0x2AE JUMPI DUP1 PUSH4 0x7464FC3D EQ PUSH2 0x2DE JUMPI DUP1 PUSH4 0x7ECEBE00 EQ PUSH2 0x2FC JUMPI DUP1 PUSH4 0x8F79306E EQ PUSH2 0x32C JUMPI DUP1 PUSH4 0x95D89B41 EQ PUSH2 0x35C JUMPI PUSH2 0x135 JUMP JUMPDEST DUP1 PUSH4 0x2E1A7D4D GT PUSH2 0xFD JUMPI DUP1 PUSH4 0x2E1A7D4D EQ PUSH2 0x1F3 JUMPI DUP1 PUSH4 0x313CE567 EQ PUSH2 0x224 JUMPI DUP1 PUSH4 0x3644E515 EQ PUSH2 0x242 JUMPI DUP1 PUSH4 0x5E3F2727 EQ PUSH2 0x260 JUMPI DUP1 PUSH4 0x677342CE EQ PUSH2 0x27E JUMPI PUSH2 0x135 JUMP JUMPDEST DUP1 PUSH4 0x6FDDE03 EQ PUSH2 0x139 JUMPI DUP1 PUSH4 0x95EA7B3 EQ PUSH2 0x157 JUMPI DUP1 PUSH4 0xB4501FD EQ PUSH2 0x187 JUMPI DUP1 PUSH4 0x18160DDD EQ PUSH2 0x1A5 JUMPI DUP1 PUSH4 0x23B872DD EQ PUSH2 0x1C3 JUMPI JUMPDEST PUSH0 DUP1 REVERT JUMPDEST PUSH2 0x141 PUSH2 0x474 JUMP JUMPDEST PUSH1 0x40 MLOAD PUSH2 0x14E SWAP2 SWAP1 PUSH2 0x187A JUMP JUMPDEST PUSH1 0x40 MLOAD DUP1 SWAP2 SUB SWAP1 RETURN JUMPDEST PUSH2 0x171 PUSH1 0x4 DUP1 CALLDATASIZE SUB DUP2 ADD SWAP1 PUSH2 0x16C SWAP2 SWAP1 PUSH2 0x192B JUMP JUMPDEST PUSH2 0x4D2 JUMP JUMPDEST PUSH1 0x40 MLOAD PUSH2 0x17E SWAP2 SWAP1 PUSH2 0x1983 JUMP JUMPDEST PUSH1 0x40 MLOAD DUP1 SWAP2 SUB SWAP1 RETURN JUMPDEST PUSH2 0x18F PUSH2 0x522 JUMP JUMPDEST PUSH1 0x40 MLOAD PUSH2 0x19C SWAP2 SWAP1 PUSH2 0x19AB JUMP JUMPDEST PUSH1 0x40 MLOAD DUP1 SWAP2 SUB SWAP1 RETURN JUMPDEST PUSH2 0x1AD PUSH2 0x527 JUMP JUMPDEST PUSH1 0x40 MLOAD PUSH2 0x1BA SWAP2 SWAP1 PUSH2 0x19AB JUMP JUMPDEST PUSH1 0x40 MLOAD DUP1 SWAP2 SUB SWAP1 RETURN JUMPDEST PUSH2 0x1DD PUSH1 0x4 DUP1 CALLDATASIZE SUB DUP2 ADD SWAP1 PUSH2 0x1D8 SWAP2 SWAP1 PUSH2 0x19C4 JUMP JUMPDEST PUSH2 0x538 JUMP JUMPDEST PUSH1 0x40 MLOAD PUSH2 0x1EA SWAP2 SWAP1 PUSH2 0x1983 JUMP JUMPDEST PUSH1 0x40 MLOAD DUP1 SWAP2 SUB SWAP1 RETURN JUMPDEST PUSH2 0x20D PUSH1 0x4 DUP1 CALLDATASIZE SUB DUP2 ADD SWAP1 PUSH2 0x208 SWAP2 SWAP1 PUSH2 0x1A14 JUMP JUMPDEST PUSH2 0x609 JUMP JUMPDEST PUSH1 0x40 MLOAD PUSH2 0x21B SWAP3 SWAP2 SWAP1 PUSH2 0x1A3F JUMP JUMPDEST PUSH1 0x40 MLOAD DUP1 SWAP2 SUB SWAP1 RETURN JUMPDEST PUSH2 0x22C PUSH2 0x7D3 JUMP JUMPDEST PUSH1 0x40 MLOAD PUSH2 0x239 SWAP2 SWAP1 PUSH2 0x1A81 JUMP JUMPDEST PUSH1 0x40 MLOAD DUP1 SWAP2 SUB SWAP1 RETURN JUMPDEST PUSH2 0x24A PUSH2 0x7DB JUMP JUMPDEST PUSH1 0x40 MLOAD PUSH2 0x257 SWAP2 SWAP1 PUSH2 0x1AB2 JUMP JUMPDEST PUSH1 0x40 MLOAD DUP1 SWAP2 SUB SWAP1 RETURN JUMPDEST PUSH2 0x268 PUSH2 0x86B JUMP JUMPDEST PUSH1 0x40 MLOAD PUSH2 0x275 SWAP2 SWAP1 PUSH2 0x19AB JUMP JUMPDEST PUSH1 0x40 MLOAD DUP1 SWAP2 SUB SWAP1 RETURN JUMPDEST PUSH2 0x298 PUSH1 0x4 DUP1 CALLDATASIZE SUB DUP2 ADD SWAP1 PUSH2 0x293 SWAP2 SWAP1 PUSH2 0x1A14 JUMP JUMPDEST PUSH2 0x870 JUMP JUMPDEST PUSH1 0x40 MLOAD PUSH2 0x2A5 SWAP2 SWAP1 PUSH2 0x19AB JUMP JUMPDEST PUSH1 0x40 MLOAD DUP1 SWAP2 SUB SWAP1 RETURN JUMPDEST PUSH2 0x2C8 PUSH1 0x4 DUP1 CALLDATASIZE SUB DUP2 ADD SWAP1 PUSH2 0x2C3 SWAP2 SWAP1 PUSH2 0x1ACB JUMP JUMPDEST PUSH2 0xA0A JUMP JUMPDEST PUSH1 0x40 MLOAD PUSH2 0x2D5 SWAP2 SWAP1 PUSH2 0x19AB JUMP JUMPDEST PUSH1 0x40 MLOAD DUP1 SWAP2 SUB SWAP1 RETURN JUMPDEST PUSH2 0x2E6 PUSH2 0xA23 JUMP JUMPDEST PUSH1 0x40 MLOAD PUSH2 0x2F3 SWAP2 SWAP1 PUSH2 0x19AB JUMP JUMPDEST PUSH1 0x40 MLOAD DUP1 SWAP2 SUB SWAP1 RETURN JUMPDEST PUSH2 0x316 PUSH1 0x4 DUP1 CALLDATASIZE SUB DUP2 ADD SWAP1 PUSH2 0x311 SWAP2 SWAP1 PUSH2 0x1ACB JUMP JUMPDEST PUSH2 0xA29 JUMP JUMPDEST PUSH1 0x40 MLOAD PUSH2 0x323 SWAP2 SWAP1 PUSH2 0x19AB JUMP JUMPDEST PUSH1 0x40 MLOAD DUP1 SWAP2 SUB SWAP1 RETURN JUMPDEST PUSH2 0x346 PUSH1 0x4 DUP1 CALLDATASIZE SUB DUP2 ADD SWAP1 PUSH2 0x341 SWAP2 SWAP1 PUSH2 0x192B JUMP JUMPDEST PUSH2 0xA42 JUMP JUMPDEST PUSH1 0x40 MLOAD PUSH2 0x353 SWAP2 SWAP1 PUSH2 0x19AB JUMP JUMPDEST PUSH1 0x40 MLOAD DUP1 SWAP2 SUB SWAP1 RETURN JUMPDEST PUSH2 0x364 PUSH2 0xB71 JUMP JUMPDEST PUSH1 0x40 MLOAD PUSH2 0x371 SWAP2 SWAP1 PUSH2 0x187A JUMP JUMPDEST PUSH1 0x40 MLOAD DUP1 SWAP2 SUB SWAP1 RETURN JUMPDEST PUSH2 0x394 PUSH1 0x4 DUP1 CALLDATASIZE SUB DUP2 ADD SWAP1 PUSH2 0x38F SWAP2 SWAP1 PUSH2 0x192B JUMP JUMPDEST PUSH2 0xC00 JUMP JUMPDEST PUSH1 0x40 MLOAD PUSH2 0x3A1 SWAP2 SWAP1 PUSH2 0x1983 JUMP JUMPDEST PUSH1 0x40 MLOAD DUP1 SWAP2 SUB SWAP1 RETURN JUMPDEST PUSH2 0x3B2 PUSH2 0xC8E JUMP JUMPDEST PUSH1 0x40 MLOAD PUSH2 0x3BF SWAP2 SWAP1 PUSH2 0x1B05 JUMP JUMPDEST PUSH1 0x40 MLOAD DUP1 SWAP2 SUB SWAP1 RETURN JUMPDEST PUSH2 0x3E2 PUSH1 0x4 DUP1 CALLDATASIZE SUB DUP2 ADD SWAP1 PUSH2 0x3DD SWAP2 SWAP1 PUSH2 0x192B JUMP JUMPDEST PUSH2 0xCB3 JUMP JUMPDEST PUSH1 0x40 MLOAD PUSH2 0x3EF SWAP2 SWAP1 PUSH2 0x19AB JUMP JUMPDEST PUSH1 0x40 MLOAD DUP1 SWAP2 SUB SWAP1 RETURN JUMPDEST PUSH2 0x412 PUSH1 0x4 DUP1 CALLDATASIZE SUB DUP2 ADD SWAP1 PUSH2 0x40D SWAP2 SWAP1 PUSH2 0x1B72 JUMP JUMPDEST PUSH2 0x1036 JUMP JUMPDEST STOP JUMPDEST PUSH2 0x42E PUSH1 0x4 DUP1 CALLDATASIZE SUB DUP2 ADD SWAP1 PUSH2 0x429 SWAP2 SWAP1 PUSH2 0x1C0F JUMP JUMPDEST PUSH2 0x11D2 JUMP JUMPDEST PUSH1 0x40 MLOAD PUSH2 0x43B SWAP2 SWAP1 PUSH2 0x19AB JUMP JUMPDEST PUSH1 0x40 MLOAD DUP1 SWAP2 SUB SWAP1 RETURN JUMPDEST PUSH2 0x45E PUSH1 0x4 DUP1 CALLDATASIZE SUB DUP2 ADD SWAP1 PUSH2 0x459 SWAP2 SWAP1 PUSH2 0x1C4D JUMP JUMPDEST PUSH2 0x11F0 JUMP JUMPDEST PUSH1 0x40 MLOAD PUSH2 0x46B SWAP2 SWAP1 PUSH2 0x19AB JUMP JUMPDEST PUSH1 0x40 MLOAD DUP1 SWAP2 SUB SWAP1 RETURN JUMPDEST PUSH1 0x60 PUSH1 0x40 MLOAD DUP1 PUSH1 0x40 ADD PUSH1 0x40 MSTORE DUP1 PUSH1 0x5 DUP2 MSTORE PUSH1 0x20 ADD PUSH32 0x4D494E492D000000000000000000000000000000000000000000000000000000 DUP2 MSTORE POP PUSH0 PUSH1 0x40 MLOAD PUSH1 0x20 ADD PUSH2 0x4BE SWAP3 SWAP2 SWAP1 PUSH2 0x1DB4 JUMP JUMPDEST PUSH1 0x40 MLOAD PUSH1 0x20 DUP2 DUP4 SUB SUB DUP2 MSTORE SWAP1 PUSH1 0x40 MSTORE SWAP1 POP SWAP1 JUMP JUMPDEST PUSH0 DUP3 PUSH1 0x20 MSTORE PUSH4 0x7F5E9F20 PUSH1 0xC MSTORE CALLER PUSH0 MSTORE DUP2 PUSH1 0x34 PUSH1 0xC KECCAK256 SSTORE DUP2 PUSH0 MSTORE PUSH1 0x2C MLOAD PUSH1 0x60 SHR CALLER PUSH32 0x8C5BE1E5EBEC7D5BD14F71427D1E84F3DD0314C0F7B2291E5B200AC8C7C3B925 PUSH1 0x20 PUSH0 LOG3 PUSH1 0x1 SWAP1 POP SWAP3 SWAP2 POP POP JUMP JUMPDEST PUSH1 0x5 DUP2 JUMP JUMPDEST PUSH0 PUSH9 0x5345CDF77EB68F44C SLOAD SWAP1 POP SWAP1 JUMP JUMPDEST PUSH0 PUSH2 0x544 DUP5 DUP5 DUP5 PUSH2 0x13DF JUMP JUMPDEST DUP4 PUSH1 0x60 SHL CALLER PUSH1 0x20 MSTORE PUSH4 0x7F5E9F20 DUP2 OR PUSH1 0xC MSTORE PUSH1 0x34 PUSH1 0xC KECCAK256 DUP1 SLOAD PUSH1 0x1 DUP2 ADD ISZERO PUSH2 0x581 JUMPI DUP1 DUP6 GT ISZERO PUSH2 0x57B JUMPI PUSH4 0x13BE252B PUSH0 MSTORE PUSH1 0x4 PUSH1 0x1C REVERT JUMPDEST DUP5 DUP2 SUB DUP3 SSTORE JUMPDEST PUSH4 0x87A211A2 DUP4 OR PUSH1 0xC MSTORE PUSH1 0x20 PUSH1 0xC KECCAK256 DUP1 SLOAD DUP1 DUP8 GT ISZERO PUSH2 0x5A7 JUMPI PUSH4 0xF4D678B8 PUSH0 MSTORE PUSH1 0x4 PUSH1 0x1C REVERT JUMPDEST DUP7 DUP2 SUB DUP3 SSTORE DUP8 PUSH0 MSTORE PUSH1 0x20 PUSH1 0xC KECCAK256 DUP8 DUP2 SLOAD ADD DUP2 SSTORE DUP8 PUSH1 0x20 MSTORE PUSH1 0xC MLOAD PUSH1 0x60 SHR DUP7 PUSH1 0x60 SHR PUSH32 0xDDF252AD1BE2C89B69C2B068FC378DAA952BA7F163C4A11628F55A4DF523B3EF PUSH1 0x20 DUP1 LOG3 POP POP POP POP POP POP PUSH2 0x5FE DUP5 DUP5 DUP5 PUSH2 0x13E4 JUMP JUMPDEST PUSH1 0x1 SWAP1 POP SWAP4 SWAP3 POP POP POP JUMP JUMPDEST PUSH0 DUP1 DUP3 PUSH2 0x615 CALLER PUSH2 0xA0A JUMP JUMPDEST LT ISZERO PUSH2 0x64D JUMPI PUSH1 0x40 MLOAD PUSH32 0x50B1F35600000000000000000000000000000000000000000000000000000000 DUP2 MSTORE PUSH1 0x4 ADD PUSH1 0x40 MLOAD DUP1 SWAP2 SUB SWAP1 REVERT JUMPDEST PUSH0 DUP1 PUSH1 0x5 SLOAD PUSH1 0x6 SLOAD SWAP2 POP SWAP2 POP PUSH0 PUSH2 0x662 PUSH2 0x527 JUMP JUMPDEST SWAP1 POP DUP1 DUP4 DUP8 PUSH2 0x671 SWAP2 SWAP1 PUSH2 0x1E04 JUMP JUMPDEST PUSH2 0x67B SWAP2 SWAP1 PUSH2 0x1E72 JUMP JUMPDEST SWAP5 POP DUP1 DUP3 DUP8 PUSH2 0x68A SWAP2 SWAP1 PUSH2 0x1E04 JUMP JUMPDEST PUSH2 0x694 SWAP2 SWAP1 PUSH2 0x1E72 JUMP JUMPDEST SWAP4 POP PUSH0 DUP6 EQ DUP1 PUSH2 0x6A3 JUMPI POP PUSH0 DUP5 EQ JUMPDEST ISZERO PUSH2 0x6DA JUMPI PUSH1 0x40 MLOAD PUSH32 0x2CD294CF00000000000000000000000000000000000000000000000000000000 DUP2 MSTORE PUSH1 0x4 ADD PUSH1 0x40 MLOAD DUP1 SWAP2 SUB SWAP1 REVERT JUMPDEST PUSH2 0x6E4 DUP4 DUP4 PUSH2 0x13E9 JUMP JUMPDEST PUSH2 0x711 PUSH1 0x3 PUSH0 SWAP1 SLOAD SWAP1 PUSH2 0x100 EXP SWAP1 DIV PUSH20 0xFFFFFFFFFFFFFFFFFFFFFFFFFFFFFFFFFFFFFFFF AND ADDRESS CALLER DUP9 PUSH2 0x151D JUMP JUMPDEST PUSH2 0x73E PUSH1 0x4 PUSH0 SWAP1 SLOAD SWAP1 PUSH2 0x100 EXP SWAP1 DIV PUSH20 0xFFFFFFFFFFFFFFFFFFFFFFFFFFFFFFFFFFFFFFFF AND ADDRESS CALLER DUP8 PUSH2 0x151D JUMP JUMPDEST PUSH2 0x748 ADDRESS DUP8 PUSH2 0x15DB JUMP JUMPDEST DUP5 PUSH1 0x5 PUSH0 DUP3 DUP3 SLOAD PUSH2 0x759 SWAP2 SWAP1 PUSH2 0x1EA2 JUMP JUMPDEST SWAP3 POP POP DUP2 SWAP1 SSTORE POP DUP4 PUSH1 0x6 PUSH0 DUP3 DUP3 SLOAD PUSH2 0x771 SWAP2 SWAP1 PUSH2 0x1EA2 JUMP JUMPDEST SWAP3 POP POP DUP2 SWAP1 SSTORE POP PUSH1 0x6 SLOAD PUSH1 0x5 SLOAD PUSH2 0x788 SWAP2 SWAP1 PUSH2 0x1E04 JUMP JUMPDEST PUSH1 0x2 DUP2 SWAP1 SSTORE POP PUSH32 0x2F25270A4D87BEA75DB541CDFE559334A275B4A233520ED6C0A2429667CCA94 ADDRESS DUP8 DUP8 DUP8 PUSH1 0x40 MLOAD PUSH2 0x7C3 SWAP5 SWAP4 SWAP3 SWAP2 SWAP1 PUSH2 0x1ED5 JUMP JUMPDEST PUSH1 0x40 MLOAD DUP1 SWAP2 SUB SWAP1 LOG1 POP POP POP SWAP2 POP SWAP2 JUMP JUMPDEST PUSH0 PUSH1 0x12 SWAP1 POP SWAP1 JUMP JUMPDEST PUSH0 DUP1 PUSH2 0x7E5 PUSH2 0x166B JUMP JUMPDEST SWAP1 POP PUSH0 DUP1 SHL DUP2 SUB PUSH2 0x802 JUMPI PUSH2 0x7F8 PUSH2 0x474 JUMP JUMPDEST DUP1 MLOAD SWAP1 PUSH1 0x20 ADD KECCAK256 SWAP1 POP JUMPDEST PUSH1 0x40 MLOAD PUSH32 0x8B73C3C69BB8FE3D512ECC4CF759CC79239F7B179B0FFACAA9A75D522B39400F DUP2 MSTORE DUP2 PUSH1 0x20 DUP3 ADD MSTORE PUSH32 0xC89EFDAA54C0F20C7ADF612882DF0950F5A951637E0307CDCB4C672F298B8BC6 PUSH1 0x40 DUP3 ADD MSTORE CHAINID PUSH1 0x60 DUP3 ADD MSTORE ADDRESS PUSH1 0x80 DUP3 ADD MSTORE PUSH1 0xA0 DUP2 KECCAK256 SWAP3 POP POP POP SWAP1 JUMP JUMPDEST PUSH1 0x1E DUP2 JUMP JUMPDEST PUSH0 PUSH1 0x1 DUP3 GT PUSH2 0x881 JUMPI DUP2 SWAP1 POP PUSH2 0xA05 JUMP JUMPDEST PUSH0 DUP3 SWAP1 POP PUSH0 PUSH1 0x1 SWAP1 POP PUSH17 0x100000000000000000000000000000000 DUP3 LT PUSH2 0x8B1 JUMPI PUSH1 0x80 DUP3 SWAP1 SHR SWAP2 POP PUSH1 0x40 DUP2 SWAP1 SHL SWAP1 POP JUMPDEST PUSH9 0x10000000000000000 DUP3 LT PUSH2 0x8D0 JUMPI PUSH1 0x40 DUP3 SWAP1 SHR SWAP2 POP PUSH1 0x20 DUP2 SWAP1 SHL SWAP1 POP JUMPDEST PUSH5 0x100000000 DUP3 LT PUSH2 0x8EB JUMPI PUSH1 0x20 DUP3 SWAP1 SHR SWAP2 POP PUSH1 0x10 DUP2 SWAP1 SHL SWAP1 POP JUMPDEST PUSH3 0x10000 DUP3 LT PUSH2 0x904 JUMPI PUSH1 0x10 DUP3 SWAP1 SHR SWAP2 POP PUSH1 0x8 DUP2 SWAP1 SHL SWAP1 POP JUMPDEST PUSH2 0x100 DUP3 LT PUSH2 0x91C JUMPI PUSH1 0x8 DUP3 SWAP1 SHR SWAP2 POP PUSH1 0x4 DUP2 SWAP1 SHL SWAP1 POP JUMPDEST PUSH1 0x10 DUP3 LT PUSH2 0x933 JUMPI PUSH1 0x4 DUP3 SWAP1 SHR SWAP2 POP PUSH1 0x2 DUP2 SWAP1 SHL SWAP1 POP JUMPDEST PUSH1 0x4 DUP3 LT PUSH2 0x943 JUMPI PUSH1 0x1 DUP2 SWAP1 SHL SWAP1 POP JUMPDEST PUSH1 0x1 DUP2 PUSH1 0x3 MUL SWAP1 SHR SWAP1 POP PUSH1 0x1 DUP2 DUP6 DUP2 PUSH2 0x95F JUMPI PUSH2 0x95E PUSH2 0x1E45 JUMP JUMPDEST JUMPDEST DIV DUP3 ADD SWAP1 SHR SWAP1 POP PUSH1 0x1 DUP2 DUP6 DUP2 PUSH2 0x978 JUMPI PUSH2 0x977 PUSH2 0x1E45 JUMP JUMPDEST JUMPDEST DIV DUP3 ADD SWAP1 SHR SWAP1 POP PUSH1 0x1 DUP2 DUP6 DUP2 PUSH2 0x991 JUMPI PUSH2 0x990 PUSH2 0x1E45 JUMP JUMPDEST JUMPDEST DIV DUP3 ADD SWAP1 SHR SWAP1 POP PUSH1 0x1 DUP2 DUP6 DUP2 PUSH2 0x9AA JUMPI PUSH2 0x9A9 PUSH2 0x1E45 JUMP JUMPDEST JUMPDEST DIV DUP3 ADD SWAP1 SHR SWAP1 POP PUSH1 0x1 DUP2 DUP6 DUP2 PUSH2 0x9C3 JUMPI PUSH2 0x9C2 PUSH2 0x1E45 JUMP JUMPDEST JUMPDEST DIV DUP3 ADD SWAP1 SHR SWAP1 POP PUSH1 0x1 DUP2 DUP6 DUP2 PUSH2 0x9DC JUMPI PUSH2 0x9DB PUSH2 0x1E45 JUMP JUMPDEST JUMPDEST DIV DUP3 ADD SWAP1 SHR SWAP1 POP PUSH2 0x9FE DUP2 DUP6 DUP2 PUSH2 0x9F6 JUMPI PUSH2 0x9F5 PUSH2 0x1E45 JUMP JUMPDEST JUMPDEST DIV DUP3 GT PUSH2 0x166F JUMP JUMPDEST DUP2 SUB SWAP3 POP POP POP JUMPDEST SWAP2 SWAP1 POP JUMP JUMPDEST PUSH0 PUSH4 0x87A211A2 PUSH1 0xC MSTORE DUP2 PUSH0 MSTORE PUSH1 0x20 PUSH1 0xC KECCAK256 SLOAD SWAP1 POP SWAP2 SWAP1 POP JUMP JUMPDEST PUSH1 0x2 SLOAD DUP2 JUMP JUMPDEST PUSH0 PUSH4 0x38377508 PUSH1 0xC MSTORE DUP2 PUSH0 MSTORE PUSH1 0x20 PUSH1 0xC KECCAK256 SLOAD SWAP1 POP SWAP2 SWAP1 POP JUMP JUMPDEST PUSH0 DUP3 PUSH1 0x3 PUSH0 SWAP1 SLOAD SWAP1 PUSH2 0x100 EXP SWAP1 DIV PUSH20 0xFFFFFFFFFFFFFFFFFFFFFFFFFFFFFFFFFFFFFFFF AND PUSH20 0xFFFFFFFFFFFFFFFFFFFFFFFFFFFFFFFFFFFFFFFF AND DUP2 PUSH20 0xFFFFFFFFFFFFFFFFFFFFFFFFFFFFFFFFFFFFFFFF AND EQ ISZERO DUP1 ISZERO PUSH2 0xAEE JUMPI POP PUSH1 0x4 PUSH0 SWAP1 SLOAD SWAP1 PUSH2 0x100 EXP SWAP1 DIV PUSH20 0xFFFFFFFFFFFFFFFFFFFFFFFFFFFFFFFFFFFFFFFF AND PUSH20 0xFFFFFFFFFFFFFFFFFFFFFFFFFFFFFFFFFFFFFFFF AND DUP2 PUSH20 0xFFFFFFFFFFFFFFFFFFFFFFFFFFFFFFFFFFFFFFFF AND EQ ISZERO JUMPDEST ISZERO PUSH2 0xB25 JUMPI PUSH1 0x40 MLOAD PUSH32 0x82BCE52600000000000000000000000000000000000000000000000000000000 DUP2 MSTORE PUSH1 0x4 ADD PUSH1 0x40 MLOAD DUP1 SWAP2 SUB SWAP1 REVERT JUMPDEST PUSH0 DUP4 SUB PUSH2 0xB5E JUMPI PUSH1 0x40 MLOAD PUSH32 0x8966F48700000000000000000000000000000000000000000000000000000000 DUP2 MSTORE PUSH1 0x4 ADD PUSH1 0x40 MLOAD DUP1 SWAP2 SUB SWAP1 REVERT JUMPDEST PUSH2 0xB68 DUP5 DUP5 PUSH2 0x167A JUMP JUMPDEST SWAP2 POP POP SWAP3 SWAP2 POP POP JUMP JUMPDEST PUSH1 0x60 PUSH0 DUP1 SLOAD PUSH2 0xB7F SWAP1 PUSH2 0x1CF2 JUMP JUMPDEST DUP1 PUSH1 0x1F ADD PUSH1 0x20 DUP1 SWAP2 DIV MUL PUSH1 0x20 ADD PUSH1 0x40 MLOAD SWAP1 DUP2 ADD PUSH1 0x40 MSTORE DUP1 SWAP3 SWAP2 SWAP1 DUP2 DUP2 MSTORE PUSH1 0x20 ADD DUP3 DUP1 SLOAD PUSH2 0xBAB SWAP1 PUSH2 0x1CF2 JUMP JUMPDEST DUP1 ISZERO PUSH2 0xBF6 JUMPI DUP1 PUSH1 0x1F LT PUSH2 0xBCD JUMPI PUSH2 0x100 DUP1 DUP4 SLOAD DIV MUL DUP4 MSTORE SWAP2 PUSH1 0x20 ADD SWAP2 PUSH2 0xBF6 JUMP JUMPDEST DUP3 ADD SWAP2 SWAP1 PUSH0 MSTORE PUSH1 0x20 PUSH0 KECCAK256 SWAP1 JUMPDEST DUP2 SLOAD DUP2 MSTORE SWAP1 PUSH1 0x1 ADD SWAP1 PUSH1 0x20 ADD DUP1 DUP4 GT PUSH2 0xBD9 JUMPI DUP3 SWAP1 SUB PUSH1 0x1F AND DUP3 ADD SWAP2 JUMPDEST POP POP POP POP POP SWAP1 POP SWAP1 JUMP JUMPDEST PUSH0 PUSH2 0xC0C CALLER DUP5 DUP5 PUSH2 0x13DF JUMP JUMPDEST PUSH4 0x87A211A2 PUSH1 0xC MSTORE CALLER PUSH0 MSTORE PUSH1 0x20 PUSH1 0xC KECCAK256 DUP1 SLOAD DUP1 DUP5 GT ISZERO PUSH2 0xC33 JUMPI PUSH4 0xF4D678B8 PUSH0 MSTORE PUSH1 0x4 PUSH1 0x1C REVERT JUMPDEST DUP4 DUP2 SUB DUP3 SSTORE DUP5 PUSH0 MSTORE PUSH1 0x20 PUSH1 0xC KECCAK256 DUP5 DUP2 SLOAD ADD DUP2 SSTORE DUP5 PUSH1 0x20 MSTORE PUSH1 0xC MLOAD PUSH1 0x60 SHR CALLER PUSH32 0xDDF252AD1BE2C89B69C2B068FC378DAA952BA7F163C4A11628F55A4DF523B3EF PUSH1 0x20 DUP1 LOG3 POP POP POP PUSH2 0xC84 CALLER DUP5 DUP5 PUSH2 0x13E4 JUMP JUMPDEST PUSH1 0x1 SWAP1 POP SWAP3 SWAP2 POP POP JUMP JUMPDEST PUSH1 0x1 PUSH0 SWAP1 SLOAD SWAP1 PUSH2 0x100 EXP SWAP1 DIV PUSH20 0xFFFFFFFFFFFFFFFFFFFFFFFFFFFFFFFFFFFFFFFF AND DUP2 JUMP JUMPDEST PUSH0 DUP3 PUSH1 0x3 PUSH0 SWAP1 SLOAD SWAP1 PUSH2 0x100 EXP SWAP1 DIV PUSH20 0xFFFFFFFFFFFFFFFFFFFFFFFFFFFFFFFFFFFFFFFF AND PUSH20 0xFFFFFFFFFFFFFFFFFFFFFFFFFFFFFFFFFFFFFFFF AND DUP2 PUSH20 0xFFFFFFFFFFFFFFFFFFFFFFFFFFFFFFFFFFFFFFFF AND EQ ISZERO DUP1 ISZERO PUSH2 0xD5F JUMPI POP PUSH1 0x4 PUSH0 SWAP1 SLOAD SWAP1 PUSH2 0x100 EXP SWAP1 DIV PUSH20 0xFFFFFFFFFFFFFFFFFFFFFFFFFFFFFFFFFFFFFFFF AND PUSH20 0xFFFFFFFFFFFFFFFFFFFFFFFFFFFFFFFFFFFFFFFF AND DUP2 PUSH20 0xFFFFFFFFFFFFFFFFFFFFFFFFFFFFFFFFFFFFFFFF AND EQ ISZERO JUMPDEST ISZERO PUSH2 0xD96 JUMPI PUSH1 0x40 MLOAD PUSH32 0x82BCE52600000000000000000000000000000000000000000000000000000000 DUP2 MSTORE PUSH1 0x4 ADD PUSH1 0x40 MLOAD DUP1 SWAP2 SUB SWAP1 REVERT JUMPDEST PUSH0 PUSH1 0x3 PUSH0 SWAP1 SLOAD SWAP1 PUSH2 0x100 EXP SWAP1 DIV PUSH20 0xFFFFFFFFFFFFFFFFFFFFFFFFFFFFFFFFFFFFFFFF AND SWAP1 POP PUSH0 PUSH1 0x4 PUSH0 SWAP1 SLOAD SWAP1 PUSH2 0x100 EXP SWAP1 DIV PUSH20 0xFFFFFFFFFFFFFFFFFFFFFFFFFFFFFFFFFFFFFFFF AND SWAP1 POP PUSH0 DUP6 SUB PUSH2 0xE19 JUMPI PUSH1 0x40 MLOAD PUSH32 0x8966F48700000000000000000000000000000000000000000000000000000000 DUP2 MSTORE PUSH1 0x4 ADD PUSH1 0x40 MLOAD DUP1 SWAP2 SUB SWAP1 REVERT JUMPDEST PUSH2 0xE23 DUP7 DUP7 PUSH2 0x167A JUMP JUMPDEST SWAP4 POP PUSH0 DUP3 PUSH20 0xFFFFFFFFFFFFFFFFFFFFFFFFFFFFFFFFFFFFFFFF AND DUP8 PUSH20 0xFFFFFFFFFFFFFFFFFFFFFFFFFFFFFFFFFFFFFFFF AND EQ PUSH2 0xE5F JUMPI DUP3 PUSH2 0xE61 JUMP JUMPDEST DUP2 JUMPDEST SWAP1 POP DUP5 PUSH1 0x2 DUP3 PUSH20 0xFFFFFFFFFFFFFFFFFFFFFFFFFFFFFFFFFFFFFFFF AND PUSH4 0x70A08231 ADDRESS PUSH1 0x40 MLOAD DUP3 PUSH4 0xFFFFFFFF AND PUSH1 0xE0 SHL DUP2 MSTORE PUSH1 0x4 ADD PUSH2 0xE9F SWAP2 SWAP1 PUSH2 0x1B05 JUMP JUMPDEST PUSH1 0x20 PUSH1 0x40 MLOAD DUP1 DUP4 SUB DUP2 DUP7 GAS STATICCALL ISZERO DUP1 ISZERO PUSH2 0xEBA JUMPI RETURNDATASIZE PUSH0 DUP1 RETURNDATACOPY RETURNDATASIZE PUSH0 REVERT JUMPDEST POP POP POP POP PUSH1 0x40 MLOAD RETURNDATASIZE PUSH1 0x1F NOT PUSH1 0x1F DUP3 ADD AND DUP3 ADD DUP1 PUSH1 0x40 MSTORE POP DUP2 ADD SWAP1 PUSH2 0xEDE SWAP2 SWAP1 PUSH2 0x1F2C JUMP JUMPDEST PUSH2 0xEE8 SWAP2 SWAP1 PUSH2 0x1E72 JUMP JUMPDEST LT ISZERO PUSH2 0xF20 JUMPI PUSH1 0x40 MLOAD PUSH32 0x8CAB1F2800000000000000000000000000000000000000000000000000000000 DUP2 MSTORE PUSH1 0x4 ADD PUSH1 0x40 MLOAD DUP1 SWAP2 SUB SWAP1 REVERT JUMPDEST PUSH2 0xF2C DUP8 CALLER ADDRESS DUP10 PUSH2 0x151D JUMP JUMPDEST PUSH0 PUSH2 0x2710 PUSH1 0x1E DUP8 PUSH2 0xF3D SWAP2 SWAP1 PUSH2 0x1E04 JUMP JUMPDEST PUSH2 0xF47 SWAP2 SWAP1 PUSH2 0x1E72 JUMP JUMPDEST SWAP1 POP PUSH2 0xF55 DUP3 ADDRESS CALLER DUP5 PUSH2 0x151D JUMP JUMPDEST DUP4 PUSH20 0xFFFFFFFFFFFFFFFFFFFFFFFFFFFFFFFFFFFFFFFF AND DUP3 PUSH20 0xFFFFFFFFFFFFFFFFFFFFFFFFFFFFFFFFFFFFFFFF AND SUB PUSH2 0xFBD JUMPI DUP6 PUSH1 0x5 PUSH0 DUP3 DUP3 SLOAD PUSH2 0xF99 SWAP2 SWAP1 PUSH2 0x1EA2 JUMP JUMPDEST SWAP3 POP POP DUP2 SWAP1 SSTORE POP DUP7 PUSH1 0x6 PUSH0 DUP3 DUP3 SLOAD PUSH2 0xFB1 SWAP2 SWAP1 PUSH2 0x1F57 JUMP JUMPDEST SWAP3 POP POP DUP2 SWAP1 SSTORE POP PUSH2 0xFEE JUMP JUMPDEST DUP7 PUSH1 0x5 PUSH0 DUP3 DUP3 SLOAD PUSH2 0xFCE SWAP2 SWAP1 PUSH2 0x1F57 JUMP JUMPDEST SWAP3 POP POP DUP2 SWAP1 SSTORE POP DUP6 PUSH1 0x6 PUSH0 DUP3 DUP3 SLOAD PUSH2 0xFE6 SWAP2 SWAP1 PUSH2 0x1EA2 JUMP JUMPDEST SWAP3 POP POP DUP2 SWAP1 SSTORE POP JUMPDEST PUSH32 0xFA2DDA1CC1B86E41239702756B13EFFBC1A092B5C57E3AD320FBE4F3B13FE235 DUP3 DUP10 DUP4 DUP10 PUSH1 0x40 MLOAD PUSH2 0x1023 SWAP5 SWAP4 SWAP3 SWAP2 SWAP1 PUSH2 0x1F8A JUMP JUMPDEST PUSH1 0x40 MLOAD DUP1 SWAP2 SUB SWAP1 LOG1 POP POP POP POP POP SWAP3 SWAP2 POP POP JUMP JUMPDEST PUSH0 PUSH2 0x103F PUSH2 0x166B JUMP JUMPDEST SWAP1 POP PUSH0 DUP1 SHL DUP2 SUB PUSH2 0x105C JUMPI PUSH2 0x1052 PUSH2 0x474 JUMP JUMPDEST DUP1 MLOAD SWAP1 PUSH1 0x20 ADD KECCAK256 SWAP1 POP JUMPDEST DUP5 TIMESTAMP GT ISZERO PUSH2 0x1071 JUMPI PUSH4 0x1A15A3CC PUSH0 MSTORE PUSH1 0x4 PUSH1 0x1C REVERT JUMPDEST PUSH1 0x40 MLOAD DUP9 PUSH1 0x60 SHL PUSH1 0x60 SHR SWAP9 POP DUP8 PUSH1 0x60 SHL PUSH1 0x60 SHR SWAP8 POP PUSH6 0x383775081901 PUSH1 0xE MSTORE DUP9 PUSH0 MSTORE PUSH1 0x20 PUSH1 0xC KECCAK256 DUP1 SLOAD PUSH32 0x8B73C3C69BB8FE3D512ECC4CF759CC79239F7B179B0FFACAA9A75D522B39400F DUP4 MSTORE DUP4 PUSH1 0x20 DUP5 ADD MSTORE PUSH32 0xC89EFDAA54C0F20C7ADF612882DF0950F5A951637E0307CDCB4C672F298B8BC6 PUSH1 0x40 DUP5 ADD MSTORE CHAINID PUSH1 0x60 DUP5 ADD MSTORE ADDRESS PUSH1 0x80 DUP5 ADD MSTORE PUSH1 0xA0 DUP4 KECCAK256 PUSH1 0x2E MSTORE PUSH32 0x6E71EDAE12B1B97F4D1F60370FEF10105FA2FAAE0126114A169C64845D6126C9 DUP4 MSTORE DUP11 PUSH1 0x20 DUP5 ADD MSTORE DUP10 PUSH1 0x40 DUP5 ADD MSTORE DUP9 PUSH1 0x60 DUP5 ADD MSTORE DUP1 PUSH1 0x80 DUP5 ADD MSTORE DUP8 PUSH1 0xA0 DUP5 ADD MSTORE PUSH1 0xC0 DUP4 KECCAK256 PUSH1 0x4E MSTORE PUSH1 0x42 PUSH1 0x2C KECCAK256 PUSH0 MSTORE DUP7 PUSH1 0xFF AND PUSH1 0x20 MSTORE DUP6 PUSH1 0x40 MSTORE DUP5 PUSH1 0x60 MSTORE PUSH1 0x20 DUP1 PUSH1 0x80 PUSH0 PUSH1 0x1 GAS STATICCALL DUP12 RETURNDATASIZE MLOAD EQ PUSH2 0x1179 JUMPI PUSH4 0xDDAFBAEF PUSH0 MSTORE PUSH1 0x4 PUSH1 0x1C REVERT JUMPDEST DUP1 DUP3 ADD DUP4 SSTORE DUP11 PUSH4 0x7F5E9F20 PUSH1 0xA0 SHL OR PUSH1 0x40 MSTORE DUP10 PUSH1 0x34 PUSH1 0x2C KECCAK256 SSTORE DUP11 DUP13 PUSH32 0x8C5BE1E5EBEC7D5BD14F71427D1E84F3DD0314C0F7B2291E5B200AC8C7C3B925 PUSH1 0x20 PUSH1 0x60 DUP9 ADD LOG3 DUP4 PUSH1 0x40 MSTORE PUSH0 PUSH1 0x60 MSTORE POP POP POP POP POP POP POP POP POP POP POP POP JUMP JUMPDEST PUSH0 DUP2 PUSH1 0x20 MSTORE PUSH4 0x7F5E9F20 PUSH1 0xC MSTORE DUP3 PUSH0 MSTORE PUSH1 0x34 PUSH1 0xC KECCAK256 SLOAD SWAP1 POP SWAP3 SWAP2 POP POP JUMP JUMPDEST PUSH0 DUP1 PUSH2 0x11FA PUSH2 0x527 JUMP JUMPDEST SWAP1 POP PUSH0 DUP1 PUSH1 0x5 SLOAD PUSH1 0x6 SLOAD SWAP2 POP SWAP2 POP PUSH2 0x1235 PUSH1 0x3 PUSH0 SWAP1 SLOAD SWAP1 PUSH2 0x100 EXP SWAP1 DIV PUSH20 0xFFFFFFFFFFFFFFFFFFFFFFFFFFFFFFFFFFFFFFFF AND CALLER ADDRESS DUP10 PUSH2 0x151D JUMP JUMPDEST PUSH2 0x1262 PUSH1 0x4 PUSH0 SWAP1 SLOAD SWAP1 PUSH2 0x100 EXP SWAP1 DIV PUSH20 0xFFFFFFFFFFFFFFFFFFFFFFFFFFFFFFFFFFFFFFFF AND CALLER ADDRESS DUP9 PUSH2 0x151D JUMP JUMPDEST PUSH2 0x126C DUP3 DUP3 PUSH2 0x13E9 JUMP JUMPDEST PUSH0 DUP4 SUB PUSH2 0x12A7 JUMPI PUSH2 0x3E8 PUSH2 0x128A DUP7 DUP9 PUSH2 0x1285 SWAP2 SWAP1 PUSH2 0x1E04 JUMP JUMPDEST PUSH2 0x870 JUMP JUMPDEST PUSH2 0x1294 SWAP2 SWAP1 PUSH2 0x1EA2 JUMP JUMPDEST SWAP4 POP PUSH2 0x12A2 PUSH0 PUSH2 0x3E8 PUSH2 0x1746 JUMP JUMPDEST PUSH2 0x1349 JUMP JUMPDEST PUSH0 PUSH2 0x12D3 PUSH1 0x3 PUSH0 SWAP1 SLOAD SWAP1 PUSH2 0x100 EXP SWAP1 DIV PUSH20 0xFFFFFFFFFFFFFFFFFFFFFFFFFFFFFFFFFFFFFFFF AND DUP9 PUSH2 0x167A JUMP JUMPDEST SWAP1 POP DUP6 DUP2 LT ISZERO PUSH2 0x130F JUMPI PUSH1 0x40 MLOAD PUSH32 0x2CD294CF00000000000000000000000000000000000000000000000000000000 DUP2 MSTORE PUSH1 0x4 ADD PUSH1 0x40 MLOAD DUP1 SWAP2 SUB SWAP1 REVERT JUMPDEST PUSH2 0x1345 DUP4 DUP6 DUP10 PUSH2 0x131F SWAP2 SWAP1 PUSH2 0x1E04 JUMP JUMPDEST PUSH2 0x1329 SWAP2 SWAP1 PUSH2 0x1E72 JUMP JUMPDEST DUP4 DUP7 DUP10 PUSH2 0x1336 SWAP2 SWAP1 PUSH2 0x1E04 JUMP JUMPDEST PUSH2 0x1340 SWAP2 SWAP1 PUSH2 0x1E72 JUMP JUMPDEST PUSH2 0x17D8 JUMP JUMPDEST SWAP5 POP POP JUMPDEST PUSH2 0x1353 CALLER DUP6 PUSH2 0x1746 JUMP JUMPDEST DUP6 PUSH1 0x5 PUSH0 DUP3 DUP3 SLOAD PUSH2 0x1364 SWAP2 SWAP1 PUSH2 0x1F57 JUMP JUMPDEST SWAP3 POP POP DUP2 SWAP1 SSTORE POP DUP5 PUSH1 0x6 PUSH0 DUP3 DUP3 SLOAD PUSH2 0x137C SWAP2 SWAP1 PUSH2 0x1F57 JUMP JUMPDEST SWAP3 POP POP DUP2 SWAP1 SSTORE POP PUSH1 0x6 SLOAD PUSH1 0x5 SLOAD PUSH2 0x1393 SWAP2 SWAP1 PUSH2 0x1E04 JUMP JUMPDEST PUSH1 0x2 DUP2 SWAP1 SSTORE POP PUSH32 0x36AF321EC8D3C75236829C5317AFFD40DDB308863A1236D2D277A4025CCCEE1E ADDRESS DUP6 DUP9 DUP9 PUSH1 0x40 MLOAD PUSH2 0x13CE SWAP5 SWAP4 SWAP3 SWAP2 SWAP1 PUSH2 0x1ED5 JUMP JUMPDEST PUSH1 0x40 MLOAD DUP1 SWAP2 SUB SWAP1 LOG1 POP POP POP SWAP3 SWAP2 POP POP JUMP JUMPDEST POP POP POP JUMP JUMPDEST POP POP POP JUMP JUMPDEST PUSH0 PUSH1 0x1 PUSH0 SWAP1 SLOAD SWAP1 PUSH2 0x100 EXP SWAP1 DIV PUSH20 0xFFFFFFFFFFFFFFFFFFFFFFFFFFFFFFFFFFFFFFFF AND PUSH20 0xFFFFFFFFFFFFFFFFFFFFFFFFFFFFFFFFFFFFFFFF AND PUSH4 0x85BF3B9 PUSH1 0x40 MLOAD DUP2 PUSH4 0xFFFFFFFF AND PUSH1 0xE0 SHL DUP2 MSTORE PUSH1 0x4 ADD PUSH1 0x20 PUSH1 0x40 MLOAD DUP1 DUP4 SUB DUP2 DUP7 GAS STATICCALL ISZERO DUP1 ISZERO PUSH2 0x1454 JUMPI RETURNDATASIZE PUSH0 DUP1 RETURNDATACOPY RETURNDATASIZE PUSH0 REVERT JUMPDEST POP POP POP POP PUSH1 0x40 MLOAD RETURNDATASIZE PUSH1 0x1F NOT PUSH1 0x1F DUP3 ADD AND DUP3 ADD DUP1 PUSH1 0x40 MSTORE POP DUP2 ADD SWAP1 PUSH2 0x1478 SWAP2 SWAP1 PUSH2 0x1FE1 JUMP JUMPDEST SWAP1 POP PUSH0 PUSH1 0x2 SLOAD SWAP1 POP PUSH0 DUP2 EQ PUSH2 0x1517 JUMPI PUSH0 PUSH2 0x149C DUP5 DUP7 PUSH2 0x1497 SWAP2 SWAP1 PUSH2 0x1E04 JUMP JUMPDEST PUSH2 0x870 JUMP JUMPDEST SWAP1 POP PUSH0 PUSH2 0x14A8 DUP4 PUSH2 0x870 JUMP JUMPDEST SWAP1 POP DUP1 DUP3 GT ISZERO PUSH2 0x1514 JUMPI PUSH0 DUP2 DUP4 PUSH2 0x14BF SWAP2 SWAP1 PUSH2 0x1EA2 JUMP JUMPDEST PUSH2 0x14C7 PUSH2 0x527 JUMP JUMPDEST PUSH2 0x14D1 SWAP2 SWAP1 PUSH2 0x1E04 JUMP JUMPDEST SWAP1 POP PUSH0 DUP3 PUSH1 0x5 DUP6 PUSH2 0x14E2 SWAP2 SWAP1 PUSH2 0x1E04 JUMP JUMPDEST PUSH2 0x14EC SWAP2 SWAP1 PUSH2 0x1F57 JUMP JUMPDEST SWAP1 POP PUSH0 DUP2 DUP4 PUSH2 0x14FB SWAP2 SWAP1 PUSH2 0x1E72 JUMP JUMPDEST SWAP1 POP PUSH0 DUP2 GT ISZERO PUSH2 0x1510 JUMPI PUSH2 0x150F DUP8 DUP3 PUSH2 0x1746 JUMP JUMPDEST JUMPDEST POP POP POP JUMPDEST POP POP JUMPDEST POP POP POP POP JUMP JUMPDEST PUSH0 DUP5 PUSH20 0xFFFFFFFFFFFFFFFFFFFFFFFFFFFFFFFFFFFFFFFF AND PUSH4 0x23B872DD DUP6 DUP6 DUP6 PUSH1 0x40 MLOAD DUP5 PUSH4 0xFFFFFFFF AND PUSH1 0xE0 SHL DUP2 MSTORE PUSH1 0x4 ADD PUSH2 0x155B SWAP4 SWAP3 SWAP2 SWAP1 PUSH2 0x200C JUMP JUMPDEST PUSH1 0x20 PUSH1 0x40 MLOAD DUP1 DUP4 SUB DUP2 PUSH0 DUP8 GAS CALL ISZERO DUP1 ISZERO PUSH2 0x1577 JUMPI RETURNDATASIZE PUSH0 DUP1 RETURNDATACOPY RETURNDATASIZE PUSH0 REVERT JUMPDEST POP POP POP POP PUSH1 0x40 MLOAD RETURNDATASIZE PUSH1 0x1F NOT PUSH1 0x1F DUP3 ADD AND DUP3 ADD DUP1 PUSH1 0x40 MSTORE POP DUP2 ADD SWAP1 PUSH2 0x159B SWAP2 SWAP1 PUSH2 0x206B JUMP JUMPDEST SWAP1 POP DUP1 PUSH2 0x15D4 JUMPI PUSH1 0x40 MLOAD PUSH32 0x3F4AB80E00000000000000000000000000000000000000000000000000000000 DUP2 MSTORE PUSH1 0x4 ADD PUSH1 0x40 MLOAD DUP1 SWAP2 SUB SWAP1 REVERT JUMPDEST POP POP POP POP POP JUMP JUMPDEST PUSH2 0x15E6 DUP3 PUSH0 DUP4 PUSH2 0x13DF JUMP JUMPDEST PUSH4 0x87A211A2 PUSH1 0xC MSTORE DUP2 PUSH0 MSTORE PUSH1 0x20 PUSH1 0xC KECCAK256 DUP1 SLOAD DUP1 DUP4 GT ISZERO PUSH2 0x160D JUMPI PUSH4 0xF4D678B8 PUSH0 MSTORE PUSH1 0x4 PUSH1 0x1C REVERT JUMPDEST DUP3 DUP2 SUB DUP3 SSTORE DUP3 PUSH9 0x5345CDF77EB68F44C SLOAD SUB PUSH9 0x5345CDF77EB68F44C SSTORE DUP3 PUSH0 MSTORE PUSH0 DUP5 PUSH1 0x60 SHL PUSH1 0x60 SHR PUSH32 0xDDF252AD1BE2C89B69C2B068FC378DAA952BA7F163C4A11628F55A4DF523B3EF PUSH1 0x20 PUSH0 LOG3 POP POP PUSH2 0x1667 DUP3 PUSH0 DUP4 PUSH2 0x13E4 JUMP JUMPDEST POP POP JUMP JUMPDEST PUSH0 SWAP1 JUMP JUMPDEST PUSH0 DUP2 ISZERO ISZERO SWAP1 POP SWAP2 SWAP1 POP JUMP JUMPDEST PUSH0 DUP1 PUSH1 0x3 PUSH0 SWAP1 SLOAD SWAP1 PUSH2 0x100 EXP SWAP1 DIV PUSH20 0xFFFFFFFFFFFFFFFFFFFFFFFFFFFFFFFFFFFFFFFF AND SWAP1 POP PUSH0 DUP2 PUSH20 0xFFFFFFFFFFFFFFFFFFFFFFFFFFFFFFFFFFFFFFFF AND DUP6 PUSH20 0xFFFFFFFFFFFFFFFFFFFFFFFFFFFFFFFFFFFFFFFF AND EQ PUSH2 0x16DC JUMPI PUSH1 0x6 SLOAD PUSH2 0x16E0 JUMP JUMPDEST PUSH1 0x5 SLOAD JUMPDEST SWAP1 POP PUSH0 DUP3 PUSH20 0xFFFFFFFFFFFFFFFFFFFFFFFFFFFFFFFFFFFFFFFF AND DUP7 PUSH20 0xFFFFFFFFFFFFFFFFFFFFFFFFFFFFFFFFFFFFFFFF AND EQ PUSH2 0x171E JUMPI PUSH1 0x5 SLOAD PUSH2 0x1722 JUMP JUMPDEST PUSH1 0x6 SLOAD JUMPDEST SWAP1 POP DUP1 DUP6 DUP4 PUSH2 0x1731 SWAP2 SWAP1 PUSH2 0x1E04 JUMP JUMPDEST PUSH2 0x173B SWAP2 SWAP1 PUSH2 0x1E72 JUMP JUMPDEST SWAP4 POP POP POP POP SWAP3 SWAP2 POP POP JUMP JUMPDEST PUSH2 0x1751 PUSH0 DUP4 DUP4 PUSH2 0x13DF JUMP JUMPDEST PUSH9 0x5345CDF77EB68F44C SLOAD DUP2 DUP2 ADD DUP2 DUP2 LT ISZERO PUSH2 0x1774 JUMPI PUSH4 0xE5CFE957 PUSH0 MSTORE PUSH1 0x4 PUSH1 0x1C REVERT JUMPDEST DUP1 PUSH9 0x5345CDF77EB68F44C SSTORE PUSH4 0x87A211A2 PUSH1 0xC MSTORE DUP4 PUSH0 MSTORE PUSH1 0x20 PUSH1 0xC KECCAK256 DUP4 DUP2 SLOAD ADD DUP2 SSTORE DUP4 PUSH1 0x20 MSTORE PUSH1 0xC MLOAD PUSH1 0x60 SHR PUSH0 PUSH32 0xDDF252AD1BE2C89B69C2B068FC378DAA952BA7F163C4A11628F55A4DF523B3EF PUSH1 0x20 DUP1 LOG3 POP POP POP PUSH2 0x17D4 PUSH0 DUP4 DUP4 PUSH2 0x13E4 JUMP JUMPDEST POP POP JUMP JUMPDEST PUSH0 DUP2 DUP4 LT PUSH2 0x17E6 JUMPI DUP2 PUSH2 0x17E8 JUMP JUMPDEST DUP3 JUMPDEST SWAP1 POP SWAP3 SWAP2 POP POP JUMP JUMPDEST PUSH0 DUP2 MLOAD SWAP1 POP SWAP2 SWAP1 POP JUMP JUMPDEST PUSH0 DUP3 DUP3 MSTORE PUSH1 0x20 DUP3 ADD SWAP1 POP SWAP3 SWAP2 POP POP JUMP JUMPDEST PUSH0 JUMPDEST DUP4 DUP2 LT ISZERO PUSH2 0x1827 JUMPI DUP1 DUP3 ADD MLOAD DUP2 DUP5 ADD MSTORE PUSH1 0x20 DUP2 ADD SWAP1 POP PUSH2 0x180C JUMP JUMPDEST PUSH0 DUP5 DUP5 ADD MSTORE POP POP POP POP JUMP JUMPDEST PUSH0 PUSH1 0x1F NOT PUSH1 0x1F DUP4 ADD AND SWAP1 POP SWAP2 SWAP1 POP JUMP JUMPDEST PUSH0 PUSH2 0x184C DUP3 PUSH2 0x17F0 JUMP JUMPDEST PUSH2 0x1856 DUP2 DUP6 PUSH2 0x17FA JUMP JUMPDEST SWAP4 POP PUSH2 0x1866 DUP2 DUP6 PUSH1 0x20 DUP7 ADD PUSH2 0x180A JUMP JUMPDEST PUSH2 0x186F DUP2 PUSH2 0x1832 JUMP JUMPDEST DUP5 ADD SWAP2 POP POP SWAP3 SWAP2 POP POP JUMP JUMPDEST PUSH0 PUSH1 0x20 DUP3 ADD SWAP1 POP DUP2 DUP2 SUB PUSH0 DUP4 ADD MSTORE PUSH2 0x1892 DUP2 DUP5 PUSH2 0x1842 JUMP JUMPDEST SWAP1 POP SWAP3 SWAP2 POP POP JUMP JUMPDEST PUSH0 DUP1 REVERT JUMPDEST PUSH0 PUSH20 0xFFFFFFFFFFFFFFFFFFFFFFFFFFFFFFFFFFFFFFFF DUP3 AND SWAP1 POP SWAP2 SWAP1 POP JUMP JUMPDEST PUSH0 PUSH2 0x18C7 DUP3 PUSH2 0x189E JUMP JUMPDEST SWAP1 POP SWAP2 SWAP1 POP JUMP JUMPDEST PUSH2 0x18D7 DUP2 PUSH2 0x18BD JUMP JUMPDEST DUP2 EQ PUSH2 0x18E1 JUMPI PUSH0 DUP1 REVERT JUMPDEST POP JUMP JUMPDEST PUSH0 DUP2 CALLDATALOAD SWAP1 POP PUSH2 0x18F2 DUP2 PUSH2 0x18CE JUMP JUMPDEST SWAP3 SWAP2 POP POP JUMP JUMPDEST PUSH0 DUP2 SWAP1 POP SWAP2 SWAP1 POP JUMP JUMPDEST PUSH2 0x190A DUP2 PUSH2 0x18F8 JUMP JUMPDEST DUP2 EQ PUSH2 0x1914 JUMPI PUSH0 DUP1 REVERT JUMPDEST POP JUMP JUMPDEST PUSH0 DUP2 CALLDATALOAD SWAP1 POP PUSH2 0x1925 DUP2 PUSH2 0x1901 JUMP JUMPDEST SWAP3 SWAP2 POP POP JUMP JUMPDEST PUSH0 DUP1 PUSH1 0x40 DUP4 DUP6 SUB SLT ISZERO PUSH2 0x1941 JUMPI PUSH2 0x1940 PUSH2 0x189A JUMP JUMPDEST JUMPDEST PUSH0 PUSH2 0x194E DUP6 DUP3 DUP7 ADD PUSH2 0x18E4 JUMP JUMPDEST SWAP3 POP POP PUSH1 0x20 PUSH2 0x195F DUP6 DUP3 DUP7 ADD PUSH2 0x1917 JUMP JUMPDEST SWAP2 POP POP SWAP3 POP SWAP3 SWAP1 POP JUMP JUMPDEST PUSH0 DUP2 ISZERO ISZERO SWAP1 POP SWAP2 SWAP1 POP JUMP JUMPDEST PUSH2 0x197D DUP2 PUSH2 0x1969 JUMP JUMPDEST DUP3 MSTORE POP POP JUMP JUMPDEST PUSH0 PUSH1 0x20 DUP3 ADD SWAP1 POP PUSH2 0x1996 PUSH0 DUP4 ADD DUP5 PUSH2 0x1974 JUMP JUMPDEST SWAP3 SWAP2 POP POP JUMP JUMPDEST PUSH2 0x19A5 DUP2 PUSH2 0x18F8 JUMP JUMPDEST DUP3 MSTORE POP POP JUMP JUMPDEST PUSH0 PUSH1 0x20 DUP3 ADD SWAP1 POP PUSH2 0x19BE PUSH0 DUP4 ADD DUP5 PUSH2 0x199C JUMP JUMPDEST SWAP3 SWAP2 POP POP JUMP JUMPDEST PUSH0 DUP1 PUSH0 PUSH1 0x60 DUP5 DUP7 SUB SLT ISZERO PUSH2 0x19DB JUMPI PUSH2 0x19DA PUSH2 0x189A JUMP JUMPDEST JUMPDEST PUSH0 PUSH2 0x19E8 DUP7 DUP3 DUP8 ADD PUSH2 0x18E4 JUMP JUMPDEST SWAP4 POP POP PUSH1 0x20 PUSH2 0x19F9 DUP7 DUP3 DUP8 ADD PUSH2 0x18E4 JUMP JUMPDEST SWAP3 POP POP PUSH1 0x40 PUSH2 0x1A0A DUP7 DUP3 DUP8 ADD PUSH2 0x1917 JUMP JUMPDEST SWAP2 POP POP SWAP3 POP SWAP3 POP SWAP3 JUMP JUMPDEST PUSH0 PUSH1 0x20 DUP3 DUP5 SUB SLT ISZERO PUSH2 0x1A29 JUMPI PUSH2 0x1A28 PUSH2 0x189A JUMP JUMPDEST JUMPDEST PUSH0 PUSH2 0x1A36 DUP5 DUP3 DUP6 ADD PUSH2 0x1917 JUMP JUMPDEST SWAP2 POP POP SWAP3 SWAP2 POP POP JUMP JUMPDEST PUSH0 PUSH1 0x40 DUP3 ADD SWAP1 POP PUSH2 0x1A52 PUSH0 DUP4 ADD DUP6 PUSH2 0x199C JUMP JUMPDEST PUSH2 0x1A5F PUSH1 0x20 DUP4 ADD DUP5 PUSH2 0x199C JUMP JUMPDEST SWAP4 SWAP3 POP POP POP JUMP JUMPDEST PUSH0 PUSH1 0xFF DUP3 AND SWAP1 POP SWAP2 SWAP1 POP JUMP JUMPDEST PUSH2 0x1A7B DUP2 PUSH2 0x1A66 JUMP JUMPDEST DUP3 MSTORE POP POP JUMP JUMPDEST PUSH0 PUSH1 0x20 DUP3 ADD SWAP1 POP PUSH2 0x1A94 PUSH0 DUP4 ADD DUP5 PUSH2 0x1A72 JUMP JUMPDEST SWAP3 SWAP2 POP POP JUMP JUMPDEST PUSH0 DUP2 SWAP1 POP SWAP2 SWAP1 POP JUMP JUMPDEST PUSH2 0x1AAC DUP2 PUSH2 0x1A9A JUMP JUMPDEST DUP3 MSTORE POP POP JUMP JUMPDEST PUSH0 PUSH1 0x20 DUP3 ADD SWAP1 POP PUSH2 0x1AC5 PUSH0 DUP4 ADD DUP5 PUSH2 0x1AA3 JUMP JUMPDEST SWAP3 SWAP2 POP POP JUMP JUMPDEST PUSH0 PUSH1 0x20 DUP3 DUP5 SUB SLT ISZERO PUSH2 0x1AE0 JUMPI PUSH2 0x1ADF PUSH2 0x189A JUMP JUMPDEST JUMPDEST PUSH0 PUSH2 0x1AED DUP5 DUP3 DUP6 ADD PUSH2 0x18E4 JUMP JUMPDEST SWAP2 POP POP SWAP3 SWAP2 POP POP JUMP JUMPDEST PUSH2 0x1AFF DUP2 PUSH2 0x18BD JUMP JUMPDEST DUP3 MSTORE POP POP JUMP JUMPDEST PUSH0 PUSH1 0x20 DUP3 ADD SWAP1 POP PUSH2 0x1B18 PUSH0 DUP4 ADD DUP5 PUSH2 0x1AF6 JUMP JUMPDEST SWAP3 SWAP2 POP POP JUMP JUMPDEST PUSH2 0x1B27 DUP2 PUSH2 0x1A66 JUMP JUMPDEST DUP2 EQ PUSH2 0x1B31 JUMPI PUSH0 DUP1 REVERT JUMPDEST POP JUMP JUMPDEST PUSH0 DUP2 CALLDATALOAD SWAP1 POP PUSH2 0x1B42 DUP2 PUSH2 0x1B1E JUMP JUMPDEST SWAP3 SWAP2 POP POP JUMP JUMPDEST PUSH2 0x1B51 DUP2 PUSH2 0x1A9A JUMP JUMPDEST DUP2 EQ PUSH2 0x1B5B JUMPI PUSH0 DUP1 REVERT JUMPDEST POP JUMP JUMPDEST PUSH0 DUP2 CALLDATALOAD SWAP1 POP PUSH2 0x1B6C DUP2 PUSH2 0x1B48 JUMP JUMPDEST SWAP3 SWAP2 POP POP JUMP JUMPDEST PUSH0 DUP1 PUSH0 DUP1 PUSH0 DUP1 PUSH0 PUSH1 0xE0 DUP9 DUP11 SUB SLT ISZERO PUSH2 0x1B8D JUMPI PUSH2 0x1B8C PUSH2 0x189A JUMP JUMPDEST JUMPDEST PUSH0 PUSH2 0x1B9A DUP11 DUP3 DUP12 ADD PUSH2 0x18E4 JUMP JUMPDEST SWAP8 POP POP PUSH1 0x20 PUSH2 0x1BAB DUP11 DUP3 DUP12 ADD PUSH2 0x18E4 JUMP JUMPDEST SWAP7 POP POP PUSH1 0x40 PUSH2 0x1BBC DUP11 DUP3 DUP12 ADD PUSH2 0x1917 JUMP JUMPDEST SWAP6 POP POP PUSH1 0x60 PUSH2 0x1BCD DUP11 DUP3 DUP12 ADD PUSH2 0x1917 JUMP JUMPDEST SWAP5 POP POP PUSH1 0x80 PUSH2 0x1BDE DUP11 DUP3 DUP12 ADD PUSH2 0x1B34 JUMP JUMPDEST SWAP4 POP POP PUSH1 0xA0 PUSH2 0x1BEF DUP11 DUP3 DUP12 ADD PUSH2 0x1B5E JUMP JUMPDEST SWAP3 POP POP PUSH1 0xC0 PUSH2 0x1C00 DUP11 DUP3 DUP12 ADD PUSH2 0x1B5E JUMP JUMPDEST SWAP2 POP POP SWAP3 SWAP6 SWAP9 SWAP2 SWAP5 SWAP8 POP SWAP3 SWAP6 POP JUMP JUMPDEST PUSH0 DUP1 PUSH1 0x40 DUP4 DUP6 SUB SLT ISZERO PUSH2 0x1C25 JUMPI PUSH2 0x1C24 PUSH2 0x189A JUMP JUMPDEST JUMPDEST PUSH0 PUSH2 0x1C32 DUP6 DUP3 DUP7 ADD PUSH2 0x18E4 JUMP JUMPDEST SWAP3 POP POP PUSH1 0x20 PUSH2 0x1C43 DUP6 DUP3 DUP7 ADD PUSH2 0x18E4 JUMP JUMPDEST SWAP2 POP POP SWAP3 POP SWAP3 SWAP1 POP JUMP JUMPDEST PUSH0 DUP1 PUSH1 0x40 DUP4 DUP6 SUB SLT ISZERO PUSH2 0x1C63 JUMPI PUSH2 0x1C62 PUSH2 0x189A JUMP JUMPDEST JUMPDEST PUSH0 PUSH2 0x1C70 DUP6 DUP3 DUP7 ADD PUSH2 0x1917 JUMP JUMPDEST SWAP3 POP POP PUSH1 0x20 PUSH2 0x1C81 DUP6 DUP3 DUP7 ADD PUSH2 0x1917 JUMP JUMPDEST SWAP2 POP POP SWAP3 POP SWAP3 SWAP1 POP JUMP JUMPDEST PUSH0 DUP2 SWAP1 POP SWAP3 SWAP2 POP POP JUMP JUMPDEST PUSH0 PUSH2 0x1C9F DUP3 PUSH2 0x17F0 JUMP JUMPDEST PUSH2 0x1CA9 DUP2 DUP6 PUSH2 0x1C8B JUMP JUMPDEST SWAP4 POP PUSH2 0x1CB9 DUP2 DUP6 PUSH1 0x20 DUP7 ADD PUSH2 0x180A JUMP JUMPDEST DUP1 DUP5 ADD SWAP2 POP POP SWAP3 SWAP2 POP POP JUMP JUMPDEST PUSH32 0x4E487B7100000000000000000000000000000000000000000000000000000000 PUSH0 MSTORE PUSH1 0x22 PUSH1 0x4 MSTORE PUSH1 0x24 PUSH0 REVERT JUMPDEST PUSH0 PUSH1 0x2 DUP3 DIV SWAP1 POP PUSH1 0x1 DUP3 AND DUP1 PUSH2 0x1D09 JUMPI PUSH1 0x7F DUP3 AND SWAP2 POP JUMPDEST PUSH1 0x20 DUP3 LT DUP2 SUB PUSH2 0x1D1C JUMPI PUSH2 0x1D1B PUSH2 0x1CC5 JUMP JUMPDEST JUMPDEST POP SWAP2 SWAP1 POP JUMP JUMPDEST PUSH0 DUP2 SWAP1 POP DUP2 PUSH0 MSTORE PUSH1 0x20 PUSH0 KECCAK256 SWAP1 POP SWAP2 SWAP1 POP JUMP JUMPDEST PUSH0 DUP2 SLOAD PUSH2 0x1D40 DUP2 PUSH2 0x1CF2 JUMP JUMPDEST PUSH2 0x1D4A DUP2 DUP7 PUSH2 0x1C8B JUMP JUMPDEST SWAP5 POP PUSH1 0x1 DUP3 AND PUSH0 DUP2 EQ PUSH2 0x1D64 JUMPI PUSH1 0x1 DUP2 EQ PUSH2 0x1D79 JUMPI PUSH2 0x1DAB JUMP JUMPDEST PUSH1 0xFF NOT DUP4 AND DUP7 MSTORE DUP2 ISZERO ISZERO DUP3 MUL DUP7 ADD SWAP4 POP PUSH2 0x1DAB JUMP JUMPDEST PUSH2 0x1D82 DUP6 PUSH2 0x1D22 JUMP JUMPDEST PUSH0 JUMPDEST DUP4 DUP2 LT ISZERO PUSH2 0x1DA3 JUMPI DUP2 SLOAD DUP2 DUP10 ADD MSTORE PUSH1 0x1 DUP3 ADD SWAP2 POP PUSH1 0x20 DUP2 ADD SWAP1 POP PUSH2 0x1D84 JUMP JUMPDEST DUP4 DUP9 ADD SWAP6 POP POP POP JUMPDEST POP POP POP SWAP3 SWAP2 POP POP JUMP JUMPDEST PUSH0 PUSH2 0x1DBF DUP3 DUP6 PUSH2 0x1C95 JUMP JUMPDEST SWAP2 POP PUSH2 0x1DCB DUP3 DUP5 PUSH2 0x1D34 JUMP JUMPDEST SWAP2 POP DUP2 SWAP1 POP SWAP4 SWAP3 POP POP POP JUMP JUMPDEST PUSH32 0x4E487B7100000000000000000000000000000000000000000000000000000000 PUSH0 MSTORE PUSH1 0x11 PUSH1 0x4 MSTORE PUSH1 0x24 PUSH0 REVERT JUMPDEST PUSH0 PUSH2 0x1E0E DUP3 PUSH2 0x18F8 JUMP JUMPDEST SWAP2 POP PUSH2 0x1E19 DUP4 PUSH2 0x18F8 JUMP JUMPDEST SWAP3 POP DUP3 DUP3 MUL PUSH2 0x1E27 DUP2 PUSH2 0x18F8 JUMP JUMPDEST SWAP2 POP DUP3 DUP3 DIV DUP5 EQ DUP4 ISZERO OR PUSH2 0x1E3E JUMPI PUSH2 0x1E3D PUSH2 0x1DD7 JUMP JUMPDEST JUMPDEST POP SWAP3 SWAP2 POP POP JUMP JUMPDEST PUSH32 0x4E487B7100000000000000000000000000000000000000000000000000000000 PUSH0 MSTORE PUSH1 0x12 PUSH1 0x4 MSTORE PUSH1 0x24 PUSH0 REVERT JUMPDEST PUSH0 PUSH2 0x1E7C DUP3 PUSH2 0x18F8 JUMP JUMPDEST SWAP2 POP PUSH2 0x1E87 DUP4 PUSH2 0x18F8 JUMP JUMPDEST SWAP3 POP DUP3 PUSH2 0x1E97 JUMPI PUSH2 0x1E96 PUSH2 0x1E45 JUMP JUMPDEST JUMPDEST DUP3 DUP3 DIV SWAP1 POP SWAP3 SWAP2 POP POP JUMP JUMPDEST PUSH0 PUSH2 0x1EAC DUP3 PUSH2 0x18F8 JUMP JUMPDEST SWAP2 POP PUSH2 0x1EB7 DUP4 PUSH2 0x18F8 JUMP JUMPDEST SWAP3 POP DUP3 DUP3 SUB SWAP1 POP DUP2 DUP2 GT ISZERO PUSH2 0x1ECF JUMPI PUSH2 0x1ECE PUSH2 0x1DD7 JUMP JUMPDEST JUMPDEST SWAP3 SWAP2 POP POP JUMP JUMPDEST PUSH0 PUSH1 0x80 DUP3 ADD SWAP1 POP PUSH2 0x1EE8 PUSH0 DUP4 ADD DUP8 PUSH2 0x1AF6 JUMP JUMPDEST PUSH2 0x1EF5 PUSH1 0x20 DUP4 ADD DUP7 PUSH2 0x199C JUMP JUMPDEST PUSH2 0x1F02 PUSH1 0x40 DUP4 ADD DUP6 PUSH2 0x199C JUMP JUMPDEST PUSH2 0x1F0F PUSH1 0x60 DUP4 ADD DUP5 PUSH2 0x199C JUMP JUMPDEST SWAP6 SWAP5 POP POP POP POP POP JUMP JUMPDEST PUSH0 DUP2 MLOAD SWAP1 POP PUSH2 0x1F26 DUP2 PUSH2 0x1901 JUMP JUMPDEST SWAP3 SWAP2 POP POP JUMP JUMPDEST PUSH0 PUSH1 0x20 DUP3 DUP5 SUB SLT ISZERO PUSH2 0x1F41 JUMPI PUSH2 0x1F40 PUSH2 0x189A JUMP JUMPDEST JUMPDEST PUSH0 PUSH2 0x1F4E DUP5 DUP3 DUP6 ADD PUSH2 0x1F18 JUMP JUMPDEST SWAP2 POP POP SWAP3 SWAP2 POP POP JUMP JUMPDEST PUSH0 PUSH2 0x1F61 DUP3 PUSH2 0x18F8 JUMP JUMPDEST SWAP2 POP PUSH2 0x1F6C DUP4 PUSH2 0x18F8 JUMP JUMPDEST SWAP3 POP DUP3 DUP3 ADD SWAP1 POP DUP1 DUP3 GT ISZERO PUSH2 0x1F84 JUMPI PUSH2 0x1F83 PUSH2 0x1DD7 JUMP JUMPDEST JUMPDEST SWAP3 SWAP2 POP POP JUMP JUMPDEST PUSH0 PUSH1 0x80 DUP3 ADD SWAP1 POP PUSH2 0x1F9D PUSH0 DUP4 ADD DUP8 PUSH2 0x1AF6 JUMP JUMPDEST PUSH2 0x1FAA PUSH1 0x20 DUP4 ADD DUP7 PUSH2 0x1AF6 JUMP JUMPDEST PUSH2 0x1FB7 PUSH1 0x40 DUP4 ADD DUP6 PUSH2 0x199C JUMP JUMPDEST PUSH2 0x1FC4 PUSH1 0x60 DUP4 ADD DUP5 PUSH2 0x199C JUMP JUMPDEST SWAP6 SWAP5 POP POP POP POP POP JUMP JUMPDEST PUSH0 DUP2 MLOAD SWAP1 POP PUSH2 0x1FDB DUP2 PUSH2 0x18CE JUMP JUMPDEST SWAP3 SWAP2 POP POP JUMP JUMPDEST PUSH0 PUSH1 0x20 DUP3 DUP5 SUB SLT ISZERO PUSH2 0x1FF6 JUMPI PUSH2 0x1FF5 PUSH2 0x189A JUMP JUMPDEST JUMPDEST PUSH0 PUSH2 0x2003 DUP5 DUP3 DUP6 ADD PUSH2 0x1FCD JUMP JUMPDEST SWAP2 POP POP SWAP3 SWAP2 POP POP JUMP JUMPDEST PUSH0 PUSH1 0x60 DUP3 ADD SWAP1 POP PUSH2 0x201F PUSH0 DUP4 ADD DUP7 PUSH2 0x1AF6 JUMP JUMPDEST PUSH2 0x202C PUSH1 0x20 DUP4 ADD DUP6 PUSH2 0x1AF6 JUMP JUMPDEST PUSH2 0x2039 PUSH1 0x40 DUP4 ADD DUP5 PUSH2 0x199C JUMP JUMPDEST SWAP5 SWAP4 POP POP POP POP JUMP JUMPDEST PUSH2 0x204A DUP2 PUSH2 0x1969 JUMP JUMPDEST DUP2 EQ PUSH2 0x2054 JUMPI PUSH0 DUP1 REVERT JUMPDEST POP JUMP JUMPDEST PUSH0 DUP2 MLOAD SWAP1 POP PUSH2 0x2065 DUP2 PUSH2 0x2041 JUMP JUMPDEST SWAP3 SWAP2 POP POP JUMP JUMPDEST PUSH0 PUSH1 0x20 DUP3 DUP5 SUB SLT ISZERO PUSH2 0x2080 JUMPI PUSH2 0x207F PUSH2 0x189A JUMP JUMPDEST JUMPDEST PUSH0 PUSH2 0x208D DUP5 DUP3 DUP6 ADD PUSH2 0x2057 JUMP JUMPDEST SWAP2 POP POP SWAP3 SWAP2 POP POP JUMP INVALID LOG2 PUSH5 0x6970667358 0x22 SLT KECCAK256 SWAP8 0xE1 0xDE EXP 0xC6 SSTORE 0xC 0x2A 0xC3 0xD1 DUP9 GASPRICE SSTORE DUP16 0xDC TIMESTAMP GASPRICE MOD POP PUSH32 0xC493554CD74E790B4DCC590A64736F6C63430008140033000000000000000000 "
				},
				"gasEstimates": {
					"creation": {
						"codeDepositCost": "1679200",
						"executionCost": "infinite",
						"totalCost": "infinite"
					},
					"external": {
						"DOMAIN_SEPARATOR()": "infinite",
						"LP_FEE()": "414",
						"PROTOCOL_FEE()": "393",
						"allowance(address,address)": "infinite",
						"approve(address,uint256)": "24826",
						"balanceOf(address)": "2820",
						"decimals()": "383",
						"deposit(uint256,uint256)": "infinite",
						"factory()": "2552",
						"kLast()": "2470",
						"name()": "infinite",
						"nonces(address)": "2864",
						"permit(address,address,uint256,uint256,uint8,bytes32,bytes32)": "infinite",
						"quote(address,uint256)": "infinite",
						"sqrt(uint256)": "infinite",
						"swap(address,uint256)": "infinite",
						"symbol()": "infinite",
						"totalSupply()": "2522",
						"transfer(address,uint256)": "51271",
						"transferFrom(address,address,uint256)": "infinite",
						"withdraw(uint256)": "infinite"
					},
					"internal": {
						"_quote(address,uint256)": "infinite",
						"_transfer(address,address,address,uint256)": "infinite",
						"min(uint256,uint256)": "63",
						"mintFee(uint256,uint256)": "infinite",
						"toUint(bool)": "33"
					}
				},
				"methodIdentifiers": {
					"DOMAIN_SEPARATOR()": "3644e515",
					"LP_FEE()": "5e3f2727",
					"PROTOCOL_FEE()": "0b4501fd",
					"allowance(address,address)": "dd62ed3e",
					"approve(address,uint256)": "095ea7b3",
					"balanceOf(address)": "70a08231",
					"decimals()": "313ce567",
					"deposit(uint256,uint256)": "e2bbb158",
					"factory()": "c45a0155",
					"kLast()": "7464fc3d",
					"name()": "06fdde03",
					"nonces(address)": "7ecebe00",
					"permit(address,address,uint256,uint256,uint8,bytes32,bytes32)": "d505accf",
					"quote(address,uint256)": "8f79306e",
					"sqrt(uint256)": "677342ce",
					"swap(address,uint256)": "d004f0f7",
					"symbol()": "95d89b41",
					"totalSupply()": "18160ddd",
					"transfer(address,uint256)": "a9059cbb",
					"transferFrom(address,address,uint256)": "23b872dd",
					"withdraw(uint256)": "2e1a7d4d"
				}
			},
			"storageLayout": {
				"storage": [
					{
						"astId": 14,
						"contract": "contracts/Pool.sol:Pool",
						"label": "s_name",
						"offset": 0,
						"slot": "0",
						"type": "t_string_storage"
					},
					{
						"astId": 64,
						"contract": "contracts/Pool.sol:Pool",
						"label": "factory",
						"offset": 0,
						"slot": "1",
						"type": "t_address"
					},
					{
						"astId": 66,
						"contract": "contracts/Pool.sol:Pool",
						"label": "kLast",
						"offset": 0,
						"slot": "2",
						"type": "t_uint256"
					},
					{
						"astId": 68,
						"contract": "contracts/Pool.sol:Pool",
						"label": "s_token0",
						"offset": 0,
						"slot": "3",
						"type": "t_address"
					},
					{
						"astId": 70,
						"contract": "contracts/Pool.sol:Pool",
						"label": "s_token1",
						"offset": 0,
						"slot": "4",
						"type": "t_address"
					},
					{
						"astId": 72,
						"contract": "contracts/Pool.sol:Pool",
						"label": "s_reserve0",
						"offset": 0,
						"slot": "5",
						"type": "t_uint256"
					},
					{
						"astId": 74,
						"contract": "contracts/Pool.sol:Pool",
						"label": "s_reserve1",
						"offset": 0,
						"slot": "6",
						"type": "t_uint256"
					}
				],
				"types": {
					"t_address": {
						"encoding": "inplace",
						"label": "address",
						"numberOfBytes": "20"
					},
					"t_string_storage": {
						"encoding": "bytes",
						"label": "string",
						"numberOfBytes": "32"
					},
					"t_uint256": {
						"encoding": "inplace",
						"label": "uint256",
						"numberOfBytes": "32"
					}
				}
			},
			"userdoc": {
				"kind": "user",
				"methods": {},
				"version": 1
			}
		}
	}
}