{
	"data": {
		"bytecode": {
			"linkReferences": {},
			"object": "608060405234801562000010575f80fd5b506040516200267e3803806200267e83398181016040528101906200003691906200028a565b8173ffffffffffffffffffffffffffffffffffffffff166395d89b416040518163ffffffff1660e01b81526004015f60405180830381865afa1580156200007f573d5f803e3d5ffd5b505050506040513d5f823e3d601f19601f82011682018060405250810190620000a9919062000443565b8173ffffffffffffffffffffffffffffffffffffffff166395d89b416040518163ffffffff1660e01b81526004015f60405180830381865afa158015620000f2573d5f803e3d5ffd5b505050506040513d5f823e3d601f19601f820116820180604052508101906200011c919062000443565b6040516020016200012f929190620004dc565b604051602081830303815290604052805f90816200014e919062000730565b50503360015f6101000a81548173ffffffffffffffffffffffffffffffffffffffff021916908373ffffffffffffffffffffffffffffffffffffffff1602179055508160025f6101000a81548173ffffffffffffffffffffffffffffffffffffffff021916908373ffffffffffffffffffffffffffffffffffffffff1602179055508060035f6101000a81548173ffffffffffffffffffffffffffffffffffffffff021916908373ffffffffffffffffffffffffffffffffffffffff160217905550505062000814565b5f604051905090565b5f80fd5b5f80fd5b5f73ffffffffffffffffffffffffffffffffffffffff82169050919050565b5f620002548262000229565b9050919050565b620002668162000248565b811462000271575f80fd5b50565b5f8151905062000284816200025b565b92915050565b5f8060408385031215620002a357620002a262000221565b5b5f620002b28582860162000274565b9250506020620002c58582860162000274565b9150509250929050565b5f80fd5b5f80fd5b5f601f19601f8301169050919050565b7f4e487b71000000000000000000000000000000000000000000000000000000005f52604160045260245ffd5b6200031f82620002d7565b810181811067ffffffffffffffff82111715620003415762000340620002e7565b5b80604052505050565b5f6200035562000218565b905062000363828262000314565b919050565b5f67ffffffffffffffff821115620003855762000384620002e7565b5b6200039082620002d7565b9050602081019050919050565b5f5b83811015620003bc5780820151818401526020810190506200039f565b5f8484015250505050565b5f620003dd620003d78462000368565b6200034a565b905082815260208101848484011115620003fc57620003fb620002d3565b5b620004098482856200039d565b509392505050565b5f82601f830112620004285762000427620002cf565b5b81516200043a848260208601620003c7565b91505092915050565b5f602082840312156200045b576200045a62000221565b5b5f82015167ffffffffffffffff8111156200047b576200047a62000225565b5b620004898482850162000411565b91505092915050565b5f81519050919050565b5f81905092915050565b5f620004b28262000492565b620004be81856200049c565b9350620004d08185602086016200039d565b80840191505092915050565b5f620004e98285620004a6565b9150620004f78284620004a6565b91508190509392505050565b7f4e487b71000000000000000000000000000000000000000000000000000000005f52602260045260245ffd5b5f60028204905060018216806200054857607f821691505b6020821081036200055e576200055d62000503565b5b50919050565b5f819050815f5260205f209050919050565b5f6020601f8301049050919050565b5f82821b905092915050565b5f60088302620005c27fffffffffffffffffffffffffffffffffffffffffffffffffffffffffffffffff8262000585565b620005ce868362000585565b95508019841693508086168417925050509392505050565b5f819050919050565b5f819050919050565b5f62000618620006126200060c84620005e6565b620005ef565b620005e6565b9050919050565b5f819050919050565b6200063383620005f8565b6200064b62000642826200061f565b84845462000591565b825550505050565b5f90565b6200066162000653565b6200066e81848462000628565b505050565b5b818110156200069557620006895f8262000657565b60018101905062000674565b5050565b601f821115620006e457620006ae8162000564565b620006b98462000576565b81016020851015620006c9578190505b620006e1620006d88562000576565b83018262000673565b50505b505050565b5f82821c905092915050565b5f620007065f1984600802620006e9565b1980831691505092915050565b5f620007208383620006f5565b9150826002028217905092915050565b6200073b8262000492565b67ffffffffffffffff811115620007575762000756620002e7565b5b62000763825462000530565b6200077082828562000699565b5f60209050601f831160018114620007a6575f841562000791578287015190505b6200079d858262000713565b8655506200080c565b601f198416620007b68662000564565b5f5b82811015620007df57848901518255600182019150602085019450602081019050620007b8565b86831015620007ff5784890151620007fb601f891682620006f5565b8355505b6001600288020188555050505b505050505050565b611e5c80620008225f395ff3fe608060405234801561000f575f80fd5b5060043610610114575f3560e01c80637ecebe00116100a0578063c45a01551161006f578063c45a01551461032f578063d004f0f71461034d578063d505accf1461037d578063dd62ed3e14610399578063e2bbb158146103c957610114565b80637ecebe00146102815780638f79306e146102b157806395d89b41146102e1578063a9059cbb146102ff57610114565b80632e1a7d4d116100e75780632e1a7d4d146101b4578063313ce567146101e55780633644e51514610203578063677342ce1461022157806370a082311461025157610114565b806306fdde0314610118578063095ea7b31461013657806318160ddd1461016657806323b872dd14610184575b5f80fd5b6101206103f9565b60405161012d9190611649565b60405180910390f35b610150600480360381019061014b91906116fa565b610457565b60405161015d9190611752565b60405180910390f35b61016e6104a7565b60405161017b919061177a565b60405180910390f35b61019e60048036038101906101999190611793565b6104b8565b6040516101ab9190611752565b60405180910390f35b6101ce60048036038101906101c991906117e3565b610589565b6040516101dc92919061180e565b60405180910390f35b6101ed610729565b6040516101fa9190611850565b60405180910390f35b61020b610731565b6040516102189190611881565b60405180910390f35b61023b600480360381019061023691906117e3565b6107c1565b604051610248919061177a565b60405180910390f35b61026b6004803603810190610266919061189a565b61095b565b604051610278919061177a565b60405180910390f35b61029b6004803603810190610296919061189a565b610974565b6040516102a8919061177a565b60405180910390f35b6102cb60048036038101906102c691906116fa565b61098d565b6040516102d8919061177a565b60405180910390f35b6102e9610abc565b6040516102f69190611649565b60405180910390f35b610319600480360381019061031491906116fa565b610b4b565b6040516103269190611752565b60405180910390f35b610337610bd9565b60405161034491906118d4565b60405180910390f35b610367600480360381019061036291906116fa565b610bfe565b604051610374919061177a565b60405180910390f35b61039760048036038101906103929190611941565b610f63565b005b6103b360048036038101906103ae91906119de565b6110ff565b6040516103c0919061177a565b60405180910390f35b6103e360048036038101906103de9190611a1c565b61111d565b6040516103f0919061177a565b60405180910390f35b60606040518060400160405280600581526020017f4d494e492d0000000000000000000000000000000000000000000000000000008152505f604051602001610443929190611b83565b604051602081830303815290604052905090565b5f82602052637f5e9f20600c52335f52816034600c2055815f52602c5160601c337f8c5be1e5ebec7d5bd14f71427d1e84f3dd0314c0f7b2291e5b200ac8c7c3b92560205fa36001905092915050565b5f6805345cdf77eb68f44c54905090565b5f6104c48484846112e2565b8360601b33602052637f5e9f208117600c526034600c208054600181011561050157808511156104fb576313be252b5f526004601cfd5b84810382555b6387a211a28317600c526020600c208054808711156105275763f4d678b85f526004601cfd5b8681038255875f526020600c2087815401815587602052600c5160601c8660601c7fddf252ad1be2c89b69c2b068fc378daa952ba7f163c4a11628f55a4df523b3ef602080a350505050505061057e8484846112e7565b600190509392505050565b5f80826105953361095b565b10156105cd576040517f50b1f35600000000000000000000000000000000000000000000000000000000815260040160405180910390fd5b5f6105d66104a7565b905080600454856105e79190611bd3565b6105f19190611c41565b925080600454856106029190611bd3565b61060c9190611c41565b91505f83148061061b57505f82145b15610652576040517f2cd294cf00000000000000000000000000000000000000000000000000000000815260040160405180910390fd5b61067f60025f9054906101000a900473ffffffffffffffffffffffffffffffffffffffff163033866112ec565b6106ac60035f9054906101000a900473ffffffffffffffffffffffffffffffffffffffff163033856112ec565b6106b630856113aa565b8260045f8282546106c79190611c71565b925050819055508160055f8282546106df9190611c71565b925050819055507f02f25270a4d87bea75db541cdfe559334a275b4a233520ed6c0a2429667cca943085858560405161071b9493929190611ca4565b60405180910390a150915091565b5f6012905090565b5f8061073b61143a565b90505f801b81036107585761074e6103f9565b8051906020012090505b6040517f8b73c3c69bb8fe3d512ecc4cf759cc79239f7b179b0ffacaa9a75d522b39400f81528160208201527fc89efdaa54c0f20c7adf612882df0950f5a951637e0307cdcb4c672f298b8bc6604082015246606082015230608082015260a081209250505090565b5f600182116107d257819050610956565b5f8290505f60019050700100000000000000000000000000000000821061080257608082901c9150604081901b90505b68010000000000000000821061082157604082901c9150602081901b90505b640100000000821061083c57602082901c9150601081901b90505b62010000821061085557601082901c9150600881901b90505b610100821061086d57600882901c9150600481901b90505b6010821061088457600482901c9150600281901b90505b6004821061089457600181901b90505b600181600302901c905060018185816108b0576108af611c14565b5b048201901c905060018185816108c9576108c8611c14565b5b048201901c905060018185816108e2576108e1611c14565b5b048201901c905060018185816108fb576108fa611c14565b5b048201901c9050600181858161091457610913611c14565b5b048201901c9050600181858161092d5761092c611c14565b5b048201901c905061094f81858161094757610946611c14565b5b04821161143e565b8103925050505b919050565b5f6387a211a2600c52815f526020600c20549050919050565b5f6338377508600c52815f526020600c20549050919050565b5f8260025f9054906101000a900473ffffffffffffffffffffffffffffffffffffffff1673ffffffffffffffffffffffffffffffffffffffff168173ffffffffffffffffffffffffffffffffffffffff1614158015610a39575060035f9054906101000a900473ffffffffffffffffffffffffffffffffffffffff1673ffffffffffffffffffffffffffffffffffffffff168173ffffffffffffffffffffffffffffffffffffffff1614155b15610a70576040517f82bce52600000000000000000000000000000000000000000000000000000000815260040160405180910390fd5b5f8303610aa9576040517f8966f48700000000000000000000000000000000000000000000000000000000815260040160405180910390fd5b610ab38484611449565b91505092915050565b60605f8054610aca90611ac1565b80601f0160208091040260200160405190810160405280929190818152602001828054610af690611ac1565b8015610b415780601f10610b1857610100808354040283529160200191610b41565b820191905f5260205f20905b815481529060010190602001808311610b2457829003601f168201915b5050505050905090565b5f610b573384846112e2565b6387a211a2600c52335f526020600c20805480841115610b7e5763f4d678b85f526004601cfd5b8381038255845f526020600c2084815401815584602052600c5160601c337fddf252ad1be2c89b69c2b068fc378daa952ba7f163c4a11628f55a4df523b3ef602080a3505050610bcf3384846112e7565b6001905092915050565b60015f9054906101000a900473ffffffffffffffffffffffffffffffffffffffff1681565b5f8260025f9054906101000a900473ffffffffffffffffffffffffffffffffffffffff1673ffffffffffffffffffffffffffffffffffffffff168173ffffffffffffffffffffffffffffffffffffffff1614158015610caa575060035f9054906101000a900473ffffffffffffffffffffffffffffffffffffffff1673ffffffffffffffffffffffffffffffffffffffff168173ffffffffffffffffffffffffffffffffffffffff1614155b15610ce1576040517f82bce52600000000000000000000000000000000000000000000000000000000815260040160405180910390fd5b5f60025f9054906101000a900473ffffffffffffffffffffffffffffffffffffffff1690505f60035f9054906101000a900473ffffffffffffffffffffffffffffffffffffffff1690505f8503610d64576040517f8966f48700000000000000000000000000000000000000000000000000000000815260040160405180910390fd5b610d6e8686611449565b93505f8273ffffffffffffffffffffffffffffffffffffffff168773ffffffffffffffffffffffffffffffffffffffff1614610daa5782610dac565b815b90508460028273ffffffffffffffffffffffffffffffffffffffff166370a08231306040518263ffffffff1660e01b8152600401610dea91906118d4565b602060405180830381865afa158015610e05573d5f803e3d5ffd5b505050506040513d601f19601f82011682018060405250810190610e299190611cfb565b610e339190611c41565b1015610e6b576040517f8cab1f2800000000000000000000000000000000000000000000000000000000815260040160405180910390fd5b610e77873330896112ec565b610e83813033886112ec565b8273ffffffffffffffffffffffffffffffffffffffff168173ffffffffffffffffffffffffffffffffffffffff1603610eeb578460045f828254610ec79190611c71565b925050819055508560055f828254610edf9190611d26565b92505081905550610f1c565b8560045f828254610efc9190611d26565b925050819055508460055f828254610f149190611c71565b925050819055505b7ffa2dda1cc1b86e41239702756b13effbc1a092b5c57e3ad320fbe4f3b13fe23581888888604051610f519493929190611d59565b60405180910390a15050505092915050565b5f610f6c61143a565b90505f801b8103610f8957610f7f6103f9565b8051906020012090505b84421115610f9e57631a15a3cc5f526004601cfd5b6040518860601b60601c98508760601b60601c975065383775081901600e52885f526020600c2080547f8b73c3c69bb8fe3d512ecc4cf759cc79239f7b179b0ffacaa9a75d522b39400f83528360208401527fc89efdaa54c0f20c7adf612882df0950f5a951637e0307cdcb4c672f298b8bc6604084015246606084015230608084015260a08320602e527f6e71edae12b1b97f4d1f60370fef10105fa2faae0126114a169c64845d6126c983528a60208401528960408401528860608401528060808401528760a084015260c08320604e526042602c205f528660ff16602052856040528460605260208060805f60015afa8b3d51146110a65763ddafbaef5f526004601cfd5b80820183558a637f5e9f2060a01b17604052896034602c20558a8c7f8c5be1e5ebec7d5bd14f71427d1e84f3dd0314c0f7b2291e5b200ac8c7c3b925602060608801a3836040525f606052505050505050505050505050565b5f81602052637f5e9f20600c52825f526034600c2054905092915050565b5f806111276104a7565b905061115660025f9054906101000a900473ffffffffffffffffffffffffffffffffffffffff163330876112ec565b61118360035f9054906101000a900473ffffffffffffffffffffffffffffffffffffffff163330866112ec565b5f81036111be576103e86111a1848661119c9190611bd3565b6107c1565b6111ab9190611c71565b91506111b95f6103e8611515565b611264565b5f6111ea60025f9054906101000a900473ffffffffffffffffffffffffffffffffffffffff1686611449565b905083811015611226576040517f2cd294cf00000000000000000000000000000000000000000000000000000000815260040160405180910390fd5b61126082600454876112389190611bd3565b6112429190611c41565b83600554876112519190611bd3565b61125b9190611c41565b6115a7565b9250505b61126e3383611515565b8360045f82825461127f9190611d26565b925050819055508260055f8282546112979190611d26565b925050819055507f36af321ec8d3c75236829c5317affd40ddb308863a1236d2d277a4025cccee1e308386866040516112d39493929190611ca4565b60405180910390a15092915050565b505050565b505050565b5f8473ffffffffffffffffffffffffffffffffffffffff166323b872dd8585856040518463ffffffff1660e01b815260040161132a93929190611d9c565b6020604051808303815f875af1158015611346573d5f803e3d5ffd5b505050506040513d601f19601f8201168201806040525081019061136a9190611dfb565b9050806113a3576040517f3f4ab80e00000000000000000000000000000000000000000000000000000000815260040160405180910390fd5b5050505050565b6113b5825f836112e2565b6387a211a2600c52815f526020600c208054808311156113dc5763f4d678b85f526004601cfd5b8281038255826805345cdf77eb68f44c54036805345cdf77eb68f44c55825f525f8460601b60601c7fddf252ad1be2c89b69c2b068fc378daa952ba7f163c4a11628f55a4df523b3ef60205fa35050611436825f836112e7565b5050565b5f90565b5f8115159050919050565b5f8060025f9054906101000a900473ffffffffffffffffffffffffffffffffffffffff1690505f8173ffffffffffffffffffffffffffffffffffffffff168573ffffffffffffffffffffffffffffffffffffffff16146114ab576005546114af565b6004545b90505f8273ffffffffffffffffffffffffffffffffffffffff168673ffffffffffffffffffffffffffffffffffffffff16146114ed576004546114f1565b6005545b90508085836115009190611bd3565b61150a9190611c41565b935050505092915050565b6115205f83836112e2565b6805345cdf77eb68f44c54818101818110156115435763e5cfe9575f526004601cfd5b806805345cdf77eb68f44c556387a211a2600c52835f526020600c2083815401815583602052600c5160601c5f7fddf252ad1be2c89b69c2b068fc378daa952ba7f163c4a11628f55a4df523b3ef602080a35050506115a35f83836112e7565b5050565b5f8183106115b557816115b7565b825b905092915050565b5f81519050919050565b5f82825260208201905092915050565b5f5b838110156115f65780820151818401526020810190506115db565b5f8484015250505050565b5f601f19601f8301169050919050565b5f61161b826115bf565b61162581856115c9565b93506116358185602086016115d9565b61163e81611601565b840191505092915050565b5f6020820190508181035f8301526116618184611611565b905092915050565b5f80fd5b5f73ffffffffffffffffffffffffffffffffffffffff82169050919050565b5f6116968261166d565b9050919050565b6116a68161168c565b81146116b0575f80fd5b50565b5f813590506116c18161169d565b92915050565b5f819050919050565b6116d9816116c7565b81146116e3575f80fd5b50565b5f813590506116f4816116d0565b92915050565b5f80604083850312156117105761170f611669565b5b5f61171d858286016116b3565b925050602061172e858286016116e6565b9150509250929050565b5f8115159050919050565b61174c81611738565b82525050565b5f6020820190506117655f830184611743565b92915050565b611774816116c7565b82525050565b5f60208201905061178d5f83018461176b565b92915050565b5f805f606084860312156117aa576117a9611669565b5b5f6117b7868287016116b3565b93505060206117c8868287016116b3565b92505060406117d9868287016116e6565b9150509250925092565b5f602082840312156117f8576117f7611669565b5b5f611805848285016116e6565b91505092915050565b5f6040820190506118215f83018561176b565b61182e602083018461176b565b9392505050565b5f60ff82169050919050565b61184a81611835565b82525050565b5f6020820190506118635f830184611841565b92915050565b5f819050919050565b61187b81611869565b82525050565b5f6020820190506118945f830184611872565b92915050565b5f602082840312156118af576118ae611669565b5b5f6118bc848285016116b3565b91505092915050565b6118ce8161168c565b82525050565b5f6020820190506118e75f8301846118c5565b92915050565b6118f681611835565b8114611900575f80fd5b50565b5f81359050611911816118ed565b92915050565b61192081611869565b811461192a575f80fd5b50565b5f8135905061193b81611917565b92915050565b5f805f805f805f60e0888a03121561195c5761195b611669565b5b5f6119698a828b016116b3565b975050602061197a8a828b016116b3565b965050604061198b8a828b016116e6565b955050606061199c8a828b016116e6565b94505060806119ad8a828b01611903565b93505060a06119be8a828b0161192d565b92505060c06119cf8a828b0161192d565b91505092959891949750929550565b5f80604083850312156119f4576119f3611669565b5b5f611a01858286016116b3565b9250506020611a12858286016116b3565b9150509250929050565b5f8060408385031215611a3257611a31611669565b5b5f611a3f858286016116e6565b9250506020611a50858286016116e6565b9150509250929050565b5f81905092915050565b5f611a6e826115bf565b611a788185611a5a565b9350611a888185602086016115d9565b80840191505092915050565b7f4e487b71000000000000000000000000000000000000000000000000000000005f52602260045260245ffd5b5f6002820490506001821680611ad857607f821691505b602082108103611aeb57611aea611a94565b5b50919050565b5f819050815f5260205f209050919050565b5f8154611b0f81611ac1565b611b198186611a5a565b9450600182165f8114611b335760018114611b4857611b7a565b60ff1983168652811515820286019350611b7a565b611b5185611af1565b5f5b83811015611b7257815481890152600182019150602081019050611b53565b838801955050505b50505092915050565b5f611b8e8285611a64565b9150611b9a8284611b03565b91508190509392505050565b7f4e487b71000000000000000000000000000000000000000000000000000000005f52601160045260245ffd5b5f611bdd826116c7565b9150611be8836116c7565b9250828202611bf6816116c7565b91508282048414831517611c0d57611c0c611ba6565b5b5092915050565b7f4e487b71000000000000000000000000000000000000000000000000000000005f52601260045260245ffd5b5f611c4b826116c7565b9150611c56836116c7565b925082611c6657611c65611c14565b5b828204905092915050565b5f611c7b826116c7565b9150611c86836116c7565b9250828203905081811115611c9e57611c9d611ba6565b5b92915050565b5f608082019050611cb75f8301876118c5565b611cc4602083018661176b565b611cd1604083018561176b565b611cde606083018461176b565b95945050505050565b5f81519050611cf5816116d0565b92915050565b5f60208284031215611d1057611d0f611669565b5b5f611d1d84828501611ce7565b91505092915050565b5f611d30826116c7565b9150611d3b836116c7565b9250828201905080821115611d5357611d52611ba6565b5b92915050565b5f608082019050611d6c5f8301876118c5565b611d7960208301866118c5565b611d86604083018561176b565b611d93606083018461176b565b95945050505050565b5f606082019050611daf5f8301866118c5565b611dbc60208301856118c5565b611dc9604083018461176b565b949350505050565b611dda81611738565b8114611de4575f80fd5b50565b5f81519050611df581611dd1565b92915050565b5f60208284031215611e1057611e0f611669565b5b5f611e1d84828501611de7565b9150509291505056fea2646970667358221220d3822fa27d4e75ffb98dcdfc95a31e524730bd2a3d290170f5882671637a357064736f6c63430008140033",
			"opcodes": "PUSH1 0x80 PUSH1 0x40 MSTORE CALLVALUE DUP1 ISZERO PUSH3 0x10 JUMPI PUSH0 DUP1 REVERT JUMPDEST POP PUSH1 0x40 MLOAD PUSH3 0x267E CODESIZE SUB DUP1 PUSH3 0x267E DUP4 CODECOPY DUP2 DUP2 ADD PUSH1 0x40 MSTORE DUP2 ADD SWAP1 PUSH3 0x36 SWAP2 SWAP1 PUSH3 0x28A JUMP JUMPDEST DUP2 PUSH20 0xFFFFFFFFFFFFFFFFFFFFFFFFFFFFFFFFFFFFFFFF AND PUSH4 0x95D89B41 PUSH1 0x40 MLOAD DUP2 PUSH4 0xFFFFFFFF AND PUSH1 0xE0 SHL DUP2 MSTORE PUSH1 0x4 ADD PUSH0 PUSH1 0x40 MLOAD DUP1 DUP4 SUB DUP2 DUP7 GAS STATICCALL ISZERO DUP1 ISZERO PUSH3 0x7F JUMPI RETURNDATASIZE PUSH0 DUP1 RETURNDATACOPY RETURNDATASIZE PUSH0 REVERT JUMPDEST POP POP POP POP PUSH1 0x40 MLOAD RETURNDATASIZE PUSH0 DUP3 RETURNDATACOPY RETURNDATASIZE PUSH1 0x1F NOT PUSH1 0x1F DUP3 ADD AND DUP3 ADD DUP1 PUSH1 0x40 MSTORE POP DUP2 ADD SWAP1 PUSH3 0xA9 SWAP2 SWAP1 PUSH3 0x443 JUMP JUMPDEST DUP2 PUSH20 0xFFFFFFFFFFFFFFFFFFFFFFFFFFFFFFFFFFFFFFFF AND PUSH4 0x95D89B41 PUSH1 0x40 MLOAD DUP2 PUSH4 0xFFFFFFFF AND PUSH1 0xE0 SHL DUP2 MSTORE PUSH1 0x4 ADD PUSH0 PUSH1 0x40 MLOAD DUP1 DUP4 SUB DUP2 DUP7 GAS STATICCALL ISZERO DUP1 ISZERO PUSH3 0xF2 JUMPI RETURNDATASIZE PUSH0 DUP1 RETURNDATACOPY RETURNDATASIZE PUSH0 REVERT JUMPDEST POP POP POP POP PUSH1 0x40 MLOAD RETURNDATASIZE PUSH0 DUP3 RETURNDATACOPY RETURNDATASIZE PUSH1 0x1F NOT PUSH1 0x1F DUP3 ADD AND DUP3 ADD DUP1 PUSH1 0x40 MSTORE POP DUP2 ADD SWAP1 PUSH3 0x11C SWAP2 SWAP1 PUSH3 0x443 JUMP JUMPDEST PUSH1 0x40 MLOAD PUSH1 0x20 ADD PUSH3 0x12F SWAP3 SWAP2 SWAP1 PUSH3 0x4DC JUMP JUMPDEST PUSH1 0x40 MLOAD PUSH1 0x20 DUP2 DUP4 SUB SUB DUP2 MSTORE SWAP1 PUSH1 0x40 MSTORE DUP1 PUSH0 SWAP1 DUP2 PUSH3 0x14E SWAP2 SWAP1 PUSH3 0x730 JUMP JUMPDEST POP POP CALLER PUSH1 0x1 PUSH0 PUSH2 0x100 EXP DUP2 SLOAD DUP2 PUSH20 0xFFFFFFFFFFFFFFFFFFFFFFFFFFFFFFFFFFFFFFFF MUL NOT AND SWAP1 DUP4 PUSH20 0xFFFFFFFFFFFFFFFFFFFFFFFFFFFFFFFFFFFFFFFF AND MUL OR SWAP1 SSTORE POP DUP2 PUSH1 0x2 PUSH0 PUSH2 0x100 EXP DUP2 SLOAD DUP2 PUSH20 0xFFFFFFFFFFFFFFFFFFFFFFFFFFFFFFFFFFFFFFFF MUL NOT AND SWAP1 DUP4 PUSH20 0xFFFFFFFFFFFFFFFFFFFFFFFFFFFFFFFFFFFFFFFF AND MUL OR SWAP1 SSTORE POP DUP1 PUSH1 0x3 PUSH0 PUSH2 0x100 EXP DUP2 SLOAD DUP2 PUSH20 0xFFFFFFFFFFFFFFFFFFFFFFFFFFFFFFFFFFFFFFFF MUL NOT AND SWAP1 DUP4 PUSH20 0xFFFFFFFFFFFFFFFFFFFFFFFFFFFFFFFFFFFFFFFF AND MUL OR SWAP1 SSTORE POP POP POP PUSH3 0x814 JUMP JUMPDEST PUSH0 PUSH1 0x40 MLOAD SWAP1 POP SWAP1 JUMP JUMPDEST PUSH0 DUP1 REVERT JUMPDEST PUSH0 DUP1 REVERT JUMPDEST PUSH0 PUSH20 0xFFFFFFFFFFFFFFFFFFFFFFFFFFFFFFFFFFFFFFFF DUP3 AND SWAP1 POP SWAP2 SWAP1 POP JUMP JUMPDEST PUSH0 PUSH3 0x254 DUP3 PUSH3 0x229 JUMP JUMPDEST SWAP1 POP SWAP2 SWAP1 POP JUMP JUMPDEST PUSH3 0x266 DUP2 PUSH3 0x248 JUMP JUMPDEST DUP2 EQ PUSH3 0x271 JUMPI PUSH0 DUP1 REVERT JUMPDEST POP JUMP JUMPDEST PUSH0 DUP2 MLOAD SWAP1 POP PUSH3 0x284 DUP2 PUSH3 0x25B JUMP JUMPDEST SWAP3 SWAP2 POP POP JUMP JUMPDEST PUSH0 DUP1 PUSH1 0x40 DUP4 DUP6 SUB SLT ISZERO PUSH3 0x2A3 JUMPI PUSH3 0x2A2 PUSH3 0x221 JUMP JUMPDEST JUMPDEST PUSH0 PUSH3 0x2B2 DUP6 DUP3 DUP7 ADD PUSH3 0x274 JUMP JUMPDEST SWAP3 POP POP PUSH1 0x20 PUSH3 0x2C5 DUP6 DUP3 DUP7 ADD PUSH3 0x274 JUMP JUMPDEST SWAP2 POP POP SWAP3 POP SWAP3 SWAP1 POP JUMP JUMPDEST PUSH0 DUP1 REVERT JUMPDEST PUSH0 DUP1 REVERT JUMPDEST PUSH0 PUSH1 0x1F NOT PUSH1 0x1F DUP4 ADD AND SWAP1 POP SWAP2 SWAP1 POP JUMP JUMPDEST PUSH32 0x4E487B7100000000000000000000000000000000000000000000000000000000 PUSH0 MSTORE PUSH1 0x41 PUSH1 0x4 MSTORE PUSH1 0x24 PUSH0 REVERT JUMPDEST PUSH3 0x31F DUP3 PUSH3 0x2D7 JUMP JUMPDEST DUP2 ADD DUP2 DUP2 LT PUSH8 0xFFFFFFFFFFFFFFFF DUP3 GT OR ISZERO PUSH3 0x341 JUMPI PUSH3 0x340 PUSH3 0x2E7 JUMP JUMPDEST JUMPDEST DUP1 PUSH1 0x40 MSTORE POP POP POP JUMP JUMPDEST PUSH0 PUSH3 0x355 PUSH3 0x218 JUMP JUMPDEST SWAP1 POP PUSH3 0x363 DUP3 DUP3 PUSH3 0x314 JUMP JUMPDEST SWAP2 SWAP1 POP JUMP JUMPDEST PUSH0 PUSH8 0xFFFFFFFFFFFFFFFF DUP3 GT ISZERO PUSH3 0x385 JUMPI PUSH3 0x384 PUSH3 0x2E7 JUMP JUMPDEST JUMPDEST PUSH3 0x390 DUP3 PUSH3 0x2D7 JUMP JUMPDEST SWAP1 POP PUSH1 0x20 DUP2 ADD SWAP1 POP SWAP2 SWAP1 POP JUMP JUMPDEST PUSH0 JUMPDEST DUP4 DUP2 LT ISZERO PUSH3 0x3BC JUMPI DUP1 DUP3 ADD MLOAD DUP2 DUP5 ADD MSTORE PUSH1 0x20 DUP2 ADD SWAP1 POP PUSH3 0x39F JUMP JUMPDEST PUSH0 DUP5 DUP5 ADD MSTORE POP POP POP POP JUMP JUMPDEST PUSH0 PUSH3 0x3DD PUSH3 0x3D7 DUP5 PUSH3 0x368 JUMP JUMPDEST PUSH3 0x34A JUMP JUMPDEST SWAP1 POP DUP3 DUP2 MSTORE PUSH1 0x20 DUP2 ADD DUP5 DUP5 DUP5 ADD GT ISZERO PUSH3 0x3FC JUMPI PUSH3 0x3FB PUSH3 0x2D3 JUMP JUMPDEST JUMPDEST PUSH3 0x409 DUP5 DUP3 DUP6 PUSH3 0x39D JUMP JUMPDEST POP SWAP4 SWAP3 POP POP POP JUMP JUMPDEST PUSH0 DUP3 PUSH1 0x1F DUP4 ADD SLT PUSH3 0x428 JUMPI PUSH3 0x427 PUSH3 0x2CF JUMP JUMPDEST JUMPDEST DUP2 MLOAD PUSH3 0x43A DUP5 DUP3 PUSH1 0x20 DUP7 ADD PUSH3 0x3C7 JUMP JUMPDEST SWAP2 POP POP SWAP3 SWAP2 POP POP JUMP JUMPDEST PUSH0 PUSH1 0x20 DUP3 DUP5 SUB SLT ISZERO PUSH3 0x45B JUMPI PUSH3 0x45A PUSH3 0x221 JUMP JUMPDEST JUMPDEST PUSH0 DUP3 ADD MLOAD PUSH8 0xFFFFFFFFFFFFFFFF DUP2 GT ISZERO PUSH3 0x47B JUMPI PUSH3 0x47A PUSH3 0x225 JUMP JUMPDEST JUMPDEST PUSH3 0x489 DUP5 DUP3 DUP6 ADD PUSH3 0x411 JUMP JUMPDEST SWAP2 POP POP SWAP3 SWAP2 POP POP JUMP JUMPDEST PUSH0 DUP2 MLOAD SWAP1 POP SWAP2 SWAP1 POP JUMP JUMPDEST PUSH0 DUP2 SWAP1 POP SWAP3 SWAP2 POP POP JUMP JUMPDEST PUSH0 PUSH3 0x4B2 DUP3 PUSH3 0x492 JUMP JUMPDEST PUSH3 0x4BE DUP2 DUP6 PUSH3 0x49C JUMP JUMPDEST SWAP4 POP PUSH3 0x4D0 DUP2 DUP6 PUSH1 0x20 DUP7 ADD PUSH3 0x39D JUMP JUMPDEST DUP1 DUP5 ADD SWAP2 POP POP SWAP3 SWAP2 POP POP JUMP JUMPDEST PUSH0 PUSH3 0x4E9 DUP3 DUP6 PUSH3 0x4A6 JUMP JUMPDEST SWAP2 POP PUSH3 0x4F7 DUP3 DUP5 PUSH3 0x4A6 JUMP JUMPDEST SWAP2 POP DUP2 SWAP1 POP SWAP4 SWAP3 POP POP POP JUMP JUMPDEST PUSH32 0x4E487B7100000000000000000000000000000000000000000000000000000000 PUSH0 MSTORE PUSH1 0x22 PUSH1 0x4 MSTORE PUSH1 0x24 PUSH0 REVERT JUMPDEST PUSH0 PUSH1 0x2 DUP3 DIV SWAP1 POP PUSH1 0x1 DUP3 AND DUP1 PUSH3 0x548 JUMPI PUSH1 0x7F DUP3 AND SWAP2 POP JUMPDEST PUSH1 0x20 DUP3 LT DUP2 SUB PUSH3 0x55E JUMPI PUSH3 0x55D PUSH3 0x503 JUMP JUMPDEST JUMPDEST POP SWAP2 SWAP1 POP JUMP JUMPDEST PUSH0 DUP2 SWAP1 POP DUP2 PUSH0 MSTORE PUSH1 0x20 PUSH0 KECCAK256 SWAP1 POP SWAP2 SWAP1 POP JUMP JUMPDEST PUSH0 PUSH1 0x20 PUSH1 0x1F DUP4 ADD DIV SWAP1 POP SWAP2 SWAP1 POP JUMP JUMPDEST PUSH0 DUP3 DUP3 SHL SWAP1 POP SWAP3 SWAP2 POP POP JUMP JUMPDEST PUSH0 PUSH1 0x8 DUP4 MUL PUSH3 0x5C2 PUSH32 0xFFFFFFFFFFFFFFFFFFFFFFFFFFFFFFFFFFFFFFFFFFFFFFFFFFFFFFFFFFFFFFFF DUP3 PUSH3 0x585 JUMP JUMPDEST PUSH3 0x5CE DUP7 DUP4 PUSH3 0x585 JUMP JUMPDEST SWAP6 POP DUP1 NOT DUP5 AND SWAP4 POP DUP1 DUP7 AND DUP5 OR SWAP3 POP POP POP SWAP4 SWAP3 POP POP POP JUMP JUMPDEST PUSH0 DUP2 SWAP1 POP SWAP2 SWAP1 POP JUMP JUMPDEST PUSH0 DUP2 SWAP1 POP SWAP2 SWAP1 POP JUMP JUMPDEST PUSH0 PUSH3 0x618 PUSH3 0x612 PUSH3 0x60C DUP5 PUSH3 0x5E6 JUMP JUMPDEST PUSH3 0x5EF JUMP JUMPDEST PUSH3 0x5E6 JUMP JUMPDEST SWAP1 POP SWAP2 SWAP1 POP JUMP JUMPDEST PUSH0 DUP2 SWAP1 POP SWAP2 SWAP1 POP JUMP JUMPDEST PUSH3 0x633 DUP4 PUSH3 0x5F8 JUMP JUMPDEST PUSH3 0x64B PUSH3 0x642 DUP3 PUSH3 0x61F JUMP JUMPDEST DUP5 DUP5 SLOAD PUSH3 0x591 JUMP JUMPDEST DUP3 SSTORE POP POP POP POP JUMP JUMPDEST PUSH0 SWAP1 JUMP JUMPDEST PUSH3 0x661 PUSH3 0x653 JUMP JUMPDEST PUSH3 0x66E DUP2 DUP5 DUP5 PUSH3 0x628 JUMP JUMPDEST POP POP POP JUMP JUMPDEST JUMPDEST DUP2 DUP2 LT ISZERO PUSH3 0x695 JUMPI PUSH3 0x689 PUSH0 DUP3 PUSH3 0x657 JUMP JUMPDEST PUSH1 0x1 DUP2 ADD SWAP1 POP PUSH3 0x674 JUMP JUMPDEST POP POP JUMP JUMPDEST PUSH1 0x1F DUP3 GT ISZERO PUSH3 0x6E4 JUMPI PUSH3 0x6AE DUP2 PUSH3 0x564 JUMP JUMPDEST PUSH3 0x6B9 DUP5 PUSH3 0x576 JUMP JUMPDEST DUP2 ADD PUSH1 0x20 DUP6 LT ISZERO PUSH3 0x6C9 JUMPI DUP2 SWAP1 POP JUMPDEST PUSH3 0x6E1 PUSH3 0x6D8 DUP6 PUSH3 0x576 JUMP JUMPDEST DUP4 ADD DUP3 PUSH3 0x673 JUMP JUMPDEST POP POP JUMPDEST POP POP POP JUMP JUMPDEST PUSH0 DUP3 DUP3 SHR SWAP1 POP SWAP3 SWAP2 POP POP JUMP JUMPDEST PUSH0 PUSH3 0x706 PUSH0 NOT DUP5 PUSH1 0x8 MUL PUSH3 0x6E9 JUMP JUMPDEST NOT DUP1 DUP4 AND SWAP2 POP POP SWAP3 SWAP2 POP POP JUMP JUMPDEST PUSH0 PUSH3 0x720 DUP4 DUP4 PUSH3 0x6F5 JUMP JUMPDEST SWAP2 POP DUP3 PUSH1 0x2 MUL DUP3 OR SWAP1 POP SWAP3 SWAP2 POP POP JUMP JUMPDEST PUSH3 0x73B DUP3 PUSH3 0x492 JUMP JUMPDEST PUSH8 0xFFFFFFFFFFFFFFFF DUP2 GT ISZERO PUSH3 0x757 JUMPI PUSH3 0x756 PUSH3 0x2E7 JUMP JUMPDEST JUMPDEST PUSH3 0x763 DUP3 SLOAD PUSH3 0x530 JUMP JUMPDEST PUSH3 0x770 DUP3 DUP3 DUP6 PUSH3 0x699 JUMP JUMPDEST PUSH0 PUSH1 0x20 SWAP1 POP PUSH1 0x1F DUP4 GT PUSH1 0x1 DUP2 EQ PUSH3 0x7A6 JUMPI PUSH0 DUP5 ISZERO PUSH3 0x791 JUMPI DUP3 DUP8 ADD MLOAD SWAP1 POP JUMPDEST PUSH3 0x79D DUP6 DUP3 PUSH3 0x713 JUMP JUMPDEST DUP7 SSTORE POP PUSH3 0x80C JUMP JUMPDEST PUSH1 0x1F NOT DUP5 AND PUSH3 0x7B6 DUP7 PUSH3 0x564 JUMP JUMPDEST PUSH0 JUMPDEST DUP3 DUP2 LT ISZERO PUSH3 0x7DF JUMPI DUP5 DUP10 ADD MLOAD DUP3 SSTORE PUSH1 0x1 DUP3 ADD SWAP2 POP PUSH1 0x20 DUP6 ADD SWAP5 POP PUSH1 0x20 DUP2 ADD SWAP1 POP PUSH3 0x7B8 JUMP JUMPDEST DUP7 DUP4 LT ISZERO PUSH3 0x7FF JUMPI DUP5 DUP10 ADD MLOAD PUSH3 0x7FB PUSH1 0x1F DUP10 AND DUP3 PUSH3 0x6F5 JUMP JUMPDEST DUP4 SSTORE POP JUMPDEST PUSH1 0x1 PUSH1 0x2 DUP9 MUL ADD DUP9 SSTORE POP POP POP JUMPDEST POP POP POP POP POP POP JUMP JUMPDEST PUSH2 0x1E5C DUP1 PUSH3 0x822 PUSH0 CODECOPY PUSH0 RETURN INVALID PUSH1 0x80 PUSH1 0x40 MSTORE CALLVALUE DUP1 ISZERO PUSH2 0xF JUMPI PUSH0 DUP1 REVERT JUMPDEST POP PUSH1 0x4 CALLDATASIZE LT PUSH2 0x114 JUMPI PUSH0 CALLDATALOAD PUSH1 0xE0 SHR DUP1 PUSH4 0x7ECEBE00 GT PUSH2 0xA0 JUMPI DUP1 PUSH4 0xC45A0155 GT PUSH2 0x6F JUMPI DUP1 PUSH4 0xC45A0155 EQ PUSH2 0x32F JUMPI DUP1 PUSH4 0xD004F0F7 EQ PUSH2 0x34D JUMPI DUP1 PUSH4 0xD505ACCF EQ PUSH2 0x37D JUMPI DUP1 PUSH4 0xDD62ED3E EQ PUSH2 0x399 JUMPI DUP1 PUSH4 0xE2BBB158 EQ PUSH2 0x3C9 JUMPI PUSH2 0x114 JUMP JUMPDEST DUP1 PUSH4 0x7ECEBE00 EQ PUSH2 0x281 JUMPI DUP1 PUSH4 0x8F79306E EQ PUSH2 0x2B1 JUMPI DUP1 PUSH4 0x95D89B41 EQ PUSH2 0x2E1 JUMPI DUP1 PUSH4 0xA9059CBB EQ PUSH2 0x2FF JUMPI PUSH2 0x114 JUMP JUMPDEST DUP1 PUSH4 0x2E1A7D4D GT PUSH2 0xE7 JUMPI DUP1 PUSH4 0x2E1A7D4D EQ PUSH2 0x1B4 JUMPI DUP1 PUSH4 0x313CE567 EQ PUSH2 0x1E5 JUMPI DUP1 PUSH4 0x3644E515 EQ PUSH2 0x203 JUMPI DUP1 PUSH4 0x677342CE EQ PUSH2 0x221 JUMPI DUP1 PUSH4 0x70A08231 EQ PUSH2 0x251 JUMPI PUSH2 0x114 JUMP JUMPDEST DUP1 PUSH4 0x6FDDE03 EQ PUSH2 0x118 JUMPI DUP1 PUSH4 0x95EA7B3 EQ PUSH2 0x136 JUMPI DUP1 PUSH4 0x18160DDD EQ PUSH2 0x166 JUMPI DUP1 PUSH4 0x23B872DD EQ PUSH2 0x184 JUMPI JUMPDEST PUSH0 DUP1 REVERT JUMPDEST PUSH2 0x120 PUSH2 0x3F9 JUMP JUMPDEST PUSH1 0x40 MLOAD PUSH2 0x12D SWAP2 SWAP1 PUSH2 0x1649 JUMP JUMPDEST PUSH1 0x40 MLOAD DUP1 SWAP2 SUB SWAP1 RETURN JUMPDEST PUSH2 0x150 PUSH1 0x4 DUP1 CALLDATASIZE SUB DUP2 ADD SWAP1 PUSH2 0x14B SWAP2 SWAP1 PUSH2 0x16FA JUMP JUMPDEST PUSH2 0x457 JUMP JUMPDEST PUSH1 0x40 MLOAD PUSH2 0x15D SWAP2 SWAP1 PUSH2 0x1752 JUMP JUMPDEST PUSH1 0x40 MLOAD DUP1 SWAP2 SUB SWAP1 RETURN JUMPDEST PUSH2 0x16E PUSH2 0x4A7 JUMP JUMPDEST PUSH1 0x40 MLOAD PUSH2 0x17B SWAP2 SWAP1 PUSH2 0x177A JUMP JUMPDEST PUSH1 0x40 MLOAD DUP1 SWAP2 SUB SWAP1 RETURN JUMPDEST PUSH2 0x19E PUSH1 0x4 DUP1 CALLDATASIZE SUB DUP2 ADD SWAP1 PUSH2 0x199 SWAP2 SWAP1 PUSH2 0x1793 JUMP JUMPDEST PUSH2 0x4B8 JUMP JUMPDEST PUSH1 0x40 MLOAD PUSH2 0x1AB SWAP2 SWAP1 PUSH2 0x1752 JUMP JUMPDEST PUSH1 0x40 MLOAD DUP1 SWAP2 SUB SWAP1 RETURN JUMPDEST PUSH2 0x1CE PUSH1 0x4 DUP1 CALLDATASIZE SUB DUP2 ADD SWAP1 PUSH2 0x1C9 SWAP2 SWAP1 PUSH2 0x17E3 JUMP JUMPDEST PUSH2 0x589 JUMP JUMPDEST PUSH1 0x40 MLOAD PUSH2 0x1DC SWAP3 SWAP2 SWAP1 PUSH2 0x180E JUMP JUMPDEST PUSH1 0x40 MLOAD DUP1 SWAP2 SUB SWAP1 RETURN JUMPDEST PUSH2 0x1ED PUSH2 0x729 JUMP JUMPDEST PUSH1 0x40 MLOAD PUSH2 0x1FA SWAP2 SWAP1 PUSH2 0x1850 JUMP JUMPDEST PUSH1 0x40 MLOAD DUP1 SWAP2 SUB SWAP1 RETURN JUMPDEST PUSH2 0x20B PUSH2 0x731 JUMP JUMPDEST PUSH1 0x40 MLOAD PUSH2 0x218 SWAP2 SWAP1 PUSH2 0x1881 JUMP JUMPDEST PUSH1 0x40 MLOAD DUP1 SWAP2 SUB SWAP1 RETURN JUMPDEST PUSH2 0x23B PUSH1 0x4 DUP1 CALLDATASIZE SUB DUP2 ADD SWAP1 PUSH2 0x236 SWAP2 SWAP1 PUSH2 0x17E3 JUMP JUMPDEST PUSH2 0x7C1 JUMP JUMPDEST PUSH1 0x40 MLOAD PUSH2 0x248 SWAP2 SWAP1 PUSH2 0x177A JUMP JUMPDEST PUSH1 0x40 MLOAD DUP1 SWAP2 SUB SWAP1 RETURN JUMPDEST PUSH2 0x26B PUSH1 0x4 DUP1 CALLDATASIZE SUB DUP2 ADD SWAP1 PUSH2 0x266 SWAP2 SWAP1 PUSH2 0x189A JUMP JUMPDEST PUSH2 0x95B JUMP JUMPDEST PUSH1 0x40 MLOAD PUSH2 0x278 SWAP2 SWAP1 PUSH2 0x177A JUMP JUMPDEST PUSH1 0x40 MLOAD DUP1 SWAP2 SUB SWAP1 RETURN JUMPDEST PUSH2 0x29B PUSH1 0x4 DUP1 CALLDATASIZE SUB DUP2 ADD SWAP1 PUSH2 0x296 SWAP2 SWAP1 PUSH2 0x189A JUMP JUMPDEST PUSH2 0x974 JUMP JUMPDEST PUSH1 0x40 MLOAD PUSH2 0x2A8 SWAP2 SWAP1 PUSH2 0x177A JUMP JUMPDEST PUSH1 0x40 MLOAD DUP1 SWAP2 SUB SWAP1 RETURN JUMPDEST PUSH2 0x2CB PUSH1 0x4 DUP1 CALLDATASIZE SUB DUP2 ADD SWAP1 PUSH2 0x2C6 SWAP2 SWAP1 PUSH2 0x16FA JUMP JUMPDEST PUSH2 0x98D JUMP JUMPDEST PUSH1 0x40 MLOAD PUSH2 0x2D8 SWAP2 SWAP1 PUSH2 0x177A JUMP JUMPDEST PUSH1 0x40 MLOAD DUP1 SWAP2 SUB SWAP1 RETURN JUMPDEST PUSH2 0x2E9 PUSH2 0xABC JUMP JUMPDEST PUSH1 0x40 MLOAD PUSH2 0x2F6 SWAP2 SWAP1 PUSH2 0x1649 JUMP JUMPDEST PUSH1 0x40 MLOAD DUP1 SWAP2 SUB SWAP1 RETURN JUMPDEST PUSH2 0x319 PUSH1 0x4 DUP1 CALLDATASIZE SUB DUP2 ADD SWAP1 PUSH2 0x314 SWAP2 SWAP1 PUSH2 0x16FA JUMP JUMPDEST PUSH2 0xB4B JUMP JUMPDEST PUSH1 0x40 MLOAD PUSH2 0x326 SWAP2 SWAP1 PUSH2 0x1752 JUMP JUMPDEST PUSH1 0x40 MLOAD DUP1 SWAP2 SUB SWAP1 RETURN JUMPDEST PUSH2 0x337 PUSH2 0xBD9 JUMP JUMPDEST PUSH1 0x40 MLOAD PUSH2 0x344 SWAP2 SWAP1 PUSH2 0x18D4 JUMP JUMPDEST PUSH1 0x40 MLOAD DUP1 SWAP2 SUB SWAP1 RETURN JUMPDEST PUSH2 0x367 PUSH1 0x4 DUP1 CALLDATASIZE SUB DUP2 ADD SWAP1 PUSH2 0x362 SWAP2 SWAP1 PUSH2 0x16FA JUMP JUMPDEST PUSH2 0xBFE JUMP JUMPDEST PUSH1 0x40 MLOAD PUSH2 0x374 SWAP2 SWAP1 PUSH2 0x177A JUMP JUMPDEST PUSH1 0x40 MLOAD DUP1 SWAP2 SUB SWAP1 RETURN JUMPDEST PUSH2 0x397 PUSH1 0x4 DUP1 CALLDATASIZE SUB DUP2 ADD SWAP1 PUSH2 0x392 SWAP2 SWAP1 PUSH2 0x1941 JUMP JUMPDEST PUSH2 0xF63 JUMP JUMPDEST STOP JUMPDEST PUSH2 0x3B3 PUSH1 0x4 DUP1 CALLDATASIZE SUB DUP2 ADD SWAP1 PUSH2 0x3AE SWAP2 SWAP1 PUSH2 0x19DE JUMP JUMPDEST PUSH2 0x10FF JUMP JUMPDEST PUSH1 0x40 MLOAD PUSH2 0x3C0 SWAP2 SWAP1 PUSH2 0x177A JUMP JUMPDEST PUSH1 0x40 MLOAD DUP1 SWAP2 SUB SWAP1 RETURN JUMPDEST PUSH2 0x3E3 PUSH1 0x4 DUP1 CALLDATASIZE SUB DUP2 ADD SWAP1 PUSH2 0x3DE SWAP2 SWAP1 PUSH2 0x1A1C JUMP JUMPDEST PUSH2 0x111D JUMP JUMPDEST PUSH1 0x40 MLOAD PUSH2 0x3F0 SWAP2 SWAP1 PUSH2 0x177A JUMP JUMPDEST PUSH1 0x40 MLOAD DUP1 SWAP2 SUB SWAP1 RETURN JUMPDEST PUSH1 0x60 PUSH1 0x40 MLOAD DUP1 PUSH1 0x40 ADD PUSH1 0x40 MSTORE DUP1 PUSH1 0x5 DUP2 MSTORE PUSH1 0x20 ADD PUSH32 0x4D494E492D000000000000000000000000000000000000000000000000000000 DUP2 MSTORE POP PUSH0 PUSH1 0x40 MLOAD PUSH1 0x20 ADD PUSH2 0x443 SWAP3 SWAP2 SWAP1 PUSH2 0x1B83 JUMP JUMPDEST PUSH1 0x40 MLOAD PUSH1 0x20 DUP2 DUP4 SUB SUB DUP2 MSTORE SWAP1 PUSH1 0x40 MSTORE SWAP1 POP SWAP1 JUMP JUMPDEST PUSH0 DUP3 PUSH1 0x20 MSTORE PUSH4 0x7F5E9F20 PUSH1 0xC MSTORE CALLER PUSH0 MSTORE DUP2 PUSH1 0x34 PUSH1 0xC KECCAK256 SSTORE DUP2 PUSH0 MSTORE PUSH1 0x2C MLOAD PUSH1 0x60 SHR CALLER PUSH32 0x8C5BE1E5EBEC7D5BD14F71427D1E84F3DD0314C0F7B2291E5B200AC8C7C3B925 PUSH1 0x20 PUSH0 LOG3 PUSH1 0x1 SWAP1 POP SWAP3 SWAP2 POP POP JUMP JUMPDEST PUSH0 PUSH9 0x5345CDF77EB68F44C SLOAD SWAP1 POP SWAP1 JUMP JUMPDEST PUSH0 PUSH2 0x4C4 DUP5 DUP5 DUP5 PUSH2 0x12E2 JUMP JUMPDEST DUP4 PUSH1 0x60 SHL CALLER PUSH1 0x20 MSTORE PUSH4 0x7F5E9F20 DUP2 OR PUSH1 0xC MSTORE PUSH1 0x34 PUSH1 0xC KECCAK256 DUP1 SLOAD PUSH1 0x1 DUP2 ADD ISZERO PUSH2 0x501 JUMPI DUP1 DUP6 GT ISZERO PUSH2 0x4FB JUMPI PUSH4 0x13BE252B PUSH0 MSTORE PUSH1 0x4 PUSH1 0x1C REVERT JUMPDEST DUP5 DUP2 SUB DUP3 SSTORE JUMPDEST PUSH4 0x87A211A2 DUP4 OR PUSH1 0xC MSTORE PUSH1 0x20 PUSH1 0xC KECCAK256 DUP1 SLOAD DUP1 DUP8 GT ISZERO PUSH2 0x527 JUMPI PUSH4 0xF4D678B8 PUSH0 MSTORE PUSH1 0x4 PUSH1 0x1C REVERT JUMPDEST DUP7 DUP2 SUB DUP3 SSTORE DUP8 PUSH0 MSTORE PUSH1 0x20 PUSH1 0xC KECCAK256 DUP8 DUP2 SLOAD ADD DUP2 SSTORE DUP8 PUSH1 0x20 MSTORE PUSH1 0xC MLOAD PUSH1 0x60 SHR DUP7 PUSH1 0x60 SHR PUSH32 0xDDF252AD1BE2C89B69C2B068FC378DAA952BA7F163C4A11628F55A4DF523B3EF PUSH1 0x20 DUP1 LOG3 POP POP POP POP POP POP PUSH2 0x57E DUP5 DUP5 DUP5 PUSH2 0x12E7 JUMP JUMPDEST PUSH1 0x1 SWAP1 POP SWAP4 SWAP3 POP POP POP JUMP JUMPDEST PUSH0 DUP1 DUP3 PUSH2 0x595 CALLER PUSH2 0x95B JUMP JUMPDEST LT ISZERO PUSH2 0x5CD JUMPI PUSH1 0x40 MLOAD PUSH32 0x50B1F35600000000000000000000000000000000000000000000000000000000 DUP2 MSTORE PUSH1 0x4 ADD PUSH1 0x40 MLOAD DUP1 SWAP2 SUB SWAP1 REVERT JUMPDEST PUSH0 PUSH2 0x5D6 PUSH2 0x4A7 JUMP JUMPDEST SWAP1 POP DUP1 PUSH1 0x4 SLOAD DUP6 PUSH2 0x5E7 SWAP2 SWAP1 PUSH2 0x1BD3 JUMP JUMPDEST PUSH2 0x5F1 SWAP2 SWAP1 PUSH2 0x1C41 JUMP JUMPDEST SWAP3 POP DUP1 PUSH1 0x4 SLOAD DUP6 PUSH2 0x602 SWAP2 SWAP1 PUSH2 0x1BD3 JUMP JUMPDEST PUSH2 0x60C SWAP2 SWAP1 PUSH2 0x1C41 JUMP JUMPDEST SWAP2 POP PUSH0 DUP4 EQ DUP1 PUSH2 0x61B JUMPI POP PUSH0 DUP3 EQ JUMPDEST ISZERO PUSH2 0x652 JUMPI PUSH1 0x40 MLOAD PUSH32 0x2CD294CF00000000000000000000000000000000000000000000000000000000 DUP2 MSTORE PUSH1 0x4 ADD PUSH1 0x40 MLOAD DUP1 SWAP2 SUB SWAP1 REVERT JUMPDEST PUSH2 0x67F PUSH1 0x2 PUSH0 SWAP1 SLOAD SWAP1 PUSH2 0x100 EXP SWAP1 DIV PUSH20 0xFFFFFFFFFFFFFFFFFFFFFFFFFFFFFFFFFFFFFFFF AND ADDRESS CALLER DUP7 PUSH2 0x12EC JUMP JUMPDEST PUSH2 0x6AC PUSH1 0x3 PUSH0 SWAP1 SLOAD SWAP1 PUSH2 0x100 EXP SWAP1 DIV PUSH20 0xFFFFFFFFFFFFFFFFFFFFFFFFFFFFFFFFFFFFFFFF AND ADDRESS CALLER DUP6 PUSH2 0x12EC JUMP JUMPDEST PUSH2 0x6B6 ADDRESS DUP6 PUSH2 0x13AA JUMP JUMPDEST DUP3 PUSH1 0x4 PUSH0 DUP3 DUP3 SLOAD PUSH2 0x6C7 SWAP2 SWAP1 PUSH2 0x1C71 JUMP JUMPDEST SWAP3 POP POP DUP2 SWAP1 SSTORE POP DUP2 PUSH1 0x5 PUSH0 DUP3 DUP3 SLOAD PUSH2 0x6DF SWAP2 SWAP1 PUSH2 0x1C71 JUMP JUMPDEST SWAP3 POP POP DUP2 SWAP1 SSTORE POP PUSH32 0x2F25270A4D87BEA75DB541CDFE559334A275B4A233520ED6C0A2429667CCA94 ADDRESS DUP6 DUP6 DUP6 PUSH1 0x40 MLOAD PUSH2 0x71B SWAP5 SWAP4 SWAP3 SWAP2 SWAP1 PUSH2 0x1CA4 JUMP JUMPDEST PUSH1 0x40 MLOAD DUP1 SWAP2 SUB SWAP1 LOG1 POP SWAP2 POP SWAP2 JUMP JUMPDEST PUSH0 PUSH1 0x12 SWAP1 POP SWAP1 JUMP JUMPDEST PUSH0 DUP1 PUSH2 0x73B PUSH2 0x143A JUMP JUMPDEST SWAP1 POP PUSH0 DUP1 SHL DUP2 SUB PUSH2 0x758 JUMPI PUSH2 0x74E PUSH2 0x3F9 JUMP JUMPDEST DUP1 MLOAD SWAP1 PUSH1 0x20 ADD KECCAK256 SWAP1 POP JUMPDEST PUSH1 0x40 MLOAD PUSH32 0x8B73C3C69BB8FE3D512ECC4CF759CC79239F7B179B0FFACAA9A75D522B39400F DUP2 MSTORE DUP2 PUSH1 0x20 DUP3 ADD MSTORE PUSH32 0xC89EFDAA54C0F20C7ADF612882DF0950F5A951637E0307CDCB4C672F298B8BC6 PUSH1 0x40 DUP3 ADD MSTORE CHAINID PUSH1 0x60 DUP3 ADD MSTORE ADDRESS PUSH1 0x80 DUP3 ADD MSTORE PUSH1 0xA0 DUP2 KECCAK256 SWAP3 POP POP POP SWAP1 JUMP JUMPDEST PUSH0 PUSH1 0x1 DUP3 GT PUSH2 0x7D2 JUMPI DUP2 SWAP1 POP PUSH2 0x956 JUMP JUMPDEST PUSH0 DUP3 SWAP1 POP PUSH0 PUSH1 0x1 SWAP1 POP PUSH17 0x100000000000000000000000000000000 DUP3 LT PUSH2 0x802 JUMPI PUSH1 0x80 DUP3 SWAP1 SHR SWAP2 POP PUSH1 0x40 DUP2 SWAP1 SHL SWAP1 POP JUMPDEST PUSH9 0x10000000000000000 DUP3 LT PUSH2 0x821 JUMPI PUSH1 0x40 DUP3 SWAP1 SHR SWAP2 POP PUSH1 0x20 DUP2 SWAP1 SHL SWAP1 POP JUMPDEST PUSH5 0x100000000 DUP3 LT PUSH2 0x83C JUMPI PUSH1 0x20 DUP3 SWAP1 SHR SWAP2 POP PUSH1 0x10 DUP2 SWAP1 SHL SWAP1 POP JUMPDEST PUSH3 0x10000 DUP3 LT PUSH2 0x855 JUMPI PUSH1 0x10 DUP3 SWAP1 SHR SWAP2 POP PUSH1 0x8 DUP2 SWAP1 SHL SWAP1 POP JUMPDEST PUSH2 0x100 DUP3 LT PUSH2 0x86D JUMPI PUSH1 0x8 DUP3 SWAP1 SHR SWAP2 POP PUSH1 0x4 DUP2 SWAP1 SHL SWAP1 POP JUMPDEST PUSH1 0x10 DUP3 LT PUSH2 0x884 JUMPI PUSH1 0x4 DUP3 SWAP1 SHR SWAP2 POP PUSH1 0x2 DUP2 SWAP1 SHL SWAP1 POP JUMPDEST PUSH1 0x4 DUP3 LT PUSH2 0x894 JUMPI PUSH1 0x1 DUP2 SWAP1 SHL SWAP1 POP JUMPDEST PUSH1 0x1 DUP2 PUSH1 0x3 MUL SWAP1 SHR SWAP1 POP PUSH1 0x1 DUP2 DUP6 DUP2 PUSH2 0x8B0 JUMPI PUSH2 0x8AF PUSH2 0x1C14 JUMP JUMPDEST JUMPDEST DIV DUP3 ADD SWAP1 SHR SWAP1 POP PUSH1 0x1 DUP2 DUP6 DUP2 PUSH2 0x8C9 JUMPI PUSH2 0x8C8 PUSH2 0x1C14 JUMP JUMPDEST JUMPDEST DIV DUP3 ADD SWAP1 SHR SWAP1 POP PUSH1 0x1 DUP2 DUP6 DUP2 PUSH2 0x8E2 JUMPI PUSH2 0x8E1 PUSH2 0x1C14 JUMP JUMPDEST JUMPDEST DIV DUP3 ADD SWAP1 SHR SWAP1 POP PUSH1 0x1 DUP2 DUP6 DUP2 PUSH2 0x8FB JUMPI PUSH2 0x8FA PUSH2 0x1C14 JUMP JUMPDEST JUMPDEST DIV DUP3 ADD SWAP1 SHR SWAP1 POP PUSH1 0x1 DUP2 DUP6 DUP2 PUSH2 0x914 JUMPI PUSH2 0x913 PUSH2 0x1C14 JUMP JUMPDEST JUMPDEST DIV DUP3 ADD SWAP1 SHR SWAP1 POP PUSH1 0x1 DUP2 DUP6 DUP2 PUSH2 0x92D JUMPI PUSH2 0x92C PUSH2 0x1C14 JUMP JUMPDEST JUMPDEST DIV DUP3 ADD SWAP1 SHR SWAP1 POP PUSH2 0x94F DUP2 DUP6 DUP2 PUSH2 0x947 JUMPI PUSH2 0x946 PUSH2 0x1C14 JUMP JUMPDEST JUMPDEST DIV DUP3 GT PUSH2 0x143E JUMP JUMPDEST DUP2 SUB SWAP3 POP POP POP JUMPDEST SWAP2 SWAP1 POP JUMP JUMPDEST PUSH0 PUSH4 0x87A211A2 PUSH1 0xC MSTORE DUP2 PUSH0 MSTORE PUSH1 0x20 PUSH1 0xC KECCAK256 SLOAD SWAP1 POP SWAP2 SWAP1 POP JUMP JUMPDEST PUSH0 PUSH4 0x38377508 PUSH1 0xC MSTORE DUP2 PUSH0 MSTORE PUSH1 0x20 PUSH1 0xC KECCAK256 SLOAD SWAP1 POP SWAP2 SWAP1 POP JUMP JUMPDEST PUSH0 DUP3 PUSH1 0x2 PUSH0 SWAP1 SLOAD SWAP1 PUSH2 0x100 EXP SWAP1 DIV PUSH20 0xFFFFFFFFFFFFFFFFFFFFFFFFFFFFFFFFFFFFFFFF AND PUSH20 0xFFFFFFFFFFFFFFFFFFFFFFFFFFFFFFFFFFFFFFFF AND DUP2 PUSH20 0xFFFFFFFFFFFFFFFFFFFFFFFFFFFFFFFFFFFFFFFF AND EQ ISZERO DUP1 ISZERO PUSH2 0xA39 JUMPI POP PUSH1 0x3 PUSH0 SWAP1 SLOAD SWAP1 PUSH2 0x100 EXP SWAP1 DIV PUSH20 0xFFFFFFFFFFFFFFFFFFFFFFFFFFFFFFFFFFFFFFFF AND PUSH20 0xFFFFFFFFFFFFFFFFFFFFFFFFFFFFFFFFFFFFFFFF AND DUP2 PUSH20 0xFFFFFFFFFFFFFFFFFFFFFFFFFFFFFFFFFFFFFFFF AND EQ ISZERO JUMPDEST ISZERO PUSH2 0xA70 JUMPI PUSH1 0x40 MLOAD PUSH32 0x82BCE52600000000000000000000000000000000000000000000000000000000 DUP2 MSTORE PUSH1 0x4 ADD PUSH1 0x40 MLOAD DUP1 SWAP2 SUB SWAP1 REVERT JUMPDEST PUSH0 DUP4 SUB PUSH2 0xAA9 JUMPI PUSH1 0x40 MLOAD PUSH32 0x8966F48700000000000000000000000000000000000000000000000000000000 DUP2 MSTORE PUSH1 0x4 ADD PUSH1 0x40 MLOAD DUP1 SWAP2 SUB SWAP1 REVERT JUMPDEST PUSH2 0xAB3 DUP5 DUP5 PUSH2 0x1449 JUMP JUMPDEST SWAP2 POP POP SWAP3 SWAP2 POP POP JUMP JUMPDEST PUSH1 0x60 PUSH0 DUP1 SLOAD PUSH2 0xACA SWAP1 PUSH2 0x1AC1 JUMP JUMPDEST DUP1 PUSH1 0x1F ADD PUSH1 0x20 DUP1 SWAP2 DIV MUL PUSH1 0x20 ADD PUSH1 0x40 MLOAD SWAP1 DUP2 ADD PUSH1 0x40 MSTORE DUP1 SWAP3 SWAP2 SWAP1 DUP2 DUP2 MSTORE PUSH1 0x20 ADD DUP3 DUP1 SLOAD PUSH2 0xAF6 SWAP1 PUSH2 0x1AC1 JUMP JUMPDEST DUP1 ISZERO PUSH2 0xB41 JUMPI DUP1 PUSH1 0x1F LT PUSH2 0xB18 JUMPI PUSH2 0x100 DUP1 DUP4 SLOAD DIV MUL DUP4 MSTORE SWAP2 PUSH1 0x20 ADD SWAP2 PUSH2 0xB41 JUMP JUMPDEST DUP3 ADD SWAP2 SWAP1 PUSH0 MSTORE PUSH1 0x20 PUSH0 KECCAK256 SWAP1 JUMPDEST DUP2 SLOAD DUP2 MSTORE SWAP1 PUSH1 0x1 ADD SWAP1 PUSH1 0x20 ADD DUP1 DUP4 GT PUSH2 0xB24 JUMPI DUP3 SWAP1 SUB PUSH1 0x1F AND DUP3 ADD SWAP2 JUMPDEST POP POP POP POP POP SWAP1 POP SWAP1 JUMP JUMPDEST PUSH0 PUSH2 0xB57 CALLER DUP5 DUP5 PUSH2 0x12E2 JUMP JUMPDEST PUSH4 0x87A211A2 PUSH1 0xC MSTORE CALLER PUSH0 MSTORE PUSH1 0x20 PUSH1 0xC KECCAK256 DUP1 SLOAD DUP1 DUP5 GT ISZERO PUSH2 0xB7E JUMPI PUSH4 0xF4D678B8 PUSH0 MSTORE PUSH1 0x4 PUSH1 0x1C REVERT JUMPDEST DUP4 DUP2 SUB DUP3 SSTORE DUP5 PUSH0 MSTORE PUSH1 0x20 PUSH1 0xC KECCAK256 DUP5 DUP2 SLOAD ADD DUP2 SSTORE DUP5 PUSH1 0x20 MSTORE PUSH1 0xC MLOAD PUSH1 0x60 SHR CALLER PUSH32 0xDDF252AD1BE2C89B69C2B068FC378DAA952BA7F163C4A11628F55A4DF523B3EF PUSH1 0x20 DUP1 LOG3 POP POP POP PUSH2 0xBCF CALLER DUP5 DUP5 PUSH2 0x12E7 JUMP JUMPDEST PUSH1 0x1 SWAP1 POP SWAP3 SWAP2 POP POP JUMP JUMPDEST PUSH1 0x1 PUSH0 SWAP1 SLOAD SWAP1 PUSH2 0x100 EXP SWAP1 DIV PUSH20 0xFFFFFFFFFFFFFFFFFFFFFFFFFFFFFFFFFFFFFFFF AND DUP2 JUMP JUMPDEST PUSH0 DUP3 PUSH1 0x2 PUSH0 SWAP1 SLOAD SWAP1 PUSH2 0x100 EXP SWAP1 DIV PUSH20 0xFFFFFFFFFFFFFFFFFFFFFFFFFFFFFFFFFFFFFFFF AND PUSH20 0xFFFFFFFFFFFFFFFFFFFFFFFFFFFFFFFFFFFFFFFF AND DUP2 PUSH20 0xFFFFFFFFFFFFFFFFFFFFFFFFFFFFFFFFFFFFFFFF AND EQ ISZERO DUP1 ISZERO PUSH2 0xCAA JUMPI POP PUSH1 0x3 PUSH0 SWAP1 SLOAD SWAP1 PUSH2 0x100 EXP SWAP1 DIV PUSH20 0xFFFFFFFFFFFFFFFFFFFFFFFFFFFFFFFFFFFFFFFF AND PUSH20 0xFFFFFFFFFFFFFFFFFFFFFFFFFFFFFFFFFFFFFFFF AND DUP2 PUSH20 0xFFFFFFFFFFFFFFFFFFFFFFFFFFFFFFFFFFFFFFFF AND EQ ISZERO JUMPDEST ISZERO PUSH2 0xCE1 JUMPI PUSH1 0x40 MLOAD PUSH32 0x82BCE52600000000000000000000000000000000000000000000000000000000 DUP2 MSTORE PUSH1 0x4 ADD PUSH1 0x40 MLOAD DUP1 SWAP2 SUB SWAP1 REVERT JUMPDEST PUSH0 PUSH1 0x2 PUSH0 SWAP1 SLOAD SWAP1 PUSH2 0x100 EXP SWAP1 DIV PUSH20 0xFFFFFFFFFFFFFFFFFFFFFFFFFFFFFFFFFFFFFFFF AND SWAP1 POP PUSH0 PUSH1 0x3 PUSH0 SWAP1 SLOAD SWAP1 PUSH2 0x100 EXP SWAP1 DIV PUSH20 0xFFFFFFFFFFFFFFFFFFFFFFFFFFFFFFFFFFFFFFFF AND SWAP1 POP PUSH0 DUP6 SUB PUSH2 0xD64 JUMPI PUSH1 0x40 MLOAD PUSH32 0x8966F48700000000000000000000000000000000000000000000000000000000 DUP2 MSTORE PUSH1 0x4 ADD PUSH1 0x40 MLOAD DUP1 SWAP2 SUB SWAP1 REVERT JUMPDEST PUSH2 0xD6E DUP7 DUP7 PUSH2 0x1449 JUMP JUMPDEST SWAP4 POP PUSH0 DUP3 PUSH20 0xFFFFFFFFFFFFFFFFFFFFFFFFFFFFFFFFFFFFFFFF AND DUP8 PUSH20 0xFFFFFFFFFFFFFFFFFFFFFFFFFFFFFFFFFFFFFFFF AND EQ PUSH2 0xDAA JUMPI DUP3 PUSH2 0xDAC JUMP JUMPDEST DUP2 JUMPDEST SWAP1 POP DUP5 PUSH1 0x2 DUP3 PUSH20 0xFFFFFFFFFFFFFFFFFFFFFFFFFFFFFFFFFFFFFFFF AND PUSH4 0x70A08231 ADDRESS PUSH1 0x40 MLOAD DUP3 PUSH4 0xFFFFFFFF AND PUSH1 0xE0 SHL DUP2 MSTORE PUSH1 0x4 ADD PUSH2 0xDEA SWAP2 SWAP1 PUSH2 0x18D4 JUMP JUMPDEST PUSH1 0x20 PUSH1 0x40 MLOAD DUP1 DUP4 SUB DUP2 DUP7 GAS STATICCALL ISZERO DUP1 ISZERO PUSH2 0xE05 JUMPI RETURNDATASIZE PUSH0 DUP1 RETURNDATACOPY RETURNDATASIZE PUSH0 REVERT JUMPDEST POP POP POP POP PUSH1 0x40 MLOAD RETURNDATASIZE PUSH1 0x1F NOT PUSH1 0x1F DUP3 ADD AND DUP3 ADD DUP1 PUSH1 0x40 MSTORE POP DUP2 ADD SWAP1 PUSH2 0xE29 SWAP2 SWAP1 PUSH2 0x1CFB JUMP JUMPDEST PUSH2 0xE33 SWAP2 SWAP1 PUSH2 0x1C41 JUMP JUMPDEST LT ISZERO PUSH2 0xE6B JUMPI PUSH1 0x40 MLOAD PUSH32 0x8CAB1F2800000000000000000000000000000000000000000000000000000000 DUP2 MSTORE PUSH1 0x4 ADD PUSH1 0x40 MLOAD DUP1 SWAP2 SUB SWAP1 REVERT JUMPDEST PUSH2 0xE77 DUP8 CALLER ADDRESS DUP10 PUSH2 0x12EC JUMP JUMPDEST PUSH2 0xE83 DUP2 ADDRESS CALLER DUP9 PUSH2 0x12EC JUMP JUMPDEST DUP3 PUSH20 0xFFFFFFFFFFFFFFFFFFFFFFFFFFFFFFFFFFFFFFFF AND DUP2 PUSH20 0xFFFFFFFFFFFFFFFFFFFFFFFFFFFFFFFFFFFFFFFF AND SUB PUSH2 0xEEB JUMPI DUP5 PUSH1 0x4 PUSH0 DUP3 DUP3 SLOAD PUSH2 0xEC7 SWAP2 SWAP1 PUSH2 0x1C71 JUMP JUMPDEST SWAP3 POP POP DUP2 SWAP1 SSTORE POP DUP6 PUSH1 0x5 PUSH0 DUP3 DUP3 SLOAD PUSH2 0xEDF SWAP2 SWAP1 PUSH2 0x1D26 JUMP JUMPDEST SWAP3 POP POP DUP2 SWAP1 SSTORE POP PUSH2 0xF1C JUMP JUMPDEST DUP6 PUSH1 0x4 PUSH0 DUP3 DUP3 SLOAD PUSH2 0xEFC SWAP2 SWAP1 PUSH2 0x1D26 JUMP JUMPDEST SWAP3 POP POP DUP2 SWAP1 SSTORE POP DUP5 PUSH1 0x5 PUSH0 DUP3 DUP3 SLOAD PUSH2 0xF14 SWAP2 SWAP1 PUSH2 0x1C71 JUMP JUMPDEST SWAP3 POP POP DUP2 SWAP1 SSTORE POP JUMPDEST PUSH32 0xFA2DDA1CC1B86E41239702756B13EFFBC1A092B5C57E3AD320FBE4F3B13FE235 DUP2 DUP9 DUP9 DUP9 PUSH1 0x40 MLOAD PUSH2 0xF51 SWAP5 SWAP4 SWAP3 SWAP2 SWAP1 PUSH2 0x1D59 JUMP JUMPDEST PUSH1 0x40 MLOAD DUP1 SWAP2 SUB SWAP1 LOG1 POP POP POP POP SWAP3 SWAP2 POP POP JUMP JUMPDEST PUSH0 PUSH2 0xF6C PUSH2 0x143A JUMP JUMPDEST SWAP1 POP PUSH0 DUP1 SHL DUP2 SUB PUSH2 0xF89 JUMPI PUSH2 0xF7F PUSH2 0x3F9 JUMP JUMPDEST DUP1 MLOAD SWAP1 PUSH1 0x20 ADD KECCAK256 SWAP1 POP JUMPDEST DUP5 TIMESTAMP GT ISZERO PUSH2 0xF9E JUMPI PUSH4 0x1A15A3CC PUSH0 MSTORE PUSH1 0x4 PUSH1 0x1C REVERT JUMPDEST PUSH1 0x40 MLOAD DUP9 PUSH1 0x60 SHL PUSH1 0x60 SHR SWAP9 POP DUP8 PUSH1 0x60 SHL PUSH1 0x60 SHR SWAP8 POP PUSH6 0x383775081901 PUSH1 0xE MSTORE DUP9 PUSH0 MSTORE PUSH1 0x20 PUSH1 0xC KECCAK256 DUP1 SLOAD PUSH32 0x8B73C3C69BB8FE3D512ECC4CF759CC79239F7B179B0FFACAA9A75D522B39400F DUP4 MSTORE DUP4 PUSH1 0x20 DUP5 ADD MSTORE PUSH32 0xC89EFDAA54C0F20C7ADF612882DF0950F5A951637E0307CDCB4C672F298B8BC6 PUSH1 0x40 DUP5 ADD MSTORE CHAINID PUSH1 0x60 DUP5 ADD MSTORE ADDRESS PUSH1 0x80 DUP5 ADD MSTORE PUSH1 0xA0 DUP4 KECCAK256 PUSH1 0x2E MSTORE PUSH32 0x6E71EDAE12B1B97F4D1F60370FEF10105FA2FAAE0126114A169C64845D6126C9 DUP4 MSTORE DUP11 PUSH1 0x20 DUP5 ADD MSTORE DUP10 PUSH1 0x40 DUP5 ADD MSTORE DUP9 PUSH1 0x60 DUP5 ADD MSTORE DUP1 PUSH1 0x80 DUP5 ADD MSTORE DUP8 PUSH1 0xA0 DUP5 ADD MSTORE PUSH1 0xC0 DUP4 KECCAK256 PUSH1 0x4E MSTORE PUSH1 0x42 PUSH1 0x2C KECCAK256 PUSH0 MSTORE DUP7 PUSH1 0xFF AND PUSH1 0x20 MSTORE DUP6 PUSH1 0x40 MSTORE DUP5 PUSH1 0x60 MSTORE PUSH1 0x20 DUP1 PUSH1 0x80 PUSH0 PUSH1 0x1 GAS STATICCALL DUP12 RETURNDATASIZE MLOAD EQ PUSH2 0x10A6 JUMPI PUSH4 0xDDAFBAEF PUSH0 MSTORE PUSH1 0x4 PUSH1 0x1C REVERT JUMPDEST DUP1 DUP3 ADD DUP4 SSTORE DUP11 PUSH4 0x7F5E9F20 PUSH1 0xA0 SHL OR PUSH1 0x40 MSTORE DUP10 PUSH1 0x34 PUSH1 0x2C KECCAK256 SSTORE DUP11 DUP13 PUSH32 0x8C5BE1E5EBEC7D5BD14F71427D1E84F3DD0314C0F7B2291E5B200AC8C7C3B925 PUSH1 0x20 PUSH1 0x60 DUP9 ADD LOG3 DUP4 PUSH1 0x40 MSTORE PUSH0 PUSH1 0x60 MSTORE POP POP POP POP POP POP POP POP POP POP POP POP JUMP JUMPDEST PUSH0 DUP2 PUSH1 0x20 MSTORE PUSH4 0x7F5E9F20 PUSH1 0xC MSTORE DUP3 PUSH0 MSTORE PUSH1 0x34 PUSH1 0xC KECCAK256 SLOAD SWAP1 POP SWAP3 SWAP2 POP POP JUMP JUMPDEST PUSH0 DUP1 PUSH2 0x1127 PUSH2 0x4A7 JUMP JUMPDEST SWAP1 POP PUSH2 0x1156 PUSH1 0x2 PUSH0 SWAP1 SLOAD SWAP1 PUSH2 0x100 EXP SWAP1 DIV PUSH20 0xFFFFFFFFFFFFFFFFFFFFFFFFFFFFFFFFFFFFFFFF AND CALLER ADDRESS DUP8 PUSH2 0x12EC JUMP JUMPDEST PUSH2 0x1183 PUSH1 0x3 PUSH0 SWAP1 SLOAD SWAP1 PUSH2 0x100 EXP SWAP1 DIV PUSH20 0xFFFFFFFFFFFFFFFFFFFFFFFFFFFFFFFFFFFFFFFF AND CALLER ADDRESS DUP7 PUSH2 0x12EC JUMP JUMPDEST PUSH0 DUP2 SUB PUSH2 0x11BE JUMPI PUSH2 0x3E8 PUSH2 0x11A1 DUP5 DUP7 PUSH2 0x119C SWAP2 SWAP1 PUSH2 0x1BD3 JUMP JUMPDEST PUSH2 0x7C1 JUMP JUMPDEST PUSH2 0x11AB SWAP2 SWAP1 PUSH2 0x1C71 JUMP JUMPDEST SWAP2 POP PUSH2 0x11B9 PUSH0 PUSH2 0x3E8 PUSH2 0x1515 JUMP JUMPDEST PUSH2 0x1264 JUMP JUMPDEST PUSH0 PUSH2 0x11EA PUSH1 0x2 PUSH0 SWAP1 SLOAD SWAP1 PUSH2 0x100 EXP SWAP1 DIV PUSH20 0xFFFFFFFFFFFFFFFFFFFFFFFFFFFFFFFFFFFFFFFF AND DUP7 PUSH2 0x1449 JUMP JUMPDEST SWAP1 POP DUP4 DUP2 LT ISZERO PUSH2 0x1226 JUMPI PUSH1 0x40 MLOAD PUSH32 0x2CD294CF00000000000000000000000000000000000000000000000000000000 DUP2 MSTORE PUSH1 0x4 ADD PUSH1 0x40 MLOAD DUP1 SWAP2 SUB SWAP1 REVERT JUMPDEST PUSH2 0x1260 DUP3 PUSH1 0x4 SLOAD DUP8 PUSH2 0x1238 SWAP2 SWAP1 PUSH2 0x1BD3 JUMP JUMPDEST PUSH2 0x1242 SWAP2 SWAP1 PUSH2 0x1C41 JUMP JUMPDEST DUP4 PUSH1 0x5 SLOAD DUP8 PUSH2 0x1251 SWAP2 SWAP1 PUSH2 0x1BD3 JUMP JUMPDEST PUSH2 0x125B SWAP2 SWAP1 PUSH2 0x1C41 JUMP JUMPDEST PUSH2 0x15A7 JUMP JUMPDEST SWAP3 POP POP JUMPDEST PUSH2 0x126E CALLER DUP4 PUSH2 0x1515 JUMP JUMPDEST DUP4 PUSH1 0x4 PUSH0 DUP3 DUP3 SLOAD PUSH2 0x127F SWAP2 SWAP1 PUSH2 0x1D26 JUMP JUMPDEST SWAP3 POP POP DUP2 SWAP1 SSTORE POP DUP3 PUSH1 0x5 PUSH0 DUP3 DUP3 SLOAD PUSH2 0x1297 SWAP2 SWAP1 PUSH2 0x1D26 JUMP JUMPDEST SWAP3 POP POP DUP2 SWAP1 SSTORE POP PUSH32 0x36AF321EC8D3C75236829C5317AFFD40DDB308863A1236D2D277A4025CCCEE1E ADDRESS DUP4 DUP7 DUP7 PUSH1 0x40 MLOAD PUSH2 0x12D3 SWAP5 SWAP4 SWAP3 SWAP2 SWAP1 PUSH2 0x1CA4 JUMP JUMPDEST PUSH1 0x40 MLOAD DUP1 SWAP2 SUB SWAP1 LOG1 POP SWAP3 SWAP2 POP POP JUMP JUMPDEST POP POP POP JUMP JUMPDEST POP POP POP JUMP JUMPDEST PUSH0 DUP5 PUSH20 0xFFFFFFFFFFFFFFFFFFFFFFFFFFFFFFFFFFFFFFFF AND PUSH4 0x23B872DD DUP6 DUP6 DUP6 PUSH1 0x40 MLOAD DUP5 PUSH4 0xFFFFFFFF AND PUSH1 0xE0 SHL DUP2 MSTORE PUSH1 0x4 ADD PUSH2 0x132A SWAP4 SWAP3 SWAP2 SWAP1 PUSH2 0x1D9C JUMP JUMPDEST PUSH1 0x20 PUSH1 0x40 MLOAD DUP1 DUP4 SUB DUP2 PUSH0 DUP8 GAS CALL ISZERO DUP1 ISZERO PUSH2 0x1346 JUMPI RETURNDATASIZE PUSH0 DUP1 RETURNDATACOPY RETURNDATASIZE PUSH0 REVERT JUMPDEST POP POP POP POP PUSH1 0x40 MLOAD RETURNDATASIZE PUSH1 0x1F NOT PUSH1 0x1F DUP3 ADD AND DUP3 ADD DUP1 PUSH1 0x40 MSTORE POP DUP2 ADD SWAP1 PUSH2 0x136A SWAP2 SWAP1 PUSH2 0x1DFB JUMP JUMPDEST SWAP1 POP DUP1 PUSH2 0x13A3 JUMPI PUSH1 0x40 MLOAD PUSH32 0x3F4AB80E00000000000000000000000000000000000000000000000000000000 DUP2 MSTORE PUSH1 0x4 ADD PUSH1 0x40 MLOAD DUP1 SWAP2 SUB SWAP1 REVERT JUMPDEST POP POP POP POP POP JUMP JUMPDEST PUSH2 0x13B5 DUP3 PUSH0 DUP4 PUSH2 0x12E2 JUMP JUMPDEST PUSH4 0x87A211A2 PUSH1 0xC MSTORE DUP2 PUSH0 MSTORE PUSH1 0x20 PUSH1 0xC KECCAK256 DUP1 SLOAD DUP1 DUP4 GT ISZERO PUSH2 0x13DC JUMPI PUSH4 0xF4D678B8 PUSH0 MSTORE PUSH1 0x4 PUSH1 0x1C REVERT JUMPDEST DUP3 DUP2 SUB DUP3 SSTORE DUP3 PUSH9 0x5345CDF77EB68F44C SLOAD SUB PUSH9 0x5345CDF77EB68F44C SSTORE DUP3 PUSH0 MSTORE PUSH0 DUP5 PUSH1 0x60 SHL PUSH1 0x60 SHR PUSH32 0xDDF252AD1BE2C89B69C2B068FC378DAA952BA7F163C4A11628F55A4DF523B3EF PUSH1 0x20 PUSH0 LOG3 POP POP PUSH2 0x1436 DUP3 PUSH0 DUP4 PUSH2 0x12E7 JUMP JUMPDEST POP POP JUMP JUMPDEST PUSH0 SWAP1 JUMP JUMPDEST PUSH0 DUP2 ISZERO ISZERO SWAP1 POP SWAP2 SWAP1 POP JUMP JUMPDEST PUSH0 DUP1 PUSH1 0x2 PUSH0 SWAP1 SLOAD SWAP1 PUSH2 0x100 EXP SWAP1 DIV PUSH20 0xFFFFFFFFFFFFFFFFFFFFFFFFFFFFFFFFFFFFFFFF AND SWAP1 POP PUSH0 DUP2 PUSH20 0xFFFFFFFFFFFFFFFFFFFFFFFFFFFFFFFFFFFFFFFF AND DUP6 PUSH20 0xFFFFFFFFFFFFFFFFFFFFFFFFFFFFFFFFFFFFFFFF AND EQ PUSH2 0x14AB JUMPI PUSH1 0x5 SLOAD PUSH2 0x14AF JUMP JUMPDEST PUSH1 0x4 SLOAD JUMPDEST SWAP1 POP PUSH0 DUP3 PUSH20 0xFFFFFFFFFFFFFFFFFFFFFFFFFFFFFFFFFFFFFFFF AND DUP7 PUSH20 0xFFFFFFFFFFFFFFFFFFFFFFFFFFFFFFFFFFFFFFFF AND EQ PUSH2 0x14ED JUMPI PUSH1 0x4 SLOAD PUSH2 0x14F1 JUMP JUMPDEST PUSH1 0x5 SLOAD JUMPDEST SWAP1 POP DUP1 DUP6 DUP4 PUSH2 0x1500 SWAP2 SWAP1 PUSH2 0x1BD3 JUMP JUMPDEST PUSH2 0x150A SWAP2 SWAP1 PUSH2 0x1C41 JUMP JUMPDEST SWAP4 POP POP POP POP SWAP3 SWAP2 POP POP JUMP JUMPDEST PUSH2 0x1520 PUSH0 DUP4 DUP4 PUSH2 0x12E2 JUMP JUMPDEST PUSH9 0x5345CDF77EB68F44C SLOAD DUP2 DUP2 ADD DUP2 DUP2 LT ISZERO PUSH2 0x1543 JUMPI PUSH4 0xE5CFE957 PUSH0 MSTORE PUSH1 0x4 PUSH1 0x1C REVERT JUMPDEST DUP1 PUSH9 0x5345CDF77EB68F44C SSTORE PUSH4 0x87A211A2 PUSH1 0xC MSTORE DUP4 PUSH0 MSTORE PUSH1 0x20 PUSH1 0xC KECCAK256 DUP4 DUP2 SLOAD ADD DUP2 SSTORE DUP4 PUSH1 0x20 MSTORE PUSH1 0xC MLOAD PUSH1 0x60 SHR PUSH0 PUSH32 0xDDF252AD1BE2C89B69C2B068FC378DAA952BA7F163C4A11628F55A4DF523B3EF PUSH1 0x20 DUP1 LOG3 POP POP POP PUSH2 0x15A3 PUSH0 DUP4 DUP4 PUSH2 0x12E7 JUMP JUMPDEST POP POP JUMP JUMPDEST PUSH0 DUP2 DUP4 LT PUSH2 0x15B5 JUMPI DUP2 PUSH2 0x15B7 JUMP JUMPDEST DUP3 JUMPDEST SWAP1 POP SWAP3 SWAP2 POP POP JUMP JUMPDEST PUSH0 DUP2 MLOAD SWAP1 POP SWAP2 SWAP1 POP JUMP JUMPDEST PUSH0 DUP3 DUP3 MSTORE PUSH1 0x20 DUP3 ADD SWAP1 POP SWAP3 SWAP2 POP POP JUMP JUMPDEST PUSH0 JUMPDEST DUP4 DUP2 LT ISZERO PUSH2 0x15F6 JUMPI DUP1 DUP3 ADD MLOAD DUP2 DUP5 ADD MSTORE PUSH1 0x20 DUP2 ADD SWAP1 POP PUSH2 0x15DB JUMP JUMPDEST PUSH0 DUP5 DUP5 ADD MSTORE POP POP POP POP JUMP JUMPDEST PUSH0 PUSH1 0x1F NOT PUSH1 0x1F DUP4 ADD AND SWAP1 POP SWAP2 SWAP1 POP JUMP JUMPDEST PUSH0 PUSH2 0x161B DUP3 PUSH2 0x15BF JUMP JUMPDEST PUSH2 0x1625 DUP2 DUP6 PUSH2 0x15C9 JUMP JUMPDEST SWAP4 POP PUSH2 0x1635 DUP2 DUP6 PUSH1 0x20 DUP7 ADD PUSH2 0x15D9 JUMP JUMPDEST PUSH2 0x163E DUP2 PUSH2 0x1601 JUMP JUMPDEST DUP5 ADD SWAP2 POP POP SWAP3 SWAP2 POP POP JUMP JUMPDEST PUSH0 PUSH1 0x20 DUP3 ADD SWAP1 POP DUP2 DUP2 SUB PUSH0 DUP4 ADD MSTORE PUSH2 0x1661 DUP2 DUP5 PUSH2 0x1611 JUMP JUMPDEST SWAP1 POP SWAP3 SWAP2 POP POP JUMP JUMPDEST PUSH0 DUP1 REVERT JUMPDEST PUSH0 PUSH20 0xFFFFFFFFFFFFFFFFFFFFFFFFFFFFFFFFFFFFFFFF DUP3 AND SWAP1 POP SWAP2 SWAP1 POP JUMP JUMPDEST PUSH0 PUSH2 0x1696 DUP3 PUSH2 0x166D JUMP JUMPDEST SWAP1 POP SWAP2 SWAP1 POP JUMP JUMPDEST PUSH2 0x16A6 DUP2 PUSH2 0x168C JUMP JUMPDEST DUP2 EQ PUSH2 0x16B0 JUMPI PUSH0 DUP1 REVERT JUMPDEST POP JUMP JUMPDEST PUSH0 DUP2 CALLDATALOAD SWAP1 POP PUSH2 0x16C1 DUP2 PUSH2 0x169D JUMP JUMPDEST SWAP3 SWAP2 POP POP JUMP JUMPDEST PUSH0 DUP2 SWAP1 POP SWAP2 SWAP1 POP JUMP JUMPDEST PUSH2 0x16D9 DUP2 PUSH2 0x16C7 JUMP JUMPDEST DUP2 EQ PUSH2 0x16E3 JUMPI PUSH0 DUP1 REVERT JUMPDEST POP JUMP JUMPDEST PUSH0 DUP2 CALLDATALOAD SWAP1 POP PUSH2 0x16F4 DUP2 PUSH2 0x16D0 JUMP JUMPDEST SWAP3 SWAP2 POP POP JUMP JUMPDEST PUSH0 DUP1 PUSH1 0x40 DUP4 DUP6 SUB SLT ISZERO PUSH2 0x1710 JUMPI PUSH2 0x170F PUSH2 0x1669 JUMP JUMPDEST JUMPDEST PUSH0 PUSH2 0x171D DUP6 DUP3 DUP7 ADD PUSH2 0x16B3 JUMP JUMPDEST SWAP3 POP POP PUSH1 0x20 PUSH2 0x172E DUP6 DUP3 DUP7 ADD PUSH2 0x16E6 JUMP JUMPDEST SWAP2 POP POP SWAP3 POP SWAP3 SWAP1 POP JUMP JUMPDEST PUSH0 DUP2 ISZERO ISZERO SWAP1 POP SWAP2 SWAP1 POP JUMP JUMPDEST PUSH2 0x174C DUP2 PUSH2 0x1738 JUMP JUMPDEST DUP3 MSTORE POP POP JUMP JUMPDEST PUSH0 PUSH1 0x20 DUP3 ADD SWAP1 POP PUSH2 0x1765 PUSH0 DUP4 ADD DUP5 PUSH2 0x1743 JUMP JUMPDEST SWAP3 SWAP2 POP POP JUMP JUMPDEST PUSH2 0x1774 DUP2 PUSH2 0x16C7 JUMP JUMPDEST DUP3 MSTORE POP POP JUMP JUMPDEST PUSH0 PUSH1 0x20 DUP3 ADD SWAP1 POP PUSH2 0x178D PUSH0 DUP4 ADD DUP5 PUSH2 0x176B JUMP JUMPDEST SWAP3 SWAP2 POP POP JUMP JUMPDEST PUSH0 DUP1 PUSH0 PUSH1 0x60 DUP5 DUP7 SUB SLT ISZERO PUSH2 0x17AA JUMPI PUSH2 0x17A9 PUSH2 0x1669 JUMP JUMPDEST JUMPDEST PUSH0 PUSH2 0x17B7 DUP7 DUP3 DUP8 ADD PUSH2 0x16B3 JUMP JUMPDEST SWAP4 POP POP PUSH1 0x20 PUSH2 0x17C8 DUP7 DUP3 DUP8 ADD PUSH2 0x16B3 JUMP JUMPDEST SWAP3 POP POP PUSH1 0x40 PUSH2 0x17D9 DUP7 DUP3 DUP8 ADD PUSH2 0x16E6 JUMP JUMPDEST SWAP2 POP POP SWAP3 POP SWAP3 POP SWAP3 JUMP JUMPDEST PUSH0 PUSH1 0x20 DUP3 DUP5 SUB SLT ISZERO PUSH2 0x17F8 JUMPI PUSH2 0x17F7 PUSH2 0x1669 JUMP JUMPDEST JUMPDEST PUSH0 PUSH2 0x1805 DUP5 DUP3 DUP6 ADD PUSH2 0x16E6 JUMP JUMPDEST SWAP2 POP POP SWAP3 SWAP2 POP POP JUMP JUMPDEST PUSH0 PUSH1 0x40 DUP3 ADD SWAP1 POP PUSH2 0x1821 PUSH0 DUP4 ADD DUP6 PUSH2 0x176B JUMP JUMPDEST PUSH2 0x182E PUSH1 0x20 DUP4 ADD DUP5 PUSH2 0x176B JUMP JUMPDEST SWAP4 SWAP3 POP POP POP JUMP JUMPDEST PUSH0 PUSH1 0xFF DUP3 AND SWAP1 POP SWAP2 SWAP1 POP JUMP JUMPDEST PUSH2 0x184A DUP2 PUSH2 0x1835 JUMP JUMPDEST DUP3 MSTORE POP POP JUMP JUMPDEST PUSH0 PUSH1 0x20 DUP3 ADD SWAP1 POP PUSH2 0x1863 PUSH0 DUP4 ADD DUP5 PUSH2 0x1841 JUMP JUMPDEST SWAP3 SWAP2 POP POP JUMP JUMPDEST PUSH0 DUP2 SWAP1 POP SWAP2 SWAP1 POP JUMP JUMPDEST PUSH2 0x187B DUP2 PUSH2 0x1869 JUMP JUMPDEST DUP3 MSTORE POP POP JUMP JUMPDEST PUSH0 PUSH1 0x20 DUP3 ADD SWAP1 POP PUSH2 0x1894 PUSH0 DUP4 ADD DUP5 PUSH2 0x1872 JUMP JUMPDEST SWAP3 SWAP2 POP POP JUMP JUMPDEST PUSH0 PUSH1 0x20 DUP3 DUP5 SUB SLT ISZERO PUSH2 0x18AF JUMPI PUSH2 0x18AE PUSH2 0x1669 JUMP JUMPDEST JUMPDEST PUSH0 PUSH2 0x18BC DUP5 DUP3 DUP6 ADD PUSH2 0x16B3 JUMP JUMPDEST SWAP2 POP POP SWAP3 SWAP2 POP POP JUMP JUMPDEST PUSH2 0x18CE DUP2 PUSH2 0x168C JUMP JUMPDEST DUP3 MSTORE POP POP JUMP JUMPDEST PUSH0 PUSH1 0x20 DUP3 ADD SWAP1 POP PUSH2 0x18E7 PUSH0 DUP4 ADD DUP5 PUSH2 0x18C5 JUMP JUMPDEST SWAP3 SWAP2 POP POP JUMP JUMPDEST PUSH2 0x18F6 DUP2 PUSH2 0x1835 JUMP JUMPDEST DUP2 EQ PUSH2 0x1900 JUMPI PUSH0 DUP1 REVERT JUMPDEST POP JUMP JUMPDEST PUSH0 DUP2 CALLDATALOAD SWAP1 POP PUSH2 0x1911 DUP2 PUSH2 0x18ED JUMP JUMPDEST SWAP3 SWAP2 POP POP JUMP JUMPDEST PUSH2 0x1920 DUP2 PUSH2 0x1869 JUMP JUMPDEST DUP2 EQ PUSH2 0x192A JUMPI PUSH0 DUP1 REVERT JUMPDEST POP JUMP JUMPDEST PUSH0 DUP2 CALLDATALOAD SWAP1 POP PUSH2 0x193B DUP2 PUSH2 0x1917 JUMP JUMPDEST SWAP3 SWAP2 POP POP JUMP JUMPDEST PUSH0 DUP1 PUSH0 DUP1 PUSH0 DUP1 PUSH0 PUSH1 0xE0 DUP9 DUP11 SUB SLT ISZERO PUSH2 0x195C JUMPI PUSH2 0x195B PUSH2 0x1669 JUMP JUMPDEST JUMPDEST PUSH0 PUSH2 0x1969 DUP11 DUP3 DUP12 ADD PUSH2 0x16B3 JUMP JUMPDEST SWAP8 POP POP PUSH1 0x20 PUSH2 0x197A DUP11 DUP3 DUP12 ADD PUSH2 0x16B3 JUMP JUMPDEST SWAP7 POP POP PUSH1 0x40 PUSH2 0x198B DUP11 DUP3 DUP12 ADD PUSH2 0x16E6 JUMP JUMPDEST SWAP6 POP POP PUSH1 0x60 PUSH2 0x199C DUP11 DUP3 DUP12 ADD PUSH2 0x16E6 JUMP JUMPDEST SWAP5 POP POP PUSH1 0x80 PUSH2 0x19AD DUP11 DUP3 DUP12 ADD PUSH2 0x1903 JUMP JUMPDEST SWAP4 POP POP PUSH1 0xA0 PUSH2 0x19BE DUP11 DUP3 DUP12 ADD PUSH2 0x192D JUMP JUMPDEST SWAP3 POP POP PUSH1 0xC0 PUSH2 0x19CF DUP11 DUP3 DUP12 ADD PUSH2 0x192D JUMP JUMPDEST SWAP2 POP POP SWAP3 SWAP6 SWAP9 SWAP2 SWAP5 SWAP8 POP SWAP3 SWAP6 POP JUMP JUMPDEST PUSH0 DUP1 PUSH1 0x40 DUP4 DUP6 SUB SLT ISZERO PUSH2 0x19F4 JUMPI PUSH2 0x19F3 PUSH2 0x1669 JUMP JUMPDEST JUMPDEST PUSH0 PUSH2 0x1A01 DUP6 DUP3 DUP7 ADD PUSH2 0x16B3 JUMP JUMPDEST SWAP3 POP POP PUSH1 0x20 PUSH2 0x1A12 DUP6 DUP3 DUP7 ADD PUSH2 0x16B3 JUMP JUMPDEST SWAP2 POP POP SWAP3 POP SWAP3 SWAP1 POP JUMP JUMPDEST PUSH0 DUP1 PUSH1 0x40 DUP4 DUP6 SUB SLT ISZERO PUSH2 0x1A32 JUMPI PUSH2 0x1A31 PUSH2 0x1669 JUMP JUMPDEST JUMPDEST PUSH0 PUSH2 0x1A3F DUP6 DUP3 DUP7 ADD PUSH2 0x16E6 JUMP JUMPDEST SWAP3 POP POP PUSH1 0x20 PUSH2 0x1A50 DUP6 DUP3 DUP7 ADD PUSH2 0x16E6 JUMP JUMPDEST SWAP2 POP POP SWAP3 POP SWAP3 SWAP1 POP JUMP JUMPDEST PUSH0 DUP2 SWAP1 POP SWAP3 SWAP2 POP POP JUMP JUMPDEST PUSH0 PUSH2 0x1A6E DUP3 PUSH2 0x15BF JUMP JUMPDEST PUSH2 0x1A78 DUP2 DUP6 PUSH2 0x1A5A JUMP JUMPDEST SWAP4 POP PUSH2 0x1A88 DUP2 DUP6 PUSH1 0x20 DUP7 ADD PUSH2 0x15D9 JUMP JUMPDEST DUP1 DUP5 ADD SWAP2 POP POP SWAP3 SWAP2 POP POP JUMP JUMPDEST PUSH32 0x4E487B7100000000000000000000000000000000000000000000000000000000 PUSH0 MSTORE PUSH1 0x22 PUSH1 0x4 MSTORE PUSH1 0x24 PUSH0 REVERT JUMPDEST PUSH0 PUSH1 0x2 DUP3 DIV SWAP1 POP PUSH1 0x1 DUP3 AND DUP1 PUSH2 0x1AD8 JUMPI PUSH1 0x7F DUP3 AND SWAP2 POP JUMPDEST PUSH1 0x20 DUP3 LT DUP2 SUB PUSH2 0x1AEB JUMPI PUSH2 0x1AEA PUSH2 0x1A94 JUMP JUMPDEST JUMPDEST POP SWAP2 SWAP1 POP JUMP JUMPDEST PUSH0 DUP2 SWAP1 POP DUP2 PUSH0 MSTORE PUSH1 0x20 PUSH0 KECCAK256 SWAP1 POP SWAP2 SWAP1 POP JUMP JUMPDEST PUSH0 DUP2 SLOAD PUSH2 0x1B0F DUP2 PUSH2 0x1AC1 JUMP JUMPDEST PUSH2 0x1B19 DUP2 DUP7 PUSH2 0x1A5A JUMP JUMPDEST SWAP5 POP PUSH1 0x1 DUP3 AND PUSH0 DUP2 EQ PUSH2 0x1B33 JUMPI PUSH1 0x1 DUP2 EQ PUSH2 0x1B48 JUMPI PUSH2 0x1B7A JUMP JUMPDEST PUSH1 0xFF NOT DUP4 AND DUP7 MSTORE DUP2 ISZERO ISZERO DUP3 MUL DUP7 ADD SWAP4 POP PUSH2 0x1B7A JUMP JUMPDEST PUSH2 0x1B51 DUP6 PUSH2 0x1AF1 JUMP JUMPDEST PUSH0 JUMPDEST DUP4 DUP2 LT ISZERO PUSH2 0x1B72 JUMPI DUP2 SLOAD DUP2 DUP10 ADD MSTORE PUSH1 0x1 DUP3 ADD SWAP2 POP PUSH1 0x20 DUP2 ADD SWAP1 POP PUSH2 0x1B53 JUMP JUMPDEST DUP4 DUP9 ADD SWAP6 POP POP POP JUMPDEST POP POP POP SWAP3 SWAP2 POP POP JUMP JUMPDEST PUSH0 PUSH2 0x1B8E DUP3 DUP6 PUSH2 0x1A64 JUMP JUMPDEST SWAP2 POP PUSH2 0x1B9A DUP3 DUP5 PUSH2 0x1B03 JUMP JUMPDEST SWAP2 POP DUP2 SWAP1 POP SWAP4 SWAP3 POP POP POP JUMP JUMPDEST PUSH32 0x4E487B7100000000000000000000000000000000000000000000000000000000 PUSH0 MSTORE PUSH1 0x11 PUSH1 0x4 MSTORE PUSH1 0x24 PUSH0 REVERT JUMPDEST PUSH0 PUSH2 0x1BDD DUP3 PUSH2 0x16C7 JUMP JUMPDEST SWAP2 POP PUSH2 0x1BE8 DUP4 PUSH2 0x16C7 JUMP JUMPDEST SWAP3 POP DUP3 DUP3 MUL PUSH2 0x1BF6 DUP2 PUSH2 0x16C7 JUMP JUMPDEST SWAP2 POP DUP3 DUP3 DIV DUP5 EQ DUP4 ISZERO OR PUSH2 0x1C0D JUMPI PUSH2 0x1C0C PUSH2 0x1BA6 JUMP JUMPDEST JUMPDEST POP SWAP3 SWAP2 POP POP JUMP JUMPDEST PUSH32 0x4E487B7100000000000000000000000000000000000000000000000000000000 PUSH0 MSTORE PUSH1 0x12 PUSH1 0x4 MSTORE PUSH1 0x24 PUSH0 REVERT JUMPDEST PUSH0 PUSH2 0x1C4B DUP3 PUSH2 0x16C7 JUMP JUMPDEST SWAP2 POP PUSH2 0x1C56 DUP4 PUSH2 0x16C7 JUMP JUMPDEST SWAP3 POP DUP3 PUSH2 0x1C66 JUMPI PUSH2 0x1C65 PUSH2 0x1C14 JUMP JUMPDEST JUMPDEST DUP3 DUP3 DIV SWAP1 POP SWAP3 SWAP2 POP POP JUMP JUMPDEST PUSH0 PUSH2 0x1C7B DUP3 PUSH2 0x16C7 JUMP JUMPDEST SWAP2 POP PUSH2 0x1C86 DUP4 PUSH2 0x16C7 JUMP JUMPDEST SWAP3 POP DUP3 DUP3 SUB SWAP1 POP DUP2 DUP2 GT ISZERO PUSH2 0x1C9E JUMPI PUSH2 0x1C9D PUSH2 0x1BA6 JUMP JUMPDEST JUMPDEST SWAP3 SWAP2 POP POP JUMP JUMPDEST PUSH0 PUSH1 0x80 DUP3 ADD SWAP1 POP PUSH2 0x1CB7 PUSH0 DUP4 ADD DUP8 PUSH2 0x18C5 JUMP JUMPDEST PUSH2 0x1CC4 PUSH1 0x20 DUP4 ADD DUP7 PUSH2 0x176B JUMP JUMPDEST PUSH2 0x1CD1 PUSH1 0x40 DUP4 ADD DUP6 PUSH2 0x176B JUMP JUMPDEST PUSH2 0x1CDE PUSH1 0x60 DUP4 ADD DUP5 PUSH2 0x176B JUMP JUMPDEST SWAP6 SWAP5 POP POP POP POP POP JUMP JUMPDEST PUSH0 DUP2 MLOAD SWAP1 POP PUSH2 0x1CF5 DUP2 PUSH2 0x16D0 JUMP JUMPDEST SWAP3 SWAP2 POP POP JUMP JUMPDEST PUSH0 PUSH1 0x20 DUP3 DUP5 SUB SLT ISZERO PUSH2 0x1D10 JUMPI PUSH2 0x1D0F PUSH2 0x1669 JUMP JUMPDEST JUMPDEST PUSH0 PUSH2 0x1D1D DUP5 DUP3 DUP6 ADD PUSH2 0x1CE7 JUMP JUMPDEST SWAP2 POP POP SWAP3 SWAP2 POP POP JUMP JUMPDEST PUSH0 PUSH2 0x1D30 DUP3 PUSH2 0x16C7 JUMP JUMPDEST SWAP2 POP PUSH2 0x1D3B DUP4 PUSH2 0x16C7 JUMP JUMPDEST SWAP3 POP DUP3 DUP3 ADD SWAP1 POP DUP1 DUP3 GT ISZERO PUSH2 0x1D53 JUMPI PUSH2 0x1D52 PUSH2 0x1BA6 JUMP JUMPDEST JUMPDEST SWAP3 SWAP2 POP POP JUMP JUMPDEST PUSH0 PUSH1 0x80 DUP3 ADD SWAP1 POP PUSH2 0x1D6C PUSH0 DUP4 ADD DUP8 PUSH2 0x18C5 JUMP JUMPDEST PUSH2 0x1D79 PUSH1 0x20 DUP4 ADD DUP7 PUSH2 0x18C5 JUMP JUMPDEST PUSH2 0x1D86 PUSH1 0x40 DUP4 ADD DUP6 PUSH2 0x176B JUMP JUMPDEST PUSH2 0x1D93 PUSH1 0x60 DUP4 ADD DUP5 PUSH2 0x176B JUMP JUMPDEST SWAP6 SWAP5 POP POP POP POP POP JUMP JUMPDEST PUSH0 PUSH1 0x60 DUP3 ADD SWAP1 POP PUSH2 0x1DAF PUSH0 DUP4 ADD DUP7 PUSH2 0x18C5 JUMP JUMPDEST PUSH2 0x1DBC PUSH1 0x20 DUP4 ADD DUP6 PUSH2 0x18C5 JUMP JUMPDEST PUSH2 0x1DC9 PUSH1 0x40 DUP4 ADD DUP5 PUSH2 0x176B JUMP JUMPDEST SWAP5 SWAP4 POP POP POP POP JUMP JUMPDEST PUSH2 0x1DDA DUP2 PUSH2 0x1738 JUMP JUMPDEST DUP2 EQ PUSH2 0x1DE4 JUMPI PUSH0 DUP1 REVERT JUMPDEST POP JUMP JUMPDEST PUSH0 DUP2 MLOAD SWAP1 POP PUSH2 0x1DF5 DUP2 PUSH2 0x1DD1 JUMP JUMPDEST SWAP3 SWAP2 POP POP JUMP JUMPDEST PUSH0 PUSH1 0x20 DUP3 DUP5 SUB SLT ISZERO PUSH2 0x1E10 JUMPI PUSH2 0x1E0F PUSH2 0x1669 JUMP JUMPDEST JUMPDEST PUSH0 PUSH2 0x1E1D DUP5 DUP3 DUP6 ADD PUSH2 0x1DE7 JUMP JUMPDEST SWAP2 POP POP SWAP3 SWAP2 POP POP JUMP INVALID LOG2 PUSH5 0x6970667358 0x22 SLT KECCAK256 0xD3 DUP3 0x2F LOG2 PUSH30 0x4E75FFB98DCDFC95A31E524730BD2A3D290170F5882671637A357064736F PUSH13 0x63430008140033000000000000 "
		},
		"gasEstimates": {
			"creation": {
				"codeDepositCost": "1554400",
				"executionCost": "infinite",
				"totalCost": "infinite"
			},
			"external": {
				"DOMAIN_SEPARATOR()": "infinite",
				"allowance(address,address)": "infinite",
				"approve(address,uint256)": "24826",
				"balanceOf(address)": "2908",
				"decimals()": "383",
				"deposit(uint256,uint256)": "infinite",
				"factory()": "2530",
				"name()": "infinite",
				"nonces(address)": "2820",
				"permit(address,address,uint256,uint256,uint8,bytes32,bytes32)": "infinite",
				"quote(address,uint256)": "infinite",
				"sqrt(uint256)": "infinite",
				"swap(address,uint256)": "infinite",
				"symbol()": "infinite",
				"totalSupply()": "2500",
				"transfer(address,uint256)": "51338",
				"transferFrom(address,address,uint256)": "infinite",
				"withdraw(uint256)": "infinite"
			},
			"internal": {
				"_quote(address,uint256)": "infinite",
				"_transfer(address,address,address,uint256)": "infinite",
				"min(uint256,uint256)": "63",
				"toUint(bool)": "33"
			}
		},
		"methodIdentifiers": {
			"DOMAIN_SEPARATOR()": "3644e515",
			"allowance(address,address)": "dd62ed3e",
			"approve(address,uint256)": "095ea7b3",
			"balanceOf(address)": "70a08231",
			"decimals()": "313ce567",
			"deposit(uint256,uint256)": "e2bbb158",
			"factory()": "c45a0155",
			"name()": "06fdde03",
			"nonces(address)": "7ecebe00",
			"permit(address,address,uint256,uint256,uint8,bytes32,bytes32)": "d505accf",
			"quote(address,uint256)": "8f79306e",
			"sqrt(uint256)": "677342ce",
			"swap(address,uint256)": "d004f0f7",
			"symbol()": "95d89b41",
			"totalSupply()": "18160ddd",
			"transfer(address,uint256)": "a9059cbb",
			"transferFrom(address,address,uint256)": "23b872dd",
			"withdraw(uint256)": "2e1a7d4d"
		}
	},
	"abi": [
		{
			"inputs": [
				{
					"internalType": "address",
					"name": "token0",
					"type": "address"
				},
				{
					"internalType": "address",
					"name": "token1",
					"type": "address"
				}
			],
			"stateMutability": "nonpayable",
			"type": "constructor"
		},
		{
			"inputs": [],
			"name": "AMOUNT_EQUALS_ZERO",
			"type": "error"
		},
		{
			"inputs": [],
			"name": "AllowanceOverflow",
			"type": "error"
		},
		{
			"inputs": [],
			"name": "AllowanceUnderflow",
			"type": "error"
		},
		{
			"inputs": [],
			"name": "INSUFFICIENT_AMOUNT",
			"type": "error"
		},
		{
			"inputs": [],
			"name": "INSUFFICIENT_BALANCE",
			"type": "error"
		},
		{
			"inputs": [],
			"name": "InsufficientAllowance",
			"type": "error"
		},
		{
			"inputs": [],
			"name": "InsufficientBalance",
			"type": "error"
		},
		{
			"inputs": [],
			"name": "InvalidPermit",
			"type": "error"
		},
		{
			"inputs": [],
			"name": "NOT_ENOUGH_BALANCE",
			"type": "error"
		},
		{
			"inputs": [],
			"name": "PermitExpired",
			"type": "error"
		},
		{
			"inputs": [],
			"name": "TOKEN_NOT_INSIDE_POOL",
			"type": "error"
		},
		{
			"inputs": [],
			"name": "TRANSFER_FAILED",
			"type": "error"
		},
		{
			"inputs": [],
			"name": "TotalSupplyOverflow",
			"type": "error"
		},
		{
			"anonymous": false,
			"inputs": [
				{
					"indexed": true,
					"internalType": "address",
					"name": "owner",
					"type": "address"
				},
				{
					"indexed": true,
					"internalType": "address",
					"name": "spender",
					"type": "address"
				},
				{
					"indexed": false,
					"internalType": "uint256",
					"name": "amount",
					"type": "uint256"
				}
			],
			"name": "Approval",
			"type": "event"
		},
		{
			"anonymous": false,
			"inputs": [
				{
					"indexed": false,
					"internalType": "address",
					"name": "pool",
					"type": "address"
				},
				{
					"indexed": false,
					"internalType": "uint256",
					"name": "lpAmount",
					"type": "uint256"
				},
				{
					"indexed": false,
					"internalType": "uint256",
					"name": "amount0",
					"type": "uint256"
				},
				{
					"indexed": false,
					"internalType": "uint256",
					"name": "amount1",
					"type": "uint256"
				}
			],
			"name": "Deposit",
			"type": "event"
		},
		{
			"anonymous": false,
			"inputs": [
				{
					"indexed": false,
					"internalType": "address",
					"name": "token0",
					"type": "address"
				},
				{
					"indexed": false,
					"internalType": "address",
					"name": "token1",
					"type": "address"
				},
				{
					"indexed": false,
					"internalType": "uint256",
					"name": "amount0",
					"type": "uint256"
				},
				{
					"indexed": false,
					"internalType": "uint256",
					"name": "amount1",
					"type": "uint256"
				}
			],
			"name": "Swap",
			"type": "event"
		},
		{
			"anonymous": false,
			"inputs": [
				{
					"indexed": true,
					"internalType": "address",
					"name": "from",
					"type": "address"
				},
				{
					"indexed": true,
					"internalType": "address",
					"name": "to",
					"type": "address"
				},
				{
					"indexed": false,
					"internalType": "uint256",
					"name": "amount",
					"type": "uint256"
				}
			],
			"name": "Transfer",
			"type": "event"
		},
		{
			"anonymous": false,
			"inputs": [
				{
					"indexed": false,
					"internalType": "address",
					"name": "pool",
					"type": "address"
				},
				{
					"indexed": false,
					"internalType": "uint256",
					"name": "lpAmount",
					"type": "uint256"
				},
				{
					"indexed": false,
					"internalType": "uint256",
					"name": "amount0",
					"type": "uint256"
				},
				{
					"indexed": false,
					"internalType": "uint256",
					"name": "amount1",
					"type": "uint256"
				}
			],
			"name": "Withdraw",
			"type": "event"
		},
		{
			"inputs": [],
			"name": "DOMAIN_SEPARATOR",
			"outputs": [
				{
					"internalType": "bytes32",
					"name": "result",
					"type": "bytes32"
				}
			],
			"stateMutability": "view",
			"type": "function"
		},
		{
			"inputs": [
				{
					"internalType": "address",
					"name": "owner",
					"type": "address"
				},
				{
					"internalType": "address",
					"name": "spender",
					"type": "address"
				}
			],
			"name": "allowance",
			"outputs": [
				{
					"internalType": "uint256",
					"name": "result",
					"type": "uint256"
				}
			],
			"stateMutability": "view",
			"type": "function"
		},
		{
			"inputs": [
				{
					"internalType": "address",
					"name": "spender",
					"type": "address"
				},
				{
					"internalType": "uint256",
					"name": "amount",
					"type": "uint256"
				}
			],
			"name": "approve",
			"outputs": [
				{
					"internalType": "bool",
					"name": "",
					"type": "bool"
				}
			],
			"stateMutability": "nonpayable",
			"type": "function"
		},
		{
			"inputs": [
				{
					"internalType": "address",
					"name": "owner",
					"type": "address"
				}
			],
			"name": "balanceOf",
			"outputs": [
				{
					"internalType": "uint256",
					"name": "result",
					"type": "uint256"
				}
			],
			"stateMutability": "view",
			"type": "function"
		},
		{
			"inputs": [],
			"name": "decimals",
			"outputs": [
				{
					"internalType": "uint8",
					"name": "",
					"type": "uint8"
				}
			],
			"stateMutability": "view",
			"type": "function"
		},
		{
			"inputs": [
				{
					"internalType": "uint256",
					"name": "amount0",
					"type": "uint256"
				},
				{
					"internalType": "uint256",
					"name": "amount1",
					"type": "uint256"
				}
			],
			"name": "deposit",
			"outputs": [
				{
					"internalType": "uint256",
					"name": "liquidity",
					"type": "uint256"
				}
			],
			"stateMutability": "nonpayable",
			"type": "function"
		},
		{
			"inputs": [],
			"name": "factory",
			"outputs": [
				{
					"internalType": "address",
					"name": "",
					"type": "address"
				}
			],
			"stateMutability": "view",
			"type": "function"
		},
		{
			"inputs": [],
			"name": "name",
			"outputs": [
				{
					"internalType": "string",
					"name": "",
					"type": "string"
				}
			],
			"stateMutability": "view",
			"type": "function"
		},
		{
			"inputs": [
				{
					"internalType": "address",
					"name": "owner",
					"type": "address"
				}
			],
			"name": "nonces",
			"outputs": [
				{
					"internalType": "uint256",
					"name": "result",
					"type": "uint256"
				}
			],
			"stateMutability": "view",
			"type": "function"
		},
		{
			"inputs": [
				{
					"internalType": "address",
					"name": "owner",
					"type": "address"
				},
				{
					"internalType": "address",
					"name": "spender",
					"type": "address"
				},
				{
					"internalType": "uint256",
					"name": "value",
					"type": "uint256"
				},
				{
					"internalType": "uint256",
					"name": "deadline",
					"type": "uint256"
				},
				{
					"internalType": "uint8",
					"name": "v",
					"type": "uint8"
				},
				{
					"internalType": "bytes32",
					"name": "r",
					"type": "bytes32"
				},
				{
					"internalType": "bytes32",
					"name": "s",
					"type": "bytes32"
				}
			],
			"name": "permit",
			"outputs": [],
			"stateMutability": "nonpayable",
			"type": "function"
		},
		{
			"inputs": [
				{
					"internalType": "address",
					"name": "token",
					"type": "address"
				},
				{
					"internalType": "uint256",
					"name": "amount",
					"type": "uint256"
				}
			],
			"name": "quote",
			"outputs": [
				{
					"internalType": "uint256",
					"name": "",
					"type": "uint256"
				}
			],
			"stateMutability": "view",
			"type": "function"
		},
		{
			"inputs": [
				{
					"internalType": "uint256",
					"name": "a",
					"type": "uint256"
				}
			],
			"name": "sqrt",
			"outputs": [
				{
					"internalType": "uint256",
					"name": "",
					"type": "uint256"
				}
			],
			"stateMutability": "pure",
			"type": "function"
		},
		{
			"inputs": [
				{
					"internalType": "address",
					"name": "token",
					"type": "address"
				},
				{
					"internalType": "uint256",
					"name": "amount",
					"type": "uint256"
				}
			],
			"name": "swap",
			"outputs": [
				{
					"internalType": "uint256",
					"name": "amountOut",
					"type": "uint256"
				}
			],
			"stateMutability": "nonpayable",
			"type": "function"
		},
		{
			"inputs": [],
			"name": "symbol",
			"outputs": [
				{
					"internalType": "string",
					"name": "",
					"type": "string"
				}
			],
			"stateMutability": "view",
			"type": "function"
		},
		{
			"inputs": [],
			"name": "totalSupply",
			"outputs": [
				{
					"internalType": "uint256",
					"name": "result",
					"type": "uint256"
				}
			],
			"stateMutability": "view",
			"type": "function"
		},
		{
			"inputs": [
				{
					"internalType": "address",
					"name": "to",
					"type": "address"
				},
				{
					"internalType": "uint256",
					"name": "amount",
					"type": "uint256"
				}
			],
			"name": "transfer",
			"outputs": [
				{
					"internalType": "bool",
					"name": "",
					"type": "bool"
				}
			],
			"stateMutability": "nonpayable",
			"type": "function"
		},
		{
			"inputs": [
				{
					"internalType": "address",
					"name": "from",
					"type": "address"
				},
				{
					"internalType": "address",
					"name": "to",
					"type": "address"
				},
				{
					"internalType": "uint256",
					"name": "amount",
					"type": "uint256"
				}
			],
			"name": "transferFrom",
			"outputs": [
				{
					"internalType": "bool",
					"name": "",
					"type": "bool"
				}
			],
			"stateMutability": "nonpayable",
			"type": "function"
		},
		{
			"inputs": [
				{
					"internalType": "uint256",
					"name": "lpAmount",
					"type": "uint256"
				}
			],
			"name": "withdraw",
			"outputs": [
				{
					"internalType": "uint256",
					"name": "amount0",
					"type": "uint256"
				},
				{
					"internalType": "uint256",
					"name": "amount1",
					"type": "uint256"
				}
			],
			"stateMutability": "nonpayable",
			"type": "function"
		}
	]
}