{
	"data": {
		"bytecode": {
			"linkReferences": {},
			"object": "608060405234801562000010575f80fd5b50604051620028ee380380620028ee83398181016040528101906200003691906200028a565b8173ffffffffffffffffffffffffffffffffffffffff166395d89b416040518163ffffffff1660e01b81526004015f60405180830381865afa1580156200007f573d5f803e3d5ffd5b505050506040513d5f823e3d601f19601f82011682018060405250810190620000a9919062000443565b8173ffffffffffffffffffffffffffffffffffffffff166395d89b416040518163ffffffff1660e01b81526004015f60405180830381865afa158015620000f2573d5f803e3d5ffd5b505050506040513d5f823e3d601f19601f820116820180604052508101906200011c919062000443565b6040516020016200012f929190620004dc565b604051602081830303815290604052805f90816200014e919062000730565b50503360015f6101000a81548173ffffffffffffffffffffffffffffffffffffffff021916908373ffffffffffffffffffffffffffffffffffffffff1602179055508160035f6101000a81548173ffffffffffffffffffffffffffffffffffffffff021916908373ffffffffffffffffffffffffffffffffffffffff1602179055508060045f6101000a81548173ffffffffffffffffffffffffffffffffffffffff021916908373ffffffffffffffffffffffffffffffffffffffff160217905550505062000814565b5f604051905090565b5f80fd5b5f80fd5b5f73ffffffffffffffffffffffffffffffffffffffff82169050919050565b5f620002548262000229565b9050919050565b620002668162000248565b811462000271575f80fd5b50565b5f8151905062000284816200025b565b92915050565b5f8060408385031215620002a357620002a262000221565b5b5f620002b28582860162000274565b9250506020620002c58582860162000274565b9150509250929050565b5f80fd5b5f80fd5b5f601f19601f8301169050919050565b7f4e487b71000000000000000000000000000000000000000000000000000000005f52604160045260245ffd5b6200031f82620002d7565b810181811067ffffffffffffffff82111715620003415762000340620002e7565b5b80604052505050565b5f6200035562000218565b905062000363828262000314565b919050565b5f67ffffffffffffffff821115620003855762000384620002e7565b5b6200039082620002d7565b9050602081019050919050565b5f5b83811015620003bc5780820151818401526020810190506200039f565b5f8484015250505050565b5f620003dd620003d78462000368565b6200034a565b905082815260208101848484011115620003fc57620003fb620002d3565b5b620004098482856200039d565b509392505050565b5f82601f830112620004285762000427620002cf565b5b81516200043a848260208601620003c7565b91505092915050565b5f602082840312156200045b576200045a62000221565b5b5f82015167ffffffffffffffff8111156200047b576200047a62000225565b5b620004898482850162000411565b91505092915050565b5f81519050919050565b5f81905092915050565b5f620004b28262000492565b620004be81856200049c565b9350620004d08185602086016200039d565b80840191505092915050565b5f620004e98285620004a6565b9150620004f78284620004a6565b91508190509392505050565b7f4e487b71000000000000000000000000000000000000000000000000000000005f52602260045260245ffd5b5f60028204905060018216806200054857607f821691505b6020821081036200055e576200055d62000503565b5b50919050565b5f819050815f5260205f209050919050565b5f6020601f8301049050919050565b5f82821b905092915050565b5f60088302620005c27fffffffffffffffffffffffffffffffffffffffffffffffffffffffffffffffff8262000585565b620005ce868362000585565b95508019841693508086168417925050509392505050565b5f819050919050565b5f819050919050565b5f62000618620006126200060c84620005e6565b620005ef565b620005e6565b9050919050565b5f819050919050565b6200063383620005f8565b6200064b62000642826200061f565b84845462000591565b825550505050565b5f90565b6200066162000653565b6200066e81848462000628565b505050565b5b818110156200069557620006895f8262000657565b60018101905062000674565b5050565b601f821115620006e457620006ae8162000564565b620006b98462000576565b81016020851015620006c9578190505b620006e1620006d88562000576565b83018262000673565b50505b505050565b5f82821c905092915050565b5f620007065f1984600802620006e9565b1980831691505092915050565b5f620007208383620006f5565b9150826002028217905092915050565b6200073b8262000492565b67ffffffffffffffff811115620007575762000756620002e7565b5b62000763825462000530565b6200077082828562000699565b5f60209050601f831160018114620007a6575f841562000791578287015190505b6200079d858262000713565b8655506200080c565b601f198416620007b68662000564565b5f5b82811015620007df57848901518255600182019150602085019450602081019050620007b8565b86831015620007ff5784890151620007fb601f891682620006f5565b8355505b6001600288020188555050505b505050505050565b6120cc80620008225f395ff3fe608060405234801561000f575f80fd5b5060043610610135575f3560e01c806370a08231116100b6578063a9059cbb1161007a578063a9059cbb1461037a578063c45a0155146103aa578063d004f0f7146103c8578063d505accf146103f8578063dd62ed3e14610414578063e2bbb1581461044457610135565b806370a08231146102ae5780637464fc3d146102de5780637ecebe00146102fc5780638f79306e1461032c57806395d89b411461035c57610135565b80632e1a7d4d116100fd5780632e1a7d4d146101f3578063313ce567146102245780633644e515146102425780635e3f272714610260578063677342ce1461027e57610135565b806306fdde0314610139578063095ea7b3146101575780630b4501fd1461018757806318160ddd146101a557806323b872dd146101c3575b5f80fd5b610141610474565b60405161014e919061187a565b60405180910390f35b610171600480360381019061016c919061192b565b6104d2565b60405161017e9190611983565b60405180910390f35b61018f610522565b60405161019c91906119ab565b60405180910390f35b6101ad610527565b6040516101ba91906119ab565b60405180910390f35b6101dd60048036038101906101d891906119c4565b610538565b6040516101ea9190611983565b60405180910390f35b61020d60048036038101906102089190611a14565b610609565b60405161021b929190611a3f565b60405180910390f35b61022c6107d3565b6040516102399190611a81565b60405180910390f35b61024a6107db565b6040516102579190611ab2565b60405180910390f35b61026861086b565b60405161027591906119ab565b60405180910390f35b61029860048036038101906102939190611a14565b610870565b6040516102a591906119ab565b60405180910390f35b6102c860048036038101906102c39190611acb565b610a0a565b6040516102d591906119ab565b60405180910390f35b6102e6610a23565b6040516102f391906119ab565b60405180910390f35b61031660048036038101906103119190611acb565b610a29565b60405161032391906119ab565b60405180910390f35b6103466004803603810190610341919061192b565b610a42565b60405161035391906119ab565b60405180910390f35b610364610b71565b604051610371919061187a565b60405180910390f35b610394600480360381019061038f919061192b565b610c00565b6040516103a19190611983565b60405180910390f35b6103b2610c8e565b6040516103bf9190611b05565b60405180910390f35b6103e260048036038101906103dd919061192b565b610cb3565b6040516103ef91906119ab565b60405180910390f35b610412600480360381019061040d9190611b72565b611036565b005b61042e60048036038101906104299190611c0f565b6111d2565b60405161043b91906119ab565b60405180910390f35b61045e60048036038101906104599190611c4d565b6111f0565b60405161046b91906119ab565b60405180910390f35b60606040518060400160405280600581526020017f4d494e492d0000000000000000000000000000000000000000000000000000008152505f6040516020016104be929190611db4565b604051602081830303815290604052905090565b5f82602052637f5e9f20600c52335f52816034600c2055815f52602c5160601c337f8c5be1e5ebec7d5bd14f71427d1e84f3dd0314c0f7b2291e5b200ac8c7c3b92560205fa36001905092915050565b600581565b5f6805345cdf77eb68f44c54905090565b5f6105448484846113df565b8360601b33602052637f5e9f208117600c526034600c2080546001810115610581578085111561057b576313be252b5f526004601cfd5b84810382555b6387a211a28317600c526020600c208054808711156105a75763f4d678b85f526004601cfd5b8681038255875f526020600c2087815401815587602052600c5160601c8660601c7fddf252ad1be2c89b69c2b068fc378daa952ba7f163c4a11628f55a4df523b3ef602080a35050505050506105fe8484846113e4565b600190509392505050565b5f808261061533610a0a565b101561064d576040517f50b1f35600000000000000000000000000000000000000000000000000000000815260040160405180910390fd5b5f80600554600654915091505f610662610527565b90508083876106719190611e04565b61067b9190611e72565b945080828761068a9190611e04565b6106949190611e72565b93505f8514806106a357505f84145b156106da576040517f2cd294cf00000000000000000000000000000000000000000000000000000000815260040160405180910390fd5b6106e483836113e9565b61071160035f9054906101000a900473ffffffffffffffffffffffffffffffffffffffff1630338861151d565b61073e60045f9054906101000a900473ffffffffffffffffffffffffffffffffffffffff1630338761151d565b61074830876115db565b8460055f8282546107599190611ea2565b925050819055508360065f8282546107719190611ea2565b925050819055506006546005546107889190611e04565b6002819055507f02f25270a4d87bea75db541cdfe559334a275b4a233520ed6c0a2429667cca94308787876040516107c39493929190611ed5565b60405180910390a1505050915091565b5f6012905090565b5f806107e561166b565b90505f801b8103610802576107f8610474565b8051906020012090505b6040517f8b73c3c69bb8fe3d512ecc4cf759cc79239f7b179b0ffacaa9a75d522b39400f81528160208201527fc89efdaa54c0f20c7adf612882df0950f5a951637e0307cdcb4c672f298b8bc6604082015246606082015230608082015260a081209250505090565b601e81565b5f6001821161088157819050610a05565b5f8290505f6001905070010000000000000000000000000000000082106108b157608082901c9150604081901b90505b6801000000000000000082106108d057604082901c9150602081901b90505b64010000000082106108eb57602082901c9150601081901b90505b62010000821061090457601082901c9150600881901b90505b610100821061091c57600882901c9150600481901b90505b6010821061093357600482901c9150600281901b90505b6004821061094357600181901b90505b600181600302901c9050600181858161095f5761095e611e45565b5b048201901c9050600181858161097857610977611e45565b5b048201901c9050600181858161099157610990611e45565b5b048201901c905060018185816109aa576109a9611e45565b5b048201901c905060018185816109c3576109c2611e45565b5b048201901c905060018185816109dc576109db611e45565b5b048201901c90506109fe8185816109f6576109f5611e45565b5b04821161166f565b8103925050505b919050565b5f6387a211a2600c52815f526020600c20549050919050565b60025481565b5f6338377508600c52815f526020600c20549050919050565b5f8260035f9054906101000a900473ffffffffffffffffffffffffffffffffffffffff1673ffffffffffffffffffffffffffffffffffffffff168173ffffffffffffffffffffffffffffffffffffffff1614158015610aee575060045f9054906101000a900473ffffffffffffffffffffffffffffffffffffffff1673ffffffffffffffffffffffffffffffffffffffff168173ffffffffffffffffffffffffffffffffffffffff1614155b15610b25576040517f82bce52600000000000000000000000000000000000000000000000000000000815260040160405180910390fd5b5f8303610b5e576040517f8966f48700000000000000000000000000000000000000000000000000000000815260040160405180910390fd5b610b68848461167a565b91505092915050565b60605f8054610b7f90611cf2565b80601f0160208091040260200160405190810160405280929190818152602001828054610bab90611cf2565b8015610bf65780601f10610bcd57610100808354040283529160200191610bf6565b820191905f5260205f20905b815481529060010190602001808311610bd957829003601f168201915b5050505050905090565b5f610c0c3384846113df565b6387a211a2600c52335f526020600c20805480841115610c335763f4d678b85f526004601cfd5b8381038255845f526020600c2084815401815584602052600c5160601c337fddf252ad1be2c89b69c2b068fc378daa952ba7f163c4a11628f55a4df523b3ef602080a3505050610c843384846113e4565b6001905092915050565b60015f9054906101000a900473ffffffffffffffffffffffffffffffffffffffff1681565b5f8260035f9054906101000a900473ffffffffffffffffffffffffffffffffffffffff1673ffffffffffffffffffffffffffffffffffffffff168173ffffffffffffffffffffffffffffffffffffffff1614158015610d5f575060045f9054906101000a900473ffffffffffffffffffffffffffffffffffffffff1673ffffffffffffffffffffffffffffffffffffffff168173ffffffffffffffffffffffffffffffffffffffff1614155b15610d96576040517f82bce52600000000000000000000000000000000000000000000000000000000815260040160405180910390fd5b5f60035f9054906101000a900473ffffffffffffffffffffffffffffffffffffffff1690505f60045f9054906101000a900473ffffffffffffffffffffffffffffffffffffffff1690505f8503610e19576040517f8966f48700000000000000000000000000000000000000000000000000000000815260040160405180910390fd5b610e23868661167a565b93505f8273ffffffffffffffffffffffffffffffffffffffff168773ffffffffffffffffffffffffffffffffffffffff1614610e5f5782610e61565b815b90508460028273ffffffffffffffffffffffffffffffffffffffff166370a08231306040518263ffffffff1660e01b8152600401610e9f9190611b05565b602060405180830381865afa158015610eba573d5f803e3d5ffd5b505050506040513d601f19601f82011682018060405250810190610ede9190611f2c565b610ee89190611e72565b1015610f20576040517f8cab1f2800000000000000000000000000000000000000000000000000000000815260040160405180910390fd5b610f2c8733308961151d565b5f612710601e87610f3d9190611e04565b610f479190611e72565b9050610f558230338461151d565b8373ffffffffffffffffffffffffffffffffffffffff168273ffffffffffffffffffffffffffffffffffffffff1603610fbd578560055f828254610f999190611ea2565b925050819055508660065f828254610fb19190611f57565b92505081905550610fee565b8660055f828254610fce9190611f57565b925050819055508560065f828254610fe69190611ea2565b925050819055505b7ffa2dda1cc1b86e41239702756b13effbc1a092b5c57e3ad320fbe4f3b13fe235828983896040516110239493929190611f8a565b60405180910390a1505050505092915050565b5f61103f61166b565b90505f801b810361105c57611052610474565b8051906020012090505b8442111561107157631a15a3cc5f526004601cfd5b6040518860601b60601c98508760601b60601c975065383775081901600e52885f526020600c2080547f8b73c3c69bb8fe3d512ecc4cf759cc79239f7b179b0ffacaa9a75d522b39400f83528360208401527fc89efdaa54c0f20c7adf612882df0950f5a951637e0307cdcb4c672f298b8bc6604084015246606084015230608084015260a08320602e527f6e71edae12b1b97f4d1f60370fef10105fa2faae0126114a169c64845d6126c983528a60208401528960408401528860608401528060808401528760a084015260c08320604e526042602c205f528660ff16602052856040528460605260208060805f60015afa8b3d51146111795763ddafbaef5f526004601cfd5b80820183558a637f5e9f2060a01b17604052896034602c20558a8c7f8c5be1e5ebec7d5bd14f71427d1e84f3dd0314c0f7b2291e5b200ac8c7c3b925602060608801a3836040525f606052505050505050505050505050565b5f81602052637f5e9f20600c52825f526034600c2054905092915050565b5f806111fa610527565b90505f806005546006549150915061123560035f9054906101000a900473ffffffffffffffffffffffffffffffffffffffff1633308961151d565b61126260045f9054906101000a900473ffffffffffffffffffffffffffffffffffffffff1633308861151d565b61126c82826113e9565b5f83036112a7576103e861128a86886112859190611e04565b610870565b6112949190611ea2565b93506112a25f6103e8611746565b611349565b5f6112d360035f9054906101000a900473ffffffffffffffffffffffffffffffffffffffff168861167a565b90508581101561130f576040517f2cd294cf00000000000000000000000000000000000000000000000000000000815260040160405180910390fd5b61134583858961131f9190611e04565b6113299190611e72565b8386896113369190611e04565b6113409190611e72565b6117d8565b9450505b6113533385611746565b8560055f8282546113649190611f57565b925050819055508460065f82825461137c9190611f57565b925050819055506006546005546113939190611e04565b6002819055507f36af321ec8d3c75236829c5317affd40ddb308863a1236d2d277a4025cccee1e308588886040516113ce9493929190611ed5565b60405180910390a150505092915050565b505050565b505050565b5f60015f9054906101000a900473ffffffffffffffffffffffffffffffffffffffff1673ffffffffffffffffffffffffffffffffffffffff1663085bf3b96040518163ffffffff1660e01b8152600401602060405180830381865afa158015611454573d5f803e3d5ffd5b505050506040513d601f19601f820116820180604052508101906114789190611fe1565b90505f60025490505f8114611517575f61149c84866114979190611e04565b610870565b90505f6114a883610870565b905080821115611514575f81836114bf9190611ea2565b6114c7610527565b6114d19190611e04565b90505f826005856114e29190611e04565b6114ec9190611f57565b90505f81836114fb9190611e72565b90505f8111156115105761150f8782611746565b5b5050505b50505b50505050565b5f8473ffffffffffffffffffffffffffffffffffffffff166323b872dd8585856040518463ffffffff1660e01b815260040161155b9392919061200c565b6020604051808303815f875af1158015611577573d5f803e3d5ffd5b505050506040513d601f19601f8201168201806040525081019061159b919061206b565b9050806115d4576040517f3f4ab80e00000000000000000000000000000000000000000000000000000000815260040160405180910390fd5b5050505050565b6115e6825f836113df565b6387a211a2600c52815f526020600c2080548083111561160d5763f4d678b85f526004601cfd5b8281038255826805345cdf77eb68f44c54036805345cdf77eb68f44c55825f525f8460601b60601c7fddf252ad1be2c89b69c2b068fc378daa952ba7f163c4a11628f55a4df523b3ef60205fa35050611667825f836113e4565b5050565b5f90565b5f8115159050919050565b5f8060035f9054906101000a900473ffffffffffffffffffffffffffffffffffffffff1690505f8173ffffffffffffffffffffffffffffffffffffffff168573ffffffffffffffffffffffffffffffffffffffff16146116dc576006546116e0565b6005545b90505f8273ffffffffffffffffffffffffffffffffffffffff168673ffffffffffffffffffffffffffffffffffffffff161461171e57600554611722565b6006545b90508085836117319190611e04565b61173b9190611e72565b935050505092915050565b6117515f83836113df565b6805345cdf77eb68f44c54818101818110156117745763e5cfe9575f526004601cfd5b806805345cdf77eb68f44c556387a211a2600c52835f526020600c2083815401815583602052600c5160601c5f7fddf252ad1be2c89b69c2b068fc378daa952ba7f163c4a11628f55a4df523b3ef602080a35050506117d45f83836113e4565b5050565b5f8183106117e657816117e8565b825b905092915050565b5f81519050919050565b5f82825260208201905092915050565b5f5b8381101561182757808201518184015260208101905061180c565b5f8484015250505050565b5f601f19601f8301169050919050565b5f61184c826117f0565b61185681856117fa565b935061186681856020860161180a565b61186f81611832565b840191505092915050565b5f6020820190508181035f8301526118928184611842565b905092915050565b5f80fd5b5f73ffffffffffffffffffffffffffffffffffffffff82169050919050565b5f6118c78261189e565b9050919050565b6118d7816118bd565b81146118e1575f80fd5b50565b5f813590506118f2816118ce565b92915050565b5f819050919050565b61190a816118f8565b8114611914575f80fd5b50565b5f8135905061192581611901565b92915050565b5f80604083850312156119415761194061189a565b5b5f61194e858286016118e4565b925050602061195f85828601611917565b9150509250929050565b5f8115159050919050565b61197d81611969565b82525050565b5f6020820190506119965f830184611974565b92915050565b6119a5816118f8565b82525050565b5f6020820190506119be5f83018461199c565b92915050565b5f805f606084860312156119db576119da61189a565b5b5f6119e8868287016118e4565b93505060206119f9868287016118e4565b9250506040611a0a86828701611917565b9150509250925092565b5f60208284031215611a2957611a2861189a565b5b5f611a3684828501611917565b91505092915050565b5f604082019050611a525f83018561199c565b611a5f602083018461199c565b9392505050565b5f60ff82169050919050565b611a7b81611a66565b82525050565b5f602082019050611a945f830184611a72565b92915050565b5f819050919050565b611aac81611a9a565b82525050565b5f602082019050611ac55f830184611aa3565b92915050565b5f60208284031215611ae057611adf61189a565b5b5f611aed848285016118e4565b91505092915050565b611aff816118bd565b82525050565b5f602082019050611b185f830184611af6565b92915050565b611b2781611a66565b8114611b31575f80fd5b50565b5f81359050611b4281611b1e565b92915050565b611b5181611a9a565b8114611b5b575f80fd5b50565b5f81359050611b6c81611b48565b92915050565b5f805f805f805f60e0888a031215611b8d57611b8c61189a565b5b5f611b9a8a828b016118e4565b9750506020611bab8a828b016118e4565b9650506040611bbc8a828b01611917565b9550506060611bcd8a828b01611917565b9450506080611bde8a828b01611b34565b93505060a0611bef8a828b01611b5e565b92505060c0611c008a828b01611b5e565b91505092959891949750929550565b5f8060408385031215611c2557611c2461189a565b5b5f611c32858286016118e4565b9250506020611c43858286016118e4565b9150509250929050565b5f8060408385031215611c6357611c6261189a565b5b5f611c7085828601611917565b9250506020611c8185828601611917565b9150509250929050565b5f81905092915050565b5f611c9f826117f0565b611ca98185611c8b565b9350611cb981856020860161180a565b80840191505092915050565b7f4e487b71000000000000000000000000000000000000000000000000000000005f52602260045260245ffd5b5f6002820490506001821680611d0957607f821691505b602082108103611d1c57611d1b611cc5565b5b50919050565b5f819050815f5260205f209050919050565b5f8154611d4081611cf2565b611d4a8186611c8b565b9450600182165f8114611d645760018114611d7957611dab565b60ff1983168652811515820286019350611dab565b611d8285611d22565b5f5b83811015611da357815481890152600182019150602081019050611d84565b838801955050505b50505092915050565b5f611dbf8285611c95565b9150611dcb8284611d34565b91508190509392505050565b7f4e487b71000000000000000000000000000000000000000000000000000000005f52601160045260245ffd5b5f611e0e826118f8565b9150611e19836118f8565b9250828202611e27816118f8565b91508282048414831517611e3e57611e3d611dd7565b5b5092915050565b7f4e487b71000000000000000000000000000000000000000000000000000000005f52601260045260245ffd5b5f611e7c826118f8565b9150611e87836118f8565b925082611e9757611e96611e45565b5b828204905092915050565b5f611eac826118f8565b9150611eb7836118f8565b9250828203905081811115611ecf57611ece611dd7565b5b92915050565b5f608082019050611ee85f830187611af6565b611ef5602083018661199c565b611f02604083018561199c565b611f0f606083018461199c565b95945050505050565b5f81519050611f2681611901565b92915050565b5f60208284031215611f4157611f4061189a565b5b5f611f4e84828501611f18565b91505092915050565b5f611f61826118f8565b9150611f6c836118f8565b9250828201905080821115611f8457611f83611dd7565b5b92915050565b5f608082019050611f9d5f830187611af6565b611faa6020830186611af6565b611fb7604083018561199c565b611fc4606083018461199c565b95945050505050565b5f81519050611fdb816118ce565b92915050565b5f60208284031215611ff657611ff561189a565b5b5f61200384828501611fcd565b91505092915050565b5f60608201905061201f5f830186611af6565b61202c6020830185611af6565b612039604083018461199c565b949350505050565b61204a81611969565b8114612054575f80fd5b50565b5f8151905061206581612041565b92915050565b5f602082840312156120805761207f61189a565b5b5f61208d84828501612057565b9150509291505056fea264697066735822122097e1de0ac6550c2ac3d1883a558fdc423a06507fc493554cd74e790b4dcc590a64736f6c63430008140033",
			"opcodes": "PUSH1 0x80 PUSH1 0x40 MSTORE CALLVALUE DUP1 ISZERO PUSH3 0x10 JUMPI PUSH0 DUP1 REVERT JUMPDEST POP PUSH1 0x40 MLOAD PUSH3 0x28EE CODESIZE SUB DUP1 PUSH3 0x28EE DUP4 CODECOPY DUP2 DUP2 ADD PUSH1 0x40 MSTORE DUP2 ADD SWAP1 PUSH3 0x36 SWAP2 SWAP1 PUSH3 0x28A JUMP JUMPDEST DUP2 PUSH20 0xFFFFFFFFFFFFFFFFFFFFFFFFFFFFFFFFFFFFFFFF AND PUSH4 0x95D89B41 PUSH1 0x40 MLOAD DUP2 PUSH4 0xFFFFFFFF AND PUSH1 0xE0 SHL DUP2 MSTORE PUSH1 0x4 ADD PUSH0 PUSH1 0x40 MLOAD DUP1 DUP4 SUB DUP2 DUP7 GAS STATICCALL ISZERO DUP1 ISZERO PUSH3 0x7F JUMPI RETURNDATASIZE PUSH0 DUP1 RETURNDATACOPY RETURNDATASIZE PUSH0 REVERT JUMPDEST POP POP POP POP PUSH1 0x40 MLOAD RETURNDATASIZE PUSH0 DUP3 RETURNDATACOPY RETURNDATASIZE PUSH1 0x1F NOT PUSH1 0x1F DUP3 ADD AND DUP3 ADD DUP1 PUSH1 0x40 MSTORE POP DUP2 ADD SWAP1 PUSH3 0xA9 SWAP2 SWAP1 PUSH3 0x443 JUMP JUMPDEST DUP2 PUSH20 0xFFFFFFFFFFFFFFFFFFFFFFFFFFFFFFFFFFFFFFFF AND PUSH4 0x95D89B41 PUSH1 0x40 MLOAD DUP2 PUSH4 0xFFFFFFFF AND PUSH1 0xE0 SHL DUP2 MSTORE PUSH1 0x4 ADD PUSH0 PUSH1 0x40 MLOAD DUP1 DUP4 SUB DUP2 DUP7 GAS STATICCALL ISZERO DUP1 ISZERO PUSH3 0xF2 JUMPI RETURNDATASIZE PUSH0 DUP1 RETURNDATACOPY RETURNDATASIZE PUSH0 REVERT JUMPDEST POP POP POP POP PUSH1 0x40 MLOAD RETURNDATASIZE PUSH0 DUP3 RETURNDATACOPY RETURNDATASIZE PUSH1 0x1F NOT PUSH1 0x1F DUP3 ADD AND DUP3 ADD DUP1 PUSH1 0x40 MSTORE POP DUP2 ADD SWAP1 PUSH3 0x11C SWAP2 SWAP1 PUSH3 0x443 JUMP JUMPDEST PUSH1 0x40 MLOAD PUSH1 0x20 ADD PUSH3 0x12F SWAP3 SWAP2 SWAP1 PUSH3 0x4DC JUMP JUMPDEST PUSH1 0x40 MLOAD PUSH1 0x20 DUP2 DUP4 SUB SUB DUP2 MSTORE SWAP1 PUSH1 0x40 MSTORE DUP1 PUSH0 SWAP1 DUP2 PUSH3 0x14E SWAP2 SWAP1 PUSH3 0x730 JUMP JUMPDEST POP POP CALLER PUSH1 0x1 PUSH0 PUSH2 0x100 EXP DUP2 SLOAD DUP2 PUSH20 0xFFFFFFFFFFFFFFFFFFFFFFFFFFFFFFFFFFFFFFFF MUL NOT AND SWAP1 DUP4 PUSH20 0xFFFFFFFFFFFFFFFFFFFFFFFFFFFFFFFFFFFFFFFF AND MUL OR SWAP1 SSTORE POP DUP2 PUSH1 0x3 PUSH0 PUSH2 0x100 EXP DUP2 SLOAD DUP2 PUSH20 0xFFFFFFFFFFFFFFFFFFFFFFFFFFFFFFFFFFFFFFFF MUL NOT AND SWAP1 DUP4 PUSH20 0xFFFFFFFFFFFFFFFFFFFFFFFFFFFFFFFFFFFFFFFF AND MUL OR SWAP1 SSTORE POP DUP1 PUSH1 0x4 PUSH0 PUSH2 0x100 EXP DUP2 SLOAD DUP2 PUSH20 0xFFFFFFFFFFFFFFFFFFFFFFFFFFFFFFFFFFFFFFFF MUL NOT AND SWAP1 DUP4 PUSH20 0xFFFFFFFFFFFFFFFFFFFFFFFFFFFFFFFFFFFFFFFF AND MUL OR SWAP1 SSTORE POP POP POP PUSH3 0x814 JUMP JUMPDEST PUSH0 PUSH1 0x40 MLOAD SWAP1 POP SWAP1 JUMP JUMPDEST PUSH0 DUP1 REVERT JUMPDEST PUSH0 DUP1 REVERT JUMPDEST PUSH0 PUSH20 0xFFFFFFFFFFFFFFFFFFFFFFFFFFFFFFFFFFFFFFFF DUP3 AND SWAP1 POP SWAP2 SWAP1 POP JUMP JUMPDEST PUSH0 PUSH3 0x254 DUP3 PUSH3 0x229 JUMP JUMPDEST SWAP1 POP SWAP2 SWAP1 POP JUMP JUMPDEST PUSH3 0x266 DUP2 PUSH3 0x248 JUMP JUMPDEST DUP2 EQ PUSH3 0x271 JUMPI PUSH0 DUP1 REVERT JUMPDEST POP JUMP JUMPDEST PUSH0 DUP2 MLOAD SWAP1 POP PUSH3 0x284 DUP2 PUSH3 0x25B JUMP JUMPDEST SWAP3 SWAP2 POP POP JUMP JUMPDEST PUSH0 DUP1 PUSH1 0x40 DUP4 DUP6 SUB SLT ISZERO PUSH3 0x2A3 JUMPI PUSH3 0x2A2 PUSH3 0x221 JUMP JUMPDEST JUMPDEST PUSH0 PUSH3 0x2B2 DUP6 DUP3 DUP7 ADD PUSH3 0x274 JUMP JUMPDEST SWAP3 POP POP PUSH1 0x20 PUSH3 0x2C5 DUP6 DUP3 DUP7 ADD PUSH3 0x274 JUMP JUMPDEST SWAP2 POP POP SWAP3 POP SWAP3 SWAP1 POP JUMP JUMPDEST PUSH0 DUP1 REVERT JUMPDEST PUSH0 DUP1 REVERT JUMPDEST PUSH0 PUSH1 0x1F NOT PUSH1 0x1F DUP4 ADD AND SWAP1 POP SWAP2 SWAP1 POP JUMP JUMPDEST PUSH32 0x4E487B7100000000000000000000000000000000000000000000000000000000 PUSH0 MSTORE PUSH1 0x41 PUSH1 0x4 MSTORE PUSH1 0x24 PUSH0 REVERT JUMPDEST PUSH3 0x31F DUP3 PUSH3 0x2D7 JUMP JUMPDEST DUP2 ADD DUP2 DUP2 LT PUSH8 0xFFFFFFFFFFFFFFFF DUP3 GT OR ISZERO PUSH3 0x341 JUMPI PUSH3 0x340 PUSH3 0x2E7 JUMP JUMPDEST JUMPDEST DUP1 PUSH1 0x40 MSTORE POP POP POP JUMP JUMPDEST PUSH0 PUSH3 0x355 PUSH3 0x218 JUMP JUMPDEST SWAP1 POP PUSH3 0x363 DUP3 DUP3 PUSH3 0x314 JUMP JUMPDEST SWAP2 SWAP1 POP JUMP JUMPDEST PUSH0 PUSH8 0xFFFFFFFFFFFFFFFF DUP3 GT ISZERO PUSH3 0x385 JUMPI PUSH3 0x384 PUSH3 0x2E7 JUMP JUMPDEST JUMPDEST PUSH3 0x390 DUP3 PUSH3 0x2D7 JUMP JUMPDEST SWAP1 POP PUSH1 0x20 DUP2 ADD SWAP1 POP SWAP2 SWAP1 POP JUMP JUMPDEST PUSH0 JUMPDEST DUP4 DUP2 LT ISZERO PUSH3 0x3BC JUMPI DUP1 DUP3 ADD MLOAD DUP2 DUP5 ADD MSTORE PUSH1 0x20 DUP2 ADD SWAP1 POP PUSH3 0x39F JUMP JUMPDEST PUSH0 DUP5 DUP5 ADD MSTORE POP POP POP POP JUMP JUMPDEST PUSH0 PUSH3 0x3DD PUSH3 0x3D7 DUP5 PUSH3 0x368 JUMP JUMPDEST PUSH3 0x34A JUMP JUMPDEST SWAP1 POP DUP3 DUP2 MSTORE PUSH1 0x20 DUP2 ADD DUP5 DUP5 DUP5 ADD GT ISZERO PUSH3 0x3FC JUMPI PUSH3 0x3FB PUSH3 0x2D3 JUMP JUMPDEST JUMPDEST PUSH3 0x409 DUP5 DUP3 DUP6 PUSH3 0x39D JUMP JUMPDEST POP SWAP4 SWAP3 POP POP POP JUMP JUMPDEST PUSH0 DUP3 PUSH1 0x1F DUP4 ADD SLT PUSH3 0x428 JUMPI PUSH3 0x427 PUSH3 0x2CF JUMP JUMPDEST JUMPDEST DUP2 MLOAD PUSH3 0x43A DUP5 DUP3 PUSH1 0x20 DUP7 ADD PUSH3 0x3C7 JUMP JUMPDEST SWAP2 POP POP SWAP3 SWAP2 POP POP JUMP JUMPDEST PUSH0 PUSH1 0x20 DUP3 DUP5 SUB SLT ISZERO PUSH3 0x45B JUMPI PUSH3 0x45A PUSH3 0x221 JUMP JUMPDEST JUMPDEST PUSH0 DUP3 ADD MLOAD PUSH8 0xFFFFFFFFFFFFFFFF DUP2 GT ISZERO PUSH3 0x47B JUMPI PUSH3 0x47A PUSH3 0x225 JUMP JUMPDEST JUMPDEST PUSH3 0x489 DUP5 DUP3 DUP6 ADD PUSH3 0x411 JUMP JUMPDEST SWAP2 POP POP SWAP3 SWAP2 POP POP JUMP JUMPDEST PUSH0 DUP2 MLOAD SWAP1 POP SWAP2 SWAP1 POP JUMP JUMPDEST PUSH0 DUP2 SWAP1 POP SWAP3 SWAP2 POP POP JUMP JUMPDEST PUSH0 PUSH3 0x4B2 DUP3 PUSH3 0x492 JUMP JUMPDEST PUSH3 0x4BE DUP2 DUP6 PUSH3 0x49C JUMP JUMPDEST SWAP4 POP PUSH3 0x4D0 DUP2 DUP6 PUSH1 0x20 DUP7 ADD PUSH3 0x39D JUMP JUMPDEST DUP1 DUP5 ADD SWAP2 POP POP SWAP3 SWAP2 POP POP JUMP JUMPDEST PUSH0 PUSH3 0x4E9 DUP3 DUP6 PUSH3 0x4A6 JUMP JUMPDEST SWAP2 POP PUSH3 0x4F7 DUP3 DUP5 PUSH3 0x4A6 JUMP JUMPDEST SWAP2 POP DUP2 SWAP1 POP SWAP4 SWAP3 POP POP POP JUMP JUMPDEST PUSH32 0x4E487B7100000000000000000000000000000000000000000000000000000000 PUSH0 MSTORE PUSH1 0x22 PUSH1 0x4 MSTORE PUSH1 0x24 PUSH0 REVERT JUMPDEST PUSH0 PUSH1 0x2 DUP3 DIV SWAP1 POP PUSH1 0x1 DUP3 AND DUP1 PUSH3 0x548 JUMPI PUSH1 0x7F DUP3 AND SWAP2 POP JUMPDEST PUSH1 0x20 DUP3 LT DUP2 SUB PUSH3 0x55E JUMPI PUSH3 0x55D PUSH3 0x503 JUMP JUMPDEST JUMPDEST POP SWAP2 SWAP1 POP JUMP JUMPDEST PUSH0 DUP2 SWAP1 POP DUP2 PUSH0 MSTORE PUSH1 0x20 PUSH0 KECCAK256 SWAP1 POP SWAP2 SWAP1 POP JUMP JUMPDEST PUSH0 PUSH1 0x20 PUSH1 0x1F DUP4 ADD DIV SWAP1 POP SWAP2 SWAP1 POP JUMP JUMPDEST PUSH0 DUP3 DUP3 SHL SWAP1 POP SWAP3 SWAP2 POP POP JUMP JUMPDEST PUSH0 PUSH1 0x8 DUP4 MUL PUSH3 0x5C2 PUSH32 0xFFFFFFFFFFFFFFFFFFFFFFFFFFFFFFFFFFFFFFFFFFFFFFFFFFFFFFFFFFFFFFFF DUP3 PUSH3 0x585 JUMP JUMPDEST PUSH3 0x5CE DUP7 DUP4 PUSH3 0x585 JUMP JUMPDEST SWAP6 POP DUP1 NOT DUP5 AND SWAP4 POP DUP1 DUP7 AND DUP5 OR SWAP3 POP POP POP SWAP4 SWAP3 POP POP POP JUMP JUMPDEST PUSH0 DUP2 SWAP1 POP SWAP2 SWAP1 POP JUMP JUMPDEST PUSH0 DUP2 SWAP1 POP SWAP2 SWAP1 POP JUMP JUMPDEST PUSH0 PUSH3 0x618 PUSH3 0x612 PUSH3 0x60C DUP5 PUSH3 0x5E6 JUMP JUMPDEST PUSH3 0x5EF JUMP JUMPDEST PUSH3 0x5E6 JUMP JUMPDEST SWAP1 POP SWAP2 SWAP1 POP JUMP JUMPDEST PUSH0 DUP2 SWAP1 POP SWAP2 SWAP1 POP JUMP JUMPDEST PUSH3 0x633 DUP4 PUSH3 0x5F8 JUMP JUMPDEST PUSH3 0x64B PUSH3 0x642 DUP3 PUSH3 0x61F JUMP JUMPDEST DUP5 DUP5 SLOAD PUSH3 0x591 JUMP JUMPDEST DUP3 SSTORE POP POP POP POP JUMP JUMPDEST PUSH0 SWAP1 JUMP JUMPDEST PUSH3 0x661 PUSH3 0x653 JUMP JUMPDEST PUSH3 0x66E DUP2 DUP5 DUP5 PUSH3 0x628 JUMP JUMPDEST POP POP POP JUMP JUMPDEST JUMPDEST DUP2 DUP2 LT ISZERO PUSH3 0x695 JUMPI PUSH3 0x689 PUSH0 DUP3 PUSH3 0x657 JUMP JUMPDEST PUSH1 0x1 DUP2 ADD SWAP1 POP PUSH3 0x674 JUMP JUMPDEST POP POP JUMP JUMPDEST PUSH1 0x1F DUP3 GT ISZERO PUSH3 0x6E4 JUMPI PUSH3 0x6AE DUP2 PUSH3 0x564 JUMP JUMPDEST PUSH3 0x6B9 DUP5 PUSH3 0x576 JUMP JUMPDEST DUP2 ADD PUSH1 0x20 DUP6 LT ISZERO PUSH3 0x6C9 JUMPI DUP2 SWAP1 POP JUMPDEST PUSH3 0x6E1 PUSH3 0x6D8 DUP6 PUSH3 0x576 JUMP JUMPDEST DUP4 ADD DUP3 PUSH3 0x673 JUMP JUMPDEST POP POP JUMPDEST POP POP POP JUMP JUMPDEST PUSH0 DUP3 DUP3 SHR SWAP1 POP SWAP3 SWAP2 POP POP JUMP JUMPDEST PUSH0 PUSH3 0x706 PUSH0 NOT DUP5 PUSH1 0x8 MUL PUSH3 0x6E9 JUMP JUMPDEST NOT DUP1 DUP4 AND SWAP2 POP POP SWAP3 SWAP2 POP POP JUMP JUMPDEST PUSH0 PUSH3 0x720 DUP4 DUP4 PUSH3 0x6F5 JUMP JUMPDEST SWAP2 POP DUP3 PUSH1 0x2 MUL DUP3 OR SWAP1 POP SWAP3 SWAP2 POP POP JUMP JUMPDEST PUSH3 0x73B DUP3 PUSH3 0x492 JUMP JUMPDEST PUSH8 0xFFFFFFFFFFFFFFFF DUP2 GT ISZERO PUSH3 0x757 JUMPI PUSH3 0x756 PUSH3 0x2E7 JUMP JUMPDEST JUMPDEST PUSH3 0x763 DUP3 SLOAD PUSH3 0x530 JUMP JUMPDEST PUSH3 0x770 DUP3 DUP3 DUP6 PUSH3 0x699 JUMP JUMPDEST PUSH0 PUSH1 0x20 SWAP1 POP PUSH1 0x1F DUP4 GT PUSH1 0x1 DUP2 EQ PUSH3 0x7A6 JUMPI PUSH0 DUP5 ISZERO PUSH3 0x791 JUMPI DUP3 DUP8 ADD MLOAD SWAP1 POP JUMPDEST PUSH3 0x79D DUP6 DUP3 PUSH3 0x713 JUMP JUMPDEST DUP7 SSTORE POP PUSH3 0x80C JUMP JUMPDEST PUSH1 0x1F NOT DUP5 AND PUSH3 0x7B6 DUP7 PUSH3 0x564 JUMP JUMPDEST PUSH0 JUMPDEST DUP3 DUP2 LT ISZERO PUSH3 0x7DF JUMPI DUP5 DUP10 ADD MLOAD DUP3 SSTORE PUSH1 0x1 DUP3 ADD SWAP2 POP PUSH1 0x20 DUP6 ADD SWAP5 POP PUSH1 0x20 DUP2 ADD SWAP1 POP PUSH3 0x7B8 JUMP JUMPDEST DUP7 DUP4 LT ISZERO PUSH3 0x7FF JUMPI DUP5 DUP10 ADD MLOAD PUSH3 0x7FB PUSH1 0x1F DUP10 AND DUP3 PUSH3 0x6F5 JUMP JUMPDEST DUP4 SSTORE POP JUMPDEST PUSH1 0x1 PUSH1 0x2 DUP9 MUL ADD DUP9 SSTORE POP POP POP JUMPDEST POP POP POP POP POP POP JUMP JUMPDEST PUSH2 0x20CC DUP1 PUSH3 0x822 PUSH0 CODECOPY PUSH0 RETURN INVALID PUSH1 0x80 PUSH1 0x40 MSTORE CALLVALUE DUP1 ISZERO PUSH2 0xF JUMPI PUSH0 DUP1 REVERT JUMPDEST POP PUSH1 0x4 CALLDATASIZE LT PUSH2 0x135 JUMPI PUSH0 CALLDATALOAD PUSH1 0xE0 SHR DUP1 PUSH4 0x70A08231 GT PUSH2 0xB6 JUMPI DUP1 PUSH4 0xA9059CBB GT PUSH2 0x7A JUMPI DUP1 PUSH4 0xA9059CBB EQ PUSH2 0x37A JUMPI DUP1 PUSH4 0xC45A0155 EQ PUSH2 0x3AA JUMPI DUP1 PUSH4 0xD004F0F7 EQ PUSH2 0x3C8 JUMPI DUP1 PUSH4 0xD505ACCF EQ PUSH2 0x3F8 JUMPI DUP1 PUSH4 0xDD62ED3E EQ PUSH2 0x414 JUMPI DUP1 PUSH4 0xE2BBB158 EQ PUSH2 0x444 JUMPI PUSH2 0x135 JUMP JUMPDEST DUP1 PUSH4 0x70A08231 EQ PUSH2 0x2AE JUMPI DUP1 PUSH4 0x7464FC3D EQ PUSH2 0x2DE JUMPI DUP1 PUSH4 0x7ECEBE00 EQ PUSH2 0x2FC JUMPI DUP1 PUSH4 0x8F79306E EQ PUSH2 0x32C JUMPI DUP1 PUSH4 0x95D89B41 EQ PUSH2 0x35C JUMPI PUSH2 0x135 JUMP JUMPDEST DUP1 PUSH4 0x2E1A7D4D GT PUSH2 0xFD JUMPI DUP1 PUSH4 0x2E1A7D4D EQ PUSH2 0x1F3 JUMPI DUP1 PUSH4 0x313CE567 EQ PUSH2 0x224 JUMPI DUP1 PUSH4 0x3644E515 EQ PUSH2 0x242 JUMPI DUP1 PUSH4 0x5E3F2727 EQ PUSH2 0x260 JUMPI DUP1 PUSH4 0x677342CE EQ PUSH2 0x27E JUMPI PUSH2 0x135 JUMP JUMPDEST DUP1 PUSH4 0x6FDDE03 EQ PUSH2 0x139 JUMPI DUP1 PUSH4 0x95EA7B3 EQ PUSH2 0x157 JUMPI DUP1 PUSH4 0xB4501FD EQ PUSH2 0x187 JUMPI DUP1 PUSH4 0x18160DDD EQ PUSH2 0x1A5 JUMPI DUP1 PUSH4 0x23B872DD EQ PUSH2 0x1C3 JUMPI JUMPDEST PUSH0 DUP1 REVERT JUMPDEST PUSH2 0x141 PUSH2 0x474 JUMP JUMPDEST PUSH1 0x40 MLOAD PUSH2 0x14E SWAP2 SWAP1 PUSH2 0x187A JUMP JUMPDEST PUSH1 0x40 MLOAD DUP1 SWAP2 SUB SWAP1 RETURN JUMPDEST PUSH2 0x171 PUSH1 0x4 DUP1 CALLDATASIZE SUB DUP2 ADD SWAP1 PUSH2 0x16C SWAP2 SWAP1 PUSH2 0x192B JUMP JUMPDEST PUSH2 0x4D2 JUMP JUMPDEST PUSH1 0x40 MLOAD PUSH2 0x17E SWAP2 SWAP1 PUSH2 0x1983 JUMP JUMPDEST PUSH1 0x40 MLOAD DUP1 SWAP2 SUB SWAP1 RETURN JUMPDEST PUSH2 0x18F PUSH2 0x522 JUMP JUMPDEST PUSH1 0x40 MLOAD PUSH2 0x19C SWAP2 SWAP1 PUSH2 0x19AB JUMP JUMPDEST PUSH1 0x40 MLOAD DUP1 SWAP2 SUB SWAP1 RETURN JUMPDEST PUSH2 0x1AD PUSH2 0x527 JUMP JUMPDEST PUSH1 0x40 MLOAD PUSH2 0x1BA SWAP2 SWAP1 PUSH2 0x19AB JUMP JUMPDEST PUSH1 0x40 MLOAD DUP1 SWAP2 SUB SWAP1 RETURN JUMPDEST PUSH2 0x1DD PUSH1 0x4 DUP1 CALLDATASIZE SUB DUP2 ADD SWAP1 PUSH2 0x1D8 SWAP2 SWAP1 PUSH2 0x19C4 JUMP JUMPDEST PUSH2 0x538 JUMP JUMPDEST PUSH1 0x40 MLOAD PUSH2 0x1EA SWAP2 SWAP1 PUSH2 0x1983 JUMP JUMPDEST PUSH1 0x40 MLOAD DUP1 SWAP2 SUB SWAP1 RETURN JUMPDEST PUSH2 0x20D PUSH1 0x4 DUP1 CALLDATASIZE SUB DUP2 ADD SWAP1 PUSH2 0x208 SWAP2 SWAP1 PUSH2 0x1A14 JUMP JUMPDEST PUSH2 0x609 JUMP JUMPDEST PUSH1 0x40 MLOAD PUSH2 0x21B SWAP3 SWAP2 SWAP1 PUSH2 0x1A3F JUMP JUMPDEST PUSH1 0x40 MLOAD DUP1 SWAP2 SUB SWAP1 RETURN JUMPDEST PUSH2 0x22C PUSH2 0x7D3 JUMP JUMPDEST PUSH1 0x40 MLOAD PUSH2 0x239 SWAP2 SWAP1 PUSH2 0x1A81 JUMP JUMPDEST PUSH1 0x40 MLOAD DUP1 SWAP2 SUB SWAP1 RETURN JUMPDEST PUSH2 0x24A PUSH2 0x7DB JUMP JUMPDEST PUSH1 0x40 MLOAD PUSH2 0x257 SWAP2 SWAP1 PUSH2 0x1AB2 JUMP JUMPDEST PUSH1 0x40 MLOAD DUP1 SWAP2 SUB SWAP1 RETURN JUMPDEST PUSH2 0x268 PUSH2 0x86B JUMP JUMPDEST PUSH1 0x40 MLOAD PUSH2 0x275 SWAP2 SWAP1 PUSH2 0x19AB JUMP JUMPDEST PUSH1 0x40 MLOAD DUP1 SWAP2 SUB SWAP1 RETURN JUMPDEST PUSH2 0x298 PUSH1 0x4 DUP1 CALLDATASIZE SUB DUP2 ADD SWAP1 PUSH2 0x293 SWAP2 SWAP1 PUSH2 0x1A14 JUMP JUMPDEST PUSH2 0x870 JUMP JUMPDEST PUSH1 0x40 MLOAD PUSH2 0x2A5 SWAP2 SWAP1 PUSH2 0x19AB JUMP JUMPDEST PUSH1 0x40 MLOAD DUP1 SWAP2 SUB SWAP1 RETURN JUMPDEST PUSH2 0x2C8 PUSH1 0x4 DUP1 CALLDATASIZE SUB DUP2 ADD SWAP1 PUSH2 0x2C3 SWAP2 SWAP1 PUSH2 0x1ACB JUMP JUMPDEST PUSH2 0xA0A JUMP JUMPDEST PUSH1 0x40 MLOAD PUSH2 0x2D5 SWAP2 SWAP1 PUSH2 0x19AB JUMP JUMPDEST PUSH1 0x40 MLOAD DUP1 SWAP2 SUB SWAP1 RETURN JUMPDEST PUSH2 0x2E6 PUSH2 0xA23 JUMP JUMPDEST PUSH1 0x40 MLOAD PUSH2 0x2F3 SWAP2 SWAP1 PUSH2 0x19AB JUMP JUMPDEST PUSH1 0x40 MLOAD DUP1 SWAP2 SUB SWAP1 RETURN JUMPDEST PUSH2 0x316 PUSH1 0x4 DUP1 CALLDATASIZE SUB DUP2 ADD SWAP1 PUSH2 0x311 SWAP2 SWAP1 PUSH2 0x1ACB JUMP JUMPDEST PUSH2 0xA29 JUMP JUMPDEST PUSH1 0x40 MLOAD PUSH2 0x323 SWAP2 SWAP1 PUSH2 0x19AB JUMP JUMPDEST PUSH1 0x40 MLOAD DUP1 SWAP2 SUB SWAP1 RETURN JUMPDEST PUSH2 0x346 PUSH1 0x4 DUP1 CALLDATASIZE SUB DUP2 ADD SWAP1 PUSH2 0x341 SWAP2 SWAP1 PUSH2 0x192B JUMP JUMPDEST PUSH2 0xA42 JUMP JUMPDEST PUSH1 0x40 MLOAD PUSH2 0x353 SWAP2 SWAP1 PUSH2 0x19AB JUMP JUMPDEST PUSH1 0x40 MLOAD DUP1 SWAP2 SUB SWAP1 RETURN JUMPDEST PUSH2 0x364 PUSH2 0xB71 JUMP JUMPDEST PUSH1 0x40 MLOAD PUSH2 0x371 SWAP2 SWAP1 PUSH2 0x187A JUMP JUMPDEST PUSH1 0x40 MLOAD DUP1 SWAP2 SUB SWAP1 RETURN JUMPDEST PUSH2 0x394 PUSH1 0x4 DUP1 CALLDATASIZE SUB DUP2 ADD SWAP1 PUSH2 0x38F SWAP2 SWAP1 PUSH2 0x192B JUMP JUMPDEST PUSH2 0xC00 JUMP JUMPDEST PUSH1 0x40 MLOAD PUSH2 0x3A1 SWAP2 SWAP1 PUSH2 0x1983 JUMP JUMPDEST PUSH1 0x40 MLOAD DUP1 SWAP2 SUB SWAP1 RETURN JUMPDEST PUSH2 0x3B2 PUSH2 0xC8E JUMP JUMPDEST PUSH1 0x40 MLOAD PUSH2 0x3BF SWAP2 SWAP1 PUSH2 0x1B05 JUMP JUMPDEST PUSH1 0x40 MLOAD DUP1 SWAP2 SUB SWAP1 RETURN JUMPDEST PUSH2 0x3E2 PUSH1 0x4 DUP1 CALLDATASIZE SUB DUP2 ADD SWAP1 PUSH2 0x3DD SWAP2 SWAP1 PUSH2 0x192B JUMP JUMPDEST PUSH2 0xCB3 JUMP JUMPDEST PUSH1 0x40 MLOAD PUSH2 0x3EF SWAP2 SWAP1 PUSH2 0x19AB JUMP JUMPDEST PUSH1 0x40 MLOAD DUP1 SWAP2 SUB SWAP1 RETURN JUMPDEST PUSH2 0x412 PUSH1 0x4 DUP1 CALLDATASIZE SUB DUP2 ADD SWAP1 PUSH2 0x40D SWAP2 SWAP1 PUSH2 0x1B72 JUMP JUMPDEST PUSH2 0x1036 JUMP JUMPDEST STOP JUMPDEST PUSH2 0x42E PUSH1 0x4 DUP1 CALLDATASIZE SUB DUP2 ADD SWAP1 PUSH2 0x429 SWAP2 SWAP1 PUSH2 0x1C0F JUMP JUMPDEST PUSH2 0x11D2 JUMP JUMPDEST PUSH1 0x40 MLOAD PUSH2 0x43B SWAP2 SWAP1 PUSH2 0x19AB JUMP JUMPDEST PUSH1 0x40 MLOAD DUP1 SWAP2 SUB SWAP1 RETURN JUMPDEST PUSH2 0x45E PUSH1 0x4 DUP1 CALLDATASIZE SUB DUP2 ADD SWAP1 PUSH2 0x459 SWAP2 SWAP1 PUSH2 0x1C4D JUMP JUMPDEST PUSH2 0x11F0 JUMP JUMPDEST PUSH1 0x40 MLOAD PUSH2 0x46B SWAP2 SWAP1 PUSH2 0x19AB JUMP JUMPDEST PUSH1 0x40 MLOAD DUP1 SWAP2 SUB SWAP1 RETURN JUMPDEST PUSH1 0x60 PUSH1 0x40 MLOAD DUP1 PUSH1 0x40 ADD PUSH1 0x40 MSTORE DUP1 PUSH1 0x5 DUP2 MSTORE PUSH1 0x20 ADD PUSH32 0x4D494E492D000000000000000000000000000000000000000000000000000000 DUP2 MSTORE POP PUSH0 PUSH1 0x40 MLOAD PUSH1 0x20 ADD PUSH2 0x4BE SWAP3 SWAP2 SWAP1 PUSH2 0x1DB4 JUMP JUMPDEST PUSH1 0x40 MLOAD PUSH1 0x20 DUP2 DUP4 SUB SUB DUP2 MSTORE SWAP1 PUSH1 0x40 MSTORE SWAP1 POP SWAP1 JUMP JUMPDEST PUSH0 DUP3 PUSH1 0x20 MSTORE PUSH4 0x7F5E9F20 PUSH1 0xC MSTORE CALLER PUSH0 MSTORE DUP2 PUSH1 0x34 PUSH1 0xC KECCAK256 SSTORE DUP2 PUSH0 MSTORE PUSH1 0x2C MLOAD PUSH1 0x60 SHR CALLER PUSH32 0x8C5BE1E5EBEC7D5BD14F71427D1E84F3DD0314C0F7B2291E5B200AC8C7C3B925 PUSH1 0x20 PUSH0 LOG3 PUSH1 0x1 SWAP1 POP SWAP3 SWAP2 POP POP JUMP JUMPDEST PUSH1 0x5 DUP2 JUMP JUMPDEST PUSH0 PUSH9 0x5345CDF77EB68F44C SLOAD SWAP1 POP SWAP1 JUMP JUMPDEST PUSH0 PUSH2 0x544 DUP5 DUP5 DUP5 PUSH2 0x13DF JUMP JUMPDEST DUP4 PUSH1 0x60 SHL CALLER PUSH1 0x20 MSTORE PUSH4 0x7F5E9F20 DUP2 OR PUSH1 0xC MSTORE PUSH1 0x34 PUSH1 0xC KECCAK256 DUP1 SLOAD PUSH1 0x1 DUP2 ADD ISZERO PUSH2 0x581 JUMPI DUP1 DUP6 GT ISZERO PUSH2 0x57B JUMPI PUSH4 0x13BE252B PUSH0 MSTORE PUSH1 0x4 PUSH1 0x1C REVERT JUMPDEST DUP5 DUP2 SUB DUP3 SSTORE JUMPDEST PUSH4 0x87A211A2 DUP4 OR PUSH1 0xC MSTORE PUSH1 0x20 PUSH1 0xC KECCAK256 DUP1 SLOAD DUP1 DUP8 GT ISZERO PUSH2 0x5A7 JUMPI PUSH4 0xF4D678B8 PUSH0 MSTORE PUSH1 0x4 PUSH1 0x1C REVERT JUMPDEST DUP7 DUP2 SUB DUP3 SSTORE DUP8 PUSH0 MSTORE PUSH1 0x20 PUSH1 0xC KECCAK256 DUP8 DUP2 SLOAD ADD DUP2 SSTORE DUP8 PUSH1 0x20 MSTORE PUSH1 0xC MLOAD PUSH1 0x60 SHR DUP7 PUSH1 0x60 SHR PUSH32 0xDDF252AD1BE2C89B69C2B068FC378DAA952BA7F163C4A11628F55A4DF523B3EF PUSH1 0x20 DUP1 LOG3 POP POP POP POP POP POP PUSH2 0x5FE DUP5 DUP5 DUP5 PUSH2 0x13E4 JUMP JUMPDEST PUSH1 0x1 SWAP1 POP SWAP4 SWAP3 POP POP POP JUMP JUMPDEST PUSH0 DUP1 DUP3 PUSH2 0x615 CALLER PUSH2 0xA0A JUMP JUMPDEST LT ISZERO PUSH2 0x64D JUMPI PUSH1 0x40 MLOAD PUSH32 0x50B1F35600000000000000000000000000000000000000000000000000000000 DUP2 MSTORE PUSH1 0x4 ADD PUSH1 0x40 MLOAD DUP1 SWAP2 SUB SWAP1 REVERT JUMPDEST PUSH0 DUP1 PUSH1 0x5 SLOAD PUSH1 0x6 SLOAD SWAP2 POP SWAP2 POP PUSH0 PUSH2 0x662 PUSH2 0x527 JUMP JUMPDEST SWAP1 POP DUP1 DUP4 DUP8 PUSH2 0x671 SWAP2 SWAP1 PUSH2 0x1E04 JUMP JUMPDEST PUSH2 0x67B SWAP2 SWAP1 PUSH2 0x1E72 JUMP JUMPDEST SWAP5 POP DUP1 DUP3 DUP8 PUSH2 0x68A SWAP2 SWAP1 PUSH2 0x1E04 JUMP JUMPDEST PUSH2 0x694 SWAP2 SWAP1 PUSH2 0x1E72 JUMP JUMPDEST SWAP4 POP PUSH0 DUP6 EQ DUP1 PUSH2 0x6A3 JUMPI POP PUSH0 DUP5 EQ JUMPDEST ISZERO PUSH2 0x6DA JUMPI PUSH1 0x40 MLOAD PUSH32 0x2CD294CF00000000000000000000000000000000000000000000000000000000 DUP2 MSTORE PUSH1 0x4 ADD PUSH1 0x40 MLOAD DUP1 SWAP2 SUB SWAP1 REVERT JUMPDEST PUSH2 0x6E4 DUP4 DUP4 PUSH2 0x13E9 JUMP JUMPDEST PUSH2 0x711 PUSH1 0x3 PUSH0 SWAP1 SLOAD SWAP1 PUSH2 0x100 EXP SWAP1 DIV PUSH20 0xFFFFFFFFFFFFFFFFFFFFFFFFFFFFFFFFFFFFFFFF AND ADDRESS CALLER DUP9 PUSH2 0x151D JUMP JUMPDEST PUSH2 0x73E PUSH1 0x4 PUSH0 SWAP1 SLOAD SWAP1 PUSH2 0x100 EXP SWAP1 DIV PUSH20 0xFFFFFFFFFFFFFFFFFFFFFFFFFFFFFFFFFFFFFFFF AND ADDRESS CALLER DUP8 PUSH2 0x151D JUMP JUMPDEST PUSH2 0x748 ADDRESS DUP8 PUSH2 0x15DB JUMP JUMPDEST DUP5 PUSH1 0x5 PUSH0 DUP3 DUP3 SLOAD PUSH2 0x759 SWAP2 SWAP1 PUSH2 0x1EA2 JUMP JUMPDEST SWAP3 POP POP DUP2 SWAP1 SSTORE POP DUP4 PUSH1 0x6 PUSH0 DUP3 DUP3 SLOAD PUSH2 0x771 SWAP2 SWAP1 PUSH2 0x1EA2 JUMP JUMPDEST SWAP3 POP POP DUP2 SWAP1 SSTORE POP PUSH1 0x6 SLOAD PUSH1 0x5 SLOAD PUSH2 0x788 SWAP2 SWAP1 PUSH2 0x1E04 JUMP JUMPDEST PUSH1 0x2 DUP2 SWAP1 SSTORE POP PUSH32 0x2F25270A4D87BEA75DB541CDFE559334A275B4A233520ED6C0A2429667CCA94 ADDRESS DUP8 DUP8 DUP8 PUSH1 0x40 MLOAD PUSH2 0x7C3 SWAP5 SWAP4 SWAP3 SWAP2 SWAP1 PUSH2 0x1ED5 JUMP JUMPDEST PUSH1 0x40 MLOAD DUP1 SWAP2 SUB SWAP1 LOG1 POP POP POP SWAP2 POP SWAP2 JUMP JUMPDEST PUSH0 PUSH1 0x12 SWAP1 POP SWAP1 JUMP JUMPDEST PUSH0 DUP1 PUSH2 0x7E5 PUSH2 0x166B JUMP JUMPDEST SWAP1 POP PUSH0 DUP1 SHL DUP2 SUB PUSH2 0x802 JUMPI PUSH2 0x7F8 PUSH2 0x474 JUMP JUMPDEST DUP1 MLOAD SWAP1 PUSH1 0x20 ADD KECCAK256 SWAP1 POP JUMPDEST PUSH1 0x40 MLOAD PUSH32 0x8B73C3C69BB8FE3D512ECC4CF759CC79239F7B179B0FFACAA9A75D522B39400F DUP2 MSTORE DUP2 PUSH1 0x20 DUP3 ADD MSTORE PUSH32 0xC89EFDAA54C0F20C7ADF612882DF0950F5A951637E0307CDCB4C672F298B8BC6 PUSH1 0x40 DUP3 ADD MSTORE CHAINID PUSH1 0x60 DUP3 ADD MSTORE ADDRESS PUSH1 0x80 DUP3 ADD MSTORE PUSH1 0xA0 DUP2 KECCAK256 SWAP3 POP POP POP SWAP1 JUMP JUMPDEST PUSH1 0x1E DUP2 JUMP JUMPDEST PUSH0 PUSH1 0x1 DUP3 GT PUSH2 0x881 JUMPI DUP2 SWAP1 POP PUSH2 0xA05 JUMP JUMPDEST PUSH0 DUP3 SWAP1 POP PUSH0 PUSH1 0x1 SWAP1 POP PUSH17 0x100000000000000000000000000000000 DUP3 LT PUSH2 0x8B1 JUMPI PUSH1 0x80 DUP3 SWAP1 SHR SWAP2 POP PUSH1 0x40 DUP2 SWAP1 SHL SWAP1 POP JUMPDEST PUSH9 0x10000000000000000 DUP3 LT PUSH2 0x8D0 JUMPI PUSH1 0x40 DUP3 SWAP1 SHR SWAP2 POP PUSH1 0x20 DUP2 SWAP1 SHL SWAP1 POP JUMPDEST PUSH5 0x100000000 DUP3 LT PUSH2 0x8EB JUMPI PUSH1 0x20 DUP3 SWAP1 SHR SWAP2 POP PUSH1 0x10 DUP2 SWAP1 SHL SWAP1 POP JUMPDEST PUSH3 0x10000 DUP3 LT PUSH2 0x904 JUMPI PUSH1 0x10 DUP3 SWAP1 SHR SWAP2 POP PUSH1 0x8 DUP2 SWAP1 SHL SWAP1 POP JUMPDEST PUSH2 0x100 DUP3 LT PUSH2 0x91C JUMPI PUSH1 0x8 DUP3 SWAP1 SHR SWAP2 POP PUSH1 0x4 DUP2 SWAP1 SHL SWAP1 POP JUMPDEST PUSH1 0x10 DUP3 LT PUSH2 0x933 JUMPI PUSH1 0x4 DUP3 SWAP1 SHR SWAP2 POP PUSH1 0x2 DUP2 SWAP1 SHL SWAP1 POP JUMPDEST PUSH1 0x4 DUP3 LT PUSH2 0x943 JUMPI PUSH1 0x1 DUP2 SWAP1 SHL SWAP1 POP JUMPDEST PUSH1 0x1 DUP2 PUSH1 0x3 MUL SWAP1 SHR SWAP1 POP PUSH1 0x1 DUP2 DUP6 DUP2 PUSH2 0x95F JUMPI PUSH2 0x95E PUSH2 0x1E45 JUMP JUMPDEST JUMPDEST DIV DUP3 ADD SWAP1 SHR SWAP1 POP PUSH1 0x1 DUP2 DUP6 DUP2 PUSH2 0x978 JUMPI PUSH2 0x977 PUSH2 0x1E45 JUMP JUMPDEST JUMPDEST DIV DUP3 ADD SWAP1 SHR SWAP1 POP PUSH1 0x1 DUP2 DUP6 DUP2 PUSH2 0x991 JUMPI PUSH2 0x990 PUSH2 0x1E45 JUMP JUMPDEST JUMPDEST DIV DUP3 ADD SWAP1 SHR SWAP1 POP PUSH1 0x1 DUP2 DUP6 DUP2 PUSH2 0x9AA JUMPI PUSH2 0x9A9 PUSH2 0x1E45 JUMP JUMPDEST JUMPDEST DIV DUP3 ADD SWAP1 SHR SWAP1 POP PUSH1 0x1 DUP2 DUP6 DUP2 PUSH2 0x9C3 JUMPI PUSH2 0x9C2 PUSH2 0x1E45 JUMP JUMPDEST JUMPDEST DIV DUP3 ADD SWAP1 SHR SWAP1 POP PUSH1 0x1 DUP2 DUP6 DUP2 PUSH2 0x9DC JUMPI PUSH2 0x9DB PUSH2 0x1E45 JUMP JUMPDEST JUMPDEST DIV DUP3 ADD SWAP1 SHR SWAP1 POP PUSH2 0x9FE DUP2 DUP6 DUP2 PUSH2 0x9F6 JUMPI PUSH2 0x9F5 PUSH2 0x1E45 JUMP JUMPDEST JUMPDEST DIV DUP3 GT PUSH2 0x166F JUMP JUMPDEST DUP2 SUB SWAP3 POP POP POP JUMPDEST SWAP2 SWAP1 POP JUMP JUMPDEST PUSH0 PUSH4 0x87A211A2 PUSH1 0xC MSTORE DUP2 PUSH0 MSTORE PUSH1 0x20 PUSH1 0xC KECCAK256 SLOAD SWAP1 POP SWAP2 SWAP1 POP JUMP JUMPDEST PUSH1 0x2 SLOAD DUP2 JUMP JUMPDEST PUSH0 PUSH4 0x38377508 PUSH1 0xC MSTORE DUP2 PUSH0 MSTORE PUSH1 0x20 PUSH1 0xC KECCAK256 SLOAD SWAP1 POP SWAP2 SWAP1 POP JUMP JUMPDEST PUSH0 DUP3 PUSH1 0x3 PUSH0 SWAP1 SLOAD SWAP1 PUSH2 0x100 EXP SWAP1 DIV PUSH20 0xFFFFFFFFFFFFFFFFFFFFFFFFFFFFFFFFFFFFFFFF AND PUSH20 0xFFFFFFFFFFFFFFFFFFFFFFFFFFFFFFFFFFFFFFFF AND DUP2 PUSH20 0xFFFFFFFFFFFFFFFFFFFFFFFFFFFFFFFFFFFFFFFF AND EQ ISZERO DUP1 ISZERO PUSH2 0xAEE JUMPI POP PUSH1 0x4 PUSH0 SWAP1 SLOAD SWAP1 PUSH2 0x100 EXP SWAP1 DIV PUSH20 0xFFFFFFFFFFFFFFFFFFFFFFFFFFFFFFFFFFFFFFFF AND PUSH20 0xFFFFFFFFFFFFFFFFFFFFFFFFFFFFFFFFFFFFFFFF AND DUP2 PUSH20 0xFFFFFFFFFFFFFFFFFFFFFFFFFFFFFFFFFFFFFFFF AND EQ ISZERO JUMPDEST ISZERO PUSH2 0xB25 JUMPI PUSH1 0x40 MLOAD PUSH32 0x82BCE52600000000000000000000000000000000000000000000000000000000 DUP2 MSTORE PUSH1 0x4 ADD PUSH1 0x40 MLOAD DUP1 SWAP2 SUB SWAP1 REVERT JUMPDEST PUSH0 DUP4 SUB PUSH2 0xB5E JUMPI PUSH1 0x40 MLOAD PUSH32 0x8966F48700000000000000000000000000000000000000000000000000000000 DUP2 MSTORE PUSH1 0x4 ADD PUSH1 0x40 MLOAD DUP1 SWAP2 SUB SWAP1 REVERT JUMPDEST PUSH2 0xB68 DUP5 DUP5 PUSH2 0x167A JUMP JUMPDEST SWAP2 POP POP SWAP3 SWAP2 POP POP JUMP JUMPDEST PUSH1 0x60 PUSH0 DUP1 SLOAD PUSH2 0xB7F SWAP1 PUSH2 0x1CF2 JUMP JUMPDEST DUP1 PUSH1 0x1F ADD PUSH1 0x20 DUP1 SWAP2 DIV MUL PUSH1 0x20 ADD PUSH1 0x40 MLOAD SWAP1 DUP2 ADD PUSH1 0x40 MSTORE DUP1 SWAP3 SWAP2 SWAP1 DUP2 DUP2 MSTORE PUSH1 0x20 ADD DUP3 DUP1 SLOAD PUSH2 0xBAB SWAP1 PUSH2 0x1CF2 JUMP JUMPDEST DUP1 ISZERO PUSH2 0xBF6 JUMPI DUP1 PUSH1 0x1F LT PUSH2 0xBCD JUMPI PUSH2 0x100 DUP1 DUP4 SLOAD DIV MUL DUP4 MSTORE SWAP2 PUSH1 0x20 ADD SWAP2 PUSH2 0xBF6 JUMP JUMPDEST DUP3 ADD SWAP2 SWAP1 PUSH0 MSTORE PUSH1 0x20 PUSH0 KECCAK256 SWAP1 JUMPDEST DUP2 SLOAD DUP2 MSTORE SWAP1 PUSH1 0x1 ADD SWAP1 PUSH1 0x20 ADD DUP1 DUP4 GT PUSH2 0xBD9 JUMPI DUP3 SWAP1 SUB PUSH1 0x1F AND DUP3 ADD SWAP2 JUMPDEST POP POP POP POP POP SWAP1 POP SWAP1 JUMP JUMPDEST PUSH0 PUSH2 0xC0C CALLER DUP5 DUP5 PUSH2 0x13DF JUMP JUMPDEST PUSH4 0x87A211A2 PUSH1 0xC MSTORE CALLER PUSH0 MSTORE PUSH1 0x20 PUSH1 0xC KECCAK256 DUP1 SLOAD DUP1 DUP5 GT ISZERO PUSH2 0xC33 JUMPI PUSH4 0xF4D678B8 PUSH0 MSTORE PUSH1 0x4 PUSH1 0x1C REVERT JUMPDEST DUP4 DUP2 SUB DUP3 SSTORE DUP5 PUSH0 MSTORE PUSH1 0x20 PUSH1 0xC KECCAK256 DUP5 DUP2 SLOAD ADD DUP2 SSTORE DUP5 PUSH1 0x20 MSTORE PUSH1 0xC MLOAD PUSH1 0x60 SHR CALLER PUSH32 0xDDF252AD1BE2C89B69C2B068FC378DAA952BA7F163C4A11628F55A4DF523B3EF PUSH1 0x20 DUP1 LOG3 POP POP POP PUSH2 0xC84 CALLER DUP5 DUP5 PUSH2 0x13E4 JUMP JUMPDEST PUSH1 0x1 SWAP1 POP SWAP3 SWAP2 POP POP JUMP JUMPDEST PUSH1 0x1 PUSH0 SWAP1 SLOAD SWAP1 PUSH2 0x100 EXP SWAP1 DIV PUSH20 0xFFFFFFFFFFFFFFFFFFFFFFFFFFFFFFFFFFFFFFFF AND DUP2 JUMP JUMPDEST PUSH0 DUP3 PUSH1 0x3 PUSH0 SWAP1 SLOAD SWAP1 PUSH2 0x100 EXP SWAP1 DIV PUSH20 0xFFFFFFFFFFFFFFFFFFFFFFFFFFFFFFFFFFFFFFFF AND PUSH20 0xFFFFFFFFFFFFFFFFFFFFFFFFFFFFFFFFFFFFFFFF AND DUP2 PUSH20 0xFFFFFFFFFFFFFFFFFFFFFFFFFFFFFFFFFFFFFFFF AND EQ ISZERO DUP1 ISZERO PUSH2 0xD5F JUMPI POP PUSH1 0x4 PUSH0 SWAP1 SLOAD SWAP1 PUSH2 0x100 EXP SWAP1 DIV PUSH20 0xFFFFFFFFFFFFFFFFFFFFFFFFFFFFFFFFFFFFFFFF AND PUSH20 0xFFFFFFFFFFFFFFFFFFFFFFFFFFFFFFFFFFFFFFFF AND DUP2 PUSH20 0xFFFFFFFFFFFFFFFFFFFFFFFFFFFFFFFFFFFFFFFF AND EQ ISZERO JUMPDEST ISZERO PUSH2 0xD96 JUMPI PUSH1 0x40 MLOAD PUSH32 0x82BCE52600000000000000000000000000000000000000000000000000000000 DUP2 MSTORE PUSH1 0x4 ADD PUSH1 0x40 MLOAD DUP1 SWAP2 SUB SWAP1 REVERT JUMPDEST PUSH0 PUSH1 0x3 PUSH0 SWAP1 SLOAD SWAP1 PUSH2 0x100 EXP SWAP1 DIV PUSH20 0xFFFFFFFFFFFFFFFFFFFFFFFFFFFFFFFFFFFFFFFF AND SWAP1 POP PUSH0 PUSH1 0x4 PUSH0 SWAP1 SLOAD SWAP1 PUSH2 0x100 EXP SWAP1 DIV PUSH20 0xFFFFFFFFFFFFFFFFFFFFFFFFFFFFFFFFFFFFFFFF AND SWAP1 POP PUSH0 DUP6 SUB PUSH2 0xE19 JUMPI PUSH1 0x40 MLOAD PUSH32 0x8966F48700000000000000000000000000000000000000000000000000000000 DUP2 MSTORE PUSH1 0x4 ADD PUSH1 0x40 MLOAD DUP1 SWAP2 SUB SWAP1 REVERT JUMPDEST PUSH2 0xE23 DUP7 DUP7 PUSH2 0x167A JUMP JUMPDEST SWAP4 POP PUSH0 DUP3 PUSH20 0xFFFFFFFFFFFFFFFFFFFFFFFFFFFFFFFFFFFFFFFF AND DUP8 PUSH20 0xFFFFFFFFFFFFFFFFFFFFFFFFFFFFFFFFFFFFFFFF AND EQ PUSH2 0xE5F JUMPI DUP3 PUSH2 0xE61 JUMP JUMPDEST DUP2 JUMPDEST SWAP1 POP DUP5 PUSH1 0x2 DUP3 PUSH20 0xFFFFFFFFFFFFFFFFFFFFFFFFFFFFFFFFFFFFFFFF AND PUSH4 0x70A08231 ADDRESS PUSH1 0x40 MLOAD DUP3 PUSH4 0xFFFFFFFF AND PUSH1 0xE0 SHL DUP2 MSTORE PUSH1 0x4 ADD PUSH2 0xE9F SWAP2 SWAP1 PUSH2 0x1B05 JUMP JUMPDEST PUSH1 0x20 PUSH1 0x40 MLOAD DUP1 DUP4 SUB DUP2 DUP7 GAS STATICCALL ISZERO DUP1 ISZERO PUSH2 0xEBA JUMPI RETURNDATASIZE PUSH0 DUP1 RETURNDATACOPY RETURNDATASIZE PUSH0 REVERT JUMPDEST POP POP POP POP PUSH1 0x40 MLOAD RETURNDATASIZE PUSH1 0x1F NOT PUSH1 0x1F DUP3 ADD AND DUP3 ADD DUP1 PUSH1 0x40 MSTORE POP DUP2 ADD SWAP1 PUSH2 0xEDE SWAP2 SWAP1 PUSH2 0x1F2C JUMP JUMPDEST PUSH2 0xEE8 SWAP2 SWAP1 PUSH2 0x1E72 JUMP JUMPDEST LT ISZERO PUSH2 0xF20 JUMPI PUSH1 0x40 MLOAD PUSH32 0x8CAB1F2800000000000000000000000000000000000000000000000000000000 DUP2 MSTORE PUSH1 0x4 ADD PUSH1 0x40 MLOAD DUP1 SWAP2 SUB SWAP1 REVERT JUMPDEST PUSH2 0xF2C DUP8 CALLER ADDRESS DUP10 PUSH2 0x151D JUMP JUMPDEST PUSH0 PUSH2 0x2710 PUSH1 0x1E DUP8 PUSH2 0xF3D SWAP2 SWAP1 PUSH2 0x1E04 JUMP JUMPDEST PUSH2 0xF47 SWAP2 SWAP1 PUSH2 0x1E72 JUMP JUMPDEST SWAP1 POP PUSH2 0xF55 DUP3 ADDRESS CALLER DUP5 PUSH2 0x151D JUMP JUMPDEST DUP4 PUSH20 0xFFFFFFFFFFFFFFFFFFFFFFFFFFFFFFFFFFFFFFFF AND DUP3 PUSH20 0xFFFFFFFFFFFFFFFFFFFFFFFFFFFFFFFFFFFFFFFF AND SUB PUSH2 0xFBD JUMPI DUP6 PUSH1 0x5 PUSH0 DUP3 DUP3 SLOAD PUSH2 0xF99 SWAP2 SWAP1 PUSH2 0x1EA2 JUMP JUMPDEST SWAP3 POP POP DUP2 SWAP1 SSTORE POP DUP7 PUSH1 0x6 PUSH0 DUP3 DUP3 SLOAD PUSH2 0xFB1 SWAP2 SWAP1 PUSH2 0x1F57 JUMP JUMPDEST SWAP3 POP POP DUP2 SWAP1 SSTORE POP PUSH2 0xFEE JUMP JUMPDEST DUP7 PUSH1 0x5 PUSH0 DUP3 DUP3 SLOAD PUSH2 0xFCE SWAP2 SWAP1 PUSH2 0x1F57 JUMP JUMPDEST SWAP3 POP POP DUP2 SWAP1 SSTORE POP DUP6 PUSH1 0x6 PUSH0 DUP3 DUP3 SLOAD PUSH2 0xFE6 SWAP2 SWAP1 PUSH2 0x1EA2 JUMP JUMPDEST SWAP3 POP POP DUP2 SWAP1 SSTORE POP JUMPDEST PUSH32 0xFA2DDA1CC1B86E41239702756B13EFFBC1A092B5C57E3AD320FBE4F3B13FE235 DUP3 DUP10 DUP4 DUP10 PUSH1 0x40 MLOAD PUSH2 0x1023 SWAP5 SWAP4 SWAP3 SWAP2 SWAP1 PUSH2 0x1F8A JUMP JUMPDEST PUSH1 0x40 MLOAD DUP1 SWAP2 SUB SWAP1 LOG1 POP POP POP POP POP SWAP3 SWAP2 POP POP JUMP JUMPDEST PUSH0 PUSH2 0x103F PUSH2 0x166B JUMP JUMPDEST SWAP1 POP PUSH0 DUP1 SHL DUP2 SUB PUSH2 0x105C JUMPI PUSH2 0x1052 PUSH2 0x474 JUMP JUMPDEST DUP1 MLOAD SWAP1 PUSH1 0x20 ADD KECCAK256 SWAP1 POP JUMPDEST DUP5 TIMESTAMP GT ISZERO PUSH2 0x1071 JUMPI PUSH4 0x1A15A3CC PUSH0 MSTORE PUSH1 0x4 PUSH1 0x1C REVERT JUMPDEST PUSH1 0x40 MLOAD DUP9 PUSH1 0x60 SHL PUSH1 0x60 SHR SWAP9 POP DUP8 PUSH1 0x60 SHL PUSH1 0x60 SHR SWAP8 POP PUSH6 0x383775081901 PUSH1 0xE MSTORE DUP9 PUSH0 MSTORE PUSH1 0x20 PUSH1 0xC KECCAK256 DUP1 SLOAD PUSH32 0x8B73C3C69BB8FE3D512ECC4CF759CC79239F7B179B0FFACAA9A75D522B39400F DUP4 MSTORE DUP4 PUSH1 0x20 DUP5 ADD MSTORE PUSH32 0xC89EFDAA54C0F20C7ADF612882DF0950F5A951637E0307CDCB4C672F298B8BC6 PUSH1 0x40 DUP5 ADD MSTORE CHAINID PUSH1 0x60 DUP5 ADD MSTORE ADDRESS PUSH1 0x80 DUP5 ADD MSTORE PUSH1 0xA0 DUP4 KECCAK256 PUSH1 0x2E MSTORE PUSH32 0x6E71EDAE12B1B97F4D1F60370FEF10105FA2FAAE0126114A169C64845D6126C9 DUP4 MSTORE DUP11 PUSH1 0x20 DUP5 ADD MSTORE DUP10 PUSH1 0x40 DUP5 ADD MSTORE DUP9 PUSH1 0x60 DUP5 ADD MSTORE DUP1 PUSH1 0x80 DUP5 ADD MSTORE DUP8 PUSH1 0xA0 DUP5 ADD MSTORE PUSH1 0xC0 DUP4 KECCAK256 PUSH1 0x4E MSTORE PUSH1 0x42 PUSH1 0x2C KECCAK256 PUSH0 MSTORE DUP7 PUSH1 0xFF AND PUSH1 0x20 MSTORE DUP6 PUSH1 0x40 MSTORE DUP5 PUSH1 0x60 MSTORE PUSH1 0x20 DUP1 PUSH1 0x80 PUSH0 PUSH1 0x1 GAS STATICCALL DUP12 RETURNDATASIZE MLOAD EQ PUSH2 0x1179 JUMPI PUSH4 0xDDAFBAEF PUSH0 MSTORE PUSH1 0x4 PUSH1 0x1C REVERT JUMPDEST DUP1 DUP3 ADD DUP4 SSTORE DUP11 PUSH4 0x7F5E9F20 PUSH1 0xA0 SHL OR PUSH1 0x40 MSTORE DUP10 PUSH1 0x34 PUSH1 0x2C KECCAK256 SSTORE DUP11 DUP13 PUSH32 0x8C5BE1E5EBEC7D5BD14F71427D1E84F3DD0314C0F7B2291E5B200AC8C7C3B925 PUSH1 0x20 PUSH1 0x60 DUP9 ADD LOG3 DUP4 PUSH1 0x40 MSTORE PUSH0 PUSH1 0x60 MSTORE POP POP POP POP POP POP POP POP POP POP POP POP JUMP JUMPDEST PUSH0 DUP2 PUSH1 0x20 MSTORE PUSH4 0x7F5E9F20 PUSH1 0xC MSTORE DUP3 PUSH0 MSTORE PUSH1 0x34 PUSH1 0xC KECCAK256 SLOAD SWAP1 POP SWAP3 SWAP2 POP POP JUMP JUMPDEST PUSH0 DUP1 PUSH2 0x11FA PUSH2 0x527 JUMP JUMPDEST SWAP1 POP PUSH0 DUP1 PUSH1 0x5 SLOAD PUSH1 0x6 SLOAD SWAP2 POP SWAP2 POP PUSH2 0x1235 PUSH1 0x3 PUSH0 SWAP1 SLOAD SWAP1 PUSH2 0x100 EXP SWAP1 DIV PUSH20 0xFFFFFFFFFFFFFFFFFFFFFFFFFFFFFFFFFFFFFFFF AND CALLER ADDRESS DUP10 PUSH2 0x151D JUMP JUMPDEST PUSH2 0x1262 PUSH1 0x4 PUSH0 SWAP1 SLOAD SWAP1 PUSH2 0x100 EXP SWAP1 DIV PUSH20 0xFFFFFFFFFFFFFFFFFFFFFFFFFFFFFFFFFFFFFFFF AND CALLER ADDRESS DUP9 PUSH2 0x151D JUMP JUMPDEST PUSH2 0x126C DUP3 DUP3 PUSH2 0x13E9 JUMP JUMPDEST PUSH0 DUP4 SUB PUSH2 0x12A7 JUMPI PUSH2 0x3E8 PUSH2 0x128A DUP7 DUP9 PUSH2 0x1285 SWAP2 SWAP1 PUSH2 0x1E04 JUMP JUMPDEST PUSH2 0x870 JUMP JUMPDEST PUSH2 0x1294 SWAP2 SWAP1 PUSH2 0x1EA2 JUMP JUMPDEST SWAP4 POP PUSH2 0x12A2 PUSH0 PUSH2 0x3E8 PUSH2 0x1746 JUMP JUMPDEST PUSH2 0x1349 JUMP JUMPDEST PUSH0 PUSH2 0x12D3 PUSH1 0x3 PUSH0 SWAP1 SLOAD SWAP1 PUSH2 0x100 EXP SWAP1 DIV PUSH20 0xFFFFFFFFFFFFFFFFFFFFFFFFFFFFFFFFFFFFFFFF AND DUP9 PUSH2 0x167A JUMP JUMPDEST SWAP1 POP DUP6 DUP2 LT ISZERO PUSH2 0x130F JUMPI PUSH1 0x40 MLOAD PUSH32 0x2CD294CF00000000000000000000000000000000000000000000000000000000 DUP2 MSTORE PUSH1 0x4 ADD PUSH1 0x40 MLOAD DUP1 SWAP2 SUB SWAP1 REVERT JUMPDEST PUSH2 0x1345 DUP4 DUP6 DUP10 PUSH2 0x131F SWAP2 SWAP1 PUSH2 0x1E04 JUMP JUMPDEST PUSH2 0x1329 SWAP2 SWAP1 PUSH2 0x1E72 JUMP JUMPDEST DUP4 DUP7 DUP10 PUSH2 0x1336 SWAP2 SWAP1 PUSH2 0x1E04 JUMP JUMPDEST PUSH2 0x1340 SWAP2 SWAP1 PUSH2 0x1E72 JUMP JUMPDEST PUSH2 0x17D8 JUMP JUMPDEST SWAP5 POP POP JUMPDEST PUSH2 0x1353 CALLER DUP6 PUSH2 0x1746 JUMP JUMPDEST DUP6 PUSH1 0x5 PUSH0 DUP3 DUP3 SLOAD PUSH2 0x1364 SWAP2 SWAP1 PUSH2 0x1F57 JUMP JUMPDEST SWAP3 POP POP DUP2 SWAP1 SSTORE POP DUP5 PUSH1 0x6 PUSH0 DUP3 DUP3 SLOAD PUSH2 0x137C SWAP2 SWAP1 PUSH2 0x1F57 JUMP JUMPDEST SWAP3 POP POP DUP2 SWAP1 SSTORE POP PUSH1 0x6 SLOAD PUSH1 0x5 SLOAD PUSH2 0x1393 SWAP2 SWAP1 PUSH2 0x1E04 JUMP JUMPDEST PUSH1 0x2 DUP2 SWAP1 SSTORE POP PUSH32 0x36AF321EC8D3C75236829C5317AFFD40DDB308863A1236D2D277A4025CCCEE1E ADDRESS DUP6 DUP9 DUP9 PUSH1 0x40 MLOAD PUSH2 0x13CE SWAP5 SWAP4 SWAP3 SWAP2 SWAP1 PUSH2 0x1ED5 JUMP JUMPDEST PUSH1 0x40 MLOAD DUP1 SWAP2 SUB SWAP1 LOG1 POP POP POP SWAP3 SWAP2 POP POP JUMP JUMPDEST POP POP POP JUMP JUMPDEST POP POP POP JUMP JUMPDEST PUSH0 PUSH1 0x1 PUSH0 SWAP1 SLOAD SWAP1 PUSH2 0x100 EXP SWAP1 DIV PUSH20 0xFFFFFFFFFFFFFFFFFFFFFFFFFFFFFFFFFFFFFFFF AND PUSH20 0xFFFFFFFFFFFFFFFFFFFFFFFFFFFFFFFFFFFFFFFF AND PUSH4 0x85BF3B9 PUSH1 0x40 MLOAD DUP2 PUSH4 0xFFFFFFFF AND PUSH1 0xE0 SHL DUP2 MSTORE PUSH1 0x4 ADD PUSH1 0x20 PUSH1 0x40 MLOAD DUP1 DUP4 SUB DUP2 DUP7 GAS STATICCALL ISZERO DUP1 ISZERO PUSH2 0x1454 JUMPI RETURNDATASIZE PUSH0 DUP1 RETURNDATACOPY RETURNDATASIZE PUSH0 REVERT JUMPDEST POP POP POP POP PUSH1 0x40 MLOAD RETURNDATASIZE PUSH1 0x1F NOT PUSH1 0x1F DUP3 ADD AND DUP3 ADD DUP1 PUSH1 0x40 MSTORE POP DUP2 ADD SWAP1 PUSH2 0x1478 SWAP2 SWAP1 PUSH2 0x1FE1 JUMP JUMPDEST SWAP1 POP PUSH0 PUSH1 0x2 SLOAD SWAP1 POP PUSH0 DUP2 EQ PUSH2 0x1517 JUMPI PUSH0 PUSH2 0x149C DUP5 DUP7 PUSH2 0x1497 SWAP2 SWAP1 PUSH2 0x1E04 JUMP JUMPDEST PUSH2 0x870 JUMP JUMPDEST SWAP1 POP PUSH0 PUSH2 0x14A8 DUP4 PUSH2 0x870 JUMP JUMPDEST SWAP1 POP DUP1 DUP3 GT ISZERO PUSH2 0x1514 JUMPI PUSH0 DUP2 DUP4 PUSH2 0x14BF SWAP2 SWAP1 PUSH2 0x1EA2 JUMP JUMPDEST PUSH2 0x14C7 PUSH2 0x527 JUMP JUMPDEST PUSH2 0x14D1 SWAP2 SWAP1 PUSH2 0x1E04 JUMP JUMPDEST SWAP1 POP PUSH0 DUP3 PUSH1 0x5 DUP6 PUSH2 0x14E2 SWAP2 SWAP1 PUSH2 0x1E04 JUMP JUMPDEST PUSH2 0x14EC SWAP2 SWAP1 PUSH2 0x1F57 JUMP JUMPDEST SWAP1 POP PUSH0 DUP2 DUP4 PUSH2 0x14FB SWAP2 SWAP1 PUSH2 0x1E72 JUMP JUMPDEST SWAP1 POP PUSH0 DUP2 GT ISZERO PUSH2 0x1510 JUMPI PUSH2 0x150F DUP8 DUP3 PUSH2 0x1746 JUMP JUMPDEST JUMPDEST POP POP POP JUMPDEST POP POP JUMPDEST POP POP POP POP JUMP JUMPDEST PUSH0 DUP5 PUSH20 0xFFFFFFFFFFFFFFFFFFFFFFFFFFFFFFFFFFFFFFFF AND PUSH4 0x23B872DD DUP6 DUP6 DUP6 PUSH1 0x40 MLOAD DUP5 PUSH4 0xFFFFFFFF AND PUSH1 0xE0 SHL DUP2 MSTORE PUSH1 0x4 ADD PUSH2 0x155B SWAP4 SWAP3 SWAP2 SWAP1 PUSH2 0x200C JUMP JUMPDEST PUSH1 0x20 PUSH1 0x40 MLOAD DUP1 DUP4 SUB DUP2 PUSH0 DUP8 GAS CALL ISZERO DUP1 ISZERO PUSH2 0x1577 JUMPI RETURNDATASIZE PUSH0 DUP1 RETURNDATACOPY RETURNDATASIZE PUSH0 REVERT JUMPDEST POP POP POP POP PUSH1 0x40 MLOAD RETURNDATASIZE PUSH1 0x1F NOT PUSH1 0x1F DUP3 ADD AND DUP3 ADD DUP1 PUSH1 0x40 MSTORE POP DUP2 ADD SWAP1 PUSH2 0x159B SWAP2 SWAP1 PUSH2 0x206B JUMP JUMPDEST SWAP1 POP DUP1 PUSH2 0x15D4 JUMPI PUSH1 0x40 MLOAD PUSH32 0x3F4AB80E00000000000000000000000000000000000000000000000000000000 DUP2 MSTORE PUSH1 0x4 ADD PUSH1 0x40 MLOAD DUP1 SWAP2 SUB SWAP1 REVERT JUMPDEST POP POP POP POP POP JUMP JUMPDEST PUSH2 0x15E6 DUP3 PUSH0 DUP4 PUSH2 0x13DF JUMP JUMPDEST PUSH4 0x87A211A2 PUSH1 0xC MSTORE DUP2 PUSH0 MSTORE PUSH1 0x20 PUSH1 0xC KECCAK256 DUP1 SLOAD DUP1 DUP4 GT ISZERO PUSH2 0x160D JUMPI PUSH4 0xF4D678B8 PUSH0 MSTORE PUSH1 0x4 PUSH1 0x1C REVERT JUMPDEST DUP3 DUP2 SUB DUP3 SSTORE DUP3 PUSH9 0x5345CDF77EB68F44C SLOAD SUB PUSH9 0x5345CDF77EB68F44C SSTORE DUP3 PUSH0 MSTORE PUSH0 DUP5 PUSH1 0x60 SHL PUSH1 0x60 SHR PUSH32 0xDDF252AD1BE2C89B69C2B068FC378DAA952BA7F163C4A11628F55A4DF523B3EF PUSH1 0x20 PUSH0 LOG3 POP POP PUSH2 0x1667 DUP3 PUSH0 DUP4 PUSH2 0x13E4 JUMP JUMPDEST POP POP JUMP JUMPDEST PUSH0 SWAP1 JUMP JUMPDEST PUSH0 DUP2 ISZERO ISZERO SWAP1 POP SWAP2 SWAP1 POP JUMP JUMPDEST PUSH0 DUP1 PUSH1 0x3 PUSH0 SWAP1 SLOAD SWAP1 PUSH2 0x100 EXP SWAP1 DIV PUSH20 0xFFFFFFFFFFFFFFFFFFFFFFFFFFFFFFFFFFFFFFFF AND SWAP1 POP PUSH0 DUP2 PUSH20 0xFFFFFFFFFFFFFFFFFFFFFFFFFFFFFFFFFFFFFFFF AND DUP6 PUSH20 0xFFFFFFFFFFFFFFFFFFFFFFFFFFFFFFFFFFFFFFFF AND EQ PUSH2 0x16DC JUMPI PUSH1 0x6 SLOAD PUSH2 0x16E0 JUMP JUMPDEST PUSH1 0x5 SLOAD JUMPDEST SWAP1 POP PUSH0 DUP3 PUSH20 0xFFFFFFFFFFFFFFFFFFFFFFFFFFFFFFFFFFFFFFFF AND DUP7 PUSH20 0xFFFFFFFFFFFFFFFFFFFFFFFFFFFFFFFFFFFFFFFF AND EQ PUSH2 0x171E JUMPI PUSH1 0x5 SLOAD PUSH2 0x1722 JUMP JUMPDEST PUSH1 0x6 SLOAD JUMPDEST SWAP1 POP DUP1 DUP6 DUP4 PUSH2 0x1731 SWAP2 SWAP1 PUSH2 0x1E04 JUMP JUMPDEST PUSH2 0x173B SWAP2 SWAP1 PUSH2 0x1E72 JUMP JUMPDEST SWAP4 POP POP POP POP SWAP3 SWAP2 POP POP JUMP JUMPDEST PUSH2 0x1751 PUSH0 DUP4 DUP4 PUSH2 0x13DF JUMP JUMPDEST PUSH9 0x5345CDF77EB68F44C SLOAD DUP2 DUP2 ADD DUP2 DUP2 LT ISZERO PUSH2 0x1774 JUMPI PUSH4 0xE5CFE957 PUSH0 MSTORE PUSH1 0x4 PUSH1 0x1C REVERT JUMPDEST DUP1 PUSH9 0x5345CDF77EB68F44C SSTORE PUSH4 0x87A211A2 PUSH1 0xC MSTORE DUP4 PUSH0 MSTORE PUSH1 0x20 PUSH1 0xC KECCAK256 DUP4 DUP2 SLOAD ADD DUP2 SSTORE DUP4 PUSH1 0x20 MSTORE PUSH1 0xC MLOAD PUSH1 0x60 SHR PUSH0 PUSH32 0xDDF252AD1BE2C89B69C2B068FC378DAA952BA7F163C4A11628F55A4DF523B3EF PUSH1 0x20 DUP1 LOG3 POP POP POP PUSH2 0x17D4 PUSH0 DUP4 DUP4 PUSH2 0x13E4 JUMP JUMPDEST POP POP JUMP JUMPDEST PUSH0 DUP2 DUP4 LT PUSH2 0x17E6 JUMPI DUP2 PUSH2 0x17E8 JUMP JUMPDEST DUP3 JUMPDEST SWAP1 POP SWAP3 SWAP2 POP POP JUMP JUMPDEST PUSH0 DUP2 MLOAD SWAP1 POP SWAP2 SWAP1 POP JUMP JUMPDEST PUSH0 DUP3 DUP3 MSTORE PUSH1 0x20 DUP3 ADD SWAP1 POP SWAP3 SWAP2 POP POP JUMP JUMPDEST PUSH0 JUMPDEST DUP4 DUP2 LT ISZERO PUSH2 0x1827 JUMPI DUP1 DUP3 ADD MLOAD DUP2 DUP5 ADD MSTORE PUSH1 0x20 DUP2 ADD SWAP1 POP PUSH2 0x180C JUMP JUMPDEST PUSH0 DUP5 DUP5 ADD MSTORE POP POP POP POP JUMP JUMPDEST PUSH0 PUSH1 0x1F NOT PUSH1 0x1F DUP4 ADD AND SWAP1 POP SWAP2 SWAP1 POP JUMP JUMPDEST PUSH0 PUSH2 0x184C DUP3 PUSH2 0x17F0 JUMP JUMPDEST PUSH2 0x1856 DUP2 DUP6 PUSH2 0x17FA JUMP JUMPDEST SWAP4 POP PUSH2 0x1866 DUP2 DUP6 PUSH1 0x20 DUP7 ADD PUSH2 0x180A JUMP JUMPDEST PUSH2 0x186F DUP2 PUSH2 0x1832 JUMP JUMPDEST DUP5 ADD SWAP2 POP POP SWAP3 SWAP2 POP POP JUMP JUMPDEST PUSH0 PUSH1 0x20 DUP3 ADD SWAP1 POP DUP2 DUP2 SUB PUSH0 DUP4 ADD MSTORE PUSH2 0x1892 DUP2 DUP5 PUSH2 0x1842 JUMP JUMPDEST SWAP1 POP SWAP3 SWAP2 POP POP JUMP JUMPDEST PUSH0 DUP1 REVERT JUMPDEST PUSH0 PUSH20 0xFFFFFFFFFFFFFFFFFFFFFFFFFFFFFFFFFFFFFFFF DUP3 AND SWAP1 POP SWAP2 SWAP1 POP JUMP JUMPDEST PUSH0 PUSH2 0x18C7 DUP3 PUSH2 0x189E JUMP JUMPDEST SWAP1 POP SWAP2 SWAP1 POP JUMP JUMPDEST PUSH2 0x18D7 DUP2 PUSH2 0x18BD JUMP JUMPDEST DUP2 EQ PUSH2 0x18E1 JUMPI PUSH0 DUP1 REVERT JUMPDEST POP JUMP JUMPDEST PUSH0 DUP2 CALLDATALOAD SWAP1 POP PUSH2 0x18F2 DUP2 PUSH2 0x18CE JUMP JUMPDEST SWAP3 SWAP2 POP POP JUMP JUMPDEST PUSH0 DUP2 SWAP1 POP SWAP2 SWAP1 POP JUMP JUMPDEST PUSH2 0x190A DUP2 PUSH2 0x18F8 JUMP JUMPDEST DUP2 EQ PUSH2 0x1914 JUMPI PUSH0 DUP1 REVERT JUMPDEST POP JUMP JUMPDEST PUSH0 DUP2 CALLDATALOAD SWAP1 POP PUSH2 0x1925 DUP2 PUSH2 0x1901 JUMP JUMPDEST SWAP3 SWAP2 POP POP JUMP JUMPDEST PUSH0 DUP1 PUSH1 0x40 DUP4 DUP6 SUB SLT ISZERO PUSH2 0x1941 JUMPI PUSH2 0x1940 PUSH2 0x189A JUMP JUMPDEST JUMPDEST PUSH0 PUSH2 0x194E DUP6 DUP3 DUP7 ADD PUSH2 0x18E4 JUMP JUMPDEST SWAP3 POP POP PUSH1 0x20 PUSH2 0x195F DUP6 DUP3 DUP7 ADD PUSH2 0x1917 JUMP JUMPDEST SWAP2 POP POP SWAP3 POP SWAP3 SWAP1 POP JUMP JUMPDEST PUSH0 DUP2 ISZERO ISZERO SWAP1 POP SWAP2 SWAP1 POP JUMP JUMPDEST PUSH2 0x197D DUP2 PUSH2 0x1969 JUMP JUMPDEST DUP3 MSTORE POP POP JUMP JUMPDEST PUSH0 PUSH1 0x20 DUP3 ADD SWAP1 POP PUSH2 0x1996 PUSH0 DUP4 ADD DUP5 PUSH2 0x1974 JUMP JUMPDEST SWAP3 SWAP2 POP POP JUMP JUMPDEST PUSH2 0x19A5 DUP2 PUSH2 0x18F8 JUMP JUMPDEST DUP3 MSTORE POP POP JUMP JUMPDEST PUSH0 PUSH1 0x20 DUP3 ADD SWAP1 POP PUSH2 0x19BE PUSH0 DUP4 ADD DUP5 PUSH2 0x199C JUMP JUMPDEST SWAP3 SWAP2 POP POP JUMP JUMPDEST PUSH0 DUP1 PUSH0 PUSH1 0x60 DUP5 DUP7 SUB SLT ISZERO PUSH2 0x19DB JUMPI PUSH2 0x19DA PUSH2 0x189A JUMP JUMPDEST JUMPDEST PUSH0 PUSH2 0x19E8 DUP7 DUP3 DUP8 ADD PUSH2 0x18E4 JUMP JUMPDEST SWAP4 POP POP PUSH1 0x20 PUSH2 0x19F9 DUP7 DUP3 DUP8 ADD PUSH2 0x18E4 JUMP JUMPDEST SWAP3 POP POP PUSH1 0x40 PUSH2 0x1A0A DUP7 DUP3 DUP8 ADD PUSH2 0x1917 JUMP JUMPDEST SWAP2 POP POP SWAP3 POP SWAP3 POP SWAP3 JUMP JUMPDEST PUSH0 PUSH1 0x20 DUP3 DUP5 SUB SLT ISZERO PUSH2 0x1A29 JUMPI PUSH2 0x1A28 PUSH2 0x189A JUMP JUMPDEST JUMPDEST PUSH0 PUSH2 0x1A36 DUP5 DUP3 DUP6 ADD PUSH2 0x1917 JUMP JUMPDEST SWAP2 POP POP SWAP3 SWAP2 POP POP JUMP JUMPDEST PUSH0 PUSH1 0x40 DUP3 ADD SWAP1 POP PUSH2 0x1A52 PUSH0 DUP4 ADD DUP6 PUSH2 0x199C JUMP JUMPDEST PUSH2 0x1A5F PUSH1 0x20 DUP4 ADD DUP5 PUSH2 0x199C JUMP JUMPDEST SWAP4 SWAP3 POP POP POP JUMP JUMPDEST PUSH0 PUSH1 0xFF DUP3 AND SWAP1 POP SWAP2 SWAP1 POP JUMP JUMPDEST PUSH2 0x1A7B DUP2 PUSH2 0x1A66 JUMP JUMPDEST DUP3 MSTORE POP POP JUMP JUMPDEST PUSH0 PUSH1 0x20 DUP3 ADD SWAP1 POP PUSH2 0x1A94 PUSH0 DUP4 ADD DUP5 PUSH2 0x1A72 JUMP JUMPDEST SWAP3 SWAP2 POP POP JUMP JUMPDEST PUSH0 DUP2 SWAP1 POP SWAP2 SWAP1 POP JUMP JUMPDEST PUSH2 0x1AAC DUP2 PUSH2 0x1A9A JUMP JUMPDEST DUP3 MSTORE POP POP JUMP JUMPDEST PUSH0 PUSH1 0x20 DUP3 ADD SWAP1 POP PUSH2 0x1AC5 PUSH0 DUP4 ADD DUP5 PUSH2 0x1AA3 JUMP JUMPDEST SWAP3 SWAP2 POP POP JUMP JUMPDEST PUSH0 PUSH1 0x20 DUP3 DUP5 SUB SLT ISZERO PUSH2 0x1AE0 JUMPI PUSH2 0x1ADF PUSH2 0x189A JUMP JUMPDEST JUMPDEST PUSH0 PUSH2 0x1AED DUP5 DUP3 DUP6 ADD PUSH2 0x18E4 JUMP JUMPDEST SWAP2 POP POP SWAP3 SWAP2 POP POP JUMP JUMPDEST PUSH2 0x1AFF DUP2 PUSH2 0x18BD JUMP JUMPDEST DUP3 MSTORE POP POP JUMP JUMPDEST PUSH0 PUSH1 0x20 DUP3 ADD SWAP1 POP PUSH2 0x1B18 PUSH0 DUP4 ADD DUP5 PUSH2 0x1AF6 JUMP JUMPDEST SWAP3 SWAP2 POP POP JUMP JUMPDEST PUSH2 0x1B27 DUP2 PUSH2 0x1A66 JUMP JUMPDEST DUP2 EQ PUSH2 0x1B31 JUMPI PUSH0 DUP1 REVERT JUMPDEST POP JUMP JUMPDEST PUSH0 DUP2 CALLDATALOAD SWAP1 POP PUSH2 0x1B42 DUP2 PUSH2 0x1B1E JUMP JUMPDEST SWAP3 SWAP2 POP POP JUMP JUMPDEST PUSH2 0x1B51 DUP2 PUSH2 0x1A9A JUMP JUMPDEST DUP2 EQ PUSH2 0x1B5B JUMPI PUSH0 DUP1 REVERT JUMPDEST POP JUMP JUMPDEST PUSH0 DUP2 CALLDATALOAD SWAP1 POP PUSH2 0x1B6C DUP2 PUSH2 0x1B48 JUMP JUMPDEST SWAP3 SWAP2 POP POP JUMP JUMPDEST PUSH0 DUP1 PUSH0 DUP1 PUSH0 DUP1 PUSH0 PUSH1 0xE0 DUP9 DUP11 SUB SLT ISZERO PUSH2 0x1B8D JUMPI PUSH2 0x1B8C PUSH2 0x189A JUMP JUMPDEST JUMPDEST PUSH0 PUSH2 0x1B9A DUP11 DUP3 DUP12 ADD PUSH2 0x18E4 JUMP JUMPDEST SWAP8 POP POP PUSH1 0x20 PUSH2 0x1BAB DUP11 DUP3 DUP12 ADD PUSH2 0x18E4 JUMP JUMPDEST SWAP7 POP POP PUSH1 0x40 PUSH2 0x1BBC DUP11 DUP3 DUP12 ADD PUSH2 0x1917 JUMP JUMPDEST SWAP6 POP POP PUSH1 0x60 PUSH2 0x1BCD DUP11 DUP3 DUP12 ADD PUSH2 0x1917 JUMP JUMPDEST SWAP5 POP POP PUSH1 0x80 PUSH2 0x1BDE DUP11 DUP3 DUP12 ADD PUSH2 0x1B34 JUMP JUMPDEST SWAP4 POP POP PUSH1 0xA0 PUSH2 0x1BEF DUP11 DUP3 DUP12 ADD PUSH2 0x1B5E JUMP JUMPDEST SWAP3 POP POP PUSH1 0xC0 PUSH2 0x1C00 DUP11 DUP3 DUP12 ADD PUSH2 0x1B5E JUMP JUMPDEST SWAP2 POP POP SWAP3 SWAP6 SWAP9 SWAP2 SWAP5 SWAP8 POP SWAP3 SWAP6 POP JUMP JUMPDEST PUSH0 DUP1 PUSH1 0x40 DUP4 DUP6 SUB SLT ISZERO PUSH2 0x1C25 JUMPI PUSH2 0x1C24 PUSH2 0x189A JUMP JUMPDEST JUMPDEST PUSH0 PUSH2 0x1C32 DUP6 DUP3 DUP7 ADD PUSH2 0x18E4 JUMP JUMPDEST SWAP3 POP POP PUSH1 0x20 PUSH2 0x1C43 DUP6 DUP3 DUP7 ADD PUSH2 0x18E4 JUMP JUMPDEST SWAP2 POP POP SWAP3 POP SWAP3 SWAP1 POP JUMP JUMPDEST PUSH0 DUP1 PUSH1 0x40 DUP4 DUP6 SUB SLT ISZERO PUSH2 0x1C63 JUMPI PUSH2 0x1C62 PUSH2 0x189A JUMP JUMPDEST JUMPDEST PUSH0 PUSH2 0x1C70 DUP6 DUP3 DUP7 ADD PUSH2 0x1917 JUMP JUMPDEST SWAP3 POP POP PUSH1 0x20 PUSH2 0x1C81 DUP6 DUP3 DUP7 ADD PUSH2 0x1917 JUMP JUMPDEST SWAP2 POP POP SWAP3 POP SWAP3 SWAP1 POP JUMP JUMPDEST PUSH0 DUP2 SWAP1 POP SWAP3 SWAP2 POP POP JUMP JUMPDEST PUSH0 PUSH2 0x1C9F DUP3 PUSH2 0x17F0 JUMP JUMPDEST PUSH2 0x1CA9 DUP2 DUP6 PUSH2 0x1C8B JUMP JUMPDEST SWAP4 POP PUSH2 0x1CB9 DUP2 DUP6 PUSH1 0x20 DUP7 ADD PUSH2 0x180A JUMP JUMPDEST DUP1 DUP5 ADD SWAP2 POP POP SWAP3 SWAP2 POP POP JUMP JUMPDEST PUSH32 0x4E487B7100000000000000000000000000000000000000000000000000000000 PUSH0 MSTORE PUSH1 0x22 PUSH1 0x4 MSTORE PUSH1 0x24 PUSH0 REVERT JUMPDEST PUSH0 PUSH1 0x2 DUP3 DIV SWAP1 POP PUSH1 0x1 DUP3 AND DUP1 PUSH2 0x1D09 JUMPI PUSH1 0x7F DUP3 AND SWAP2 POP JUMPDEST PUSH1 0x20 DUP3 LT DUP2 SUB PUSH2 0x1D1C JUMPI PUSH2 0x1D1B PUSH2 0x1CC5 JUMP JUMPDEST JUMPDEST POP SWAP2 SWAP1 POP JUMP JUMPDEST PUSH0 DUP2 SWAP1 POP DUP2 PUSH0 MSTORE PUSH1 0x20 PUSH0 KECCAK256 SWAP1 POP SWAP2 SWAP1 POP JUMP JUMPDEST PUSH0 DUP2 SLOAD PUSH2 0x1D40 DUP2 PUSH2 0x1CF2 JUMP JUMPDEST PUSH2 0x1D4A DUP2 DUP7 PUSH2 0x1C8B JUMP JUMPDEST SWAP5 POP PUSH1 0x1 DUP3 AND PUSH0 DUP2 EQ PUSH2 0x1D64 JUMPI PUSH1 0x1 DUP2 EQ PUSH2 0x1D79 JUMPI PUSH2 0x1DAB JUMP JUMPDEST PUSH1 0xFF NOT DUP4 AND DUP7 MSTORE DUP2 ISZERO ISZERO DUP3 MUL DUP7 ADD SWAP4 POP PUSH2 0x1DAB JUMP JUMPDEST PUSH2 0x1D82 DUP6 PUSH2 0x1D22 JUMP JUMPDEST PUSH0 JUMPDEST DUP4 DUP2 LT ISZERO PUSH2 0x1DA3 JUMPI DUP2 SLOAD DUP2 DUP10 ADD MSTORE PUSH1 0x1 DUP3 ADD SWAP2 POP PUSH1 0x20 DUP2 ADD SWAP1 POP PUSH2 0x1D84 JUMP JUMPDEST DUP4 DUP9 ADD SWAP6 POP POP POP JUMPDEST POP POP POP SWAP3 SWAP2 POP POP JUMP JUMPDEST PUSH0 PUSH2 0x1DBF DUP3 DUP6 PUSH2 0x1C95 JUMP JUMPDEST SWAP2 POP PUSH2 0x1DCB DUP3 DUP5 PUSH2 0x1D34 JUMP JUMPDEST SWAP2 POP DUP2 SWAP1 POP SWAP4 SWAP3 POP POP POP JUMP JUMPDEST PUSH32 0x4E487B7100000000000000000000000000000000000000000000000000000000 PUSH0 MSTORE PUSH1 0x11 PUSH1 0x4 MSTORE PUSH1 0x24 PUSH0 REVERT JUMPDEST PUSH0 PUSH2 0x1E0E DUP3 PUSH2 0x18F8 JUMP JUMPDEST SWAP2 POP PUSH2 0x1E19 DUP4 PUSH2 0x18F8 JUMP JUMPDEST SWAP3 POP DUP3 DUP3 MUL PUSH2 0x1E27 DUP2 PUSH2 0x18F8 JUMP JUMPDEST SWAP2 POP DUP3 DUP3 DIV DUP5 EQ DUP4 ISZERO OR PUSH2 0x1E3E JUMPI PUSH2 0x1E3D PUSH2 0x1DD7 JUMP JUMPDEST JUMPDEST POP SWAP3 SWAP2 POP POP JUMP JUMPDEST PUSH32 0x4E487B7100000000000000000000000000000000000000000000000000000000 PUSH0 MSTORE PUSH1 0x12 PUSH1 0x4 MSTORE PUSH1 0x24 PUSH0 REVERT JUMPDEST PUSH0 PUSH2 0x1E7C DUP3 PUSH2 0x18F8 JUMP JUMPDEST SWAP2 POP PUSH2 0x1E87 DUP4 PUSH2 0x18F8 JUMP JUMPDEST SWAP3 POP DUP3 PUSH2 0x1E97 JUMPI PUSH2 0x1E96 PUSH2 0x1E45 JUMP JUMPDEST JUMPDEST DUP3 DUP3 DIV SWAP1 POP SWAP3 SWAP2 POP POP JUMP JUMPDEST PUSH0 PUSH2 0x1EAC DUP3 PUSH2 0x18F8 JUMP JUMPDEST SWAP2 POP PUSH2 0x1EB7 DUP4 PUSH2 0x18F8 JUMP JUMPDEST SWAP3 POP DUP3 DUP3 SUB SWAP1 POP DUP2 DUP2 GT ISZERO PUSH2 0x1ECF JUMPI PUSH2 0x1ECE PUSH2 0x1DD7 JUMP JUMPDEST JUMPDEST SWAP3 SWAP2 POP POP JUMP JUMPDEST PUSH0 PUSH1 0x80 DUP3 ADD SWAP1 POP PUSH2 0x1EE8 PUSH0 DUP4 ADD DUP8 PUSH2 0x1AF6 JUMP JUMPDEST PUSH2 0x1EF5 PUSH1 0x20 DUP4 ADD DUP7 PUSH2 0x199C JUMP JUMPDEST PUSH2 0x1F02 PUSH1 0x40 DUP4 ADD DUP6 PUSH2 0x199C JUMP JUMPDEST PUSH2 0x1F0F PUSH1 0x60 DUP4 ADD DUP5 PUSH2 0x199C JUMP JUMPDEST SWAP6 SWAP5 POP POP POP POP POP JUMP JUMPDEST PUSH0 DUP2 MLOAD SWAP1 POP PUSH2 0x1F26 DUP2 PUSH2 0x1901 JUMP JUMPDEST SWAP3 SWAP2 POP POP JUMP JUMPDEST PUSH0 PUSH1 0x20 DUP3 DUP5 SUB SLT ISZERO PUSH2 0x1F41 JUMPI PUSH2 0x1F40 PUSH2 0x189A JUMP JUMPDEST JUMPDEST PUSH0 PUSH2 0x1F4E DUP5 DUP3 DUP6 ADD PUSH2 0x1F18 JUMP JUMPDEST SWAP2 POP POP SWAP3 SWAP2 POP POP JUMP JUMPDEST PUSH0 PUSH2 0x1F61 DUP3 PUSH2 0x18F8 JUMP JUMPDEST SWAP2 POP PUSH2 0x1F6C DUP4 PUSH2 0x18F8 JUMP JUMPDEST SWAP3 POP DUP3 DUP3 ADD SWAP1 POP DUP1 DUP3 GT ISZERO PUSH2 0x1F84 JUMPI PUSH2 0x1F83 PUSH2 0x1DD7 JUMP JUMPDEST JUMPDEST SWAP3 SWAP2 POP POP JUMP JUMPDEST PUSH0 PUSH1 0x80 DUP3 ADD SWAP1 POP PUSH2 0x1F9D PUSH0 DUP4 ADD DUP8 PUSH2 0x1AF6 JUMP JUMPDEST PUSH2 0x1FAA PUSH1 0x20 DUP4 ADD DUP7 PUSH2 0x1AF6 JUMP JUMPDEST PUSH2 0x1FB7 PUSH1 0x40 DUP4 ADD DUP6 PUSH2 0x199C JUMP JUMPDEST PUSH2 0x1FC4 PUSH1 0x60 DUP4 ADD DUP5 PUSH2 0x199C JUMP JUMPDEST SWAP6 SWAP5 POP POP POP POP POP JUMP JUMPDEST PUSH0 DUP2 MLOAD SWAP1 POP PUSH2 0x1FDB DUP2 PUSH2 0x18CE JUMP JUMPDEST SWAP3 SWAP2 POP POP JUMP JUMPDEST PUSH0 PUSH1 0x20 DUP3 DUP5 SUB SLT ISZERO PUSH2 0x1FF6 JUMPI PUSH2 0x1FF5 PUSH2 0x189A JUMP JUMPDEST JUMPDEST PUSH0 PUSH2 0x2003 DUP5 DUP3 DUP6 ADD PUSH2 0x1FCD JUMP JUMPDEST SWAP2 POP POP SWAP3 SWAP2 POP POP JUMP JUMPDEST PUSH0 PUSH1 0x60 DUP3 ADD SWAP1 POP PUSH2 0x201F PUSH0 DUP4 ADD DUP7 PUSH2 0x1AF6 JUMP JUMPDEST PUSH2 0x202C PUSH1 0x20 DUP4 ADD DUP6 PUSH2 0x1AF6 JUMP JUMPDEST PUSH2 0x2039 PUSH1 0x40 DUP4 ADD DUP5 PUSH2 0x199C JUMP JUMPDEST SWAP5 SWAP4 POP POP POP POP JUMP JUMPDEST PUSH2 0x204A DUP2 PUSH2 0x1969 JUMP JUMPDEST DUP2 EQ PUSH2 0x2054 JUMPI PUSH0 DUP1 REVERT JUMPDEST POP JUMP JUMPDEST PUSH0 DUP2 MLOAD SWAP1 POP PUSH2 0x2065 DUP2 PUSH2 0x2041 JUMP JUMPDEST SWAP3 SWAP2 POP POP JUMP JUMPDEST PUSH0 PUSH1 0x20 DUP3 DUP5 SUB SLT ISZERO PUSH2 0x2080 JUMPI PUSH2 0x207F PUSH2 0x189A JUMP JUMPDEST JUMPDEST PUSH0 PUSH2 0x208D DUP5 DUP3 DUP6 ADD PUSH2 0x2057 JUMP JUMPDEST SWAP2 POP POP SWAP3 SWAP2 POP POP JUMP INVALID LOG2 PUSH5 0x6970667358 0x22 SLT KECCAK256 SWAP8 0xE1 0xDE EXP 0xC6 SSTORE 0xC 0x2A 0xC3 0xD1 DUP9 GASPRICE SSTORE DUP16 0xDC TIMESTAMP GASPRICE MOD POP PUSH32 0xC493554CD74E790B4DCC590A64736F6C63430008140033000000000000000000 "
		},
		"gasEstimates": {
			"creation": {
				"codeDepositCost": "1679200",
				"executionCost": "infinite",
				"totalCost": "infinite"
			},
			"external": {
				"DOMAIN_SEPARATOR()": "infinite",
				"LP_FEE()": "414",
				"PROTOCOL_FEE()": "393",
				"allowance(address,address)": "infinite",
				"approve(address,uint256)": "24826",
				"balanceOf(address)": "2820",
				"decimals()": "383",
				"deposit(uint256,uint256)": "infinite",
				"factory()": "2552",
				"kLast()": "2470",
				"name()": "infinite",
				"nonces(address)": "2864",
				"permit(address,address,uint256,uint256,uint8,bytes32,bytes32)": "infinite",
				"quote(address,uint256)": "infinite",
				"sqrt(uint256)": "infinite",
				"swap(address,uint256)": "infinite",
				"symbol()": "infinite",
				"totalSupply()": "2522",
				"transfer(address,uint256)": "51271",
				"transferFrom(address,address,uint256)": "infinite",
				"withdraw(uint256)": "infinite"
			},
			"internal": {
				"_quote(address,uint256)": "infinite",
				"_transfer(address,address,address,uint256)": "infinite",
				"min(uint256,uint256)": "63",
				"mintFee(uint256,uint256)": "infinite",
				"toUint(bool)": "33"
			}
		},
		"methodIdentifiers": {
			"DOMAIN_SEPARATOR()": "3644e515",
			"LP_FEE()": "5e3f2727",
			"PROTOCOL_FEE()": "0b4501fd",
			"allowance(address,address)": "dd62ed3e",
			"approve(address,uint256)": "095ea7b3",
			"balanceOf(address)": "70a08231",
			"decimals()": "313ce567",
			"deposit(uint256,uint256)": "e2bbb158",
			"factory()": "c45a0155",
			"kLast()": "7464fc3d",
			"name()": "06fdde03",
			"nonces(address)": "7ecebe00",
			"permit(address,address,uint256,uint256,uint8,bytes32,bytes32)": "d505accf",
			"quote(address,uint256)": "8f79306e",
			"sqrt(uint256)": "677342ce",
			"swap(address,uint256)": "d004f0f7",
			"symbol()": "95d89b41",
			"totalSupply()": "18160ddd",
			"transfer(address,uint256)": "a9059cbb",
			"transferFrom(address,address,uint256)": "23b872dd",
			"withdraw(uint256)": "2e1a7d4d"
		}
	},
	"abi": [
		{
			"inputs": [
				{
					"internalType": "address",
					"name": "token0",
					"type": "address"
				},
				{
					"internalType": "address",
					"name": "token1",
					"type": "address"
				}
			],
			"stateMutability": "nonpayable",
			"type": "constructor"
		},
		{
			"inputs": [],
			"name": "AMOUNT_EQUALS_ZERO",
			"type": "error"
		},
		{
			"inputs": [],
			"name": "AllowanceOverflow",
			"type": "error"
		},
		{
			"inputs": [],
			"name": "AllowanceUnderflow",
			"type": "error"
		},
		{
			"inputs": [],
			"name": "INSUFFICIENT_AMOUNT",
			"type": "error"
		},
		{
			"inputs": [],
			"name": "INSUFFICIENT_BALANCE",
			"type": "error"
		},
		{
			"inputs": [],
			"name": "InsufficientAllowance",
			"type": "error"
		},
		{
			"inputs": [],
			"name": "InsufficientBalance",
			"type": "error"
		},
		{
			"inputs": [],
			"name": "InvalidPermit",
			"type": "error"
		},
		{
			"inputs": [],
			"name": "NOT_ENOUGH_BALANCE",
			"type": "error"
		},
		{
			"inputs": [],
			"name": "PermitExpired",
			"type": "error"
		},
		{
			"inputs": [],
			"name": "TOKEN_NOT_INSIDE_POOL",
			"type": "error"
		},
		{
			"inputs": [],
			"name": "TRANSFER_FAILED",
			"type": "error"
		},
		{
			"inputs": [],
			"name": "TotalSupplyOverflow",
			"type": "error"
		},
		{
			"anonymous": false,
			"inputs": [
				{
					"indexed": true,
					"internalType": "address",
					"name": "owner",
					"type": "address"
				},
				{
					"indexed": true,
					"internalType": "address",
					"name": "spender",
					"type": "address"
				},
				{
					"indexed": false,
					"internalType": "uint256",
					"name": "amount",
					"type": "uint256"
				}
			],
			"name": "Approval",
			"type": "event"
		},
		{
			"anonymous": false,
			"inputs": [
				{
					"indexed": false,
					"internalType": "address",
					"name": "pool",
					"type": "address"
				},
				{
					"indexed": false,
					"internalType": "uint256",
					"name": "lpAmount",
					"type": "uint256"
				},
				{
					"indexed": false,
					"internalType": "uint256",
					"name": "amount0",
					"type": "uint256"
				},
				{
					"indexed": false,
					"internalType": "uint256",
					"name": "amount1",
					"type": "uint256"
				}
			],
			"name": "Deposit",
			"type": "event"
		},
		{
			"anonymous": false,
			"inputs": [
				{
					"indexed": false,
					"internalType": "address",
					"name": "token0",
					"type": "address"
				},
				{
					"indexed": false,
					"internalType": "address",
					"name": "token1",
					"type": "address"
				},
				{
					"indexed": false,
					"internalType": "uint256",
					"name": "amount0",
					"type": "uint256"
				},
				{
					"indexed": false,
					"internalType": "uint256",
					"name": "amount1",
					"type": "uint256"
				}
			],
			"name": "Swap",
			"type": "event"
		},
		{
			"anonymous": false,
			"inputs": [
				{
					"indexed": true,
					"internalType": "address",
					"name": "from",
					"type": "address"
				},
				{
					"indexed": true,
					"internalType": "address",
					"name": "to",
					"type": "address"
				},
				{
					"indexed": false,
					"internalType": "uint256",
					"name": "amount",
					"type": "uint256"
				}
			],
			"name": "Transfer",
			"type": "event"
		},
		{
			"anonymous": false,
			"inputs": [
				{
					"indexed": false,
					"internalType": "address",
					"name": "pool",
					"type": "address"
				},
				{
					"indexed": false,
					"internalType": "uint256",
					"name": "lpAmount",
					"type": "uint256"
				},
				{
					"indexed": false,
					"internalType": "uint256",
					"name": "amount0",
					"type": "uint256"
				},
				{
					"indexed": false,
					"internalType": "uint256",
					"name": "amount1",
					"type": "uint256"
				}
			],
			"name": "Withdraw",
			"type": "event"
		},
		{
			"inputs": [],
			"name": "DOMAIN_SEPARATOR",
			"outputs": [
				{
					"internalType": "bytes32",
					"name": "result",
					"type": "bytes32"
				}
			],
			"stateMutability": "view",
			"type": "function"
		},
		{
			"inputs": [],
			"name": "LP_FEE",
			"outputs": [
				{
					"internalType": "uint256",
					"name": "",
					"type": "uint256"
				}
			],
			"stateMutability": "view",
			"type": "function"
		},
		{
			"inputs": [],
			"name": "PROTOCOL_FEE",
			"outputs": [
				{
					"internalType": "uint256",
					"name": "",
					"type": "uint256"
				}
			],
			"stateMutability": "view",
			"type": "function"
		},
		{
			"inputs": [
				{
					"internalType": "address",
					"name": "owner",
					"type": "address"
				},
				{
					"internalType": "address",
					"name": "spender",
					"type": "address"
				}
			],
			"name": "allowance",
			"outputs": [
				{
					"internalType": "uint256",
					"name": "result",
					"type": "uint256"
				}
			],
			"stateMutability": "view",
			"type": "function"
		},
		{
			"inputs": [
				{
					"internalType": "address",
					"name": "spender",
					"type": "address"
				},
				{
					"internalType": "uint256",
					"name": "amount",
					"type": "uint256"
				}
			],
			"name": "approve",
			"outputs": [
				{
					"internalType": "bool",
					"name": "",
					"type": "bool"
				}
			],
			"stateMutability": "nonpayable",
			"type": "function"
		},
		{
			"inputs": [
				{
					"internalType": "address",
					"name": "owner",
					"type": "address"
				}
			],
			"name": "balanceOf",
			"outputs": [
				{
					"internalType": "uint256",
					"name": "result",
					"type": "uint256"
				}
			],
			"stateMutability": "view",
			"type": "function"
		},
		{
			"inputs": [],
			"name": "decimals",
			"outputs": [
				{
					"internalType": "uint8",
					"name": "",
					"type": "uint8"
				}
			],
			"stateMutability": "view",
			"type": "function"
		},
		{
			"inputs": [
				{
					"internalType": "uint256",
					"name": "amount0",
					"type": "uint256"
				},
				{
					"internalType": "uint256",
					"name": "amount1",
					"type": "uint256"
				}
			],
			"name": "deposit",
			"outputs": [
				{
					"internalType": "uint256",
					"name": "liquidity",
					"type": "uint256"
				}
			],
			"stateMutability": "nonpayable",
			"type": "function"
		},
		{
			"inputs": [],
			"name": "factory",
			"outputs": [
				{
					"internalType": "address",
					"name": "",
					"type": "address"
				}
			],
			"stateMutability": "view",
			"type": "function"
		},
		{
			"inputs": [],
			"name": "kLast",
			"outputs": [
				{
					"internalType": "uint256",
					"name": "",
					"type": "uint256"
				}
			],
			"stateMutability": "view",
			"type": "function"
		},
		{
			"inputs": [],
			"name": "name",
			"outputs": [
				{
					"internalType": "string",
					"name": "",
					"type": "string"
				}
			],
			"stateMutability": "view",
			"type": "function"
		},
		{
			"inputs": [
				{
					"internalType": "address",
					"name": "owner",
					"type": "address"
				}
			],
			"name": "nonces",
			"outputs": [
				{
					"internalType": "uint256",
					"name": "result",
					"type": "uint256"
				}
			],
			"stateMutability": "view",
			"type": "function"
		},
		{
			"inputs": [
				{
					"internalType": "address",
					"name": "owner",
					"type": "address"
				},
				{
					"internalType": "address",
					"name": "spender",
					"type": "address"
				},
				{
					"internalType": "uint256",
					"name": "value",
					"type": "uint256"
				},
				{
					"internalType": "uint256",
					"name": "deadline",
					"type": "uint256"
				},
				{
					"internalType": "uint8",
					"name": "v",
					"type": "uint8"
				},
				{
					"internalType": "bytes32",
					"name": "r",
					"type": "bytes32"
				},
				{
					"internalType": "bytes32",
					"name": "s",
					"type": "bytes32"
				}
			],
			"name": "permit",
			"outputs": [],
			"stateMutability": "nonpayable",
			"type": "function"
		},
		{
			"inputs": [
				{
					"internalType": "address",
					"name": "token",
					"type": "address"
				},
				{
					"internalType": "uint256",
					"name": "amount",
					"type": "uint256"
				}
			],
			"name": "quote",
			"outputs": [
				{
					"internalType": "uint256",
					"name": "",
					"type": "uint256"
				}
			],
			"stateMutability": "view",
			"type": "function"
		},
		{
			"inputs": [
				{
					"internalType": "uint256",
					"name": "a",
					"type": "uint256"
				}
			],
			"name": "sqrt",
			"outputs": [
				{
					"internalType": "uint256",
					"name": "",
					"type": "uint256"
				}
			],
			"stateMutability": "pure",
			"type": "function"
		},
		{
			"inputs": [
				{
					"internalType": "address",
					"name": "token",
					"type": "address"
				},
				{
					"internalType": "uint256",
					"name": "amount",
					"type": "uint256"
				}
			],
			"name": "swap",
			"outputs": [
				{
					"internalType": "uint256",
					"name": "amountOut",
					"type": "uint256"
				}
			],
			"stateMutability": "nonpayable",
			"type": "function"
		},
		{
			"inputs": [],
			"name": "symbol",
			"outputs": [
				{
					"internalType": "string",
					"name": "",
					"type": "string"
				}
			],
			"stateMutability": "view",
			"type": "function"
		},
		{
			"inputs": [],
			"name": "totalSupply",
			"outputs": [
				{
					"internalType": "uint256",
					"name": "result",
					"type": "uint256"
				}
			],
			"stateMutability": "view",
			"type": "function"
		},
		{
			"inputs": [
				{
					"internalType": "address",
					"name": "to",
					"type": "address"
				},
				{
					"internalType": "uint256",
					"name": "amount",
					"type": "uint256"
				}
			],
			"name": "transfer",
			"outputs": [
				{
					"internalType": "bool",
					"name": "",
					"type": "bool"
				}
			],
			"stateMutability": "nonpayable",
			"type": "function"
		},
		{
			"inputs": [
				{
					"internalType": "address",
					"name": "from",
					"type": "address"
				},
				{
					"internalType": "address",
					"name": "to",
					"type": "address"
				},
				{
					"internalType": "uint256",
					"name": "amount",
					"type": "uint256"
				}
			],
			"name": "transferFrom",
			"outputs": [
				{
					"internalType": "bool",
					"name": "",
					"type": "bool"
				}
			],
			"stateMutability": "nonpayable",
			"type": "function"
		},
		{
			"inputs": [
				{
					"internalType": "uint256",
					"name": "lpAmount",
					"type": "uint256"
				}
			],
			"name": "withdraw",
			"outputs": [
				{
					"internalType": "uint256",
					"name": "amount0",
					"type": "uint256"
				},
				{
					"internalType": "uint256",
					"name": "amount1",
					"type": "uint256"
				}
			],
			"stateMutability": "nonpayable",
			"type": "function"
		}
	]
}